:100000000C946D010C94D8190C94B1190C94FF192F
:100010000C94FF190C94FF190C948F1A0C949501F1
:100020000C9495010C9495010C9495010C949501F8
:100030000C9495010C9495010C9495010C949501E8
:100040000C9467190C9495010C9464180C943E1848
:100050000C9495010C9495010C9495010C949501C8
:100060000C9495010C9495015270793A000A4F73E3
:10007000633A00557365643A004C6173743A004307
:10008000616C20426174743A2000496E6974204D9D
:10009000656D733A006D620A0027432050726573E4
:1000A000733A2000534649443B00415456300A00FD
:1000B000415445300A004000536967466F783A2042
:1000C000004E657720667700667265652052616D27
:1000D0003A200054656D703A2000252000204261CE
:1000E000743A00526576204A756E203133203230E2
:1000F00031392031303A34333A31390A00486964B1
:100100006E5365656B2076335F3239495F45550A1A
:100110000072706C793A002041434B002072756E7A
:100120003D00207765616B00206D6F643D002064A9
:1001300065743D00206361703D0020766F6C743DF6
:100140000020636F6C643D0020616C743D00C2B0A0
:100150004300206C61743D002072706C793D006D2D
:1001600073673D002C322C310041542453463D002E
:10017000207370643D0020002F00682072656D615F
:10018000696E73200052435A004F4B00206C6F6E13
:100190003D006C6F636B65642000206C61743D00F2
:1001A0004661696C00456E61626C65640A0020639B
:1001B00074656D703D003A00206261743D004C6FC3
:1001C00077204261740A00202A0020727373693D0F
:1001D00000203168723D00206F6E653D0020776120
:1001E00069743D00207065723D00206163633D00CD
:1001F000636F64653D00206F6E2000476574204189
:10020000636B206174200000000000250028002B93
:100210000000000000240027002A00000000002346
:100220000026002900040404040404040402020259
:100230000202020303030303030102040810204027
:1002400080010204081020010204081020000000B0
:100250000800020100000304070000000000000085
:10026000004154533330323D0024504D544B333110
:10027000342C302C312C302C312C302C302C302C98
:10028000302C302C302C302C302C302C302C302C8E
:10029000302C302C302C302A0024504D544B33312C
:1002A000342C302C312C302C312C302C312C302C67
:1002B000302C302C302C302C302C302C302C302C5E
:1002C000302C302C302C302A0024504D544B3136F9
:1002D000312C302A00002D2E972F11241FBECFEF76
:1002E000D8E0DEBFCDBF11E0A0E0B1E0EAE4F6E681
:1002F00002C005900D92A23AB107D9F724E0A2EA14
:10030000B1E001C01D92A731B207E1F711E0CCE6E0
:10031000D1E004C02197FE010E94F532CB36D1070F
:10032000C9F70E94A1200C9418330C9400002F925E
:100330003F924F925F926F927F928F929F92AF9275
:10034000BF92CF92DF92EF92FF920F931F93CF93C2
:10035000DF9300D01F92CDB7DEB7882E962E81E0B6
:100360008093C00121E02B83811002C01B8202C058
:100370000E94B0165E980E9474120E94971C4B81D6
:1003800041110E94061000910D0110910E010D31D6
:1003900085E2180720F48091A501823020F01092A8
:1003A000D7011092D6018091BE019091BF018110BA
:1003B00087C02091BB013091BC012F36310560F020
:1003C0008F37E4E09E0728F0409111014093D70158
:1003D00007C02238310520F41092D7011092D601BF
:1003E0008130F0E19F0750F0A4E096958795AA959B
:1003F000E1F7915F9093BF018093BE018091BE01B0
:100400009091BF018115904230F08FEF9FE1909362
:10041000BF018093BE0180910101882341F0232B0D
:1004200031F421E030E03093BC012093BB012091F6
:10043000BB013091BC012530310550F4882321F0F7
:100440008091A401813021F41092BC011092BB0173
:100450008091BB019091BC018038910560F0F4E07F
:1004600096958795FA95E1F7825A9F4F9093BC0134
:100470008093BB010DC08B35910550F063E070E0B7
:100480000E949F32645C7F4F7093BC016093BB01FC
:100490008091BB019091BC018F37910530F08FE7BF
:1004A00090E09093BC018093BB01809104039091F4
:1004B000050368E273E20E949F326093BA0119C09B
:1004C000E3E08E16B1F02091A301243008F023E080
:1004D0002093BA01892B69F48091D4019091D501C0
:1004E00066E170E00E949F3277277093BC016093B1
:1004F000BB012091BE013091BF014091BB015091E1
:10050000BC016A01E12CF12C8CE0CC0CDD1CEE1C52
:10051000FF1C8A95D1F7C901A0E0B0E063E1880F24
:10052000991FAA1FBB1F6A95D1F7C82AD92AEA2AA0
:10053000FB2A8091BA018370482E512C612C712CBA
:100540007AE0440C551C661C771C7A95D1F7D701CC
:10055000C60184299529A629B7296091D3016F770F
:10056000C62ED12CE12CF12CE3E0CC0CDD1CEE1CD2
:10057000FF1CEA95D1F7C82AD92AEA2AFB2AFB816F
:10058000FF2309F442C043E0481568F5232B59F5D1
:1005900060910F0170911001072E000C880B990BD0
:1005A0000E94CE2F20E030E048EC52E40E94D1318E
:1005B0006093AB017093AC018093AD019093AE0159
:1005C000B80180E090E00E94CC2F20E030E040E2D3
:1005D00051E40E94D1316093AF017093B0018093D8
:1005E000B1019093B201882D8770C82AC092B301DF
:1005F000D092B401E092B501F092B60185E0881284
:10060000B0C28FEF80930001ACC28091A20188300C
:1006100010F082E002C0869586958093000180915B
:1006200000018370C82AC092B301D092B401E09255
:10063000B501F092B601E091BD01F0E0E05EFE4F41
:100640008081882379F08091050180FF0BC0283DCF
:100650003E4030F04E36510518F08091D70181119F
:100660000E94F41F2A9B0AC08091050118160CF005
:1006700075C280910401882309F470C20091B3010E
:100680001091B4012091B5013091B60128013901D2
:1006900093E176946794579447949A95D1F75201D1
:1006A000680179014CE0F694E794D794C7944A9591
:1006B000D1F7E894C7F8DD24B901A801EAE07695FE
:1006C000679557954795EA95D1F71A01E3E02E22F1
:1006D0003324B901A801F3E07695679557954795BE
:1006E000FA95D1F7CA018F7799279A838983077082
:1006F00011270E94041B8091BD01811103C082E972
:1007000091E00AC085E891E00E94B61C8091BD018D
:100710000E94B91486E791E00E94B61C8FE591E033
:100720000E94B61C8091A6010E94B91488E591E050
:100730000E94B61C8091D00190E02091CF01821BD5
:1007400091090E94C21482E591E00E94B61CFF2428
:10075000F39420E030E044E353E46091AF01709102
:10076000B0018091B1019091B2010E9479321816C6
:100770001CF0F12C47E001C042E06091AB017091A8
:10078000AC018091AD019091AE010E947113FF20E8
:1007900021F08EE491E00E94B61C8CE891E00E946A
:1007A000B61CF11002C047E001C041E06091AF010A
:1007B0007091B0018091B1019091B2010E947113CA
:1007C000E12CF12CAB28C1F088E491E00E94B61C2A
:1007D0002AE0B301A2018EEF91E00E94F11780910F
:1007E00004018823F1F081E491E00E94B61C80911D
:1007F00004010E94B91415C00330110591F08AE379
:1008000091E00E94B61CC701B6010E94CC2F20E0E7
:1008100030E040E251E40E94D13141E00E94711386
:100820000BC080E791E00E94B61C2AE0B701A60148
:100830008EEF91E00E94F11784E391E00E94B61CD4
:10084000A10160E070E02AE08EEF91E00E94F117D4
:1008500088EB91E00E94B61CE981FA81AF0160E06B
:1008600070E02AE08EEF91E00E94F1178EE291E0B5
:100870000E94B61C80910101082E000C990B0E9469
:10088000C21488E291E00E94B61CA80160E070E00A
:100890002AE08EEF91E00E94F1178091D101882328
:1008A00021F082E291E00E94B61C8CE191E00E946E
:1008B000B61C0E94051928EE33E040E050E00E948B
:1008C0003331BA01A9012AE08EEF91E00E94F117BD
:1008D000992021F087E191E00E94B61CFB81FF2363
:1008E00021F08091D601811103C01091D70101C080
:1008F00011E0E091BD01F0E0E05EFE4F80818111EA
:1009000009C023E0821208C001E08091BA01882367
:1009100021F002C001E001C000E08091050118163D
:1009200014F08FE001C081E00E944C19111182C0C7
:10093000002309F47FC089E893E00E947116892B97
:1009400029F089E893E00E948916F5CF89E691E0C5
:100950000E94F6140BEA11E08CE0D82ED00E78013C
:10096000F801608162956F7060636A330CF0695DB5
:1009700089E893E00E941D160F5F1F4FF701608109
:100980006F7060636A330CF0695D89E893E00E94E0
:100990001D16D012E4CF992021F084E691E00E9448
:1009A000F61489E893E00E943A18911002C00E9460
:1009B000111987EC91E00E94B61C109102011123DD
:1009C00041F18091A7011817E1F080E090E00E94CA
:1009D000F41A8093A7018117A1F00E94FD1B60917A
:1009E000020180E090E00E94F21A8091020160E032
:1009F00090E00E94F21A809102018093A701109268
:100A0000A6018091A6018E3F30F48F5F8093A601EE
:100A100002C01092A60161E087E090E00E94E21C13
:100A20008091BD018130B9F460E088E090E00E94DF
:100A3000E21C11C060910301611104C06091D201F8
:100A400081E068278091050180FD02C08AE001C035
:100A500082E00E94A11C8EEF91E00E943A18811062
:100A600008C081E09091050119160CF480E0809394
:100A7000050180910401882311F0882041F08091C4
:100A8000AA01882341F08091D3018B3020F02A9A6B
:100A900082E08093A9015F985E988AB1806C8AB9E0
:100AA00080910F01909110018137974124F480913A
:100AB000D301803610F0429801C0429A8091D10152
:100AC000882309F4D5C02A981092A90160E089E032
:100AD00090E00E94E21C8EEB91E00E94B61C8EEF2B
:100AE00091E00E94E1150E94FD1B0E94A0140E944B
:100AF000BB168BB18B7E8BB9299812EE8091D301F6
:100B0000823078F420E030E040E050E069E070E0CE
:100B100088EA91E00E94A61A115081F70E9474128F
:100B2000ECCF299A8BB184618BB90E94B0160F90DB
:100B30000F900F90DF91CF911F910F91FF90EF9049
:100B4000DF90CF90BF90AF909F908F907F906F90ED
:100B50005F904F903F902F900C948E140E94AF1B8B
:100B60008DCD0E94BB1624E082127EC08091BE0112
:100B70009091BF01892B09F477C04091B301509146
:100B8000B4016091B5017091B6016A017B01A3E1E6
:100B9000F694E794D794C794AA95D1F7BCE07695DC
:100BA000679557954795BA95D1F74F775527509345
:100BB000BC014093BB0181E191E00E94B61C8D2DE8
:100BC0000E94F61A86EB91E00E94B61CC601992796
:100BD00096958795969587950E94F61A86EB91E0F3
:100BE0000E94B61C8C2D8370880F880F0E94F61A05
:100BF0001091BB014090AB015090AC016090AD01F1
:100C00007090AE01C090AF01D090B001E090B10102
:100C1000F090B2018AE991E00E94B61C47E0C3015E
:100C2000B2010E9471138CE891E00E94B61C47E06B
:100C3000C701B6010E94711380E791E00E94B61CC3
:100C4000812F0E94B91486E791E00E94B61C809122
:100C5000D00190E02091CF01821B91090E94C21423
:100C60008EEF91E00E943A188FEF80930501FACC45
:100C70000F900F900F90DF91CF911F910F91FF90E8
:100C8000EF90DF90CF90BF90AF909F908F907F902C
:100C90006F905F904F903F902F9008952F923F92CA
:100CA0004F925F926F927F928F929F92AF92BF927C
:100CB000CF92DF92EF92FF920F931F93CF93DF9328
:100CC000CDB7DEB76A970FB6F894DEBF0FBECDBFC3
:100CD000982E24E0821304C08091D001811157988E
:100CE0008091CE018230C8F081E08093CE019110D6
:100CF00009C01092BC011092BB010E94F41F0E9417
:100D0000011F09C035E0931208C01092BF01109274
:100D1000BE018093C70174E0972E11E08091CC0151
:100D20009091CD01892B09F410E045E0941611F063
:100D3000911029C010920F048091C60155E09512C0
:100D40000DC01092C7011092A40187FD1092C60138
:100D50008091C6018430ACF58F5F12C09091A401E0
:100D6000911103C092E09093A4011092C70118164C
:100D700014F41092C6018091C6018D3F14F1815088
:100D80008093C6011EC01092C6011092A4011111D9
:100D900015C064E0961215C080910F04882341F0BD
:100DA0008091A501823020F48091CE01882349F002
:100DB0008091C4019091C501892B19F410920F0400
:100DC00011E0612F892D0E9497018091AA0188234B
:100DD00019F081508093AA0180E00E94841D7091D7
:100DE000AA017E87911006C08091BB019091BC0141
:100DF0000B9718F48E85882321F084E080930101FD
:100E000002C01092010194E0991203C08091CE01BA
:100E100081111092A501E091A501EA87C090CC0153
:100E2000D090CD018090C60124E0921223C0809121
:100E3000BE019091BF01892B31F09091D00180913A
:100E4000CF01981317C08091C701811113C0809101
:100E5000FE039091FF030A8402C0880F991F0A9431
:100E6000E2F79093CB018093CA01C114D10409F039
:100E70007FC0B2C61092A5013DEF831614F008E0C2
:100E800001C004E0E0900801F090090144E09412F0
:100E900017C08091BE019091BF01892B89F0B701E5
:100EA00080E090E00E94CC2F20E030E040E952E466
:100EB0000E94C72F87FD0BC068E4E62EF12C07C007
:100EC000802F90E08E159F0510F4E81AF90AF09231
:100ED000CB01E092CA01C114D10409F469C058E001
:100EE000C516D10408F060C091104BC080911A0162
:100EF000482F50E02091190130E0B9019CE3899F0F
:100F0000600D711D11248091FE039091FF036D32DD
:100F1000E1E07E0714F008970EC0643B710514F4FD
:100F2000089609C0643F710510F0019704C06E3E39
:100F3000710528F001969093FF038093FE038CE1E6
:100F400090E0BC01641B750BAB016091FE037091D6
:100F5000FF03469FC001479F900D569F900D11249F
:100F600053E0220F331F5A95E1F7821B930B13C0F6
:100F70003A8507E0333008F434C648E0C416D1049B
:100F800098F42091FE033091FF0348E1429FC00195
:100F9000439F900D11249093CB018093CA019093AD
:100FA000CD018093CC0104C0D092CB01C092CA0184
:100FB00073E078153CF08091CA019091CB018F309D
:100FC000904180F08091CE0181110CC08091CC01C4
:100FD0009091CD01892B31F48BE991E09093CB0175
:100FE0008093CA014B9B04C01092C3011092C201AE
:100FF0008CEF890D823068F08091CE01823060F4F0
:101000008091CC019091CD01892B49F428E029876A
:1010100008C039E0398705C049E0498702C059E076
:1010200059878091CA019091CB018630910528F0B3
:10103000112379F00C9718F00CC0112319F08CE0F3
:1010400090E002C086E090E09093CB018093CA01CB
:1010500003E04091CA015091CB01802F90E08417AA
:10106000950730F4BA01681B790B7D876C8702C045
:101070005D874C8760E070E02AE08EEF91E00E948F
:10108000F1178EEF91E00E943A188EEF91E00E94E6
:101090006D15892B29F08EEF91E00E944B15F5CF4D
:1010A00080910301882329F08091D201811110924F
:1010B000030122242394312C812C1B868091CA01A8
:1010C0009091CB012816390608F08AC4112321F02B
:1010D00072E02716310430F461E0898590E00E94C7
:1010E000E21C75C080917A008F7780937A0080919E
:1010F00064008160809364008091640088608093C4
:101100006400809164008062809364008091640038
:1011100084608093640080916400826080936400A6
:10112000809164008068809364008985887011F4E0
:1011300098E001C098E289858770892B98E10FB605
:10114000F894A895909360000FBE80936000809102
:10115000600080648093600083B7817F83BFF894D0
:1011600083B7816083BF7894889583B78E7F83BF70
:101170007894809164008E7F8093640080917A00DF
:10118000806880937A0080916400877F80936400F8
:10119000809164008F7D80936400809164008B7FD8
:1011A00080936400809164008D7F809364008091BF
:1011B00064008F7780936400898590E00E943B1BD8
:1011C0002091C10190E0820F911D8093C101809117
:1011D000CC019091CD018230910520F1019790933F
:1011E000CD018093CC0180910F048823D9F0C101F7
:1011F0006FE070E00E949F32892BA1F49091D001A2
:101200008091CF01891770F4E091BD01F0E0E05EBC
:10121000FE4F8081882331F00E94011F60E084E04E
:101220000E9497018091C4019091C501009731F00F
:1012300001979093C5018093C40107C08091070175
:10124000823018F482E0809307018091D2018823D4
:1012500019F08AB18F738AB98091C301882319F17B
:101260008091C3018F3108F45F9880E290E00E9482
:101270004F124B9905C08091C3018F3108F4CCC344
:101280004B9BCCC38091C3018F3008F0C7C3109231
:10129000C3018091C301803248F09FEF291A390AB7
:1012A000E8E0E98703C02FEF221A320A8091C301D8
:1012B0008111E6C38091D201882309F4E1C30E9421
:1012C000971C112309F452C317E089E893E00E94A8
:1012D0007116892B79F089E893E00E947116892BA9
:1012E00081F4A12CB12CC12CD12CE12CF12C00E0EB
:1012F00010E08AC084E690E00E944F12115029F756
:10130000EACF0E9405192B013C01A12CB12CC12C64
:10131000D12CE12CF12C00E010E00E940519DC0139
:10132000CB0184199509A609B709883E9340A10508
:10133000B10508F069C089E893E00E947116892B15
:1013400061F30E9405192B013C0189E893E00E949A
:101350008916E82F8D3209F380ED8E0F8A3080F4E4
:101360009501A601B701C80104E00E94C7325901E6
:101370006A017B018C010E2E000CFF0BF09713C04D
:101380008FEB8E0F8630F8F49501A601B701C801E6
:1013900004E00E94C73259016A017B018C010E2EC4
:1013A000000CFF0BF7979F2F990F990B9F01492F67
:1013B000592F692F792F892F0E94E03259016A0134
:1013C0007B018C01AACF8FE98E0F863088F49501BE
:1013D000A601B701C80104E00E94C73259016A01A1
:1013E0007B018C010E2E000CFF0BE755F109DBCFC2
:1013F000EA3009F092CF9501A601B701C801A0E03B
:101400000E94E93209F489CFA982BA82CB82DC82B8
:10141000ED82FE820F8318870B811C810115110557
:1014200009F48CC24D805E806F8078844114510431
:10143000610440E4740608F481C281E080930F04E3
:101440001092C101C301B2012CE330E040E050E052
:101450000E94333169017A01ACE3B0E00E9420318F
:10146000A3019201261B370B480B590B2F87388B92
:10147000498B5A8BC701B6012CE330E040E050E0C5
:101480000E94333129013A01ACE3B0E00E942031DF
:10149000A7019601261B370B480B590B2B8B3C8B56
:1014A0004D8B5E8BC301B20128E130E040E050E09B
:1014B0000E94333169017A01A8E1B0E00E94203135
:1014C000A3019201261B370B480B590B2F8B388F2A
:1014D000498F5A8F32EB432E37E0532E612C712CFB
:1014E000D301C20183709927AA27BB27892B8A2B96
:1014F0008B2BE1F4C301B20124E630E040E050E080
:101500000E943331672B682B692B61F4C301B20150
:1015100020E931E040E050E00E943331672B682B36
:10152000692B21F421E08EE691E003C020E08DE6F6
:1015300091E0A0E0B0E0C816D906EA06FB0630F458
:10154000E5E2F1E080E090E0DC0120C0C81AD90AB1
:10155000EA0AFB0A3FEF431A530A630A730AC0CF31
:1015600021114F5F50E060E070E0C416D506E6063A
:10157000F70698F0C41AD50AE60AF70A0196A11DE3
:10158000B11D8C309105A105B10539F04191813033
:101590009105A105B10531F7E3CF0196A11DB11D5C
:1015A00080931D014FEFC41AD40AE40AF40AC092D2
:1015B000020150921C0140921B015F8950931A0155
:1015C0006B89609319017F85709318018BEF91E00F
:1015D0000E94B61CA10160E070E02AE08EEF91E06D
:1015E0000E94F11786EF91E00E94B61C0E94041B36
:1015F0000E3B8AEB180761F48EEF91E00E94E11533
:1016000080E18093010180910801909109017FC0E0
:101610000E359AEB1907D9F5E980FA80C701917068
:10162000009731F09093C9018093C8010E94091C72
:10163000EF2CFF24E694F092C901E092C8018EEFEE
:1016400091E00E94E115E114F10489F02AE52E9D54
:10165000C0012F9D900D11249093CD018093CC015A
:101660009093CB018093CA0110920101D1C0809167
:101670000801909109019093CB018093CA011092C7
:10168000CD011092CC0180E180930101C1C00A3DDF
:10169000EEEC1E0729F48EEF91E00E94E115B8C030
:1016A0000E3F2AEC1207C1F589819A8197FF05C088
:1016B0009093C9018093C801ABC091709093C90108
:1016C0008093C801C090CA01D090CB01E090FE0386
:1016D000F090FF030E94091C8091CC019091CD01F4
:1016E000892B09F095C00A8402C0EE0CFF1C0A94F5
:1016F000E2F7CE14DF0409F08BC08091FE039091D5
:10170000FF030A8402C0880F991F0A94E2F790939E
:10171000CB018093CA017CC00F3E3EEB1307C1F59D
:10172000E980FA80C7018F779927009719F4109202
:10173000AA0102C08093AA01E7FC04C081E0809363
:10174000110102C0109211018F2D992787FD9A95E2
:101750009093C9018093C8011816190634F40E94A9
:10176000671C909309018093080180910801909172
:1017700009019093CB018093CA018091A901811145
:1017800002C00E94BD1B8F2D81700E94C71C40C0EB
:101790000F3A4AEF140751F48981811104C081E0A6
:1017A0008093110135C01092110132C00E3C5AEFE6
:1017B000150721F005306CEE160769F4F9808F2DBE
:1017C0000E94C71CF4FC1092CE01F5FE21C081E0FE
:1017D0008093CE011DC00D3A7EED170759F4898123
:1017E0009A81909307010E94671C9093090180934E
:1017F00008010EC00A3B8AEB180751F00E3E9AEA28
:10180000190731F0013FE1E31E0711F010920F04B8
:1018100080910F04882399F18091CC019091CD01A2
:10182000892BF1F49091D0018091CF019817C1F0EC
:10183000E0900801F0900901B70180E090E00E947B
:10184000CC2F20E030E040E952E40E94C72F87FD12
:1018500003C088E4E82EF12CF092CB01E092CA019B
:1018600080911601909117019093C5018093C40156
:1018700080910401811103C08FEF8093040180EFF8
:1018800091E00E94B61CA80160E070E020E18EEFBC
:1018900091E00E94F1178AEE91E00E94B61C8091BF
:1018A00007010E94B91484EE91E00E94B61C409199
:1018B00008015091090160E070E02AE08EEF91E0AC
:1018C0000E94F1178DED91E00E94B61C4091CA0173
:1018D0005091CB0160E070E02AE08EEF91E00E9431
:1018E000F11787ED91E00E94B61C4091CC01509118
:1018F000CD0160E070E02AE08EEF91E00E94F117E8
:1019000081ED91E00E94B61C4091FE035091FF03CF
:1019100060E070E02AE08EEF91E00E94F1178AEC1F
:1019200091E00E94B61C8091C8019091C9010E946B
:10193000C2148EEF91E00E943A1805C089819A8105
:101940008D3E910549F080910F04811105C011E091
:101950002CE02216310408F010E08091C3018823A6
:1019600059F061E082E00E94A11C06C08091C00194
:10197000813011F41092C00180910101833064F034
:1019800091100AC04C855D854215530528F42A9AAA
:1019900081E08093A9011BC02A9B19C0C1018770F7
:1019A0009927892B21F4111102C00E947412898594
:1019B00090E00E943B1B90910401891720F4981B32
:1019C0009093040104C0109204010E94AF1B81E0B7
:1019D0000E94841D811158C05B85511155C0B1C052
:1019E000111176CB2091010123300CF0B1C0209170
:1019F000CE01223008F0ACC02091AA012111A8C06C
:101A00002091C3012111A4C02091CC013091CD01BE
:101A1000232B09F09DC0D6C05F9A32CC8091C301C0
:101A20008F3058F48FE08093C30191E04B9916C03A
:101A30008091C3018F3119F411C090E0F7CF8091EC
:101A4000C3018F3128F48091C3018F5F8093C3015C
:101A5000992309F41ECC86E089871BCC8091C301B1
:101A6000833130F08091C301873110F482E201C0EC
:101A700080E28093C3011092CB011092CA01E8CF9B
:101A80008AB1806C8AB91BCC111126C02091CC017F
:101A90003091CD0180910101232B51F0811119C0AA
:101AA00083E08093010160E086E00E94970111C00D
:101AB00080311CF48F5F8093010164E0961629F059
:101AC0008091AA017E85781721F01092CB011092A7
:101AD000CA01812C1B8603C0812C81E08B878091F9
:101AE000CE01882339F08091FE039091FF032816E0
:101AF000390648F500E08091010180311CF096E044
:101B00009916A1F0682D70E080E090E00E94CE2F41
:101B100020E030E040E952E40E94793287FD04C0C1
:101B20008091C601843014F4002321F03092CB015F
:101B30002092CA018091C3018111C0CA5E985F984A
:101B4000BDCA8394CCCF82E08093CE0101E0D3CF95
:101B500081E0809301018091A401823068F080913E
:101B60000101811109C01092C60181E08093010139
:101B70008093A401109205018091010118161CF4B4
:101B80000E94BD1B02C00E94501B10920601809152
:101B900001016A960FB6F894DEBF0FBECDBFDF918C
:101BA000CF911F910F91FF90EF90DF90CF90BF905A
:101BB000AF909F908F907F906F905F904F903F90ED
:101BC0002F900895E4E09E1204C0892B11F48FEF4A
:101BD000C0CF10920101BFCF2A8503E0233008F067
:101BE000E7C98A858F5F8093A50175C9CF92DF927F
:101BF000EF92FF92CF93DF930E9405196B017C0156
:101C000084E98093BC00C091DA01D091DB0190910E
:101C1000BC00892F807194FF18C02097C1F30E94E7
:101C20000519DC01CB018C199D09AE09BF09AE0174
:101C300060E070E084179507A607B70720F31092BD
:101C4000BC0084E48093BC0081E0DF91CF91FF90E1
:101C5000EF90DF90CF900895CF92DF92EF92FF92B6
:101C6000CF93DF93C82F0E9405196B017C01CC2311
:101C700011F084EC01C084E88093BC00C091DA01CB
:101C8000D091DB018091BC0087FD19C02097D1F372
:101C90000E940519DC01CB018C199D09AE09BF0911
:101CA000AE0160E070E084179507A607B70730F330
:101CB0001092BC0084E48093BC0081E010C080914D
:101CC000B900887F883341F48091B9001092BC003C
:101CD00094E49093BC0002C08091B900887FDF91AA
:101CE000CF91FF90EF90DF90CF900895CF92DF9249
:101CF000EF92FF92CF93DF938093BB000E94051970
:101D00006B017C0184E88093BC00C091DA01D09122
:101D1000DB018091BC0087FD19C02097D1F30E94A0
:101D20000519DC01CB018C199D09AE09BF09AE0173
:101D300060E070E084179507A607B70730F31092AC
:101D4000BC0084E48093BC0081E023C08091B90092
:101D5000887F883129F08091B900887F803411F420
:101D600080E017C08091B900C82FC87F8091B9006A
:101D7000887F803229F08091B900887F883419F4F7
:101D80000E94F60D05C01092BC0084E48093BC0054
:101D90008C2FDF91CF91FF90EF90DF90CF9008953F
:101DA000CF92DF92EF92FF92CF93DF930E940519BB
:101DB0006B017C0184EA8093BC00C091DA01D09170
:101DC000DB018091BC0087FD19C02097D1F30E94F0
:101DD0000519DC01CB018C199D09AE09BF09AE01C3
:101DE00060E070E084179507A607B70730F31092FC
:101DF000BC0084E48093BC0081E01CC08091B900E9
:101E0000887F883029F08091B900887F803111F473
:101E100080E010C08091B900887F883341F48091C0
:101E2000B9001092BC0094E49093BC0002C0809171
:101E3000B900887FDF91CF91FF90EF90DF90CF9036
:101E40000895CF92DF92EF92FF92CF93DF9380932A
:101E5000BB000E9405196B017C0184E88093BC00E3
:101E6000C091DA01D091DB018091BC0087FD19C0DF
:101E70002097D1F30E940519DC01CB018C199D0933
:101E8000AE09BF09AE0160E070E084179507A607B0
:101E9000B70730F31092BC0084E48093BC0081E06B
:101EA00019C08091B900887F883299F08091B9007B
:101EB000C82FC87F8091B900887F803319F40E94B1
:101EC000F60D05C01092BC0084E48093BC008C2FFA
:101ED00001C080E0DF91CF91FF90EF90DF90CF9035
:101EE00008958091AF03E091B003E81BE093AE0347
:101EF000811103C01092AE03089581508093AF0307
:101F0000F0E0E452FE4F828108950F931F93CF9328
:101F1000DF93C82F162FD42F1092AF031092AE0369
:101F2000411101C0D1E08FEF8D0F8093DD01109240
:101F3000DC010E94D00E8093DC01811162C0CC0FC5
:101F40008C2F0E94760E8093DC01882329F081304B
:101F500009F057C082E055C0812F0E94210F809365
:101F6000DC01882329F0813009F04BC083E049C0AF
:101F70000E94D00E8093DC01882329F0813009F083
:101F800040C084E03EC081E08C0F0E94760E8093BA
:101F9000DC01811104C00EED11E0C0E019C08130F8
:101FA00081F585E02EC080E00E942C0E8093DC013C
:101FB0008130C9F0883529F58091BB00F801819303
:101FC0008F01CF5FC093AF03C093B003CD1781F0F3
:101FD0008091DD01C81739F381E00E942C0E8093B7
:101FE000DC01813011F486E00CC0803529F309C092
:101FF0000E94F60D8093DC01882319F0813009F4EA
:1020000087E0DF91CF911F910F9108952F923F921A
:102010004F925F926F927F928F929F92AF92BF92F8
:10202000CF92DF92EF92FF920F931F93CF93DF93A4
:10203000CDB7DEB728970FB6F894DEBF0FBECDBF81
:102040008091D901882309F4FEC146E067EF8091B1
:102050009B020E94850F882339F08DE495E99093C7
:102060009D0280939C02B8C10E94710F082F0E94AC
:10207000710FB82E0E94710F182F0E94710FC12C82
:10208000D12C7601E82E0E94710FD82E0E94710F7C
:10209000C82E1983BA820B831C8280919E02909174
:1020A0009F02A0E0B0E04D2C5E2C6F2C772467FCE3
:1020B0007A94481A590A6A0A7B0AB701A60137E0DE
:1020C00075956795579547953A95D1F7880F991F5C
:1020D000AA1FBB1F9A01AB01281B390B4A0B5B0BD4
:1020E000A091A002B091A1020E942B316B017C0152
:1020F000FBE0F594E794D794C794FA95D1F7A30140
:102100009201C301B2010E9483329B01AC01ACE099
:102110005595479537952795AA95D1F7A091A20295
:10212000B091A3020E942B31DC01CB011EE0B595DA
:10213000A795979587951A95D1F7C80ED91EEA1ECF
:10214000FB1EA5E0B0E0A70196010E942031DC0152
:10215000CB0180589F4FAF4FBF4F892F9A2FAB2F86
:10216000BB27A7FDBA9590939D0280939C02F5949E
:10217000E794D794C7942AEFD21AE108F108C7016F
:10218000B60122E095958795779567952A95D1F7C1
:102190009B01AC010E9483324B015C01E091AE02D5
:1021A000F091AF022090AC023090AD020091AA02F3
:1021B0001091AB02A091A802B091A9029B01AC01C1
:1021C0006DE055954795379527956A95D1F70E940B
:1021D0002B312B013C0173E075946794579447941D
:1021E0007A95D1F7A091A602B091A702A701960116
:1021F0000E942B31DC01CB01B595A795979587956A
:10220000840D951DA61DB71D32E1B595A79597952F
:1022100087953A95D1F79C01AD0130584F4F5F4FEC
:10222000A091A402B091A5020E9420312B013C0193
:102230004FE075946794579447944A95D1F74114A9
:1022400051046104710409F4C7C0A50194016BE055
:1022500055954795379527956A95D1F7DF010E94E7
:102260002B314B015C01D101A70196010E942B315A
:10227000DC01CB01880F991FAA1FBB1F880D991D78
:10228000AA1DBB1DE2E0B595A79597958795EA95A0
:10229000D1F789809A80AB80BC80F4E0B594A79494
:1022A00097948794FA95D1F744275527BA0148198E
:1022B00059096A097B096801110FEE08FF087601C8
:1022C000DD24CC248C0D9D1DAE1DBF1D0CE0B595ED
:1022D000A795979587950A95D1F79A01AB01281B89
:1022E000390B4A0B5B0BA5E3BCE00E942031805BFD
:1022F0009C4397FD0BC0660F771F881F991FA30192
:1023000092010E94333169017A010AC0A30192014E
:102310000E94333169017A01CC0CDD1CEE1CFF1CDC
:10232000C701B60123E096958795779567952A951D
:10233000D1F7E091B402F091B5029B01AC010E948B
:1023400083329B01AC016DE05695479537952795F3
:102350006A95D1F7DF010E942B314B015C017CE0D3
:10236000B594A794979487947A95D1F7A70196018D
:10237000E2E05695479537952795EA95D1F7A091D4
:10238000B202B091B3020E942B31DC01CB01FDE01F
:10239000B595A79597958795FA95D1F7880D991DCD
:1023A000AA1DBB1D4091B0025091B102052E000C38
:1023B000660B770B840F951FA61FB71F14E0B5950A
:1023C000A795979587951A95D1F7BC01CD016C0D0E
:1023D0007D1D8E1D9F1D03C060E070E0CB012AE0D3
:1023E00030E040E050E00E94013130930E01209334
:1023F0000D018091AC039091AD038217930740F0DB
:102400008091D801882341F08091D701811104C0C7
:102410003093AD032093AC03205C3E4F8091AC031E
:102420009091AD038217930718F08091110101C0BC
:1024300080E08093D60180919C0290919D029093C0
:10244000100180930F018091D901882339F0809188
:102450000F0190911001803F984D44F48AE098E27A
:1024600090930E0180930D011092D60128960FB61D
:10247000F894DEBF0FBECDBFDF91CF911F910F91BA
:10248000FF90EF90DF90CF90BF90AF909F908F9094
:102490007F906F905F904F903F902F9008958F9214
:1024A0009F92AF92BF92CF92DF92EF92FF926C0118
:1024B0000E9405194B015C01E12CF12C0E940519C9
:1024C000DC01CB0188199909AA09BB098C159D0566
:1024D000AE05BF0598F3FF90EF90DF90CF90BF90CF
:1024E000AF909F908F9008954F925F926F927F92DE
:1024F000BF92CF92DF92EF92FF920F931F93CF93F1
:10250000DF93CDB7DEB7C456D1090FB6F894DEBF5E
:102510000FBECDBFBBB0BB1CBB24BB1C579A29F45C
:102520005F9A80E290E00E944F1283E080930A015C
:1025300030E080910A0120E4829FC0011124816073
:1025400080937C0080917A00806480937A008091EF
:102550007A0086FDFCCF809178002091790090E090
:10256000922B9595879595958795482F2981821768
:1025700078F0332369F0FE01319621E0231749F00A
:102580005191451718F05081541718F42F5FF6CF6A
:1025900020E0432F241778F4642F70E0FE01E60F4B
:1025A000F71F5081E1E0F0E0EC0FFD1FE60FF71F91
:1025B00050834150EFCFE1E0F0E0EC0FFD1FE20F60
:1025C000F11D80833F5F343609F0B3CFFE01BF9623
:1025D000CE01C79600E010E02191020F111DE8170F
:1025E000F907D1F7169507951093D5010093D401FB
:1025F0000450110980910B0190910C0180179107F3
:1026000070F4602F80E290E00E94F21A612F81E264
:1026100090E00E94F21A10930C0100930B0120919C
:10262000D4013091D501A8E6B0E10E945531209146
:102630000B0130910C0140E050E00E940131690132
:102640007A018901C90143EFC4164DE0D40610F0A8
:1026500082EF9DE02C01612C712CD701C601AA27C5
:10266000BB279C01AD012419350946095709A4E689
:10267000B0E00E9420319601083640E1140710F4C2
:1026800028E630E16901E12CF12CA701960124191B
:102690003509460957090E9401312093D301BB2017
:1026A00019F08091D20181115F9881E0023F1D40B5
:1026B00008F080E08093D101CC59DF4F0FB6F89439
:1026C000DEBF0FBECDBFDF91CF911F910F91FF9065
:1026D000EF90DF90CF90BF907F906F905F904F9082
:1026E00008954F925F926F927F928F929F92AF92D6
:1026F000BF92CF92DF92EF92FF926B017C01B42EDA
:102700009B01AC010E947E32882319F060E971E0E0
:1027100027C026013701E89477F82FEF3FEF4FE706
:102720005FE7C301B2010E947E3281110DC02FEF1D
:102730003FEF4FE75FE7C301B2010E94C72F1816B2
:102740001CF464E971E00CC02FEF3FEF4FE75FE44A
:10275000C701B6010E947932181694F468E971E055
:102760008EEF91E0FF90EF90DF90CF90BF90AF9011
:102770009F908F907F906F905F904F900C94DC179C
:102780002FEF3FEF4FE75FECC701B6010E94C72F65
:1027900087FDE4CF20E030E0A901C701B6010E9427
:1027A000C72F87FF0BC06DE28EEF91E00E94D51717
:1027B0004C01F7FAF094F7F8F09402C0812C912CB8
:1027C000A12C60E070E080E09FE3AB1441F020E0DA
:1027D00030E040E251E40E94D131A394F6CF9B0156
:1027E000AC01C701B6010E9465312B013C010E947A
:1027F0004A326B017C010E94CC2F9B01AC01C301CA
:10280000B2010E9464312B013C012AE0B701A6010C
:102810008EEF91E00E94F1177C01E80CF91CBB20BF
:1028200039F06EE28EEF91E00E94D517E80EF91EA6
:10283000DB2CDD2031F120E030E040E251E4C30147
:10284000B2010E942D302B013C010E944A324B0103
:10285000A12CB12C2AE0B501A4018EEF91E00E94D9
:10286000F117E80EF91EC501B4010E94CC2F9B019F
:10287000AC01C301B2010E9464312B013C01DA9426
:10288000D8CFC701FF90EF90DF90CF90BF90AF906F
:102890009F908F907F906F905F904F9008951F93BF
:1028A000CF93DF93182FD62FC42F1092DC010E94F4
:1028B000D00E8093DC01811127C0812F880F0E94E8
:1028C000760E8093DC01882321F08130E9F482E0E8
:1028D0001BC08D2F0E94210F8093DC01882321F0E3
:1028E000813091F483E010C08C2F0E94210F8093DF
:1028F000DC018111F5CF0E94F60D8093DC01882365
:1029000019F0813009F487E0DF91CF911F9108958C
:10291000462F682F8091B6020C944F1469E08CE228
:102920000E94881469E08BE20E9488148091C3029F
:10293000811102C06BEF01C069EF8AE20C94881428
:1029400041E06AE28091B6020E94850F0E94710FF9
:10295000682F6E7F8AE20C9488146091CF018BE21D
:1029600090E00E94F21A6091D0018CE290E00C9409
:10297000F21A482F50E060E070E02AE08EEF91E01C
:102980000C94F117CF92DF92EF92FF92CF93DF93E7
:102990006C01990FEE08FF08F7FE1BC06DE28EEF89
:1029A00091E00E94D517EC0144275527BA014C1934
:1029B0005D096E097F092AE08EEF91E00E94F11710
:1029C0008C0F9D1FDF91CF91FF90EF90DF90CF9004
:1029D00008952AE0B701A6018EEF91E0DF91CF9133
:1029E000FF90EF90DF90CF900C94F117CF93DF938F
:1029F000FC016491EC012196662331F089E893E0B3
:102A00000E94D517CE01F4CF849181508F3130F4DC
:102A100080E290E0DF91CF910C944F12DF91CF9143
:102A20000895CF92DF92EF92FF920F931F93CF936F
:102A3000DF936C017A018B01C0E0D0E0CE15DF0599
:102A400089F0D8016D918D01D601ED91FC91019035
:102A5000F081E02DC6010995892B11F47E0102C099
:102A60002196ECCFC701DF91CF911F910F91FF907D
:102A7000EF90DF90CF900895FC01538D448D252F6A
:102A800030E0842F90E0821B930B541710F0CF9608
:102A9000089501970895FC01918D828D981761F03A
:102AA000828DDF01A80FB11D5D968C91928D9F5F85
:102AB0009F73928F90E008958FEF9FEF0895FC0130
:102AC000918D828D981731F0828DE80FF11D858DE3
:102AD00090E008958FEF9FEF0895FC01918D228D76
:102AE000892F90E0805C9F4F821B91098F739927FB
:102AF0000895FC01848DDF01A80FB11DA35ABF4FBB
:102B00002C91848D90E001968F739927848FA689EC
:102B1000B7892C93A089B1898C9180648C93938D13
:102B2000848D981306C00288F389E02D80818F7D03
:102B300080830895EF92FF920F931F93CF93DF93BB
:102B4000EC0181E0888F9B8D8C8D981305C0E889FE
:102B5000F989808185FD24C0F62E0B8D10E00F5F72
:102B60001F4F0F731127E02E8C8DE8120CC00FB68B
:102B700007FCFACFE889F989808185FFF5CFCE017E
:102B80000E947915F1CF8B8DFE01E80FF11DE35AFC
:102B9000FF4FF0820B8FEA89FB898081806207C03A
:102BA000EE89FF896083E889F98980818064808368
:102BB00081E090E0DF91CF911F910F91FF90EF9016
:102BC0000895CF93DF93EC01888D8823C9F0EA89BB
:102BD000FB89808185FD05C0A889B9898C9186FD16
:102BE0000FC00FB607FCF5CF808185FFF2CFA88913
:102BF000B9898C9185FFEDCFCE010E947915E7CF81
:102C0000DF91CF91089508952091B3033091B403DB
:102C10002817390771F49091B2038091B103981786
:102C200041F0E091B203F0E0EB54FC4F808190E082
:102C300008958FEF9FEF089508951F93CF93DF932B
:102C4000DC015C962D913C915D972115310539F49D
:102C500081E090E013969C938E9312973DC051961D
:102C6000ED91FC91529750969C915097892F8095A9
:102C70001FB75E964C915E9741FB772770F941FD37
:102C80006095F8944081772311F0492B01C04823C7
:102C90004083E9012197F1F748E0508160FF02C0CD
:102CA000592B01C058235083E9012197F1F766950C
:102CB000415099F7772321F090818923808303C0C5
:102CC0008081982B90831FBF5C968D919C915D971E
:102CD0000197F1F721E030E0C901DF91CF911F9119
:102CE00008952091B3033091B4032817390771F484
:102CF0008091B1032091B20390E0805C9F4F821BD2
:102D0000910960E470E00E94B332089580E090E0A1
:102D100008952091B3033091B40328173907B9F40B
:102D20009091B2038091B103981789F0E091B203BA
:102D3000F0E0EB54FC4F80812091B20330E02F5F34
:102D40003F4F2F7333272093B20390E008958FEF06
:102D50009FEF0895089580E090E008950E94FB326F
:102D600047E264EF80919B020E944F1491E0811131
:102D700090E0892F089544E264EF80919B020E94C5
:102D80004F1491E0811190E0892F08950F931F93C4
:102D9000CF93DF93EC0160E070E0CB01E99120ED8F
:102DA0002E0F2A30C0F4AAE0B0E09B01AC010E94D3
:102DB00020310E2FEE0F110B220B330BDC01CB0158
:102DC000800F911FA21FB31FBC01CD016053710979
:102DD00081099109E3CFDF91CF911F910F91089560
:102DE0000F931F93CF93C1E0809123038D3221F085
:102DF000C0E003E213E002C004E213E0C8010E9455
:102E0000C6169B01AC01A4E6B0E00E942031F80197
:102E1000DF01219130ED320F3A30D0F32E3269F5D7
:102E200011962C91119730ED320F3A3030F5022E79
:102E3000000C330B205331094AE0429F8001439F2D
:102E4000100D1124012E000C220B330B600F711F8B
:102E5000821F931F12960C9120ED200F2A3068F4E8
:102E6000002E000C110B00531109012E000C220B37
:102E7000330B600F711F821F931FCC2339F0909585
:102E80008095709561957F4F8F4F9F4FCF911F9188
:102E90000F9108954F925F926F927F928F929F92BF
:102EA000AF92BF92CF92DF92EF92FF92CF93DF93D8
:102EB00083E293E00E94C6162B013C0124E630E039
:102EC00040E050E00E9433319B01AC0160EA76E8BB
:102ED00081E090E00E9483326B017C01E3E2F3E049
:102EE000819190ED980F9A30D8F38E3219F5EF0159
:102EF00080E1882E87E2982EA12CB12CA99180ED3B
:102F00008A0F8A30B8F40A2E000CBB0BD097A501AB
:102F100094010E942B31C60ED71EE81EF91EC50172
:102F2000B4012AE030E040E050E00E943331490132
:102F30005A01E4CFC701B6016D5F7F4F8F4F9F4F9E
:102F400026E030E040E050E00E94333169017A0130
:102F5000C301B20124E630E040E050E00E9433318A
:102F600060E472E48FE090E00E9483326C0D7D1D7E
:102F70008E1D9F1DDF91CF91FF90EF90DF90CF903E
:102F8000BF90AF909F908F907F906F905F904F9089
:102F90000895DC01FB019D91992319F08191981707
:102FA000D1F3892F990F990B0895DC01ED91FC91D4
:102FB0000190F081E02D09946115710579F0FB0114
:102FC00001900020E9F73197AF01461B570BDC0158
:102FD000ED91FC910280F381E02D099480E090E076
:102FE00008954F925F926F927F92EF92FF920F93AC
:102FF0001F93CF93DF93CDB7DEB7A1970FB6F894A9
:10300000DEBF0FBECDBF7C01FA01CB0119A2223079
:1030100008F42AE08E010F5D1F4F422E512C612CC7
:10302000712CBF01A30192010E943331F901CA0141
:10303000015011096A3014F4605D01C0695CD80167
:103040006C93232B242B252B61F7B801C7010E9419
:10305000DC17A1960FB6F894DEBF0FBECDBFDF918F
:10306000CF911F910F91FF90EF907F906F905F90A5
:103070004F9008956CE971E00C94DC171F920F9249
:103080000FB60F9211242F933F934F935F936F933B
:103090007F938F939F93AF93BF93EF93FF938EEFA5
:1030A00091E00E947915FF91EF91BF91AF919F91AF
:1030B0008F917F916F915F914F913F912F910F90E1
:1030C0000FBE0F901F9018951F920F920FB60F9280
:1030D00011242F938F939F93EF93FF93E0910E0210
:1030E000F0910F028081E0911402F091150282FDAF
:1030F00012C09081809117028F5F8F732091180208
:10310000821751F0E0911702F0E0E250FE4F958FE8
:103110008093170201C08081FF91EF919F918F9161
:103120002F910F900FBE0F901F90189590E0FC010B
:10313000E35BFD4F3491FC01E75CFD4F2491FC0102
:10314000EB5DFD4FE491EE2309F43BC0332339F1ED
:10315000333091F038F43130A9F0323001F584B5D4
:103160008F7D12C0373091F03830A1F03430B9F48F
:10317000809180008F7D03C0809180008F77809345
:1031800080000DC084B58F7784BD09C08091B000E8
:103190008F7703C08091B0008F7D8093B000F0E006
:1031A000EE0FFF1FE95FFD4FA591B4918FB7F89423
:1031B000EC91611103C020952E2301C02E2B2C937E
:1031C0008FBF08959FB7F8944091FA035091FB0385
:1031D0006091FC037091FD0386B5A89B06C08F3FEC
:1031E00021F04F5F5F4F6F4F7F4F9FBF762F652F4F
:1031F000542F44279A01AB01280F311D411D511D49
:10320000A5E0B0E00E94203108952FB7F8946091B6
:10321000F6037091F7038091F8039091F9032FBFA3
:103220000895CF92DF92EF92FF92CF930E940519FB
:103230006B017C01C0E089E893E00E947116892B44
:1032400089F40E940519DC01CB018C199D09AE0996
:10325000BF09C297A105B10528F081E0C230B1F0E5
:1032600080E014C089E893E00E947116892B19F35D
:1032700089E893E00E9489168F3431F0C130D9F685
:103280008B34C9F6C2E0D7CFC1E0D5CFCF91FF9044
:10329000EF90DF90CF900895CF938931A8F4C82F95
:1032A00081E692E00E94F6144C2F50E060E070E05E
:1032B0002AE089E893E00E94F11789E893E00E94F0
:1032C0003A18CF910C94111980E0CF9108951F9274
:1032D0000F920FB60F9211242F933F938F939F93CA
:1032E000AF93BF938091F6039091F703A091F803F9
:1032F000B091F9033091F5032DE2230F2D3720F41F
:103300000196A11DB11D05C020EB230F0296A11D42
:10331000B11D2093F5038093F6039093F703A093D8
:10332000F803B093F9038091FA039091FB03A09105
:10333000FC03B091FD030196A11DB11D8093FA031A
:103340009093FB03A093FC03B093FD03BF91AF9157
:103350009F918F913F912F910F900FBE0F901F90D3
:1033600018951F920F920FB60F9211242F933F932F
:103370004F935F936F937F938F939F93AF93BF937D
:10338000EF93FF93E0911401F09115010995FF91DE
:10339000EF91BF91AF919F918F917F916F915F91CD
:1033A0004F913F912F910F900FBE0F901F90189546
:1033B0001F920F920FB60F9211242F933F934F93AA
:1033C0005F936F937F938F939F93AF93BF93EF938D
:1033D000FF93E0911201F09113010995FF91EF9194
:1033E000BF91AF919F918F917F916F915F914F911D
:1033F0003F912F910F900FBE0F901F9018951F9225
:103400000F920FB60F9211242F933F934F935F9318
:103410006F937F938F939F93AF93BF93EF93FF939C
:10342000E091B303F091B403309709F451C0968D45
:10343000A685B785858591FF04C09C91892329F4D1
:1034400047C09C91892309F043C0A389B4899C910A
:103450008589809589238C93868997890197F1F7CF
:10346000608D718DA685B785558538E020E0CB014C
:103470000197F1F7822F90E095958795282F4C9131
:10348000452309F02068315091F7868D81FD209504
:103490008091B10390E001968F7399273091B20328
:1034A000381749F0A091B103B0E0AB54BC4F2C9356
:1034B0008093B10303C0868D8160868F828D938D4A
:1034C0000197F1F7A389B4899C918589892B8C9305
:1034D000FF91EF91BF91AF919F918F917F916F91EC
:1034E0005F914F913F912F910F900FBE0F901F90C2
:1034F0001895E091B303F091B403E817F90769F464
:10350000A389B4899C918589809589238C93109295
:10351000B4031092B30381E0089580E008951F92F0
:103520000F920FB60F9211248F930FB6F894A895AF
:1035300080916000886180936000109260000FBEEF
:103540008F910F900FBE0F901F9018954115510548
:1035500029F4EAE7F0E080818F7780836A30710593
:10356000A9F063FD02C088E001C088E26770682BA3
:1035700088E10FB6F894A895809360000FBE609321
:103580006000E0E6F0E0808180648083232BA1F47A
:1035900083B7817F846083BFF89483B7816083BFE2
:1035A00085B7806685BF8F7D85BF7894889583B702
:1035B0008E7F83BF78940EC083B7817F846083BF82
:1035C000F89483B7816083BF7894889583B78E7FA2
:1035D00083BF7894452B29F4EAE7F0E08081806886
:1035E000808308950C94F3300C94EB30CF93C82F64
:1035F0008A3030F46FE971E08EEF91E00E94DC17C1
:103600008C2FCF910C94B91460E080E090E00E9480
:10361000E21C80911D010E94F61A88E791E00E9449
:10362000B61C809102010E94F61A88E791E00E9480
:10363000B61C80911B0190911C010E94C21486E768
:1036400091E00E94B61C80911A010E94F61A86EB46
:1036500091E00E94B61C809119010E94F61A86EB37
:1036600091E00E94B61C809118010E94F61A86E72C
:1036700091E00C94B61C9C018930910559F088307A
:10368000910551F0079751F081E02630310539F06E
:1036900080E0089588E0089584E0089582E0089528
:1036A00010920404109203041092BC011092BB010A
:1036B0001092BF011092BE01EBEAF1E01482158274
:1036C00016821782108211821282138210920204D3
:1036D000109201041092A201109200041092D801DD
:1036E0000895EF92FF920F931F93CF938C01E12CDB
:1036F000F12CF801C491CC2339F06C2F8EEF91E0BE
:103700000E94D517CA3259F480E1E816F1048CF40E
:103710006FE971E08EEF91E00E94DC170AC0C432BD
:1037200029F06C2FCC0F770BE626F7260F5F1F4F83
:10373000E0CFA701FF0C660B770B20E18EEF91E045
:103740000E94F1178EEF91E00E943A188EEF91E0FF
:10375000CF911F910F91FF90EF900C94E1152A9B50
:1037600008C089EC92E00E94711B84E690E00E9400
:103770004F122A981092A9010895CF92DF92EF92EA
:10378000FF922A9B04C08EEF91E00E943A1810929B
:10379000A9010E94501B0E9405196B017C010E9427
:1037A0000519CB018C199D09803A9F4088F42A9A0B
:1037B0008EEF91E00E946D151816190684F78EEFB2
:1037C00091E00E944B150A9751F781E08093A9017F
:1037D0008091A901811102C02A9804C089E992E070
:1037E0000E94711B81E09091A901911101C080E0BC
:1037F000FF90EF90DF90CF9008958091A7019FEF09
:10380000980F9F3128F46091A60190E00C94F21A71
:10381000089592EC981B892F9E3C0CF48EEC833318
:103820000CF082E36091FE037091FF03680F711D3D
:1038300087FD7A957093FF036093FE03CB018C5351
:103840009140823C910530F46F5F89E290E00E94E4
:10385000F21A06C08BE991E09093FF038093FE0378
:103860008091FE039091FF03880F991F880F991F85
:103870009093170180931601089508958091D101C6
:10388000811106C08091C301893058F05F9B09C047
:103890005F988091C301811106C081E08093C301CC
:1038A00008955F9AF6CF089580E490E00E944F1249
:1038B0005F985E9880E490E00E944F125F9A80913A
:1038C000AA0181115E9A80E490E00C944F128F73EC
:1038D0008D33C0F02091FE033091FF038D3329F02A
:1038E0008E3331F088E090E005C082E090E002C0C5
:1038F00084E090E0829FB001839F700D929F700DD5
:10390000112413C0682F70E080E090E00E94CE2F59
:1039100026E636E646EE50E40E942D300E944A32FA
:103920006E30710510F46EE070E0CB010895809167
:103930000301811104C08091D201811101C05F9AFD
:103940000895CF93C82F662379F0CC2369F05F9A4E
:1039500080E290E00E944F125F98C15029F080E40D
:1039600090E00E944F12F1CFCF910895CF93DF9353
:10397000FC016491EC012196662331F08EEF91E019
:103980000E94D517CE01F4CFDF91CF910895982FE3
:103990009370913019F49093030104C0923011F4A4
:1039A0001092030182FF05C01092D2019AB1906C6F
:1039B0009AB983FF06C081E08093D2018AB18F73E8
:1039C0008AB90895CF93DF93EC01662321F08EEF3F
:1039D00091E00E94E115209749F020E030E040E0BE
:1039E00050E0BE0188EA91E00E94A61ACE010E9432
:1039F0003B1B282F8091C10130E0280F311D2093FF
:103A0000C101283718F4CD2B09F07BC082EC91E07E
:103A1000289FA001299F500D1124809106049091A8
:103A20000704840F951F6091FE037091FF030E94AD
:103A30009F329093070480930604809118019B01A4
:103A4000280F311DC901ECE3F0E0BF010E949F3255
:103A500080931801809119019B01280F311DC90124
:103A6000BF010E949F328093190180911A01680F53
:103A7000683118F460931A0108C0685160931A0104
:103A8000809102018F5F8093020120911B01309190
:103A90001C01C90183709927892B81F4C90164E64F
:103AA00070E00E94B332892B39F4C90160E971E0FA
:103AB0000E94B332892B11F48DE101C08CE1909109
:103AC0001D01923029F0993011F48EE101C08FE18F
:103AD00040910201841730F481E0809302019F5FDE
:103AE00090931D0180911D018D3048F081E08093FD
:103AF0001D012F5F3F4F30931C0120931B0110923B
:103B0000C101DF91CF9108950F931F93CF93DF935E
:103B1000D0910504D11102C0D1E06DC19091C302D2
:103B2000911102C044E001C047E0182F60E080918D
:103B3000B6020E94850F8111A2C00E94710F082F4A
:103B400008708091C3028823E9F10E94710FC82F89
:103B50000E94710F2C2F30E0322F2227280F311DA9
:103B600046E0359527954A95E1F73093BA022093C0
:103B7000B9020E94710FC82F0E94710F2C2F30E0E4
:103B8000322F2227280F311D66E0359527956A953B
:103B9000E1F73093BC022093BB020E94710FC82F43
:103BA0000E94710F2C2F30E0322F2227280F311D59
:103BB000E6E035952795EA95E1F73093BE0220932C
:103BC000BD021BC00E94710F082E000C990B909330
:103BD000BA028093B9020E94710F082E000C990B53
:103BE0009093BC028093BB020E94710F082E000CC0
:103BF000990B9093BE028093BD02002309F43FC04D
:103C00008091B9029091BA026091070170E0209111
:103C10000D0430910E04FC01E21BF30BF7FF03C00F
:103C2000F195E195F1094091BB025091BC022091C0
:103C3000BD023091BE026E177F0730F1E0910B0498
:103C4000F0910C04DA01AE1BBF0BFD01B7FF03C0FE
:103C5000F195E195F1096E177F07B0F0E091090445
:103C6000F0910A04D901AE1BBF0BFD01B7FF03C0E1
:103C7000F195E195F1096E177F0730F003C011113E
:103C80000E948E14D0E0B7C090930E0480930D0470
:103C900050930C0440930B0430930A0420930904BE
:103CA000BC01695D7F4F6F34710500F5CA018796CD
:103CB0008F34910540F4213A3105BCF52036BFEF31
:103CC0003B07ACF10AC040366FEF560734F4295D6C
:103CD0003F4F2F34310568F124C0413A51050CF1B2
:103CE000295D3F4F2F34310530F11BC0813A9105DA
:103CF0005CF0495D5F4F4F34510598F4295D3F4FAB
:103D00002F343105D0F00DC080369F4F54F4495DFB
:103D10005F4F4F34510528F4295D3F4F2F34310553
:103D200070F010920804C6E00BC0C0E009C0C1E00A
:103D300007C0C2E005C0C3E003C0C4E001C0C5E0E5
:103D400080910804811108C08091A30181111DC0D8
:103D5000C230D9F481E014C0813039F48091A301DC
:103D6000823099F4C33089F40BC0823071F48091B1
:103D7000A301833051F4C23019F0C11106C084E0B0
:103D8000809308040E94541C02C010920804C0933F
:103D9000A30180910804833079F40E94FD1B61E047
:103DA00084E10E94A11C18B817B81BB81AB815B83E
:103DB00082E084B91092080480910804843009F0EC
:103DC000ABCE8091AA01882319F01092AA0103C0FA
:103DD00088E78093AA018091AA01882331F080911D
:103DE000A901811102C00E94BD1B61E088E00E9410
:103DF000A11C109208048D2FDF91CF911F910F917C
:103E00000895AF92BF92CF92DF92EF92FF920F93FD
:103E10001F93CF93DF93CDB7DEB72B970FB6F894F0
:103E2000DEBF0FBECDBFE090D001FF24FA94FE0CA0
:103E3000F092D00181E0809310048F2D69E50E94FB
:103E400093328BE0989F80011124FE0131966F011F
:103E50005801F8E3AF0EB11C035D1F4FC8010E946B
:103E6000EB30F60181936F010F5F1F4F0A151B05A1
:103E7000A9F789819A81AB81BC818093AB01909332
:103E8000AC01A093AD01B093AE018D819E81AF8155
:103E9000B8858093AF019093B001A093B101B09326
:103EA000B201898590E09093BC018093BB016A8543
:103EB0007B85CB019F71009711F481E090E0909396
:103EC000BF018093BE019091020180911204891775
:103ED00039F0809111048F5F809311049093120444
:103EE00020911901F4E02F9F9001112480911A0173
:103EF000A901582B80911801282F30E084E03595D6
:103F000027958A95E1F7242B352B4091110450E039
:103F1000672F7727629566956770461B570B59F098
:103F200060EF77E1469FC001479F900D569F900D2F
:103F30001124280F391F4091CF018F2D90E0841B51
:103F4000910997FD09C08091BE019091BF01281B86
:103F5000390B2137374130F01092BF011092BE016A
:103F60001092100480910F048823A9F0F41651F0E8
:103F70008091BE019091BF01892B29F58091100499
:103F8000811121C01092CF011092D0011092120421
:103F90001092100406C01092BC011092BB01E09276
:103FA000D0012B960FB6F894DEBF0FBECDBFDF91C8
:103FB000CF911F910F91FF90EF90DF90CF90BF9026
:103FC000AF900C94AD142B960FB6F894DEBF0FBED5
:103FD000CDBFDF91CF911F910F91FF90EF90DF90B8
:103FE000CF90BF90AF900895CF92DF92EF92FF9263
:103FF0000F931F93CF93DF93CDB7DEB72C970FB6F8
:10400000F894DEBF0FBECDBF8091120490910201E3
:10401000811104C010921104909312048091120433
:10402000891749F080911104873018F48F5F8093CD
:104030001104909312048091AB019091AC01A09176
:10404000AD01B091AE0189839A83AB83BC8380912B
:10405000AF019091B001A091B101B091B2018D83F7
:104060009E83AF83B8878091BB01898780911A01B5
:104070002091110430E0322F22273295330F307E09
:10408000382B8091190144E0849FC0011124822BB8
:10409000932B2091180130E044E0359527954A95FF
:1040A000E1F7822B932B9B878A878091D00169E56A
:1040B0000E9493328BE0989F9001112479019DE238
:1040C000E90EF11CFE0131966F018901085C1F4F5A
:1040D000F60161916F01C7016C870E94EB306C851E
:1040E000681719F0C7010E94F330FFEFEF1AFF0ABB
:1040F000E016F10669F72091D0012A3568F0822F89
:1041000090E04091CF0150E08955910984179507BF
:104110000CF4CA018093CF012F5F2093D00182E07D
:10412000809310042C960FB6F894DEBF0FBECDBF5F
:10413000DF91CF911F910F91FF90EF90DF90CF9083
:104140000895CF93DF93CDB7DEB763970FB6F8949A
:10415000DEBF0FBECDBF789484B5826084BD84B5C8
:10416000816084BD85B5826085BD85B5816085BD72
:1041700080916E00816080936E001092810080912A
:1041800081008260809381008091810081608093B2
:104190008100809180008160809380008091B100D7
:1041A00084608093B1008091B00081608093B00002
:1041B00080917A00846080937A0080917A00826096
:1041C00080937A0080917A008E7F80937A0080912C
:1041D0007A00806880937A001092C10080E890E0B5
:1041E0000E944F128CE18BB980EC8AB98AE385B9C1
:1041F00087E084B984E088B987B98091030181118F
:104200000BC08091D101811107C08091D301843608
:1042100018F081E0809303016091030181E00E9426
:10422000A11C4B9904C080E890E00E944F12E091DD
:104230000E02F0910F0282E08083E0910A02F09179
:104240000B021082E0910C02F0910D028BE9808349
:1042500010921602E0911202F091130286E0808320
:10426000E0911002F0911102808180618083E091E1
:104270001002F0911102808188608083E091100229
:10428000F0911102808180688083E0911002F091AA
:10429000110280818F7D80838EEF91E00E943A1819
:1042A0008DEF90E00E94B61C83EE90E00E94B61C59
:1042B00080E090E00E94F41A8093A701813238F0E8
:1042C0001092A70160E080E090E00E94F21A89E776
:1042D00090E00E94B61C8091A7010E94B9148EEF55
:1042E00091E00E943A188091D101811126C083E7A4
:1042F00090E00E94B61CC12CD12C01E010E0C80156
:104300000E94F41A8093A6018F3F39F460E0C8013F
:104310000E94F21A1092A60102C0C80ED11C809110
:10432000A6010E94B91486E791E00E94B61C0F5FB7
:104330001F4F0032110519F702C0C12CD12C8DE698
:1043400090E00E94B61C89E290E00E94F41A90E08E
:10435000BC0161507F4F7093FF036093FE03CD97C4
:10436000823C910530F46F5F89E290E00E94F21A7E
:1043700006C08BE991E09093FF038093FE03409188
:10438000FE035091FF0360E070E02AE08EEF91E0C1
:104390000E94F1178EEF91E00E943A1888E690E0B3
:1043A0000E94B61C8BE290E00E94F41A182F8093B2
:1043B000CF018CE290E00E94F41A8093D001811B1F
:1043C000181624F491E09093100404C01092CF01C9
:1043D0001092D001082E000C990B0E94C2148EEF8F
:1043E00091E00E943A188091A70190E00E94F41A8F
:1043F0008093A6016091030182E00E94A11C80E2EB
:1044000090E00E94F41A182F81E290E00E94F41AC2
:10441000282F30E0322F2227C901810F911D909360
:104420000C0180930B018FE790E00E94B61C409135
:104430000B0150910C0160E070E02AE08EEF91E0FA
:104440000E94F11784E893E090930C0180930B0194
:104450000E9474128DED90E00E94B61C8091D301F1
:104460000E94B9148AED90E00E94B61C4091D401DC
:104470005091D50160E070E02AE08EEF91E00E945B
:10448000F1178EEF91E00E943A1880E890E00E94C8
:104490004F120E94BD1B882341F084E08093A90144
:1044A0006091030181E00E94A11C8AE890E00E94D3
:1044B000B61C449A459A8091B9008E7F8093B900CA
:1044C0008091B9008D7F8093B90084E38093B80018
:1044D00084E48093BC008AE090E09093DB018093B9
:1044E000DA0181E08093C30282E08093B80241E068
:1044F0006DE08091B6020E94850F0E94710F182F07
:1045000060E48BE20E9488140E94E2182B013C01B7
:104510000AE0802E912CA12CB12C0E94E218DC0123
:10452000CB0184199509A609B709883E9340A105D6
:10453000B10558F021E0821A9108A108B10838EEBF
:10454000430E33E0531E611C711C81149104A104BD
:10455000B10419F70E94A0148091B802843021F0B0
:10456000883021F462E003C061E001C060E08EE0C9
:104570000E9488140E948E141F7E1A3409F000C213
:1045800089E891E00E94B61C11E08EEF91E00E9454
:104590003A1810930504112371F080E092E00E9414
:1045A0004F1280E00E94841D882329F0609103014E
:1045B00082E00E94A11C83ED90E00E94B61C41E0C5
:1045C00060ED80919B020E94850F811129C00E949D
:1045D000710F883511F0803619F548E168E880914F
:1045E0009B020E94850F81111BC00EE912E00E9400
:1045F000710FD8018D938D01B2E0063B1B07B9F70F
:1046000040EE65EF80919B020E944F14811108C01B
:1046100047E264EF80919B020E944F1491E0811168
:1046200090E09093D9019923D1F180E092E00E942B
:104630004F120E94061060910F0170911001072E19
:10464000000C880B990B0E94CE2F20E030E048EC44
:1046500052E40E94D13142E00E94711389E990E056
:104660000E94B61C60910D0170910E0180E090E0F7
:104670000E94CC2F20E030E040E251E40E94D13192
:1046800041E00E94711385E990E00E94B61C0E94EF
:10469000BB166091030183E00E94A11C08C080EA60
:1046A00091E00E94B61C8EEF91E00E943A1888EBD0
:1046B00090E00E94B61C85E891E00E94B61C86E25C
:1046C00090E00E94F41A8093BD01813019F081E0DE
:1046D0008093BD018091BD010E94B91486E791E0ED
:1046E0000E94B61CE091BD01F0E0E05EFE4F8081CB
:1046F000811104C082E991E00E94B61C0E94051954
:1047000069877A878B879C8786EB90E00E94B61C2E
:10471000BB24B39419E8212E13E0312EFE0131960B
:104720007F010E94051949855A85641B750B60310C
:10473000774208F006C11092A4031092A3031092CE
:10474000A2031092A1031092A00310929F0325E3ED
:1047500031E03093A6032093A503209195032631E1
:1047600008F05DC049E850E05093A00340939F03D8
:1047700083E391E09093A2038093A103AEEDB0E0B8
:10478000B093A403A093A30380916800283058F04D
:1047900091E02E3008F490E0BB2D01C0BB0F9A953C
:1047A000EAF79B2F01C094E0892B809368002830A2
:1047B00038F02E3040F0263148F080E090E008C01C
:1047C0008DE690E005C08BE690E002C08CE690E0BC
:1047D00090939D0380939C03283030F48B2D01C06F
:1047E000880F2A95EAF713C0822F90E02E3040F40C
:1047F0000897EB2D01C0EE0F8A95EAF78E2F07C0C0
:104800000E97FB2D01C0FF0F8A95EAF78F2F80933B
:104810009E038091A5039091A6030197F1F78091E3
:10482000A3039091A403892B11F18091B30390917C
:10483000B40323E089389207D1F0009711F00E9469
:10484000791A8091A7038E7F8093A7031092B103FA
:104850001092B2033092B4032092B303E0919C0310
:10486000F0919D03908180919E03892B8083198212
:104870001A821B821C821D8260E089E893E00E94FC
:104880001D166BE389E893E00E941D160E9405192E
:104890002B013C01470100E010E00E940519DC01FA
:1048A000CB0184199509A609B709C297A105B105DD
:1048B000B8F489E893E00E947116181619066CF78F
:1048C00089E893E00E9489160430110519F40FEF6E
:1048D0001FEF0DC0D4018D934D010F5F1F4FDDCF32
:1048E00066E571E0C7010E940033892B81F7033030
:1048F000110509F560E089E893E00E941D1684EA3D
:1049000090E00E94F61488E0F70111928A95E9F789
:1049100089E893E00E947116892BD1F3B12C89E8C4
:1049200093E00E9404160B2D10E0CB9779F5F5E08B
:10493000FB1560F53BC061E087E090E00E94E21C5F
:10494000F0CE80EA91E00E94B61C8EEF91E00E94CA
:104950003A1861E086E090E00E94E21C29982A98CB
:104960005F981092A9015E9A60E082E090E00E9458
:10497000E21C5E9860E087E090E00E94E21CF3CFCA
:1049800080EA91E00E94B61C10E0FFCD89E893E038
:104990000E948916F701E00FF11F808389E893E0F8
:1049A0000E947116892BD1F3B394B9CF89E893E0B3
:1049B0000E94891620E040E050E0BA01025011093F
:1049C000822F90E08017910774F4762F652F542F73
:1049D0004427F701E80FF91F8081480F511D611D21
:1049E000711D2F5FEDCF20E18EEF91E00E94F11756
:1049F0008EEF91E00E943A1880EB90E00E94F6144E
:104A00008AEA90E00E94F6146091BD0186E290E08F
:104A10000E94F21A80E092E00E944F12609103011E
:104A200084E00E94A11C82E290E00E94F41A182FF8
:104A300083E290E00E94F41AA82E84E290E00E94A3
:104A4000F41AB82E85E290E00E94F41A082F2DE1A6
:104A5000A21202C090E006C06DE183E290E00E94E5
:104A6000F21A91E083E1B81631F063E184E290E05C
:104A70000E94F21A91E0073169F067E185E290E067
:104A80000E94F21A133059F063E082E290E00E9433
:104A9000F21A05C01330C1F7992309F44DC081EC17
:104AA00090E00E94B61C5E9A29982A988BB18B7E62
:104AB0008BB961E089E090E00E94E21C8BB18461D7
:104AC0008BB9299A2A9A5E988CE59FE8A2E5B0E412
:104AD0008093AB019093AC01A093AD01B093AE0174
:104AE0008AE097EDA9E9B1E48093AF019093B0011A
:104AF000A093B101B093B201D092BF01C092BE01A8
:104B000083E08093BA018091D4019091D50166E150
:104B100070E00E949F3277277093BC016093BB01C5
:104B2000CD2821F060E083E00E9497011092CF0130
:104B30001092D0010E94AD1488EC90E00E94B61C47
:104B40008091130490911404009711F487E194E08C
:104B5000D701A81BB90BCD010E94C2148EEF91E0C2
:104B60000E943A18429A2EE33CE1309315012093BB
:104B7000140180916900837F886080936900E99ABD
:104B80001092C3011092C2013093150120931401B9
:104B900080916900837F886080936900E99A109210
:104BA000C3011092C201E89883E096E1909313014B
:104BB000809312012A9B03C084E08093A901A4E69C
:104BC0004A2E512C612C712C8091060191E0980F96
:104BD00090930601877029F580910301811104C02B
:104BE0008091D201811101C05E9A809103018111EF
:104BF00004C08091D201811105C061E082E090E0A3
:104C00000E94E21C80E00E94841D5E988091C40195
:104C10009091C501009729F001979093C501809369
:104C2000C4018091C301882381F08091060188230B
:104C300061F08091C301803140F480E290E00E94F5
:104C40004F124B9B74C71092C301809101018130B8
:104C500029F08091D1018111C7C6B6C68091A90102
:104C6000811102C00E94BD1B8091D201882319F0DE
:104C700088E00E94C71C0E9405194B015C0170EA84
:104C8000E72E7FE0F72E19861A861B861C86312CAC
:104C9000212CE8E0DE2E01E0F7E0CF2E0E9405197E
:104CA000681979096E157F0508F032C48EEF91E01E
:104CB0000E946D15181619068CF729853A854B85C3
:104CC0005C85232B242B252B31F40E940519698741
:104CD0007A878B879C870E9405194B015C01809124
:104CE0000301882379F08091A901843040F08091FC
:104CF0000004811104C08091D801823010F45F9AC1
:104D000001C05E9A66E0362E8EEF91E00E946D152E
:104D1000892B09F4F7C38EEF91E00E944B15182FF1
:104D2000843209F4CEC3E0913403853234F48A30FE
:104D300071F08D3009F0D2C30AC08A3241F08C3252
:104D400009F0CCC380912103812780932103EF30A8
:104D500008F0A3C3F0E0ED5DFC4F108280912203C8
:104D6000882309F428C1209123033FEB320F822FBF
:104D7000022E000C990B363010F4C79707C021564D
:104D8000263018F48755910901C0C097282F229525
:104D9000207F309124034FEB430F832F032E000C11
:104DA000990B463010F4C79707C03156363018F4C7
:104DB0008755910901C0C097820F909121038913F3
:104DC0006CC380913203813001F54091D80250913B
:104DD000D9026091DA027091DB024093D4025093C1
:104DE000D5026093D6027093D7024091E0025091B1
:104DF000E1026091E2027091E3024093DC02509381
:104E0000DD026093DE027093DF02909135039923F7
:104E100009F443C3409115035091160360911703A1
:104E2000709118034093110350931203609313037E
:104E30007093140340911D0350911E0360911F0352
:104E4000709120034093190350931A0360931B033E
:104E500070931C03882309F45CC0813009F0A9C059
:104E60008091D8029091D902A091DA02B091DB0230
:104E70008093D4029093D502A093D602B093D70228
:104E80008091E0029091E102A091E202B091E302F0
:104E90008093DC029093DD02A093DE02B093DF02E8
:104EA0008091E8029091E902A091EA02B091EB02B0
:104EB0008093E4029093E502A093E602B093E702A8
:104EC0008091F0029091F102A091F202B091F30270
:104ED0008093EC029093ED02A093EE02B093EF0268
:104EE0008091000390910103A0910203B09103030C
:104EF0008093FC029093FD02A093FE02B093FF0208
:104F00008091060390910703909305038093040317
:104F100050C08091F8029091F902A091FA02B091EC
:104F2000FB028093F4029093F502A093F602B093F3
:104F3000F7028091D8029091D902A091DA02B09143
:104F4000DB028093D4029093D502A093D602B09353
:104F5000D7028091E8029091E902A091EA02B09113
:104F6000EB028093E4029093E502A093E602B093F3
:104F7000E7028091F0029091F102A091F202B091CB
:104F8000F3028093EC029093ED02A093EE02B093B3
:104F9000EF0280910E0390910F0390930D03809385
:104FA0000C0380910A0390910B0390930903809363
:104FB000080381E073C2E0903303E11013C06AE597
:104FC00071E083E293E00E94C917892B09F4B1C50F
:104FD00060E671E083E293E00E94C917892B09F42F
:104FE000A8C5AAC520913203283009F456C23091D1
:104FF0002303332309F451C2A0E22A9FC0011124E4
:10500000F12C8E299F298838910509F4FCC108F0FC
:1050100072C08632910509F446C178F58730910552
:1050200009F484C1A0F48330910509F416C140F459
:105030008130910509F4E0C0029709F4F9C02DC24E
:105040008530910509F42FC108F069C121C1823270
:10505000910509F4E6C050F48930910509F477C14F
:1050600008F46EC1819709F4C7C017C28432910554
:1050700009F4F3C008F4DCC00BC18434910509F4D1
:1050800007C1F0F48932910509F43CC170F487320C
:10509000910509F42CC1889709F0FFC10E94F01610
:1050A0007093070360930603F8C18234910509F4F5
:1050B000BFC008F0D2C08134910509F49DC0EDC194
:1050C0008238910509F44EC158F48634910509F4EB
:1050D00005C108F4E8C08734910509F427C1DDC192
:1050E0008438910509F48FC108F47AC18738910595
:1050F00009F492C1D2C1833B910509F48DC108F036
:105100003FC0833A910509F470C1D8F48F389105F6
:1051100009F482C148F48B38910509F47DC18C38BB
:10512000910509F470C1B9C18339910509F474C1BD
:10513000823A910509F416C18039910509F0ADC193
:1051400062C18B3A910509F467C168F4873A910509
:1051500009F462C1883A910509F455C1843A910570
:1051600009F09BC150C18F3A910509F455C1803BAC
:10517000910509F448C18C3A910509F08EC143C1EB
:105180008C3C910509F43FC1D8F4843C910509F4A5
:105190003AC148F4823C910509F4E4C0833C91058E
:1051A00009F423C17AC1883C910509F42CC18B3CD8
:1051B000910509F431C1873C910509F06EC12CC1FC
:1051C000813E9105B1F068F4803D910509F41BC161
:1051D000833D910509F420C18F3C910509F05DC123
:1051E0001BC1833E910529F020F0843E910509F012
:1051F00054C10093100351C10E94F0166093D8026D
:105200007093D9028093DA029093DB020E94051911
:1052100060931503709316038093170390931803FC
:105220003CC11092100381E0313409F07BC07BC097
:105230000E944A176093E8027093E9028093EA02A1
:105240009093EB020E94051960931D0370931E0357
:1052500080931F039093200320C1333509F01DC1B3
:105260008091E8029091E902A091EA02B091EB02EC
:10527000B095A095909581959F4FAF4FBF4F80936C
:10528000E8029093E902A093EA02B093EB0205C111
:105290000E944A176093F0027093F1028093F20229
:1052A0009093F302FAC0373509F0F7C08091F0020D
:1052B0009091F102A091F202B091F302B095A09505
:1052C000909581959F4FAF4FBF4F8093F002909381
:1052D000F102A093F202B093F302DFC045E050E088
:1052E00063E273E086E393E00E940933D6C00E9434
:1052F000F016609300037093010380930203909370
:105300000303CBC083E293E00E94C6166093E002E1
:105310007093E1028093E2029093E302BEC081E0C9
:1053200031330CF480E080933503B7C083E293E01F
:105330000E94A12F992790930F0380930E03ADC075
:105340000E94F01670930B0360930A03A6C00E949C
:10535000F0166093F8027093F9028093FA0290932A
:10536000FB029BC083E293E02B8B0E94A12F815014
:1053700080933D032B89882319F0253031F521C016
:10538000243059F410923B03EEE3F3E011921192B2
:10539000B3E0E635FB07D1F71AC0253049F4E6E55E
:1053A000F3E01192119223E0EE36F207D1F709C033
:1053B000EEE6F3E01192119233E0E638F307D1F70D
:1053C00004C0880F880F845F08C0263019F0880F4A
:1053D000880F03C0880F880F885E809388035DC0A4
:1053E00083E293E00E94A12F0BC080913D038111C5
:1053F00054C0F0903C0383E293E00E94A12F8F0DF4
:1054000080933C034AC083E293E00E94A12F9093D3
:1054100087038093860341C083E293E00E94A12F1B
:10542000E0918803811117C08E2F90E097012750DB
:10543000310937FF02C02D5F3F4F359527953595D0
:105440002795280F391FF901EE0FFF1FE25CFC4F73
:105450001182108222C02E2F30E0F7013797F7FD1E
:105460003396F595E795F595E795E20FF31FEE0F67
:10547000FF1FE25CFC4F409186034A8B198A9927F3
:10548000880F991FA989BA898A0F9B1F91838083EE
:1054900080913B038F5F80933B0380E090913303C7
:1054A0009F5F909333031092340391E01A3209F016
:1054B00090E090932203882309F426CC222423949D
:1054C00023CC109234031092330310922103D09214
:1054D0003203109222031092350316CCEE3040F4C2
:1054E00081E08E0F80933403F0E0ED5DFC4F10837C
:1054F00080912203811108CC8091210318271093F9
:10550000210302CC332433946AE0E62EF12CC6CB7F
:10551000311010C080910301882311F05F9A5E9AC8
:105520000E94AF1B80E890E00E944F120E94BD1BBA
:105530005F985E982091DC023091DD024091DE029E
:105540005091DF022D873E874F87588BC090D40241
:10555000D090D502E090D602F090D702CA01B901EE
:10556000A30192010E943331FB013197EF34F10521
:1055700008F032C36053784F70931C0160931B0195
:10558000CA01B901A30192010E94333160931D0148
:1055900050E1852E57E2952EA12CB12C6D857E858C
:1055A0008F859889A50194010E94333120930201CF
:1055B000C701B60120E432E44FE050E00E943331ED
:1055C00020931A01C701B601A50194010E9433314D
:1055D000CA01B901A30192010E94333160931901FC
:1055E000C701B601A30192010E943331CA01B9017A
:1055F000A30192010E943331609318018091A901A7
:10560000813019F482E08093A9011092070410926E
:1056100006041092C10180910601863050F18091FC
:1056200002048F3F31F190913C03909301048091EB
:105630003B03809302049430B0F09091A901933021
:1056400090F493E09093A901843098F085E08093E2
:10565000A90189E692E00E94711B8FEF80930104FB
:105660008093020406C0843020F08091A901853027
:1056700068F310910004222009F454C18090E402E0
:105680009090E502A090E602B090E7028091EC02D3
:105690009091ED02A091EE02B091EF028D879E876E
:1056A000AF87B88B9FE0891697E29906A104B104F1
:1056B00069F0C501B4010E94CE2F20E034E244E736
:1056C00059E40E94D1316B017C0106C0C12CD12C60
:1056D0004AE7E42E44E4F42EC092AB01D092AC0130
:1056E000E092AD01F092AE01AFE08A16A7E29A0611
:1056F000A104B10479F06D857E858F8598890E941B
:10570000CE2F20E034E244E759E40E94D1314B012E
:105710005C0106C0812C912C3AE7A32E34E4B32E11
:105720008092AF019092B001A092B101B092B2010B
:1057300080910C0390910D038F3F910509F480E057
:105740008093A2016091F4027091F5028091F602BB
:105750009091F702161617061806190644F4A301CD
:1057600092010E9401313093BF012093BE016091EC
:10577000FC027091FD028091FE029091FF020E9456
:10578000CC2F21E437EB47E95CE30E942D300E94E7
:105790004A327093BC016093BB01112339F08091B0
:1057A0000601823D18F082ED8093060110920004FC
:1057B00080910401882319F0815080930401809125
:1057C000D8018F3778F420910803309109032F37DF
:1057D000310528F09091C6019D3F0CF003C28E5F09
:1057E0008093D80120E030E040E251E4C701B601E7
:1057F0000E942D300E9443326B017C018B01C50158
:10580000B4010E944332FB01B9E7CB16B1E0DB06DD
:1058100029F466382FEF720709F4E6C19601245780
:1058200031092435310538F49B01205C3F4F203489
:10583000310508F4D9C196012150310927373105C6
:1058400038F49B01235C3F4F2B30310508F4CCC169
:105850009B01235E3F4F2737310508F4C5C1E53C66
:105860003FEFF3072CF0053A41E014070CF0BCC100
:105870009601225A3F4F2632314020F4E538F10597
:105880000CF0B2C1960129583F4F2F33314020F41C
:10589000E239F1050CF0A8C1B5EDCB1ABEEFDB0A79
:1058A00027ECC216D10438F4AB0144575F4F4D3298
:1058B000514008F099C1EB35F10534F00C3241E06C
:1058C00014070CF493C126C00D38110534F0EE3CDA
:1058D0005FEFF5070CF48CC11DC00531110534F0E4
:1058E000ED3B8FEFF8070CF481C114C0033E9FEF2E
:1058F000190734F0EB3BAFEFFA070CF477C10AC09D
:105900000432BFEF1B0734F4E73C2FEFF2070CF42F
:105910006DC103C00436110554F4E23EFF4F0CF490
:1059200067C105C01092A2011F5F1093000480910F
:10593000C301811101C05F985E988AB1806C8AB9F9
:105940000E940519332089F0DC01CB0129853A85B5
:105950004B855C85821B930BA40BB50BBC01843675
:10596000910528F464E670E002C06EED73E00EED80
:1059700013E0061B170BC8018F5B91098932934016
:1059800008F067C9073732E0130728F0045F1140B9
:1059900085E090E015C00D3741E0140728F00A5F5C
:1059A000110984E090E00CC00B3F110528F0085766
:1059B000110983E090E004C00C53110982E090E0EB
:1059C00061E00E94E21CD7CF80910004882371F02F
:1059D0008091A401813051F08091A901843030F48C
:1059E000833031F01CE305C01AE003C010EF01C0A2
:1059F00018E78091D80190E02091C6012D3F1CF05E
:105A00002EE130E002C02FE030E08217930724F44B
:105A100080910601811740F080910004811104C03B
:105A20000E944E06809301018091C701893041F0A8
:105A300080910601813F20F4809100041817A8F49A
:105A40008FEF809300011092BC011092BB01109265
:105A5000BF011092BE018091D10181110E94AF1B44
:105A600085E00E944E068093010180910101811121
:105A700012C08091C30181110EC080910F04811169
:105A8000CEC080911004823008F0C9C084E00E942A
:105A90004E0680930101809101018F3F29F480918E
:105AA000C301882309F4CEC08091C301882309F47F
:105AB0008BC88091C201811187C81092C3011092D6
:105AC000BC011092BB011092BF011092BE01109256
:105AD000AF011092B0011092B1011092B201109278
