:100000000C94B9010C94FC1B0C94D51B0C94231C70
:100010000C94231C0C94231C0C94B31C0C94E10131
:100020000C94E1010C94E1010C94E1010C94E101C8
:100030000C94E1010C94E1010C94E1010C94E101B8
:100040000C948B1B0C94E1010C94DE1A0C94B81ADE
:100050000C94E1010C94E1010C94E1010C94E10198
:100060000C94E1010C94E1015270793A000A4F734B
:10007000633A00557365643A004C6173743A004307
:10008000616C20426174743A2000496E6974204D9D
:10009000656D733A006D620A0027432050726573E4
:1000A000733A2000534649443B00415456300A00FD
:1000B000415445300A004000536967466F783A2042
:1000C000004E657720667700667265652052616D27
:1000D0003A200054656D703A2000252000204261CE
:1000E000743A00526576204A756E203133203230E2
:1000F00031392031323A30393A31300A00486964B6
:100100006E5365656B2076335F3239495F464343F2
:100110000A0072706C793A002041434B00207275DE
:100120006E3D00207765616B00206D6F643D00209F
:100130006465743D00206361703D0020766F6C74CF
:100140003D0020636F6C643D0020616C743D00C213
:10015000B04300206C61743D002072706C793D00EA
:10016000204643433D006D73673D0041545A0A00E9
:100170002C322C310041542453463D0020737064CE
:100180003D0020002F00682072656D61696E73204C
:100190000052435A004F4B00206C6F6E3D006C6F55
:1001A000636B65642000206C61743D004661696C7E
:1001B00000456E61626C65640A00206374656D7051
:1001C0003D003A00206261743D004C6F772042612F
:1001D000740A00202A00205752430020727373696A
:1001E0003D00203168723D00206F6E653D00207734
:1001F0006169743D00207065723D00206163633D5C
:1002000000636F64653D00206F6E200047657420B9
:1002100041636B206174200000000000250028006D
:100220002B0000000000240027002A00000000002E
:100230002300260029000404040404040404020228
:100240000202020203030303030301020408102055
:1002500040800102040810200102040810202450EC
:100260004D544B3331342C302C312C302C312C303C
:100270002C302C302C302C302C302C302C302C309E
:100280002C302C302C302C302C302C302A002450A8
:100290004D544B3331342C302C312C302C312C300C
:1002A0002C312C302C302C302C302C302C302C306D
:1002B0002C302C302C302C302C302C302A00245078
:1002C0004D544B3136312C302A00415453333038A1
:1002D0003D313530303030300A00415453333037FF
:1002E0003D36330A004154533330363D30303030E0
:1002F00030303030463030303030303030303030E8
:10030000303031460A004154533330383D333030B9
:10031000303030300A004154533330373D310A0019
:100320004154533330363D30303030303146463032
:100330003030303030303030303030303030300AE3
:1003400000415426570A0053657420746F205243AD
:100350005A0000000008000201000003040700002A
:100360000000000000004154533330323D000F2F95
:10037000793011241FBECFEFD8E0DEBFCDBF11E032
:10038000A0E0B1E0EEE0F8E602C005900D92A23ADE
:10039000B107D9F724E0A2EAB1E001C01D92A8316B
:1003A000B207E1F711E0C8EBD1E004C02197FE01EC
:1003B0000E94D733C73BD107C9F70E947E210C9416
:1003C000FA330C9400002F923F924F925F926F92FB
:1003D0007F928F929F92AF92BF92CF92DF92EF92D5
:1003E000FF920F931F93CF93DF9300D01F92CDB74F
:1003F000DEB7882E962E81E08093C10121E02B8309
:10040000811002C01B8202C00E9493155E980E9458
:1004100011130E94741D4B8141110E94A310009181
:100420000D0110910E010D3185E2180720F4809125
:10043000A501823020F01092D8011092D70180914E
:10044000BF019091C001811087C02091BC01309103
:10045000BD012F36310560F08F37E4E09E0728F0AC
:10046000409111014093D80107C02238310520F492
:100470001092D8011092D7018130F0E19F0750F01F
:10048000A4E096958795AA95E1F7915F9093C001B6
:100490008093BF018091BF019091C001811590426E
:1004A00030F08FEF9FE19093C0018093BF01809166
:1004B0000101882341F0232B31F421E030E0309317
:1004C000BD012093BC012091BC013091BD012530BC
:1004D000310550F4882321F08091A401813021F46A
:1004E0001092BD011092BC018091BC019091BD01A0
:1004F0008038910560F0F4E096958795FA95E1F7DC
:10050000825A9F4F9093BD018093BC010DC08B35E3
:10051000910550F063E070E00E948133645C7F4F8E
:100520007093BD016093BC018091BC019091BD01AD
:100530008F37910530F08FE790E09093BD01809365
:10054000BC01809105039091060368E273E20E946A
:1005500081336093BB0119C0E3E08E16B1F02091A6
:10056000A301243008F023E02093BB01892B69F418
:100570008091D5019091D60166E170E00E948133AF
:1005800077277093BD016093BC012091BF0130912A
:10059000C0014091BC015091BD016A01E12CF12CD8
:1005A0008CE0CC0CDD1CEE1CFF1C8A95D1F7C90138
:1005B000A0E0B0E063E1880F991FAA1FBB1F6A95F6
:1005C000D1F7C82AD92AEA2AFB2A8091BB01837075
:1005D000482E512C612C712C7AE0440C551C661C61
:1005E000771C7A95D1F7D701C60184299529A629C8
:1005F000B7296091D4016F77C62ED12CE12CF12C54
:10060000E3E0CC0CDD1CEE1CFF1CEA95D1F7C82AF8
:10061000D92AEA2AFB2AFB81FF2309F442C043E0DE
:10062000481568F5232B59F560910F017091100161
:10063000072E000C880B990B0E94B03020E030E0B0
:1006400048EC52E40E94B3326093AB017093AC016A
:100650008093AD019093AE01B80180E090E00E94DC
:10066000AE3020E030E040E251E40E94B3326093CB
:10067000AF017093B0018093B1019093B201882DC6
:100680008770C82AC092B301D092B401E092B5013C
:10069000F092B60185E08812D5C28FEF80930001F9
:1006A000D1C28091A201883010F082E002C086950C
:1006B000869580930001809100018370C82AC092C2
:1006C000B301D092B401E092B501F092B601E0918D
:1006D000BE01F0E0E05EFE4F8081882379F08091DA
:1006E000050180FF0BC0283D3E4030F04E365105DD
:1006F00018F08091D80181110E94D1202A9B0AC054
:100700008091050118160CF09AC28091040188238B
:1007100009F495C20091B3011091B4012091B50183
:100720003091B6012801390193E17694679457948A
:1007300047949A95D1F75201680179014CE0F694FB
:10074000E794D794C7944A95D1F7E894C7F8DD2485
:10075000B901A801EAE07695679557954795EA951E
:10076000D1F71A01E3E02E223324B901A801F3E006
:100770007695679557954795FA95D1F7CA018F7782
:1007800099279A838983077011270E9427168091E1
:10079000BE01811103C08EE991E00AC081E991E0B8
:1007A0000E94931D8091BE010E94561582E891E03F
:1007B0000E94931D86E691E00E94931D8091A60100
:1007C0000E94561580E691E00E94931D8091BA0127
:1007D0000E94561589E591E00E94931D8091D101F8
:1007E00090E02091D001821B91090E945F1583E562
:1007F00091E00E94931DFF24F39420E030E044E355
:1008000053E46091AF017091B0018091B10190917A
:10081000B2010E945B3318161CF0F12C47E001C0B6
:1008200042E06091AB017091AC018091AD0190917B
:10083000AE010E940E14FF2021F08FE491E00E948F
:10084000931D88E991E00E94931DF11002C047E0DA
:1008500001C041E06091AF017091B0018091B101A0
:100860009091B2010E940E14E12CF12CAB28C1F042
:1008700089E491E00E94931D2AE0B301A2018FEF69
:1008800091E00E94501A809104018823F1F082E4E3
:1008900091E00E94931D809104010E94561515C09D
:1008A0000330110591F08BE391E00E94931DC70185
:1008B000B6010E94AE3020E030E040E251E40E94F8
:1008C000B33241E00E940E140BC08CE791E00E940D
:1008D000931D2AE0B701A6018FEF91E00E94501A04
:1008E00085E391E00E94931DA10160E070E02AE0A1
:1008F0008FEF91E00E94501A84EC91E00E94931DCA
:10090000E981FA81AF0160E070E02AE08FEF91E0C9
:100910000E94501A8FE291E00E94931D8091010184
:10092000082E000C990B0E945F1589E291E00E944D
:10093000931DA80160E070E02AE08FEF91E00E9433
:10094000501A8091D201882321F083E291E00E9425
:10095000931D8DE191E00E94931D0E947F1B28EE64
:1009600033E040E050E00E941532BA01A9012AE0CC
:100970008FEF91E00E94501A992021F088E191E0D8
:100980000E94931DFB81FF2321F08091D7018111EB
:1009900003C01091D80101C011E0E091BE01F0E068
:1009A000E05EFE4F8081811109C023E0821208C001
:1009B00001E08091BB01882321F002C001E001C069
:1009C00000E080910501181614F088E101C08FE065
:1009D0000E949D1A11119FC0002309F49CC0209110
:1009E000BA0130E081E0892590E0821793077CF41A
:1009F0001092BA018BE691E00E94201A86ED91E0F8
:100A00000E94931D61E089E090E00E94BF1D8AE88A
:100A100093E00E94C018892B29F08AE893E00E9495
:100A2000D818F5CF85E791E00E94201A0BEA11E073
:100A30008CE0D82ED00E7801F801608162956F703D
:100A400060636A330CF0695D8AE893E00E946C1879
:100A50000F5F1F4FF70160816F7060636A330CF0A6
:100A6000695D8AE893E00E946C18D012E4CF992067
:100A700021F080E791E00E94201A8AE893E00E942A
:100A8000991A911002C00E949E1583ED91E00E9478
:100A9000931D10910201112341F18091A7011817B4
:100AA000E1F080E090E00E94181D8093A70181177B
:100AB000A1F00E9420176091020180E090E00E9466
:100AC000161D8091020160E090E00E94161D809149
:100AD00002018093A7011092A6018091A6018E3F8A
:100AE00030F48F5F8093A60102C01092A60180911E
:100AF000BA018F5F8093BA0161E087E090E00E94C5
:100B0000BF1D8091BE018130B9F460E088E090E0C3
:100B10000E94BF1D11C060910301611104C060916A
:100B2000D30181E068278091050180FD02C08AE041
:100B300001C082E00E947E1D8FEF91E00E94991A11
:100B4000811008C081E09091050119160CF480E035
:100B50008093050180910401882311F0882041F0E1
:100B60008091AA01882341F08091D4018B3020F03C
:100B70002A9A82E08093A9015F985E988AB1806C7E
:100B80008AB980910F01909110018137974124F427
:100B90008091D401803610F0429801C0429A809131
:100BA000D201882309F4D5C02A981092A90160E0E7
:100BB00089E090E00E94BF1D8AEC91E00E94931DA5
:100BC0008FEF91E00E9430180E9420170E943D157F
:100BD0000E94FF188BB18B7E8BB9299812EE809101
:100BE000D401823078F420E030E040E050E069E069
:100BF00070E088EA91E00E94CA1C115081F70E94BF
:100C00001113ECCF299A8BB184618BB90E94931593
:100C10000F900F900F90DF91CF911F910F91FF9048
:100C2000EF90DF90CF90BF90AF909F908F907F908C
:100C30006F905F904F903F902F900C942B150E94D7
:100C4000D21668CD0E94FF1824E082127EC08091E7
:100C5000BF019091C001892B09F477C04091B30185
:100C60005091B4016091B5017091B6016A017B01A8
:100C7000A3E1F694E794D794C794AA95D1F7BCE082
:100C80007695679557954795BA95D1F74F7755273C
:100C90005093BD014093BC0182E191E00E94931DFD
:100CA0008D2D0E94191682EC91E00E94931DC601C1
:100CB000992796958795969587950E94191682ECA7
:100CC00091E00E94931D8C2D8370880F880F0E94E5
:100CD00019161091BC014090AB015090AC0160908E
:100CE000AD017090AE01C090AF01D090B001E09026
:100CF000B101F090B20186EA91E00E94931D47E0B5
:100D0000C301B2010E940E1488E991E00E94931D74
:100D100047E0C701B6010E940E148CE791E00E94E3
:100D2000931D812F0E94561582E891E00E94931D29
:100D30008091D10190E02091D001821B91090E9405
:100D40005F158FEF91E00E94991A8FEF8093050154
:100D5000D5CC0F900F900F90DF91CF911F910F91F5
:100D6000FF90EF90DF90CF90BF90AF909F908F90CB
:100D70007F906F905F904F903F902F9008952F92AB
:100D80003F924F925F926F927F928F929F92AF921B
:100D9000BF92CF92DF92EF92FF920F931F93CF9368
:100DA000DF93CDB7DEB76A970FB6F894DEBF0FBEFC
:100DB000CDBF982E24E0821304C08091D10181110F
:100DC00057988091CF018230C8F081E08093CF01A5
:100DD000911009C01092BD011092BC010E94D12057
:100DE0000E94DE1F09C035E0931208C01092C001B6
:100DF0001092BF018093C80174E0972E11E080919A
:100E0000CD019091CE01892B09F410E045E09416B4
:100E100011F0911029C0109210048091C70155E083
:100E200095120DC01092C8011092A40187FD109276
:100E3000C7018091C7018430ACF58F5F12C09091DB
:100E4000A401911103C092E09093A4011092C801F3
:100E5000181614F41092C7018091C7018D3F14F148
:100E600081508093C7011EC01092C7011092A40147
:100E7000111115C064E0961215C0809110048823EA
:100E800041F08091A501823020F48091CF01882328
:100E900049F08091C5019091C601892B19F41092F7
:100EA000100411E0612F892D0E94E3018091AA01B5
:100EB000882319F081508093AA0180E00E94611E6E
:100EC0007091AA017A8B911006C08091BC0190911B
:100ED000BD010B9718F48A89882321F084E0809360
:100EE000010102C01092010194E0991203C08091A7
:100EF000CF0181111092A501E091A501EA87C09070
:100F0000CD01D090CE018090C70124E0921223C081
:100F10008091BF019091C001892B31F09091D10156
:100F20008091D001981317C08091C801811113C01E
:100F30008091B2039091B3030A8402C0880F991F75
:100F40000A94E2F79093CC018093CB01C114D104B1
:100F500009F07FC0DEC61092A5013DEF831614F0A4
:100F600008E001C004E0E0900801F090090144E0CD
:100F7000941217C08091BF019091C001892B89F014
:100F8000B70180E090E00E94AE3020E030E04CE21B
:100F900052E40E94A93087FD0BC06BE2E62EF12CD3
:100FA00007C0802F90E08E159F0510F4E81AF90A0B
:100FB000F092CC01E092CB01C114D10409F469C0D4
:100FC00058E0C516D10408F060C091104BC0809164
:100FD0001601482F50E02091150130E0B9019CE343
:100FE000899F600D711D11248091B2039091B3030C
:100FF0006D32E1E07E0714F008970EC0643B710586
:1010000014F4089609C0643F710510F0019704C0FC
:101010006E3E710528F001969093B3038093B2035E
:101020008CE190E0BC01641B750BAB016091B203D5
:101030007091B303469FC001479F900D569F900D3E
:10104000112453E0220F331F5A95E1F7821B930BB3
:1010500013C03A8507E0333008F460C648E0C41690
:10106000D10498F42091B2033091B30348E1429F38
:10107000C001439F900D11249093CC018093CB012C
:101080009093CE018093CD0104C0D092CC01C09248
:10109000CB0173E078153CF08091CB019091CC01AD
:1010A0008F30904180F08091CF0181110CC08091F0
:1010B000CD019091CE01892B31F48BE991E0909391
:1010C000CC018093CB014B9B04C01092C4011092C1
:1010D000C3018CEF890D823068F08091CF0182309E
:1010E00060F48091CD019091CE01892B49F428E0E4
:1010F000298708C039E0398705C049E0498702C01F
:1011000059E059878091CB019091CC0186309105AF
:1011100028F0112379F00C9718F00CC0112319F066
:101120008CE090E002C086E090E09093CC01809348
:10113000CB0103E04091CB015091CC01802F90E096
:101140008417950730F4BA01681B790B798B688B8B
:1011500002C0598B488B60E070E02AE08FEF91E08D
:101160000E94501A8FEF91E00E94991A8FEF91E040
:101170000E94BC17892B29F08FEF91E00E949A17EB
:10118000F5CF80910301882329F08091D30181114B
:101190001092030122242394312C812C1B868091F0
:1011A000CB019091CC012816390608F0E9C411232F
:1011B00021F072E02716310430F461E0898590E077
:1011C0000E94BF1D75C080917A008F7780937A004E
:1011D00080916400816080936400809164008860E5
:1011E00080936400809164008062809364008091A9
:1011F00064008460809364008091640082608093C6
:1012000064008091640080688093640089858870A0
:1012100011F498E001C098E289858770892B98E1E4
:101220000FB6F894A895909360000FBE809360006D
:101230008091600080648093600083B7817F83BF6A
:10124000F89483B7816083BF7894889583B78E7F45
:1012500083BF7894809164008E7F80936400809136
:101260007A00806880937A0080916400877F809301
:101270006400809164008F7D80936400809164009D
:101280008B7F80936400809164008D7F80936400E5
:10129000809164008F7780936400898590E00E943C
:1012A0005E162091C20190E0820F911D8093C201D1
:1012B0008091CD019091CE018230910520F101976E
:1012C0009093CE018093CD01809110048823D9F0B2
:1012D000C1016FE070E00E948133892BA1F49091ED
:1012E000D1018091D001891770F4E091BE01F0E046
:1012F000E05EFE4F8081882331F00E94DE1F60E0B7
:1013000084E00E94E3018091C5019091C60100979D
:1013100031F001979093C6018093C50107C0809179
:101320000701823018F482E0809307018091D30195
:10133000882319F08AB18F738AB98091C4018823F8
:1013400019F18091C4018F3108F45F9880E290E038
:101350000E94EC124B9905C08091C4018F3108F4B2
:101360002BC44B9B2BC48091C4018F3008F026C442
:101370001092C4018091C401803248F09FEF291A75
:10138000390AE8E0E98703C02FEF221A320A809178
:10139000C401811145C48091D301882309F440C45C
:1013A0000E94741D33E02316310410F12091BA011C
:1013B0002230A8F44091CB015091CC01C101069696
:1013C00084179507A9F48091C5019091C601892BD6
:1013D00079F48091010181110BC0222349F0111190
:1013E0000AC01092BA018BE691E00E94201A5AC3FB
:1013F000112309F457C317E08AE893E00E94C0184C
:10140000892B79F08AE893E00E94C018892B81F437
:10141000A12CB12CC12CD12CE12CF12C00E010E03E
:101420008AC084E690E00E94EC12115029F7EACFBE
:101430000E947F1B2B013C01A12CB12CC12CD12C73
:10144000E12CF12C00E010E00E947F1BDC01CB01BD
:1014500084199509A609B709883E9340A105B105ED
:1014600008F069C08AE893E00E94C018892B61F3F4
:101470000E947F1B2B013C018AE893E00E94D81850
:10148000E82F8D3209F380ED8E0F8A3080F49501BC
:10149000A601B701C80104E00E94A93359016A01FD
:1014A0007B018C010E2E000CFF0BF09713C08FEB0D
:1014B0008E0F8630F8F49501A601B701C80104E04B
:1014C0000E94A93359016A017B018C010E2E000C88
:1014D000FF0BF7979F2F990F990B9F01492F592FBA
:1014E000692F792F892F0E94C23359016A017B012C
:1014F0008C01AACF8FE98E0F863088F49501A60162
:10150000B701C80104E00E94A93359016A017B01B7
:101510008C010E2E000CFF0BE755F109DBCFEA30F2
:1015200009F092CF9501A601B701C801A0E00E9481
:10153000CB3309F489CFA982BA82CB82DC82ED82D7
:10154000FE820F8318870B811C810115110509F498
:1015500091C24D805E806F80788441145104610493
:1015600050E4750608F486C281E08093100410925E
:10157000C201C301B2012CE330E040E050E00E9420
:10158000153269017A01ACE3B0E00E940232A30196
:101590009201261B370B480B590B2C873D874E8732
:1015A0005F87C701B6012CE330E040E050E00E94C5
:1015B000153229013A01ACE3B0E00E940232A701E2
:1015C0009601261B370B480B590B2B8B3C8B4D8BF5
:1015D0005E8BC301B20128E130E040E050E00E94A0
:1015E000153269017A01A8E1B0E00E940232A3013C
:1015F0009201261B370B480B590B2F8B388F498FC5
:101600005A8F32EB432E37E0532E612C712CD301CD
:10161000C20183709927AA27BB27892B8A2B8B2B82
:10162000E1F4C301B20124E630E040E050E00E9462
:101630001532672B682B692B61F4C301B20120E9D5
:1016400031E040E050E00E941532672B682B692B97
:1016500021F421E08EE691E003C020E08DE691E0E8
:10166000A0E0B0E0C816D906EA06FB0630F4E5E2D1
:10167000F1E080E090E0DC0120C0C81AD90AEA0A53
:10168000FB0A3FEF431A530A630A730AC0CF2111C2
:101690004F5F50E060E070E0C416D506E606F7063E
:1016A00098F0C41AD50AE60AF70A0196A11DB11DE1
:1016B0008C309105A105B10539F04191813091053A
:1016C000A105B10531F7E3CF0196A11DB11D8093AE
:1016D00019014FEFC41AD40AE40AF40AC0920201B5
:1016E00050921801409217015F89509316016B893F
:1016F000609315017C85709314018CE092E00E9448
:10170000931DA10160E070E02AE08FEF91E00E945C
:10171000501A87E092E00E94931D0E9427160E3B0C
:101720008AEB180761F48FEF91E00E94301880E196
:101730008093010180910801909109017FC00E35CD
:101740009AEB1907D9F5E980FA80C70191700097E3
:1017500031F09093CA018093C9010E942C17EF2C9D
:10176000FF24E694F092CA01E092C9018FEF91E064
:101770000E943018E114F10489F02AE52E9DC00181
:101780002F9D900D11249093CE018093CD019093C5
:10179000CC018093CB0110920101D1C0809108014E
:1017A000909109019093CC018093CB011092CE01CE
:1017B0001092CD0180E180930101C1C00A3DEEECA1
:1017C0001E0729F48FEF91E00E943018B8C00E3F39
:1017D0002AEC1207C1F589819A8197FF05C0909381
:1017E000CA018093C901ABC091709093CA018093E4
:1017F000C901C090CB01D090CC01E090B203F09031
:10180000B3030E942C178091CD019091CE01892BBA
:1018100009F095C00A8402C0EE0CFF1C0A94E2F79E
:10182000CE14DF0409F08BC08091B2039091B30312
:101830000A8402C0880F991F0A94E2F79093CC01A2
:101840008093CB017CC00F3E3EEB1307C1F5E980CE
:10185000FA80C7018F779927009719F41092AA018F
:1018600002C08093AA01E7FC04C081E080931101CB
:1018700002C0109211018F2D992787FD9A959093A0
:10188000CA018093C9011816190634F40E94441D38
:1018900090930901809308018091080190910901BA
:1018A0009093CC018093CB018091A901811102C05A
:1018B0000E94E0168F2D81700E94A41D40C00F3A37
:1018C0004AEF140751F48981811104C081E08093AB
:1018D000110135C01092110132C00E3C5AEF1507AC
:1018E00021F005306CEE160769F4F9808F2D0E9407
:1018F000A41DF4FC1092CF01F5FE21C081E080937D
:10190000CF011DC00D3A7EED170759F489819A81E8
:10191000909307010E94441D909309018093080150
:101920000EC00A3B8AEB180751F00E3E9AEA1907DF
:1019300031F0013FE1E31E0711F010921004809195
:101940001004882399F18091CD019091CE01892BCB
:10195000F1F49091D1018091D0019817C1F0E090FD
:101960000801F0900901B70180E090E00E94AE30DC
:1019700020E030E04CE252E40E94A93087FD03C031
:101980008BE2E82EF12CF092CC01E092CB01809119
:101990001201909113019093C6018093C50180912B
:1019A0000401811103C08FEF809304018091BA017B
:1019B0008F5F8093BA0181E092E00E94931DA8019D
:1019C00060E070E020E18FEF91E00E94501A8BEF11
:1019D00091E00E94931D809107010E94561585EFAA
:1019E00091E00E94931D409108015091090160E02F
:1019F00070E02AE08FEF91E00E94501A8EEE91E0A5
:101A00000E94931D4091CB015091CC0160E070E0A9
:101A10002AE08FEF91E00E94501A88EE91E00E9438
:101A2000931D4091CD015091CE0160E070E02AE01D
:101A30008FEF91E00E94501A82EE91E00E94931D78
:101A40004091B2035091B30360E070E02AE08FEF61
:101A500091E00E94501A8BED91E00E94931D8091BD
:101A6000C9019091CA010E945F158FEF91E00E9419
:101A7000991A05C089819A818D3E910549F080911E
:101A80001004811105C011E02CE02216310408F089
:101A900010E08091C401882361F061E082E00E943F
:101AA0007E1D07C08091C101813011F41092C101E7
:101AB00010E080910101833064F091100AC04889E0
:101AC00059894215530528F42A9A81E08093A90187
:101AD0001BC02A9B19C0C10187709927892B21F44B
:101AE000111102C00E941113898590E00E945E16B8
:101AF00090910401891720F4981B9093040104C06D
:101B0000109204010E94D21681E00E94611E811190
:101B10008BC05B85511188C083948091CF0188234D
:101B200041F08091B2039091B3032816390608F072
:101B3000A7C000E08091010180311CF096E0991669
:101B4000A1F0682D70E080E090E00E94B03020E0CD
:101B500030E04CE252E40E945B3387FD04C0809188
:101B6000C701843014F4002321F03092CC0120927C
:101B7000CB018091C401811112CB5E985F980FCB8D
:101B8000111117CB2091010123300CF07EC0209160
:101B9000CF01223008F079C02091AA01211175C02F
:101BA0002091C401211171C02091CD013091CE014D
:101BB000232B09F06AC0A3C05F9AD3CB8091C401E4
:101BC0008F3058F48FE08093C40191E04B9916C098
:101BD0008091C4018F3119F411C090E0F7CF80914A
:101BE000C4018F3128F48091C4018F5F8093C401B8
:101BF000992309F4BFCB86E08987BCCB8091C401CF
:101C0000833130F08091C401873110F482E201C049
:101C100080E28093C4011092CC011092CB01E8CFF6
:101C20008AB1806C8AB9BCCB111126C02091CD013C
:101C30003091CE0180910101232B51F0811119C007
:101C400083E08093010160E086E00E94E30111C01F
:101C500080311CF48F5F8093010164E0961629F0B7
:101C60008091AA017A89781721F01092CC01109204
:101C7000CB01812C1B8651CF812C81E08B874DCFEE
:101C800082E08093CF0101E055CF81E08093010194
:101C90008091A401823068F080910101811109C016
:101CA0001092C70181E0809301018093A4011092FA
:101CB00005018091010118161CF40E94E01602C073
:101CC0000E94731610920601809101016A960FB668
:101CD000F894DEBF0FBECDBFDF91CF911F910F9162
:101CE000FF90EF90DF90CF90BF90AF909F908F903C
:101CF0007F906F905F904F903F902F900895E4E019
:101D00009E1204C0892B11F48FEFC0CF10920101F5
:101D1000BFCF2A8503E0233008F0BBC98A858F5FD7
:101D20008093A50149C9CF92DF92EF92FF92CF93A2
:101D3000DF930E947F1B6B017C0184E98093BC00D0
:101D4000C091DB01D091DC019091BC00892F8071A2
:101D500094FF18C02097C1F30E947F1BDC01CB01C8
:101D60008C199D09AE09BF09AE0160E070E08417CF
:101D70009507A607B70720F31092BC0084E4809370
:101D8000BC0081E0DF91CF91FF90EF90DF90CF908A
:101D90000895CF92DF92EF92FF92CF93DF93C82FF7
:101DA0000E947F1B6B017C01CC2311F084EC01C0ED
:101DB00084E88093BC00C091DB01D091DC0180916C
:101DC000BC0087FD19C02097D1F30E947F1BDC0166
:101DD000CB018C199D09AE09BF09AE0160E070E02E
:101DE00084179507A607B70730F31092BC0084E468
:101DF0008093BC0081E010C08091B900887F883357
:101E000041F48091B9001092BC0094E49093BC001E
:101E100002C08091B900887FDF91CF91FF90EF9051
:101E2000DF90CF900895CF92DF92EF92FF92CF9301
:101E3000DF938093BB000E947F1B6B017C0184E8D1
:101E40008093BC00C091DB01D091DC018091BC008B
:101E500087FD19C02097D1F30E947F1BDC01CB01C5
:101E60008C199D09AE09BF09AE0160E070E08417CE
:101E70009507A607B70730F31092BC0084E480935F
:101E8000BC0081E023C08091B900887F883129F0AF
:101E90008091B900887F803411F480E017C0809170
:101EA000B900C82FC87F8091B900887F803229F09F
:101EB0008091B900887F883419F40E94930E05C080
:101EC0001092BC0084E48093BC008C2FDF91CF91F2
:101ED000FF90EF90DF90CF900895CF92DF92EF9236
:101EE000FF92CF93DF930E947F1B6B017C0184EAFA
:101EF0008093BC00C091DB01D091DC018091BC00DB
:101F000087FD19C02097D1F30E947F1BDC01CB0114
:101F10008C199D09AE09BF09AE0160E070E084171D
:101F20009507A607B70730F31092BC0084E48093AE
:101F3000BC0081E01CC08091B900887F883029F006
:101F40008091B900887F803111F480E010C08091C9
:101F5000B900887F883341F48091B9001092BC00A9
:101F600094E49093BC0002C08091B900887FDF9117
:101F7000CF91FF90EF90DF90CF900895CF92DF92B6
:101F8000EF92FF92CF93DF938093BB000E947F1B61
:101F90006B017C0184E88093BC00C091DB01D0918F
:101FA000DC018091BC0087FD19C02097D1F30E940D
:101FB0007F1BDC01CB018C199D09AE09BF09AE0165
:101FC00060E070E084179507A607B70730F310921A
:101FD000BC0084E48093BC0081E019C08091B9000A
:101FE000887F883299F08091B900C82FC87F80918E
:101FF000B900887F803319F40E94930E05C01092B7
:10200000BC0084E48093BC008C2F01C080E0DF9191
:10201000CF91FF90EF90DF90CF9008958091B00323
:10202000E091B103E81BE093AF03811103C010926C
:10203000AF03089581508093B003F0E0E352FE4F68
:10204000828108950F931F93CF93DF93C82F162F8C
:10205000D42F1092B0031092AF03411101C0D1E010
:102060008FEF8D0F8093DE011092DD010E946D0FC6
:102070008093DD01811162C0CC0F8C2F0E94130F61
:102080008093DD01882329F0813009F057C082E078
:1020900055C0812F0E94BE0F8093DD01882329F057
:1020A000813009F04BC083E049C00E946D0F8093DE
:1020B000DD01882329F0813009F040C084E03EC072
:1020C00081E08C0F0E94130F8093DD01811104C009
:1020D0000FED11E0C0E019C0813081F585E02EC020
:1020E00080E00E94C90E8093DD018130C9F08835FF
:1020F00029F58091BB00F80181938F01CF5FC093D8
:10210000B003C093B103CD1781F08091DE01C817F1
:1021100039F381E00E94C90E8093DD01813011F412
:1021200086E00CC0803529F309C00E94930E80938D
:10213000DD01882319F0813009F487E0DF91CF9128
:102140001F910F9108952F923F924F925F926F923D
:102150007F928F929F92AF92BF92CF92DF92EF9237
:10216000FF920F931F93CF93DF93CDB7DEB72897DE
:102170000FB6F894DEBF0FBECDBF8091DA01882381
:1021800009F4FEC146E067EF80919C020E94221094
:10219000882339F08DE495E990939E0280939D0207
:1021A000B8C10E940E10082F0E940E10B82E0E9477
:1021B0000E10182F0E940E10C12CD12C7601E82E83
:1021C0000E940E10D82E0E940E10C82E1983BA82BB
:1021D0000B831C8280919F029091A002A0E0B0E04E
:1021E0004D2C5E2C6F2C772467FC7A94481A590A80
:1021F0006A0A7B0AB701A60137E07595679557957E
:1022000047953A95D1F7880F991FAA1FBB1F9A01CE
:10221000AB01281B390B4A0B5B0BA091A102B091BB
:10222000A2020E940D326B017C01FBE0F594E79461
:10223000D794C794FA95D1F7A3019201C301B201D3
:102240000E9465339B01AC01ACE0559547953795ED
:102250002795AA95D1F7A091A302B091A4020E945C
:102260000D32DC01CB011EE0B595A79597958795BA
:102270001A95D1F7C80ED91EEA1EFB1EA5E0B0E0E4
:10228000A70196010E940232DC01CB0180589F4FCA
:10229000AF4FBF4F892F9A2FAB2FBB27A7FDBA9502
:1022A00090939E0280939D02F594E794D794C794EF
:1022B0002AEFD21AE108F108C701B60122E095958C
:1022C0008795779567952A95D1F79B01AC010E9478
:1022D00065334B015C01E091AF02F091B0022090B8
:1022E000AD023090AE020091AB021091AC02A09111
:1022F000A902B091AA029B01AC016DE055954795EA
:10230000379527956A95D1F70E940D322B013C0134
:1023100073E075946794579447947A95D1F7A09198
:10232000A702B091A802A70196010E940D32DC011C
:10233000CB01B595A79597958795840D951DA61DFD
:10234000B71D32E1B595A795979587953A95D1F741
:102350009C01AD0130584F4F5F4FA091A502B09145
:10236000A6020E9402322B013C014FE07594679453
:10237000579447944A95D1F741145104610471046C
:1023800009F4C7C0A50194016BE0559547953795B1
:1023900027956A95D1F7DF010E940D324B015C0150
:1023A000D101A70196010E940D32DC01CB01880FFB
:1023B000991FAA1FBB1F880D991DAA1DBB1DE2E016
:1023C000B595A79597958795EA95D1F789809A80D5
:1023D000AB80BC80F4E0B594A79497948794FA9569
:1023E000D1F744275527BA01481959096A097B09C9
:1023F0006801110FEE08FF087601DD24CC248C0D56
:102400009D1DAE1DBF1D0CE0B595A79597958795B1
:102410000A95D1F79A01AB01281B390B4A0B5B0BCC
:10242000A5E3BCE00E940232805B9C4397FD0BC099
:10243000660F771F881F991FA30192010E94153212
:1024400069017A010AC0A30192010E941532690153
:102450007A01CC0CDD1CEE1CFF1CC701B60123E089
:1024600096958795779567952A95D1F7E091B5026E
:10247000F091B6029B01AC010E9465339B01AC0157
:102480006DE056954795379527956A95D1F7DF0109
:102490000E940D324B015C017CE0B594A7949794A7
:1024A00087947A95D1F7A7019601E2E05695479572
:1024B00037952795EA95D1F7A091B302B091B40270
:1024C0000E940D32DC01CB01FDE0B595A7959795F3
:1024D0008795FA95D1F7880D991DAA1DBB1D4091CE
:1024E000B1025091B202052E000C660B770B840FDF
:1024F000951FA61FB71F14E0B595A79597958795CB
:102500001A95D1F7BC01CD016C0D7D1D8E1D9F1D4F
:1025100003C060E070E0CB012AE030E040E050E032
:102520000E94E33130930E0120930D018091AD03A1
:102530009091AE038217930740F08091D9018823D0
:1025400041F08091D801811104C03093AE032093F3
:10255000AD03205C3E4F8091AD039091AE03821796
:10256000930718F08091110101C080E08093D7019A
:1025700080919D0290919E029093100180930F0193
:102580008091DA01882339F080910F019091100138
:10259000803F984D44F48AE098E290930E01809336
:1025A0000D011092D70128960FB6F894DEBF0FBE2A
:1025B000CDBFDF91CF911F910F91FF90EF90DF90F2
:1025C000CF90BF90AF909F908F907F906F905F90D3
:1025D0004F903F902F9008958F929F92AF92BF920D
:1025E000CF92DF92EF92FF926C010E947F1B4B0112
:1025F0005C01E12CF12C0E947F1BDC01CB018819CE
:102600009909AA09BB098C159D05AE05BF0598F36C
:10261000FF90EF90DF90CF90BF90AF909F908F9002
:1026200008954F925F926F927F92BF92CF92DF9206
:10263000EF92FF920F931F93CF93DF93CDB7DEB747
:10264000C456D1090FB6F894DEBF0FBECDBFBBB0E4
:10265000BB1CBB24BB1C579A29F45F9A80E290E014
:102660000E94EC1283E080930A0130E080910A011D
:1026700020E4829FC0011124816080937C008091BE
:102680007A00806480937A0080917A0086FDFCCF86
:10269000809178002091790090E0922B9595879514
:1026A00095958795482F2981821778F0332369F013
:1026B000FE01319621E0231749F05191451718F09A
:1026C0005081541718F42F5FF6CF20E0432F2417C2
:1026D00078F4642F70E0FE01E60FF71F5081E1E00F
:1026E000F0E0EC0FFD1FE60FF71F50834150EFCFD6
:1026F000E1E0F0E0EC0FFD1FE20FF11D80833F5F92
:10270000343609F0B3CFFE01BF96CE01C79600E084
:1027100010E02191020F111DE817F907D1F7169566
:1027200007951093D6010093D501045011098091AB
:102730000B0190910C018017910770F4602F80E2DB
:1027400090E00E94161D612F81E290E00E94161D0C
:1027500010930C0100930B012091D5013091D6010B
:10276000A8E6B0E10E94373220910B0130910C01B4
:1027700040E050E00E94E33169017A018901C9011A
:1027800043EFC4164DE0D40610F082EF9DE02C011B
:10279000612C712CD701C601AA27BB279C01AD0172
:1027A0002419350946095709A4E6B0E00E9402320F
:1027B0009601083640E1140710F428E630E169017B
:1027C000E12CF12CA7019601241935094609570976
:1027D0000E94E3312093D401BB2019F08091D301F2
:1027E00081115F9881E0023F1D4008F080E08093F6
:1027F000D201CC59DF4F0FB6F894DEBF0FBECDBF6C
:10280000DF91CF911F910F91FF90EF90DF90CF90CC
:10281000BF907F906F905F904F9008954F925F921E
:102820006F927F928F929F92AF92BF92CF92DF92E0
:10283000EF92FF926B017C01B42E9B01AC010E94D0
:102840006033882319F060E971E027C02601370161
:10285000E89477F82FEF3FEF4FE75FE7C301B2014E
:102860000E94603381110DC02FEF3FEF4FE75FE70C
:10287000C301B2010E94A93018161CF464E971E08A
:102880000CC02FEF3FEF4FE75FE4C701B6010E9496
:102890005B33181694F468E971E08FEF91E0FF90D4
:1028A000EF90DF90CF90BF90AF909F908F907F90F0
:1028B0006F905F904F900C943B1A2FEF3FEF4FE7D4
:1028C0005FECC701B6010E94A93087FDE4CF20E08C
:1028D00030E0A901C701B6010E94A93087FF0BC0F3
:1028E0006DE28FEF91E00E94191A4C01F7FAF09413
:1028F000F7F8F09402C0812C912CA12C60E070E0DC
:1029000080E09FE3AB1441F020E030E040E251E48E
:102910000E94B332A394F6CF9B01AC01C701B6016C
:102920000E9447322B013C010E942C336B017C0139
:102930000E94AE309B01AC01C301B2010E9446323D
:102940002B013C012AE0B701A6018FEF91E00E9424
:10295000501A7C01E80CF91CBB2039F06EE28FEFB5
:1029600091E00E94191AE80EF91EDB2CDD2031F1EE
:1029700020E030E040E251E4C301B2010E940F3197
:102980002B013C010E942C334B01A12CB12C2AE0DD
:10299000B501A4018FEF91E00E94501AE80EF91ED4
:1029A000C501B4010E94AE309B01AC01C301B2016C
:1029B0000E9446322B013C01DA94D8CFC701FF9028
:1029C000EF90DF90CF90BF90AF909F908F907F90CF
:1029D0006F905F904F9008951F93CF93DF93182FC0
:1029E000D62FC42F1092DD010E946D0F8093DD0160
:1029F000811127C0812F880F0E94130F8093DD0162
:102A0000882321F08130E9F482E01BC08D2F0E94E1
:102A1000BE0F8093DD01882321F0813091F483E0A3
:102A200010C08C2F0E94BE0F8093DD018111F5CF65
:102A30000E94930E8093DD01882319F0813009F400
:102A400087E0DF91CF911F910895462F682F8091E5
:102A5000B7020C94EC1469E08CE20E94251569E041
:102A60008BE20E9425158091C402811102C06BEF98
:102A700001C069EF8AE20C94251541E06AE2809179
:102A8000B7020E9422100E940E10682F6E7F8AE209
:102A90000C9425156091D0018BE290E00E94161DE8
:102AA0006091D1018CE290E00C94161D482F50E00B
:102AB00060E070E02AE08FEF91E00C94501ACF9222
:102AC000DF92EF92FF92CF93DF936C01990FEE08A4
:102AD000FF08F7FE1BC06DE28FEF91E00E94191A0C
:102AE000EC0144275527BA014C195D096E097F098D
:102AF0002AE08FEF91E00E94501A8C0F9D1FDF910A
:102B0000CF91FF90EF90DF90CF9008952AE0B7012A
:102B1000A6018FEF91E0DF91CF91FF90EF90DF90D2
:102B2000CF900C94501A47E264EF80919C020E946F
:102B3000EC1491E0811190E0892F0895CF92DF92FB
:102B4000EF92FF92CF930E947F1B6B017C01C0E04C
:102B50008AE893E00E94C018892B89F40E947F1BA9
:102B6000DC01CB018C199D09AE09BF09C297A105F3
:102B7000B10528F081E0C230B1F080E014C08AE8ED
:102B800093E00E94C018892B19F38AE893E00E9411
:102B9000D8188F3431F0C130D9F68B34C9F6C2E081
:102BA000D7CFC1E0D5CFCF91FF90EF90DF90CF90FE
:102BB0000895CF93C82F8230A0F1823069F084301D
:102BC000B9F485EE92E00E94201A8AED92E00E940C
:102BD000201A8AEC92E00AC080E293E00E94201A58
:102BE00086E193E00E94201A86E093E00E94201A7A
:102BF00081E493E00E94201A1092BA018BE691E0E2
:102C00000E94201A87E493E00E94931D8C2F0E945B
:102C100056158FEF91E00E94991A8FEF91E00E9474
:102C200030186C2F86E290E00E94161D8C2FCF91F9
:102C30000895CF93C82F8A3030F46CE971E08FEF9C
:102C400091E00E943B1A8C2FCF910C94561560E0B6
:102C500080E090E00E94BF1D809119010E9419162A
:102C600084E891E00E94931D809102010E94191650
:102C700084E891E00E94931D8091170190911801C2
:102C80000E945F1582E891E00E94931D80911601D9
:102C90000E94191682EC91E00E94931D809115010B
:102CA0000E94191682EC91E00E94931D80911401FC
:102CB0000E94191682E891E00C94931D9C018930C2
:102CC000910559F08830910551F0079751F081E056
:102CD0002630310539F080E0089588E0089584E0D9
:102CE000089582E008951092B8031092B7031092ED
:102CF000BD011092BC011092C0011092BF01EBEA1D
:102D0000F1E01482158216821782108211821282DB
:102D100013821092B6031092B5031092A201109282
:102D2000B4031092D9010895EF92FF920F931F936D
:102D3000CF938C01E12CF12CF801C491CC2339F014
:102D40006C2F8FEF91E00E94191ACA3259F480E17A
:102D5000E816F1048CF46CE971E08FEF91E00E94C9
:102D60003B1A0AC0C43229F06C2FCC0F770BE62631
:102D7000F7260F5F1F4FE0CFA701FF0C660B770B05
:102D800020E18FEF91E00E94501A8FEF91E00E94B6
:102D9000991A8FEF91E0CF911F910F91FF90EF90D3
:102DA0000C9430182A9B08C08EEB92E00E94941677
:102DB00084E690E00E94EC122A981092A9010895EE
:102DC000CF92DF92EF92FF922A9B04C08FEF91E0A7
:102DD0000E94991A1092A9010E9473160E947F1BEB
:102DE0006B017C010E947F1BCB018C199D09803AED
:102DF0009F4088F42A9A8FEF91E00E94BC17181622
:102E0000190684F78FEF91E00E949A170A9751F7FD
:102E100081E08093A9018091A901811102C02A98C3
:102E200004C08EE892E00E94941681E09091A9017E
:102E3000911101C080E0FF90EF90DF90CF90089556
:102E40008091A7019FEF980F9F3128F46091A60110
:102E500090E00C94161D089592EC981B892F9E3CCF
:102E60000CF48EEC83330CF082E36091B20370912A
:102E7000B303680F711D87FD7A957093B303609358
:102E8000B203CB018C539140823C910530F46F5FCB
:102E900089E290E00E94161D06C08BE991E09093B4
:102EA000B3038093B2038091B2039091B303880F70
:102EB000991F880F991F9093130180931201089511
:102EC000CF92DF92EF92FF920F931F93CF93DF93F6
:102ED0006C017A018B01C0E0D0E0CE15DF0589F0EE
:102EE000D8016D918D01D601ED91FC910190F08199
:102EF000E02DC6010995892B11F47E0102C02196AF
:102F0000ECCFC701DF91CF911F910F91FF90EF9010
:102F1000DF90CF900895FC01538D448D252F30E034
:102F2000842F90E0821B930B541710F0CF960895D6
:102F300001970895FC01918D828D981761F0828D23
:102F4000DF01A80FB11D5D968C91928D9F5F9F73DD
:102F5000928F90E008958FEF9FEF0895FC01918D7F
:102F6000828D981731F0828DE80FF11D858D90E0EC
:102F700008958FEF9FEF0895FC01918D228D892F89
:102F800090E0805C9F4F821B91098F739927089571
:102F9000FC01848DDF01A80FB11DA35ABF4F2C91F6
:102FA000848D90E001968F739927848FA689B789C5
:102FB0002C93A089B1898C9180648C93938D848D9E
:102FC000981306C00288F389E02D80818F7D80836D
:102FD0000895EF92FF920F931F93CF93DF93EC012D
:102FE00081E0888F9B8D8C8D981305C0E889F989C5
:102FF000808185FD24C0F62E0B8D10E00F5F1F4FE2
:103000000F731127E02E8C8DE8120CC00FB607FC51
:10301000FACFE889F989808185FFF5CFCE010E943A
:10302000C817F1CF8B8DFE01E80FF11DE35AFF4F5A
:10303000F0820B8FEA89FB898081806207C0EE896C
:10304000FF896083E889F98980818064808381E0D9
:1030500090E0DF91CF911F910F91FF90EF90089535
:10306000CF93DF93EC01888D8823C9F0EA89FB892F
:10307000808185FD05C0A889B9898C9186FD0FC026
:103080000FB607FCF5CF808185FFF2CFA889B989FB
:103090008C9185FFEDCFCE010E94C817E7CFDF915D
:1030A000CF91089508952091BB033091BC03281758
:1030B000390771F49091BA038091B903981741F0E0
:1030C000E091BA03F0E0E354FC4F808190E0089572
:1030D0008FEF9FEF089508951F93CF93DF93DC0147
:1030E0005C962D913C915D972115310539F481E075
:1030F00090E013969C938E9312973DC05196ED915C
:10310000FC91529750969C915097892F80951FB7AC
:103110005E964C915E9741FB772770F941FD609573
:10312000F8944081772311F0492B01C04823408354
:10313000E9012197F1F748E0508160FF02C0592B67
:1031400001C058235083E9012197F1F7669541505A
:1031500099F7772321F090818923808303C08081B0
:10316000982B90831FBF5C968D919C915D970197E2
:10317000F1F721E030E0C901DF91CF911F9108956F
:103180002091BB033091BC032817390771F480915B
:10319000B9032091BA0390E0805C9F4F821B910994
:1031A00060E470E00E949533089580E090E0089517
:1031B0002091BB033091BC0328173907B9F49091D3
:1031C000BA038091B903981789F0E091BA03F0E04F
:1031D000E354FC4F80812091BA0330E02F5F3F4FD2
:1031E0002F7333272093BA0390E008958FEF9FEF5A
:1031F0000895089580E090E008950E94DD3344E250
:1032000064EF80919C020E94EC1491E0811190E0A7
:10321000892F08950F931F93CF93DF93EC0160E004
:1032200070E0CB01E99120ED2E0F2A30C0F4AAE026
:10323000B0E09B01AC010E9402320E2FEE0F110B89
:10324000220B330BDC01CB01800F911FA21FB31F98
:10325000BC01CD016053710981099109E3CFDF9170
:10326000CF911F910F9108950F931F93CF93C1E0BA
:10327000809124038D3221F0C0E004E213E002C00B
:1032800005E213E0C8010E940A199B01AC01A4E603
:10329000B0E00E940232F801DF01219130ED320FDF
:1032A0003A30D0F32E3269F511962C91119730ED0A
:1032B000320F3A3030F5022E000C330B2053310917
:1032C0004AE0429F8001439F100D1124012E000C03
:1032D000220B330B600F711F821F931F12960C91EC
:1032E00020ED200F2A3068F4002E000C110B005343
:1032F0001109012E000C220B330B600F711F821F6E
:10330000931FCC2339F090958095709561957F4FF0
:103310008F4F9F4FCF911F910F9108954F925F92C2
:103320006F927F928F929F92AF92BF92CF92DF92D5
:10333000EF92FF92CF93DF9384E293E00E940A1909
:103340002B013C0124E630E040E050E00E941532C1
:103350009B01AC0160EA76E881E090E00E94653371
:103360006B017C01E4E2F3E0819190ED980F9A30DB
:10337000D8F38E3219F5EF0180E1882E87E2982E7E
:10338000A12CB12CA99180ED8A0F8A30B8F40A2EB5
:10339000000CBB0BD097A50194010E940D32C60E04
:1033A000D71EE81EF91EC501B4012AE030E040E056
:1033B00050E00E94153249015A01E4CFC701B6011D
:1033C0006D5F7F4F8F4F9F4F26E030E040E050E031
:1033D0000E94153269017A01C301B20124E630E08E
:1033E00040E050E00E94153260E472E48FE090E02B
:1033F0000E9465336C0D7D1D8E1D9F1DDF91CF9149
:10340000FF90EF90DF90CF90BF90AF909F908F9004
:103410007F906F905F904F900895DC01FB019D912C
:10342000992319F081919817D1F3892F990F990B4E
:103430000895DC01ED91FC910190F081E02D09945B
:10344000CF93DF93FC016491EC012196662331F068
:103450008AE893E00E94191ACE01F4CF849181503A
:103460008F3130F480E290E0DF91CF910C94EC1238
:10347000DF91CF9108956115710579F0FB010190FD
:103480000020E9F73197AF01461B570BDC01ED91A6
:10349000FC910280F381E02D099480E090E0089592
:1034A0004F925F926F927F92EF92FF920F931F93D2
:1034B000CF93DF93CDB7DEB7A1970FB6F894DEBFF9
:1034C0000FBECDBF7C01FA01CB0119A2223008F456
:1034D0002AE08E010F5D1F4F422E512C612C712C62
:1034E000BF01A30192010E941532F901CA010150E6
:1034F00011096A3014F4605D01C0695CD8016C93F5
:10350000232B242B252B61F7B801C7010E943B1AFE
:10351000A1960FB6F894DEBF0FBECDBFDF91CF915D
:103520001F910F91FF90EF907F906F905F904F9061
:1035300008956EE971E00C943B1ACF938931A8F499
:10354000C82F86E693E00E94201A4C2F50E060E0DE
:1035500070E02AE08AE893E00E94501A8AE893E03B
:103560000E94991ACF910C949E1580E0CF910895F6
:103570001F920F920FB60F9211242F933F934F93E8
:103580005F936F937F938F939F93AF93BF93EF93CB
:10359000FF938FEF91E00E94C817FF91EF91BF91C9
:1035A000AF919F918F917F916F915F914F913F91DB
:1035B0002F910F900FBE0F901F9018951F920F9292
:1035C0000FB60F9211242F938F939F93EF93FF9336
:1035D000E0910F02F09110028081E0911502F091CC
:1035E000160282FD12C09081809118028F5F8F7346
:1035F00020911902821751F0E0911802F0E0E15099
:10360000FE4F958F8093180201C08081FF91EF914A
:103610009F918F912F910F900FBE0F901F90189533
:1036200090E0FC01EE5AFC4F3491FC01E65BFD4F4B
:103630002491FC01EA5CFD4FE491EE2309F43BC0C8
:10364000332339F1333091F038F43130A9F032308E
:1036500001F584B58F7D12C0373091F03830A1F07C
:103660003430B9F4809180008F7D03C08091800058
:103670008F77809380000DC084B58F7784BD09C09B
:103680008091B0008F7703C08091B0008F7D8093D0
:10369000B000F0E0EE0FFF1FE85EFD4FA591B49182
:1036A0008FB7F894EC91611103C020952E2301C0CF
:1036B0002E2B2C938FBF08959FB7F894409102044E
:1036C00050910304609104047091050486B5A89B91
:1036D00006C08F3F21F04F5F5F4F6F4F7F4F9FBFFF
:1036E000762F652F542F44279A01AB01280F311DE7
:1036F000411D511DA5E0B0E00E94023208952FB790
:10370000F8946091FE037091FF0380910004909102
:1037100001042FBF08951F920F920FB60F9211242C
:103720002F933F938F939F93AF93BF938091FE030B
:103730009091FF03A0910004B09101043091FD032A
:103740002DE2230F2D3720F40196A11DB11D05C0D8
:1037500020EB230F0296A11DB11D2093FD03809342
:10376000FE039093FF03A0930004B09301048091A3
:10377000020490910304A0910404B0910504019601
:10378000A11DB11D8093020490930304A09304042F
:10379000B0930504BF91AF919F918F913F912F916D
:1037A0000F900FBE0F901F9018951F920F920FB69B
:1037B0000F9211242F933F934F935F936F937F93B7
:1037C0008F939F93AF93BF93EF93FF93E0911C016F
:1037D000F0911D010995FF91EF91BF91AF919F91DC
:1037E0008F917F916F915F914F913F912F910F90AA
:1037F0000FBE0F901F9018951F920F920FB60F9249
:1038000011242F933F934F935F936F937F938F93E5
:103810009F93AF93BF93EF93FF93E0911A01F091C1
:103820001B010995FF91EF91BF91AF919F918F91EE
:103830007F916F915F914F913F912F910F900FBEAC
:103840000F901F9018951F920F920FB60F92112490
:103850002F933F934F935F936F937F938F939F9398
:10386000AF93BF93EF93FF93E091BB03F091BC0341
:10387000309709F451C0968DA685B785858591FF4F
:1038800004C09C91892329F447C09C91892309F0A5
:1038900043C0A389B4899C918589809589238C93A1
:1038A000868997890197F1F7608D718DA685B78517
:1038B000558538E020E0CB010197F1F7822F90E0A9
:1038C00095958795282F4C91452309F02068315014
:1038D00091F7868D81FD20958091B90390E0019646
:1038E0008F7399273091BA03381749F0A091B90323
:1038F000B0E0A354BC4F2C938093B90303C0868DD2
:103900008160868F828D938D0197F1F7A389B489A9
:103910009C918589892B8C93FF91EF91BF91AF91F9
:103920009F918F917F916F915F914F913F912F91D7
:103930000F900FBE0F901F901895E091BB03F09170
:10394000BC03E817F90769F4A389B4899C918589B8
:10395000809589238C931092BC031092BB0381E065
:10396000089580E008951F920F920FB60F921124D0
:103970008F930FB6F894A89580916000886180932A
:103980006000109260000FBE8F910F900FBE0F90DD
:103990001F9018954115510529F4EAE7F0E0808160
:1039A0008F7780836A307105A9F063FD02C088E0DB
:1039B00001C088E26770682B88E10FB6F894A8957B
:1039C000809360000FBE60936000E0E6F0E08081CD
:1039D00080648083232BA1F483B7817F846083BFBD
:1039E000F89483B7816083BF85B7806685BF8F7D7C
:1039F00085BF7894889583B78E7F83BF78940EC0F7
:103A000083B7817F846083BFF89483B7816083BF6D
:103A10007894889583B78E7F83BF7894452B29F45B
:103A2000EAE7F0E080818068808308950C94D531C6
:103A30000C94CD3108958091D201811106C08091FE
:103A4000C401893058F05F9B09C05F988091C40120
:103A5000811106C081E08093C40108955F9AF6CF7A
:103A6000089580E490E00E94EC125F985E9880E4F4
:103A700090E00E94EC125F9A8091AA0181115E9AF7
:103A800080E490E00C94EC128F738D33C0F02091A1
:103A9000B2033091B3038D3329F08E3331F088E0D7
:103AA00090E005C082E090E002C084E090E0829F58
:103AB000B001839F700D929F700D112413C0682F69
:103AC00070E080E090E00E94B03026E636E646EEF8
:103AD00050E40E940F310E942C336E30710510F4B7
:103AE0006EE070E0CB01089580910301811104C064
:103AF0008091D301811101C05F9A0895CF93C82F9F
:103B0000662379F0CC2369F05F9A80E290E00E940E
:103B1000EC125F98C15029F080E490E00E94EC1212
:103B2000F1CFCF910895CF93DF93FC016491EC0125
:103B30002196662331F08FEF91E00E94191ACE0191
:103B4000F4CFDF91CF910895982F9370913019F4AD
:103B50009093030104C0923011F41092030182FF8C
:103B600005C01092D3019AB1906C9AB983FF06C038
:103B700081E08093D3018AB18F738AB90895CF937E
:103B8000DF93EC01662321F08FEF91E00E94301863
:103B9000209749F020E030E040E050E0BE0188EAA4
:103BA00091E00E94CA1CCE010E945E16282F8091CF
:103BB000C20130E0280F311D2093C201283718F4CC
:103BC000CD2B09F07BC082EC91E0289FA001299FBA
:103BD000500D11248091070490910804840F951FC3
:103BE0006091B2037091B3030E94813390930804F3
:103BF00080930704809114019B01280F311DC90196
:103C0000ECE3F0E0BF010E948133809314018091C6
:103C100015019B01280F311DC901BF010E9481338D
:103C20008093150180911601680F683118F4609334
:103C3000160108C0685160931601809102018F5FE0
:103C4000809302012091170130911801C9018370FE
:103C50009927892B81F4C90164E670E00E949533AD
:103C6000892B39F4C90160E971E00E949533892BF1
:103C700011F48DE101C08CE190911901923029F08D
:103C8000993011F48EE101C08FE140910201841757
:103C900030F481E0809302019F5F9093190180913D
:103CA00019018D3048F081E0809319012F5F3F4F5B
:103CB00030931801209317011092C201DF91CF9128
:103CC00008950F931F93CF93DF93D0910604D111E2
:103CD00002C0D1E06DC19091C402911102C044E0D4
:103CE00001C047E0182F60E08091B7020E942210C7
:103CF0008111A2C00E940E10082F08708091C4028A
:103D00008823E9F10E940E10C82F0E940E102C2F5C
:103D100030E0322F2227280F311D46E035952795B8
:103D20004A95E1F73093BB022093BA020E940E102D
:103D3000C82F0E940E102C2F30E0322F2227280F80
:103D4000311D66E0359527956A95E1F73093BD0200
:103D50002093BC020E940E10C82F0E940E102C2F20
:103D600030E0322F2227280F311DE6E035952795C8
:103D7000EA95E1F73093BF022093BE021BC00E9478
:103D80000E10082E000C990B9093BB028093BA0280
:103D90000E940E10082E000C990B9093BD02809388
:103DA000BC020E940E10082E000C990B9093BF02CB
:103DB0008093BE02002309F43FC08091BA02909123
:103DC000BB026091070170E020910E0430910F0456
:103DD000FC01E21BF30BF7FF03C0F195E195F1093C
:103DE0004091BC025091BD022091BE023091BF02B1
:103DF0006E177F0730F1E0910C04F0910D04DA01A9
:103E0000AE1BBF0BFD01B7FF03C0F195E195F109B2
:103E10006E177F07B0F0E0910A04F0910B04D9010E
:103E2000AE1BBF0BFD01B7FF03C0F195E195F10992
:103E30006E177F0730F003C011110E942B15D0E0E0
:103E4000B7C090930F0480930E0450930D044093D9
:103E50000C0430930B0420930A04BC01695D7F4F6E
:103E60006F34710500F5CA0187968F34910540F4CF
:103E7000213A3105BCF52036BFEF3B07ACF10AC053
:103E800040366FEF560734F4295D3F4F2F3431052C
:103E900068F124C0413A51050CF1295D3F4F2F34A0
:103EA000310530F11BC0813A91055CF0495D5F4FEF
:103EB0004F34510598F4295D3F4F2F343105D0F030
:103EC0000DC080369F4F54F4495D5F4F4F3451050C
:103ED00028F4295D3F4F2F34310570F0109209040A
:103EE000C6E00BC0C0E009C0C1E007C0C2E005C029
:103EF000C3E003C0C4E001C0C5E0809109048111A2
:103F000008C08091A30181111DC0C230D9F481E0A5
:103F100014C0813039F48091A301823099F4C33008
:103F200089F40BC0823071F48091A301833051F485
:103F3000C23019F0C11106C084E0809309040E94C8
:103F4000311D02C010920904C093A301809109049D
:103F5000833079F40E94201761E084E10E947E1D85
:103F600018B817B81BB81AB815B882E084B91092FF
:103F7000090480910904843009F0ABCE8091AA0134
:103F8000882319F01092AA0103C088E78093AA0140
:103F90008091AA01882331F08091A901811102C08A
:103FA0000E94E01661E088E00E947E1D10920904E4
:103FB0008D2FDF91CF911F910F910895AF92BF92F6
:103FC000CF92DF92EF92FF920F931F93CF93DF93E5
:103FD000CDB7DEB72B970FB6F894DEBF0FBECDBFBF
:103FE000E090D101FF24FA94FE0CF092D10181E01F
:103FF000809311048F2D69E50E9475338BE0989FA3
:1040000080011124FE0131966F015801F8E3AF0ED3
:10401000B11C035D1F4FC8010E94CD31F601819391
:104020006F010F5F1F4F0A151B05A9F789819A8140
:10403000AB81BC818093AB019093AC01A093AD01A7
:10404000B093AE018D819E81AF81B8858093AF0121
:104050009093B001A093B101B093B201898590E033
:104060009093BD018093BC016A857B85CB019F71D4
:10407000009711F481E090E09093C0018093BF011C
:104080009091020180911304891739F080911204F4
:104090008F5F809312049093130420911501F4E034
:1040A0002F9F9001112480911601A901582B809116
:1040B0001401282F30E084E0359527958A95E1F7A3
:1040C000242B352B4091120450E0672F77276295FF
:1040D00066956770461B570B59F060EF77E1469F76
:1040E000C001479F900D569F900D1124280F391F36
:1040F0004091D0018F2D90E0841B910997FD09C05C
:104100008091BF019091C001281B390B21373741A5
:1041100030F01092C0011092BF01109211048091F2
:1041200010048823A9F0F41651F08091BF019091FA
:10413000C001892B29F580911104811121C01092B1
:10414000D0011092D101109213041092110406C0F4
:104150001092BD011092BC01E092D1012B960FB6D6
:10416000F894DEBF0FBECDBFDF91CF911F910F91AD
:10417000FF90EF90DF90CF90BF90AF900C944A15D6
:104180002B960FB6F894DEBF0FBECDBFDF91CF9157
:104190001F910F91FF90EF90DF90CF90BF90AF9065
:1041A0000895CF92DF92EF92FF920F931F93CF93D8
:1041B000DF93CDB7DEB72C970FB6F894DEBF0FBEF6
:1041C000CDBF8091130490910201811104C010921F
:1041D00012049093130480911304891749F080917D
:1041E0001204873018F48F5F8093120490931304A5
:1041F0008091AB019091AC01A091AD01B091AE0165
:1042000089839A83AB83BC838091AF019091B00185
:10421000A091B101B091B2018D839E83AF83B88725
:104220008091BC018987809116012091120430E0B1
:10423000322F22273295330F307E382B8091150193
:1042400044E0849FC0011124822B932B2091140100
:1042500030E044E0359527954A95E1F7822B932B82
:104260009B878A878091D10169E50E9475338BE035
:10427000989F9001112479019DE2E90EF11CFE0145
:1042800031966F018901085C1F4FF60161916F0142
:10429000C7016C870E94CD316C85681719F0C70182
:1042A0000E94D531FFEFEF1AFF0AE016F10669F719
:1042B0002091D1012A3568F0822F90E04091D00101
:1042C00050E089559109841795070CF4CA01809331
:1042D000D0012F5F2093D10182E0809311042C96AE
:1042E0000FB6F894DEBF0FBECDBFDF91CF911F9107
:1042F0000F91FF90EF90DF90CF900895CF93DF93D1
:10430000CDB7DEB763970FB6F894DEBF0FBECDBF53
:10431000789484B5826084BD84B5816084BD85B5A0
:10432000826085BD85B5816085BD80916E008160AC
:1043300080936E0010928100809181008260809352
:104340008100809181008160809381008091800054
:104350008160809380008091B10084608093B1007F
:104360008091B00081608093B00080917A00846079
:1043700080937A0080917A00826080937A008091A5
:104380007A008E7F80937A0080917A008068809393
:104390007A001092C10080E890E00E94EC128CE15B
:1043A0008BB980EC8AB98AE385B987E084B984E067
:1043B00088B987B98091030181110BC08091D20126
:1043C000811107C08091D401843618F081E0809378
:1043D00003016091030181E00E947E1D4B9904C09E
:1043E00080E890E00E94EC12E0910F02F091100240
:1043F00082E08083E0910B02F0910C021082E09148
:104400000D02F0910E028BE9808310921702E09169
:104410001302F091140286E08083E0911102F09182
:104420001202808180618083E0911102F09112027A
:10443000808188608083E0911102F0911202808176
:1044400080688083E0911102F091120280818F7D5B
:1044500080838FEF91E00E94991A8DEF90E00E9487
:10446000931D83EE90E00E94931D80E090E00E94F7
:10447000181D8093A701813238F01092A70160E0E7
:1044800080E090E00E94161D89E790E00E94931D55
:104490008091A7010E9456158FEF91E00E94991A12
:1044A0008091D201811126C083E790E00E94931D84
:1044B000C12CD12C01E010E0C8010E94181D80938E
:1044C000A6018F3F39F460E0C8010E94161D1092CA
:1044D000A60102C0C80ED11C8091A6010E945615EB
:1044E00082E891E00E94931D0F5F1F4F003211057B
:1044F00019F702C0C12CD12C8DE690E00E94931DCB
:1045000089E290E00E94181D90E0BC0161507F4F4D
:104510007093B3036093B203CD97823C910530F45E
:104520006F5F89E290E00E94161D06C08BE991E062
:104530009093B3038093B2034091B2035091B303BD
:1045400060E070E02AE08FEF91E00E94501A8FEF58
:1045500091E00E94991A88E690E00E94931D8BE2F8
:1045600090E00E94181D182F8093D0018CE290E0FB
:104570000E94181D8093D101811B181624F491E02C
:104580009093110404C01092D0011092D101082E12
:10459000000C990B0E945F158FEF91E00E94991A11
:1045A0008091A70190E00E94181D8093A601609160
:1045B000030182E00E947E1D80E290E00E94181DAF
:1045C000182F81E290E00E94181D282F30E0322F32
:1045D0002227C901810F911D90930C0180930B013B
:1045E0008FE790E00E94931D40910B0150910C01C8
:1045F00060E070E02AE08FEF91E00E94501A84E8BA
:1046000093E090930C0180930B010E9411138DEDA8
:1046100090E00E94931D8091D4010E9456158AED6E
:1046200090E00E94931D4091D5015091D60160E029
:1046300070E02AE08FEF91E00E94501A8FEF91E036
:104640000E94991A80E890E00E94EC120E94E01605
:10465000882341F084E08093A9016091030181E007
:104660000E947E1D8AE890E00E94931D449A459A1C
:104670008091B9008E7F8093B9008091B9008D7FC1
:104680008093B90084E38093B80084E48093BC00F5
:104690008AE090E09093DC018093DB0181E08093DD
:1046A000C40282E08093B90241E06DE08091B702DC
:1046B0000E9422100E940E10182F60E48BE20E94CC
:1046C00025150E945C1B2B013C010AE0802E912CD9
:1046D000A12CB12C0E945C1BDC01CB018419950933
:1046E000A609B709883E9340A105B10558F021E01D
:1046F000821A9108A108B10838EE430E33E0531E28
:10470000611C711C81149104A104B10419F70E9469
:104710003D158091B902843021F0883021F462E0A7
:1047200003C061E001C060E08EE00E9425150E9498
:104730002B151F7E1A3409F000C285E991E00E9412
:10474000931D11E08FEF91E00E94991A10930604D7
:10475000112371F080E092E00E94EC1280E00E9450
:10476000611E882329F06091030182E00E947E1D72
:1047700083ED90E00E94931D41E060ED80919C02EA
:104780000E942210811129C00E940E10883511F05C
:10479000803619F548E168E880919C020E94221059
:1047A00081111BC00FE912E00E940E10D8018D93F9
:1047B0008D01B2E0073B1B07B9F740EE65EF809132
:1047C0009C020E94EC14811108C047E264EF8091C2
:1047D0009C020E94EC1491E0811190E09093DA0128
:1047E0009923D1F180E092E00E94EC120E94A31084
:1047F00060910F0170911001072E000C880B990B2E
:104800000E94B03020E030E048EC52E40E94B33225
:1048100042E00E940E1489E990E00E94931D60918D
:104820000D0170910E0180E090E00E94AE3020E01A
:1048300030E040E251E40E94B33241E00E940E14A5
:1048400085E990E00E94931D0E94FF18609103018A
:1048500083E00E947E1D08C08CEA91E00E94931DB7
:104860008FEF91E00E94991A88EB90E00E94931DCF
:1048700081E991E00E94931D86E290E00E94181D5C
:104880008093BE01823019F082E08093BE01809156
:10489000BE010E94561582E891E00E94931DE091AE
:1048A000BE01F0E0E05EFE4F8081811104C08EE920
:1048B00091E00E94931D0E947F1B69877A878B87F6
:1048C0009C8786EB90E00E94931DBB24B3941AE86A
:1048D000212E13E0312EFE0131967F010E947F1BB5
:1048E00049855A85641B750B6031774208F006C113
:1048F0001092A5031092A4031092A3031092A20396
:104900001092A1031092A00325E331E03093A70396
:104910002093A60320919603263108F05DC049E854
:1049200050E05093A1034093A00383E391E0909360
:10493000A3038093A203AEEDB0E0B093A503A093D0
:10494000A40380916800283058F091E02E3008F4DC
:1049500090E0BB2D01C0BB0F9A95EAF79B2F01C0D9
:1049600094E0892B80936800283038F02E3040F096
:10497000263148F080E090E008C08DE690E005C068
:104980008BE690E002C08CE690E090939E038093CB
:104990009D03283030F48B2D01C0880F2A95EAF74B
:1049A00013C0822F90E02E3040F40897EB2D01C009
:1049B000EE0F8A95EAF78E2F07C00E97FB2D01C0E8
:1049C000FF0F8A95EAF78F2F80939F038091A603AC
:1049D0009091A7030197F1F78091A4039091A5030B
:1049E000892B11F18091BB039091BC0323E08A389D
:1049F0009207D1F0009711F00E949D1C8091A803AE
:104A00008E7F8093A8031092B9031092BA0330925C
:104A1000BC032092BB03E0919D03F0919E03908123
:104A200080919F03892B808319821A821B821C82AA
:104A30001D8260E08AE893E00E946C186BE38AE8CC
:104A400093E00E946C180E947F1B2B013C014701E0
:104A500000E010E00E947F1BDC01CB018419950966
:104A6000A609B709C297A105B105B8F48AE893E091
:104A70000E94C018181619066CF78AE893E00E9485
:104A8000D8180430110519F40FEF1FEF0DC0D40131
:104A90008D934D010F5F1F4FDDCF66E571E0C701BC
:104AA0000E94E233892B81F70330110509F560E09C
:104AB0008AE893E00E946C1884EA90E00E94201A31
:104AC00088E0F70111928A95E9F78AE893E00E945D
:104AD000C018892BD1F3B12C8AE893E00E945318B7
:104AE0000B2D10E0CB9779F5F5E0FB1560F53BC099
:104AF00061E087E090E00E94BF1DF0CE8CEA91E07B
:104B00000E94931D8FEF91E00E94991A61E086E068
:104B100090E00E94BF1D29982A985F981092A901E1
:104B20005E9A60E082E090E00E94BF1D5E9860E0C7
:104B300087E090E00E94BF1DF3CF8CEA91E00E94D5
:104B4000931D10E0FFCD8AE893E00E94D818F7018A
:104B5000E00FF11F80838AE893E00E94C018892B40
:104B6000D1F3B394B9CF8AE893E00E94D81820E03B
:104B700040E050E0BA0102501109822F90E0801706
:104B8000910774F4762F652F542F4427F701E80F0F
:104B9000F91F8081480F511D611D711D2F5FEDCFE1
:104BA00020E18FEF91E00E94501A8FEF91E00E9478
:104BB000991A80EB90E00E94201A8AEA90E00E9405
:104BC000201A8091BE010E94D91561E088E090E032
:104BD0000E94BF1D80E092E00E94EC1260910301F0
:104BE00084E00E947E1D82E290E00E94181D182F32
:104BF00083E290E00E94181DA82E84E290E00E94BB
:104C0000181DB82E85E290E00E94181D082F2DE196
:104C1000A21202C090E006C06DE183E290E00E9423
:104C2000161D91E083E1B81631F063E184E290E073
:104C30000E94161D91E0073169F067E185E290E07E
:104C40000E94161D133059F063E082E290E00E944A
:104C5000161D05C01330C1F7992309F44DC081EC2E
:104C600090E00E94931D5E9A29982A988BB18B7EC2
:104C70008BB961E089E090E00E94BF1D8BB1846137
:104C80008BB9299A2A9A5E988CE59FE8A2E5B0E450
:104C90008093AB019093AC01A093AD01B093AE01B2
:104CA0008AE097EDA9E9B1E48093AF019093B00158
:104CB000A093B101B093B201D092C001C092BF01E4
:104CC00083E08093BB018091D5019091D60166E18C
:104CD00070E00E94813377277093BD016093BC011F
:104CE000CD2821F060E083E00E94E3011092D00122
:104CF0001092D1010E944A1588EC90E00E94931D09
:104D00008091140490911504009711F488E194E0C7
:104D1000D701A81BB90BCD010E945F158FEF91E061
:104D20000E94991A429A2BE13DE130931D01209394
:104D30001C0180916900837F886080936900E99AF3
:104D40001092C4011092C30130931D0120931C01E5
:104D500080916900837F886080936900E99A10924E
:104D6000C4011092C301E89882E598E190931B0179
:104D700080931A012A9B03C084E08093A901A4E6D2
:104D80004A2E512C612C712C8091060191E0980FD4
:104D900090930601877029F580910301811104C069
:104DA0008091D301811101C05E9A8091030181112C
:104DB00004C08091D301811105C061E082E090E0E0
:104DC0000E94BF1D80E00E94611E5E988091C50117
:104DD0009091C601009729F001979093C6018093A6
:104DE000C5018091C401882381F080910601882348
:104DF00061F08091C401803140F480E290E00E9433
:104E0000EC124B9B79C71092C40180910101813053
:104E100029F08091D2018111CCC6BBC68091A90135
:104E2000811102C00E94E0168091D301882319F0FD
:104E300088E00E94A41D0E947F1B4B015C0170EA68
:104E4000E72E7FE0F72E19861A861B861C86312CEA
:104E5000212CE8E0DE2E01E0F7E0CF2E0E947F1B40
:104E6000681979096E157F0508F032C48FEF91E05B
:104E70000E94BC17181619068CF729853A854B85B0
:104E80005C85232B242B252B31F40E947F1B698703
:104E90007A878B879C870E947F1B4B015C018091E6
:104EA0000301882379F08091A901843040F080913A
:104EB000B403811104C08091D901823010F45F9A4B
:104EC00001C05E9A66E0362E8FEF91E00E94BC171B
:104ED000892B09F4F7C38FEF91E00E949A17182FDE
:104EE000843209F4CEC3E0913503853234F48A303C
:104EF00071F08D3009F0D2C30AC08A3241F08C3291
:104F000009F0CCC380912203812780932203EF30E4
:104F100008F0A3C3F0E0EC5DFC4F10828091230306
:104F2000882309F428C1209124033FEB320F822FFC
:104F3000022E000C990B363010F4C79707C021568B
:104F4000263018F48755910901C0C097282F229563
:104F5000207F309125034FEB430F832F032E000C4E
:104F6000990B463010F4C79707C03156363018F405
:104F70008755910901C0C097820F90912203891330
:104F80006CC380913303813001F54091D902509177
:104F9000DA026091DB027091DC024093D5025093FB
:104FA000D6026093D7027093D8024091E1025091EB
:104FB000E2026091E3027091E4024093DD025093BB
:104FC000DE026093DF027093E00290913603992332
:104FD00009F443C3409116035091170360911803DD
:104FE00070911903409312035093130360931403B9
:104FF0007093150340911E0350911F03609120038D
:105000007091210340931A0350931B0360931C0378
:1050100070931D03882309F45CC0813009F0A9C096
:105020008091D9029091DA02A091DB02B091DC026A
:105030008093D5029093D602A093D702B093D80262
:105040008091E1029091E202A091E302B091E4022A
:105050008093DD029093DE02A093DF02B093E00222
:105060008091E9029091EA02A091EB02B091EC02EA
:105070008093E5029093E602A093E702B093E802E2
:105080008091F1029091F202A091F302B091F402AA
:105090008093ED029093EE02A093EF02B093F002A2
:1050A0008091010390910203A0910303B091040346
:1050B0008093FD029093FE02A093FF02B093000341
:1050C0008091070390910803909306038093050352
:1050D00050C08091F9029091FA02A091FB02B09128
:1050E000FC028093F5029093F602A093F702B0932E
:1050F000F8028091D9029091DA02A091DB02B0917E
:10510000DC028093D5029093D602A093D702B0938D
:10511000D8028091E9029091EA02A091EB02B0914D
:10512000EC028093E5029093E602A093E702B0932D
:10513000E8028091F1029091F202A091F302B09105
:10514000F4028093ED029093EE02A093EF02B093ED
:10515000F00280910F039091100390930E038093BF
:105160000D0380910B0390910C0390930A0380939D
:10517000090381E073C2E0903403E11013C06AE5D3
:1051800071E084E293E00E940D1A892B09F4B6C500
:1051900060E671E084E293E00E940D1A892B09F425
:1051A000ADC5AFC520913303283009F456C2309104
:1051B0002403332309F451C2A0E22A9FC001112421
:1051C000F12C8E299F298838910509F4FCC108F03B
:1051D00072C08632910509F446C178F58730910591
:1051E00009F484C1A0F48330910509F416C140F498
:1051F0008130910509F4E0C0029709F4F9C02DC28D
:105200008530910509F42FC108F069C121C18232AE
:10521000910509F4E6C050F48930910509F477C18D
:1052200008F46EC1819709F4C7C017C28432910592
:1052300009F4F3C008F4DCC00BC18434910509F40F
:1052400007C1F0F48932910509F43CC170F487324A
:10525000910509F42CC1889709F0FFC10E94341907
:105260007093080360930703F8C18234910509F431
:10527000BFC008F0D2C08134910509F49DC0EDC1D2
:105280008238910509F44EC158F48634910509F429
:1052900005C108F4E8C08734910509F427C1DDC1D0
:1052A0008438910509F48FC108F47AC187389105D3
:1052B00009F492C1D2C1833B910509F48DC108F074
:1052C0003FC0833A910509F470C1D8F48F38910535
:1052D00009F482C148F48B38910509F47DC18C38FA
:1052E000910509F470C1B9C18339910509F474C1FC
:1052F000823A910509F416C18039910509F0ADC1D2
:1053000062C18B3A910509F467C168F4873A910547
:1053100009F462C1883A910509F455C1843A9105AE
:1053200009F09BC150C18F3A910509F455C1803BEA
:10533000910509F448C18C3A910509F08EC143C129
:105340008C3C910509F43FC1D8F4843C910509F4E3
:105350003AC148F4823C910509F4E4C0833C9105CC
:1053600009F423C17AC1883C910509F42CC18B3C16
:10537000910509F431C1873C910509F06EC12CC13A
:10538000813E9105B1F068F4803D910509F41BC19F
:10539000833D910509F420C18F3C910509F05DC161
:1053A0001BC1833E910529F020F0843E910509F050
:1053B00054C10093110351C10E9434196093D90262
:1053C0007093DA028093DB029093DC020E947F1BD1
:1053D0006093160370931703809318039093190337
:1053E0003CC11092110381E0313409F07BC07BC0D5
:1053F0000E948E196093E9027093EA028093EB0297
:105400009093EC020E947F1B60931E0370931F0316
:10541000809320039093210320C1333509F01DC1EF
:105420008091E9029091EA02A091EB02B091EC0226
:10543000B095A095909581959F4FAF4FBF4F8093AA
:10544000E9029093EA02A093EB02B093EC0205C14B
:105450000E948E196093F1027093F2028093F3021E
:105460009093F402FAC0373509F0F7C08091F10249
:105470009091F202A091F302B091F402B095A09540
:10548000909581959F4FAF4FBF4F8093F1029093BE
:10549000F202A093F302B093F402DFC045E050E0C3
:1054A00064E273E087E393E00E94EB33D6C00E948E
:1054B0003419609301037093020380930303909364
:1054C0000403CBC084E293E00E940A196093E102D6
:1054D0007093E2028093E3029093E402BEC081E005
:1054E00031330CF480E080933603B7C084E293E05C
:1054F0000E94833099279093100380930F03ADC0CF
:105500000E94341970930C0360930B03A6C00E9491
:1055100034196093F9027093FA028093FB0290931E
:10552000FC029BC084E293E02B8B0E94833081506D
:1055300080933E032B89882319F0253031F521C053
:10554000243059F410923C03EFE3F3E011921192EE
:10555000B3E0E735FB07D1F71AC0253049F4E7E59A
:10556000F3E01192119223E0EF36F207D1F709C070
:10557000EFE6F3E01192119233E0E738F307D1F749
:1055800004C0880F880F845F08C0263019F0880F88
:10559000880F03C0880F880F885E809389035DC0E1
:1055A00084E293E00E9483300BC080913E0381111E
:1055B00054C0F0903D0384E293E00E9483308F0D4D
:1055C00080933D034AC084E293E00E94833090932D
:1055D00088038093870341C084E293E00E94833074
:1055E000E0918903811117C08E2F90E09701275019
:1055F000310937FF02C02D5F3F4F3595279535950F
:105600002795280F391FF901EE0FFF1FE15CFC4FB2
:105610001182108222C02E2F30E0F7013797F7FD5C
:105620003396F595E795F595E795E20FF31FEE0FA5
:10563000FF1FE15CFC4F409187034A8B198A992731
:10564000880F991FA989BA898A0F9B1F918380832C
:1056500080913C038F5F80933C0380E09091340302
:105660009F5F909334031092350391E01A3209F052
:1056700090E090932303882309F426CC22242394DA
:1056800023CC109235031092340310922203D0924F
:105690003303109223031092360316CCEE3040F4FD
:1056A00081E08E0F80933503F0E0EC5DFC4F1083BA
:1056B00080912303811108CC809122031827109335
:1056C000220302CC332433946AE0E62EF12CC6CBBD
:1056D000311010C080910301882311F05F9A5E9A07
:1056E0000E94D21680E890E00E94EC120E94E01620
:1056F0005F985E982091DD023091DE024091DF02DA
:105700005091E0022D873E874F87588BC090D5027D
:10571000D090D602E090D702F090D802CA01B90129
:10572000A30192010E941532FB013197EF34F1057C
:1057300008F037C36053784F7093180160931701D6
:10574000CA01B901A30192010E94153260931901A7
:1057500050E1852E57E2952EA12CB12C6D857E85CA
:105760008F859889A50194010E941532209302012A
:10577000C701B60120E432E44FE050E00E94153248
:1057800020931601C701B601A50194010E941532AC
:10579000CA01B901A30192010E941532609315015B
:1057A000C701B601A30192010E941532CA01B901D5
:1057B000A30192010E941532609314018091A90106
:1057C000813019F482E08093A901109208041092AC
:1057D00007041092C20180910601863050F1809139
:1057E000B6038F3F31F190913D039093B5038091C3
:1057F0003C038093B6039430B0F09091A9019330AC
:1058000090F493E09093A901843098F085E0809320
:10581000A9018EE592E00E9494168FEF8093B50364
:105820008093B60306C0843020F08091A9018530B2
:1058300068F31091B403222009F459C18090E50265
:105840009090E602A090E702B090E8028091ED020D
:105850009091EE02A091EF02B091F0028D879E87A9
:10586000AF87B88B9FE0891697E29906A104B1042F
:1058700069F0C501B4010E94B03020E034E244E791
:1058800059E40E94B3326B017C0106C0C12CD12CBB
:105890004AE7E42E44E4F42EC092AB01D092AC016E
:1058A000E092AD01F092AE01AFE08A16A7E29A064F
:1058B000A104B10479F06D857E858F8598890E9459
:1058C000B03020E034E244E759E40E94B3324B01A7
:1058D0005C0106C0812C912C3AE7A32E34E4B32E50
:1058E0008092AF019092B001A092B101B092B2014A
:1058F00080910D0390910E038F3F910509F480E094
:105900008093A2016091F5027091F6028091F702F6
:105910009091F802161617061806190644F4A3010A
:1059200092010E94E3313093C0012093BF01609146
:10593000FD027091FE028091FF02909100030E948F
:10594000AE3021E437EB47E95CE30E940F310E945F
:105950002C337093BD016093BC01112339F0809109
:105960000601823D18F082ED809306011092B40387
:1059700080910401882319F0815080930401809163
:10598000D9018F3778F42091090330910A032F371A
:10599000310528F09091C7019D3F0CF008C28E5F41
:1059A0008093D90120E030E040E251E4C701B60124
:1059B0000E940F310E9425336B017C018B01C501D0
:1059C000B4010E942533FB01B4ECCB16B1E0DB0639
:1059D00021F46530710521F4F0C10D3811052CF06A
:1059E000EE3C2FEFF2070CF4E8C19B012B54310978
:1059F0002033310538F4960129513140233B3105DC
:105A000008F4D9C19B01235E3F4F2737310508F4C5
:105A1000D0C19601225A3F4F2632314020F4E5385A
:105A2000F1050CF0C6C1960129583F4F2F33314084
:105A300020F4E239F1050CF0BCC1A5EDCA1AAEEFB5
:105A4000DA0AB7ECCB16D10438F4AB0144575F4FF8
:105A50004D32514008F0ADC1EB35F10534F00C3258
:105A600031E013070CF4A7C11DC00531110534F056
:105A7000ED3B4FEFF4070CF49EC114C0093D5FEFFE
:105A8000150734F0EB3B8FEFF8070CF494C10AC014
:105A900004329FEF190734F4E73CAFEFFA070CF438
:105AA0008AC104C0023EBFEF1B07CCF4E73B2FEFD7
:105AB000F2070CF480C10E373FEF130734F4E13CDA
:105AC0004FEFF4070CF477C104C002395FEF1507FC
:105AD00034F4EB3B8FEFF8070CF46DC103C00436D0
