:100000000C9439010C94D8160C94B1160C94FF166C
:100010000C94FF160C94FF160C948F170C9461012E
:100020000C9461010C9461010C9461010C946101C8
:100030000C9461010C9461010C9461010C946101B8
:100040000C9467160C9461010C9419150C94F70824
:100050000C9461010C9461010C9461010C94610198
:100060000C9461010C9461010A5265706C61793ADB
:10007000005573652070657220646179733A004C95
:10008000617374206461793A0043616C2042617449
:10009000743A20004F4B004661696C00496E6974E8
:1000A000204D656D733A006D620D0A0027432050A4
:1000B000726573733A200054656D703A20005346A0
:1000C00049443B00415456300A00415445300A002F
:1000D0004661696C0D0A00536967466F783A2040A3
:1000E000004E6577206669726D776172652E20001B
:1000F000667265652052616D3A200054656D70200E
:100100006661696C0D0A0024504D544B3630352A17
:100110000025200020426174743A20000A0A4869D0
:10012000646E5365656B5F76335F3238410A4461B4
:100130007465204A756C20203520323031372031EB
:10014000383A34393A34330A002C322C31004154D5
:100150002453463D00202300000000002500280015
:100160002B0000000000240027002A0000000000EF
:1001700023002600290004040404040404040202E9
:100180000202020203030303030301020408102016
:1001900040800102040810200102040810202450AD
:1001A0004D544B3331342C302C312C302C312C30FD
:1001B0002C302C302C302C302C302C302C302C305F
:1001C0002C302C302C302C302C302C302A002000BD
:1001D000200020002041434B0A002C206D6F6465F5
:1001E0003D002C206261743D002C207370643D0042
:1001F0002C206361703D002C20616C743D002C202C
:100200006C6F6E3D00206C61743D002072706C79E3
:100210003D00206565703D006D73673D0024504DC5
:10022000544B3136312C302A004C6F7720426174A8
:100230003A200020636F64653D00727373693D006E
:1002400041636B6E6F776C6564676520726563658B
:1002500069766564206F6E200000000008000201CE
:1002600000000304070000000000000000006C25EF
:10027000D92611241FBECFEFD8E0DEBFCDBF11E0DD
:10028000A0E0B1E0E0E0FBE502C005900D92AE3BDE
:10029000B107D9F724E0AEEBB1E001C01D92A4355F
:1002A000B207E1F711E0C8E3D1E004C02197FE01F5
:1002B0000E944927C733D107C9F70E9473190C94CC
:1002C000732D0C940000CF92DF92EF92FF920F9368
:1002D0001F93CF93DF936C017A018B01C0E0D0E0D4
:1002E000CE15DF0589F0D8016D918D01D601ED9114
:1002F000FC910190F081E02DC6010995892B11F444
:100300007E0102C02196ECCFC701DF91CF911F91F2
:100310000F91FF90EF90DF90CF900895CF92DF92F2
:10032000EF92FF92CF93DF930E945B166B017C01EB
:1003300084E98093BC00C0910502D091060290919F
:10034000BC00892F807194FF18C02097C1F30E94D0
:100350005B16DC01CB018C199D09AE09BF09AE010A
:1003600060E070E084179507A607B70720F31092A6
:10037000BC0084E48093BC0081E0DF91CF91FF90CA
:10038000EF90DF90CF900895CF92DF92EF92FF929F
:10039000CF93DF938093BB000E945B166B017C01BF
:1003A00084E88093BC00C0910502D0910602809140
:1003B000BC0087FD19C02097D1F30E945B16DC01B9
:1003C000CB018C199D09AE09BF09AE0160E070E058
:1003D00084179507A607B70730F31092BC0084E492
:1003E0008093BC0081E019C08091B900887F883279
:1003F00099F08091B900C82FC87F8091B900887F9B
:10040000803319F40E948E0105C01092BC0084E470
:100410008093BC008C2F01C080E0DF91CF91FF90D2
:10042000EF90DF90CF900895CF92DF92EF92FF92FE
:10043000CF93DF938093BB000E945B166B017C011E
:1004400084E88093BC00C0910502D091060280919F
:10045000BC0087FD19C02097D1F30E945B16DC0118
:10046000CB018C199D09AE09BF09AE0160E070E0B7
:1004700084179507A607B70730F31092BC0084E4F1
:100480008093BC0081E023C08091B900887F8831CF
:1004900029F08091B900887F803411F480E017C082
:1004A0008091B900C82FC87F8091B900887F8032C1
:1004B00029F08091B900887F883419F40E948E0158
:1004C00005C01092BC0084E48093BC008C2FDF91A7
:1004D000CF91FF90EF90DF90CF900895CF92DF9271
:1004E000EF92FF92CF93DF930E945B166B017C012A
:1004F00084EA8093BC00C0910502D09106028091ED
:10050000BC0087FD19C02097D1F30E945B16DC0167
:10051000CB018C199D09AE09BF09AE0160E070E006
:1005200084179507A607B70730F31092BC0084E440
:100530008093BC0081E01CC08091B900887F883026
:1005400029F08091B900887F803111F480E010C0DB
:100550008091B900887F883341F48091B90010926E
:10056000BC0094E49093BC0002C08091B900887FE5
:10057000DF91CF91FF90EF90DF90CF9008951F9380
:10058000CF93DF93182FD62FC42F1092E3010E9430
:100590006E028093E301811127C0812F880F0E9492
:1005A00014028093E301882321F08130E9F482E092
:1005B0001BC08D2F0E94C4018093E301882321F08A
:1005C000813091F483E010C08C2F0E94C40180938D
:1005D000E3018111F5CF0E948E018093E30188230E
:1005E00019F0813009F487E0DF91CF911F910895D0
:1005F000CF92DF92EF92FF92CF93DF93C82F0E94AA
:100600005B166B017C01CC2311F084EC01C084E803
:100610008093BC00C0910502D09106028091BC007D
:1006200087FD19C02097D1F30E945B16DC01CB0136
:100630008C199D09AE09BF09AE0160E070E0841716
:100640009507A607B70730F31092BC0084E48093A7
:10065000BC0081E010C08091B900887F883341F4EC
:100660008091B9001092BC0094E49093BC0002C049
:100670008091B900887FDF91CF91FF90EF90DF905C
:10068000CF9008950E94BB28462F682F8091BC020E
:100690000C94BF028091DA03E091DB03E81BE09346
:1006A000D903811103C01092D9030895815080931A
:1006B000DA03F0E0ED51FE4F828108950F931F930E
:1006C000CF93DF93C82F162FD42F1092DA031092F6
:1006D000D903411101C0D1E08FEF8D0F8093E40168
:1006E0001092E3010E946E028093E301811162C0C7
:1006F000CC0F8C2F0E9414028093E301882329F0F1
:10070000813009F057C082E055C0812F0E94C4019A
:100710008093E301882329F0813009F04BC083E006
:1007200049C00E946E028093E301882329F0813042
:1007300009F040C084E03EC081E08C0F0E941402AA
:100740008093E301811104C005EE11E0C0E019C0FF
:10075000813081F585E02EC080E00E94F802809310
:10076000E3018130C9F0883529F58091BB00F8019B
:1007700081938F01CF5FC093DA03C093DB03CD1762
:1007800081F08091E401C81739F381E00E94F802FA
:100790008093E301813011F486E00CC0803529F3A9
:1007A00009C00E948E018093E301882319F08130F3
:1007B00009F487E0DF91CF911F910F91089541E0F7
:1007C000682F8091BC020E945E030C944A034F92F2
:1007D0005F926F927F928F929F92AF92BF92CF92D1
:1007E000DF92EF92FF920F931F93CF93DF93CDB7DA
:1007F000DEB728970FB6F894DEBF0FBECDBF4EE22E
:1008000064EF87E70E94BF02811198C165E070E044
:1008100080E090E00E94211642E066EF87E70E94A8
:100820005E0381118BC10E944A03C12CD12C760139
:10083000D82E0E944A03C82E8091B0029091B10236
:10084000A7019601281B390B41095109A091AE025D
:10085000B091AF020E94F82C6B017C01FFE0F5948F
:10086000E794D794C794FA95D1F76091B802709144
:10087000B902CB01770FAA0BBB0BBC01CD01ABE0DA
:10088000660F771F881F991FAA95D1F72091BA028A
:100890003091BB028901330F220B330BA901980160
:1008A0002C0D3D1D4E1D5F1D0E94D92CC20ED31E66
:1008B000E41EF51ED701C6010896A11DB11D14E066
:1008C000B595A795979587951A95D1F79093A50219
:1008D0008093A40244E764EF87E70E94BF0281117E
:1008E0002DC168E070E080E090E00E94211643E0B6
:1008F00066EF87E70E945E03811120C10E944A03D0
:10090000412C512C3201682E0E944A03582E0E941D
:100910004A03482E20EAC21A2FE0D20AE108F10861
:10092000A7019601C701B6010E94E3269B01AC0115
:10093000FCE05595479537952795FA95D1F729838A
:100940003A834B835C830091A6021091A702A09189
:10095000AA02B091AB02A70196010E94032D4B01A0
:100960005C01ADE0B594A79497948794AA95D1F7CC
:10097000A091B202B091B30229813A814B815C818E
:100980000E94032DBB2797FDB095AB2F880D991DB5
:10099000AA1DBB1D0296A11DB11D22E0B595A7950C
:1009A000979587952A95D1F79C01AD0130584F4F07
:1009B0005F4FA091AC02B091AD020E94F82C4B01A8
:1009C0005C013FE0B694A794979487943A95D1F749
:1009D000D301C20147E0B595A795979587954A95AC
:1009E000D1F78D839E83AF83B8872801110F6608E6
:1009F000770852E0440C551C661C771C5A95D1F7B9
:100A0000A091B402B091B50229813A814B815C81F9
:100A10000E94032D9B01AC016BE0559547953795DE
:100A200027956A95D1F729833A834B835C83A091FC
:100A3000A802B091A902A70196010E94032DDC0132
:100A4000CB017BE0B595A795979587957A95D1F7DA
:100A500029813A814B815C81820F931FA41FB51FAE
:100A6000840D951DA61DB71D880F991FAA1FBB1FBA
:100A7000BC01CD016E5F7F4F8F4F9F4F24E030E070
:100A800040E050E00E94D92C8D819E81AF81B885D5
:100A9000821B930BA40BB50B9C01AD01A8EAB1E638
:100AA0000E94F82C97FD0BC0660F771F881F991FB7
:100AB000A50194010E94422D69017A010AC0A50195
:100AC00094010E94422D69017A01CC0CDD1CEE1CC0
:100AD000FF1C9927F7FC9A958F2D7E2D6D2D9B017C
:100AE000AC010E94E3269B01AC01AEEDBBE00E948D
:100AF000F82C4C01BB2497FCB094AB2CA3E4B3EED0
:100B0000A70196010E94062DBB2797FDB095AB2F3C
:100B1000880D991DAA1DBB1D8153914FAF4FBF4F2B
:100B200044E0B595A795979587954A95D1F7BC016F
:100B3000CD016C0D7D1D8E1D9F1D09C084E595EFB7
:100B40009093A5028093A40260E070E0CB012AE0BC
:100B500030E040E050E00E94D92C3093D90120933E
:100B6000D8018091D7039091D8038217930760F042
:100B70008091E2018B3540F48091E101882341F0BE
:100B80008091E001811104C03093D8032093D703F2
:100B9000205C3E4F8091D7039091D8038217930732
:100BA00020F081E09091DF01911180E08093DE01DF
:100BB0006091A4027091A502072E000C880B990B7E
:100BC0000E94A62B20E030E040E251E40E94BC27C6
:100BD0006093DA017093DB018093DC019093DD0177
:100BE00081E028960FB6F894DEBF0FBECDBFDF912F
:100BF000CF911F910F91FF90EF90DF90CF90BF901A
:100C0000AF909F908F907F906F905F904F900895DE
:100C10000F931F93CF93DF93EC0160E070E0CB0163
:100C2000E99120ED2E0F2A30C0F4AAE0B0E09B013C
:100C3000AC010E94F82C0E2FEE0F110B220B330B80
:100C4000DC01CB01800F911FA21FB31FBC01CD019E
:100C50006053710981099109E3CFDF91CF911F9111
:100C60000F9108950F931F93CF93C1E080913003AC
:100C70008D3221F0C0E000E313E002C001E313E095
:100C8000C8010E9408069B01AC01A4E6B0E00E94E6
:100C9000F82CF801DF01219130ED320F3A30D0F31A
:100CA0002E3269F511962C91119730ED320F3A30B2
:100CB00030F5022E000C330B205331094AE0429FDD
:100CC0008001439F100D1124012E000C220B330BC9
:100CD000600F711F821F931F12960C9120ED200F41
:100CE0002A3068F4002E000C110B00531109012E5C
:100CF000000C220B330B600F711F821F931FCC233C
:100D000039F090958095709561957F4F8F4F9F4FEB
:100D1000CF911F910F9108954F925F926F927F92A2
:100D20008F929F92AF92BF92CF92DF92EF92FF92FB
:100D3000CF93DF9380E393E00E9408062B013C01F0
:100D400024E630E040E050E00E94422D9B01AC01DF
:100D500060EA76E881E090E00E94E3266B017C0186
:100D6000E0E3F3E0819190ED980F9A30D8F38E3262
:100D700019F5EF0180E1882E87E2982EA12CB12C85
:100D8000A99180ED8A0F8A30B8F40A2E000CBB0BB3
:100D9000D097A50194010E94032DC60ED71EE81E10
:100DA000F91EC501B4012AE030E040E050E00E94A5
:100DB000422D49015A01E4CFC701B6016D5F7F4F53
:100DC0008F4F9F4F26E030E040E050E00E94422DE0
:100DD00069017A01C301B20124E630E040E050E04D
:100DE0000E94422D60E472E48FE090E00E94E326CE
:100DF0006C0D7D1D8E1D9F1DDF91CF91FF90EF909B
:100E0000DF90CF90BF90AF909F908F907F906F902A
:100E10005F904F900895DC01FB019D91992319F09B
:100E200081919817D1F3892F990F990B0895DC01BF
:100E3000ED91FC910190F081E02D0994CF93DF9327
:100E4000FC016491EC012196662331F08CEA93E079
:100E50000E941707CE01F4CF8491803244F460E2FF
:100E600070E080E090E0DF91CF910C942116DF914B
:100E7000CF9108956115710579F0FB010190002073
:100E8000E9F73197AF01461B570BDC01ED91FC915F
:100E90000280F381E02D099480E090E008958F9224
:100EA0009F92AF92BF920F931F93CF93DF93CDB7D3
:100EB000DEB7A1970FB6F894DEBF0FBECDBF19A263
:100EC000423008F44AE08E010F5D1F4F842E912CB2
:100ED000A12CB12CA50194010E94422DE62FB9014D
:100EE000CA0101501109EA3014F4E05D01C0E95C67
:100EF000D801EC93232B242B252B61F7B80187E035
:100F000092E00E943A07A1960FB6F894DEBF0FBE9A
:100F1000CDBFDF91CF911F910F91BF90AF909F9068
:100F20008F9008954F925F926F927F928F929F92CF
:100F3000AF92BF92CF92DF92EF92FF926B017C0152
:100F4000B42E9B01AC010E948D28882319F065E71F
:100F500071E027C026013701E89477F82FEF3FEFC3
:100F60004FE75FE7C301B2010E948D2881110DC0D8
:100F70002FEF3FEF4FE75FE7C301B2010E949F2BC6
:100F800018161CF469E771E00CC02FEF3FEF4FE734
:100F90005FE4C701B6010E946428181694F46DE757
:100FA00071E087E092E0FF90EF90DF90CF90BF90EC
:100FB000AF909F908F907F906F905F904F900C9428
:100FC0003A072FEF3FEF4FE75FECC701B6010E94F2
:100FD0009F2B87FDE4CF20E030E0A901C701B601D7
:100FE0000E949F2B87FF0BC06DE287E092E00E947A
:100FF00017074C01F7FAF094F7F8F09402C0812C2F
:10100000912CA12C60E070E080E09FE3AB1441F0F4
:1010100020E030E040E251E40E94BC27A394F6CFE8
:101020009B01AC01C701B6010E9450272B013C0176
:101030000E9435286B017C010E94A42B9B01AC010E
:10104000C301B2010E944F272B013C014AE0C701B6
:10105000B6010E944F077C01E80CF91CBB2041F04F
:1010600061E871E087E092E00E943A07E80EF91E1D
:10107000DB2CDD2021F120E030E040E251E4C3012F
:10108000B2010E94052C2B013C010E9435284B0126
:10109000A12CB12C4AE0C501B4010E944F07E80E13
:1010A000F91EC501B4010E94A42B9B01AC01C30130
:1010B000B2010E944F272B013C01DA94DACFC7011D
:1010C000FF90EF90DF90CF90BF90AF909F908F9068
:1010D0007F906F905F904F90089563E871E00C945B
:1010E0003A07EF92FF921F93CF93DF9360E087E080
:1010F00092E00E9417076AE070E080E090E00E94B2
:10110000211685E591E00E94E40EC7ECD1E01C2F8A
:10111000145F7E018881803130F466E871E087E0F9
:1011200092E00E943A072196F701608170E080E02A
:1011300090E040E10E944F071C13EBCF87E092E064
:10114000DF91CF911F91FF90EF900C946D08EF927B
:10115000FF920F931F93CF93DF93182F8EE491E0AC
:101160000E941E07C7ECD1E00C2F045F7E0168814E
:1011700062956F7060636A330CF0695D8CEA93E08E
:101180000E948C142196F70160816F7060636A334E
:101190000CF0695D8CEA93E00E948C140C13E6CF8E
:1011A000112321F089E491E00E941E078CEA93E06C
:1011B0000E946D088CEA93E00E94E014892B29F0CC
:1011C0008CEA93E00E94F814F5CF0E945B166093BE
:1011D000CB037093CC038093CD039093CE0381E037
:1011E000DF91CF911F910F91FF90EF9008951F9283
:1011F0000F920FB60F9211242F933F934F935F934B
:101200006F937F938F939F93AF93BF93EF93FF93CE
:1012100087E092E00E944B15FF91EF91BF91AF9153
:101220009F918F917F916F915F914F913F912F91FE
:101230000F900FBE0F901F901895CF92DF92EF92F4
:10124000FF921F93CF93DF93182F0E94E703C09163
:10125000D801D091D901C13147E2D40710F01092E2
:10126000E00111117CC081E08093E7038091EC03E1
:101270009091ED032091F5033091F6038F3691059F
:1012800080F02F3744E0340720F48F3541E0940795
:1012900078F04091DF0141110BC041E04093E00143
:1012A00007C08E36910520F41092E0011092DE0105
:1012B000213040E1340750F0B4E036952795BA95D7
:1012C000E1F7315F3093F6032093F5032091F503A6
:1012D0003091F6032115304230F02FEF3FE130938B
:1012E000F6032093F5038038910568F09C01A4E093
:1012F00036952795AA95E1F7225A3F4F3093ED0393
:101300002093EC030DC08B35910550F063E070E045
:101310000E94FF26645C7F4F7093ED036093EC03A3
:101320008091EC039091ED038F37910530F08FE7BA
:1013300090E09093ED038093EC0360910A03709129
:101340000B0380910C0390910D032AE530E040E0FF
:1013500050E00E94422D23702093D3010BC0809156
:10136000E603843008F083E08093D301153011F454
:101370001092E7038091F5039091F603C090EC037F
:10138000D090ED03E12CF12C2CE0CC0CDD1CEE1CFC
:10139000FF1C2A95D1F7AC0160E070E033E1440F07
:1013A000551F661F771F3A95D1F7C42AD52AE62A1A
:1013B000F72A4091D30150E060E070E0EAE0440F8A
:1013C000551F661F771FEA95D1F7C42AD52AE62A4A
:1013D000F72A4091E2014F7750E060E070E0F3E0DF
:1013E000440F551F661F771FFA95D1F7C42AD52AD7
:1013F000E62AF72A112341F1892B19F58091DA01A8
:101400009091DB01A091DC01B091DD018093C701D7
:101410009093C801A093C901B093CA01BE0180E0B6
:1014200090E00E94A42B20E030E040E251E40E94D2
:10143000BC276093CB017093CC018093CD01909336
:10144000CE011770C12A0DC08091E503893018F0D4
:1014500088E08093E5038091E50386958695837007
:10146000C82AC092CF01D092D001E092D101F0926F
:10147000D201DF91CF911F91FF90EF90DF90CF903D
:1014800008950F931F93CF93DF93CDB7DEB768977F
:101490000FB6F894DEBF0FBECDBF8091E9031F9257
:1014A0008F938091EA031F928F938091EB031F9299
:1014B0008F938091E4038F938091E3038F938091C6
:1014C000E2031F928F938091E1031F928F9388E82C
:1014D00091E09F938F938E010F5F1F4F1F930F9388
:1014E0000E94D828B80187E092E00E943A070FB620
:1014F000F894DEBF0FBECDBF68960FB6F894DEBF7E
:101500000FBECDBFDF91CF911F910F910895EF9244
:10151000FF920F931F93CF937C0100E010E0F7013F
:10152000C491CC2339F06C2F87E092E00E9417071A
:10153000CA3251F40031110594F466E871E087E095
:1015400092E00E943A070BC0C43229F02C2FCC0F36
:10155000330B022713278FEFE81AF80AE0CFB80100
:10156000110F880B990B40E10E944F0787E092E032
:10157000CF911F910F91FF90EF900C946D08CF9237
:10158000DF92EF92FF921092F2032A9A0E945B166A
:101590006B017C010E945B16CB018C199D09803781
:1015A000974180F487E092E00E94431418161906D0
:1015B0008CF787E092E00E9421148A9759F781E026
:1015C0008093F2038091F203882329F08EE991E061
:1015D0000E94870A01C02A988091F203FF90EF9041
:1015E000DF90CF9008958091E0039FEF980F9F3197
:1015F00028F46091F30390E00E94F2176091E803F1
:101600008BE290E00E94F2176091EE038CE290E092
:101610000C94F217CF93C091E203CC2331F1809167
:10162000E003C817E1F080E090E00E94F417809397
:10163000E0038C17A1F00E94F30A6091E20380E0BE
:1016400090E00E94F2178091E20360E090E00E9437
:10165000F2178091E2038093E0031092F3038091EC
:10166000F3038F5F8093F30302C01092F303CF91D3
:101670000895CF93DF93EC0187E092E00E94B315C9
:1016800020E030E040E050E0BE0181EF93E0DF91E8
:10169000CF910C94A617AF92BF92CF92DF92EF92A8
:1016A000FF920F931F93CF93DF93CDB7DEB762976F
:1016B0000FB6F894DEBF0FBECDBF182F062F5F9A6E
:1016C0000E941D09112309F486C0143009F0FEC0E0
:1016D0008091F5039091F603892B09F4F7C080916E
:1016E000CF019091D001A091D101B091D201AC0174
:1016F000BD01E3E17695679557954795EA95D1F752
:10170000FCE0B695A79597958795FA95D1F78F77D1
:1017100099279093ED038093EC03842F8370880FB7
:10172000880F1F928F93CA01992796958795969552
:1017300087959F938F931F925F9387EA91E09F9382
:101740008F93AE014F5F5F4F7A015F934F930E947B
:10175000D828B70187E092E00E943A076091C7015C
:101760007091C8018091C9019091CA0147E00E941F
:10177000920782ED91E00E94E40E6091CB0170919E
:10178000CC018091CD019091CE0147E00E9492075B
:1017900080ED91E00E94E40E6091EC037091ED0306
:1017A00080E090E04AE00E944F078EEC91E00E94BA
:1017B000E40E6091EE0370E080E090E04AE00E9469
:1017C0004F0787E092E00E946D080FB6F894DEBFE5
:1017D0000FBECDBF7BC08091C7019091C801A09181
:1017E000C901B091CA0189839A83AB83BC8380917C
:1017F000CB019091CC01A091CD01B091CE018D8310
:101800009E83AF83B8878091EC0389878091EA0338
:10181000E4E08E9FC00111242091EB03AC01522B18
:101820009091E903892F90E064E0959587956A95FA
:10183000E1F7842B952B9B878A878091EE0369E5DE
:101840000E94F3265BE0959F9001112469018DE2CF
:10185000C80ED11CFE0131965F017901F8E3EF0E4D
:10186000F11CF50161915F01C6016A8B0E94C32CD6
:101870006A89681719F0C6010E94CB2CFFEFCF1AB6
:10188000DF0ACE14DF0469F78091EE038A3568F031
:10189000282F30E04091E80350E029553109241702
:1018A00035070CF49A012093E8038F5F8093EE03D1
:1018B000811103C081E090E005C08091EF03909119
:1018C000F00301969093F0038093EF038091F70368
:1018D0008823A1F08091CF019091D001A091D101F6
:1018E000B091D20187608093CF019093D001A093F3
:1018F000D101B093D2011092E1015F98C090CF0165
:10190000D090D001E090D101F090D2010E94410A24
:1019100088E192E00E94E40E6091F30370E080E0C1
:1019200090E04AE00E944F0782E192E00E94E40EBC
:101930006091EF037091F00380E090E04AE00E9434
:101940004F078BE092E00E94E40E6091EE0370E09E
:1019500080E090E04AE00E944F0785E092E00E941C
:10196000E40E6091C7017091C8018091C901909106
:10197000CA0147E00E9492078EEF91E00E94E40EB8
:101980006091CB017091CC018091CD019091CE01FD
:1019900047E00E94920787EF91E00E94E40EC701A2
:1019A000B60123E196958795779567952A95D1F7A6
:1019B0004AE00E944F0780EF91E00E94E40ED701B9
:1019C000C6013AE0B695A795979587953A95D1F7D0
:1019D00083709927BC0180E090E04AE00E944F07A5
:1019E00089EE91E00E94E40ED701C6014CE0B69565
:1019F000A795979587954A95D1F78F779927BC0139
:101A000080E090E04AE00E944F0782EE91E00E9461
:101A1000E40ED701C60153E0B695A7959795879533
:101A20005A95D1F78F779927BC0180E090E04AE082
:101A30000E944F078AED91E00E94E40E27E0C22247
:101A4000DD24B60180E090E04AE00E944F070023C9
:101A500029F084ED91E00E94E40E04C087E092E05A
:101A60000E946D088091F403811115C011110FC0FF
:101A70008091F3031092F203882399F08DE192E0B4
:101A80000E94870A87E092E00E94B3150AC0109274
:101A9000F2032A9802C0112321F08091DE01811106
:101AA00036C08091E001811132C0802F0E94A708CA
:101AB0000E940A0B87E092E00E94B31587E090E055
:101AC0000E94390B57981630B9F420E030E040E01E
:101AD00050E069E070E081EF93E00E94A61780E09B
:101AE0000E94A7080E940A0B87E092E00E94B315AB
:101AF00087E090E00E94390B20E030E040E050E0C9
:101B000068E070E081EF93E00E94A61704C087E0D0
:101B100092E00E94B315579A5F9862960FB6F894B8
:101B2000DEBF0FBECDBFDF91CF911F910F91FF9010
:101B3000EF90DF90CF90BF90AF9008954F925F925B
:101B40006F927F92BF92CF92DF92EF92FF920F93AC
:101B50001F93CF93DF93CDB7DEB7C456D1090FB62D
:101B6000F894DEBF0FBECDBFB82E2A9A60E870E0B1
:101B700080E090E00E94211630E051E450937C0018
:101B800080917A00806480937A0080917A0086FD4B
:101B9000FCCF809178002091790090E0922B959570
:101BA000879595958795482F2981821778F033235B
:101BB00069F0FE01319621E0231749F06191461743
:101BC00018F06081641718F42F5FF6CF20E0432FE0
:101BD000241778F4642F70E0FE01E60FF71FE08110
:101BE000A1E0B0E0AC0FBD1FA60FB71FEC934150B2
:101BF000EFCFE1E0F0E0EC0FFD1FE20FF11D80837D
:101C00003F5F343609F0BACFFE01BF96CE01C796CA
:101C100000E010E02191020F111DE817F907D1F73C
:101C2000169507951093DF030093DE030550110905
:101C30008091DC039091DD038017910770F4602F91
:101C400080E290E00E94F217612F81E290E00E9412
:101C5000F2171093DD030093DC032091DE03309133
:101C6000DF03A8E6B0E10E94642D2091DC033091EF
:101C7000DD0340E050E00E94D92C69017A0189011E
:101C8000C90123EFC2162DE0D20610F082EF9DE0CD
:101C90002C01612C712CD701C601AA27BB279C01FE
:101CA000AD012419350946095709A4E6B0E00E94A0
:101CB000F82C9601083640E1140710F428E630E1CC
:101CC0006901E12CF12CA701960124193509460977
:101CD00057090E94D92C2093E2018091F4038111CD
:101CE00005C08091F203811101C02A9881E0BB20D8
:101CF00021F006351E4028F003C0023F1D4008F0C9
:101D000080E08093F703CC59DF4F0FB6F894DEBF25
:101D10000FBECDBFDF91CF911F910F91FF90EF903C
:101D2000DF90CF90BF907F906F905F904F9008951D
:101D300081E08093C101089581E08093C1010895FD
:101D400020E030E040E050E062E070E081EF93E0BE
:101D50000E94A6175F985E9820E030E040E050E0D7
:101D600062E070E081EF93E00E94A6175F9A2BB1CA
:101D70009091F40330E4939FC0011124822B8BB91E
:101D800020E030E040E050E062E070E081EF93E07E
:101D90000C94A617CF93DF93EC011C161D068CF450
:101DA00060E270E080E090E00E9421165F9A219747
:101DB00031F060E470E080E090E00E9421165F98CE
:101DC000ECCFDF91CF910895CF93DF93FC01649125
:101DD000EC012196662331F087E092E00E9417071C
:101DE000CE01F4CFDF91CF9108952F923F924F9281
:101DF0005F926F927F928F929F92AF92BF92CF929B
:101E0000DF92EF92FF920F931F93CF93DF93CDB7A3
:101E1000DEB7A2970FB6F894DEBF0FBECDBF3C0170
:101E200080E00E949E0D811145C101C0299A8091D8
:101E3000F403882381F08091E201893120F08091C0
:101E4000DF01811105C01092F4031092DF0103C07D
:101E500081508093DF0124E06216710431F4809197
:101E6000EE03882361F057980AC035E063167104C9
:101E700019F06114710481F41092BF010DC08091BA
:101E8000BF01811109C041E04D878091C30190914C
:101E9000C401181619060CF41D866D85862D0E9446
:101EA0004B0B80E00E94F6172090F403288E6114FB
:101EB000710451F48091EC039091ED03069720F0AA
:101EC0008091C201882319F0388C332021F084E0FE
:101ED0008093000102C01092000124E06216710498
:101EE00011F01092FA0334E063167104C9F4809182
:101EF000F5039091F603892BC1F48091FA032AE946
:101F000031E01901082E02C0220C331C0A94E2F7BA
:101F10003AA229A2833068F48F5F8093FA0309C044
:101F20002BE430E03AA329A304C04BE450E05AA3C9
:101F300049A31092C1011092C00154E065167104CA
:101F400061F08091000181110DC0288C21100FC01B
:101F500028E030E03F872E870EC049E050E05F87E1
:101F60004E8709C089E090E09F878E8704C0A9E072
:101F7000B0E0BF87AE8787E092E00E94B31522E011
:101F800030E03A872987E2E08E2E912C29A03AA0F2
:101F90008214930408F080C02D8421100BC020E02F
:101FA00030E040E050E06E857F8581EF93E00E9455
:101FB000A6175AC080917A008F7780937A0080911B
:101FC00064008160809364008091640088608093E5
:101FD000640080916400806280936400809164005A
:101FE00084608093640080916400806880936400C2
:101FF0008E858770886298E10FB6F894A8959093C3
:1020000060000FBE809360008091600080648093C8
:10201000600083B7817F83BFF89483B7816083BFFB
:102020007894889583B78E7F83BF7894809164007D
:102030008E7F8093640080917A00806880937A001C
:1020400080916400877F80936400809164008F7D1D
:1020500080936400809164008B7F80936400809102
:1020600064008F77809364002FEF821A920A809128
:10207000C3019091C401181619062CF4019790938E
:10208000C4018093C3018091C10181112CC0809152
:10209000F403811128C0C6C28091000183300CF086
:1020A000C3C28091F4038111BFC28091C10181112B
:1020B000BBC2ABC32A9889E292E00E94E40E0E9460
:1020C000F30A299881E00E949E0D882309F4AECE80
:1020D00020E030E040E050E068E070E081EF93E025
:1020E0000E94A617EFCF5E9A8091C101882311F05C
:1020F0001AA219A22D84222009F435C28CEA93E099
:102100000E94E014892B09F48DC064E670E080E041
:1021100090E00E9421160E945B16688B798B8A8B57
:102120009B8B20E030E040E050E0C12CD12CE12C32
:10213000F12C2D8F3E8F4F8F58A30E945B16DC0130
:10214000CB01288839884A885B8882199309A409B9
:10215000B5092D8D3E8D4F8D58A1883E9340A10528
:10216000B10508F067C08CEA93E02D8F3E8F4F8F4A
:1021700058A30E94E0142D8D3E8D4F8D58A1892BC0
:10218000C1F28CEA93E00E94F814E82F80ED8E0FE4
:102190002D8D3E8D4F8D58A18A3070F4B601C70148
:1021A00004E00E94272759016A017B018C010E2E51
:1021B000000CFF0BF09724C08FEB8E0F863070F46D
:1021C000B601C70104E00E94272759016A017B017B
:1021D0008C010E2E000CFF0BF79712C08FE98E0FAB
:1021E0008630E0F4B601C70104E00E9427275901B8
:1021F0006A017B018C010E2E000CFF0BE755F109E3
:102200009F2F990F990B9F01492F592F692F792FD4
:10221000892F0E9440276B017C018BCFEA3009F0A7
:1022200088CF08C020E030E040E050E0C12CD12C45
:10223000E12CF12C29833A834B835C83CD82DE82AF
:10224000EF82F8864B805C804114510409F47BC115
:102250008EEB48168AEB580669F489819A8190932F
:10226000F9038093F80389E08093000181E0809373
:10227000BF0136C09FEE49169EEB5906C1F4898115
:102280009A819093F9038093F80381E08093BF01D2
:102290001092DF018093F4038091F203811102C058
:1022A0000E94BF0A88E090E00E94CA0E19C0AEEFFB
:1022B0004A16AAEC5A0651F481E08093BF01898145
:1022C0009A819093F9038093F8030AC0BDEA4B16F4
:1022D000BEED5B0629F481E08093BF012093BE012F
:1022E0002D813E814F8158852C8B3D8B4E8B5F8B92
:1022F000CA01B9012CE330E040E050E00E94422DD9
:1023000069017A01ACE3B0E00E94F82C2C893D8988
:102310004E895F89261B370B480B590B2C8B3D8B45
:102320004E8B5F8BC701B6012CE330E040E050E0FC
:102330000E94422D288B398B4A8B5B8BACE3B0E03B
:102340000E94F82CA7019601261B370B480B590B4E
:10235000298F3A8F4B8F5C8F688979898A899B890D
:1023600028E130E040E050E00E94422D69017A010E
:10237000A8E1B0E00E94F82C288939894A895B8954
:10238000261B370B480B590B288B398B4A8B5B8BE1
:1023900082EB97E0A0E0B0E089879A87AB87BC87A3
:1023A00089859A85AB85BC8583709927AA27BB2729
:1023B000892B8A2B8B2B01F569857A858B859C85EA
:1023C00024E630E040E050E00E94422D672B682B6D
:1023D000692B71F469857A858B859C8520E931E0CC
:1023E00040E050E00E94422D672B682B692B21F4BE
:1023F00021E08EE691E003C020E08DE691E0A0E0D0
:10240000B0E0C816D906EA06FB0630F4EFE2F1E0C8
:1024100080E090E0DC0127C0C81AD90AEA0AFB0A6A
:1024200029853A854B855C852F5F3F4F4F4F5F4F26
:1024300029873A874B875C87B3CF21114F5F50E0E4
:1024400060E070E0C416D506E606F70698F0C41AF8
:10245000D50AE60AF70A0196A11DB11D8C30910537
:10246000A105B10539F0419181309105A105B10572
:1024700031F7E3CF0196A11DB11D8093E1033FEF3A
:10248000C31AD30AE30AF30AC092E20349855A85C4
:102490005093E4034093E30358895093EB03698D11
:1024A0006093EA038C898093E90380E492E00E94C0
:1024B000E40E0E94410A8AE392E00E94E40EC0907A
:1024C000F803D090F9030D2C000CEE08FF08F7FE7E
:1024D0000EC06DE287E092E00E941707662777271B
:1024E000CB016C197D098E099F094AE003C04AE0BF
:1024F000C701B6010E944F0783E392E00E94E40EF9
:10250000B20180E090E040E10E944F0787E092E056
:102510000E946D0887E092E00E94B3158091BF0190
:102520008823E9F08CE89AE09093C4018093C3017A
:102530009AA289A29BE48916910488F4ABE4B0E0E6
:10254000BAA3A9A30CC089819A818D3E910551F04F
:10255000B1E0BD8728E08216910428F003C09A8676
:10256000898601C01D8680E00E94F617882301F14C
:10257000809100018F5F809300014E855F85483018
:10258000510541F49694879429843A84369427948B
:102590003A86298624E062167104A9F08091F4033A
:1025A000288C281215C029E030E03F872E8716C0FE
:1025B00020E030E040E050E062E070E081EF93E046
:1025C0000E94A6170BC049E050E05F874E8704C009
:1025D00089E090E09F878E871AA219A2809100015E
:1025E00083307CF08091F20381110BC0C40104960A
:1025F00029A03AA02816390620F40E94BF0A809329
:10260000F20380910001893054F08091E703882320
:1026100031F026E06216710411F49AA289A25F9843
:102620005E98B4CC5F9A66CD81E080930001672804
:1026300011F18091EE038823D1F08091BF018111C7
:1026400016C08091EF039091F003940146E0369517
:1026500027954A95E1F7820F931F9401232F332783
:102660002695821B930B9093F0038093EF03809148
:102670000001181664F48091F403811108C0809160
:10268000F203811104C00E94BF0A8093F203B401D7
:1026900029843A84621973092E853F8528303105D3
:1026A00029F02DEC3CEC4CE051E404C02DEC3CEC6A
:1026B0004CE850E480E090E02D8F3E8F4F8F58A380
:1026C0000E94A42B2D8D3E8D4F8D58A10E94052C6C
:1026D0000E9435282091E90330E0C901860F971F39
:1026E000ECE3F0E0BF010E94FF268093E9038091B4
:1026F000EA03AB01480F511DCA01BF010E94FF262A
:102700008093EA038091EB03680F683118F46093BB
:10271000EB033DC068516093EB034091E2034F5FD0
:102720004093E2032091E3033091E403C9018370F5
:102730009927892B81F4C90164E670E00E94132770
:10274000892B39F4C90160E971E00E941327892BB4
:1027500011F48DE101C08CE19091E103923009F414
:1027600068C0993009F464C0403288F081E08093F9
:10277000E2039F5F9D3018F49093E10308C08093BB
:10278000E1032F5F3F4F3093E4032093E303109264
:10279000E5031092C2011092E1011092C50110925E
:1027A000ED031092EC031092F6031092F5031092D1
:1027B000CB011092CC011092CD011092CE0110925B
:1027C000C7011092C8011092C9011092CA018091EC
:1027D0000001082E000C990BA2960FB6F894DEBFEC
:1027E0000FBECDBFDF91CF911F910F91FF90EF9062
:1027F000DF90CF90BF90AF909F908F907F906F9021
:102800005F904F903F902F90089554E065167104AB
:1028100049F449A05AA04814590420F48FEF80933A
:10282000000107CF10920001672809F430CF01CFD3
:102830008EE1841708F0ABCF81E08093E2039F5FC5
:102840009BCFFC01918D828D981761F0828DDF0105
:10285000A80FB11D5D968C91928D9F5F9F73928F93
:1028600090E008958FEF9FEF0895FC01918D828D88
:10287000981731F0828DE80FF11D858D90E0089555
:102880008FEF9FEF0895FC01918D228D892F90E0AD
:10289000805C9F4F821B91098F73992708959FB782
:1028A000F89440914404509145046091460470911D
:1028B000470486B5A89B06C08F3F21F04F5F5F4F4E
:1028C0006F4F7F4F9FBF762F652F542F44279A015C
:1028D000AB01280F311D411D511DA5E0B0E00E9444
:1028E000F82C089508952091FD033091FE032817D8
:1028F000390771F49091FC038091FB03981741F024
:10290000E091FC03F0E0E150FC4F808190E00895FD
:102910008FEF9FEF089508951F93CF93DF93DC010E
:102920005C962D913C915D972115310539F481E03C
:1029300090E013969C938E9312973DC05196ED9123
:10294000FC91529750969C915097892F80951FB774
:102950005E964C915E9741FB772770F941FD60953B
:10296000F8944081772311F0492B01C0482340831C
:10297000E9012197F1F748E0508160FF02C0592B2F
:1029800001C058235083E9012197F1F76695415022
:1029900099F7772321F090818923808303C0808178
:1029A000982B90831FBF5C968D919C915D970197AA
:1029B000F1F721E030E0C901DF91CF911F91089537
:1029C0002091FD033091FE032817390771F480919F
:1029D000FB032091FC0390E0805C9F4F821B9109D8
:1029E00060E470E00E941327089580E090E008956D
:1029F0002091FD033091FE0328173907B9F4909117
:102A0000FC038091FB03981789F0E091FC03F0E050
:102A1000E150FC4F80812091FC0330E02F5F3F4F5D
:102A20002F7333272093FC0390E008958FEF9FEFDF
:102A300008951F920F920FB60F9211242F938F9328
:102A40009F93EF93FF93E0911702F091180280811A
:102A5000E0911D02F0911E0282FD12C090818091D2
:102A600020028F5F8F7320912102821751F0E09135
:102A70002002F0E0E95FFD4F958F8093200201C0B6
:102A80008081FF91EF919F918F912F910F900FBEB9
:102A90000F901F901895FC01848DDF01A80FB11DC8
:102AA000A35ABF4F2C91848D90E001968F73992784
:102AB000848FA689B7892C93A089B1898C91806471
:102AC0008C93938D848D981306C00288F389E02D32
:102AD00080818F7D80830895EF92FF920F931F93E3
:102AE000CF93DF93EC0181E0888F9B8D8C8D9813C1
:102AF00005C0E889F989808185FD24C0F62E0B8DFB
:102B000010E00F5F1F4F0F731127E02E8C8DE8121E
:102B10000CC00FB607FCFACFE889F989808185FFE0
:102B2000F5CFCE010E944B15F1CF8B8DFE01E80F42
:102B3000F11DE35AFF4FF0820B8FEA89FB898081F8
:102B4000806207C0EE89FF896083E889F989808106
:102B50008064808381E090E0DF91CF911F910F919D
:102B6000FF90EF900895CF93DF93EC01888D882339
:102B7000C9F0EA89FB89808185FD05C0A889B989EA
:102B80008C9186FD0FC00FB607FCF5CF808185FFC5
:102B9000F2CFA889B9898C9185FFEDCFCE010E9433
:102BA0004B15E7CFDF91CF91089590E0FC01E75AF4
:102BB000FD4F3491FC01E657FE4F2491FC01EA5889
:102BC000FE4FE491EE2309F43BC0332339F1333057
:102BD00091F038F43130A9F0323001F584B58F7DB1
:102BE00012C0373091F03830A1F03430B9F4809110
:102BF00080008F7D03C0809180008F77809380005C
:102C00000DC084B58F7784BD09C08091B0008F77E7
:102C100003C08091B0008F7D8093B000F0E0EE0F94
:102C2000FF1FE85AFE4FA591B4918FB7F894EC912D
:102C3000611103C020952E2301C02E2B2C938FBF32
:102C400008958F929F92AF92BF92CF92DF92EF92B0
:102C5000FF926B017C010E944F144B015C01C11477
:102C6000D104E104F104F1F00E944F14DC01CB0126
:102C700088199909AA09BB09883E9340A105B105A5
:102C800070F321E0C21AD108E108F10888EE880E3D
:102C900083E0981EA11CB11CC114D104E104F1040D
:102CA00019F7DDCFFF90EF90DF90CF90BF90AF90FE
:102CB0009F908F9008952FB7F89460914004709181
:102CC000410480914204909143042FBF08951F92C4
:102CD0000F920FB60F9211242F933F938F939F93D0
:102CE000AF93BF938091400490914104A09142041E
:102CF000B091430430913F042DE2230F2D3720F48F
:102D00000196A11DB11D05C020EB230F0296A11D48
:102D1000B11D20933F048093400490934104A093FD
:102D20004204B09343048091440490914504A091DF
:102D30004604B09147040196A11DB11D809344043F
:102D400090934504A0934604B0934704BF91AF917C
:102D50009F918F913F912F910F900FBE0F901F90D9
:102D600018951F920F920FB60F9211242F933F9335
:102D70004F935F936F937F938F939F93AF93BF9383
:102D8000EF93FF93E0910301F09104010995FF9106
:102D9000EF91BF91AF919F918F917F916F915F91D3
:102DA0004F913F912F910F900FBE0F901F9018954C
:102DB0001F920F920FB60F9211242F933F934F93B0
:102DC0005F936F937F938F939F93AF93BF93EF9393
:102DD000FF93E0910101F09102010995FF91EF91BC
:102DE000BF91AF919F918F917F916F915F914F9123
:102DF0003F912F910F900FBE0F901F9018951F922B
:102E00000F920FB60F9211242F933F934F935F931E
:102E10006F937F938F939F93AF93BF93EF93FF93A2
:102E2000E091FD03F091FE03309709F451C0968DB7
:102E3000A685B785858591FF04C09C91892329F4D7
:102E400047C09C91892309F043C0A389B4899C9110
:102E50008589809589238C93868997890197F1F7D5
:102E6000608D718DA685B785558538E020E0CB0152
:102E70000197F1F7822F90E095958795282F4C9137
:102E8000452309F02068315091F7868D81FD20950A
:102E90008091FB0390E001968F7399273091FC039A
:102EA000381749F0A091FB03B0E0A150BC4F2C9320
:102EB0008093FB0303C0868D8160868F828D938D06
:102EC0000197F1F7A389B4899C918589892B8C930B
:102ED000FF91EF91BF91AF919F918F917F916F91F2
:102EE0005F914F913F912F910F900FBE0F901F90C8
:102EF0001895E091FD03F091FE03E817F90769F4D6
:102F0000A389B4899C918589809589238C9310929B
:102F1000FE031092FD0381E0089580E008951F9262
:102F20000F920FB60F9211248F930FB6F894A895B5
:102F300080916000886180936000109260000FBEF5
:102F40008F910F900FBE0F901F901895411551054E
:102F500029F4EAE7F0E080818F7780836A30710599
:102F6000A9F063FD02C088E001C088E26770682BA9
:102F700088E10FB6F894A895809360000FBE609327
:102F80006000E0E6F0E0808180648083232BA1F480
:102F900083B7817F846083BFF89483B7816083BFE8
:102FA00085B7806685BF8F7D85BF7894889583B708
:102FB0008E7F83BF78940EC083B7817F846083BF88
:102FC000F89483B7816083BF7894889583B78E7FA8
:102FD00083BF7894452B29F4EAE7F0E0808180688C
:102FE000808308950C94CB2C0C94C32C0F931F93C7
:102FF000CF93DF93D0914804D11102C0D1E06DC1CD
:103000009091C902911102C044E001C047E0182F1D
:1030100060E08091BC020E945E03882311F0D0E042
:103020005CC10E944A03082F08708091C90288235E
:10303000E9F10E944A03C82F0E944A032C2F30E076
:10304000322F2227280F311D46E0359527954A95C6
:10305000E1F73093C0022093BF020E944A03C82FB9
:103060000E944A032C2F30E0322F2227280F311DD7
:1030700066E0359527956A95E1F73093C202209373
:10308000C1020E944A03C82F0E944A032C2F30E03D
:10309000322F2227280F311DE6E035952795EA9536
:1030A000E1F73093C4022093C3021BC00E944A037D
:1030B000082E000C990B9093C0028093BF020E94CF
:1030C0004A03082E000C990B9093C2028093C10210
:1030D0000E944A03082E000C990B9093C40280931F
:1030E000C302002309F49BCF8091BF029091C002DC
:1030F00020914E0430914F04BC01621B730B77FF8B
:1031000003C07195619571094091C1025091C2024D
:103110002091C3023091C4026330710508F56091BB
:103120004C0470914D04FA01E61BF70BBF01F7FF49
:1031300003C07195619571096330710588F46091E0
:103140004A0470914B04F901E61BF70BF7FF03C02B
:10315000F195E195F10961E0339718F460E001C061
:1031600061E090934F0480934E0450934D0440933C
:103170004C0430934B0420934A04662309F44FCF48
:1031800011113CCFBC01695D7F4F6F34710500F5B3
:10319000CA0187968F34910540F4213A3105BCF578
:1031A0002036FFEF3F07ACF10AC040366FEF5607FD
:1031B00034F4295D3F4F2F34310568F124C0413A82
:1031C00051050CF1295D3F4F2F34310530F11BC003
:1031D000813A91055CF0495D5F4F4F34510598F499
:1031E000295D3F4F2F343105D0F00DC080369F4F01
:1031F00054F4495D5F4F4F34510528F4295D3F4F2A
:103200002F34310570F010924904C6E00BC0C0E0C5
:1032100009C0C1E007C0C2E005C0C3E003C0C4E00C
:1032200001C0C5E080914904811108C08091E60386
:1032300081111DC0C230D9F481E014C0813039F44D
:103240008091E603823099F4C33089F40BC0823058
:1032500071F48091E603833051F4C23019F0C1114A
:1032600006C084E0809349040E94A00E02C0109220
:103270004904C093E60380914904833079F40E94A5
:10328000F30A84E190E00E94CA0E18B817B81BB880
:103290001AB815B882E084B91092490480914904A3
:1032A000843009F0ABCE9091F40381E0891B8093C8
:1032B000F403882351F088E18093DF018091F203C9
:1032C000811105C00E94BF0A02C01092DF0188E090
:1032D00090E00E94CA0E109249048D2FDF91CF9189
:1032E0001F910F910895CF93DF93CDB7DEB72F973E
:1032F0000FB6F894DEBF0FBECDBF789484B5826060
:1033000084BD84B5816084BD85B5826085BD85B589
:10331000816085BD80916E00816080936E00109207
:103320008100809181008260809381008091810082
:103330008160809381008091800081608093800013
:103340008091B10084608093B1008091B000816071
:103350008093B00080917A00846080937A0080919D
:103360007A00826080937A0080917A008E7F8093C9
:103370007A0080917A00806880937A001092C10070
:1033800060E870E080E090E00E9421168AE385B951
:1033900087E084B918B884E087B98CE18BB980ECF8
:1033A0008AB9E0911702F091180282E08083E091DF
:1033B0001302F09114021082E0911502F0911602AE
:1033C0008BE9808310921F02E0911B02F0911C0296
:1033D00086E08083E0911902F0911A028081806179
:1033E0008083E0911902F0911A02808188608083C5
:1033F000E0911902F0911A02808180688083E09147
:103400001902F0911A0280818F7D808360E087E04D
:1034100092E00E9417076AE070E080E090E00E946E
:1034200021168CE191E00E94E40E80E090E00E9481
:10343000F4178093E003813238F01092E00360E0EB
:1034400080E090E00E94F2178FE790E00E94E40E87
:103450006091E00370E080E090E04AE00E944F0756
:1034600087E092E00E946D0881E790E00E94E40E00
:1034700001E010E0C8010E94F4178093F3038F3F2E
:1034800031F460E0C8010E94F2171092F3036091DA
:10349000F30370E080E090E04AE00E944F0765EAA5
:1034A00071E087E092E00E943A070F5F1F4F003201
:1034B000110501F788E690E00E94E40E8BE290E0AF
:1034C0000E94F417182F8093E8038CE290E00E948A
:1034D000F4178093EE03811720F41092E803109202
:1034E000EE038091EE0390E02091E803821B9109A6
:1034F0006C01092E000CEE08FF0897FF0EC06DE26C
:1035000087E092E00E94170766277727CB016C19A6
:103510007D098E099F094AE003C04AE0C701B60150
:103520000E944F0787E092E00E946D088091E003BF
:1035300090E00E94F4178093F30380E290E00E94F1
:10354000F417182F81E290E00E94F417282F30E042
:10355000322F2227C901810F911D9093DD038093A3
:10356000DC0389E890E00E94E40E6091DC03709136
:10357000DD0380E090E04AE00E944F0784ED93E095
:103580009093DD038093DC0381E00E949E0D182F51
:10359000882359F020E030E040E050E068E070E03F
:1035A00081EF93E00E94A617EFCF299A84E191E082
:1035B0000E94E40E6091E20170E080E090E04AE059
:1035C0000E944F0781E191E00E94E40E6091DE03CA
:1035D0007091DF0380E090E04AE00E944F0787E0AF
:1035E00092E00E946D0860E870E080E090E00E9448
:1035F00021160E94BF0A8093F203882341F087E0DE
:1036000091E00E94870A81E090E00E94CA0E8CE956
:1036100090E00E94E40E449A459A8091B9008E7F12
:103620008093B9008091B9008D7F8093B90084E3C5
:103630008093B80084E48093BC008AE090E090938B
:103640000602809305021092C90282E08093BE02B6
:103650008DE00E94DF03F82E60E48BE20E944403B9
:103660006AE070E080E090E00E9421168AE20E9409
:10367000DF03682F6E7F8AE20E9444039091BE02AE
:10368000943021F0983021F462E003C061E001C081
:1036900060E08EE00E94440361E08CE20E944403FB
:1036A0008AE20E94DF03082F69E08BE20E94440354
:1036B0008091C902811102C092E001C090E0602FA8
:1036C0006963692B8AE20E9444032AE5F21649F0F5
:1036D00087E990E00E94E40E87E092E00E946D0886
:1036E00009C084E990E00E94E40E87E092E00E9425
:1036F0006D0811E010934804112379F060E072E046
:1037000080E090E00E94211680E00E94F617882356
:1037100021F082E090E00E94CA0E41E060ED87E770
:103720000E945E03811198C10E944A03853509F009
:1037300093C146E16AEA87E70E945E0381118CC16A
:1037400000E010E0A8014C555D4F7A0100FF05C074
:103750000E944A03F701818304C00E944A03F701D3
:1037600083830F5F1F4F0631110561F781E080935E
:10377000C6010E94E70360E072E080E090E00E94F2
:1037800021168091C601882361F187EB90E00E94A9
:10379000E40E6091DA017091DB018091DC0190917F
:1037A000DD0141E00E9492078CEA90E00E94E40E65
:1037B0006091D8017091D90180E090E00E94A42B23
:1037C00020E030E040E251E40E94BC2741E00E944A
:1037D000920787EA90E00E94E40E83E090E00E9466
:1037E000CA0E8BE48093BE0187ED90E00E94E40E48
:1037F0000E945B162B013C01FF24F3949E012F5F76
:103800003F4F19010E945B166419750960377741B3
:1038100008F009C11092C7031092C6031092C503A5
:103820001092C4031092C3031092C20345E351E007
:103830005093C9034093C8032091B803263108F080
:103840005DC089E890E09093C3038093C203E3E3F3
:10385000F1E0F093C503E093C4034EED50E05093C4
:10386000C7034093C60380916800283058F091E068
:103870002E3008F490E05F2D01C0550F9A95EAF7BD
:10388000952F01C094E0892B80936800283038F090
:103890002E3040F0263148F080E090E008C08DE600
:1038A00090E005C08BE690E002C08CE690E090933B
:1038B000C0038093BF03283030F48F2D01C0880FE0
:1038C0002A95EAF713C0822F90E02E3040F4089733
:1038D000EF2D01C0EE0F8A95EAF78E2F07C00E97E5
:1038E000FF2D01C0FF0F8A95EAF78F2F8093C10348
:1038F0008091C8039091C9030197F1F78091C603A5
:103900009091C703892B21F18091FD039091FE03D3
:1039100023E08C3A9207E1F0009711F00E947917AA
:103920008091CA038E7F8093CA031092FB0310928A
:10393000FC034CEA53E05093FE034093FD03E091F7
:10394000BF03F091C00390818091C103892B8083D4
:1039500060E08CEA93E00E948C146BE38CEA93E0C5
:103960000E948C1419821A821B821C821D820E9462
:103970005B164B015C01610100E010E00E945B16E8
:10398000DC01CB0188199909AA09BB09C297A105D5
:10399000B105B8F48CEA93E00E94E01418161906F9
:1039A0006CF78CEA93E00E94F8140430110519F4C6
:1039B0000FEF1FEF0DC0F60181936F010F5F1F4FD7
:1039C000DDCF6BE371E0C1010E94C028892B81F734
:1039D0000330110509F560E08CEA93E00E948C1435
:1039E0008EEB90E00E941E0788E0F10111928A950B
:1039F000E9F78CEA93E00E94E014892BD1F3F12CD3
:103A00008CEA93E00E9473140F2D10E0CB97E9F538
:103A1000F5E0FF15D0F549C068EC70E080E090E07B
:103A20000E942116EFCE80ED90E00E94E40E5E9A97
:103A300087E092E00E94B315299810E420E030E07E
:103A400040E050E066E070E081EF93E00E94A6174E
:103A50008BB181278BB9F2CF1092C60180E090E044
:103A6000A0EAB1E48093DA019093DB01A093DC013A
:103A7000B093DD018CE398E29093D9018093D80153
:103A80008BEF90E00E94E40E7CCE8CEA93E00E94E3
:103A9000F814F101E00FF11F80838CEA93E00E949B
:103AA000E014892BD1F3F394ABCF8CEA93E00E941E
:103AB000F81440E060E070E0CB0102501109242FBF
:103AC00030E02017310784F4B82FA72F962F8827CE
:103AD000F101E20FF31F2081BC01CD01620F711DC6
:103AE000811D911D4F5FEBCF6093D4017093D50181
:103AF0008093D6019093D70140E10E944F0787E061
:103B000092E00E946D088AEC90E00E941E0784EC0F
:103B100090E00E941E0760E072E080E090E00E946A
:103B2000211684E090E00E94CA0E5E9A82E290E044
:103B30000E94F417182F83E290E00E94F417E82EF9
:103B400084E290E00E94F417F82E85E290E00E9453
:103B5000F417082F2CE1E21202C020E006C06CE14D
:103B600083E290E00E94F21721E04EE0F41631F07B
:103B70006EE084E290E00E94F21721E0033041F011
:103B800063E085E290E00E94F217133019F474C7E5
:103B9000133031F063E082E290E00E94F21721E0FE
:103BA00085E89BEEA1E5B0E48093C7019093C8013E
:103BB000A093C901B093CA0181EE9AE7A0E6B1E4EF
:103BC0008093CB019093CC01A093CD01B093CE0113
:103BD0008091E2018F7790E0A0E0B0E0F3E0880F01
:103BE000991FAA1FBB1FFA95D1F783609C60809331
:103BF000CF019093D001A093D101B093D2012223A1
:103C000019F160E08BE290E00E94F21760E08CE234
:103C100090E00E94F2171092E8031092EE0381EEFA
:103C200090E00E94E40E299860E777E180E090E060
:103C30000E942116299A80E00E94A7080E940A0B80
:103C400088E090E00E94390B5E9880EF90E00E943F
:103C5000E40E8091500490915104009711F484E592
:103C600094E06101C81AD90A0D2C000CEE08FF0877
:103C7000F7FE0EC06DE287E092E00E94170766270C
:103C80007727CB016C197D098E099F094AE003C093
:103C90004AE0C701B6010E944F0787E092E00E9408
:103CA0006D08429888E99EE0909304018093030197
:103CB00080916900837F886080936900E99A1092FF
:103CC000C1011092C00187E092E00E94B315E4E6C2
:103CD0008E2E912CA12CB12C8091C50191E0980FD2
:103CE0009093C5018770D9F45E9A20E030E040E0FF
:103CF00050E062E070E081EF93E00E94A61780E060
:103D00000E94F6175E988091C3019091C401181625
:103D100019062CF401979093C4018093C3018091FC
:103D20000001813009F041C50E945B162B013C0166
:103D300050EDC52E57E0D52E10E01C8664E0F62E1F
:103D400006E075E0E72E0E945B16641975096C1594
:103D50007D0508F0D3C387E092E00E944314181653
:103D600019068CF75F9A42E0D42E87E092E00E9419
:103D70004314892B09F4B9C387E092E00E9421140F
:103D8000182F843209F490C3E0914103853234F452
:103D90008A3071F08D3009F094C30AC08A3241F044
:103DA0008C3209F08EC380912E03812780932E03DD
:103DB000EF3008F065C3F0E0E05DFC4F10828091C9
:103DC0002F03882309F438C1209130033FEB320FD1
:103DD000822F022E000C990B363010F4C79707C0C3
:103DE0002156263018F48755910901C0C097282F15
:103DF0002295207F309131034FEB430F832F032E09
:103E0000000C990B463010F4C79707C03156363076
:103E100018F48755910901C0C097820F90912E0325
:103E200089132EC380913F03813001F54091DE025A
:103E30005091DF026091E0027091E1024093DA025A
:103E40005093DB026093DC027093DD024091E60246
:103E50005091E7026091E8027091E9024093E2021A
:103E60005093E3026093E4027093E5029091420361
:103E7000992309F405C340912203509123036091D3
:103E800024037091250340931E0350931F036093F6
:103E900020037093210340912A0350912B036091DA
:103EA0002C0370912D0340932603509327036093B6
:103EB000280370932903882309F464C0813009F032
:103EC000B9C08091DE029091DF02A091E002B09132
:103ED000E1028093DA029093DB02A093DC02B093BC
:103EE000DD028091E6029091E702A091E802B09194
:103EF000E9028093E2029093E302A093E402B0937C
:103F0000E5028091EE029091EF02A091F002B09153
:103F1000F1028093EA029093EB02A093EC02B0933B
:103F2000ED028091F6029091F702A091F802B09113
:103F3000F9028093F2029093F302A093F402B093FB
:103F4000F5028091060390910703A0910803B091B8
:103F500009038093020390930303A0930403B09397
:103F6000050380910E0390910F03A0911003B0916F
:103F7000110380930A0390930B03A0930C03B09357
:103F80000D0358C08091FE029091FF02A0910003A2
:103F9000B09101038093FA029093FB02A093FC027C
:103FA000B093FD028091DE029091DF02A091E002C9
:103FB000B091E1028093DA029093DB02A093DC02DD
:103FC000B093DD028091EE029091EF02A091F00299
:103FD000B091F1028093EA029093EB02A093EC027D
:103FE000B093ED028091F6029091F702A091F80251
:103FF000B091F9028093F2029093F302A093F4023D
:10400000B093F50280911C0390911D0390931B03C4
:1040100080931A038091160390911703A0911803BF
:10402000B09119038093120390931303A093140388
:10403000B093150381E025C260904003611013C066
:104040006FE371E080E393E00E940B07892B09F492
:1040500099C465E471E080E393E00E940B07892B2B
:1040600009F490C47EC420913F03263009F408C2AD
:1040700030913003332309F403C250E2259FC0017D
:104080001124712C862997298434910509F410C1D3
:1040900008F065C08232910509F4D5C058F5853025
:1040A000910509F410C188F48230910509F4D0C05B
:1040B00020F4019709F4B2C0E3C18330910509F4FB
:1040C000DCC0049709F4F4C0DBC18830910509F421
:1040D00045C140F48630910509F42FC1079709F4D2
:1040E00033C1CEC18930910509F443C1819709F4E8
:1040F00095C0C6C18732910509F409C170F48432B4
:10410000910509F4BAC008F4A3C08532910509F4F9
:10411000CFC0869709F4D7C0B3C18134910509F4A3
:104120007DC0A0F48832910509F4FCC0899709F09C
:10413000A7C180E393E00E9408066093E6027093B3
:10414000E7028093E8029093E9029AC182349105D4
:1041500009F47EC08334910509F48FC091C1803980
:10416000910509F440C158F58438910509F43BC123
:1041700078F48634910509F4C1C008F4A4C08734EA
:10418000910509F4E1C08238910509F4FDC078C1B8
:104190008B38910509F430C148F48738910509F44A
:1041A0002BC18838910509F41EC16AC18C3891056C
:1041B00009F419C18F38910509F41EC161C1883A0B
:1041C000910509F410C198F4823A910509F4DCC014
:1041D00028F48339910509F40FC152C1843A91053D
:1041E00009F401C1873A910509F406C149C18F3A22
:1041F000910509F401C148F48B3A910509F4FCC01A
:104200008C3A910509F4EFC03BC1803B910509F45C
:10421000EAC0833B910509F4EFC032C10E94320627
:104220006093DE027093DF028093E0029093E102DC
:104230000E945B16609322037093230380932403F0
:10424000909325031DC181E0313409F079C079C014
:104250000E948C066093EE027093EF028093F0024E
:104260009093F1020E945B1660932A0370932B03D4
:1042700080932C0390932D0303C1333509F000C1C3
:104280008091EE029091EF02A091F002B091F102C4
:10429000B095A095909581959F4FAF4FBF4F80935C
:1042A000EE029093EF02A093F002B093F102E8C007
:1042B0000E948C066093F6027093F7028093F802D6
:1042C0009093F902DDC0373509F0DAC08091F6022B
:1042D0009091F702A091F802B091F902B095A095E3
:1042E000909581959F4FAF4FBF4F8093F60290936B
:1042F000F702A093F802B093F902C2C045E050E083
:1043000060E373E083E493E00E94C928B9C00E948F
:10431000320660930603709307038093080390931B
:104320000903AEC00E94320660930E0370930F0320
:104330008093100390931103A3C081E031330CF4F8
:1043400080E0809342039CC080E393E00E94792B3D
:10435000992790931D0380931C0392C00E943206FC
:1043600060931603709317038093180390931903B7
:1043700087C00E9432066093FE027093FF02809312
:104380000003909301037CC080E393E02F870E9499
:10439000792B81502F85882341F0982F990F990F01
:1043A0002530D9F09093AB036BC0243059F4E9E485
:1043B000F3E0119211921192119293E0E937F9070B
:1043C000C1F7EBCFE9E7F3E011921192119211924C
:1043D00033E0E93AF307C1F7E0CF880F880F845F35
:1043E0008093AB034DC080E393E00E94792B9093C0
:1043F000AA038093A90344C080E393E00E94792B31
:10440000E091AB03F0E0811115C0C301079797FD60
:1044100003969595879595958795E80FF91FEE0F6B
:10442000FF1FEE0FFF1FE75BFC4F1082118212820D
:10443000138226C093012750310937FF02C02D5F38
:104440003F4F3595279535952795E20FF31FEE0FD2
:10445000FF1FEE0FFF1FE75BFC4F9927880F991F87
:104460004091A9034E871D862D853E85822B932B77
:10447000092E000CAA0BBB0B80839183A283B3830C
:1044800080E0909140039F5F90934003109241031E
:1044900091E01A3209F090E090932F03882309F4F9
:1044A00064CC31E03C8761CC109241031092400310
:1044B00010922E0300933F0310922F031092420399
:1044C00054CCEE3040F481E08E0F80934103F0E055
:1044D000E05DFC4F108380912F03811146CC8091C9
:1044E0002E03182710932E0340CC0E945B162B013D
:1044F0003C0111E062E3C62ED12C25CC111102C083
:104500000E94BF0A4090E2025090E3026090E402F1
:104510007090E502C090DA02D090DB02E090DC02FD
:10452000F090DD02C301B201A50194010E94422D69
:10453000613571058105910518F02CE637E002C060
:1045400020ED37E0620F731F7093E4036093E30381
:10455000C301B201A50194010E94422DCA01B90113
:10456000A50194010E94422D6093E103C301B201B1
:1045700020E137E240E050E00E94422D2093E20328
:10458000C701B60120E432E44FE050E00E94422D22
:104590002093EB03C701B60120E137E240E050E091
:1045A0000E94422DCA01B901A50194010E94422D29
:1045B0006093EA03C701B601A50194010E94422D50
:1045C000CA01B901A50194010E94422D6093E9033B
:1045D0004C85442309F4CDC0C090EA02D090EB0290
:1045E000E090EC02F090ED024090F2025090F30265
:1045F0006090F4027090F5025FEFC51659ECD50695
:104600005AE9E5065BE3F50659F0C701B6010E94D9
:10461000A62B20E034E244E759E40E94BC2704C002
:1046200060E070E08AE794E46093C7017093C8018A
:104630008093C9019093CA018FEFC81689ECD80600
:104640008AE9E8068BE3F80659F0C301B2010E943B
:10465000A62B20E034E244E759E40E94BC2704C0C2
:1046600060E070E08AE794E46093CB017093CC0142
:104670008093CD019093CE0180911A0390911B03FA
:104680008F3F910511F0082F01C000E00093E50372
:104690006091FA027091FB028091FC029091FD0200
:1046A0006F3FE9EC7E07EAE98E07EBE39E0749F0EE
:1046B0000E94A62B20E030E048EC52E40E94BC2788
:1046C00004C060E074E284E799E40E9469280E94D3
:1046D0002E289B0177FF04C022273327261B370B88
:1046E0003093F6032093F503609102037091030366
:1046F00080910403909105036F3FF9EC7F07FAE97D
:104700008F07FBE39F07E9F00E94A42B20E030E035
:1047100048EC52E40E94BC276B017C0120E030E0B1
:1047200040E85FEB0E949F2B882389F026E53EE05E
:104730004DEE5FE3C701B6010E94052C6B017C01C1
:1047400006C0C12CD12C50E8E52E5FEBF52EC70139
:10475000B6010E9469280E9435287093ED0360938A
:10476000EC038091E101080F0093E1011092C20176
:1047700005C08091C2018F5F8093C2015F981123B1
:10478000A1F020E030E040E050E065E070E081EF33
:1047900093E00E94A61720E030E040E050E064E0A3
:1047A00070E081EF93E00E94A6172091E101203490
:1047B00040F08091EC039091ED030B9786349105C6
:1047C00030F427FD04C08091C501843B50F08091F6
:1047D000C201811106C080E090E00E94F50E809336
:1047E00000018091C501853B20F48091C201853B89
:1047F00030F085E090E00E94F50E809300018091FA
:10480000C101882329F08091C001882309F4F9C0EF
:1048100080910001811194C02091EE038091EF03FB
:104820009091F003821B91098734910540F081E05B
:1048300090E09093F0038093EF031092EE03809149
:10484000BF01882309F476C07090EE03772009F445
:1048500071C07A947092EE03872D69E50E94F32669
:104860002BE0929F800111247101680138E3C30E8F
:10487000D11C035D1F4FC8010E94C32CF701819317
:104880007F010F5F1F4F0C151D05A9F789819A81C4
:10489000AB81BC818093C7019093C801A093C901EB
:1048A000B093CA018D819E81AF81B8858093CB0181
:1048B0009093CC01A093CD01B093CE01898590E077
:1048C0009093ED038093EC038A859B85009711F408
:1048D00081E090E09093F6038093F5038091EA03E2
:1048E000F4E08F9FC00111242091EB03AC01522B07
:1048F0009A019091E903892F90E044E0959587957E
:104900004A95E1F7822B932B2091F5033091F60322
:104910008217930710F48051984E4091E803471591
:1049200028F4821B930B8137974120F01092EE03FD
:104930001092E80384E090E00E94F50E809300015D
:10494000809100018F3F09F0C7C901E21FEF0150BC
:1049500009F080C086E090E00E94F50E809300018F
:10496000BBC963E671E080E393E00E940B07892BEB
:1049700069F06BE471E080E393E00E940B07892B00
:1049800029F007C081E080933F037ACD10923F0366
:1049900077CD69E671E080E393E00E940B07892BF5
:1049A00019F4D0923F036CCD61E571E080E393E0B0
:1049B0000E940B07892B41F067E571E080E393E0EB
:1049C0000E940B07892B21F493E090933F0358CD6D
:1049D0006FE671E080E393E00E940B07892B19F4E6
:1049E000F0923F034DCD6DE571E080E393E00E94CE
:1049F0000B07892B19F4E0923F0342CD00933F034C
:104A00003FCD1092C1011092ED031092EC03109271
:104A1000F6031092F5031092CB011092CC01109284
:104A2000CD011092CE011092C7011092C8011092D0
:104A3000C9011092CA0189B1887090E09093ED038A
:104A40008093EC0360E083E00E944B0B81E0809355
:104A5000C001DECE81E00E94F617110F182B20E076
:104A600030E040E050E063E070E081EF93E00E94CE
:104A7000A61711116CCF6ECF85E89BEEA1E5B0E4CF
:104A80008093C7019093C801A093C901B093CA0154
:104A900081EE9AE7A0E6B1E48093CB019093CC013C
:104AA000A093CD01B093CE018091E2018F7790E089
:104AB000A0E0B0E023E0880F991FAA1FBB1F2A9532
:104AC000D1F783609C608093CF019093D001A09335
:104AD000D101B093D20195C8CF93DF9310920A020F
:104AE0001092090288EE93E0A0E0B0E080930B0200
:104AF00090930C02A0930D02B0930E0223E131E0DB
:104B0000309308022093070225EC30E03093140222
:104B10002093130224EC30E0309316022093150208
:104B200020EC30E0309318022093170221EC30E0A3
:104B300030931A022093190222EC30E030931C02C9
:104B400020931B0226EC30E030931E0220931D02BE
:104B5000109220021092210210922202109223023F
:104B60001092AF031092AE038093B0039093B10301
:104B7000A093B203B093B30383E291E09093AD03AB
:104B80008093AC031092C3031092C2031092C5032A
:104B90001092C4031092C7031092C6031092C90367
:104BA0001092C8036091CA036E7F6D7F6093CA0341
:104BB0006695617081E0682788E00E94D515E2E97A
:104BC000F1E02491EEE7F1E08491882399F090E000
:104BD000880F991FFC01EE59FE4FA591B491FC017D
:104BE000E85AFE4F859194918FB7F894EC91E22B9F
:104BF000EC938FBFE2E9F1E0E491E093BC03EEE7D0
:104C0000F1E0E491F0E0EE0FFF1FE85AFE4F8591CE
:104C100094919093BE038093BD03EFE8F1E024915B
:104C2000EBE7F1E084918823C1F090E0880F991FB1
:104C3000FC01EE59FE4FC591D491FC01E85AFE4F9C
:104C4000A591B4919FB7F8948881E22FE0958E23C7
:104C500088838C91E823EC939FBF8091CA0381FDE8
:104C600004C061E085E00E94D51585E08093B8031B
:104C7000EFE8F1E0E491E093B903EBE7F1E0E491D0
:104C8000F0E0EE0FFF1FE459FE4F85919491909351
:104C9000BB038093BA031092D4038FEF9FEFDC0124
:104CA0008093CB039093CC03A093CD03B093CE031A
:104CB0008093DA029093DB02A093DC02B093DD02D2
:104CC0001092E2021092E3021092E4021092E502C6
:104CD0004FEF59EC6AE97BE34093EA025093EB0211
:104CE0006093EC027093ED024093F2025093F30252
:104CF0006093F4027093F5024093FA025093FB0222
:104D00006093FC027093FD024093020350930303EF
:104D1000609304037093050340930A0350930B03BD
:104D200060930C0370930D0380931203909313030D
:104D3000A0931403B09315032FEF30E030931B03BF
:104D400020931A0380931E0390931F03A0932003C4
:104D5000B09321038093260390932703A093280305
:104D6000B093290310922E0310922F0386E08093B4
:104D70003F0310924003109241031092420310929D
:104D800030038DE18093BC0280EE9EE2A5E6B2E4A2
:104D90008093D6029093D702A093D802B093D90201
:104DA00084E595EF9093A5028093A402DF91CF91C3
:104DB000089583E291E09093AD038093AC038CEA75
:104DC00093E00C947917DB018F939F930E94F82C4A
:104DD000BF91AF91A29F800D911DA39F900DB29F97
:104DE000900D11240895991B79E004C0991F96171E
:104DF00008F0961B881F7A95C9F780950895AA1B1D
:104E0000BB1B51E107C0AA1FBB1FA617B70710F0B5
:104E1000A61BB70B881F991F5A95A9F780959095E7
:104E2000BC01CD01089597FB072E16F4009407D01E
:104E300077FD09D00E94FF2607FC05D03EF490952F
:104E400081959F4F0895709561957F4F08950F93B9
:104E5000083090F0982F872F762F652F542F432FEF
:104E6000322F22270850F4CF220F331F441F551F23
:104E7000661F771F881F991F0A95B2F70F91089533
:104E80002A0D3B1D4C1D5D1D6E1D7F1D801F911F3A
:104E90000895EE0FFF1F0590F491E02D09945058EE
:104EA000BB27AA270E9467270C94892C0E947B2C81
:104EB00038F00E94822C20F039F49F3F19F426F438
:104EC0000C94782C0EF4E095E7FB0C94722CE92FEF
:104ED0000E949A2C58F3BA17620773078407950744
:104EE00020F079F4A6F50C94BC2C0EF4E0950B2E72
:104EF000BA2FA02D0B01B90190010C01CA01A0012C
:104F00001124FF27591B99F0593F50F4503E68F186
:104F10001A16F040A22F232F342F4427585FF3CFC7
:104F2000469537952795A795F0405395C9F77EF498
:104F30001F16BA0B620B730B840BBAF09150A1F0E1
:104F4000FF0FBB1F661F771F881FC2F70EC0BA0F67
:104F5000621F731F841F48F4879577956795B795EF
:104F6000F7959E3F08F0B0CF9395880F08F09927EA
:104F7000EE0F9795879508950E94D0270C94892C61
:104F80000E94822C58F00E947B2C40F029F45F3F55
:104F900029F00C94722C51110C94BD2C0C94782C8B
:104FA0000E949A2C68F39923B1F3552391F3951B32
:104FB000550BBB27AA2762177307840738F09F5F3A
:104FC0005F4F220F331F441FAA1FA9F335D00E2EA7
:104FD0003AF0E0E832D091505040E695001CCAF714
:104FE0002BD0FE2F29D0660F771F881FBB1F2617D7
:104FF00037074807AB07B0E809F0BB0B802DBF01AE
:10500000FF2793585F4F3AF09E3F510578F00C947C
:10501000722C0C94BD2C5F3FE4F3983ED4F386953C
:1050200077956795B795F7959F5FC9F7880F911D9D
:105030009695879597F90895E1E0660F771F881F89
:10504000BB1F621773078407BA0720F0621B730B3C
:10505000840BBA0BEE1F88F7E09508950E9435285F
:105060006894B1110C94BD2C08950E94A22C88F074
:105070009F5798F0B92F9927B751B0F0E1F0660F1C
:10508000771F881F991F1AF0BA95C9F714C0B1305D
:1050900091F00E94BC2CB1E008950C94BC2C672FB9
:1050A000782F8827B85F39F0B93FCCF3869577958C
:1050B0006795B395D9F73EF4909580957095619575
:1050C0007F4F8F4F9F4F08950E94E12B08F48FEF81
:1050D00008950E94A22CE8F09E37E8F09639B8F4C3
:1050E0009E3848F4672F782F8827985FF9CF8695E8
:1050F0007795679593959539D0F3B62FB1706B0F6F
:10510000711D811D20F487957795679593950C9473
:1051100092280C94AD280C94BD2C0E94E12B880B96
:10512000990B0895882371F4772321F09850872BE9
:10513000762F07C0662311F499270DC09051862B56
:1051400070E060E02AF09A95660F771F881FDAF703
:10515000880F9695879597F908959F3F31F0915064
:1051600020F4879577956795B795880F911D96954B
:10517000879597F9089581E090E0F8940C94732D49
:10518000FB01DC018D91019080190110D9F3990B7D
:105190000895FB01DC014150504048F001900D9210
:1051A0000020C9F701C01D9241505040E0F708951A
:1051B000AEE0B0E0EEEDF8E20C94192D0D891E89F9
:1051C00086E08C831A8309838FEF9FE79E838D830C
:1051D000AE01475E5F4F6F89788DCE0101960E94C8
:1051E000FB282F813885F801E20FF31F10822E96DD
:1051F000E4E00C94352DACE0B0E0E1E0F9E20C9491
:105200000B2D7C016B018A01FC01178216828381C0
:1052100081FFBDC1CE0101964C01F7019381F601DA
:1052200093FD859193FF81916F01882309F4ABC1B0
:10523000853239F493FD859193FF81916F01853219
:1052400029F4B70190E00E94E32AE7CF512C312CDA
:1052500020E02032A0F48B3269F030F4803259F033
:10526000833269F420612CC08D3239F0803339F4F7
:10527000216026C02260246023C0286021C027FD51
:1052800027C030ED380F3A3078F426FF06C0FAE038
:105290005F9E300D1124532E13C08AE0389E300DCE
:1052A0001124332E20620CC08E3221F426FD6BC1F6
:1052B000206406C08C3611F4206802C0883641F4A0
:1052C000F60193FD859193FF81916F018111C1CF0B
:1052D000982F9F7D9554933028F40C5F1F4FFFE368
:1052E000F9830DC0833631F0833771F0833509F0CF
:1052F0005BC022C0F801808189830E5F1F4F442468
:105300004394512C540115C03801F2E06F0E711C0A
:10531000F801A080B18026FF03C0652D70E002C0B7
:105320006FEF7FEFC5012C870E94D82A2C018301E3
:105330002C852F77222E17C03801F2E06F0E711CDA
:10534000F801A080B18026FF03C0652D70E002C087
:105350006FEF7FEFC5012C870E94CD2A2C012C8591
:105360002068222E830123FC1BC0832D90E0481669
:105370005906B0F4B70180E290E00E94E32A3A9423
:10538000F4CFF50127FC859127FE81915F01B701DC
:1053900090E00E94E32A31103A94F1E04F1A51084C
:1053A0004114510471F7E5C0843611F0893639F59E
:1053B000F80127FF07C060817181828193810C5FB2
:1053C0001F4F08C060817181072E000C880B990B5C
:1053D0000E5F1F4F2F76722E97FF09C09095809514
:1053E000709561957F4F8F4F9F4F2068722E2AE0F6
:1053F00030E0A4010E941B2BA82EA81844C08537BA
:1054000029F42F7EB22E2AE030E025C0F22FF97F5A
:10541000BF2E8F36C1F018F4883579F0B4C08037CC
:1054200019F0883721F0AFC02F2F2061B22EB4FEC3
:105430000DC08B2D8460B82E09C024FF0AC09F2F99
:105440009660B92E06C028E030E005C020E130E0CB
:1054500002C020E132E0F801B7FE07C0608171812F
:10546000828193810C5F1F4F06C06081718180E053
:1054700090E00E5F1F4FA4010E941B2BA82EA818BE
:10548000FB2DFF777F2E76FE0BC0372D3E7FA514B8
:1054900050F474FE0AC072FC08C0372D3E7E05C071
:1054A000BA2C372D03C0BA2C01C0B52C34FF0DC067
:1054B000FE01EA0DF11D8081803311F4397E09C0AF
:1054C00032FF06C0B394B39404C0832F867809F0EA
:1054D000B39433FD13C030FF06C05A2CB31418F434
:1054E000530C5B18B32CB31468F4B70180E290E05E
:1054F0003C870E94E32AB3943C85F5CFB31410F4A3
:105500003B1801C0312C34FF12C0B70180E390E09A
:105510003C870E94E32A3C8532FF17C031FD03C05F
:1055200088E790E002C088E590E0B7010CC0832FC7
:10553000867859F031FF02C08BE201C080E237FD6E
:105540008DE2B70190E00E94E32AA51438F4B70178
:1055500080E390E00E94E32A5A94F7CFAA94F401E2
:10556000EA0DF11D8081B70190E00E94E32AA110AD
:10557000F5CF332009F451CEB70180E290E00E94CC
:10558000E32A3A94F6CFF7018681978102C08FEF24
:105590009FEF2C96E2E10C94272DFC0105906150C1
:1055A00070400110D8F7809590958E0F9F1F089539
:1055B000FC016150704001900110D8F780959095E2
:1055C0008E0F9F1F08950F931F93CF93DF93FB01BF
:1055D000238121FD03C08FEF9FEF28C022FF16C05B
:1055E00046815781248135814217530744F4A081B5
:1055F000B1819D012F5F3F4F318320838C932681A2
:1056000037812F5F3F4F3783268310C0EB01092F6F
:10561000182F0084F185E02D0995892BE1F68E8104
:105620009F8101969F838E83812F902FDF91CF9151
:105630001F910F910895FA01AA27283051F12031C6
:1056400081F1E8946F936E7F6E5F7F4F8F4F9F4F16
:10565000AF4FB1E03ED0B4E03CD0670F781F891F58
:105660009A1FA11D680F791F8A1F911DA11D6A0F26
:10567000711D811D911DA11D20D009F468943F91D9
:105680002AE0269F11243019305D3193DEF6CF01D8
:105690000895462F4770405D4193B3E00FD0C9F79E
:1056A000F6CF462F4F70405D4A3318F0495D31FD0B
:1056B0004052419302D0A9F7EACFB4E0A69597955E
:1056C000879577956795BA95C9F700976105710534
:1056D00008959B01AC010A2E06945795479537957E
:1056E0002795BA95C9F7620F731F841F951FA01DD8
:1056F0000895FC0188279927E89421912032E9F345
:10570000293010F02E30C8F32B3241F02D3239F40D
:10571000689404C00E94972B820F911D2191205301
:105720002A30C0F31EF4909581959F4F08957AE03A
:10573000979F902D879F802D910D112408950E9491
:10574000E12B08F481E00895E89409C097FB3EF44A
:1057500090958095709561957F4F8F4F9F4F9923BE
:10576000A9F0F92F96E9BB279395F695879577953C
:105770006795B795F111F8CFFAF4BB0F11F460FFFC
:105780001BC06F5F7F4F8F4F9F4F16C0882311F054
:1057900096E911C0772321F09EE8872F762F05C068
:1057A000662371F096E8862F70E060E02AF09A9503
:1057B000660F771F881FDAF7880F9695879597F9F8
:1057C0000895990F0008550FAA0BE0E8FEEF161692
:1057D0001706E807F907C0F012161306E407F507E5
:1057E00098F0621B730B840B950B39F40A2661F059
:1057F000232B242B252B21F408950A2609F4A140FC
:10580000A6958FEF811D811D08950E94182C0C9480
:10581000892C0E947B2C38F00E94822C20F095234A
:1058200011F00C94722C0C94782C11240C94BD2C37
:105830000E949A2C70F3959FC1F3950F50E0551F6D
:10584000629FF001729FBB27F00DB11D639FAA27D5
:10585000F00DB11DAA1F649F6627B00DA11D661F24
:10586000829F2227B00DA11D621F739FB00DA11D45
:10587000621F839FA00D611D221F749F3327A00DFF
:10588000611D231F849F600D211D822F762F6A2F9B
:1058900011249F5750409AF0F1F088234AF0EE0F00
:1058A000FF1FBB1F661F771F881F91505040A9F72D
:1058B0009E3F510580F00C94722C0C94BD2C5F3FE0
:1058C000E4F3983ED4F3869577956795B795F79569
:1058D000E7959F5FC1F7FE2B880F911D96958795E1
:1058E00097F9089597F99F6780E870E060E0089560
:1058F0009FEF80EC089500240A94161617061806E8
:105900000906089500240A941216130614060506C3
:105910000895092E0394000C11F4882352F0BB0F54
:1059200040F4BF2B11F460FF04C06F5F7F4F8F4FB7
:105930009F4F089557FD9058440F551F59F05F3FF2
:1059400071F04795880F97FB991F61F09F3F79F0A1
:1059500087950895121613061406551FF2CF469523
:10596000F1DF08C0161617061806991FF1CF8695A5
:105970007105610508940895E894BB276627772789
:10598000CB0197F90895F999FECF92BD81BDF89AA0
:10599000992780B50895262FF999FECF1FBA92BD99
:1059A00081BD20BD0FB6F894FA9AF99A0FBE019600
:1059B0000895052E97FB1EF400940E94F02C57FDCD
:1059C00007D00E94422D07FC03D04EF40C94F02C1B
:1059D00050954095309521953F4F4F4F5F4F08951B
:1059E00090958095709561957F4F8F4F9F4F08954B
:1059F0000E94642DA59F900DB49F900DA49F800DD3
:105A0000911D11240895B7FF0C94F82C0E94F82CD6
:105A1000821B930B08952F923F924F925F926F9249
:105A20007F928F929F92AF92BF92CF92DF92EF922E
:105A3000FF920F931F93CF93DF93CDB7DEB7CA1BAF
:105A4000DB0B0FB6F894DEBF0FBECDBF09942A88DA
:105A5000398848885F846E847D848C849B84AA8482
:105A6000B984C884DF80EE80FD800C811B81AA810F
:105A7000B981CE0FD11D0FB6F894DEBF0FBECDBFDA
:105A8000ED010895A1E21A2EAA1BBB1BFD010DC05A
:105A9000AA1FBB1FEE1FFF1FA217B307E407F507DE
:105AA00020F0A21BB30BE40BF50B661F771F881FBA
:105AB000991F1A9469F760957095809590959B0150
:105AC000AC01BD01CF010895A29FB001B39FC001F9
:105AD000A39F700D811D1124911DB29F700D811D1A
