:100000000C94B1010C9495220C94BC220C94E32224
:100010000C940A230C94D9010C94D9010C9431232B
:100020000C94D9010C94C80F0C94232C0C94B52A71
:100030000C94BA110C94D9010C94D9010C94D901E7
:100040000C94D9010C94D9010C94D9010C94D901C8
:100050000C94D9010C94D9010C94D9010C94582317
:100060000C94D9010C94D9010C94D9010C94D901A8
:100070000C94D9010C94D9010C94D9010C94D90198
:100080000C94D9010C94D9010C94D9010C94D90188
:100090000C94F31C0C94D9010C94D9010C94D90143
:1000A0000C94D9010C94D9010C94D901AD24B0243D
:1000B0009F24A324A924D124D124D124B424B82456
:1000C000BC24C224C624D124CC244661696C0053CC
:1000D0006967466F783A20002C206D6F64653D009B
:1000E0002C206261743D002C207370643D002C2034
:1000F0006361703D002C20616C743D002C206C6F9E
:100100006E3D00206C61743D006D73673D002450AE
:100110004D544B3232302C313030302A0024504D87
:10012000544B3331342C302C312C302C312C302C9E
:10013000302C302C302C302C302C302C302C302CDF
:10014000302C302C302C302C302C302A004E65775F
:10015000206669726D776172652E20005573652087
:1001600070657220646179733A004C617374206425
:1001700061793A002000200020004C6F7720426116
:10018000743A200053656E736F724D61783A2000A7
:100190006D62002743202F2050726573733A200050
:1001A00074656D703A20004F4B004661696C0049E0
:1001B0006E6974204D656D733A00667265652052F4
:1001C000616D3A200054656D70206661696C002491
:1001D000504D544B3630352A0025200020426174A2
:1001E000746572793A20004669726D776172652094
:1001F0004869646E5365656B5F76335F32385F477D
:1002000050530A52656C65617365204D61792033E6
:100210003020323031362031373A30303A31300008
:10022000534649443B004154563000415445300048
:1002300053464D002C322C310041542453463D008E
:10024000070605040100080A0B0C0D090000000256
:1002500000090F0000030401000C00000000000072
:10026000000000000000000000000004080201106F
:1002700040804010204080408008020401804020DF
:1002800010020110801020404020040404040403E4
:100290000405020202020403020202020606060626
:1002A00006060404020202040400000000230026E3
:1002B0000029002C002F0000000000250028002B42
:1002C000002E00310000000000240027002A002D2D
:1002D000003000080B0002020201000904000001C6
:1002E000020200000524001001052401010104247C
:1002F00002060524060001070581031000400904D9
:100300000100020A00000007050202400000070584
:10031000830240000012010002EF02014041233637
:1003200080000101020301120100020000004041AF
:1003300023368000010102030141726475696E6F0A
:10034000204C4C430041726475696E6F204C656FA0
:100350006E6172646F0004030904BF09091C38262A
:10036000CE0911241FBECFEFDAE0DEBFCDBF11E012
:10037000A0E0B1E0E8E8F7E602C005900D92A23EE9
:10038000B107D9F724E0A2EEB1E001C01D92A53D6E
:10039000B207E1F713E0C0E6D3E004C02297FE0104
:1003A0000E946C30CA35D107C9F70E946F0D0C94BA
:1003B000B7330C94000081E08093470308950C94B8
:1003C000CC320C94C432CF93DF9300D0CDB7DEB7DC
:1003D0002091D1043091D2042115310511F425ED7D
:1003E00034E0CE010196821B930B0F900F90DF91AA
:1003F000CF910895CF93DF93FC016491EC01219696
:10040000662331F08AE694E00E949526CE01F4CF6F
:10041000DF91CF91089582E085B987E084B918B85B
:1004200084E087B98CE18BB980EC8AB90895CF93C9
:10043000DF93EC011C161D068CF45F9A60E270E0FD
:1004400080E090E00E94D1235F98219799F360E4C7
:1004500070E080E090E00E94D123ECCFDF91CF915B
:10046000089560E270E080E090E00E94D1238BB1BB
:100470008F77909145039295990F990F907C909565
:1004800089238BB960E470E080E090E00E94D12382
:100490002BB120688091450330E4839FC001112473
:1004A000282B2BB908958FEA91E00E94FA0181EA86
:1004B00093E00E94761B42E060E083E092E00E94BD
:1004C000FB1E83E092E00E94491F882351F08AEAD4
:1004D00091E00E94FA018AE694E00E949C2680E066
:1004E000089587EA91E00E94FA018AE694E00E946A
:1004F0009C2681E008950F931F93CF93DF938C0187
:10050000EB010097A1F089EE91E00E941F22BC014F
:1005100089EE91E00E94A11F26E636E646E650E409
:100520000E94892DF80160837183828393832097D1
:10053000C9F089EE91E00E945521AB01BC0189EE22
:1005400091E00E94FB1F24E630E040E050E00E9472
:100550004B303983288381E02037334008F080E036
:1005600080934A0381E0DF91CF911F910F9108950D
:1005700080EA91E00E94FA014091270350912803FC
:100580006091290370912A0322E030E08AE694E02A
:100590000E94952883E991E00E94FA016091250369
:1005A000709126034AE050E08AE694E00E947C279E
:1005B00080E991E00E94FA018AE694E00C949C267E
:1005C000CF9380E290E00E94E101C82F81E290E0A9
:1005D0000E94E101282F30E0322F22272C0F311DFD
:1005E0003093E8012093E70184E891E00E94FA014A
:1005F0006091E7017091E8014AE050E08AE694E0FA
:100600000E947C2784ED93E09093E8018093E701BA
:10061000CF910895CF93DF93D82FC92F682F80E211
:1006200090E00E94DF016C2F81E290E00E94DF01E8
:100630008D2F9C2FDF91CF9108958F929F92AF9233
:10064000BF92CF92DF92EF92FF920F931F93CF93BF
:10065000DF93CDB7DEB7C456D1090FB6F894DEBF2D
:100660000FBECDBF61E08AE00E940B2580E00E94B2
:10067000612464E670E080E090E00E94D12310E005
:1006800083E10E9464249595879595958795282FF9
:100690003981831778F0112369F0FE01319641E02A
:1006A000411749F03191231718F03081321718F4AF
:1006B0004F5FF6CF40E0512F451778F4252F30E0FB
:1006C000FE01E20FF31F6081E1E0F0E0EC0FFD1F9F
:1006D000E20FF31F60835150EFCFE1E0F0E0EC0F49
:1006E000FD1FE40FF11D80831F5F143649F6FE01E4
:1006F000BF969E01295C3F4F80E090E04191840FBE
:10070000911DE217F307D1F79695879590933C03D7
:1007100080933B0304972091E7013091E80128176B
:10072000390730F40E940A039093E8018093E701AF
:10073000E090E701F090E80100E010E060913B03F9
:1007400070913C0380E090E01F921F9220E12F9374
:1007500028E62F93A12CB12C650120E030E0A901FF
:100760000E94A62C4B019B01683640E1740710F4EF
:1007700028E630E1790100E010E09B0143EF8416A8
:100780004DE0940610F022EF3DE040E050E0882775
:1007900099271F921F921F92E4E6EF93A12CB12C90
:1007A00065010E94A62C60933A030FB6F894DEBF51
:1007B0000FBECDBF80914503811103C060910B0135
:1007C00001C061E08AE00E940B2581E092EF89166A
:1007D0009DE0990608F080E0CC59DF4F0FB6F89401
:1007E000DEBF0FBECDBFDF91CF911F910F91FF9064
:1007F000EF90DF90CF90BF90AF909F908F90089533
:10080000BF92CF92DF92EF92FF920F931F93CF93FD
:10081000DF93CDB7DEB72C970FB6F894DEBF0FBECF
:10082000CDBF8091190390911A03A0911B03B09141
:100830001C0389839A83AB83BC8380911D039091B1
:100840001E03A0911F03B09120038D839E83AF836D
:10085000B8878091360389878091520324E0829F74
:10086000C001112420915303922B2091510330E0B9
:1008700044E0359527954A95E1F7822B932B9B878A
:100880008A878CE290E00E94E101B82E8BE0B89E4E
:1008900080011124035D1F4FFE0131967F016E011F
:1008A000FCE0CF0ED11CF70161917F01C8016C877C
:1008B0000E94C4326C85681719F0C8010E94CC32BE
:1008C0000F5F1F4FEC14FD0471F7F8E5FB15A8F05E
:1008D00061E06B0D8CE290E02C960FB6F894DEBFD1
:1008E0000FBECDBFDF91CF911F910F91FF90EF9081
:1008F000DF90CF90BF900C94DF012C960FB6F89448
:10090000DEBF0FBECDBFDF91CF911F910F91FF9042
:10091000EF90DF90CF90BF900895CF92DF92EF924B
:10092000FF920F931F93CF93DF93CDB7DEB72C9732
:100930000FB6F894DEBF0FBECDBF6FEF680F6E012C
:100940008CE0C80ED11C8E010F5F1F4F5DE2E52EBB
:10095000F12CE01AF10AEBE06E9FE00CF11C11247F
:10096000C701800F911F6C870E94C432F8018193E8
:100970008F016C85EC15FD0599F78CE290E00E94E3
:10098000DF0189819A81AB81BC81809319039093A7
:100990001A03A0931B03B0931C038D819E81AF812A
:1009A000B88580931D0390931E03A0931F03B093FB
:1009B0002003898590E090933703809336038A85DE
:1009C0009B8590933903809338032C960FB6F89447
:1009D000DEBF0FBECDBFDF91CF911F910F91FF9072
:1009E000EF90DF90CF9008950F931F93CF93DF93F5
:1009F000CDB7DEB761970FB6F894DEBF0FBECDBF9F
:100A000040912103509122036091230370912403AC
:100A1000DB01CA01E3E1B695A79597958795EA951D
:100A2000D1F7FCE07695679557954795FA95D1F7FC
:100A30004F7755275093370340933603282F237061
:100A4000220F220F1F922F939C0133273695279553
:100A5000369527953F932F931F929F938AE291E0BB
:100A60009F938F938E010F5F1F4F1F930F930E94D1
:100A7000D030B8018AE694E00E9493264091190391
:100A800050911A0360911B0370911C0327E030E022
:100A90008AE694E00E94952888E791E00E94FA0196
:100AA00040911D0350911E0360911F03709120031C
:100AB00027E030E08AE694E00E94952886E791E0FE
:100AC0000E94FA0160913603709137034AE050E0CA
:100AD0008AE694E00E947C2784E791E00E94FA0174
:100AE0004AE050E060913E038AE694E00E94652768
:100AF0000FB6F894DEBF0FBECDBF61960FB6F89467
:100B0000DEBF0FBECDBFDF91CF911F910F91089532
:100B1000CF93C0915403CC2359F180914003C8175F
:100B200009F180E090E00E94E101809340038C177E
:100B3000C9F0803228F460913F0390E00E94DF0109
:100B40006091540380E090E00E94DF0180915403A3
:100B500060E090E00E94DF018091540380934003A5
:100B600010923F0380913F038F5F80933F0302C049
:100B700010923F03CF910895809140039FEF980F0B
:100B80009F3128F460913F0390E00C94DF010895B9
:100B9000CF93DF9380E090E00E94E101813218F46E
:100BA0008093400307C01092400360E080E090E033
:100BB0000E94DF018AE691E00E94FA014AE050E0DB
:100BC000609140038AE694E00E9465278CE591E0FD
:100BD0000E94FA01C1E0D0E0CE010E94E1018093C1
:100BE0003F038F3F31F460E0CE010E94DF0110929D
:100BF0003F034AE050E060913F038AE694E00E94A0
:100C00005E2760E671E08AE694E00E9493262196D2
:100C1000C032D10509F78CE290E00E94E101809397
:100C20003F034AE050E0682F8AE694E00E9465277F
:100C300080913F038A3528F060E08CE290E00E94CA
:100C4000DF018091400390E00E94E10180933F0327
:100C5000DF91CF9108950F931F93CF93DF935E9A07
:100C600082E290E00E94E101C82F83E290E00E94BE
:100C7000E101082F84E290E00E94E101182F85E253
:100C800090E00E94E101D82F0C3139F06CE183E251
:100C900090E00E94DF0191E001C090E0153031F05A
:100CA00065E084E290E00E94DF0191E0D33041F002
:100CB00063E085E290E00E94DF01C33019F40AC0CE
:100CC000C33031F063E082E290E00E94DF0102C0B5
:100CD0009923D1F185E89BEEA1E5B0E48093190357
:100CE00090931A03A0931B03B0931C0383EC95EF1E
:100CF000A0EAB0E480931D0390931E03A0931F030A
:100D0000B093200380913A038F7790E0A0E0B0E0A9
:100D1000C3E0880F991FAA1FBB1FCA95D1F7836034
:100D20009C608093210390932203A0932303B093AC
:100D300024038DE491E00E94FA014CE069E173E044
:100D400080EF92E00E94F8125E98DF91CF911F91A0
:100D50000F910895EF92FF920F931F93CF93DF931C
:100D60001F92CDB7DEB78C01E12CF12CF801249154
:100D7000222349F0622F8AE694E029830E94952677
:100D800029812A3259F480E1E816F10494F461E4EF
:100D900071E08AE694E00E9493260BC0243231F081
:100DA000622F772767FD7095E626F7260F5F1F4FA6
:100DB000DDCF40E150E0B7018AE694E00F90DF918B
:100DC000CF911F910F91FF90EF900C9439271092C3
:100DD0000B0160E08AE00C940B250F931F93CF93D7
:100DE000DF93CDB7DEB768970FB6F894DEBF0FBEBE
:100DF000CDBF809151031F928F93809152031F9218
:100E00008F93809153031F928F93809157038F93F9
:100E1000809156038F93809154031F928F938091FA
:100E200055031F928F9383E491E09F938F938E01DC
:100E30000F5F1F4F1F930F930E94D030B8018AE6B7
:100E400094E00E9493260FB6F894DEBF0FBECDBF8C
:100E500068960FB6F894DEBF0FBECDBFDF91CF917D
:100E60001F910F9108950F931F938091330388234F
:100E700009F470C0809136039091370320913803B4
:100E8000309139038937910558F0233E44E0340707
:100E900060F041E040934B034FEF4093340305C0B3
:100EA0008837910511F010924B03213040E134074F
:100EB00050F0A4E036952795AA95E1F7315F30937D
:100EC00039032093380320913803309139032115D9
:100ED000304230F02FEF3FE1309339032093380355
:100EE0008038910560F0F4E096958795FA95E1F7E2
:100EF000825A9F4F90933703809336030DC08B35F2
:100F0000910550F063E070E00E940130645C7F4F17
:100F100070933703609336038091360390913703C3
:100F20008F37910530F08FE790E0909337038093EF
:100F3000360360914E0270914F0280915002909161
:100F400051022AE530E040E050E00E942930422F73
:100F5000437005C040913D03443008F043E0809168
:100F6000360390913703A0E0B0E01CE0880F991F92
:100F7000AA1FBB1F1A95D1F70091380310913903AE
:100F800020E030E053E1000F111F221F331F5A955C
:100F9000D1F7802B912BA22BB32B00913A030F7723
:100FA00010E020E030E063E0000F111F221F331F2C
:100FB0006A95D1F7802B912BA22BB32B309135035F
:100FC000369536953370832B50E060E070E0EAE0B0
:100FD000440F551F661F771FEA95D1F7842B952B79
:100FE000A62BB72B8093210390932203A093230376
:100FF000B09324031F910F910895CF92DF92EF9247
:10100000FF92C0902103D0902203E0902303F09040
:1010100024030E94ED0689E091E00E94FA014AE073
:1010200050E060913F038AE694E00E945E2783E0EF
:1010300091E00E94FA014091190350911A036091C6
:101040001B0370911C0327E030E08AE694E00E94C5
:1010500095288CEF90E00E94FA0140911D03509179
:101060001E0360911F037091200327E030E08AE6A1
:1010700094E00E94952885EF90E00E94FA01C70154
:10108000B601B3E19695879577956795BA95D1F7AF
:101090004AE050E08AE694E00E947C278EEE90E0E1
:1010A0000E94FA01D701C6012AE0B695A795979547
:1010B00087952A95D1F7BC01637077274AE050E005
:1010C0008AE694E00E947C2787EE90E00E94FA0175
:1010D000D701C6013CE0B695A795979587953A95B7
:1010E000D1F7BC016F7777274AE050E08AE694E0B9
:1010F0000E947C2780EE90E00E94FA01D701C60191
:1011000043E0B695A795979587954A95D1F7BC0189
:101110006F7777274AE050E08AE694E00E947C27C8
:1011200088ED90E00E94FA01B601677077274AE0E7
:1011300050E08AE694E0FF90EF90DF90CF900C941F
:101140008227CF92DF92EF92FF928FEC90E00E9485
:10115000FA010E94A2236B017C010E94A2236C1958
:101160007D0960377741F8F480EF92E00E946112C8
:10117000039791F480EF92E00E943D13AB01BC0114
:1011800020E130E08AE694E00E94982780EF92E028
:101190000E94F51181E010C068EC70E080E090E002
:1011A0000E94D123DACF8AEC90E00E94FA018AE60D
:1011B00094E00E949C2680E0FF90EF90DF90CF901B
:1011C0000895CF92DF92EF92FF92CF93DF93C82FD3
:1011D000D62F5F9A0E943307CC2309F466C0809112
:1011E0004C03882381F065E273E087E293E00E947C
:1011F0007B028091250390912603893E9340A8F0BD
:1012000010924B0312C040E050E060EA71E440935A
:101210002703509328036093290370932A0386E0E1
:1012200094E09093260380932503C43049F5809180
:10123000380390913903892B09F540912703509188
:1012400028036091290370912A0340931903509356
:101250001A0360931B0370931C0360912503709124
:10126000260380E090E00E948B2E60931D03709314
:101270001E0380931F039093200302C00E94F40476
:101280004091210350912203609123037091240324
:10129000487F8C2F8770482B409321035093220363
:1012A000609323037093240322C00E9400044091A2
:1012B000190350911A0360911B0370911C03409312
:1012C0002F035093300360933103709332034091A6
:1012D0001D0350911E0360911F03709120034093E2
:1012E0002B0350932C0360932D0370932E030E94C5
:1012F000FD070E94A2236B017C01CC2361F0809149
:101300004A03882341F05F98DF91CF91FF90EF90DF
:10131000DF90CF90089580914B038111F4CF2D2F52
:101320004CE069E173E080EF92E00E9415120E94A8
:1013300088050E94A2236C197D09683E734018F746
:1013400064E670E080E090E00E94D123F2CF60E09C
:101350008AE00E940B258AE791E00E94FA010E9430
:10136000BC0560E087E00E94E10860E089E00E943F
:101370000B2564EF71E080E090E00C94D12348E00D
:1013800065E080EF92E00E94CE118EE192E00E9433
:10139000AA136DE183E092E00C94271E80EF92E0A7
:1013A0000C94DE11CF92DF92EF92FF9261E08AE01F
:1013B0000E940B250E94A2236B017C010E94A223A4
:1013C0006C197D0960377741F0F48AE694E00E9459
:1013D0006B251816190634F48AE694E00E947B25E2
:1013E0008A9739F064E670E080E090E00E94D123B3
:1013F000E5CF8DE191E00E94AA068EE091E00E9487
:10140000AA0681E005C060E08AE00E940B2580E02A
:10141000FF90EF90DF90CF900895CF9380914D0390
:10142000882309F4F1C083E092E00E94491F8111F2
:10143000EBC083E092E00E94321E9091E501891B8F
:10144000992787FD909597FF03C091958195910904
:10145000833010F0C1E024C083E092E00E94351E8A
:101460009091E401891B992787FD909597FF03C010
:10147000919581959109833068F783E092E00E940D
:10148000381E9091E301891B992787FD909597FF5E
:1014900003C0919581959109C1E0833008F4C0E0C3
:1014A00083E092E00E94321E8093E50183E092E0A7
:1014B0000E94351E8093E40183E092E00E94381E72
:1014C0008093E301CC2309F4A1C09091E50129E0C8
:1014D000290F2331B8F49091E40129E0290F233139
:1014E00028F4893244F5883D44F106C0983D24F43F
:1014F000875F833120F11BC09932CCF0875F833145
:1015000000F115C099324CF09091E401975F93314E
:1015100070F4875F8331B8F00AC0983D44F490912D
:10152000E401975F933118F4875F833170F0109274
:10153000E201C6E00BC0C0E009C0C1E007C0C2E0E4
:1015400005C0C3E003C0C4E001C0C5E08091E20172
:1015500081110CC080913D03811121C0C230F9F48A
:1015600081E08093E2010E9431021BC0813039F496
:1015700080913D03823099F4C33089F40BC08230EE
:1015800071F480913D03833051F4C23019F0C111E0
:1015900006C084E08093E2010E94310202C01092F2
:1015A000E201C0933D038091E201833079F40E940F
:1015B000BC0584E190E00E94170218B817B81BB868
:1015C0001AB815B882E084B91092E2018091E20164
:1015D0008430D1F480913F038A35A0F481E090916A
:1015E0004503891B8093450310924603882331F0FD
:1015F00080910B01811102C00E94D20988E090E025
:101600000E9417021092E20181E001C080E0CF91B8
:101610000895BF92CF92DF92EF92FF920F931F93A4
:10162000CF93DF937C010E941D0381110E94A709C3
:1016300080914503882379F080913A03893108F439
:1016400099C18091460391E0980F909346038033AF
:1016500008F090C102C00E94E706809134038F3FDA
:1016600049F134E0E316F10401F580913E0388234B
:10167000E1F05798909152038AE0890F80935203CA
:101680008C3340F0809153038F5F809353039253C8
:101690009093520380915303883138F01092530392
:1016A000809154038F5F8093540360E08E2D0E94DD
:1016B000E108579A0E940D0AE114F10471F4809137
:1016C000360390913703409740F0809133038111A6
:1016D00004C084E080930A0109C010920A0184E0EA
:1016E000E816F10419F480913E0381111092E6018D
:1016F000B090450334E0E316F10409F05AC080913C
:101700003E03811156C02091E601CAE9D1E0022EC4
:1017100002C0CC0FDD1F0A94E2F7211106C08091B0
:101720005203865F809352030CC081E090E0022E4A
:1017300001C0880F0A94EAF790915303980F909391
:101740005303909152039C3340F0809153038F5F79
:10175000809353039C539093520380915303883199
:1017600038F010925303809154038F5F8093540399
:1017700080915403803238F01092540380915503C5
:101780008F5F80935503809155038D3058F01092F0
:1017900055038091560390915703019690935703F8
:1017A00080935603233008F0E8C02F5F2093E601B2
:1017B000E4C080914903CBE4D0E0C81BD10984E0A8
:1017C000E816F10409F4D9C080910A018111D5C04D
:1017D000B110D3C008E010E08AE694E00E946825CA
:1017E000C12CD12CCC16DD0608F063C020E030E01F
:1017F00040E050E0B80180EA93E00E9472112BB102
:1018000020688091450330E4839FC0011124282B78
:101810002BB980910B01882361F00E941D038091F8
:101820003A03823630F480914503811102C00E9450
:10183000E7060E940D0A882341F180910B0188235D
:1018400019F00E94310206C062E370E080E090E08F
:101850000E94D12380910A018F5F80930A01083092
:10186000110511F4D694C79484E0E816F10449F008
:101870008091450309E010E0B81639F0C0E0D0E0EF
:1018800004C009E010E0C0E0D0E036E2C316D104A5
:1018900049F480910A01811105C084E0E816F10441
:1018A00009F06E013FEFC31AD30A8BB18F738BB966
:1018B00099CF80910A0183303CF481E090914503F7
:1018C000911103C080E001C081E080930A0184E0AF
:1018D000E816F10431F4CC15DD0518F48FEF809390
:1018E0000A0180910A01181664F480914503811160
:1018F00008C010924F0310924E030E94D2098093A9
:101900000B010E94A22360934103709342038093D2
:1019100043039093440310923503109233031092C3
:101920003403109249031092370310923603109239
:1019300039031092380310921D0310921E03109267
:101940001F03109220031092190310921A03109291
:101950001B0310921C0380910A01992787FD909523
:10196000DF91CF911F910F91FF90EF90DF90CF907B
:10197000BF9008951092450370CE09E010E02CCF7F
:101980008F929F92AF92BF92CF92DF92EF92FF928F
:101990000F931F93CF93DF930E94A2236B017C01CF
:1019A00000ED17E0C0E0D0E00E94A2236C197D0991
:1019B0006017710710F58AE694E00E946B251816EF
:1019C0001906A4F40E94A2236B017C015F9A04E62D
:1019D00010E0C1E00BC08AE694E00E947B25682FEE
:1019E0008EE192E00E9436188111D1E08AE694E0FF
:1019F0000E946B25892B79F7D7CFC11102C00E94B5
:101A0000D20968E5862E63E0962E70E5A72E73E076
:101A1000B72EE1E5CE2EE3E0DE2EF2E5EF2EF3E089
:101A2000FF2E03E513E024E533E045E553E066E5EA
:101A300073E08EE192E00E94B719DD23E1F1940199
:101A40004DE153E069E173E08EE192E00E944A19B2
:101A500080915E0290915F028F3F910509F480E0D2
:101A6000809335038EE192E00E94871A0E94A42F92
:101A70000E945A2E9B0177FF04C022273327261B82
:101A8000370B30933903209338038EE192E00E94A4
:101A9000BD1A0E94A42F0E945F2E7093370360939B
:101AA00036038091340390913503890F809334037A
:101AB0001092330305C0809133038F5F809333030B
:101AC0005F988C2FDF91CF911F910F91FF90EF9036
:101AD000DF90CF90BF90AF909F908F9008950E941D
:101AE0000B2464E670E080E090E00E94D1230E9425
:101AF0000B0240E855E260E070E08AE694E00E9464
:101B000032268AE694E00E949C2687EE91E00E94AD
:101B1000FA018AE694E00E949C260E94C8050E9471
:101B2000E0020E941D038CED91E00E94FA014AE060
:101B300050E060913A038AE694E00E945E2789EDC6
:101B400091E00E94FA0160913B0370913C034AE0EE
:101B500050E08AE694E00E94822764E670E080E02C
:101B600090E00E94D1230E94D20980930B01882328
:101B700041F08FEC91E00E94AA0681E090E00E9483
:101B800017020E94530280934D03882371F064EF83
:101B900071E080E090E00E94D1230E940D0A88232A
:101BA00021F082E090E00E94170289EE91E00E940D
:101BB000CA2180934C03882399F064EF71E080E0A0
:101BC00090E00E94D12365E273E087E293E00E94F7
:101BD0007B020E94B80283E090E00E94170208C0D6
:101BE00085EC91E00E94FA018AE694E00E949C262E
:101BF0000E94A108882359F064EF71E080E090E032
:101C00000E94D12384E090E00E94170215C05E9AE2
:101C10008AE694E00E94682564EF71E080E090E03D
:101C20000E94D12360E089E00E940B2568EE73E0FA
:101C300080E090E00E94D1230E942B068AEB91E085
:101C40000E94FA010E94E3014AE050E0BC018AE6EA
:101C500094E00E94392742E050E06BED71E081E0B2
:101C60000E94452210924703109248030E94A2232B
:101C70006093410370934203809343039093440322
:101C8000C1E00E94A2232091410330914203621BD4
:101C9000730B603A7F40C8F05E9A64E670E080E0C3
:101CA00090E00E94D1230E940D0A5E988091490322
:101CB0008F5F809349030E94A22360934103709336
:101CC0004203809343039093440380910A0181303F
:101CD00071F40E94C00C882351F020E030E040E015
:101CE00050E065E070E080EA93E00E94721120917C
:101CF0003403203440F080913603909137030B97E2
:101D00008634910510F427FF0AC0809133038111B6
:101D100006C080E090E00E94090B80930A01809148
:101D200049038E3120F480913303883730F085E009
:101D300090E00E94090B80930A0180914703882359
:101D400021F0809148038823F9F080910A018111E4
:101D50000FC08CE290E00E94E10180933E0381116C
:101D60000E948D0484E090E00E94090B80930A0198
:101D700080910A018F3F09F084CF86E090E00E94B5
:101D8000090B80930A017DCF10924703109237030D
:101D900010923603109239031092380310921D03EB
:101DA00010921E0310921F03109220031092190329
:101DB00010921A0310921B0310921C0360E083E040
:101DC0000E94E108C0934803C0CF20919E03309148
:101DD0009F0328173907B9F490915C0380915D0344
:101DE000981789F0E0915C03F0E0E25AFC4F8081A3
:101DF00020915C0330E02F5F3F4F2F7333272093F8
:101E00005C0390E008958FEF9FEF08951F93CF93A9
:101E1000DF93DC015C968D919C915D97009749F46E
:101E200081E090E013969C938E93129780E090E06F
:101E30003BC05196ED91FC91529750962C91509742
:101E4000322F30951FB75E964C915E9741FB7727F6
:101E500070F941FD6095F8944081772311F0422B91
:101E600001C043234083EC012197F1F748E0508102
:101E700060FF02C0522B01C053235083EC01219715
:101E8000F1F76695415099F78081772311F083230C
:101E900001C0822B80831FBF5C968D919C915D97C2
:101EA0000197F1F781E090E0DF91CF911F910895C4
:101EB000089520919E0330919F032817390771F4EC
:101EC00090915C0380915D03981741F0E0915C0371
:101ED000F0E0E25AFC4F808190E008958FEF9FEF91
:101EE000089520919E0330919F032817390771F4BC
:101EF00080915D0320915C0390E0805C9F4F821B8A
:101F0000910960E470E00E941530089580E090E04F
:101F10000895E0919E03F0919F03E817F90769F493
:101F2000A389B4899C918589809589238C9310928B
:101F30009F0310929E0381E0089580E00895CF935F
:101F4000DF93EC018A8D9B8D892BF1F080919E03AC
:101F500090919F038C179D07B9F0009711F00E9494
:101F6000890F8E8D8E7F8E8F10925D0310925C0391
:101F7000D0939F03C0939E03EB89FC8980819D8948
:101F8000892B808381E001C080E0DF91CF910895AB
:101F90001F920F920FB60F9211242F933F934F93DE
:101FA0005F936F937F938F939F93AF93BF93EF93C1
:101FB000FF93E0919E03F0919F03309709F451C085
:101FC000868DA685B785958581FF04C08C91892370
:101FD00029F447C08C91892309F043C0A389B489AF
:101FE0009C918589809589238C938689978901970F
:101FF000F1F7208D318DA685B785758558E040E0D5
:10200000C9010197F1F7842F90E095958795482FA6
:102010006C91672309F04068515091F7868D81FDDE
:10202000409580915D0390E001968F7399272091F0
:102030005C03281749F0A0915D03B0E0A25ABC4FA1
:102040004C9380935D0303C0868D8160868F828D63
:10205000938D0197F1F7A389B4898C919589892B88
:102060008C93FF91EF91BF91AF919F918F917F9151
:102070006F915F914F913F912F910F900FBE0F90F5
:102080001F90189526E631E0FC01318320830C94E3
:10209000890F1F93CF93DF93EC01162F6E8D6695FA
:1020A000617081E06827812F0E940B2561E0812FFC
:1020B0000E94D224812F90E0FC01E559FD4FE4916C
:1020C000E88BFC01E657FD4FE491F0E0EE0FFF1FB7
:1020D000E954FD4F859194919A8B898BDF91CF9133
:1020E0001F9108951F93CF93DF93EC01162F60E0AB
:1020F000812F0E94D2248E8D81FD04C061E0812F4A
:102100000E940B251C87812F90E0FC01E559FD4FB3
:10211000E491ED87FC01E657FD4FE491F0E0EE0F0E
:10212000FF1FE755FD4F859194919F878E87DF9123
:10213000CF911F910895FF920F931F93CF93DF9339
:10214000EC01F62E522F1B821A8208EE13E020E0DB
:1021500030E00C831D832E833F8386E691E09983D4
:1021600088831F8A1E8A198E188E1B8E1A8E1D8ECA
:102170001C8E8E8D8E7F50FB81F98E8F642FCE0149
:102180000E9449106F2DCE01DF91CF911F910F91C9
:10219000FF900C947210CF93DF93EC019A01AB0186
:1021A0001B8E1A8E198E188E1F8A1E8A60E079E0A7
:1021B0008DE390E00E944B30C9012430310520F0BE
:1021C000B9016350710902C061E070E07D8F6C8FCE
:1021D000EC85F8EFFE0FF43048F062EF6E0F6430DC
:1021E00028F066EE6E0F633008F06FC0B901769587
:1021F00067956431710518F06351710902C061E09F
:1022000070E07F8B6E8B069718F0C901059702C0AE
:1022100081E090E0998F888FC901880F991F820F04
:10222000931F96958795969587958D30910510F01B
:102230000C9702C081E090E09B8F8A8FF43058F0B9
:1022400082EF8E0F843038F0EA51E33008F042C05C
:10225000A8E6B0E041C0A8E6B0E0E8E6F0E08081A2
:1022600081608C932C8538EF320F343040F082EF50
:10227000820F843020F086EE820F833018F48BE6D4
:1022800090E002C080E090E09C8B8B8B343010F4A7
:10229000245009C02E3069F02F3069F0203169F0E8
:1022A000213169F0265181E001C0880F2A95EAF7B3
:1022B00007C088E005C082E003C084E001C081E07F
:1022C0008D8B8C8D9D8D0197F1F7CE01DF91CF9194
:1022D0000C949F0FA0E0B0E0E33008F4BECFE0E044
:1022E000F0E0BDCF4115510529F4EAE7F0E0808127
:1022F0008F7780836A307105B1F063FF02C088E296
:1023000001C088E06770682B88E190E00FB6F89410
:10231000A895809360000FBE60936000E0E6F0E057
:10232000808180648083232B79F483B7817F8460EC
:1023300083BFF89483B7816083BF7894889583B70F
:102340008E7F83BF78940EC083B7817F846083BF04
:10235000F89483B7816083BF7894889583B78E7F24
:1023600083BF7894452B29F4EAE7F0E08081806808
:10237000808308951F920F920FB60F9211248F93AE
:1023800088E10FB6F89480936000109260000FBE51
:102390008F910F900FBE0F901F901895CF93DF93E2
:1023A000EC0120E00E949B104FEF5FEFBA014F8FCE
:1023B00058A369A37AA3DF91CF9108950C9442109A
:1023C0000F931F93CF93DF938C01FB016491EF0177
:1023D0002196662329F0C8010E949526FE01F6CFBA
:1023E000DF91CF911F910F910895CF93DF93EC016F
:1023F0006BE272E00E94E011CE010E949C2662E333
:1024000070E080E090E00E94D12366E272E0CE01AD
:102410000E94E011CE010E949C2662E370E080E001
:1024200090E0DF91CF910C94D123BF92CF92DF92B5
:10243000EF92FF920F931F93CF93DF938C01F62EB1
:10244000E72EC42ED22E69E372E00E94E011BF2C69
:10245000CF2DDE2D8C2F8B198C15B8F47E01688161
:1024600062956F7060636A3308F0695DC8010E940D
:10247000060F2196F70160816F7060636A3308F080
:10248000695DC8010E94060FE5CFDD2029F064E3F5
:1024900072E0C8010E94E011C8010E949C260E94BF
:1024A000A223F801678F70A381A392A381E0DF913B
:1024B000CF911F910F91FF90EF90DF90CF90BF9041
:1024C00008956F927F928F929F92AF92BF92CF9218
:1024D000DF92EF92FF920F931F93CF93DF9300D081
:1024E00000D01F92CDB7DEB77C0140E855E260E036
:1024F00070E00E94CB1060E0C7010E94060F6BE302
:10250000C7010E94060F19821A821B821C821D823B
:102510000E94A2234B015C01CE0101966C0100E0F8
:1025200010E03C010E94A223681979098A099B09DD
:102530006233710581059105A8F4C7010E94710FEE
:10254000181619067CF7C7010E94E50E0430110524
:1025500019F48FEF9FEF0EC0F60181936F010F5FAB
:102560001F4FE0CF62E771E0C3010E94B030892BBA
:1025700081F7C8010F900F900F900F900F90DF918F
:10258000CF911F910F91FF90EF90DF90CF90BF9070
:10259000AF909F908F907F906F9008950F931F93AF
:1025A000CF93DF93EC01CE010E94710F892B89F448
:1025B0000E94A2230F8D18A129A13AA1601B710BC3
:1025C000820B930B613D77408105910560F35F9825
:1025D000EACFCE010E94E50E182FCE010E94E50E33
:1025E000CB97D9F7812FDF91CF911F910F9108954C
:1025F000CF92DF92EF92FF920F931F93CF93DF93CF
:10260000EC01E62ED72EF42E0E94A2236F8F78A322
:1026100089A39AA360E0CE010E94060F60E372E0F6
:10262000CE010E94E0116F2DCE010E94060FCE2C2C
:102630000E2D1D2D802F8C198F1538F4F801619106
:102640008F01CE010E94060FF5CF6BE3CE010E94F1
:10265000060FCE010E94CE128F3429F4CE010E94C3
:10266000CE1281E001C080E0DF91CF911F910F91E8
:10267000FF90EF90DF90CF900895BF92CF92DF92BE
:10268000EF92FF920F931F93CF93DF93CDB7DEB7F7
:1026900028970FB6F894DEBF0FBECDBF8C0160E067
:1026A0000E94060F60E272E0C8010E94E011CE01B4
:1026B00001967C0188E0F70111928A95E9F7C8013B
:1026C0000E94710F892BD9F3B12CC8010E94590FB8
:1026D000CB2CD12CCB9719F4F5E0FB1570F0C80189
:1026E0000E94E50EF701EC0DFD1D8083C8010E94DC
:1026F000710F892BD9F3B394E8CFC8010E94E50E7E
:1027000040E060E070E0CB0122E0C21AD108242F43
:1027100030E02C153D0574F4982F872F762F66270F
:10272000F701E20FF31F2081620F711D811D911DC2
:102730004F5FEDCF28960FB6F894DEBF0FBECDBF2A
:10274000DF91CF911F910F91FF90EF90DF90CF908D
:10275000BF9008950F931F93FC010FEF1FEF980197
:102760000083118322833383108611861286138699
:102770004FEF59EC6AE97BE3408B518B628B738B93
:10278000408F518F628F738F40A351A362A373A3B5
:1027900040A751A762A773A740AB51AB62AB73AB25
:1027A00000AF11AF22AF33AFDC01A05CBF4F8FEFA2
:1027B00090E011969C938E9314960D931D932D93F8
:1027C0003C93139718960D931D932D933C93139759
:1027D00018961C9211961C92509686E08C93119636
:1027E0001C9211961C9211961C92EA5AFF4F10826D
:1027F0001F910F9108952FEB260F862F992787FDA4
:102800009095263010F4C79708956156663018F4F5
:10281000875591090895C09708950F931F93FB0161
:1028200060E070E0CB01019120ED200F2A30A0F490
:10283000AAE0B0E09B01AC010E947030112707FDB7
:102840001095212F312F600F711F821F931F60532E
:10285000710981099109E7CF1F910F9108950F9395
:102860001F93CF93FC01EA5AFF4FC1E020812D3224
:1028700019F0C0E08F0103C08C01095A1F4FB80145
:102880000E940D149B01AC01A4E6B0E00E947030E0
:10289000F801DF01219130ED320F3A30D0F32E32C2
:1028A00069F511962C91119730ED320F3A3030F5D1
:1028B000332727FD3095205331094AE0429F80019C
:1028C000439F100D1124222717FD2095322F600FF2
:1028D000711F821F931F12960C9120ED200F2A303A
:1028E00068F4112707FD109500531109222717FDE1
:1028F0002095322F600F711F821F931FCC2339F058
:1029000090958095709561957F4F8F4F9F4FCF9198
:102910001F910F9108954F925F926F927F928F92C5
:102920009F92AF92BF92CF92DF92EF92FF92CF939E
:10293000DF93EC01CA5ADF4FBE010E940D142B0138
:102940003C0124E630E040E050E00E9429309B0149
:10295000AC0160EA76E881E090E00E94F12F6B0123
:102960007C01FE01819190ED980F9A30D8F38E3260
:1029700019F5EF0180E1882E87E2982EA12CB12C69
:10298000A99180ED8A0F8A30B8F4BB27A7FDB095D6
:10299000D097A50194010E947B30C60ED71EE81E79
:1029A000F91EC501B4012AE030E040E050E00E9489
:1029B000293049015A01E4CFC701B6016D5F7F4F4D
:1029C0008F4F9F4F26E030E040E050E00E942930DA
:1029D00069017A01C301B20124E630E040E050E031
:1029E0000E94293060E472E48FE090E00E94F12FB1
:1029F000C60ED71EE81EF91EC701B601DF91CF91A2
:102A0000FF90EF90DF90CF90BF90AF909F908F900E
:102A10007F906F905F904F900895DB01FA018D9148
:102A2000882319F091918917D1F3992787FD909503
:102A30000895CF92DF92EF92FF920F931F93CF935F
:102A4000DF93EC01FC01EB5AFF4F1081112309F4D5
:102A5000B1C0319660810E94FB13182FFE01E95A24
:102A6000FF4F6081CE010E94FB1350E1159F800D46
:102A70001124FE01EC5AFF4F9081891711F010E0EC
:102A8000EBC2FE01EB59FF4F2081213081F48C8194
:102A90009D81AE81BF8188839983AA83BB838C8506
:102AA0009D85AE85BF8588879987AA87BB87FE01EC
:102AB000E859FF4F1081112311F3B0978081918164
:102AC000A281B381349780839183A283B3833C96A0
:102AD00080819181A281B381349780839183A28385
:102AE000B3832223A1F1213009F0B6C28C819D81EC
:102AF000AE81BF8188839983AA83BB838C859D85A2
:102B0000AE85BF8588879987AA87BB878C899D8971
:102B1000AE89BF89888B998BAA8BBB8B8C8D9D8D41
:102B2000AE8DBF8D888F998FAA8FBB8F8CA59DA5E9
:102B3000AEA5BFA588A799A7AAA7BBA78CA99DA941
:102B4000AEA9BFA988AB99ABAAABBBAB85C28CA120
:102B50009DA1AEA1BFA188A399A3AAA3BBA38C8169
:102B60009D81AE81BF8188839983AA83BB838C8931
:102B70009D89AE89BF89888B998BAA8BBB8B8C8DE5
:102B80009D8DAE8DBF8D888F998FAA8FBB8FFE01D3
:102B9000E05CFF4FDE01AE5BBF4F8D919C91918356
:102BA00080838CAD9DADAEADBFAD88AF99AFAAAF00
:102BB000BBAF52C2FC01EA59FF4FE0808B599F4FD7
:102BC0006C01E11017C07E0196E5E90EF11C41E8A9
:102BD00051E0B701CE010E940D15892B09F4FBC10C
:102BE00047E851E0B701CE010E940D15892B09F489
:102BF000F2C1F3C1FC010081063009F440CFCE01DF
:102C00008A5A9F4FFC014081442309F438CFF0E2F7
:102C10000F9F90011124F12C2E293F2924343105D6
:102C200009F4FEC008F067C02232310509F4CEC0B5
:102C300078F52530310509F4FBC098F422303105D0
:102C400009F4CBC028F42130310509F4B3C004C223
:102C50002330310509F4D1C02430310509F4E0C036
:102C6000FBC12830310509F41DC148F42630310577
:102C700009F40AC12730310509F40EC1EDC129302C
:102C8000310509F417C12132310509F493C0E4C1BB
:102C90002732310509F4E8C078F42432310509F40B
:102CA000ACC008F49AC02532310509F4B9C0263207
:102CB000310509F4BDC0D0C12134310509F47AC011
:102CC00088F42832310509F4D7C02932310509F0DA
:102CD000C3C1BC01CE010E940D146C877D878E8715
:102CE0009F87BAC12234310509F477C023343105F6
:102CF00009F483C0B1C12039310509F418C158F570
:102D00002438310509F413C178F42634310509F467
:102D1000A2C008F48DC02734310509F4BDC02238A3
:102D2000310509F4CFC098C12B38310509F406C12B
:102D300048F42738310509F401C12838310509F470
:102D4000F6C08AC12C38310509F4F1C02F3831059D
:102D500009F4F4C081C1283A310509F4E8C098F4B7
:102D6000223A310509F4AEC028F42339310509F4BB
:102D7000E5C072C1243A310509F4D9C0273A3105BA
:102D800009F4DCC069C12F3A310509F4D7C048F411
:102D90002B3A310509F4D2C02C3A310509F4C7C0E9
:102DA0005BC1203B310509F4C2C0233B310509F466
:102DB000C5C052C1CE010E942F146C837D838E83C7
:102DC0009F830E94A223C85BDF4F12C0C859DF4F08
:102DD00081E0413409F05EC0A8C0CE010E948B148E
:102DE0006C8B7D8B8E8B9F8B0E94A223C05BDF4FF1
:102DF000688379838A839B832FC1433509F03FCE53
:102E00008C899D89AE89BF89B095A0959095819553
:102E10009F4FAF4FBF4F8C8B9D8BAE8BBF8B1CC119
:102E2000CE010E948B146C8F7D8F8E8F9F8F14C16B
:102E3000473509F024CE8C8D9D8DAE8DBF8DB0951C
:102E4000A095909581959F4FAF4FBF4F8C8F9D8FD1
:102E5000AE8FBF8F01C145E050E0BC01CE01875964
:102E60009F4F0E94B930F8C0CE010E942F146CA76A
:102E70007DA78EA79FA7F0C0CE010E942F146CAB38
:102E80007DAB8EAB9FABE8C0C859DF4F81E04133CB
:102E90000CF04BC080E049C00E949230CE5BDF4F07
:102EA000992749C0CE010E942F146CAF7DAF8EAF21
:102EB0009FAFD2C0CE010E942F146CA37DA38EA31E
:102EC0009FA3CAC00E949230815069F0CF52DF4F59
:102ED000982F990F990F9883053009F0D0CD880F5E
:102EE000880F845F22C020E030E0043079F4FE01D6
:102EF000E20FF31FE159FF4F1082118212821382F9
:102F00002C5F3F4F2033310591F7E0CFFE01E20FF8
:102F1000F31FE156FF4F10821182128213822C5F41
:102F20003F4F2033310591F7D1CF888395C00E9460
:102F30009230C153DF4F998388838EC00E949230B4
:102F4000FE01EF52FF4F81111AC0208130E0C7010E
:102F5000079797FD03969595879595958795820F89
:102F6000931F880F991F880F991F8C0F9D1FFC01BD
:102F7000E159FF4F10821182128213826DC040818D
:102F800050E097012750310937FF02C02D5F3F4FB6
:102F90003595279535952795240F351F220F331F1B
:102FA000220F331F2C0F3D1FF901E159FF4FAC01D8
:102FB0005527440F551FC153DF4F80E090E09881A3
:102FC000482B592B662757FD6095762F40835183F8
:102FD0006283738341C081E026C045EA51E0B701B6
:102FE000CE010E940D15892B19F4F601108234C010
:102FF0004DE851E0B701CE010E940D15892B11F467
:1030000082E011C043E951E0B701CE010E940D15E5
:10301000892B41F049E951E0B701CE010E940D151D
:10302000892B21F483E0F601808316C04BEA51E03E
:10303000B701CE010E940D15892B11F484E0F3CF66
:103040004FE951E0B701CE010E940D15892B11F413
:1030500085E0E9CF86E0E7CF812FDF91CF911F9107
:103060000F91FF90EF90DF90CF900895CF92DF9275
:10307000EF92FF920F931F93CF93DF931F92CDB7E1
:10308000DEB76C018C0109591F4F8B5A9F4F7C0191
:10309000643281F12CF46A3069F06D30E9F50AC0D0
:1030A0006A3241F06C32C1F5F601EC5AFF4F808173
:1030B00086278083F80180818F3060F4F601E80F65
:1030C000F11DEA5AFF4F1082C60169830E9419154B
:1030D000698101C080E0F601EA59FF4F90819F5F4E
:1030E0009083F801108291E06A3209F090E0F701D4
:1030F00090832AC0F8011082F601EA59FF4F10822E
:1031000072971082719686E08083F7011082F60133
:10311000E859FF4F108217C0F80180818E3048F4C3
:1031200091E0980F9083F601E80FF11DEA5AFF4FE6
:103130006083F7018081811106C0F601EC5AFF4FD0
:1031400080818627808380E00F90DF91CF911F914F
:103150000F91FF90EF90DF90CF900895CF92DF9284
:10316000EF92FF920F931F93CF93DF93E9016115C5
:10317000710551F0FC01C088D188E288F388FB0119
:10318000C082D182E282F3824115510551F0FC01E7
:10319000C08CD18CE28CF38CFA01C082D182E282A5
:1031A000F382209701F18C01045B1F4FF8018081AD
:1031B0009181A281B3818F3F9F4FAF4FBF4F61F08D
:1031C0000E94A223F8010081118122813381601BBA
:1031D000710B820B930B03C06FEF7FEFCB01688302
:1031E00079838A839B83DF91CF911F910F91FF9009
:1031F000EF90DF90CF900895CF92DF92EF92FF9201
:103200000F931F93CF93DF93E9016115710551F07F
:10321000FC01C084D184E284F384FB01C082D182AA
:10322000E282F3824115510551F0FC01C080D1804A
:10323000E280F380FA01C082D182E282F382209799
:1032400001F18C010C5B1F4FF80180819181A281FB
:10325000B3818F3F9F4FAF4FBF4F61F00E94A223BA
:10326000F8010081118122813381601B710B820B77
:10327000930B03C06FEF7FEFCB01688379838A8361
:103280009B83DF91CF911F910F91FF90EF90DF9083
:10329000CF900895AF92BF92CF92DF92EF92FF92BC
:1032A0000F931F93CF93DF93CDB7DEB728970FB659
:1032B000F894DEBF0FBECDBF5B018A01AE014F5F48
:1032C0005F4FBE016B5F7F4F0E94AE18CD80DE80E6
:1032D000EF80F8848FEFC81689ECD8068AE9E806F3
:1032E0008BE3F80659F0C701B6010E948D2E20E04D
:1032F00034E244E759E40E94F22D04C060E070E03B
:103300008AE794E4F5016083718382839383FFEFFE
:10331000CF16F9ECDF06FAE9EF06FBE3FF0669F0EA
:1033200069817A818B819C810E948D2E20E034E21C
:1033300044E759E40E94F22D04C060E070E08AE79F
:1033400094E4F801608371838283938328960FB697
:10335000F894DEBF0FBECDBFDF91CF911F910F91CB
:10336000FF90EF90DF90CF90BF90AF9008952F9295
:103370003F924F925F926F927F928F929F92AF9205
:10338000BF92CF92DF92EF92FF920F931F93CF9352
:10339000DF93CDB7DEB72A970FB6F894DEBF0FBE26
:1033A000CDBF2B015A87498719019401AE014F5FA8
:1033B0005F4FBE016B5F7F4F0E94FC1841145104A8
:1033C000B9F06D817E818F81988524E630E040E000
:1033D00050E00E942930613571051CF02CE637E081
:1033E00002C020ED37E0620F731FF201718360832A
:1033F00089859A85892BB1F06D817E818F81988531
:1034000034E6432E512C612C712CA30192010E94B1
:103410002930CA01B901A30192010E942930E9852E
:10342000FA8560832114310461F06D817E818F8182
:10343000988520E137E240E050E00E942930F10118
:1034400020830115110561F069817A818B819C814E
:1034500020E432E44FE050E00E942930F80120835C
:10346000E114F104A1F069817A818B819C8120E1D2
:1034700037E240E050E00E942930CA01B90124E659
:1034800030E040E050E00E942930F7016083C11431
:10349000D104A9F069817A818B819C8124E6422E36
:1034A000512C612C712CA30192010E942930CA0178
:1034B000B901A30192010E942930F6016083A11491
:1034C000B10461F069817A818B819C8124E630E0CE
:1034D00040E050E00E942930F50160832A960FB643
:1034E000F894DEBF0FBECDBFDF91CF911F910F913A
:1034F000FF90EF90DF90CF90BF90AF909F908F9014
:103500007F906F905F904F903F902F900895FC01B7
:1035100060A171A182A193A16F3FF9EC7F07FAE945
:103520008F07FBE39F0749F00E948D2E20E030E0DB
:1035300048EC52E40E94F22D089560E074E284E7C2
:1035400099E40895FC0160A571A582A593A56F3F3C
:10355000F9EC7F07FAE98F07FBE39F0749F00E9428
:103560008B2E20E030E048EC52E40E94F22D0895CA
:1035700060E070E080E89FEB0895CF92DF92EF92D9
:10358000FF920E94A21A6B017C0120E030E040E82B
:103590005FEB0E94EE2D882349F026E53EE04DEEDC
:1035A0005FE3C701B6010E94412F04C060E070E0F4
:1035B00080E89FEBFF90EF90DF90CF90089580918F
:1035C000D10390E02091D203821B910908952091AC
:1035D000D2038091D103281750F4E22FF0E0ED528E
:1035E000FC4F808190E02F5F2093D20308958FEFEE
:1035F0009FEF0895E091D2038091D103E81730F452
:10360000F0E0ED52FC4F808190E008958FEF9FEF46
:1036100008950895CF92DF92EF92FF920F931F9338
:10362000CF93DF937C01CB018A012091AD0322234C
:1036300089F0EB016B01C40ED51ECC15DD0569F0D8
:103640006991D701ED91FC910190F081E02DC701C6
:103650000995F3CF642F0E94CA1CC801DF91CF9156
:103660001F910F91FF90EF90DF90CF900895CF932F
:10367000DF931F92CDB7DEB769832091AD0322237C
:10368000D1F02091AE03203240F021E030E0FC0187
:103690003383228380E090E015C08091AF03E82F50
:1036A000F0E0E055FC4F998190838F5F8093AF03EA
:1036B0008093AE0305C061E0CE0101960E94CA1C52
:1036C00081E090E00F90DF91CF910895FC0113828B
:1036D000128248EE53E060E070E0448355836683D5
:1036E000778385EB91E09183808308951092D203D4
:1036F0001092D1031092AF031092AE030C940D1CE4
:1037000081E08093AD036093D0031092AF031092D9
:10371000AE0308950C94801B0F93062F21E0409177
:10372000AE0360EB73E08091D0030E94731C109293
:10373000AF031092AE031092AD030F9108958F92D4
:103740009F92AF92BF92CF92DF92EF92FF920F9330
:103750001F93CF93DF93EC01F62ED42E480159012D
:10376000EE2019F10E94801B1E2D143008F013E08A
:103770001150B8F0E881F98128E0129FB0011124BE
:10378000A501940104C056954795379527956A95EC
:10379000D2F7CA01B9010190F081E02DCE0109955F
:1037A000E7CF60E0CE010E948C1B4D2D413208F026
:1037B00040E22C2D63ED73E08F2D0E942B1C1092A4
:1037C000D2038093D103DF91CF911F910F91FF908E
:1037D000EF90DF90CF90BF90AF909F908F90089523
:1037E000CF92EF920F931F93C22EE12C00E010E0D6
:1037F00098010E949F1B1F910F91EF90CF90089509
:1038000021E00C94F01B21E00C94F01B61E00C947F
:103810008C1B81EA93E00C94661B1092600481E09B
:1038200080935E0410925D0461E082E00E940B25AB
:1038300061E083E00E940B25E9EBF0E080818E7F60
:10384000808380818D7F808388E48093B80085E4C5
:103850008093BC000895413208F043C09091600409
:103860009111FCCF91E09093600420935E042FEFC0
:103870002093F30310923804240F2093370490937D
:103880005F0490915F04880F892B80935F0480917F
:103890005D04813061F410925D0480915F04809337
:1038A000BB008091BC0083FDF8CF85EC01C085EEA4
:1038B0008093BC00809160048130E1F380913804F2
:1038C000841710F44091380429E334E0FB01D90156
:1038D0008A2F821B841718F48D918193F9CF842F3E
:1038E000089580E008950F93413208F04AC0909106
:1038F00060049111FCCF92E09093600400935E0409
:103900009FEF9093F3031092380440933704FB0128
:1039100069E374E0DB019A2F961B941718F49191D8
:103920009D93F9CF10925F0490915F04880F892BCB
:1039300080935F0480915D04813061F410925D0496
:1039400080915F048093BB008091BC0083FDF8CF21
:1039500085EC01C085EE8093BC00222321F080918C
:1039600060048230E1F38091F3038F3F61F0809136
:10397000F303803251F08091F303803341F483E00C
:1039800007C081E005C080E003C082E001C084E0A0
:103990000F910895613298F420916004243089F4E5
:1039A00060931504FC0187E194E0DC012A2F281BB9
:1039B000261718F421912D93F9CF80E0089581E026
:1039C000089582E0089585ED8093BC008091BC004D
:1039D00084FDFCCF10926004089585EC8093BC00B8
:1039E0001092600408951F920F920FB60F92112447
:1039F0002F933F934F935F936F937F938F939F93F7
:103A0000AF93BF93EF93FF938091B900887F803687
:103A100009F49EC078F5883209F45DC090F48031D5
:103A200009F456C038F4882309F4F5C0883009F445
:103A30004FC0F5C0883109F44EC0803209F45FC030
:103A4000EEC0803409F46AC058F4803309F457C0DA
:103A5000883309F0E4C08093F3030E94ED1CDFC0BB
:103A6000803509F44FC0883509F45DC0883409F009
:103A7000D6C0D3C0883909F4C4C0A8F4883709F483
:103A800067C038F4883609F463C0803709F460C031
:103A9000C6C0883809F4B5C0803909F45FC08038E1
:103AA00009F0BDC05BC0803B09F483C038F4803AA4
:103AB00009F466C0883A09F47CC0B1C0803C09F4BE
:103AC000A4C0883C09F4A1C0883B09F487C0A7C002
:103AD00080915F0410C0909138048091370498174A
:103AE00070F5E091380481E08E0F80933804F0E0A7
:103AF000E75CFB4F80818093BB0085EC83C08093A3
:103B0000F3038BC0E091380481E08E0F809338047A
:103B10008091BB00F0E0E75CFB4F8083909138041C
:103B2000809137046BC0E091380481E08E0F809360
:103B300038048091BB00F0E0E75CFB4F808380910C
:103B40005E0481116AC081E080935D0484EA5EC0F6
:103B500083E0809360041092F403CFCF8091F4034C
:103B6000803208F04EC0E091F40381E08E0F809324
:103B7000F4038091BB00F0E0EB50FC4F8083BDCF9D
:103B80000E94ED1C8091F403803230F4E091F40344
:103B9000F0E0EB50FC4F10826091F40370E0E09194
:103BA0005904F0915A0485EF93E009951092F403BB
:103BB00036C084E0809360041092160410921504BD
:103BC000E0915B04F0915C040995809115048111EA
:103BD00005C081E08093150410921704E09116044B
:103BE00081E08E0F80931604F0E0E95EFB4F808148
:103BF0008093BB009091160480911504981708F4E7
:103C00007CCF85E88093BC000AC085EC8093BC0023
:103C10001092600404C01092F3030E94E31CFF9111
:103C2000EF91BF91AF919F918F917F916F915F9134
:103C30004F913F912F910F900FBE0F901F901895AD
:103C4000DC01ED91FC910190F081E02D0994FC01E3
:103C5000608340EE5EE265E672E4478B508F618FD1
:103C6000728F0895FC0183810895FC018481089579
:103C7000FC01858108951F93CF93DF93EC01162FEC
:103C8000688181EA93E00E94801B612F81EA93E0C2
:103C90000E94371B60E081EA93E00E948C1B41E0A8
:103CA000688181EA93E00E94001C81EA93E00E940F
:103CB000DF1A892B29F081EA93E00E94E71A01C0FC
:103CC00080E0DF91CF911F9108951F93CF93DF93F1
:103CD000EC01688181EA93E00E94801B6AE281EA3C
:103CE00093E00E94371B81EA93E00E94061C41E0AA
:103CF000688181EA93E00E94001C81EA93E00E94BF
:103D0000DF1A892B31F081EA93E00E94E71A182F1D
:103D100001C010E0688181EA93E00E94801B6AE2A2
:103D200081EA93E00E94371B612F70E06E7F81EA89
:103D300093E00E94201E81EA93E0DF91CF911F91D2
:103D40000C94061C1F93CF93DF93EC01688181EAEA
:103D500093E00E94801B6AE281EA93E00E94371B95
:103D600081EA93E00E94061C41E0688181EA93E0C9
:103D70000E94001C81EA93E00E94DF1A892B31F037
:103D800081EA93E00E94E71A182F01C010E06881D1
:103D900081EA93E00E94801B6BE270E081EA93E08D
:103DA0000E94201E69E070E081EA93E00E94201EDC
:103DB00081EA93E00E94061C688181EA93E00E94F8
:103DC000801B6AE281EA93E00E94371B8A85882380
:103DD00019F060E070E002C062E070E01163612BF6
:103DE00081EA93E00E94201E81EA93E0DF91CF9167
:103DF0001F910C94061CCF93DF93EC016A874A83D2
:103E00006DE00E943B1E688181EA93E00E94801B66
:103E10006BE270E081EA93E00E94201E60E470E0B3
:103E200081EA93E00E94201E81EA93E00E94061C32
:103E30006AE070E080E090E00E94D123CE010E9411
:103E4000651E688181EA93E00E94801B6EE070E04D
:103E500081EA93E00E94201E8A81843029F0883014
:103E600051F462E070E002C061E070E081EA93E04A
:103E70000E94201E05C060E081EA93E00E94371B8B
:103E800081EA93E00E94061CCE01DF91CF910C9451
:103E9000A21E1F93CF93DF93EC01688181EA93E028
:103EA0000E94801B60E081EA93E00E94371B60E083
:103EB00081EA93E00E948C1B182F8A85882311F0D9
:103EC00047E001C044E0688181EA93E00E94001C61
:103ED00081EA93E00E94DF1A892B71F181EA93E075
:103EE0000E94E71A89838A858823B9F081EA93E0E2
:103EF0000E94E71A81EA93E00E94E71A8B8381EA25
:103F000093E00E94E71A81EA93E00E94E71A8C830B
:103F100081EA93E00E94E71A0AC081EA93E00E94D6
:103F2000E71A8B8381EA93E00E94E71A8C8381EA87
:103F300093E00E94E71A8D83812FDF91CF911F912B
:103F40000895CF92DF92EF92FF92CF93DF93EC012F
:103F50009B0140E050E08E859F85281B390B41096D
:103F60005109AC85BD850E9470306B017C018FE0EA
:103F7000F594E794D794C7948A95D1F76E897F8991
:103F8000882777FD8095982F2BE0660F771F881F75
:103F9000991F2A95D1F7288D398D442737FD4095F3
:103FA000542F2C0D3D1D4E1D5F1D0E944B302C0DBE
:103FB0003D1D4E1D5F1D288339834A835B83CA01E3
:103FC000B901685F7F4F8F4F9F4F34E0959587957C
:103FD000779567953A95D1F70E948D2E20E030E0D5
:103FE00040E251E40E94F22DDF91CF91FF90EF90DB
:103FF000DF90CF9008952F923F924F925F926F92F1
:104000007F928F929F92AF92BF92CF92DF92EF9268
:10401000FF920F931F93CF93DF93CDB7DEB728970F
:104020000FB6F894DEBF0FBECDBF1C014D835E837B
:104030006F837887DC01CD90DD90ED90FC90B0EA45
:10404000CB1ABFE0DB0AE108F108A7019601C7011E
:10405000B6010E94F12F4B015C01F1010481158131
:10406000A085B1850E947B302B013C018DE07594C9
:104070006794579447948A95D1F7A089B189A5018F
:1040800094019CE055954795379527959A95D1F7DA
:104090000E947B30BB2797FDB095AB2F480E591E71
:1040A0006A1E7B1EF2E04F0E511C611C711C32E037
:1040B00075946794579447943A95D1F780E8580ED1
:1040C000611C711CF101A285B385A30192010E94BC
:1040D0007030DC01CB014FE0B695A7959795879599
:1040E0004A95D1F789839A83AB83BC8328016624E0
:1040F00057FC6094762C52E0440C551C661C771CCF
:104100005A95D1F7A289B389A50194010E947B3009
:104110004B015C0167E1B594A794979487946A95E5
:10412000D1F7A681B781A70196010E947B30EBE011
:104130009595879577956795EA95D1F7860E971EA1
:10414000A81EB91E480C591C6A1C7B1C92E0490E23
:10415000511C611C711CF2E075946794579447944C
:10416000FA95D1F78D819E81AF81B8858419950923
:10417000A609B7098D839E83AF83B887A0E5B3EC0A
:104180002D813E814F8158850E94703097FD0DC072
:10419000660F771F881F991F29813A814B815C81A7
:1041A0000E94293049015A010CC029813A814B8172
:1041B0005C810E94293049015A01880C991CAA1C73
:1041C000BB1C9927B7FC9A958B2D7A2D692D9B01E5
:1041D000AC010E94F12F9B01AC01AEEDBBE00E944F
:1041E00070306C01FF24D7FCF094EF2CA3E4B3EE05
:1041F000A50194010E947E30BB2797FDB095AB2F9F
:10420000C80ED91EEA1EFB1E9FECC90E9EE0D91EE9
:10421000E11CF11CF4E0F594E794D794C794FA9567
:10422000D1F7C80CD91CEA1CFB1CC701B6012896A3
:104230000FB6F894DEBF0FBECDBFDF91CF911F91B7
:104240000F91FF90EF90DF90CF90BF90AF909F9035
:104250008F907F906F905F904F903F902F90089538
:10426000CF93C62F67E770E081EA93E00E948A1B34
:104270006C2F81EA93E00E94371B81EA93E00E9451
:10428000061C41E050E067E770E081EA93E00E949D
:10429000031C81EA93E00E94DF1A892BD1F381EAA3
:1042A00093E00E94E71ACF9108950F931F93CF9345
:1042B000DF93EC0167E770E081EA93E00E948A1BDC
:1042C00064EF70E081EA93E00E94201E64E370E0F6
:1042D00081EA93E00E94201E81EA93E00E94061C7E
:1042E00065E070E080E090E00E94D12366EFCE01AF
:1042F0000E943021182F67EFCE010E943021082F35
:1043000068EFCE010E943021402F50E060E070E065
:10431000762F652F542F4427612B9927872F762FCF
:10432000652FDF91CF911F910F9108951F93CF9328
:10433000DF93162F67E770E081EA93E00E948A1B03
:10434000612F81EA93E00E94371B81EA93E00E948B
:10435000061C42E050E067E770E081EA93E00E94CB
:10436000031C81EA93E00E94DF1A0297D4F381EAEA
:1043700093E00E94E71A182F81EA93E00E94E71A5F
:10438000D12F20E0C22F9E01282BC901DF91CF91B0
:104390001F910895CF93DF93EC0181EA93E00E948F
:1043A000761B6AEACE010E9496219D838C836CEA7B
:1043B000CE010E9496219F838E836EEACE010E94D9
:1043C00096219987888760EBCE010E9496219B8772
:1043D0008A8762EBCE010E9496219D878C8764EBD1
:1043E000CE010E9496219F878E8766EBCE010E94A8
:1043F0009621998B888B68EBCE010E9496219B8B2E
:104400008A8B6AEBCE010E9496219D8B8C8B6CEB84
:10441000CE010E9496219F8B8E8B6EEBCE010E9467
:104420009621998F888F60EDCE010E94302191E016
:10443000853509F090E0892FDF91CF910895CF93D2
:10444000DF93EC0167E770E081EA93E00E948A1B4A
:1044500064EF70E081EA93E00E94201E6EE270E05B
:1044600081EA93E00E94201E81EA93E00E94061CEC
:1044700065E070E080E090E00E94D12366EFCE011D
:10448000DF91CF910C9496210895853008F04CC0AF
:10449000E82FF0E0EE0FFF1FE45FFE4F71836083B3
:1044A0008230E1F018F4813069F004C0833019F1F2
:1044B000843071F1809169008C7F842B8093690036
:1044C000E89A089580916900440F551F440F551FC5
:1044D000837F842B80936900E99A08958091690015
:1044E00034E0440F551F3A95E1F78F7C842B80937D
:1044F0006900EA9A08958091690026E0440F551FEB
:104500002A95E1F78F73842B80936900EB9A0895C5
:1045100080916A0094E0440F551F9A95E1F78F7CD3
:10452000842B80936A00EE9A08951F920F920FB623
:104530000F9211242F933F934F935F936F937F9329
:104540008F939F93AF93BF93EF93FF93E0910C01F1
:10455000F0910D010995FF91EF91BF91AF919F915E
:104560008F917F916F915F914F913F912F910F901C
:104570000FBE0F901F9018951F920F920FB60F92BB
:1045800011242F933F934F935F936F937F938F9358
:104590009F93AF93BF93EF93FF93E0910E01F09140
:1045A0000F010995FF91EF91BF91AF919F918F916D
:1045B0007F916F915F914F913F912F910F900FBE1F
:1045C0000F901F9018951F920F920FB60F92112403
:1045D0002F933F934F935F936F937F938F939F930B
:1045E000AF93BF93EF93FF93E0911001F09111010E
:1045F0000995FF91EF91BF91AF919F918F917F911D
:104600006F915F914F913F912F910F900FBE0F903F
:104610001F9018951F920F920FB60F9211242F938F
:104620003F934F935F936F937F938F939F93AF933A
:10463000BF93EF93FF93E0911201F091130109955D
:10464000FF91EF91BF91AF919F918F917F916F916A
:104650005F914F913F912F910F900FBE0F901F9040
:1046600018951F920F920FB60F9211242F933F931C
:104670004F935F936F937F938F939F93AF93BF936A
:10468000EF93FF93E0911401F09115010995FF91CB
:10469000EF91BF91AF919F918F917F916F915F91BA
:1046A0004F913F912F910F900FBE0F901F90189533
:1046B0001F920F920FB60F9211242F933F938F9357
:1046C0009F93AF93BF938091620490916304A091F4
:1046D0006404B09165043091610423E0230F2D3709
:1046E00020F40196A11DB11D05C026E8230F0296F6
:1046F000A11DB11D20936104809362049093630413
:10470000A0936404B093650480916604909167045B
:10471000A0916804B09169040196A11DB11D809318
:10472000660490936704A0936804B0936904BF91F2
:10473000AF919F918F913F912F910F900FBE0F904E
:104740001F9018952FB7F8946091620470916304DC
:1047500080916404909165042FBF08953FB7F89449
:104760008091660490916704A0916804B0916904F7
:1047700026B5A89B05C02F3F19F00196A11DB11DBC
:104780003FBF6627782F892F9A2F620F711D811DD9
:10479000911D42E0660F771F881F991F4A95D1F738
:1047A00008958F929F92AF92BF92CF92DF92EF9235
:1047B000FF926B017C010E94AE234B015C01C1148E
:1047C000D104E104F104F1F00E94ED2C0E94AE232B
:1047D000681979098A099B09683E7340810591052A
:1047E00070F321E0C21AD108E108F10888EE880EC2
:1047F00083E0981EA11CB11CC114D104E104F10492
:1048000029F7DDCFFF90EF90DF90CF90BF90AF9072
:104810009F908F900895789484B5826084BD84B50C
:10482000816084BD85B5826085BD85B5816085BDAB
:10483000EEE6F0E0808181608083E1E8F0E01082C4
:10484000808182608083808181608083E0E8F0E005
:10485000808181608083E1E9F0E0808182608083F3
:10486000808181608083E0E9F0E0808181608083E5
:10487000E1ECF0E0808184608083808182608083CD
:10488000808181608083E3ECF0E0808181608083BF
:10489000E0ECF0E0808182608083E2ECF0E08081F7
:1048A00081608083EAE7F0E080818460808380819A
:1048B0008260808380818160808380818068808342
:1048C0000895809316010895823108F08251E82FEF
:1048D000F0E0E05CFD4FE49180917B00E3FB222758
:1048E00020F930E095E0220F331F9A95E1F78F7D94
:1048F000822B80937B00E7708091160120E4829FD9
:10490000C0011124E82BE0937C0080917A00806440
:1049100080937A0080917A0086FDFCCF80917800A8
:104920002091790090E0922B089590E0FC0131975E
:10493000EF30F105B0F5EA5AFF4F0C946A308091E0
:1049400080008F7703C0809180008F7D80938000EE
:10495000089580918000877FF9CF84B58F7702C05A
:1049600084B58F7D84BD0895809190008F7707C0B6
:10497000809190008F7D03C080919000877F80930D
:10498000900008958091C0008F7703C08091C0008F
:104990008F7D8093C00008958091C200877F8093AF
:1049A000C2000895CF93DF9390E0FC01E559FD4FDD
:1049B0002491FC01E657FD4F8491882349F190E052
:1049C000880F991FFC01EB53FD4FA591B4918954B9
:1049D0009D4FFC01C591D4919FB7611108C0F89417
:1049E0008C91209582238C93888182230AC0623027
:1049F00051F4F8948C91322F309583238C938881D5
:104A0000822B888304C0F8948C91822B8C939FBF57
:104A1000DF91CF9108950F931F93CF93DF931F9250
:104A2000CDB7DEB7282F30E0F901E45BFD4F84916C
:104A3000F901E559FD4F1491F901E657FD4F049135
:104A40000023C9F0882321F069830E94952469819D
:104A5000E02FF0E0EE0FFF1FE954FD4FA591B49158
:104A60009FB7F8948C91611103C01095812301C008
:104A7000812B8C939FBF0F90DF91CF911F910F914E
:104A80000895CF93DF931F92CDB7DEB76983DC0122
:104A9000ED91FC910280F381E02D41E050E0BE01F8
:104AA0006F5F7F4F09950F90DF91CF910895CF935E
:104AB000DF93EC018C859D8597FF05C082E00E9405
:104AC00085299D878C878C859D85DF91CF91089561
:104AD00083E00C94192CFC018485958597FD06C014
:104AE00082E00E942D2990E00196089582E00E94C4
:104AF0002D2990E00895FC018485958597FD05C0DA
:104B00002FEF3FEF35872487089582E00C948529A5
:104B1000CF93DF93EC0180912201882331F083E071
:104B20000E94B6291816190634F081E090E09B83A4
:104B30008A8380E090E0DF91CF910895FC0120818D
:104B40002E5F208342E450E063ED72E080E80C9435
:104B5000512AFC0121818081813A59F4213209F0E6
:104B60004BC047E050E06BE171E080E00E94512AC9
:104B70005EC0813209F040C0233289F4838190E025
:104B8000982F88273281832BA0E0B0E08093170113
:104B900090931801A0931901B0931A010FC020320D
:104BA00039F467E070E08BE191E00E94822A09C04D
:104BB000223221F482818093220103C02D7F203292
:104BC000B1F58091BA04811103C0E0E0F8E002C0C1
:104BD000EEEFFAE080911B0190911C01A0911D0164
:104BE000B0911E01803B9440A105B10511F5809163
:104BF000220180FF03C01DC080E00895EE3F2AE03F
:104C0000F20731F0808191819093FF0A8093FE0A30
:104C100087E797E7918380832BE088E190E00FB6E8
:104C2000F894A895809360000FBE2093600081E007
:104C3000089588E10FB6F8948093600010926000A8
:104C40000FBEA895EE3F8AE0F80739F08091FE0A82
:104C50009091FF0A91838083EACF1092FF0A10920D
:104C6000FE0AE5CF2FEF3FEFFC013587248708953B
:104C700010926D0410926C0488EE93E0A0E0B0E016
:104C800080936E0490936F04A0937004B0937104AA
:104C900085EC91E090936B0480936A048FEF9FEF13
:104CA00090937704809376040895CF92DF92EF92E9
:104CB000FF920F931F93CF93DF937C016A01EB0167
:104CC00000E010E00C151D0571F06991D701ED9120
:104CD000FC910190F081E02DC7010995892B19F015
:104CE0000F5F1F4FEFCFC801DF91CF911F910F9141
:104CF000FF90EF90DF90CF9008956115710581F0DE
:104D0000DB010D900020E9F7AD0141505109461B30
:104D1000570BDC01ED91FC910280F381E02D0994A9
:104D200080E090E008950C947D26DC01ED91FC91EB
:104D30000190F081E02D099461ED71E00C947D26E5
:104D40008F929F92AF92BF92DF92EF92FF920F935A
:104D50001F93CF93DF93CDB7DEB7A1970FB6F8942B
:104D6000DEBF0FBECDBF7C01F42FD52ECB0119A223
:104D7000223008F42AE08E010F5D1F4F822E912C05
:104D8000A12CB12C6F2F7D2DA50194010E942930FB
:104D9000F22FD32ECA01015011096A3014F4E0E356
:104DA00001C0E7E3E60FD801EC93232B242B252B3E
:104DB00049F7B801C7010E947D26A1960FB6F89465
:104DC000DEBF0FBECDBFDF91CF911F910F91FF903E
:104DD000EF90DF90BF90AF909F908F900895CF920B
:104DE000DF92EF92FF920F931F93CF93DF93EC012B
:104DF0006A017B012115310579F4E881F98101907F
:104E0000F081E02D642FDF91CF911F910F91FF90E2
:104E1000EF90DF90CF9009942A303105E9F477FFC5
:104E20001AC06DE20E9495268C0144275527BA01CD
:104E30004C195D096E097F092AE0CE010E94A02667
:104E4000800F911FDF91CF911F910F91FF90EF90F5
:104E5000DF90CF9008952AE0B701A601CE01DF913F
:104E6000CF911F910F91FF90EF90DF90CF900C9416
:104E7000A0260F931F93CF93DF93EC019A01AB0110
:104E8000662757FD6095762F0E94EF268C01CE0194
:104E90000E949C26800F911FDF91CF911F910F914F
:104EA00008952115310541F4DC01ED91FC9101904B
:104EB000F081E02D642F09940C94A0269A01462FCE
:104EC00050E060E070E00C9451270F931F93CF9354
:104ED000DF93EC019A01462F50E060E070E00E9401
:104EE00051278C01CE010E949C26800F911FDF91DB
:104EF000CF911F910F9108959A01AB0160E070E08E
:104F00000C9451270F931F93CF93DF93EC019A01D9
:104F1000AB0160E070E00E9451278C01CE010E943D
:104F20009C26800F911FDF91CF911F910F910895C3
:104F30000F931F93CF93DF93EC010E9451278C01B5
:104F4000CE010E949C26800F911FDF91CF911F916F
:104F50000F9108954F925F926F927F928F929F92DE
:104F6000AF92BF92CF92DF92EF92FF920F931F9377
:104F7000CF93DF93EC016A017B01B22E9A01AB0162
:104F8000C701B6010E94C42F882319F064ED71E0B7
:104F900027C026013701E89477F82FEF3FEF4FE75E
:104FA0005FE7C301B2010E94C42F81110DC02FEF32
:104FB0003FEF4FE75FE7C301B2010E94EE2D1816E5
:104FC0001CF468ED71E00CC02FEF3FEF4FE75FE49A
:104FD000C701B6010E943D2F1816ACF46CED71E0CC
:104FE000CE01DF91CF911F910F91FF90EF90DF9055
:104FF000CF90BF90AF909F908F907F906F905F9079
:105000004F900C947D262FEF3FEF4FE75FECC701E9
:10501000B6010E94EE2D87FDE1CF20E030E0A9012E
:10502000C701B6010E94EE2D87FF0AC06DE2CE01D6
:105030000E9495268C01F7FAF094F7F8F09402C0DC
:1050400000E010E0A12C60E070E080E09FE3AB1492
:1050500041F020E030E040E251E40E94F22DA394C0
:10506000F6CF9B01AC01C701B6010E948A2D6B01EE
:105070007C010E945F2E2B013C010E948B2E9B0124
:10508000AC01C701B6010E94892D6B017C012AE0A9
:10509000B301A201CE010E94A026080F191FBB2058
:1050A00039F060EE71E0CE010E947D26080F191FD5
:1050B0007B2C772041F120E030E040E251E4C70151
:1050C000B6010E94412F6B017C010E945A2E4B01B8
:1050D000AA2497FCA094BA2C2AE030E0B501A401E0
:1050E000CE010E94EF26080F191FC501B4010E94CE
:1050F0008D2E9B01AC01C701B6010E94892D6B0169
:105100007C017A94D6CFC801DF91CF911F910F9186
:10511000FF90EF90DF90CF90BF90AF909F908F90D7
:105120007F906F905F904F9008950C94AA276150E4
:1051300030F02091F100FC0120830196F8CF2898EF
:1051400084E68093C30408954091BE045091BF0447
:105150002091BC043091BD0442175307B4F49091E0
:10516000E8009570E1F39091E80092FD19C08093FA
:10517000F1008091BE049091BF0401968F7399272E
:10518000892B19F48EEF8093E8008091BE049091F2
:10519000BF0401969093BF048093BE0481E00895FC
:1051A00080E00895CF92DF92EF92FF920F931F93CA
:1051B000CF93DF931F92CDB7DEB7082F162FF42EB3
:1051C000862F880F8E5F99830E94A42883E00E9417
:1051D000A428E02EC02E9981D92E8C2D8E198117EE
:1051E00098F4F601F7FE02C0849101C080810E940C
:1051F000A428082F80E00E94A4288023FFEFCF1A64
:10520000DF0A8111EACF01C081E00F90DF91CF91D9
:105210001F910F91FF90EF90DF90CF900895CF9363
:10522000DF931F92CDB7DEB71982CE0101960E949F
:105230009E250E94752DBE016F5F7F4F0E94EE2C50
:1052400089810F90DF91CF9108952FB7FC012083C2
:10525000F89467706093E9000895CF93DF931F92ED
:10526000CDB7DEB7682FCE0101960E942529809127
:10527000F20099819FBF0F90DF91CF910895FF9227
:105280000F931F93CF93DF9300D0CDB7DEB7F62EE9
:105290008A019091C204992311F057FF03C08FEF48
:1052A0009FEF2BC0682FCE0101967A830E9425299B
:1052B0008091F20090E0A8017A81801791070CF4A8
:1052C000AC01EF2DF72FF40E84E6FE1639F0289886
:1052D0008093C3049091F1009193F7CF411551054C
:1052E00021F08091F200882321F089818FBFCA01CB
:1052F00004C08BE68093E800F8CF0F900F90DF9109
:10530000CF911F910F91FF900895CF93DF931F923C
:10531000CDB7DEB741E050E0BE016F5F7F4F0E9426
:105320003F29019719F4898190E002C08FEF9FEF28
:105330000F90DF91CF910895CF93DF931F92CDB758
:10534000DEB7682FCE0101960E9425299091E800D2
:10535000892F807295FF04C09091F20080E4891B30
:1053600099819FBF0F90DF91CF9108956F927F92A7
:105370008F929F92AF92BF92CF92DF92EF92FF9265
:105380000F931F93CF93DF931F92CDB7DEB7782E85
:105390007B01C42EB52E8091C204882369F0042FAE
:1053A000152F8AEFD82E872D8072982E9AE3A92E7A
:1053B000872D8074882E11C08FEF9FEF57C0872DE7
:1053C0000E949C29682E81110CC0DA94A9F361E037
:1053D00070E080E090E00E94D1230115110579F77B
:1053E0003BC0282F30E0021713070CF4602E672D06
:1053F000CE0101960E9425298091E80085FF29C0F1
:10540000262D30E0021B130B992039F06A948FEFA0
:105410006816B1F01092F100F9CFF701862D77FEF2
:1054200007C0815058F094919093F1003196F9CFD4
:10543000815020F091919093F100FACFE20EF31E8B
:105440008091E80085FF0FC00115110511F481104E
:105450000AC089818FBFC1CF5D9884E68093C40460
:105460008C2D9B2D03C0A092E800F3CF0F90DF910D
:10547000CF911F910F91FF90EF90DF90CF90BF9051
:10548000AF909F908F907F906F9008951092E90059
:105490001092BF041092BE049093BD048093BC048C
:1054A0000895CF92DF92FF920F931F93CF93DF93D4
:1054B00000D0CDB7DEB7F82E8A016B0101151105BA
:1054C000B1F0F601F7FE02C0849101C080814983EA
:1054D0005A830E94A42801501109FFEFCF1ADF0A56
:1054E00049815A818111EACF8FEF9FEF01C0CA0134
:1054F0000F900F90DF91CF911F910F91FF90DF9050
:10550000CF900895BF92CF92DF92EF92FF920F93C8
:105510001F93CF93DF936C018B01EB013BEFB32E15
:105520002097C1F07E01C134D1051CF020E4E22EA9
:10553000F12C8091E80082FFFCCFC8018C1B9D0BF1
:105540006E2D8C0D9D1D0E949728B092E800CE19FB
:10555000DF09E6CFC801DF91CF911F910F91FF9036
:10556000EF90DF90CF90BF9008951F920F920FB6EB
:105570000F921124DF92EF92FF920F931F932F93BC
:105580003F934F935F936F937F938F939F93AF93CB
:10559000BF93EF93FF93CF93DF93CDB7DEB76C97B5
:1055A000DEBFCDBF1092E9008091E80083FF23C1E8
:1055B00068E0CE0145960E94972882EF8093E8002C
:1055C0003D8937FF05C08091E80080FFFCCF03C014
:1055D0008EEF8093E800832F807609F0F0C02E894B
:1055E0004F89D88C21110CC0303829F48091C10426
:1055F0008093F10002C01092F1001092F100F4C00B
:10560000842F90E09D29213049F43111EDC001979C
:1056100009F0EAC08091C1048D7F0AC0233059F49B
:105620003111E2C0019709F0DFC08091C1048260AE
:105630008093C104D9C0253041F48091E80080FFF7
:10564000FCCF40684093E300CFC0263009F08DC006
:10565000EB8CFC8C22E0D2122CC080E090E00E9407
:10566000462A0E940F2999E08E010F5F1F4FF80113
:10567000292F11922A95E9F79983DA8291E09E8386
:1056800090EA98879AEF99872091BE043091BF04E1
:10569000275F3F4F3C832B838D83C7010E94462A9F
:1056A00049E050E0B80180E00E94512A0E940F2991
:1056B0009BC0C7010E94462A0E94752DBE016B5EE9
:1056C0007F4F0E94172D009719F00CF08DC090C0ED
:1056D00081E0D8120EC08B8D9C8D089719F481E063
:1056E0008093BB048091BB0481112FC067E273E0FB
:1056F00031C0E3E0DE127CC08F89882349F182301B
:1057000029F440E860E185E493E01CC0813029F48D
:1057100040E86BE089E393E015C0833009F068C08E
:105720000E94752D8E010F5F1F4FB8010E94362D0C
:10573000F80101900020E9F73197E01BF10B40E000
:105740006E2FC8010E94D2284DC065E173E002C0EF
:1057500066E573E06115710509F44AC0FB014491E7
:1057600050E080E80E94512A3FC0273009F440C031
:10577000283021F481E08093F10036C02930A1F572
:105780003370B1F5E4E2F1E081E021E036E39081AD
:10579000992361F08093E9002093EB00919190931D
:1057A000EC003093ED008F5F873089F78EE78093B0
:1057B000EA001092EA008F898093C20415C08B8D95
:1057C0009C8D0E94462A898D811105C0CE01459687
:1057D0000E94A92507C00E94752DBE016B5E7F4FF8
:1057E0000E94552D882321F08EEF8093E80003C09E
:1057F00081E28093EB006C960FB6F894DEBF0FBE8B
:10580000CDBFDF91CF91FF91EF91BF91AF919F916C
:105810008F917F916F915F914F913F912F911F9148
:105820000F91FF90EF90DF900F900FBE0F901F90A1
:1058300018958093E9008091F200882319F08AE39B
:105840008093E80008951F920F920FB60F921124D3
:105850002F933F934F935F936F937F938F939F9378
:10586000AF93BF93CF93EF93FF93C091E1008091EB
:10587000E100837F8093E1008093E100C3FF0FC0CC
:105880001092E90081E08093EB001092EC0082E33B
:105890008093ED001092C20488E08093F000C2FF74
:1058A00019C083E00E94192C8091C404882339F028
:1058B0008091C40481508093C404882389F180912D
:1058C000C304882339F08091C30481508093C304BA
:1058D000882341F1C4FF10C08091E2008E7E816078
:1058E0008093E2008091E1008F7E8093E1008091BF
:1058F000C0048E7E806111C0C0FF16C08091E2009E
:105900008E7E80618093E2008091E1008E7E8093A4
:10591000E1008091C0048E7E81608093C00404C049
:105920005D9ACDCF289AD6CFFF91EF91CF91BF91BD
:10593000AF919F918F917F916F915F914F913F9127
:105940002F910F900FBE0F901F9018954F925F925E
:105950006F927F92AF92BF92CF92DF92EF92FF92BF
:105960000F931F93CF93DF93CDB7DEB729013A0191
:10597000621B730B840B950B29893A894B895C89CF
:105980002A193B094C095D09298B3A8B4B8B5C8B9F
:105990009B01AC0169897A898B899C890E94F12FCE
:1059A000E418F50806091709A80197010E944B3071
:1059B0002A0D3B1D4C1D5D1DCA01B901DF91CF9120
:1059C0001F910F91FF90EF90DF90CF90BF90AF901D
:1059D0007F906F905F904F9008950895EF92FF929F
:1059E0000F931F93CF93DF937B01FC01C281D3817F
:1059F00000E010E0209781F0E881F9810280F381D6
:105A0000E02DB701CE01099597FD08C0080F191FB9
:105A10000884D985C02DEECFC80102C08FEF9FEF5B
:105A2000DF91CF911F910F91FF90EF9008950F9309
:105A30001F93CF93DF938B01FC01C281D381209709
:105A400071F0E881F9810480F581E02DB801CE0183
:105A50000995009731F40884D985C02DF0CF80E0F6
:105A600090E0DF91CF911F910F9108950F931F93B5
:105A7000CF93DF938B01FC01C281D381209771F01A
:105A8000E881F9810680F781E02DB801CE01099502
:105A9000080F111D0884D985C02DF0CFF8011082A0
:105AA000DF91CF911F910F9108950F931F93CF9383
:105AB000DF938B01FC01C281D381209771F0E881D3
:105AC000F9810190F081E02DB801CE010995811195
:105AD00006C00884D985C02DF0CF80E001C081E0E8
