:100000000C942B010C9453010C9453010C94500F3D
:100010000C94500F0C94500F0C94E60C0C9453015C
:100020000C9453010C9453010C9453010C94530100
:100030000C9453010C9453010C9453010C945301F0
:100040000C9462200C9453010C9437230C94692374
:100050000C9453010C9453010C9453010C945301D0
:100060000C94921C0C945301084AD73B3BCE016E72
:1000700084BCBFFDC12F3D6C74319ABD56833DDAFF
:100080003D00C77F11BED9E4BB4C3E916BAAAABE0E
:10009000000000803F05A84CCDB2D44EB93836A937
:1000A000020C50B9918688083CA6AAAA2ABE000074
:1000B00000803F00536967466F783A20002C206D1E
:1000C0006F64653D002C206261743D002C207370CC
:1000D000643D002C206361703D002C20616C743DF8
:1000E000002C206C6F6E3D00206C61743D006D73C0
:1000F000673D002C206C6F6E3D007265636F766506
:1001000072206C61743D0024504D544B3232302CBF
:10011000313030302A0024504D544B3331342C30A0
:100120002C312C302C312C302C302C302C302C30ED
:100130002C302C302C302C302C302C302C302C30DF
:100140002C302C302A005573616765207065722051
:10015000646179733A004C617374206461793A0088
:100160004C6F77204261743A200053656E736F7252
:100170004D61783A20006162732070726573733A42
:10018000200074656D703A20004F4B004661696C29
:1001900000496E6974204D656D733A00667265653D
:1001A0002052616D3A200024504D544B3630352A90
:1001B0000025200020426174746572793A2000465F
:1001C00069726D77617265204869646E5365656B0D
:1001D0005F76335F32380A52656C65617365204122
:1001E000707220203720323031362031393A3036A3
:1001F0003A30390000000008000201000003040743
:1002000000000000000000000102040810204080EF
:100210000102040810200102040810200404040450
:1002200004040404020202020202030303030303A0
:100230000000000023002600290000000000250027
:1002400028002B0000000000240027002A000507DA
:10025000A81B8F23140711241FBECFEFD8E0DEBFE9
:10026000CDBF11E0A0E0B1E0E0EDFBE502C00590FC
:100270000D92A43CB107D9F724E0A4ECB1E001C091
:100280001D92A83EB207E1F712E0C4E5D2E004C037
:100290002297FE010E94A32ACE34D107C9F70E94FB
:1002A0008B0B0C94DB2D0C9400000C94E82C0C941C
:1002B000F02CCF93DF9300D0CDB7DEB72091E404CC
:1002C0003091E5042115310511F428EE34E0CE011A
:1002D0000196821B930B0F900F90DF91CF910895A1
:1002E000CF93DF93FC016491EC012196662331F0FA
:1002F00087E494E00E941224CE01F4CFDF91CF91E5
:10030000089582E085B987E084B918B884E087B998
:100310008CE18BB980EC8AB90895CF93DF93EC011F
:100320001C161D068CF45F9A62E370E080E090E09A
:100330000E94D9205F98219799F362E370E080E0F2
:1003400090E00E94D920ECCFDF91CF91089569E130
:1003500070E080E090E00E94D9208BB18F7790917F
:1003600026039295990F990F907C909589238BB9CC
:1003700062E370E080E090E00E94D9202BB1206819
:100380008091260330E4839FC0011124282B2BB9D0
:10039000089581E991E00E9470018EE793E00E9448
:1003A000151B42E060E085EE91E00E94D81985EED1
:1003B00091E00E94261A882351F08CE891E00E9477
:1003C000700187E494E00E94192480E0089589E890
:1003D00091E00E94700187E494E00E94192481E07A
:1003E00008950F931F93CF93DF938C01EB01009738
:1003F000A1F08BEC91E00E943D20BC018BEC91E0E0
:100400000E94BF1D26E636E646E650E40E9480269E
:10041000F80160837183828393832097C9F08BEC0A
:1004200091E00E94731FAB01BC018BEC91E00E9434
:10043000191E24E630E040E050E00E946F2A398324
:10044000288381E02037334008F080E0809329033F
:1004500081E0DF91CF911F910F91089582E891E0A3
:100460000E9470014091090350910A0360910B03AF
:1004700070910C0322E030E087E494E00E9424268F
:100480006DE071E087E494E00E941D2486E791E02E
:100490000E94700160910703709108034AE050E0E8
:1004A00087E494E00E940B2560E171E087E494E02A
:1004B0000C941D24CF9380E290E00E945501C82F38
:1004C00081E290E00E945501282F30E0322F222750
:1004D0002C0F311D3093CA012093C9018AE691E0A7
:1004E0000E9470016091C9017091CA014AE050E018
:1004F00087E494E00E940B2584ED93E09093CA0179
:100500008093C901CF910895CF93DF93D82FC92F3E
:10051000682F80E290E00E9457016C2F81E290E00A
:100520000E9457018D2F9C2FDF91CF9108958F92BC
:100530009F92AF92BF92CF92DF92EF92FF920F9372
:100540001F93CF93DF93CDB7DEB7C456D1090FB653
:10055000F894DEBF0FBECDBF61E08AE00E94D021DB
:1005600080E00E944E2164E670E080E090E00E940E
:10057000D92010E08FE00E9451219595879595959F
:100580008795282F3981831778F0112369F0FE01B0
:10059000319641E0411749F03191231718F030812D
:1005A000321718F44F5FF6CF40E0512F451778F41B
:1005B000252F30E0FE01E20FF31F6081E1E0F0E063
:1005C000EC0FFD1FE20FF31F60835150EFCFE1E00E
:1005D000F0E0EC0FFD1FE40FF11D80831F5F143668
:1005E00049F6FE01BF969E01295C3F4F80E090E0F6
:1005F0004191840F911DE217F307D1F796958795E6
:1006000090931E0380931D0304972091C90130919C
:10061000CA012817390730F40E9484029093CA0156
:100620008093C901E090C901F090CA0100E010E098
:1006300060911D0370911E0380E090E01F921F9255
:1006400020E12F9328E62F93A12CB12C650120E007
:1006500030E0A9010E9438264B019B01683640E139
:10066000740710F428E630E1790100E010E09B0106
:1006700043EF84164DE0940610F022EF3DE040E099
:1006800050E0882799271F921F921F92E4E6EF936C
:10069000A12CB12C65010E94382660931C030FB673
:1006A000F894DEBF0FBECDBF80912603811103C039
:1006B00060910B0101C061E08AE00E94D02181E0DD
:1006C00092EF89169DE0990608F080E0CC59DF4F43
:1006D0000FB6F894DEBF0FBECDBFDF91CF911F9153
:1006E0000F91FF90EF90DF90CF90BF90AF909F90D1
:1006F0008F900895809121039FEF980F9F3128F4E8
:100700006091200390E00C9457010895CF93C0911D
:100710003103CC2331F180912103C817E1F080E04F
:1007200090E00E945501809321038C17A1F00E9454
:100730007A036091310380E090E00E94570180913C
:10074000310360E090E00E94570180913103809373
:10075000210310922003809120038F5F8093200358
:1007600002C010922003CF910895CF93DF9380E0D1
:1007700090E00E945501809321038F3F39F410923D
:10078000210360E080E090E00E94570186E591E05F
:100790000E9470014AE050E06091210387E494E0F8
:1007A0000E94F42486E491E00E947001C1E0D0E050
:1007B000CE010E945501809320038F3F31F460E009
:1007C000CE010E94F02C109220034AE050E060918C
:1007D000200387E494E00E94ED2462E371E087E463
:1007E00094E00E9410242196C032D10509F780912F
:1007F000210390E00E9455018093200364EB71E097
:1008000087E494E0DF91CF910C941D24EF92FF9246
:100810000F931F93CF93DF931F92CDB7DEB78C0159
:10082000E12CF12CF8012491222349F0622F87E476
:1008300094E029830E94122429812A3259F480E10C
:10084000E816F10494F463E171E087E494E00E9417
:1008500010240BC0243231F0622F772767FD70958A
:10086000E626F7260F5F1F4FDDCF40E150E0B701CE
:1008700087E494E00F90DF91CF911F910F91FF904B
:10088000EF900C94C82410920B0160E08AE00C9465
:10089000D0210F931F93CF93DF93CDB7DEB7689727
:1008A0000FB6F894DEBF0FBECDBF80912E031F920E
:1008B0008F9380912F031F928F93809130031F920B
:1008C0008F93809134038F93809133038F93809122
:1008D00031031F928F93809132031F928F9385E192
:1008E00091E09F938F938E010F5F1F4F1F930F9384
:1008F0000E94F42AB80187E494E00E9410240FB605
:10090000F894DEBF0FBECDBF68960FB6F894DEBF79
:100910000FBECDBFDF91CF911F910F9108950F931F
:100920001F93CF93C0911703C43008F470C0809117
:1009300018039091190320911A0330911B038937F2
:10094000910558F0233E44E0340760F041E04093C5
:100950002A034FEF4093160305C08837910511F025
:1009600010922A03213040E1340750F0A4E036957C
:100970002795AA95E1F7315F30931B0320931A0363
:1009800020911A0330911B032115304230F02FEFD4
:100990003FE130931B0320931A038038910560F0E8
:1009A000F4E096958795FA95E1F7825A9F4F9093D8
:1009B0001903809318030DC08B35910550F063E047
:1009C00070E00E94252A645C7F4F70931903609346
:1009D000180380911803909119038F37910530F017
:1009E0008FE790E090931903809318036091300291
:1009F0007091310280913202909133022AE530E009
:100A000040E050E00E944D2A422F437005C04091C3
:100A10001F03443008F043E08091180390911903BC
:100A2000A0E0B0E05CE0880F991FAA1FBB1F5A9599
:100A3000D1F700911A0310911B0320E030E063E12D
:100A4000000F111F221F331F6A95D1F7802B912BA6
:100A5000A22BB32B00911C030F7710E020E030E0B5
:100A600073E0000F111F221F331F7A95D1F7802BDF
:100A7000912BA22BB32BC695C695C3708C2B50E03F
:100A800060E070E0EAE0440F551F661F771FEA95AB
:100A9000D1F7842B952BA62BB72B80930303909330
:100AA0000403A0930503B0930603CF911F910F9108
:100AB0000895CF92DF92EF92FF92C0900303D090FF
:100AC0000403E0900503F09006030E9449048EEEB3
:100AD00090E00E9470014AE050E06091200387E4BA
:100AE00094E00E94ED2488EE90E00E947001409115
:100AF000FB025091FC026091FD027091FE0227E022
:100B000030E087E494E00E94242681EE90E00E9489
:100B100070014091FF0250910003609101037091B8
:100B2000020327E030E087E494E00E9424268AED67
:100B300090E00E947001C701B601B3E196958795D8
:100B400077956795BA95D1F74AE050E087E494E04D
:100B50000E940B2583ED90E00E947001D701C60131
:100B60002AE0B695A795979587952A95D1F7BC0168
:100B7000637077274AE050E087E494E00E940B25F9
:100B80008CEC90E00E947001D701C6013CE0B69564
:100B9000A795979587953A95D1F7BC016F777727F9
:100BA0004AE050E087E494E00E940B2585EC90E059
:100BB0000E947001D701C60143E0B695A7959795AD
:100BC00087954A95D1F7BC016F7777274AE050E0C7
:100BD00087E494E00E940B258DEB90E00E94700169
:100BE000B601677077274AE050E087E494E0FF9011
:100BF000EF90DF90CF900C941125CF92DF92EF927F
:100C0000FF9284EB90E00E9470010E94AC206B0187
:100C10007C010E94AC206C197D0960377741D8F4C3
:100C200082ED92E00E940C0D039771F482ED92E048
:100C30000E94EF0DAB01BC0120E130E087E494E0BD
:100C40000E94272581E00EC068EC70E080E090E013
:100C50000E94D920DECF64E371E087E494E00E9433
:100C60001D2480E0FF90EF90DF90CF900895CF9209
:100C7000DF92EF92FF92CF93C82F5F9A0E948F046A
:100C8000CC2309F45DC080912B03882381F067E0B9
:100C900073E089E093E00E94F10180910703909155
:100CA0000803893E9340A8F010922A0312C040E046
:100CB00050E060EA71E44093090350930A036093A3
:100CC0000B0370930C0386E094E0909308038093E9
:100CD0000703C43001F54091090350910A03609164
:100CE0000B0370910C034093FB025093FC02609342
:100CF000FD027093FE02609107037091080380E08B
:100D000090E00E94E7276093FF02709300038093B6
:100D100001039093020340910303509104036091F7
:100D2000050370910603487F8C2F8770482B4093F2
:100D3000030350930403609305037093060320C0DC
:100D40004091FB025091FC026091FD027091FE0205
:100D50004093110350931203609313037093140391
:100D60004091FF02509100036091010370910203D2
:100D700040930D0350930E0360930F037093100381
:100D80000E9459050E94AC206B017C01CC2359F0D4
:100D900080912903882339F05F98CF91FF90EF90DD
:100DA000DF90CF90089580912A038111F5CF4CE018
:100DB0006BEF72E082ED92E00E94A30D0E94860329
:100DC0000E94AC206C197D096037774128F764E6F2
:100DD00070E080E090E00E94D920F2CF60E08AE0ED
:100DE0000E94D02180E691E00E9470010E947A0367
:100DF00087E00E94370660E089E00E94D02164EF1E
:100E000071E080E090E00C94D92048E065E082ED4C
:100E100092E00E94FA0C80E092E00E94E1106DE105
:100E200085EE91E00C94041982ED92E00C940A0D89
:100E3000CF93DF93EC0187E494E00E94542220E0FA
:100E400030E040E050E0BE0189E393E0DF91CF91D4
:100E50000C94A30CCF92DF92EF92FF9261E08AE0B4
:100E60000E94D0210E94AC206B017C010E94AC202A
:100E70006C197D0960377741F0F487E494E00E94B3
:100E800006221816190634F487E494E00E941F2203
:100E90008A9739F064E670E080E090E00E94D92003
:100EA000E5CF86E191E00E94060487E091E00E9490
:100EB000060481E005C060E08AE00E94D02180E065
:100EC000FF90EF90DF90CF900895CF93DF938091C4
:100ED0002C03882309F4F3C085EE91E00E94261AC2
:100EE000882311F0D1E0E9C085EE91E00E940F194E
:100EF0009091C701891B992787FD909597FF03C0A3
:100F0000919581959109833010F0D1E025C085EE4F
:100F100091E00E9412199091C601891B992787FDC3
:100F2000909597FF03C0919581959109833068F75B
:100F300085EE91E00E9415199091C501891B282F1B
:100F4000332727FD309537FF03C0319521953109AF
:100F5000D1E0233008F4D0E085EE91E00E940F1933
:100F60008093C70185EE91E00E9412198093C6011B
:100F700085EE91E00E9415198093C501DD2309F4E7
:100F80009CC09091C70129E0290F2331B8F49091BA
:100F9000C60129E0290F233128F4893244F5883D20
:100FA00044F106C0983D24F4875F833120F11BC0D3
:100FB0009932CCF0875F833100F115C099324CF043
:100FC0009091C601975F933170F4875F8331B8F0D9
:100FD0000AC0983D44F49091C601975F933118F48C
:100FE000875F833170F01092C401C6E00BC0C0E08F
:100FF00009C0C1E007C0C2E005C0C3E003C0C4E04F
:1010000001C0C5E08091C401811108C080911F0317
:1010100081111DC0C230D9F481E014C0813039F48F
:1010200080911F03823099F4C33089F40BC0823061
:1010300071F480911F03833051F4C23019F0C11153
:1010400006C084E08093C4010E94A70102C01092F0
:10105000C401C0931F038091C401833079F40E94BE
:101060007A0384E190E00E948D0118B817B81BB88C
:101070001AB815B882E084B91092C4018091C401F5
:10108000843009F02FCF809120038A35A0F481E0CD
:1010900090912603891B80932603109227038823AF
:1010A00031F080910B01811102C00E942A0788E073
:1010B00090E00E948D011092C4018D2F01C081E04B
:1010C000DF91CF910895BF92CF92DF92EF92FF927E
:1010D0000F931F93CF93DF937C010E94970281119E
:1010E0000E94EE0680912603882379F080911C03EC
:1010F000893108F442C18091270391E0980F9093C1
:101100002703803308F039C102C00E944304809154
:1011100016038F3F19F08E2D0E9437060E94650737
:10112000E114F10471F48091180390911903409730
:1011300040F080911503811104C084E080930A017E
:1011400006C010920A0134E0E316F10411F0109287
:10115000C801B090260384E0E816F10409F041C00C
:101160002091C801C4EAD1E0022E02C0CC0FDD1FDD
:101170000A94E2F781E090E0022E01C0880F0A9401
:10118000EAF790913003980F983118F49093300358
:1011900007C010923003809131038F5F8093310339
:1011A00080913103803238F0109231038091320304
:1011B0008F5F80933203809132038D3058F010920C
:1011C000320380913303909134030196909334035A
:1011D00080933303233008F0D3C02F5F2093C801DE
:1011E000CFC0CBE4D0E00B2C02C0D595C7950A94B4
:1011F000E2F780912803C81BD10980910A0181116F
:10120000BFC0B110BDC008E010E087E494E00E94C8
:101210005422C12CD12CCC16DD0608F054C020E09D
:1012200030E040E050E0B80189E393E00E94A30C75
:101230002BB120688091260330E4839FC0011124E4
:10124000282B2BB980910B01882361F00E94970213
:1012500080911C03823630F480912603811102C0F4
:101260000E9443040E946507882331F180910B019D
:10127000882319F00E94A70106C062E370E080E0B5
:1012800090E00E94D92080910A018F5F80930A012B
:101290000830110511F4D694C79484E0E816F104DF
:1012A00039F08091260309E010E0B81203C004C0B1
:1012B00009E010E0C0E0D0E03FEFC31AD30A8BB1E1
:1012C0008F738BB9A8CF80910A0183303CF481E001
:1012D00090912603911103C080E001C081E08093CA
:1012E0000A0184E0E816F10429F4CD2B19F48FEFFC
:1012F00080930A0180910A01181644F480910B0131
:10130000811104C00E942A0780930B010E94AC2027
:101310006093220370932303809324039093250307
:1013200010921503109216031092280310921903BD
:101330001092180310921B0310921A031092FF02CE
:101340001092000310920103109202031092FB020C
:101350001092FC021092FD021092FE0280910A018E
:10136000992787FD9095DF91CF911F910F91FF9065
:10137000EF90DF90CF90BF90089510922603C7CED4
:1013800009E010E042CF2F923F924F925F926F920E
:101390007F928F929F92AF92BF92CF92DF92EF9205
:1013A000FF920F931F93CF93DF9300D000D0CDB760
:1013B000DEB70E94AC202B013C0100ED17E0312C80
:1013C000212C0E94AC20641975096017710740F543
:1013D00087E494E00E94062218161906D4F40E94AD
:1013E000AC202B013C0161E087E00E94D02104E6A3
:1013F00010E0332433940DC087E494E00E941F2250
:10140000682F80E092E00E946D15882311F022245D
:10141000239487E494E00E940622892B69F7D1CFB8
:10142000311002C00E942A07F5E38F2EF3E09F2EB1
:10143000ADE2AA2EA3E0BA2EBEE2CB2EB3E0DB2EA5
:101440001FE2E12E13E0F12E00E313E021E333E08D
:1014500042E353E063E373E080E092E00E94D5173B
:10146000222009F400C194014FEF52E06BEF72E0CB
:1014700080E092E00E946817409135035091360356
:101480006091370370913803493853416105710504
:1014900060F040E054E060E070E04093350350932A
:1014A0003603609337037093380380914002909124
:1014B00041028F3F910509F480E08093170380E09B
:1014C00092E00E94A5180E9465290E94B6279B0100
:1014D00077FF04C022273327261B370B30931B03CB
:1014E00020931A0380E092E00E94DB180E94652995
:1014F0000E94BB2770931903609318034091350332
:10150000509136036091370370913803E9E0769586
:10151000679557954795EA95D1F7452B462B472B6D
:1015200009F445C0409111035091120360911303D7
:10153000709114034093FB025093FC026093FD02F0
:101540007093FE0240910D0350910E0360910F03C2
:10155000709110034093FF025093000360930103C6
:10156000709302038AEF90E00E9470014091FB02A9
:101570005091FC026091FD027091FE0227E030E084
:1015800087E494E00E94242683EF90E00E9470019B
:101590004091FF025091000360910103709102039A
:1015A00027E030E087E494E00E9426265CC040906B
:1015B000FB025090FC026090FD027090FE02C3019D
:1015C000B2010E94B6279B0177FF04C02227332770
:1015D000261B370B233031050CF44BC02091FF0242
:1015E000309100034091010350910203CA01B901F7
:1015F00029833A834B835C830E94B627FB012981B0
:101600003A814B815C8177FF04C0EE27FF27E61B00
:10161000F70B339774F1A0900D03B0900E03C090B8
:101620000F03D0901003E0901103F090120300918B
:10163000130310911403C301B2010E94E51520E0C9
:1016400030E040EA50E40E94472787FF12C08091B3
:101650001603853170F08091260381110AC08FEF47
:101660008093160306C0809115038F5F8093150346
:1016700036C0109117031430F0F06091FB027091A6
:10168000FC028091FD029091FE020E94B6276F5FDE
:101690007F4F63307105A8F46091FF0270910003E1
:1016A00080910103909102030E94B6276F5F7F4FE4
:1016B0006330710530F4809115038F5F80931503BB
:1016C00007C010921503809116038F5F8093160355
:1016D000183028F0809116038F5F8093160360E026
:1016E00087E00E94D021832D0F900F900F900F90D4
:1016F000DF91CF911F910F91FF90EF90DF90CF90EE
:10170000BF90AF909F908F907F906F905F904F9021
:101710003F902F9008950E94132164E670E080E0CE
:1017200090E00E94D9200E94810126E040E855E225
:1017300060E070E087E494E00E94DB2287E494E0BC
:101740000E9419248FEB91E00E94700187E494E0DD
:101750000E9419240E94B5030E945A020E94970217
:1017600084EB91E00E9470014AE050E060911C031C
:1017700087E494E00E94ED2481EB91E00E947001E7
:1017800060911D0370911E034AE050E087E494E0ED
:101790000E94112564E670E080E090E00E94D9206C
:1017A0000E942A0780930B01882341F087EA91E089
:1017B0000E94060481E090E00E948D010E94C90110
:1017C00080932C03882361F085E090E00E94180745
:1017D0000E946507882321F082E090E00E948D013D
:1017E0008BEC91E00E94E81F80932B03882371F01B
:1017F00085E090E00E94180767E073E089E093E0DD
:101800000E94F10183E090E00E948D010E942E026F
:101810000E94FD05882349F085E090E00E941807AA
:1018200084E090E00E948D0115C05E9A87E494E008
:101830000E94542264EF71E080E090E00E94D92081
:1018400060E089E00E94D02168EE73E080E090E0E3
:101850000E94D9208CE991E00E9470010E945901F8
:101860004AE050E0BC0187E494E00E94C8240E9452
:10187000AC206093220370932303809324039093FE
:1018800025030E94AC202091220330912303621B88
:10189000730B603A7F40C8F05E9A64E670E080E0C7
:1018A00090E00E94D9200E9465075E9880912803ED
:1018B0008F5F809328030E94AC2060932203709373
:1018C0002303809324039093250380910A018130A0
:1018D00041F40E94C309882321F085E090E00E9432
:1018E0001807809116038E3150F0809115038111F5
:1018F00006C080E090E00E94630880930A01809116
:101900002803813120F480911503893730F085E078
:1019100090E00E94630880930A0180910A0181117E
:1019200006C084E090E00E94630880930A018091E1
:101930000A018F3F09F0A5CF86E090E00E9463087E
:1019400080930A019ECF4115510529F480917A00B8
:101950008F7780937A006A307105B1F063FF02C01F
:1019600088E201C088E06770682B88E190E00FB6DC
:10197000F894A895809360000FBE609360008091FA
:10198000600080648093600083B7817F846083BF40
:10199000232B51F4F89483B7816083BF85B78066A9
:1019A00085BF8F7D85BF04C0F89483B7816083BFF6
:1019B0007894889583B78E7F83BF7894452B29F4DC
:1019C00080917A00806880937A0008951F920F9228
:1019D0000FB60F9211248F9388E10FB6F89480937D
:1019E0006000109260000FBE8F910F900FBE0F909D
:1019F0001F901895CF93DF93EC0120E00E942310F5
:101A00004FEF5FEFBA014F8F58A369A37AA3DF911D
:101A1000CF9108950C94CA0F6F927F928F929F92EC
:101A2000AF92BF92CF92DF92EF92FF920F931F93EC
:101A3000CF93DF9300D000D01F92CDB7DEB77C01EB
:101A400040E855E260E070E00E94531060E0C7019A
:101A50000E948C0E6BE3C7010E948C0E19821A82C1
:101A60001B821C821D820E94AC204B015C01CE01B6
:101A700001966C0100E010E03C010E94AC20681966
:101A800079098A099B096233710581059105A8F4DA
:101A9000C7010E94F90E181619067CF7C7010E94AB
:101AA0006B0E0430110519F48FEF9FEF0EC0F60195
:101AB00081936F010F5F1F4FE0CF69E371E0C301B6
:101AC0000E94D42A892B81F7C8010F900F900F90A4
:101AD0000F900F90DF91CF911F910F91FF90EF909A
:101AE000DF90CF90BF90AF909F908F907F906F903E
:101AF00008950F931F93CF93DF93EC01CE010E94C3
:101B0000F90E892B89F40E94AC200F8D18A129A110
:101B10003AA1601B710B820B930B613D77408105ED
:101B2000910560F35F98EACFCE010E946B0E182FEB
:101B3000CE010E946B0ECB97D9F7812FDF91CF9109
:101B40001F910F910895CF92DF92EF92FF920F9322
:101B50001F93CF93DF93EC01E62ED72EF42E0E9435
:101B6000AC206F8F78A389A39AA360E0CE010E9476
:101B70008C0E63E5CE010E948C0E66E4CE010E94BD
:101B80008C0E6DE4CE010E948C0E6F2DCE010E9452
:101B90008C0ECE2C0E2D1D2D802F8C198F1538F408
:101BA000F80161918F01CE010E948C0EF5CF6BE39D
:101BB000CE010E948C0ECE010E94790D8F3429F443
:101BC000CE010E94790D81E001C080E0DF91CF91CC
:101BD0001F910F91FF90EF90DF90CF900895BF92EB
:101BE000CF92DF92EF92FF920F931F93CF93DF93E9
:101BF000CDB7DEB728970FB6F894DEBF0FBECDBFC6
:101C00008C0160E00E948C0E63E5C8010E948C0E7E
:101C100066E4C8010E948C0E69E4C8010E948C0E23
:101C200064E4C8010E948C0E6BE3C8010E948C0E14
:101C3000CE0101967C0188E0F70111928A95E9F7BF
:101C4000C8010E94F90E892BD9F3B12CC8010E945A
:101C5000DF0ECB2CD12CCB9719F4F5E0FB1570F0EF
:101C6000C8010E946B0EF701EC0DFD1D8083C801B9
:101C70000E94F90E892BD9F3B394E8CFC8010E94D2
:101C80006B0E40E060E070E0CB0122E0C21AD108A8
:101C9000242F30E02C153D0574F4982F872F762FD4
:101CA0006627F701E20FF31F2081620F711D811D6E
:101CB000911D4F5FEDCF28960FB6F894DEBF0FBE93
:101CC000CDBFDF91CF911F910F91FF90EF90DF90EB
:101CD000CF90BF90089520917C0330917D03281709
:101CE0003907B9F490913A0380913B03981789F032
:101CF000E0913A03F0E0E45CFC4F808120913A03EC
:101D000030E02F5F3F4F2F73332720933A0390E04B
:101D100008958FEF9FEF08951F93CF93DF93DC011A
:101D20005C968D919C915D97009749F481E090E0DD
:101D300013969C938E93129780E090E03BC051964F
:101D4000ED91FC91529750962C915097322F3095EF
:101D50001FB75E964C915E9741FB772770F941FD66
:101D60006095F8944081772311F0422B01C0432302
:101D70004083EC012197F1F748E0508160FF02C0F9
:101D8000522B01C053235083EC012197F1F7669544
:101D9000415099F78081772311F0832301C0822B72
:101DA00080831FBF5C968D919C915D970197F1F7A1
:101DB00081E090E0DF91CF911F91089508952091E7
:101DC0007C0330917D032817390781F490913A0301
:101DD00080913B03981751F0E0913A03F0E0E45C06
:101DE000FC4F8081992787FD909508958FEF9FEF95
:101DF000089520917C0330917D032817390771F4F1
:101E000080913B0320913A0390E0805C9F4F821BBE
:101E1000910960E470E00E94392A089580E090E022
:101E20000895E0917C03F0917D03E817F90769F4C8
:101E3000A389B4899C918589809589238C9310927C
:101E40007D0310927C0381E0089580E00895CF9394
:101E5000DF93EC018A8D9B8D892BF1F080917C03BF
:101E600090917D038C179D07B9F0009711F00E94A7
:101E7000110F8E8D8E7F8E8F10923B0310923A033E
:101E8000D0937D03C0937C03EB89FC8980819D897D
:101E9000892B808381E001C080E0DF91CF9108959C
:101EA0001F920F920FB60F9211242F933F934F93CF
:101EB0005F936F937F938F939F93AF93BF93EF93B2
:101EC000FF93E0917C03F0917D03309709F451C0BA
:101ED000868DA685B785958581FF04C08C91892361
:101EE00029F447C08C91892309F043C0A389B489A0
:101EF0009C918589809589238C9386899789019700
:101F0000F1F7208D318DA685B785758558E040E0C5
:101F1000C9010197F1F7842F90E095958795482F97
:101F20006C91672309F04068515091F7868D81FDCF
:101F3000409580913B0390E001968F739927209103
:101F40003A03281749F0A0913B03B0E0A45CBC4FD2
:101F50004C9380933B0303C0868D8160868F828D76
:101F6000938D0197F1F7A389B4898C919589892B79
:101F70008C93FF91EF91BF91AF919F918F917F9142
:101F80006F915F914F913F912F910F900FBE0F90E6
:101F90001F90189526E531E0FC01318320830C94D5
:101FA000110F1F93CF93DF93EC01162F6E8D669563
:101FB000617081E06827812F0E94D02161E0812F2C
:101FC0000E949721812F90E0FC01E85FFD4FE49192
:101FD000E88BFC01E45EFD4FE491F0E0EE0FFF1FA3
:101FE000E65CFD4F859194919A8B898BDF91CF911F
:101FF0001F9108951F93CF93DF93EC01162F60E09C
:10200000812F0E9497218E8D81FD04C061E0812F78
:102010000E94D0211C87812F90E0FC01E85FFD4FDA
:10202000E491ED87FC01E45EFD4FE491F0E0EE0FFA
:10203000FF1FE05DFD4F859194919F878E87DF9113
:10204000CF911F910895FF920F931F93CF93DF932A
:10205000EC01F62E522F1B821A8208EE13E020E0CC
:1020600030E00C831D832E833F8386E591E09983C6
:1020700088831F8A1E8A198E188E1B8E1A8E1D8EBB
:102080001C8E8E8D8E7F50FB81F98E8F642FCE013A
:102090000E94D10F6F2DCE01DF91CF911F910F9133
:1020A000FF900C94FA0FCF93DF93EC019A01AB01F0
:1020B0001B8E1A8E198E188E1F8A1E8A60EC76EC83
:1020C0008DE290E00E946F2AC9012430310520F092
:1020D000B9016350710902C061E070E07D8F6C8FBF
:1020E000EC85E63108F068C0B901769567956431F2
:1020F000710518F06351710902C061E070E07F8BD7
:102100006E8B069718F0C901059702C081E090E038
:10211000998F888FC901880F991F820F931F9695F9
:102120008795969587958D30910510F00C9702C094
:1021300081E090E09B8F8A8F20916800E83050F01A
:1021400091E0EE3008F490E081E001C0880F9A95AC
:10215000EAF701C084E0822B809368002C85283048
:1021600038F02E3040F0263148F48CE690E008C07C
:102170008DE690E005C08BE690E002C080E090E044
:102180009C8B8B8B283030F481E001C0880F2A951E
:10219000EAF70DC0822F90E02E3010F4089701C0AE
:1021A0000E9791E001C0990F8A95EAF7892F8D8BE0
:1021B0008C8D9D8D0197F1F7CE01DF91CF910C941D
:1021C000270F0F931F93FC010FEF1FEF9801008360
:1021D00011832283338310861186128613864FEF74
:1021E00059EC6AE97BE3408B518B628B738B408F98
:1021F000518F628F738F40A351A362A373A340A733
:1022000051A762A773A740AB51AB62AB73AB00AFF2
:1022100011AF22AF33AFDC01A05CBF4F8FEF90E076
:1022200011969C938E9314960D931D932D933C932E
:10223000139718960D931D932D933C93139718960F
:102240001C9211961C92509686E08C9311961C92CB
:1022500011961C9211961C92EA5AFF4F10821F9100
:102260000F9108952FEB260F862F992787FD9095C4
:10227000263010F4C79708956156663018F48755D4
:1022800091090895C09708950F931F93FB0160E093
:1022900070E0CB01019120ED200F2A30A0F4AAE0DC
:1022A000B0E09B01AC010E948E2A112707FD10951A
:1022B000212F312F600F711F821F931F60537109EF
:1022C00081099109E7CF1F910F9108950F931F93F3
:1022D000CF93FC01EA5AFF4FC1E020812D3219F063
:1022E000C0E08F0103C08C01095A1F4FB8010E9442
:1022F00044119B01AC01A4E6B0E00E948E2AF801D3
:10230000DF01219130ED320F3A30D0F32E3269F5F2
:1023100011962C91119730ED320F3A3030F533276A
:1023200027FD3095205331094AE0429F8001439FA9
:10233000100D1124222717FD2095322F600F711FD9
:10234000821F931F12960C9120ED200F2A3068F403
:10235000112707FD109500531109222717FD20951D
:10236000322F600F711F821F931FCC2339F090957D
:102370008095709561957F4F8F4F9F4FCF911F91A3
:102380000F9108954F925F926F927F928F929F92DA
:10239000AF92BF92CF92DF92EF92FF92CF93DF93F3
:1023A000EC01CA5ADF4FBE010E9444112B013C01CF
:1023B00024E630E040E050E00E944D2A9B01AC0151
:1023C00060EA76E881E090E00E94152A6B017C01CA
:1023D000FE01819190ED980F9A30D8F38E3219F565
:1023E000EF0180E1882E87E2982EA12CB12CA991D3
:1023F00080ED8A0F8A30B8F4BB27A7FDB095D0973F
:10240000A50194010E94992AC60ED71EE81EF91E46
:10241000C501B4012AE030E040E050E00E944D2ABE
:1024200049015A01E4CFC701B6016D5F7F4F8F4F5D
:102430009F4F26E030E040E050E00E944D2A6901C5
:102440007A01C301B20124E630E040E050E00E948E
:102450004D2A60E472E48FE090E00E94152AC60ED7
:10246000D71EE81EF91EC701B601DF91CF91FF907C
:10247000EF90DF90CF90BF90AF909F908F907F9024
:102480006F905F904F900895DB01FA018D91882342
:1024900019F091918917D1F3992787FD90950895A7
:1024A000CF92DF92EF92FF920F931F93CF93DF9320
:1024B000EC01FC01EB5AFF4F1081112309F4B1C06C
:1024C000319660810E943211182FFE01E95AFF4FA8
:1024D0006081CE010E94321150E1159F800D1124C0
:1024E000FE01EC5AFF4F9081891711F010E0EBC20A
:1024F000FE01EB59FF4F2081213081F48C819D81B9
:10250000AE81BF8188839983AA83BB838C859D8597
:10251000AE85BF8588879987AA87BB87FE01E85962
:10252000FF4F1081112311F3B09780819181A28117
:10253000B381349780839183A283B3833C96808157
:102540009181A281B381349780839183A283B383E5
:102550002223A1F1213009F0B6C28C819D81AE8188
:10256000BF8188839983AA83BB838C859D85AE8533
:10257000BF8588879987AA87BB878C899D89AE8903
:10258000BF89888B998BAA8BBB8B8C8D9D8DAE8DD3
:10259000BF8D888F998FAA8FBB8F8CA59DA5AEA567
:1025A000BFA588A799A7AAA7BBA78CA99DA9AEA9D3
:1025B000BFA988AB99ABAAABBBAB85C28CA19DA1CF
:1025C000AEA1BFA188A399A3AAA3BBA38C819D811F
:1025D000AE81BF8188839983AA83BB838C899D89BF
:1025E000AE89BF89888B998BAA8BBB8B8C8D9D8D77
:1025F000AE8DBF8D888F998FAA8FBB8FFE01E05C57
:10260000FF4FDE01AE5BBF4F8D919C919183808324
:102610008CAD9DADAEADBFAD88AF99AFAAAFBBAF2E
:1026200052C2FC01EA59FF4FE0808B599F4F6C0169
:10263000E11017C07E0196E5E90EF11C42E651E07B
:10264000B701CE010E944412892B09F4FBC148E670
:1026500051E0B701CE010E944412892B09F4F2C166
:10266000F3C1FC010081063009F440CFCE018A5A43
:102670009F4FFC014081442309F438CFF0E20F9FC3
:1026800090011124F12C2E293F292434310509F41D
:10269000FEC008F067C02232310509F4CEC078F5DB
:1026A0002530310509F4FBC098F42230310509F4D6
:1026B000CBC028F42130310509F4B3C004C2233063
:1026C000310509F4D1C02430310509F4E0C0FBC163
:1026D0002830310509F41DC148F42630310509F4CC
:1026E0000AC12730310509F40EC1EDC12930310589
:1026F00009F417C12132310509F493C0E4C127322E
:10270000310509F4E8C078F42432310509F4ACC08D
:1027100008F49AC02532310509F4B9C026323105D2
:1027200009F4BDC0D0C12134310509F47AC088F460
:102730002832310509F4D7C02932310509F0C3C167
:10274000BC01CE010E9444116C877D878E879F87D4
:10275000BAC12234310509F477C02334310509F4B4
:1027600083C0B1C12039310509F418C158F52438A6
:10277000310509F413C178F42634310509F4A2C0F7
:1027800008F48DC02734310509F4BDC02238310565
:1027900009F4CFC098C12B38310509F406C148F4BB
:1027A0002738310509F401C12838310509F4F6C08C
:1027B0008AC12C38310509F4F1C02F38310509F4EC
:1027C000F4C081C1283A310509F4E8C098F4223AEE
:1027D000310509F4AEC028F42339310509F4E5C008
:1027E00072C1243A310509F4D9C0273A310509F4F8
:1027F000DCC069C12F3A310509F4D7C048F42B3A3F
:10280000310509F4D2C02C3A310509F4C7C05BC1C7
:10281000203B310509F4C2C0233B310509F4C5C092
:1028200052C1CE010E9466116C837D838E839F838B
:102830000E94AC20C85BDF4F12C0C859DF4F81E057
:10284000413409F05EC0A8C0CE010E94C2116C8B59
:102850007D8B8E8B9F8B0E94AC20C05BDF4F68838B
:1028600079838A839B832FC1433509F03FCE8C89BE
:102870009D89AE89BF89B095A095909581959F4F10
:10288000AF4FBF4F8C8B9D8BAE8BBF8B1CC1CE01CE
:102890000E94C2116C8F7D8F8E8F9F8F14C1473520
:1028A00009F024CE8C8D9D8DAE8DBF8DB095A095F9
:1028B000909581959F4FAF4FBF4F8C8F9D8FAE8F5F
:1028C000BF8F01C145E050E0BC01CE0187599F4F49
:1028D0000E94DD2AF8C0CE010E9466116CA77DA778
:1028E0008EA79FA7F0C0CE010E9466116CAB7DAB96
:1028F0008EAB9FABE8C0C859DF4F81E041330CF08D
:102900004BC080E049C00E94B62ACE5BDF4F9927BA
:1029100049C0CE010E9466116CAF7DAF8EAF9FAFF4
:10292000D2C0CE010E9466116CA37DA38EA39FA38B
:10293000CAC00E94B62A815069F0CF52DF4F982F4B
:10294000990F990F9883053009F0D0CD880F880F23
:10295000845F22C020E030E0043079F4FE01E20F11
:10296000F31FE159FF4F10821182128213822C5FF4
:102970003F4F2033310591F7E0CFFE01E20FF31F07
:10298000E156FF4F10821182128213822C5F3F4F5B
:102990002033310591F7D1CF888395C00E94B62AA4
:1029A000C153DF4F998388838EC00E94B62AFE01EF
:1029B000EF52FF4F81111AC0208130E0C701079705
:1029C00097FD03969595879595958795820F931F0B
:1029D000880F991F880F991F8C0F9D1FFC01E159CB
:1029E000FF4F10821182128213826DC0408150E02D
:1029F00097012750310937FF02C02D5F3F4F3595B2
:102A0000279535952795240F351F220F331F220F49
:102A1000331F2C0F3D1FF901E159FF4FAC01552722
:102A2000440F551FC153DF4F80E090E09881482B41
:102A3000592B662757FD6095762F4083518362831B
:102A4000738341C081E026C046E851E0B701CE0162
:102A50000E944412892B19F4F601108234C04EE60C
:102A600051E0B701CE010E944412892B11F482E09B
:102A700011C044E751E0B701CE010E944412892BF6
:102A800041F04AE751E0B701CE010E944412892B80
:102A900021F483E0F601808316C04CE851E0B701D1
:102AA000CE010E944412892B11F484E0F3CF40E858
:102AB00051E0B701CE010E944412892B11F485E048
:102AC000E9CF86E0E7CF812FDF91CF911F910F9162
:102AD000FF90EF90DF90CF900895CF92DF92EF922A
:102AE000FF920F931F93CF93DF931F92CDB7DEB763
:102AF0006C018C0109591F4F8B5A9F4F7C01643226
:102B000081F12CF46A3069F06D30E9F50AC06A325F
:102B100041F06C32C1F5F601EC5AFF4F80818627F7
:102B20008083F80180818F3060F4F601E80FF11D99
:102B3000EA5AFF4F1082C60169830E9450126981D0
:102B400001C080E0F601EA59FF4F90819F5F9083BA
:102B5000F801108291E06A3209F090E0F701908369
:102B60002AC0F8011082F601EA59FF4F10827297CD
:102B70001082719686E08083F7011082F601E85991
:102B8000FF4F108217C0F80180818E3048F491E029
:102B9000980F9083F601E80FF11DEA5AFF4F60830A
:102BA000F7018081811106C0F601EC5AFF4F808148
:102BB0008627808380E00F90DF91CF911F910F9146
:102BC000FF90EF90DF90CF9008954F925F926F92B9
:102BD0007F928F929F92AF92BF92CF92DF92EF92AD
:102BE000FF920F931F93CF93DF93CDB7DEB760971C
:102BF0000FB6F894DEBF0FBECDBF69837A838B8397
:102C00009C83CA01B90127013801A60195010E94E0
:102C1000802625E33AEF4EE85CE30E9402296B012F
:102C20007C010E9485296D877E878F87988BC701DD
:102C3000B6010E944B276D837E838F83988725E39F
:102C40003AEF4EE85CE369817A818B819C810E9436
:102C500002296B017C0125E33AEF4EE85CE3C301F6
:102C6000B2010E9402292B013C01C701B6010E945A
:102C700085294B015C01C701B6010E944B2769837E
:102C80007A838B839C83C301B2010E948529698763
:102C90007A878B879C87C301B2010E944B276B0107
:102CA0007C0129853A854B855C8569817A818B8198
:102CB0009C810E9402292B013C01A7019601C501BC
:102CC000B4010E9402292D813E814F8158850E94C6
:102CD00002299B01AC01C301B2010E9480269B0125
:102CE000AC010E9402292B013C012D853E854F85B8
:102CF0005889C701B6010E9402299B01AC010E94BC
:102D000002299B01AC01C301B2010E9481260E94ED
:102D10008F292B013C0129853A854B855C85C501AE
:102D2000B4010E9402294B015C01A701960169814F
:102D30007A818B819C810E9402292D813E814F8165
:102D400058850E9402299B01AC01C501B4010E9473
:102D500081269B01AC01C301B2010E94F42626E743
:102D60003BE742EC5AE40E94022960960FB6F894C1
:102D7000DEBF0FBECDBFDF91CF911F910F91FF90AE
:102D8000EF90DF90CF90BF90AF909F908F907F900B
:102D90006F905F904F900895CF92DF92EF92FF92E5
:102DA0000F931F93CF93DF93E9016115710551F0E4
:102DB000FC01C088D188E288F388FB01C082D182FF
:102DC000E282F3824115510551F0FC01C08CD18C97
:102DD000E28CF38CFA01C082D182E282F3822097E6
:102DE00001F18C01045B1F4FF80180819181A28168
:102DF000B3818F3F9F4FAF4FBF4F61F00E94AC2018
:102E0000F8010081118122813381601B710B820BDB
:102E1000930B03C06FEF7FEFCB01688379838A83C5
:102E20009B83DF91CF911F910F91FF90EF90DF90E7
:102E3000CF900895CF92DF92EF92FF920F931F935E
:102E4000CF93DF93E9016115710551F0FC01C08456
:102E5000D184E284F384FB01C082D182E282F382D6
:102E60004115510551F0FC01C080D180E280F38012
:102E7000FA01C082D182E282F382209701F18C01B3
:102E80000C5B1F4FF80180819181A281B3818F3F3C
:102E90009F4FAF4FBF4F61F00E94AC20F8010081FF
:102EA000118122813381601B710B820B930B03C054
:102EB0006FEF7FEFCB01688379838A839B83DF91F8
:102EC000CF911F910F91FF90EF90DF90CF900895D9
:102ED000AF92BF92CF92DF92EF92FF920F931F9328
:102EE000CF93DF93CDB7DEB728970FB6F894DEBF48
:102EF0000FBECDBF5B018A01AE014F5F5F4FBE01C8
:102F00006B5F7F4F0E94CC16CD80DE80EF80F8840F
:102F10008FEFC81689ECD8068AE9E8068BE3F80635
:102F200059F0C701B6010E94E92720E034E244E7E6
:102F300059E40E944E2704C060E070E08AE794E400
:102F4000F5016083718382839383FFEFCF16F9ECE1
:102F5000DF06FAE9EF06FBE3FF0669F069817A8193
:102F60008B819C810E94E92720E034E244E759E408
:102F70000E944E2704C060E070E08AE794E4F80104
:102F8000608371838283938328960FB6F894DEBFA3
:102F90000FBECDBFDF91CF911F910F91FF90EF90AA
:102FA000DF90CF90BF90AF9008952F923F924F92B5
:102FB0005F926F927F928F929F92AF92BF92CF92C9
:102FC000DF92EF92FF920F931F93CF93DF93CDB7D2
:102FD000DEB72A970FB6F894DEBF0FBECDBF2B0128
:102FE0005A87498719019401AE014F5F5F4FBE01B7
:102FF0006B5F7F4F0E941A1741145104B9F06D8125
:103000007E818F81988524E630E040E050E00E9488
:103010004D2A613571051CF02CE637E002C020ED29
:1030200037E0620F731FF2017183608389859A858F
:10303000892BB1F06D817E818F81988534E6432E96
:10304000512C612C712CA30192010E944D2ACA01BE
:10305000B901A30192010E944D2AE985FA85608396
:103060002114310461F06D817E818F81988520E18A
:1030700037E240E050E00E944D2AF1012083011523
:10308000110561F069817A818B819C8120E432E4B1
:103090004FE050E00E944D2AF8012083E114F10432
:1030A000A1F069817A818B819C8120E137E240E047
:1030B00050E00E944D2ACA01B90124E630E040E008
:1030C00050E00E944D2AF7016083C114D104A9F099
:1030D00069817A818B819C8124E6422E512C612C5E
:1030E000712CA30192010E944D2ACA01B901A301CA
:1030F00092010E944D2AF6016083A114B10461F08F
:1031000069817A818B819C8124E630E040E050E047
:103110000E944D2AF50160832A960FB6F894DEBF0F
:103120000FBECDBFDF91CF911F910F91FF90EF9018
:10313000DF90CF90BF90AF909F908F907F906F90D7
:103140005F904F903F902F900895FC0160A171A176
:1031500082A193A16F3FF9EC7F07FAE98F07FBE3A8
:103160009F0749F00E94E92720E030E048EC52E454
:103170000E944E27089560E074E284E799E4089580
:10318000FC0160A571A582A593A56F3FF9EC7F07AF
:10319000FAE98F07FBE39F0749F00E94E72720E049
:1031A00030E048EC52E40E944E27089560E070E061
:1031B00080E89FEB0895CF92DF92EF92FF920E94FA
:1031C000C0186B017C0120E030E040E85FEB0E941A
:1031D0004727882349F026E53EE04DEE5FE3C7012F
:1031E000B6010E94022904C060E070E080E89FEB15
:1031F000FF90EF90DF90CF900895DC01ED91FC916E
:103200000190F081E02D0994FC01608340EE5EE2C4
:1032100065E672E4478B508F618F728F0895FC01D1
:1032200083810895FC0184810895FC0185810895BE
:103230001F93CF93DF93EC01162F68818EE793E005
:103240000E941F1B612F8EE793E00E94D61A60E058
:103250008EE793E00E942B1B41E068818EE793E0AC
:103260000E949F1B8EE793E00E947E1A892B29F013
:103270008EE793E00E94861A01C080E0DF91CF9133
:103280001F9108951F93CF93DF93EC0168818EE720
:1032900093E00E941F1B6AE28EE793E00E94D61A19
:1032A0008EE793E00E94A51B41E068818EE793E0E2
:1032B0000E949F1B8EE793E00E947E1A892B31F0BB
:1032C0008EE793E00E94861A182F01C010E06881F3
:1032D0008EE793E00E941F1B6AE28EE793E00E9454
:1032E000D61A612F70E06E7F8EE793E00E94FD1882
:1032F0008EE793E0DF91CF911F910C94A51B1F9354
:10330000CF93DF93EC0168818EE793E00E941F1B4F
:103310006AE28EE793E00E94D61A8EE793E00E945D
:10332000A51B41E068818EE793E00E949F1B8EE71A
:1033300093E00E947E1A892B31F08EE793E00E9481
:10334000861A182F01C010E068818EE793E00E9472
:103350001F1B6BE270E08EE793E00E94FD1869E0AE
:1033600070E08EE793E00E94FD188EE793E00E94E4
:10337000A51B68818EE793E00E941F1B6AE28EE71F
:1033800093E00E94D61A8A85882319F060E070E0E5
:1033900002C062E070E01163612B8EE793E00E944F
:1033A000FD188EE793E0DF91CF911F910C94A51B40
:1033B000CF93DF93EC016A874A836DE00E9418196E
:1033C00068818EE793E00E941F1B6BE270E08EE73E
:1033D00093E00E94FD1860E470E08EE793E00E94A5
:1033E000FD188EE793E00E94A51B6AE070E080E084
:1033F00090E00E94D920CE010E94421968818EE798
:1034000093E00E941F1B6EE070E08EE793E00E9445
:10341000FD188A81843029F0883051F462E070E030
:1034200002C061E070E08EE793E00E94FD1805C0E5
:1034300060E08EE793E00E94D61A8EE793E00E9448
:10344000A51BCE01DF91CF910C947F191F93CF93D1
:10345000DF93EC0168818EE793E00E941F1B60E020
:103460008EE793E00E94D61A60E08EE793E00E9418
:103470002B1B182F8A85882311F047E001C044E0F8
:1034800068818EE793E00E949F1B8EE793E00E9485
:103490007E1A892B71F18EE793E00E94861A898348
:1034A0008A858823B9F08EE793E00E94861A8EE71A
:1034B00093E00E94861A8B838EE793E00E94861A1F
:1034C0008EE793E00E94861A8C838EE793E00E9439
:1034D000861A0AC08EE793E00E94861A8B838EE7D5
:1034E00093E00E94861A8C838EE793E00E94861AEE
:1034F0008D83812FDF91CF911F9108958091AE032D
:1035000090E02091AF03821B910908952091AF03B1
:103510008091AE03281750F4E22FF0E0E055FC4F05
:10352000808190E02F5F2093AF0308958FEF9FEF8E
:103530000895E091AF038091AE03E81730F4F0E016
:10354000E055FC4F808190E008958FEF9FEF089544
:103550000895CF92DF92EF92FF920F931F93CF9334
:10356000DF937C01CB018A0120918A03222389F019
:10357000EB016B01C40ED51ECC15DD0569F0699118
:10358000D701ED91FC910190F081E02DC7010995E3
:10359000F3CF642F0E94691CC801DF91CF911F9166
:1035A0000F91FF90EF90DF90CF900895CF93DF932E
:1035B0001F92CDB7DEB7698320918A032223D1F011
:1035C00020918B03203240F021E030E0FC01338376
:1035D000228380E090E015C080918C03E82FF0E01A
:1035E000E357FC4F998190838F5F80938C03809386
:1035F0008B0305C061E0CE0101960E94691C81E049
:1036000090E00F90DF91CF910895FC011382128218
:1036100048EE53E060E070E044835583668377832F
:1036200086E991E09183808308951092AF03109210
:10363000AE0310928C0310928B030C94AC1B81E0B0
:1036400080938A036093AD0310928C0310928B03D6
:1036500008950C941F1B0F93062F21E040918B03BC
:103660006DE873E08091AD030E94121C10928C03F0
:1036700010928B0310928A030F9108958F929F925C
:10368000AF92BF92CF92DF92EF92FF920F931F9370
:10369000CF93DF93EC01F62ED42E48015901EE2092
:1036A00019F10E941F1B1E2D143008F013E0115059
:1036B000B8F0E881F98128E0129FB0011124A5013A
:1036C000940104C056954795379527956A95D2F78A
:1036D000CA01B9010190F081E02DCE010995E7CF33
:1036E00060E0CE010E942B1B4D2D413208F040E2DC
:1036F0002C2D60EB73E08F2D0E94CA1B1092AF033C
:103700008093AE03DF91CF911F910F91FF90EF90C7
:10371000DF90CF90BF90AF909F908F900895CF9201
:10372000EF920F931F93C22EE12C00E010E098015E
:103730000E943E1B1F910F91EF90CF90089521E0C2
:103740000C948F1B21E00C948F1B61E00C942B1BBD
:103750008EE793E00C94051B10923D0481E080936A
:103760003B0410923A0461E082E10E94D02161E0C2
:1037700083E10E94D021E9EBF0E080818E7F80839D
:1037800080818D7F808384E38093B80085E480937B
:10379000BC000895413208F043C090913D0491115E
:1037A000FCCF91E090933D0420933B042FEF2093B6
:1037B000D00310921504240F2093140490933C041A
:1037C00090913C04880F892B80933C0480913A04AB
:1037D000813061F410923A0480913C048093BB00E4
:1037E0008091BC0083FDF8CF85EC01C085EE80930D
:1037F000BC0080913D048130E1F380911504841771
:1038000010F44091150426E134E0FB01D9018A2F20
:10381000821B841718F48D918193F9CF842F08951A
:1038200080E008950F93413208F04AC090913D0422
:103830009111FCCF92E090933D0400933B049FEFE5
:103840009093D0031092150440931404FB0166E199
:1038500074E0DB019A2F961B941718F491919D93B5
:10386000F9CF10923C0490913C04880F892B8093EF
:103870003C0480913A04813061F410923A048091C2
:103880003C048093BB008091BC0083FDF8CF85ECA5
:1038900001C085EE8093BC00222321F080913D047D
:1038A0008230E1F38091D0038F3F61F08091D003AB
:1038B000803251F08091D003803341F483E007C01F
:1038C00081E005C080E003C082E001C084E00F9188
:1038D0000895613298F420913D04243089F4609376
:1038E000F203FC0184EF93E0DC012A2F281B26174A
:1038F00018F421912D93F9CF80E0089581E0089587
:1039000082E0089585ED8093BC008091BC0084FD29
:10391000FCCF10923D04089585EC8093BC0010927A
:103920003D0408951F920F920FB60F9211242F930A
:103930003F934F935F936F937F938F939F93AF9337
:10394000BF93EF93FF938091B900887F803609F48D
:103950009EC078F5883209F45DC090F4803109F496
:1039600056C038F4882309F4F5C0883009F44FC0F4
:10397000F5C0883109F44EC0803209F45FC0EEC052
:10398000803409F46AC058F4803309F457C088338E
:1039900009F0E4C08093D0030E948C1CDFC0803506
:1039A00009F44FC0883509F45DC0883409F0D6C0E9
:1039B000D3C0883909F4C4C0A8F4883709F467C0B3
:1039C00038F4883609F463C0803709F460C0C6C093
:1039D000883809F4B5C0803909F45FC0803809F02F
:1039E000BDC05BC0803B09F483C038F4803A09F461
:1039F00066C0883A09F47CC0B1C0803C09F4A4C018
:103A0000883C09F4A1C0883B09F487C0A7C0809115
:103A10003C0410C09091150480911404981770F51F
:103A2000E091150481E08E0F80931504F0E0EA5ECA
:103A3000FB4F80818093BB0085EC83C08093D003D3
:103A40008BC0E091150481E08E0F80931504809166
:103A5000BB00F0E0EA5EFB4F8083909115048091FB
:103A600014046BC0E091150481E08E0F809315045F
:103A70008091BB00F0E0EA5EFB4F808380913B04C5
:103A800081116AC081E080933A0484EA5EC083E0D9
:103A900080933D041092D103CFCF8091D103803227
:103AA00008F04EC0E091D10381E08E0F8093D103E6
:103AB0008091BB00F0E0EE52FC4F8083BDCF0E94AE
:103AC0008C1C8091D103803230F4E091D103F0E07E
:103AD000EE52FC4F10826091D10370E0E091360409
:103AE000F091370482ED93E009951092D10336C02E
:103AF00084E080933D041092F3031092F203E0916E
:103B00003804F091390409958091F203811105C0C0
:103B100081E08093F2031092F403E091F30381E0DB
:103B20008E0F8093F303F0E0EC50FC4F8081809384
:103B3000BB009091F3038091F203981708F47CCFB7
:103B400085E88093BC000AC085EC8093BC0010928D
:103B50003D0404C01092D0030E94821CFF91EF919B
:103B6000BF91AF919F918F917F916F915F914F9195
:103B70003F912F910F900FBE0F901F901895CF92ED
:103B8000DF92EF92FF92CF93DF93EC019B0140E035
:103B900050E08E859F85281B390B41095109AC8562
:103BA000BD850E948E2A6B017C018FE0F594E7941D
:103BB000D794C7948A95D1F76E897F89882777FD36
:103BC0008095982F2BE0660F771F881F991F2A95E5
:103BD000D1F7288D398D442737FD4095542F2C0D72
:103BE0003D1D4E1D5F1D0E946F2A2C0D3D1D4E1D5B
:103BF0005F1D288339834A835B83CA01B901685FEB
:103C00007F4F8F4F9F4F34E09595879577956795B8
:103C10003A95D1F70E94E92720E030E040E251E4F4
:103C20000E944E27DF91CF91FF90EF90DF90CF90D1
:103C300008952F923F924F925F926F927F928F9250
:103C40009F92AF92BF92CF92DF92EF92FF920F932B
:103C50001F93CF93DF93CDB7DEB728970FB6F894B5
:103C6000DEBF0FBECDBF1C014D835E836F8378879F
:103C7000DC01CD90DD90ED90FC90B0EACB1ABFE076
:103C8000DB0AE108F108A7019601C701B6010E940D
:103C9000152A4B015C01F10104811581A085B185D4
:103CA0000E94992A2B013C018DE0759467945794EA
:103CB00047948A95D1F7A089B189A50194019CE028
:103CC00055954795379527959A95D1F70E94992A4A
:103CD000BB2797FDB095AB2F480E591E6A1E7B1E61
:103CE000F2E04F0E511C611C711C32E07594679418
:103CF000579447943A95D1F780E8580E611C711C8F
:103D0000F101A285B385A30192010E948E2ADC01F4
:103D1000CB014FE0B695A795979587954A95D1F732
:103D200089839A83AB83BC832801662457FC609403
:103D3000762C52E0440C551C661C771C5A95D1F722
:103D4000A289B389A50194010E94992A4B015C01C3
:103D500067E1B594A794979487946A95D1F7A68163
:103D6000B781A70196010E94992AEBE09595879566
:103D700077956795EA95D1F7860E971EA81EB91E0E
:103D8000480C591C6A1C7B1C92E0490E511C611C9A
:103D9000711CF2E07594679457944794FA95D1F7A3
:103DA0008D819E81AF81B88584199509A609B709CF
:103DB0008D839E83AF83B887A0E5B3EC2D813E81D0
:103DC0004F8158850E948E2A97FD0DC0660F771F80
:103DD000881F991F29813A814B815C810E944D2A5D
:103DE00049015A010CC029813A814B815C810E94B2
:103DF0004D2A49015A01880C991CAA1CBB1C992701
:103E0000B7FC9A958B2D7A2D692D9B01AC010E94F0
:103E1000152A9B01AC01AEEDBBE00E948E2A6C011D
:103E2000FF24D7FCF094EF2CA3E4B3EEA50194019A
:103E30000E949C2ABB2797FDB095AB2FC80ED91EB8
:103E4000EA1EFB1E9FECC90E9EE0D91EE11CF11C70
:103E5000F4E0F594E794D794C794FA95D1F7C80C99
:103E6000D91CEA1CFB1CC701B60128960FB6F894B2
:103E7000DEBF0FBECDBFDF91CF911F910F91FF909D
:103E8000EF90DF90CF90BF90AF909F908F907F90FA
:103E90006F905F904F903F902F900895CF93C62FD3
:103EA00067E770E08EE793E00E94291B6C2F8EE796
:103EB00093E00E94D61A8EE793E00E94A51B41E092
:103EC00050E067E770E08EE793E00E94A21B8EE768
:103ED00093E00E947E1A892BD1F38EE793E00E9433
:103EE000861ACF9108950F931F93CF93DF93EC0120
:103EF00067E770E08EE793E00E94291B64EF70E0B3
:103F00008EE793E00E94FD1864E370E08EE793E093
:103F10000E94FD188EE793E00E94A51B65E070E00B
:103F200080E090E00E94D92066EFCE010E944E1FF3
:103F3000182F67EFCE010E944E1F082F68EFCE01A9
:103F40000E944E1F402F50E060E070E0762F652FFA
:103F5000542F4427612B9927872F762F652FDF91C8
:103F6000CF911F910F9108951F93CF93DF93162F39
:103F700067E770E08EE793E00E94291B612F8EE7D0
:103F800093E00E94D61A8EE793E00E94A51B42E0C0
:103F900050E067E770E08EE793E00E94A21B8EE797
:103FA00093E00E947E1A0297D4F38EE793E00E947A
:103FB000861A182F8EE793E00E94861AD12F20E0F0
:103FC000C22F9E01282BC901DF91CF911F91089527
:103FD000CF93DF93EC018EE793E00E94151B6AEA12
:103FE000CE010E94B41F9D838C836CEACE010E9497
:103FF000B41F9F838E836EEACE010E94B41F9987FF
:10400000888760EBCE010E94B41F9B878A8762EB92
:10401000CE010E94B41F9D878C8764EBCE010E9465
:10402000B41F9F878E8766EBCE010E94B41F998BC9
:10403000888B68EBCE010E94B41F9B8B8A8B6AEB46
:10404000CE010E94B41F9D8B8C8B6CEBCE010E9425
:10405000B41F9F8B8E8B6EEBCE010E94B41F998F85
:10406000888F60EDCE010E944E1F91E0853509F0EA
:1040700090E0892FDF91CF910895CF93DF93EC01EA
:1040800067E770E08EE793E00E94291B64EF70E021
:104090008EE793E00E94FD186EE270E08EE793E0F9
:1040A0000E94FD188EE793E00E94A51B65E070E07A
:1040B00080E090E00E94D92066EFCE01DF91CF91A1
:1040C0000C94B41F1F920F920FB60F9211242F93CE
:1040D0003F938F939F93AF93BF9380913F049091B1
:1040E0004004A0914104B091420430913E042DE27D
:1040F000230F2D3720F40196A11DB11D05C020EB23
:10410000230F0296A11DB11D20933E0480933F040E
:1041100090934004A0934104B093420480914304DF
:1041200090914404A0914504B09146040196A11DCC
:10413000B11D8093430490934404A0934504B0932D
:104140004604BF91AF919F918F913F912F910F9016
:104150000FBE0F901F9018952FB7F89460913F04F1
:104160007091400480914104909142042FBF0895C2
:104170009FB7F894409143045091440460914504E2
:104180007091460486B5A89B06C08F3F21F04F5F13
:104190005F4F6F4F7F4F9FBF2227342F452F562FE2
:1041A000280F311D411D511DA5E0B0E00E948E2A4F
:1041B00008958F929F92AF92BF92CF92DF92EF922B
:1041C000FF926B017C010E94B8204B015C01C1147D
:1041D000D104E104F104F1F00E947F260E94B8208E
:1041E000681979098A099B09683E73408105910520
:1041F00070F321E0C21AD108E108F10888EE880EB8
:1042000083E0981EA11CB11CC114D104E104F10487
:1042100029F7DDCFFF90EF90DF90CF90BF90AF9068
:104220009F908F900895789484B5826084BD84B502
:10423000816084BD85B5826085BD85B5816085BDA1
:10424000EEE6F0E0808181608083E1E8F0E01082BA
:10425000808182608083808181608083E0E8F0E0FB
:10426000808181608083E1EBF0E0808184608083E5
:10427000E0EBF0E0808181608083EAE7F0E080811C
:104280008460808380818260808380818E7F808350
:104290008081806880831092C100089580930C0112
:1042A00008958E3008F08E50877020910C0190E4B4
:1042B000299F90011124822B80937C0080917A00A9
:1042C000806480937A0080917A0086FDFCCF809193
:1042D00078002091790090E0922B0895833081F04E
:1042E00028F4813099F08230A1F008958730A9F048
:1042F0008830B9F08430D1F4809180008F7D03C084
:10430000809180008F7780938000089584B58F77A7
:1043100002C084B58F7D84BD08958091B0008F77F1
:1043200003C08091B0008F7D8093B0000895CF933B
:10433000DF9390E0FC01E85FFD4F2491FC01E45E17
:10434000FD4F8491882349F190E0880F991FFC016B
:10435000EC5BFD4FA591B491865C9D4FFC01C5912E
:10436000D4919FB7611108C0F8948C912095822355
:104370008C93888182230AC0623051F4F8948C9126
:10438000322F309583238C938881822B888304C0BD
:10439000F8948C91822B8C939FBFDF91CF910895DD
:1043A0000F931F93CF93DF931F92CDB7DEB7282FC4
:1043B00030E0F901EC50FE4F8491F901E85FFD4FC8
:1043C0001491F901E45EFD4F04910023C9F08823A4
:1043D00021F069830E946E216981E02FF0E0EE0FE9
:1043E000FF1FE65CFD4FA591B4919FB7F8948C91A7
:1043F000611103C01095812301C0812B8C939FBF55
:104400000F90DF91CF911F910F910895FC01818D45
:10441000228D90E0805C9F4F821B91098F739927BA
:104420000895FC01918D828D981731F0828DE80FEF
:10443000F11D858D90E008958FEF9FEF0895FC01A9
:10444000918D828D981761F0828DDF01A80FB11DCB
:104450005D968C91928D9F5F9F73928F90E00895EF
:104460008FEF9FEF0895FC01848DDF01A80FB11D30
:10447000A35ABF4F2C91848D90E001968F7399279A
:10448000848FA689B7892C93A089B1898C91806487
:104490008C93938D848D981306C00288F389E02D48
:1044A00080818F7D80830895CF93DF93EC01888D89
:1044B0008823C9F0EA89FB89808185FD05C0A88928
:1044C000B9898C9186FD0FC00FB607FCF5CF8081AE
:1044D00085FFF2CFA889B9898C9185FFEDCFCE01F8
:1044E0000E943322E7CFDF91CF910895CF92DF92E0
:1044F000FF920F931F93CF93DF931F92CDB7DEB739
:104500006C0181E0D60158968C9358975B969C91EC
:104510005B975C968C915C97981307C05096ED91D1
:10452000FC915197808185FD2EC0F601038D10E02E
:104530000F5F1F4F0F731127F02EF601848DF812B5
:1045400011C00FB607FCF9CFD6015096ED91FC9142
:104550005197808185FFF1CFC60169830E94332284
:104560006981EBCF838DE80FF11DE35AFF4F608324
:10457000D6015B960C935B975296ED91FC91539705
:10458000808180620CC0D6015696ED91FC915797C0
:1045900060835096ED91FC91519780818064808377
:1045A00081E090E00F90DF91CF911F910F91FF90EC
:1045B000DF90CF900895BF92CF92DF92EF92FF925B
:1045C000CF93DF93EC016A017B01B22E60EC76ECB5
:1045D0008DE290E0A70196010E944D2A21503109F9
:1045E000410951095695479537952795E889F989E5
:1045F00082E08083211580E1380798F0E889F98905
:10460000108260E673EE86E190E0A70196010E94B9
:104610004D2A215031094109510956954795379541
:104620002795EC85FD853083EE85FF852083188EE8
:10463000EC89FD89B082EA89FB8980818061808371
:10464000EA89FB89808188608083EA89FB8980818F
:1046500080688083EA89FB8980818F7D8083DF91F8
:10466000CF91FF90EF90DF90CF90BF9008951F9271
:104670000F920FB60F9211242F938F939F93EF9366
:10468000FF93E0915704F09158048081E0915D041C
:10469000F0915E0482FD12C09081809160048F5F72
:1046A0008F7320916104821751F0E0916004F0E073
:1046B000E95BFB4F958F8093600401C08081FF917F
:1046C000EF919F918F912F910F900FBE0F901F90A0
:1046D00018951F920F920FB60F9211242F933F93AC
:1046E0004F935F936F937F938F939F93AF93BF93FA
:1046F000EF93FF9387E494E00E943322FF91EF91C0
:10470000BF91AF919F918F917F916F915F914F91E9
:104710003F912F910F900FBE0F901F901895109200
:104720004A041092490488EE93E0A0E0B0E0809340
:104730004B0490934C04A0934D04B0934E0486EA2E
:1047400091E0909348048093470485EC90E0909327
:1047500054048093530484EC90E090935604809327
:10476000550480EC90E0909358048093570481ECBA
:1047700090E090935A048093590482EC90E09093D7
:104780005C0480935B0486EC90E090935E048093DD
:104790005D04109260041092610410926204109201
:1047A00063040895CF92DF92EF92FF920F931F93CD
:1047B000CF93DF937C016A01EB0100E010E00C1560
:1047C0001D0571F06991D701ED91FC910190F08187
:1047D000E02DC7010995892B19F00F5F1F4FEFCF0F
:1047E000C801DF91CF911F910F91FF90EF90DF9063
:1047F000CF9008956115710581F0DB010D900020C7
:10480000E9F7AD0141505109461B570BDC01ED9111
:10481000FC910280F381E02D099480E090E00895FE
:104820000C94FA23DC01ED91FC910190F081E02DD4
:10483000099462EB71E00C94FA230F931F93CF93CA
:10484000DF93EC010E94FA238C01CE010E9419240F
:10485000800F911FDF91CF911F910F9108958F923B
:104860009F92AF92BF92DF92EF92FF920F931F93AE
:10487000CF93DF93CDB7DEB7A1970FB6F894DEBF25
:104880000FBECDBF7C01F42FD52ECB0119A2223053
:1048900008F42AE08E010F5D1F4F822E912CA12C6F
:1048A000B12C6F2F7D2DA50194010E944D2AF22F6E
:1048B000D32ECA01015011096A3014F4E0E301C09B
:1048C000E7E3E60FD801EC93232B242B252B49F7A4
:1048D000B801C7010E94FA23A1960FB6F894DEBF73
:1048E0000FBECDBFDF91CF911F910F91FF90EF9041
:1048F000DF90BF90AF909F908F900895CF92DF92FE
:10490000EF92FF920F931F93CF93DF93EC016A0115
:104910007B012115310579F4E881F9810190F0815D
:10492000E02D642FDF91CF911F910F91FF90EF90B9
:10493000DF90CF9009942A303105E9F477FF1AC04F
:104940006DE20E9412248C0144275527BA014C19AC
:104950005D096E097F092AE0CE010E942F24800F95
:10496000911FDF91CF911F910F91FF90EF90DF90FA
:10497000CF9008952AE0B701A601CE01DF91CF9133
:104980001F910F91FF90EF90DF90CF900C942F2408
:104990000F931F93CF93DF93EC019A01AB0166272E
:1049A00057FD6095762F0E947E248C01CE010E94D7
:1049B0001924800F911FDF91CF911F910F910895BE
:1049C0002115310541F4DC01ED91FC910190F0815C
:1049D000E02D642F09940C942F249A01462F50E067
:1049E00060E070E00C94E0240F931F93CF93DF936B
:1049F000EC019A01462F50E060E070E00E94E02454
:104A00008C01CE010E941924800F911FDF91CF915C
:104A10001F910F9108959A01AB0160E070E00C9432
:104A2000E0240F931F93CF93DF93EC019A01AB0126
:104A300060E070E00E94E0248C01CE010E94192405
:104A4000800F911FDF91CF911F910F9108950F93C8
:104A50001F93CF93DF93EC010E94E0248C01CE01E1
:104A60000E941924800F911FDF91CF911F910F9108
:104A700008954F925F926F927F928F929F92AF9222
:104A8000BF92CF92DF92EF92FF920F931F93CF933B
:104A9000DF93EC016A017B01B22E9A01AB01C701E1
:104AA000B6010E94D029882319F065EB71E027C078
:104AB00026013701E89477F82FEF3FEF4FE75FE7E4
:104AC000C301B2010E94D02981110DC02FEF3FEF29
:104AD0004FE75FE7C301B2010E94472718161CF495
:104AE00069EB71E00CC02FEF3FEF4FE75FE4C701C8
:104AF000B6010E94F7281816ACF46DEB71E0CE01F8
:104B0000DF91CF911F910F91FF90EF90DF90CF90A9
:104B1000BF90AF909F908F907F906F905F904F90DD
:104B20000C94FA232FEF3FEF4FE75FECC701B6017C
:104B30000E94472787FDE1CF20E030E0A901C701AF
:104B4000B6010E94472787FF0AC06DE2CE010E948E
:104B500012248C01F7FAF094F7F8F09402C000E008
:104B600010E0A12C60E070E080E09FE3AB1441F026
:104B700020E030E040E251E40E944E27A394F6CFBB
:104B80009B01AC01C701B6010E9481266B017C012B
:104B90000E94BB272B013C010E94E7279B01AC012F
:104BA000C701B6010E9480266B017C012AE0B30197
:104BB000A201CE010E942F24080F191FBB2039F03B
:104BC00061EC71E0CE010E94FA23080F191F7B2CC3
:104BD000772041F120E030E040E251E4C701B60126
:104BE0000E9402296B017C010E94B6274B01AA2476
:104BF00097FCA094BA2C2AE030E0B501A401CE01C4
:104C00000E947E24080F191FC501B4010E94E927E4
:104C10009B01AC01C701B6010E9480266B017C019B
:104C20007A94D6CFC801DF91CF911F910F91FF9059
:104C3000EF90DF90CF90BF90AF909F908F907F903C
:104C40006F905F904F9008950C9439250F931F93A8
:104C5000CF93DF93EC010E9439258C01CE010E9495
:104C60001924800F911FDF91CF911F910F9108950B
:104C70004F925F926F927F92AF92BF92CF92DF92EC
:104C8000EF92FF920F931F93CF93DF93CDB7DEB7D1
:104C900029013A01621B730B840B950B29893A8910
:104CA0004B895C892A193B094C095D09298B3A8B90
:104CB0004B8B5C8B9B01AC0169897A898B899C89C0
:104CC0000E94152AE418F50806091709A80197019A
:104CD0000E946F2A2A0D3B1D4C1D5D1DCA01B901A2
:104CE000DF91CF911F910F91FF90EF90DF90CF90C8
:104CF000BF90AF907F906F905F904F900895089510
:104D00005058BB27AA270ED027C2F0D130F0F5D1DA
:104D100020F031F49F3F11F41EF4C0C10EF4E09571
:104D2000E7FBB6C1E92F3AD280F3BA1762077307DF
:104D30008407950718F071F49EF552C20EF4E095C1
:104D40000B2EBA2FA02D0B01B90190010C01CA0145
:104D5000A0011124FF27591B99F0593F50F4503EF0
:104D600068F11A16F040A22F232F342F4427585FE2
:104D7000F3CF469537952795A795F0405395C9F7FA
:104D80007EF41F16BA0B620B730B840BBAF09150B2
:104D9000A1F0FF0FBB1F661F771F881FC2F70EC051
:104DA000BA0F621F731F841F48F487957795679524
:104DB000B795F7959E3F08F0B3CF9395880F08F00D
:104DC0009927EE0F97958795089590D158F080E830
:104DD00091E009F49EEF91D128F040E851E059F4B8
:104DE0005EEF09C05BC1FCC1E92FE078D7D168F361
:104DF000092E052AC1F3261737074807590738F047
:104E00000E2E07F8E02569F0E025E0640AC0EF63A4
:104E100007F8009407FADB01B9019D01DC01CA0122
:104E2000AD01EF934AD098D10AD05F91552331F06C
:104E30002BED3FE049E450FD49EC63CF0895DF934B
:104E4000DD27B92FBF7740E85FE31616170648073E
:104E50005B0710F4D92FCFD19F938F937F936F93DC
:104E60009CD2E8E6F0E01DD177D12F913F914F9190
:104E70005F91D4D1DD2349F09058A2EA2AED3FE0BA
:104E800049EC5FE3D0785D274DDFDF9165C1DCD071
:104E900008F481E0089539D1E3956FC10CD05CC16D
:104EA0002CD140F023D130F021F45F3F19F0F0C055
:104EB000511197C1F3C072D198F39923C9F35523C7
:104EC000B1F3951B550BBB27AA27621773078407FD
:104ED00038F09F5F5F4F220F331F441FAA1FA9F3B3
:104EE00033D00E2E3AF0E0E830D091505040E695A5
:104EF000001CCAF729D0FE2F27D0660F771F881F06
:104F0000BB1F261737074807AB07B0E809F0BB0BF4
:104F1000802DBF01FF2793585F4F2AF09E3F510518
:104F200068F0B6C05EC15F3FECF3983EDCF3869557
:104F300077956795B795F7959F5FC9F7880F911D8E
:104F40009695879597F90895E1E0660F771F881F7A
:104F5000BB1F621773078407BA0720F0621B730B2D
:104F6000840BBA0BEE1F88F7E095089504D068947F
:104F7000B11137C108951AD188F09F5790F0B92F19
:104F80009927B751A0F0D1F0660F771F881F991F9E
:104F90001AF0BA95C9F712C0B13081F021D1B1E051
:104FA00008951EC1672F782F8827B85F39F0B93F61
:104FB000CCF3869577956795B395D9F73EF49095A0
:104FC0008095709561957F4F8F4F9F4F0895E8941E
:104FD00009C097FB3EF490958095709561957F4F41
:104FE0008F4F9F4F9923A9F0F92F96E9BB279395EF
:104FF000F695879577956795B795F111F8CFFAF4FF
:10500000BB0F11F460FF1BC06F5F7F4F8F4F9F4F2F
:1050100016C0882311F096E911C0772321F09EE88D
:10502000872F762F05C0662371F096E8862F70E0F3
:1050300060E02AF09A95660F771F881FDAF7880FCD
:105040009695879597F90895990F0008550FAA0B23
:10505000E0E8FEEF16161706E807F907C0F012168B
:105060001306E407F50798F0621B730B840B950B8E
:1050700039F40A2661F0232B242B252B21F40895E3
:105080000A2609F4A140A6958FEF811D811D089580
:1050900097F99F6780E870E060E008959FEF80ECEB
:1050A0000895DF93CF931F930F93FF92EF92DF92B8
:1050B0007B018C01689405C0DA2EEF01AFD0FE01B0
:1050C000E894A5912591359145915591AEF3EF0165
:1050D00029DEFE019701A801DA9479F7DF90EF90BD
:1050E000FF900F911F91CF91DF91089500240A94B2
:1050F0001616170618060906089500240A941216B3
:105100001306140605060895C9CF50D0E8F3E894B5
:10511000E0E0BB279F57F0F02AED3FE049EC06C0E6
:10512000EE0FBB0F661F771F881F28F0B23A620789
:105130007307840728F0B25A620B730B840BE39554
:105140009A9572F7803830F49A95BB0F661F771FD7
:10515000881FD2F7904845C1092E0394000C11F422
:10516000882352F0BB0F40F4BF2B11F460FF04C042
:105170006F5F7F4F8F4F9F4F0895EF93E0FF06C003
:10518000A2EA2AED3FE049EC5FEBCCDDE5DF0F90D2
:10519000039401FC9058E5E9F0E036C157FD9058C2
:1051A000440F551F59F05F3F71F04795880F97FBEB
:1051B000991F61F09F3F79F08795089512161306A5
:1051C0001406551FF2CF4695F1DF08C016161706D4
:1051D0001806991FF1CF8695710561050894089509
:1051E000E894BB2766277727CB0197F908952CDF32
:1051F00008F48FEF08959B01AC0160E070E080E857
:105200009FE34CCE0BD0A8CF71DF28F076DF18F0EB
:10521000952309F03DCF42CF1124E3CFBFDFA0F3A8
:10522000959FD1F3950F50E0551F629FF001729F3B
:10523000BB27F00DB11D639FAA27F00DB11DAA1F5A
:10524000649F6627B00DA11D661F829F2227B00DA7
:10525000A11D621F739FB00DA11D621F839FA00D32
:10526000611D221F749F3327A00D611D231F849F82
:10527000600D211D822F762F6A2F11249F575040D9
:105280008AF0E1F088234AF0EE0FFF1FBB1F661F74
:10529000771F881F91505040A9F79E3F510570F02D
:1052A000F7CE9FCF5F3FECF3983EDCF38695779582
:1052B0006795B795F795E7959F5FC1F7FE2B880F28
:1052C000911D9695879597F9089570DFE0F09E37C8
:1052D000D8F09639B8F49E3848F4672F782F88278D
:1052E000985FF9CF86957795679593959539D0F323
:1052F000B62FB1706B0F711D811D20F487957795C6
:105300006795939551C06BC06CCF9F93FEDE0F9055
:1053100007FCEE5F32CF11F40EF4C0CE60C046DF62
:10532000D0F39923D9F3CEF39F57550B87FF65D060
:105330000024A0E640EA900180585695979528F4FD
:10534000805C660F771F881F20F0261737074807F5
:1053500030F4621B730B840B202931294A2BA6954C
:1053600017940794202531254A2758F7660F771F91
:10537000881F20F026173707480730F4620B730B9D
:10538000840B200D311D411DA09581F7B901842F9B
:105390009158880F9695879508959B01AC0132CF5F
:1053A00053DE880B990B0895882371F4772321F03D
:1053B0009850872B762F07C0662311F499270DC0CC
:1053C0009051862B70E060E02AF09A95660F771F67
:1053D000881FDAF7880F9695879597F908959F3F6C
:1053E00031F0915020F4879577956795B795880FA0
:1053F000911D9695879597F9089591505040660FA5
:10540000771F881FD2F708959F938F937F936F9391
:10541000FF93EF939B01AC01F5DEEF91FF9141DE2D
:105420002F913F914F915F91EDCEDB018F939F9331
:105430000E948E2ABF91AF91A29F800D911DA39FC4
:10544000900DB29F900D11240895AA1BBB1B51E132
:1054500007C0AA1FBB1FA617B70710F0A61BB70BE4
:10546000881F991F5A95A9F780959095BC01CD0189
:10547000089597FB072E16F4009407D077FD09D006
:105480000E94252A07FC05D03EF4909581959F4FF8
:105490000895709561957F4F0895A1E21A2EAA1B79
:1054A000BB1BFD010DC0AA1FBB1FEE1FFF1FA217D4
:1054B000B307E407F50720F0A21BB30BE40BF50BD1
:1054C000661F771F881F991F1A9469F7609570955A
:1054D000809590959B01AC01BD01CF010895052EEB
:1054E00097FB1EF400940E94862A57FD07D00E9465
:1054F0004D2A07FC03D04EF40C94862A5095409513
:10550000309521953F4F4F4F5F4F0895909580956F
:10551000709561957F4F8F4F9F4F08950E94A72AE6
:10552000A59F900DB49F900DA49F800D911D1124F7
:105530000895B7FF0C948E2A0E948E2A821B930B2B
:105540000895EE0FFF1F0590F491E02D0994A29F9E
:10555000B001B39FC001A39F700D811D1124911D47
:10556000B29F700D811D1124911D0895FC018827A3
:105570009927E89421912032E9F3293010F02E3058
:10558000C8F32B3241F02D3239F4689404C00E94E4
:10559000EC2A820F911D219120532A30C0F31EF472
:1055A000909581959F4F0895FB01DC018D910190AD
:1055B00080190110D9F3990B0895FB01DC014150CA
:1055C000504048F001900D920020C9F701C01D9293
:1055D00041505040E0F708957AE0979F902D879FC3
:1055E000802D910D11240895AEE0B0E0EAEFFAE2CB
:1055F0000C94B22D0D891E8986E08C831A83098351
:105600008FEF9FE79E838D83AE01475E5F4F6F896B
:10561000788DCE0101960E94162BEF81F885E00F60
:10562000F11F10822E96E4E00C94CE2DACE0B0E099
:10563000ECE1FBE20C94A42D7C016B018A01FC01DE
:1056400017821682838181FFBDC1CE0101964C0174
:10565000F7019381F60193FD859193FF81916F018D
:10566000882309F4ABC1853239F493FD859193FF0A
:1056700081916F01853229F4B70190E00E94142DC9
:10568000E7CF512C312C20E02032A0F48B3269F08E
:1056900030F4803259F0833269F420612CC08D32AD
:1056A00039F0803339F4216026C02260246023C0A1
:1056B000286021C027FD27C030ED380F3A3078F43C
:1056C00026FF06C0FAE05F9E300D1124532E13C052
:1056D0008AE0389E300D1124332E20620CC08E32A9
:1056E00021F426FD6BC1206406C08C3611F42068BD
:1056F00002C0883641F4F60193FD859193FF8191B4
:105700006F018111C1CF982F9F7D9554933028F45C
:105710000C5F1F4FFFE3F9830DC0833631F08337F1
:1057200071F0833509F05BC022C0F8018081898364
:105730000E5F1F4F44244394512C540115C038016F
:10574000F2E06F0E711CF801A080B18026FF03C04B
:10575000652D70E002C06FEF7FEFC5012C870E94BE
:10576000092D2C0183012C852F77222E17C038019B
:10577000F2E06F0E711CF801A080B18026FF03C01B
:10578000652D70E002C06FEF7FEFC5012C870E948E
:10579000FE2C2C012C852068222E830123FC1BC0AB
:1057A000832D90E048165906B0F4B70180E290E0EE
:1057B0000E94142D3A94F4CFF50127FC859127FE21
:1057C00081915F01B70190E00E94142D31103A944D
:1057D000F1E04F1A51084114510471F7E5C08436C5
:1057E00011F0893639F5F80127FF07C06081718112
:1057F000828193810C5F1F4F08C06081718188276F
:1058000077FD8095982F0E5F1F4F2F76B22E97FF52
:1058100009C090958095709561957F4F8F4F9F4FF0
:105820002068B22E2AE030E0A4010E94462DA82E66
:10583000A81844C0853729F42F7EB22E2AE030E024
:1058400025C0F22FF97FBF2E8F36C1F018F48835AE
:1058500079F0B4C0803719F0883721F0AFC02F2F0E
:105860002061B22EB4FE0DC08B2D8460B82E09C00D
:1058700024FF0AC09F2F9660B92E06C028E030E0B2
:1058800005C020E130E002C020E132E0F801B7FEBF
:1058900007C060817181828193810C5F1F4F06C0B8
:1058A0006081718180E090E00E5F1F4FA4010E9433
:1058B000462DA82EA818FB2DFF77BF2EB6FE0BC0D5
:1058C0002B2D2E7FA51450F4B4FE0AC0B2FC08C0E4
:1058D0002B2D2E7E05C07A2C2B2D03C07A2C01C0D7
:1058E000752C24FF0DC0FE01EA0DF11D808180336F
:1058F00011F4297E09C022FF06C07394739404C07A
:10590000822F867809F0739423FD13C020FF06C010
:105910005A2C731418F4530C5718732C731468F41E
:10592000B70180E290E02C870E94142D73942C859F
:10593000F5CF731410F4371801C0312C24FF12C0B6
:10594000B70180E390E02C870E94142D2C8522FF64
:1059500017C021FF03C088E590E002C088E790E00F
:10596000B7010CC0822F867859F021FD02C080E279
:1059700001C08BE227FD8DE2B70190E00E94142D5B
:10598000A51438F4B70180E390E00E94142D5A94D6
:10599000F7CFAA94F401EA0DF11D8081B70190E0E0
:1059A0000E94142DA110F5CF332009F451CEB70178
:1059B00080E290E00E94142D3A94F6CFF7018681A0
:1059C000978102C08FEF9FEF2C96E2E10C94C02DDF
:1059D000F999FECF92BD81BDF89A992780B50895B7
:1059E000262FF999FECF1FBA92BD81BD20BD0FB6FB
:1059F000F894FA9AF99A0FBE01960895FC01059061
:105A0000615070400110D8F7809590958E0F9F1FC0
:105A10000895FC016150704001900110D8F7809505
:105A200090958E0F9F1F08950F931F93CF93DF9331
:105A3000182F092FEB018B8181FD03C08FEF9FEFA2
:105A400020C082FF10C04E815F812C813D814217B2
:105A500053077CF4E881F9819F012F5F3F4F398321
:105A60002883108306C0E885F985812F0995892B45
:105A700029F72E813F812F5F3F4F3F832E83812F58
:105A8000902FDF91CF911F910F910895FA01AA27CE
:105A9000283051F1203181F1E8946F936E7F6E5F71
:105AA0007F4F8F4F9F4FAF4FB1E03ED0B4E03CD01F
:105AB000670F781F891F9A1FA11D680F791F8A1F02
:105AC000911DA11D6A0F711D811D911DA11D20D069
:105AD00009F468943F912AE0269F11243019305D23
