:200000000C9406010C942E010C942E010C94F10D0C94F10D0C94F10D0C948A0B0C942E01BD
:200020000C942E010C942E010C942E010C942E010C942E010C942E010C942E010C942E0148
:200040000C941C1E0C942E010C94F1200C9423210C942E010C942E010C942E010C942E0126
:200060000C944C1A0C942E014661696C0D0A00536967466F783A20002C206D6F64653D0040
:200080002C206261743D002C207370643D002C206361703D002C20616C743D002C206C6F22
:2000A0006E3D00206C61743D006D73673D0024504D544B3232302C313030302A0024504DA7
:2000C000544B3331342C302C312C302C312C302C302C302C302C302C302C302C302C302C0F
:2000E000302C302C302C302C302C302A0055736167652070657220646179733A004C617353
:2001000074206461793A004C6F77204261743A200053656E736F724D61783A20006D620D3A
:200120000A0027432050726573733A200054656D703A20004F4B004661696C00496E69742A
:20014000204D656D733A00667265652052616D3A200024504D544B3630352A0025200020ED
:20016000426174746572793A20004669726D77617265204869646E5365656B5F76335F3249
:20018000380A52656C65617365204D617920333020323031362031373A31323A3036005391
:2001A0004649443B0053464D0000000008000201000003040700000000000000000102042B
:2001C00008102040800102040810200102040810200404040404040404020202020202037A
:2001E00003030303030000000023002600290000000000250028002B0000000000240027BB
:20020000002A0000BA0662194921C90611241FBECFEFD8E0DEBFCDBF11E0A0E0B1E0E2EAC1
:20022000F4E502C005900D92AE3AB107D9F724E0AEEAB1E001C01D92AA3CB207E1F712E079
:20024000CAE0D2E004C02297FE010E940C27C430D107C9F70E940F0A0C94442A0C940000FC
:200260000C9451290C945929CF93DF9300D0CDB7DEB72091C6043091C7042115310511F40D
:200280002AEC34E0CE010196821B930B0F900F90DF91CF910895CF93DF93FC016491EC0135
:2002A0002196662331F089E294E00E94CC21CE01F4CFDF91CF91089582E085B987E084B92C
:2002C00018B884E087B98CE18BB980EC8AB90895CF93DF93EC011C161D068CF45F9A62E3D9
:2002E00070E080E090E00E94931E5F98219799F362E370E080E090E00E94931EECCFDF916D
:20030000CF91089569E170E080E090E00E94931E8BB18F77909108039295990F990F907C32
:20032000909589238BB962E370E080E090E00E94931E2BB120688091080330E4839FC00179
:200340001124282B2BB908958CE391E00E944B0180E693E00E94CF1842E060E08FEC91E016
:200360000E9492178FEC91E00E94E017882351F087E391E00E944B0189E294E00E94D32183
:2003800080E0089584E391E00E944B0189E294E00E94D32181E008950F931F93CF93DF93FF
:2003A0008C01EB010097A1F085EB91E00E94F71DBC0185EB91E00E94791B26E636E646E6DD
:2003C00050E40E941624F80160837183828393832097C9F085EB91E00E942D1DAB01BC017C
:2003E00085EB91E00E94D31B24E630E040E050E00E94D8263983288381E02037334008F0F8
:2004000080E080930B0381E0DF91CF911F910F9108958DE291E00E944B014091F3025091C8
:20042000F4026091F5027091F60222E030E089E294E00E94CC2382E291E00E944B016091AF
:20044000F1027091F2024AE050E089E294E00E94B3228DE191E00C944B01CF9380E290E005
:200460000E943001C82F81E290E00E943001282F30E0322F22272C0F311D3093B401209347
:20048000B30181E191E00E944B016091B3017091B4014AE050E089E294E00E94B32284ED6B
:2004A00093E09093B4018093B301CF910895CF93DF93D82FC92F682F80E290E00E9432011C
:2004C0006C2F81E290E00E9432018D2F9C2FDF91CF9108958F929F92AF92BF92CF92DF922F
:2004E000EF92FF920F931F93CF93DF93CDB7DEB7C456D1090FB6F894DEBF0FBECDBF61E02D
:200500008AE00E948A1F80E00E94081F64E670E080E090E00E94931E10E08FE00E940B1F15
:200520009595879595958795282F3981831778F0112369F0FE01319641E0411749F0319155
:20054000231718F03081321718F44F5FF6CF40E0512F451778F4252F30E0FE01E20FF31F12
:200560006081E1E0F0E0EC0FFD1FE20FF31F60835150EFCFE1E0F0E0EC0FFD1FE40FF11D04
:2005800080831F5F143649F6FE01BF969E01295C3F4F80E090E04191840F911DE217F30775
:2005A000D1F796958795909300038093FF0204972091B3013091B4012817390730F40E9437
:2005C00057029093B4018093B301E090B301F090B40100E010E06091FF027091000380E0A4
:2005E00090E01F921F9220E12F9328E62F93A12CB12C650120E030E0A9010E94CE234B01ED
:200600009B01683640E1740710F428E630E1790100E010E09B0143EF84164DE0940610F068
:2006200022EF3DE040E050E0882799271F921F921F92E4E6EF93A12CB12C65010E94CE23CB
:200640006093FE020FB6F894DEBF0FBECDBF80910803811103C060910B0101C061E08AE086
:200660000E948A1F81E092EF89169DE0990608F080E0CC59DF4F0FB6F894DEBF0FBECDBFA0
:20068000DF91CF911F910F91FF90EF90DF90CF90BF90AF909F908F900895809103039FEF40
:2006A000980F9F3128F46091020390E00C9432010895CF93C0911303CC2331F180910303E0
:2006C000C817E1F080E090E00E943001809303038C17A1F00E944D036091130380E090E0B1
:2006E0000E9432018091130360E090E00E943201809113038093030310920203809102037C
:200700008F5F8093020302C010920203CF910895CF93DF9380E090E00E94300180930303DD
:200720008F3F39F41092030360E080E090E00E9432018DEF90E00E944B014AE050E060910C
:20074000030389E294E00E949C228DEE90E00E944B01C1E0D0E0CE010E9430018093020370
:200760008F3F31F460E0CE010E945929109202034AE050E06091020389E294E00E94952224
:200780006CE271E089E294E00E94CA212196C032D10509F78091030390E00E943001809362
:2007A000020389E294E0DF91CF910C94D321EF92FF920F931F93CF93DF931F92CDB7DEB7ED
:2007C0008C01E12CF12CF8012491222349F0622F89E294E029830E94CC2129812A3259F438
:2007E00080E1E816F10494F46DE071E089E294E00E94CA210BC0243231F0622F772767FD3E
:200800007095E626F7260F5F1F4FDDCF40E150E0B70189E294E00F90DF91CF911F910F917B
:20082000FF90EF900C94702210920B0160E08AE00C948A1F0F931F93CF93DF93CDB7DEB796
:2008400068970FB6F894DEBF0FBECDBF809110031F928F93809111031F928F93809112033D
:200860001F928F93809116038F93809115038F93809113031F928F93809114031F928F9319
:200880008FE091E09F938F938E010F5F1F4F1F930F930E945D27B80189E294E00E94CA211A
:2008A0000FB6F894DEBF0FBECDBF68960FB6F894DEBF0FBECDBFDF91CF911F910F910895EF
:2008C0000F931F93CF93C091F902C43008F470C08091FA029091FB022091FC023091FD025C
:2008E0008937910558F0233E44E0340760F041E040930C034FEF4093F80205C08837910522
:2009000011F010920C03213040E1340750F0A4E036952795AA95E1F7315F3093FD02209311
:20092000FC022091FC023091FD022115304230F02FEF3FE13093FD022093FC028038910583
:2009400060F0F4E096958795FA95E1F7825A9F4F9093FB028093FA020DC08B35910550F069
:2009600063E070E00E948E26645C7F4F7093FB026093FA028091FA029091FB028F3791058A
:2009800030F08FE790E09093FB028093FA0260911A0270911B0280911C0290911D022AE579
:2009A00030E040E050E00E94B626422F437005C040910103443008F043E08091FA029091DE
:2009C000FB02A0E0B0E05CE0880F991FAA1FBB1F5A95D1F70091FC021091FD0220E030E0E6
:2009E00063E1000F111F221F331F6A95D1F7802B912BA22BB32B0091FE020F7710E020E001
:200A000030E073E0000F111F221F331F7A95D1F7802B912BA22BB32B50E060E070E0EAE02E
:200A2000440F551F661F771FEA95D1F7842B952BA62BB72BC93018F028E02093F902209103
:200A4000F902269526952370822B8093ED029093EE02A093EF02B093F002CF911F910F91C7
:200A60000895CF92DF92EF92FF92C090ED02D090EE02E090EF02F090F0020E941A0489EA60
:200A800090E00E944B014AE050E06091020389E294E00E94952283EA90E00E944B014091D4
:200AA000E5025091E6026091E7027091E80227E030E089E294E00E94CC238CE990E00E94B3
:200AC0004B014091E9025091EA026091EB027091EC0227E030E089E294E00E94CC2385E97F
:200AE00090E00E944B01C701B601B3E19695879577956795BA95D1F74AE050E089E294E0E6
:200B00000E94B3228EE890E00E944B01D701C6012AE0B695A795979587952A95D1F7BC01CE
:200B2000637077274AE050E089E294E00E94B32287E890E00E944B01D701C6013CE0B695C1
:200B4000A795979587953A95D1F7BC016F7777274AE050E089E294E00E94B32280E890E0B1
:200B60000E944B01D701C60143E0B695A795979587954A95D1F7BC016F7777274AE050E0B4
:200B800089E294E00E94B32288E790E00E944B01B601677077274AE050E089E294E0FF903E
:200BA000EF90DF90CF900C94B922CF92DF92EF92FF928FE690E00E944B010E94661E6B0124
:200BC0007C010E94661E6C197D0960377741D8F48CEB92E00E94C50B039771F48CEB92E009
:200BE0000E94A10CAB01BC0120E130E089E294E00E94CF2281E00CC068EC70E080E090E019
:200C00000E94931EDECF88E690E00E944B0180E0FF90EF90DF90CF900895CF92DF92EF92DC
:200C2000FF92CF93C82F5F9A0E946004CC2309F45CC080910D03882381F061EF72E083EF72
:200C400092E00E94CC018091F1029091F202893E9340A8F010920C0312C040E050E060EA4B
:200C600071E44093F3025093F4026093F5027093F60286E094E09093F2028093F102C430AE
:200C800001F54091F3025091F4026091F5027091F6024093E5025093E6026093E70270937C
:200CA000E8026091F1027091F20280E090E00E9418256093E9027093EA028093EB029093D2
:200CC000EC024091ED025091EE026091EF027091F002487F8C2F8770482B4093ED0250932F
:200CE000EE026093EF027093F0020E9431050E94661E6B017C01CC2359F080910B03882342
:200D000039F05F98CF91FF90EF90DF90CF90089580910C038111F5CF4CE065EE72E08CEB1C
:200D200092E00E945C0C0E9459030E94661E6C197D096037774128F764E670E080E090E030
:200D40000E94931EF2CF60E08AE00E948A1F87E091E00E944B010E944D0387E00E940D06B6
:200D600060E089E00E948A1F64EF71E080E090E00C94931E48E065E08CEB92E00E949E0B19
:200D80008AEE91E00E94820F6DE18FEC91E00C94BE168CEB92E00C94AE0BCF92DF92EF92F4
:200DA000FF9261E08AE00E948A1F0E94661E6B017C010E94661E6C197D0960377741F0F439
:200DC00089E294E00E94C01F1816190634F489E294E00E94D91F8A9739F064E670E080E081
:200DE00090E00E94931EE5CF8DEB90E00E94D7038EEA90E00E94D70381E005C060E08AE0E4
:200E00000E948A1F80E0FF90EF90DF90CF900895CF9380910E03882309F4F1C08FEC91E0E5
:200E20000E94E0178111EBC08FEC91E00E94C9169091B101891B992787FD909597FF03C036
:200E4000919581959109833010F0C1E024C08FEC91E00E94CC169091B001891B992787FD5A
:200E6000909597FF03C0919581959109833068F78FEC91E00E94CF169091AF01891B992764
:200E800087FD909597FF03C0919581959109C1E0833008F4C0E08FEC91E00E94C91680930A
:200EA000B1018FEC91E00E94CC168093B0018FEC91E00E94CF168093AF01CC2309F4A1C0C9
:200EC0009091B10129E0290F2331B8F49091B00129E0290F233128F4893244F5883D44F18D
:200EE00006C0983D24F4875F833120F11BC09932CCF0875F833100F115C099324CF09091AA
:200F0000B001975F933170F4875F8331B8F00AC0983D44F49091B001975F933118F4875F6B
:200F2000833170F01092AE01C6E00BC0C0E009C0C1E007C0C2E005C0C3E003C0C4E001C0D8
:200F4000C5E08091AE0181110CC080910103811121C0C230F9F481E08093AE010E9482011F
:200F60001BC0813039F480910103823099F4C33089F40BC0823071F480910103833051F405
:200F8000C23019F0C11106C084E08093AE010E94820102C01092AE01C09301038091AE0149
:200FA000833079F40E944D0384E190E00E94680118B817B81BB81AB815B882E084B91092ED
:200FC000AE018091AE018430D1F4809102038A35A0F481E090910803891B809308031092CF
:200FE0000903882331F080910B01811102C00E94CD0688E090E00E9468011092AE0181E09E
:2010000001C080E0CF910895BF92CF92DF92EF92FF920F931F93CF93DF937C010E946A02CA
:2010200081110E94A30680910803882379F08091FE02893108F43EC18091090391E0980FA8
:2010400090930903803308F035C102C00E9414048091F8028F3F19F08E2D0E940D060E9450
:201060000807E114F10471F48091FA029091FB02069740F08091F702811104C084E0809343
:201080000A0106C010920A0134E0E316F10411F01092B201B090080384E0E816F10409F0DF
:2010A00041C02091B201C4EAD1E0022E02C0CC0FDD1F0A94E2F781E090E0022E01C0880FD3
:2010C0000A94EAF790911203980F983118F49093120307C010921203809113038F5F809301
:2010E000130380911303803238F010921303809114038F5F80931403809114038D3058F0B4
:2011000010921403809115039091160301969093160380931503233008F0CFC02F5F20939A
:20112000B201CBC080910A03CBE4D0E0C81BD10980910A018111C1C0B110BFC008E010E0F0
:2011400089E294E00E940E20C12CD12CCC16DD0608F056C020E030E040E050E0B8018BE19E
:2011600093E00E943D0B2BB120688091080330E4839FC0011124282B2BB980910B01882367
:2011800061F00E946A028091FE02823630F480910803811102C00E9414040E94080788237D
:2011A00041F180910B01882319F00E94820106C062E370E080E090E00E94931E80910A016D
:2011C0008F5F80930A010830110511F4D694C79484E0E816F10449F08091080309E010E066
:2011E000B81639F0C0E0D0E004C009E010E0C0E0D0E03FEFC31AD30A8BB18F738BB9A6CFDC
:2012000080910A0183303CF481E090910803911103C080E001C081E080930A0184E0E816DB
:20122000F10429F4CD2B19F48FEF80930A0180910A01181644F480910B01811104C00E9464
:20124000CD0680930B010E94661E609304037093050380930603909307031092F7021092EB
:20126000F80210920A031092FB021092FA021092FD021092FC021092E9021092EA0210928A
:20128000EB021092EC021092E5021092E6021092E7021092E80280910A01992787FD909522
:2012A000DF91CF911F910F91FF90EF90DF90CF90BF90089510920803CBCE09E010E040CF18
:2012C0008F929F92AF92BF92CF92DF92EF92FF920F931F93CF93DF930E94661E6B017C010F
:2012E00000ED17E0C0E0D0E00E94661E6C197D096017710710F589E294E00E94C01F181607
:201300001906A4F40E94661E6B017C015F9A04E610E0C1E00BC089E294E00E94D91F682FB8
:201320008AEE91E00E940E148111D1E089E294E00E94C01F892B79F7D7CFC11102C00E945D
:20134000CD0667E1862E63E0962E7FE0A72E73E0B72EE0E1CE2EE3E0DE2EF1E1EF2EF3E0FD
:20136000FF2E02E113E023E133E044E153E065E173E08AEE91E00E948F15DD23E1F19401CC
:2013800049EE52E065EE72E08AEE91E00E94221580912A0290912B028F3F910509F480E031
:2013A0008093F9028AEE91E00E945F160E9431260E94E7249B0177FF04C022273327261BBF
:2013C000370B3093FD022093FC028AEE91E00E9495160E9431260E94EC247093FB02609384
:2013E000FA028091F8029091F902890F8093F8021092F70205C08091F7028F5F8093F702C1
:201400005F988C2FDF91CF911F910F91FF90EF90DF90CF90BF90AF909F908F9008950E9403
:20142000CD1E64E670E080E090E00E94931E0E945C0126E040E855E260E070E089E294E031
:201440000E94952089E294E00E94D3218AE691E00E944B0189E294E00E94D3210E9488034F
:201460000E942D020E946A028FE591E00E944B014AE050E06091FE0289E294E00E94952237
:201480008CE591E00E944B016091FF02709100034AE050E089E294E00E94B92264E670E036
:2014A00080E090E00E94931E0E94CD0680930B01882341F082E591E00E94D70381E090E074
:2014C0000E9468010E94A40180930E03882371F064EF71E080E090E00E94931E0E94080712
:2014E000882321F082E090E00E94680185EB91E00E94A21D80930D03882381F064EF71E02E
:2015000080E090E00E94931E61EF72E083EF92E00E94CC0183E090E00E9468010E94090228
:201520000E94D505882359F064EF71E080E090E00E94931E84E090E00E94680115C05E9AC8
:2015400089E294E00E940E2064EF71E080E090E00E94931E60E089E00E948A1F68EE73E078
:2015600080E090E00E94931E87E491E00E944B010E9434014AE050E0BC0189E294E00E940F
:2015800070220E94661E609304037093050380930603909307030E94661E209104033091A6
:2015A0000503621B730B603A7F40C8F05E9A64E670E080E090E00E94931E0E9408075E98BB
:2015C00080910A038F5F80930A030E94661E6093040370930503809306039093070380915A
:2015E0000A01813071F40E946009882351F020E030E040E050E065E070E08BE193E00E945D
:201600003D0B2091F802203440F08091FA029091FB020B978634910510F427FF0AC0809131
:20162000F702811106C080E090E00E94040880930A0180910A038F3120F48091F702893701
:2016400030F085E090E00E94040880930A0180910A01811106C084E090E00E9404088093C0
:201660000A0180910A018F3F09F095CF86E090E00E94040880930A018ECF4115510529F450
:20168000EAE7F0E080818F7780836A307105B1F063FF02C088E201C088E06770682B88E164
:2016A00090E00FB6F894A895809360000FBE60936000E0E6F0E0808180648083232BA1F438
:2016C00083B7817F846083BFF89483B7816083BF85B7806685BF8F7D85BF7894889583B7A8
:2016E0008E7F83BF78940EC083B7817F846083BFF89483B7816083BF7894889583B78E7F08
:2017000083BF7894452B29F4EAE7F0E080818068808308951F920F920FB60F9211248F93B5
:2017200088E10FB6F89480936000109260000FBE8F910F900FBE0F901F901895CF93DF9352
:20174000EC0120E00E94C40E4FEF5FEFBA014F8F58A369A37AA3DF91CF9108950C946B0E59
:201760000F931F93CF93DF938C01FB016491EF012196662329F0C8010E94CC21FE01F6CF5E
:20178000DF91CF911F910F9108956F927F928F929F92AF92BF92CF92DF92EF92FF920F9310
:2017A0001F93CF93DF9300D000D01F92CDB7DEB77C0140E855E260E070E00E94F40E60E0E9
:2017C000C7010E942F0D6BE3C7010E942F0D19821A821B821C821D820E94661E4B015C018F
:2017E000CE0101966C0100E010E03C010E94661E681979098A099B09623371058105910582
:20180000A8F4C7010E949A0D181619067CF7C7010E940E0D0430110519F48FEF9FEF0EC0A5
:20182000F60181936F010F5F1F4FE0CF6EE271E0C3010E943D27892B81F7C8010F900F9004
:201840000F900F900F90DF91CF911F910F91FF90EF90DF90CF90BF90AF909F908F907F90C4
:201860006F9008950F931F93CF93DF93EC01CE010E949A0D892B89F40E94661E0F8D18A1F3
:2018800029A13AA1601B710B820B930B613D77408105910560F35F98EACFCE010E940E0D81
:2018A000182FCE010E940E0DCB97D9F7812FDF91CF911F910F910895CF92DF92EF92FF92D2
:2018C0000F931F93CF93DF93EC01E62ED72EF42E0E94661E6F8F78A389A39AA360E0CE0101
:2018E0000E942F0D65EA71E0CE010E94B00B6F2DCE010E942F0DCE2C0E2D1D2D802F8C1922
:201900008F1538F4F80161918F01CE010E942F0DF5CF6BE3CE010E942F0DCE010E94320C61
:201920008F3429F4CE010E94320C81E001C080E0DF91CF911F910F91FF90EF90DF90CF909A
:201940000895BF92CF92DF92EF92FF920F931F93CF93DF93CDB7DEB728970FB6F894DEBFC7
:201960000FBECDBF8C0160E00E942F0D6FE971E0C8010E94B00BCE0101967C0188E0F70151
:2019800011928A95E9F7C8010E949A0D892BD9F3B12CC8010E94820DCB2CD12CCB9719F4D9
:2019A000F5E0FB1570F0C8010E940E0DF701EC0DFD1D8083C8010E949A0D892BD9F3B39475
:2019C000E8CFC8010E940E0D40E060E070E0CB0122E0C21AD108242F30E02C153D0574F449
:2019E000982F872F762F6627F701E20FF31F2081620F711D811D911D4F5FEDCF28960FB664
:201A0000F894DEBF0FBECDBFDF91CF911F910F91FF90EF90DF90CF90BF90089520915E034A
:201A200030915F0328173907B9F490911C0380911D03981789F0E0911C03F0E0E25EFC4FD3
:201A4000808120911C0330E02F5F3F4F2F73332720931C0390E008958FEF9FEF08951F9353
:201A6000CF93DF93DC015C968D919C915D97009749F481E090E013969C938E93129780E0DD
:201A800090E03BC05196ED91FC91529750962C915097322F30951FB75E964C915E9741FB78
:201AA000772770F941FD6095F8944081772311F0422B01C043234083EC012197F1F748E0F8
:201AC000508160FF02C0522B01C053235083EC012197F1F76695415099F78081772311F048
:201AE000832301C0822B80831FBF5C968D919C915D970197F1F781E090E0DF91CF911F91EF
:201B00000895089520915E0330915F032817390771F490911C0380911D03981741F0E091B0
:201B20001C03F0E0E25EFC4F808190E008958FEF9FEF089520915E0330915F0328173907C0
:201B400071F480911D0320911C0390E0805C9F4F821B910960E470E00E94A226089580E0B3
:201B600090E00895E0915E03F0915F03E817F90769F4A389B4899C918589809589238C93C3
:201B800010925F0310925E0381E0089580E00895CF93DF93EC018A8D9B8D892BF1F080919D
:201BA0005E0390915F038C179D07B9F0009711F00E94B20D8E8D8E7F8E8F10921D031092AF
:201BC0001C03D0935F03C0935E03EB89FC8980819D89892B808381E001C080E0DF91CF9144
:201BE00008951F920F920FB60F9211242F933F934F935F936F937F938F939F93AF93BF93F7
:201C0000EF93FF93E0915E03F0915F03309709F451C0868DA685B785958581FF04C08C9131
:201C2000892329F447C08C91892309F043C0A389B4899C918589809589238C93868997895C
:201C40000197F1F7208D318DA685B785758558E040E0C9010197F1F7842F90E0959587952D
:201C6000482F6C91672309F04068515091F7868D81FD409580911D0390E001968F7399273C
:201C800020911C03281749F0A0911D03B0E0A25EBC4F4C9380931D0303C0868D8160868F32
:201CA000828D938D0197F1F7A389B4898C919589892B8C93FF91EF91BF91AF919F918F910E
:201CC0007F916F915F914F913F912F910F900FBE0F901F90189521E431E0FC0131832083C3
:201CE0000C94B20D1F93CF93DF93EC01162F6E8D6695617081E06827812F0E948A1F61E0DA
:201D0000812F0E94511F812F90E0FC01E354FE4FE491E88BFC01EF52FE4FE491F0E0EE0FAB
:201D2000FF1FE151FE4F859194919A8B898BDF91CF911F9108951F93CF93DF93EC01162FBD
:201D400060E0812F0E94511F8E8D81FD04C061E0812F0E948A1F1C87812F90E0FC01E354F1
:201D6000FE4FE491ED87FC01EF52FE4FE491F0E0EE0FFF1FEB51FE4F859194919F878E8743
:201D8000DF91CF911F910895FF920F931F93CF93DF93EC01F62E522F1B821A8208EE13E0B9
:201DA00020E030E00C831D832E833F8381E491E0998388831F8A1E8A198E188E1B8E1A8E85
:201DC0001D8E1C8E8E8D8E7F50FB81F98E8F642FCE010E94720E6F2DCE01DF91CF911F9135
:201DE0000F91FF900C949B0ECF93DF93EC019A01AB011B8E1A8E198E188E1F8A1E8A60EC28
:201E000076EC8DE290E00E94D826C9012430310520F0B9016350710902C061E070E07D8F37
:201E20006C8FEC85E63108F068C0B901769567956431710518F06351710902C061E070E0AA
:201E40007F8B6E8B069718F0C901059702C081E090E0998F888FC901880F991F820F931F46
:201E600096958795969587958D30910510F00C9702C081E090E09B8F8A8F20916800E830D7
:201E800050F091E0EE3008F490E081E001C0880F9A95EAF701C084E0822B809368002C8540
:201EA000283038F02E3040F0263148F48CE690E008C08DE690E005C08BE690E002C080E02C
:201EC00090E09C8B8B8B283030F481E001C0880F2A95EAF70DC0822F90E02E3010F4089791
:201EE00001C00E9791E001C0990F8A95EAF7892F8D8B8C8D9D8D0197F1F7CE01DF91CF9170
:201F00000C94C80D0F931F93FC010FEF1FEF98010083118322833383108611861286138686
:201F20004FEF59EC6AE97BE3408B518B628B738B408F518F628F738F40A351A362A373A347
:201F400040A751A762A773A740AB51AB62AB73AB00AF11AF22AF33AFDC01A05CBF4F8FEFE6
:201F600090E011969C938E9314960D931D932D933C93139718960D931D932D933C93139790
:201F800018961C9211961C92509686E08C9311961C9211961C9211961C92EA5AFF4F108202
:201FA0001F910F9108952FEB260F862F992787FD9095263010F4C79708956156663018F419
:201FC000875591090895C09708950F931F93FB0160E070E0CB01019120ED200F2A30A0F492
:201FE000AAE0B0E09B01AC010E94F726112707FD1095212F312F600F711F821F931F605329
:20200000710981099109E7CF1F910F9108950F931F93CF93FC01EA5AFF4FC1E020812D3299
:2020200019F0C0E08F0103C08C01095A1F4FB8010E94E50F9B01AC01A4E6B0E00E94F726D5
:20204000F801DF01219130ED320F3A30D0F32E3269F511962C91119730ED320F3A3030F5B3
:20206000332727FD3095205331094AE0429F8001439F100D1124222717FD2095322F600FCE
:20208000711F821F931F12960C9120ED200F2A3068F4112707FD109500531109222717FD7B
:2020A0002095322F600F711F821F931FCC2339F090958095709561957F4F8F4F9F4FCF9171
:2020C0001F910F9108954F925F926F927F928F929F92AF92BF92CF92DF92EF92FF92CF9305
:2020E000DF93EC01CA5ADF4FBE010E94E50F2B013C0124E630E040E050E00E94B6269B01ED
:20210000AC0160EA76E881E090E00E947E266B017C01FE01819190ED980F9A30D8F38E32E0
:2021200019F5EF0180E1882E87E2982EA12CB12CA99180ED8A0F8A30B8F4BB27A7FDB09540
:20214000D097A50194010E940227C60ED71EE81EF91EC501B4012AE030E040E050E00E94A5
:20216000B62649015A01E4CFC701B6016D5F7F4F8F4F9F4F26E030E040E050E00E94B62662
:2021800069017A01C301B20124E630E040E050E00E94B62660E472E48FE090E00E947E263C
:2021A000C60ED71EE81EF91EC701B601DF91CF91FF90EF90DF90CF90BF90AF909F908F9032
:2021C0007F906F905F904F900895DB01FA018D91882319F091918917D1F3992787FD9095EE
:2021E0000895CF92DF92EF92FF920F931F93CF93DF93EC01FC01EB5AFF4F1081112309F4F7
:20220000B1C0319660810E94D30F182FFE01E95AFF4F6081CE010E94D30F50E1159F800DA4
:202220001124FE01EC5AFF4F9081891711F010E0EBC2FE01EB59FF4F2081213081F48C8182
:202240009D81AE81BF8188839983AA83BB838C859D85AE85BF8588879987AA87BB87FE0114
:20226000E859FF4F1081112311F3B09780819181A281B381349780839183A283B3833C9646
:2022800080819181A281B381349780839183A283B3832223A1F1213009F0B6C28C819D81D3
:2022A000AE81BF8188839983AA83BB838C859D85AE85BF8588879987AA87BB878C899D8996
:2022C000AE89BF89888B998BAA8BBB8B8C8D9D8DAE8DBF8D888F998FAA8FBB8F8CA59DA5CE
:2022E000AEA5BFA588A799A7AAA7BBA78CA99DA9AEA9BFA988AB99ABAAABBBAB85C28CA125
:202300009DA1AEA1BFA188A399A3AAA3BBA38C819D81AE81BF8188839983AA83BB838C897D
:202320009D89AE89BF89888B998BAA8BBB8B8C8D9D8DAE8DBF8D888F998FAA8FBB8FFE01BB
:20234000E05CFF4FDE01AE5BBF4F8D919C91918380838CAD9DADAEADBFAD88AF99AFAAAF79
:20236000BBAF52C2FC01EA59FF4FE0808B599F4F6C01E11017C07E0196E5E90EF11C4DE4BB
:2023800051E0B701CE010E94E510892B09F4FBC143E551E0B701CE010E94E510892B09F459
:2023A000F2C1F3C1FC010081063009F440CFCE018A5A9F4FFC014081442309F438CFF0E25A
:2023C0000F9F90011124F12C2E293F292434310509F4FEC008F067C02232310509F4CEC030
:2023E00078F52530310509F4FBC098F42230310509F4CBC028F42130310509F4B3C004C2B8
:202400002330310509F4D1C02430310509F4E0C0FBC12830310509F41DC148F42630310591
:2024200009F40AC12730310509F40EC1EDC12930310509F417C12132310509F493C0E4C1EB
:202440002732310509F4E8C078F42432310509F4ACC008F49AC02532310509F4B9C0263236
:20246000310509F4BDC0D0C12134310509F47AC088F42832310509F4D7C02932310509F02F
:20248000C3C1BC01CE010E94E50F6C877D878E879F87BAC12234310509F477C0233431059C
:2024A00009F483C0B1C12039310509F418C158F52438310509F413C178F42634310509F45C
:2024C000A2C008F48DC02734310509F4BDC02238310509F4CFC098C12B38310509F406C174
:2024E00048F42738310509F401C12838310509F4F6C08AC12C38310509F4F1C02F383105D3
:2025000009F4F4C081C1283A310509F4E8C098F4223A310509F4AEC028F42339310509F457
:20252000E5C072C1243A310509F4D9C0273A310509F4DCC069C12F3A310509F4D7C048F4D0
:202540002B3A310509F4D2C02C3A310509F4C7C05BC1203B310509F4C2C0233B310509F474
:20256000C5C052C1CE010E9407106C837D838E839F830E94661EC85BDF4F12C0C859DF4F81
:2025800081E0413409F05EC0A8C0CE010E9463106C8B7D8B8E8B9F8B0E94661EC05BDF4F51
:2025A000688379838A839B832FC1433509F03FCE8C899D89AE89BF89B095A095909581952C
:2025C0009F4FAF4FBF4F8C8B9D8BAE8BBF8B1CC1CE010E9463106C8F7D8F8E8F9F8F14C157
:2025E000473509F024CE8C8D9D8DAE8DBF8DB095A095909581959F4FAF4FBF4F8C8F9D8FB4
:20260000AE8FBF8F01C145E050E0BC01CE0187599F4F0E944627F8C0CE010E9407106CA75C
:202620007DA78EA79FA7F0C0CE010E9407106CAB7DAB8EAB9FABE8C0C859DF4F81E0413335
:202640000CF04BC080E049C00E941F27CE5BDF4F992749C0CE010E9407106CAF7DAF8EAFF6
:202660009FAFD2C0CE010E9407106CA37DA38EA39FA3CAC00E941F27815069F0CF52DF4F65
:20268000982F990F990F9883053009F0D0CD880F880F845F22C020E030E0043079F4FE019A
:2026A000E20FF31FE159FF4F10821182128213822C5F3F4F2033310591F7E0CFFE01E20F78
:2026C000F31FE156FF4F10821182128213822C5F3F4F2033310591F7D1CF888395C00E9449
:2026E0001F27C153DF4F998388838EC00E941F27FE01EF52FF4F81111AC0208130E0C70182
:20270000079797FD03969595879595958795820F931F880F991F880F991F8C0F9D1FFC012D
:20272000E159FF4F10821182128213826DC0408150E097012750310937FF02C02D5F3F4F4A
:202740003595279535952795240F351F220F331F220F331F2C0F3D1FF901E159FF4FAC011A
:202760005527440F551FC153DF4F80E090E09881482B592B662757FD6095762F40835183E2
:202780006283738341C081E026C041E751E0B701CE010E94E510892B19F4F601108234C061
:2027A00049E551E0B701CE010E94E510892B11F482E011C04FE551E0B701CE010E94E5102D
:2027C000892B41F045E651E0B701CE010E94E510892B21F483E0F601808316C047E751E03F
:2027E000B701CE010E94E510892B11F484E0F3CF4BE651E0B701CE010E94E510892B11F4A3
:2028000085E0E9CF86E0E7CF812FDF91CF911F910F91FF90EF90DF90CF900895CF92DF9264
:20282000EF92FF920F931F93CF93DF931F92CDB7DEB76C018C0109591F4F8B5A9F4F7C017A
:20284000643281F12CF46A3069F06D30E9F50AC06A3241F06C32C1F5F601EC5AFF4F80816B
:2028600086278083F80180818F3060F4F601E80FF11DEA5AFF4F1082C60169830E94F11025
:20288000698101C080E0F601EA59FF4F90819F5F9083F801108291E06A3209F090E0F7018A
:2028A00090832AC0F8011082F601EA59FF4F108272971082719686E08083F7011082F601EA
:2028C000E859FF4F108217C0F80180818E3048F491E0980F9083F601E80FF11DEA5AFF4F53
:2028E0006083F7018081811106C0F601EC5AFF4F80818627808380E00F90DF91CF911F91E9
:202900000F91FF90EF90DF90CF900895CF92DF92EF92FF920F931F93CF93DF93E901611532
:20292000710551F0FC01C088D188E288F388FB01C082D182E282F3824115510551F0FC0109
:20294000C08CD18CE28CF38CFA01C082D182E282F382209701F18C01045B1F4FF80180817B
:202960009181A281B3818F3F9F4FAF4FBF4F61F00E94661EF8010081118122813381601BD1
:20298000710B820B930B03C06FEF7FEFCB01688379838A839B83DF91CF911F910F91FF9074
:2029A000EF90DF90CF900895CF92DF92EF92FF920F931F93CF93DF93E9016115710551F00A
:2029C000FC01C084D184E284F384FB01C082D182E282F3824115510551F0FC01C080D1809F
:2029E000E280F380FA01C082D182E282F382209701F18C010C5B1F4FF80180819181A2815F
:202A0000B3818F3F9F4FAF4FBF4F61F00E94661EF8010081118122813381601B710B820B5C
:202A2000930B03C06FEF7FEFCB01688379838A839B83DF91CF911F910F91FF90EF90DF90EE
:202A4000CF900895AF92BF92CF92DF92EF92FF920F931F93CF93DF93CDB7DEB728970FB63F
:202A6000F894DEBF0FBECDBF5B018A01AE014F5F5F4FBE016B5F7F4F0E948614CD80DE80A4
:202A8000EF80F8848FEFC81689ECD8068AE9E8068BE3F80659F0C701B6010E941A2520E026
:202AA00034E244E759E40E947F2404C060E070E08AE794E4F5016083718382839383FFEF40
:202AC000CF16F9ECDF06FAE9EF06FBE3FF0669F069817A818B819C810E941A2520E034E22E
:202AE00044E759E40E947F2404C060E070E08AE794E4F801608371838283938328960FB67E
:202B0000F894DEBF0FBECDBFDF91CF911F910F91FF90EF90DF90CF90BF90AF9008952F924B
:202B20003F924F925F926F927F928F929F92AF92BF92CF92DF92EF92FF920F931F93CF9362
:202B4000DF93CDB7DEB72A970FB6F894DEBF0FBECDBF2B015A87498719019401AE014F5FF9
:202B60005F4FBE016B5F7F4F0E94D41441145104B9F06D817E818F81988524E630E040E01F
:202B800050E00E94B626613571051CF02CE637E002C020ED37E0620F731FF2017183608393
:202BA00089859A85892BB1F06D817E818F81988534E6432E512C612C712CA30192010E946E
:202BC000B626CA01B901A30192010E94B626E985FA8560832114310461F06D817E818F8157
:202BE000988520E137E240E050E00E94B626F10120830115110561F069817A818B819C81B0
:202C000020E432E44FE050E00E94B626F8012083E114F104A1F069817A818B819C8120E197
:202C200037E240E050E00E94B626CA01B90124E630E040E050E00E94B626F7016083C11490
:202C4000D104A9F069817A818B819C8124E6422E512C612C712CA30192010E94B626CA0157
:202C6000B901A30192010E94B626F6016083A114B10461F069817A818B819C8124E630E028
:202C800040E050E00E94B626F50160832A960FB6F894DEBF0FBECDBFDF91CF911F910F9166
:202CA000FF90EF90DF90CF90BF90AF909F908F907F906F905F904F903F902F900895FC0158
:202CC00060A171A182A193A16F3FF9EC7F07FAE98F07FBE39F0749F00E941A2520E030E04A
:202CE00048EC52E40E947F24089560E074E284E799E40895FC0160A571A582A593A56F3F48
:202D0000F9EC7F07FAE98F07FBE39F0749F00E94182520E030E048EC52E40E947F240895D7
:202D200060E070E080E89FEB0895CF92DF92EF92FF920E947A166B017C0120E030E040E83D
:202D40005FEB0E947B24882349F026E53EE04DEE5FE3C701B6010E94CE2504C060E070E0F6
:202D600080E89FEBFF90EF90DF90CF900895DC01ED91FC910190F081E02D0994FC01608374
:202D800040EE5EE265E672E4478B508F618F728F0895FC0183810895FC0184810895FC01AB
:202DA000858108951F93CF93DF93EC01162F688180E693E00E94D918612F80E693E00E9458
:202DC000901860E080E693E00E94E51841E0688180E693E00E94591980E693E00E943818D1
:202DE000892B29F080E693E00E94401801C080E0DF91CF911F9108951F93CF93DF93EC0182
:202E0000688180E693E00E94D9186AE280E693E00E94901880E693E00E945F1941E06881F1
:202E200080E693E00E94591980E693E00E943818892B31F080E693E00E944018182F01C02A
:202E400010E0688180E693E00E94D9186AE280E693E00E949018612F70E06E7F80E693E018
:202E60000E94B71680E693E0DF91CF911F910C945F191F93CF93DF93EC01688180E693E03D
:202E80000E94D9186AE280E693E00E94901880E693E00E945F1941E0688180E693E00E94B8
:202EA000591980E693E00E943818892B31F080E693E00E944018182F01C010E0688180E6E6
:202EC00093E00E94D9186BE270E080E693E00E94B71669E070E080E693E00E94B71680E6C0
:202EE00093E00E945F19688180E693E00E94D9186AE280E693E00E9490188A85882319F0BE
:202F000060E070E002C062E070E01163612B80E693E00E94B71680E693E0DF91CF911F912C
:202F20000C945F19CF93DF93EC016A874A836DE00E94D216688180E693E00E94D9186BE281
:202F400070E080E693E00E94B71660E470E080E693E00E94B71680E693E00E945F196AE0C0
:202F600070E080E090E00E94931ECE010E94FC16688180E693E00E94D9186EE070E080E602
:202F800093E00E94B7168A81843029F0883051F462E070E002C061E070E080E693E00E941A
:202FA000B71605C060E080E693E00E94901880E693E00E945F19CE01DF91CF910C9439179A
:202FC0001F93CF93DF93EC01688180E693E00E94D91860E080E693E00E94901860E080E620
:202FE00093E00E94E518182F8A85882311F047E001C044E0688180E693E00E94591980E675
:2030000093E00E943818892B71F180E693E00E94401889838A858823B9F080E693E00E9478
:20302000401880E693E00E9440188B8380E693E00E94401880E693E00E9440188C8380E63C
:2030400093E00E9440180AC080E693E00E9440188B8380E693E00E9440188C8380E693E09D
:203060000E9440188D83812FDF91CF911F9108958091900390E020919103821B910908954C
:203080002091910380919003281750F4E22FF0E0EE56FC4F808190E02F5F20939103089571
:2030A0008FEF9FEF0895E091910380919003E81730F4F0E0EE56FC4F808190E008958FEFB0
:2030C0009FEF08950895CF92DF92EF92FF920F931F93CF93DF937C01CB018A0120916C0328
:2030E000222389F0EB016B01C40ED51ECC15DD0569F06991D701ED91FC910190F081E02DED
:20310000C7010995F3CF642F0E94231AC801DF91CF911F910F91FF90EF90DF90CF900895B3
:20312000CF93DF931F92CDB7DEB7698320916C032223D1F020916D03203240F021E030E02B
:20314000FC013383228380E090E015C080916E03E82FF0E0E159FC4F998190838F5F809356
:203160006E0380936D0305C061E0CE0101960E94231A81E090E00F90DF91CF910895FC0136
:203180001382128248EE53E060E070E0448355836683778381E891E091838083089510925B
:2031A00091031092900310926E0310926D030C94661981E080936C0360938F0310926E0387
:2031C00010926D0308950C94D9180F93062F21E040916D036FE673E080918F030E94CC19C4
:2031E00010926E0310926D0310926C030F9108958F929F92AF92BF92CF92DF92EF92FF9294
:203200000F931F93CF93DF93EC01F62ED42E48015901EE2019F10E94D9181E2D143008F09E
:2032200013E01150B8F0E881F98128E0129FB0011124A501940104C05695479537952795C2
:203240006A95D2F7CA01B9010190F081E02DCE010995E7CF60E0CE010E94E5184D2D413254
:2032600008F040E22C2D62E973E08F2D0E9484191092910380939003DF91CF911F910F9146
:20328000FF90EF90DF90CF90BF90AF909F908F900895CF92EF920F931F93C22EE12C00E0C6
:2032A00010E098010E94F8181F910F91EF90CF90089521E00C94491921E00C94491961E0C1
:2032C0000C94E51880E693E00C94BF1810921F0481E080931D0410921C0461E082E10E949F
:2032E0008A1F61E083E10E948A1FE9EBF0E080818E7F808380818D7F808384E38093B8003E
:2033000085E48093BC000895413208F043C090911F049111FCCF91E090931F0420931D042E
:203320002FEF2093B2031092F703240F2093F60390931E0490911E04880F892B80931E0484
:2033400080911C04813061F410921C0480911E048093BB008091BC0083FDF8CF85EC01C02D
:2033600085EE8093BC0080911F048130E1F38091F703841710F44091F70328EF33E0FB01B7
:20338000D9018A2F821B841718F48D918193F9CF842F089580E008950F93413208F04AC0F8
:2033A00090911F049111FCCF92E090931F0400931D049FEF9093B2031092F7034093F60322
:2033C000FB0168EF73E0DB019A2F961B941718F491919D93F9CF10921E0490911E04880F82
:2033E000892B80931E0480911C04813061F410921C0480911E048093BB008091BC0083FD9D
:20340000F8CF85EC01C085EE8093BC00222321F080911F048230E1F38091B2038F3F61F07C
:203420008091B203803251F08091B203803341F483E007C081E005C080E003C082E001C08F
:2034400084E00F910895613298F420911F04243089F46093D403FC0186ED93E0DC012A2F24
:20346000281B261718F421912D93F9CF80E0089581E0089582E0089585ED8093BC0080913A
:20348000BC0084FDFCCF10921F04089585EC8093BC0010921F0408951F920F920FB60F9268
:2034A00011242F933F934F935F936F937F938F939F93AF93BF93EF93FF938091B900887F8E
:2034C000803609F49EC078F5883209F45DC090F4803109F456C038F4882309F4F5C0883011
:2034E00009F44FC0F5C0883109F44EC0803209F45FC0EEC0803409F46AC058F4803309F4F4
:2035000057C0883309F0E4C08093B2030E94461ADFC0803509F44FC0883509F45DC088347F
:2035200009F0D6C0D3C0883909F4C4C0A8F4883709F467C038F4883609F463C0803709F4EA
:2035400060C0C6C0883809F4B5C0803909F45FC0803809F0BDC05BC0803B09F483C038F44E
:20356000803A09F466C0883A09F47CC0B1C0803C09F4A4C0883C09F4A1C0883B09F487C0BC
:20358000A7C080911E0410C09091F7038091F603981770F5E091F70381E08E0F8093F70312
:2035A000F0E0E850FC4F80818093BB0085EC83C08093B2038BC0E091F70381E08E0F8093A6
:2035C000F7038091BB00F0E0E850FC4F80839091F7038091F6036BC0E091F70381E08E0F16
:2035E0008093F7038091BB00F0E0E850FC4F808380911D0481116AC081E080931C0484EAAC
:203600005EC083E080931F041092B303CFCF8091B303803208F04EC0E091B30381E08E0F59
:203620008093B3038091BB00F0E0EC54FC4F8083BDCF0E94461A8091B303803230F4E091FB
:20364000B303F0E0EC54FC4F10826091B30370E0E0911804F091190484EB93E00995109283
:20366000B30336C084E080931F041092D5031092D403E0911A04F0911B0409958091D4035C
:20368000811105C081E08093D4031092D603E091D50381E08E0F8093D503F0E0EA52FC4F84
:2036A00080818093BB009091D5038091D403981708F47CCF85E88093BC000AC085EC8093DA
:2036C000BC0010921F0404C01092B2030E943C1AFF91EF91BF91AF919F918F917F916F9156
:2036E0005F914F913F912F910F900FBE0F901F901895CF92DF92EF92FF92CF93DF93EC015E
:203700009B0140E050E08E859F85281B390B41095109AC85BD850E94F7266B017C018FE0D1
:20372000F594E794D794C7948A95D1F76E897F89882777FD8095982F2BE0660F771F881F1D
:20374000991F2A95D1F7288D398D442737FD4095542F2C0D3D1D4E1D5F1D0E94D8262C0D65
:203760003D1D4E1D5F1D288339834A835B83CA01B901685F7F4F8F4F9F4F34E095958795B6
:20378000779567953A95D1F70E941A2520E030E040E251E40E947F24DF91CF91FF90EF901F
:2037A000DF90CF9008952F923F924F925F926F927F928F929F92AF92BF92CF92DF92EF92F1
:2037C000FF920F931F93CF93DF93CDB7DEB728970FB6F894DEBF0FBECDBF1C014D835E8343
:2037E0006F837887DC01CD90DD90ED90FC90B0EACB1ABFE0DB0AE108F108A7019601C7013C
:20380000B6010E947E264B015C01F10104811581A085B1850E9402272B013C018DE07594F0
:203820006794579447948A95D1F7A089B189A50194019CE055954795379527959A95D1F781
:203840000E940227BB2797FDB095AB2F480E591E6A1E7B1EF2E04F0E511C611C711C32E062
:2038600075946794579447943A95D1F780E8580E611C711CF101A285B385A30192010E94E5
:20388000F726DC01CB014FE0B695A795979587954A95D1F789839A83AB83BC832801662474
:2038A00057FC6094762C52E0440C551C661C771C5A95D1F7A289B389A50194010E940227F3
:2038C0004B015C0167E1B594A794979487946A95D1F7A681B781A70196010E940227EBE032
:2038E0009595879577956795EA95D1F7860E971EA81EB91E480C591C6A1C7B1C92E0490E9E
:20390000511C611C711CF2E07594679457944794FA95D1F78D819E81AF81B8858419950968
:20392000A609B7098D839E83AF83B887A0E5B3EC2D813E814F8158850E94F72697FD0DC018
:20394000660F771F881F991F29813A814B815C810E94B62649015A010CC029813A814B81CF
:203960005C810E94B62649015A01880C991CAA1CBB1C9927B7FC9A958B2D7A2D692D9B012E
:20398000AC010E947E269B01AC01AEEDBBE00E94F7266C01FF24D7FCF094EF2CA3E4B3EECC
:2039A000A50194010E940527BB2797FDB095AB2FC80ED91EEA1EFB1E9FECC90E9EE0D91EA4
:2039C000E11CF11CF4E0F594E794D794C794FA95D1F7C80CD91CEA1CFB1CC701B6012896C5
:2039E0000FB6F894DEBF0FBECDBFDF91CF911F910F91FF90EF90DF90CF90BF90AF909F90C7
:203A00008F907F906F905F904F903F902F900895CF93C62F67E770E080E693E00E94E31815
:203A20006C2F80E693E00E94901880E693E00E945F1941E050E067E770E080E693E00E946B
:203A40005C1980E693E00E943818892BD1F380E693E00E944018CF9108950F931F93CF9328
:203A6000DF93EC0167E770E080E693E00E94E31864EF70E080E693E00E94B71664E370E051
:203A800080E693E00E94B71680E693E00E945F1965E070E080E090E00E94931E66EFCE010F
:203AA0000E94081D182F67EFCE010E94081D082F68EFCE010E94081D402F50E060E070E0B9
:203AC000762F652F542F4427612B9927872F762F652FDF91CF911F910F9108951F93CF93B3
:203AE000DF93162F67E770E080E693E00E94E318612F80E693E00E94901880E693E00E94CD
:203B00005F1942E050E067E770E080E693E00E945C1980E693E00E9438180297D4F380E6BC
:203B200093E00E944018182F80E693E00E944018D12F20E0C22F9E01282BC901DF91CF9181
:203B40001F910895CF93DF93EC0180E693E00E94CF186AEACE010E946E1D9D838C836CEA20
:203B6000CE010E946E1D9F838E836EEACE010E946E1D9987888760EBCE010E946E1D9B872A
:203B80008A8762EBCE010E946E1D9D878C8764EBCE010E946E1D9F878E8766EBCE010E944C
:203BA0006E1D998B888B68EBCE010E946E1D9B8B8A8B6AEBCE010E946E1D9D8B8C8B6CEBD2
:203BC000CE010E946E1D9F8B8E8B6EEBCE010E946E1D998F888F60EDCE010E94081D91E0BE
:203BE000853509F090E0892FDF91CF910895CF93DF93EC0167E770E080E693E00E94E318A8
:203C000064EF70E080E693E00E94B7166EE270E080E693E00E94B71680E693E00E945F19DE
:203C200065E070E080E090E00E94931E66EFCE01DF91CF910C946E1D1F920F920FB60F92F5
:203C400011242F933F938F939F93AF93BF938091210490912204A0912304B09124043091B4
:203C600020042DE2230F2D3720F40196A11DB11D05C020EB230F0296A11DB11D2093200447
:203C80008093210490932204A0932304B09324048091250490912604A0912704B091280490
:203CA0000196A11DB11D8093250490932604A0932704B0932804BF91AF919F918F913F91DB
:203CC0002F910F900FBE0F901F9018952FB7F894609121047091220480912304909124048D
:203CE0002FBF08959FB7F8944091250450912604609127047091280486B5A89B06C08F3FF7
:203D000021F04F5F5F4F6F4F7F4F9FBF2227342F452F562F280F311D411D511DA5E0B0E041
:203D20000E94F72608958F929F92AF92BF92CF92DF92EF92FF926B017C010E94721E4B01F8
:203D40005C01C114D104E104F104F1F00E9415240E94721E681979098A099B09683E734001
:203D60008105910570F321E0C21AD108E108F10888EE880E83E0981EA11CB11CC114D104D3
:203D8000E104F10429F7DDCFFF90EF90DF90CF90BF90AF909F908F900895789484B5826001
:203DA00084BD84B5816084BD85B5826085BD85B5816085BDEEE6F0E0808181608083E1E85A
:203DC000F0E01082808182608083808181608083E0E8F0E0808181608083E1EBF0E080819C
:203DE00084608083E0EBF0E0808181608083EAE7F0E08081846080838081826080838081EC
:203E00008E7F80838081806880831092C100089580930C0108958E3008F08E5087702091AD
:203E20000C0190E4299F90011124822B80937C0080917A00806480937A0080917A0086FD2D
:203E4000FCCF809178002091790090E0922B0895833081F028F4813099F08230A1F00895C0
:203E60008730A9F08830B9F08430D1F4809180008F7D03C0809180008F77809380000895F1
:203E800084B58F7702C084B58F7D84BD08958091B0008F7703C08091B0008F7D8093B000E4
:203EA0000895CF93DF9390E0FC01E354FE4F2491FC01EF52FE4F8491882349F190E0880F5F
:203EC000991FFC01E750FE4FA591B49181519E4FFC01C591D4919FB7611108C0F8948C917E
:203EE000209582238C93888182230AC0623051F4F8948C91322F309583238C938881822BB0
:203F0000888304C0F8948C91822B8C939FBFDF91CF9108950F931F93CF93DF931F92CDB735
:203F2000DEB7282F30E0F901E755FE4F8491F901E354FE4F1491F901EF52FE4F049100238A
:203F4000C9F0882321F069830E94281F6981E02FF0E0EE0FFF1FE151FE4FA591B4919FB7E3
:203F6000F8948C91611103C01095812301C0812B8C939FBF0F90DF91CF911F910F910895D4
:203F8000FC01818D228D90E0805C9F4F821B91098F7399270895FC01918D828D981731F09D
:203FA000828DE80FF11D858D90E008958FEF9FEF0895FC01918D828D981761F0828DDF010C
:203FC000A80FB11D5D968C91928D9F5F9F73928F90E008958FEF9FEF0895FC01848DDF0158
:203FE000A80FB11DA35ABF4F2C91848D90E001968F739927848FA689B7892C93A089B189F6
:204000008C9180648C93938D848D981306C00288F389E02D80818F7D80830895CF93DF934A
:20402000EC01888D8823C9F0EA89FB89808185FD05C0A889B9898C9186FD0FC00FB607FC31
:20404000F5CF808185FFF2CFA889B9898C9185FFEDCFCE010E94ED1FE7CFDF91CF910895E6
:20406000CF92DF92FF920F931F93CF93DF931F92CDB7DEB76C0181E0D60158968C9358974A
:204080005B969C915B975C968C915C97981307C05096ED91FC915197808185FD2EC0F6015B
:2040A000038D10E00F5F1F4F0F731127F02EF601848DF81211C00FB607FCF9CFD60150969C
:2040C000ED91FC915197808185FFF1CFC60169830E94ED1F6981EBCF838DE80FF11DE35A51
:2040E000FF4F6083D6015B960C935B975296ED91FC915397808180620CC0D6015696ED9169
:20410000FC91579760835096ED91FC91519780818064808381E090E00F90DF91CF911F9190
:204120000F91FF90DF90CF900895BF92CF92DF92EF92FF92CF93DF93EC016A017B01B22E28
:2041400060EC76EC8DE290E0A70196010E94B6262150310941095109569547953795279577
:20416000E889F98982E08083211580E1380798F0E889F989108260E673EE86E190E0A701DE
:2041800096010E94B62621503109410951095695479537952795EC85FD853083EE85FF85CF
:2041A0002083188EEC89FD89B082EA89FB89808180618083EA89FB89808188608083EA8957
:2041C000FB89808180688083EA89FB8980818F7D8083DF91CF91FF90EF90DF90CF90BF906D
:2041E00008951F920F920FB60F9211242F938F939F93EF93FF93E0913904F0913A0480819D
:20420000E0913F04F091400482FD12C09081809142048F5F8F7320914304821751F0E09139
:204220004204F0E0E75DFB4F958F8093420401C08081FF91EF919F918F912F910F900FBE0F
:204240000F901F9018951F920F920FB60F9211242F933F934F935F936F937F938F939F93A6
:20426000AF93BF93EF93FF9389E294E00E94ED1FFF91EF91BF91AF919F918F917F916F9109
:204280005F914F913F912F910F900FBE0F901F90189510922C0410922B0488EE93E0A0E04B
:2042A000B0E080932D0490932E04A0932F04B093300481E991E090932A048093290485EC1B
:2042C00090E0909336048093350484EC90E0909338048093370480EC90E090933A048093E8
:2042E000390481EC90E090933C0480933B0482EC90E090933E0480933D0486EC90E0909353
:20430000400480933F04109242041092430410924404109245040895CF92DF92EF92FF92DC
:204320000F931F93CF93DF937C016A01EB0100E010E00C151D0571F06991D701ED91FC9130
:204340000190F081E02DC7010995892B19F00F5F1F4FEFCFC801DF91CF911F910F91FF9019
:20436000EF90DF90CF9008956115710581F0DB010D900020E9F7AD0141505109461B570B21
:20438000DC01ED91FC910280F381E02D099480E090E008950C94B421DC01ED91FC9101903A
:2043A000F081E02D09946DE971E00C94B4218F929F92AF92BF92DF92EF92FF920F931F930B
:2043C000CF93DF93CDB7DEB7A1970FB6F894DEBF0FBECDBF7C01F42FD52ECB0119A22230F5
:2043E00008F42AE08E010F5D1F4F822E912CA12CB12C6F2F7D2DA50194010E94B626F22F15
:20440000D32ECA01015011096A3014F4E0E301C0E7E3E60FD801EC93232B242B252B49F7FB
:20442000B801C7010E94B421A1960FB6F894DEBF0FBECDBFDF91CF911F910F91FF90EF90D8
:20444000DF90BF90AF909F908F900895CF92DF92EF92FF920F931F93CF93DF93EC016A0110
:204460007B012115310579F4E881F9810190F081E02D642FDF91CF911F910F91FF90EF9034
:20448000DF90CF9009942A303105E9F477FF1AC06DE20E94CC218C0144275527BA014C1982
:2044A0005D096E097F092AE0CE010E94D721800F911FDF91CF911F910F91FF90EF90DF9048
:2044C000CF9008952AE0B701A601CE01DF91CF911F910F91FF90EF90DF90CF900C94D72114
:2044E0000F931F93CF93DF93EC019A01AB01662757FD6095762F0E9426228C01CE010E94FD
:20450000D321800F911FDF91CF911F910F9108952115310541F4DC01ED91FC910190F08120
:20452000E02D642F09940C94D7219A01462F50E060E070E00C9488220F931F93CF93DF9364
:20454000EC019A01462F50E060E070E00E9488228C01CE010E94D321800F911FDF91CF9151
:204560001F910F9108959A01AB0160E070E00C9488220F931F93CF93DF93EC019A01AB01D1
:2045800060E070E00E9488228C01CE010E94D321800F911FDF91CF911F910F9108950F93AF
:2045A0001F93CF93DF93EC010E9488228C01CE010E94D321800F911FDF91CF911F910F91EB
:2045C00008954F925F926F927F928F929F92AF92BF92CF92DF92EF92FF920F931F93CF93DC
:2045E000DF93EC016A017B01B22E9A01AB01C701B6010E945126882319F060EA71E027C080
:2046000026013701E89477F82FEF3FEF4FE75FE7C301B2010E94512681110DC02FEF3FEF4D
:204620004FE75FE7C301B2010E947B2418161CF464EA71E00CC02FEF3FEF4FE75FE4C70110
:20464000B6010E94CA251816ACF468EA71E0CE01DF91CF911F910F91FF90EF90DF90CF90D6
:20466000BF90AF909F908F907F906F905F904F900C94B4212FEF3FEF4FE75FECC701B601C1
:204680000E947B2487FDE1CF20E030E0A901C701B6010E947B2487FF0AC06DE2CE010E941B
:2046A000CC218C01F7FAF094F7F8F09402C000E010E0A12C60E070E080E09FE3AB1441F0D7
:2046C00020E030E040E251E40E947F24A394F6CF9B01AC01C701B6010E9417246B017C01A4
:2046E0000E94EC242B013C010E9418259B01AC01C701B6010E9416246B017C012AE0B30175
:20470000A201CE010E94D721080F191FBB2039F06CEA71E0CE010E94B421080F191F7B2C57
:20472000772041F120E030E040E251E4C701B6010E94CE256B017C010E94E7244B01AA2485
:2047400097FCA094BA2C2AE030E0B501A401CE010E942622080F191FC501B4010E941A25D3
:204760009B01AC01C701B6010E9416246B017C017A94D6CFC801DF91CF911F910F91FF9081
:20478000EF90DF90CF90BF90AF909F908F907F906F905F904F9008950C94E1224F925F9202
:2047A0006F927F92AF92BF92CF92DF92EF92FF920F931F93CF93DF93CDB7DEB729013A01CB
:2047C000621B730B840B950B29893A894B895C892A193B094C095D09298B3A8B4B8B5C8B09
:2047E0009B01AC0169897A898B899C890E947E26E418F50806091709A80197010E94D826F3
:204800002A0D3B1D4C1D5D1DCA01B901DF91CF911F910F91FF90EF90DF90CF90BF90AF9017
:204820007F906F905F904F90089508955058BB27AA270ED075C166D130F06BD120F031F42B
:204840009F3F11F41EF45BC10EF4E095E7FB51C1E92F77D180F3BA1762077307840795072E
:2048600018F071F49EF58FC10EF4E0950B2EBA2FA02D0B01B90190010C01CA01A00111247D
:20488000FF27591B99F0593F50F4503E68F11A16F040A22F232F342F4427585FF3CF46958D
:2048A00037952795A795F0405395C9F77EF41F16BA0B620B730B840BBAF09150A1F0FF0F4C
:2048C000BB1F661F771F881FC2F70EC0BA0F621F731F841F48F4879577956795B795F795FE
:2048E0009E3F08F0B3CF9395880F08F09927EE0F979587950895D9D008F481E008950CD089
:204900000FC107D140F0FED030F021F45F3F19F0F0C0511139C1F3C014D198F39923C9F36E
:204920005523B1F3951B550BBB27AA2762177307840738F09F5F5F4F220F331F441FAA1F97
:20494000A9F333D00E2E3AF0E0E830D091505040E695001CCAF729D0FE2F27D0660F771F99
:20496000881FBB1F261737074807AB07B0E809F0BB0B802DBF01FF2793585F4F2AF09E3FC0
:20498000510568F0B6C000C15F3FECF3983EDCF3869577956795B795F7959F5FC9F7880FC0
:2049A000911D9695879597F90895E1E0660F771F881FBB1F621773078407BA0720F0621BBC
:2049C000730B840BBA0BEE1F88F7E095089504D06894B111D9C00895BCD088F09F5790F025
:2049E000B92F9927B751A0F0D1F0660F771F881F991F1AF0BA95C9F712C0B13081F0C3D07C
:204A0000B1E00895C0C0672F782F8827B85F39F0B93FCCF3869577956795B395D9F73EF498
:204A200090958095709561957F4F8F4F9F4F0895E89409C097FB3EF49095809570956195CC
:204A40007F4F8F4F9F4F9923A9F0F92F96E9BB279395F695879577956795B795F111F8CFF2
:204A6000FAF4BB0F11F460FF1BC06F5F7F4F8F4F9F4F16C0882311F096E911C0772321F05A
:204A80009EE8872F762F05C0662371F096E8862F70E060E02AF09A95660F771F881FDAF7F7
:204AA000880F9695879597F90895990F0008550FAA0BE0E8FEEF16161706E807F907C0F085
:204AC00012161306E407F50798F0621B730B840B950B39F40A2661F0232B242B252B21F44C
:204AE00008950A2609F4A140A6958FEF811D811D089597F99F6780E870E060E008959FEFC0
:204B000080EC089500240A941616170618060906089500240A9412161306140605060895F2
:204B2000092E0394000C11F4882352F0BB0F40F4BF2B11F460FF04C06F5F7F4F8F4F9F4F31
:204B4000089557FD9058440F551F59F05F3F71F04795880F97FB991F61F09F3F79F08795FC
:204B60000895121613061406551FF2CF4695F1DF08C0161617061806991FF1CF8695710525
:204B8000610508940895E894BB2766277727CB0197F908958ADF08F48FEF08950BD0C0CF0A
:204BA000B1DF28F0B6DF18F0952309F0A2CFA7CF1124EACFC6DFA0F3959FD1F3950F50E026
:204BC000551F629FF001729FBB27F00DB11D639FAA27F00DB11DAA1F649F6627B00DA11D3F
:204BE000661F829F2227B00DA11D621F739FB00DA11D621F839FA00D611D221F749F3327C1
:204C0000A00D611D231F849F600D211D822F762F6A2F11249F5750408AF0E1F088234AF07F
:204C2000EE0FFF1FBB1F661F771F881F91505040A9F79E3F510570F05CCFA6CF5F3FECF3FC
:204C4000983EDCF3869577956795B795F795E7959F5FC1F7FE2B880F911D9695879597F93D
:204C6000089577DFE0F09E37D8F09639B8F49E3848F4672F782F8827985FF9CF8695779575
:204C8000679593959539D0F3B62FB1706B0F711D811D20F4879577956795939506C020C0AD
:204CA00073CF03DF880B990B0895882371F4772321F09850872B762F07C0662311F49927ED
:204CC0000DC09051862B70E060E02AF09A95660F771F881FDAF7880F9695879597F908950E
:204CE0009F3F31F0915020F4879577956795B795880F911D9695879597F90895DB018F9399
:204D00009F930E94F726BF91AF91A29F800D911DA39F900DB29F900D11240895AA1BBB1B5C
:204D200051E107C0AA1FBB1FA617B70710F0A61BB70B881F991F5A95A9F780959095BC01F4
:204D4000CD01089597FB072E16F4009407D077FD09D00E948E2607FC05D03EF490958195C4
:204D60009F4F0895709561957F4F0895A1E21A2EAA1BBB1BFD010DC0AA1FBB1FEE1FFF1F43
:204D8000A217B307E407F50720F0A21BB30BE40BF50B661F771F881F991F1A9469F76095C2
:204DA0007095809590959B01AC01BD01CF010895052E97FB1EF400940E94EF2657FD07D0F3
:204DC0000E94B62607FC03D04EF40C94EF2650954095309521953F4F4F4F5F4F08959095B7
:204DE0008095709561957F4F8F4F9F4F08950E941027A59F900DB49F900DA49F800D911D44
:204E000011240895B7FF0C94F7260E94F726821B930B0895EE0FFF1F0590F491E02D0994D7
:204E2000A29FB001B39FC001A39F700D811D1124911DB29F700D811D1124911D0895FC0144
:204E400088279927E89421912032E9F3293010F02E30C8F32B3241F02D3239F4689404C03B
:204E60000E945527820F911D219120532A30C0F31EF4909581959F4F0895FB01DC018D91D4
:204E8000019080190110D9F3990B0895FB01DC014150504048F001900D920020C9F701C0C7
:204EA0001D9241505040E0F708957AE0979F902D879F802D910D11240895AEE0B0E0E3E637
:204EC000F7E20C941B2A0D891E8986E08C831A8309838FEF9FE79E838D83AE01475E5F4F02
:204EE0006F89788DCE0101960E947F27EF81F885E00FF11F10822E96E4E00C94372AACE074
:204F0000B0E0E5E8F7E20C940D2A7C016B018A01FC0117821682838181FFBDC1CE0101967A
:204F20004C01F7019381F60193FD859193FF81916F01882309F4ABC1853239F493FD8591C9
:204F400093FF81916F01853229F4B70190E00E947D29E7CF512C312C20E02032A0F48B32C6
:204F600069F030F4803259F0833269F420612CC08D3239F0803339F4216026C02260246005
:204F800023C0286021C027FD27C030ED380F3A3078F426FF06C0FAE05F9E300D1124532ECB
:204FA00013C08AE0389E300D1124332E20620CC08E3221F426FD6BC1206406C08C3611F488
:204FC000206802C0883641F4F60193FD859193FF81916F018111C1CF982F9F7D9554933032
:204FE00028F40C5F1F4FFFE3F9830DC0833631F0833771F0833509F05BC022C0F8018081F4
:2050000089830E5F1F4F44244394512C540115C03801F2E06F0E711CF801A080B18026FF3F
:2050200003C0652D70E002C06FEF7FEFC5012C870E9472292C0183012C852F77222E17C058
:205040003801F2E06F0E711CF801A080B18026FF03C0652D70E002C06FEF7FEFC5012C8720
:205060000E9467292C012C852068222E830123FC1BC0832D90E048165906B0F4B70180E22F
:2050800090E00E947D293A94F4CFF50127FC859127FE81915F01B70190E00E947D29311050
:2050A0003A94F1E04F1A51084114510471F7E5C0843611F0893639F5F80127FF07C0608169
:2050C0007181828193810C5F1F4F08C060817181882777FD8095982F0E5F1F4F2F76B22EF4
:2050E00097FF09C090958095709561957F4F8F4F9F4F2068B22E2AE030E0A4010E94AF29E1
:20510000A82EA81844C0853729F42F7EB22E2AE030E025C0F22FF97FBF2E8F36C1F018F488
:20512000883579F0B4C0803719F0883721F0AFC02F2F2061B22EB4FE0DC08B2D8460B82E16
:2051400009C024FF0AC09F2F9660B92E06C028E030E005C020E130E002C020E132E0F8016C
:20516000B7FE07C060817181828193810C5F1F4F06C06081718180E090E00E5F1F4FA40107
:205180000E94AF29A82EA818FB2DFF77BF2EB6FE0BC02B2D2E7FA51450F4B4FE0AC0B2FCC9
:2051A00008C02B2D2E7E05C07A2C2B2D03C07A2C01C0752C24FF0DC0FE01EA0DF11D8081A0
:2051C000803311F4297E09C022FF06C07394739404C0822F867809F0739423FD13C020FF2D
:2051E00006C05A2C731418F4530C5718732C731468F4B70180E290E02C870E947D297394F4
:205200002C85F5CF731410F4371801C0312C24FF12C0B70180E390E02C870E947D292C85F5
:2052200022FF17C021FF03C088E590E002C088E790E0B7010CC0822F867859F021FD02C0B9
:2052400080E201C08BE227FD8DE2B70190E00E947D29A51438F4B70180E390E00E947D2903
:205260005A94F7CFAA94F401EA0DF11D8081B70190E00E947D29A110F5CF332009F451CEED
:20528000B70180E290E00E947D293A94F6CFF7018681978102C08FEF9FEF2C96E2E10C949F
:2052A000292AF999FECF92BD81BDF89A992780B50895262FF999FECF1FBA92BD81BD20BD94
:2052C0000FB6F894FA9AF99A0FBE01960895FC010590615070400110D8F7809590958E0FAB
:2052E0009F1F0895FC016150704001900110D8F7809590958E0F9F1F08950F931F93CF939C
:20530000DF93182F092FEB018B8181FD03C08FEF9FEF20C082FF10C04E815F812C813D810C
:20532000421753077CF4E881F9819F012F5F3F4F39832883108306C0E885F985812F0995B2
:20534000892B29F72E813F812F5F3F4F3F832E83812F902FDF91CF911F910F910895FA0154
:20536000AA27283051F1203181F1E8946F936E7F6E5F7F4F8F4F9F4FAF4FB1E03ED0B4E0FC
:205380003CD0670F781F891F9A1FA11D680F791F8A1F911DA11D6A0F711D811D911DA11DA0
:2053A00020D009F468943F912AE0269F11243019305D3193DEF6CF010895462F4770405D8C
:2053C0004193B3E00FD0C9F7F6CF462F4F70405D4A3318F0495D31FD4052419302D0A9F700
:2053E000EACFB4E0A6959795879577956795BA95C9F700976105710508959B01AC010A2E35
:2054000006945795479537952795BA95C9F7620F731F841F951FA01D08952F923F924F926C
:205420005F926F927F928F929F92AF92BF92CF92DF92EF92FF920F931F93CF93DF93CDB7F5
:20544000DEB7CA1BDB0B0FB6F894DEBF0FBECDBF09942A88398848885F846E847D848C84DF
:205460009B84AA84B984C884DF80EE80FD800C811B81AA81B981CE0FD11D0FB6F894DEBFC5
:205480000FBECDBFED01089512E0CAE0D2E004C0FE010E940C272296CC30D107C9F7F8946A
:2054A000FFCF0000CA048000010000000101013000253032642F253032642F25303264205D
:2054C000253032643A253032643A2530326420004B4F3B0030780041542656004F4B00004F
:2054E0000000002F0D8C219A0D0E0D820D810D4750524D4300474E524D4300474E474E5377
:2055000000474E47534100475047534100474C475356004750474741004750475356000039
:205520000000009018631838184018531862180000000030208C21C01FD91FCB1F0E200DC2
:205540000A006E616E00696E66006F7666002E00FFFFFFFFFFFFFFFFFFFFFFFFFFFFFFFF5E
:20556000FFFFFFFFFFFFFFFFFFFFFFFFFFFFFFFFFFFFFFFFFFFFFFFFFFFFFFFFFFFFFFFF4B
:205580003F934F935F936F937F938F939F93AF93BF93EF93FF93CF93DF93CDB7DEB76C9765
:2055A000DEBFCDBF1092E9008091E80083FF23C168E0CE0145960E94972882EF8093E80019
:2055C0003D8937FF05C08091E80080FFFCCF03C08EEF8093E800832F807609F0F0C02E8984
:2055E0004F89D88C21110CC0303829F48091C1048093F10002C01092F1001092F100F4C076
:20560000842F90E09D29213049F43111EDC0019709F0EAC08091C1048D7F0AC0233059F49D
:205620003111E2C0019709F0DFC08091C10482608093C104D9C0253041F48091E80080FF2B
:20564000FCCF40684093E300CFC0263009F08DC0EB8CFC8C22E0D2122CC080E090E00E94B3
:20566000462A0E940F2999E08E010F5F1F4FF801292F11922A95E9F79983DA8291E09E835F
:2056800090EA98879AEF99872091BE043091BF04275F3F4F3C832B838D83C7010E94462A66
:2056A00049E050E0B80180E00E94512A0E940F299BC0C7010E94462A0E94752DBE016B5E80
:2056C0007F4F0E94172D009719F00CF08DC090C081E0D8120EC08B8D9C8D089719F481E076
:2056E0008093BB048091BB0481112FC067E273E031C0E3E0DE127CC08F89882349F182305C
:2057000029F440E860E185E493E01CC0813029F440E86BE089E393E015C0833009F068C082
:205720000E94752D8E010F5F1F4FB8010E94362DF80101900020E9F73197E01BF10B40E093
:205740006E2FC8010E94D2284DC065E173E002C066E573E06115710509F44AC0FB0144917D
:2057600050E080E80E94512A3FC0273009F440C0283021F481E08093F10036C02930A1F56A
:205780003370B1F5E4E2F1E081E021E036E39081992361F08093E9002093EB0091919093B1
:2057A000EC003093ED008F5F873089F78EE78093EA001092EA008F898093C20415C08B8D4C
:2057C0009C8D0E94462A898D811105C0CE0145960E94A92507C00E94752DBE016B5E7F4FA6
:2057E0000E94552D882321F08EEF8093E80003C081E28093EB006C960FB6F894DEBF0FBE70
:20580000CDBFDF91CF91FF91EF91BF91AF919F918F917F916F915F914F913F912F911F911C
:205820000F91FF90EF90DF900F900FBE0F901F9018958093E9008091F200882319F08AE3C4
:205840008093E80008951F920F920FB60F9211242F933F934F935F936F937F938F939F93F3
:20586000AF93BF93CF93EF93FF93C091E1008091E100837F8093E1008093E100C3FF0FC07F
:205880001092E90081E08093EB001092EC0082E38093ED001092C20488E08093F000C2FF97
:2058A00019C083E00E94192C8091C404882339F08091C40481508093C404882389F180915D
:2058C000C304882339F08091C30481508093C304882341F1C4FF10C08091E2008E7E81605A
:2058E0008093E2008091E1008F7E8093E1008091C0048E7E806111C0C0FF16C08091E200A5
:205900008E7E80618093E2008091E1008E7E8093E1008091C0048E7E81608093C00404C056
:205920005D9ACDCF289AD6CFFF91EF91CF91BF91AF919F918F917F916F915F914F913F916D
:205940002F910F900FBE0F901F9018954F925F926F927F92AF92BF92CF92DF92EF92FF92C6
:205960000F931F93CF93DF93CDB7DEB729013A01621B730B840B950B29893A894B895C8929
:205980002A193B094C095D09298B3A8B4B8B5C8B9B01AC0169897A898B899C890E94F12F56
:2059A000E418F50806091709A80197010E944B302A0D3B1D4C1D5D1DCA01B901DF91CF919A
:2059C0001F910F91FF90EF90DF90CF90BF90AF907F906F905F904F9008950895EF92FF92E5
:2059E0000F931F93CF93DF937B01FC01C281D38100E010E0209781F0E881F9810280F3819E
:205A0000E02DB701CE01099597FD08C0080F191F0884D985C02DEECFC80102C08FEF9FEF7E
:205A2000DF91CF911F910F91FF90EF9008950F931F93CF93DF938B01FC01C281D38120979C
:205A400071F0E881F9810480F581E02DB801CE010995009731F40884D985C02DF0CF80E023
:205A600090E0DF91CF911F910F9108950F931F93CF93DF938B01FC01C281D381209771F099
:205A8000E881F9810680F781E02DB801CE010995080F111D0884D985C02DF0CFF80110828C
:205AA000DF91CF911F910F9108950F931F93CF93DF938B01FC01C281D381209771F0E88160
:205AC000F9810190F081E02DB801CE010995811106C00884D985C02DF0CF80E001C081E0A7
:205AE000DF91CF911F910F9108958091C90481110DC082E08093C50484E08093C60410928B
:205B0000C8041092C70481E08093C90485EC94E008955058BB27AA270ED075C166D130F0C3
:205B20006BD120F031F49F3F11F41EF45BC10EF4E095E7FB51C1E92F77D180F3BA1762076B
:205B400073078407950718F071F49EF58FC10EF4E0950B2EBA2FA02D0B01B90190010C018A
:205B6000CA01A0011124FF27591B99F0593F50F4503E68F11A16F040A22F232F342F44274D
:205B8000585FF3CF469537952795A795F0405395C9F77EF41F16BA0B620B730B840BBAF085
:205BA0009150A1F0FF0FBB1F661F771F881FC2F70EC0BA0F621F731F841F48F4879577955F
:205BC0006795B795F7959E3F08F0B3CF9395880F08F09927EE0F979587950895D9D008F49C
:205BE00081E008950CD00FC107D140F0FED030F021F45F3F19F0F0C0511139C1F3C014D1A5
:205C000098F39923C9F35523B1F3951B550BBB27AA2762177307840738F09F5F5F4F220F1F
:205C2000331F441FAA1FA9F333D00E2E3AF0E0E830D091505040E695001CCAF729D0FE2F2A
:205C400027D0660F771F881FBB1F261737074807AB07B0E809F0BB0B802DBF01FF27935870
:205C60005F4F2AF09E3F510568F0B6C000C15F3FECF3983EDCF3869577956795B795F7957D
:205C80009F5FC9F7880F911D9695879597F90895E1E0660F771F881FBB1F621773078407C2
:205CA000BA0720F0621B730B840BBA0BEE1F88F7E095089504D06894B111D9C00895BCD0D2
:205CC00088F09F5790F0B92F9927B751A0F0D1F0660F771F881F991F1AF0BA95C9F712C080
:205CE000B13081F0C3D0B1E00895C0C0672F782F8827B85F39F0B93FCCF38695779567950B
:205D0000B395D9F73EF490958095709561957F4F8F4F9F4F0895E89409C097FB3EF490959F
:205D20008095709561957F4F8F4F9F4F9923A9F0F92F96E9BB279395F69587957795679504
:205D4000B795F111F8CFFAF4BB0F11F460FF1BC06F5F7F4F8F4F9F4F16C0882311F096E9CE
:205D600011C0772321F09EE8872F762F05C0662371F096E8862F70E060E02AF09A95660F96
:205D8000771F881FDAF7880F9695879597F90895990F0008550FAA0BE0E8FEEF1616170623
:205DA000E807F907C0F012161306E407F50798F0621B730B840B950B39F40A2661F0232B6E
:205DC000242B252B21F408950A2609F4A140A6958FEF811D811D089597F99F6780E870E084
:205DE00060E008959FEF80EC089500240A941616170618060906089500240A941216130657
:205E0000140605060895092E0394000C11F4882352F0BB0F40F4BF2B11F460FF04C06F5F16
:205E20007F4F8F4F9F4F089557FD9058440F551F59F05F3F71F04795880F97FB991F61F0D2
:205E40009F3F79F087950895121613061406551FF2CF4695F1DF08C0161617061806991F20
:205E6000F1CF86957105610508940895E894BB2766277727CB0197F908958ADF08F48FEFCD
:205E800008950BD0C0CFB1DF28F0B6DF18F0952309F0A2CFA7CF1124EACFC6DFA0F3959FC4
:205EA000D1F3950F50E0551F629FF001729FBB27F00DB11D639FAA27F00DB11DAA1F649FBC
:205EC0006627B00DA11D661F829F2227B00DA11D621F739FB00DA11D621F839FA00D611D74
:205EE000221F749F3327A00D611D231F849F600D211D822F762F6A2F11249F5750408AF095
:205F0000E1F088234AF0EE0FFF1FBB1F661F771F881F91505040A9F79E3F510570F05CCF45
:205F2000A6CF5F3FECF3983EDCF3869577956795B795F795E7959F5FC1F7FE2B880F911D2F
:205F40009695879597F9089577DFE0F09E37D8F09639B8F49E3848F4672F782F8827985F9A
:205F6000F9CF86957795679593959539D0F3B62FB1706B0F711D811D20F487957795679599
:205F8000939506C020C073CF03DF880B990B0895882371F4772321F09850872B762F07C07A
:205FA000662311F499270DC09051862B70E060E02AF09A95660F771F881FDAF7880F969516
:205FC000879597F908959F3F31F0915020F4879577956795B795880F911D9695879597F9F8
:205FE0000895DB018F939F930E947030BF91AF91A29F800D911DA39F900DB29F900D112484
:206000000895AA1BBB1B51E107C0AA1FBB1FA617B70710F0A61BB70B881F991F5A95A9F7C0
:2060200080959095BC01CD01089597FB072E16F4009407D077FD09D00E94013007FC05D0CA
:206040003EF4909581959F4F0895709561957F4F0895A1E21A2EAA1BBB1BFD010DC0AA1FE8
:20606000BB1FEE1FFF1FA217B307E407F50720F0A21BB30BE40BF50B661F771F881F991FCD
:206080001A9469F760957095809590959B01AC01BD01CF010895052E97FB1EF400940E943D
:2060A000623057FD07D00E94293007FC03D04EF40C94623050954095309521953F4F4F4F7D
:2060C0005F4F089590958095709561957F4F8F4F9F4F0895EE0FFF1F0590F491E02D09942A
:2060E0000E948330A59F900DB49F900DA49F800D911D11240895B7FF0C9470300E947030F2
:20610000821B930B0895A29FB001B39FC001A39F700D811D1124911DB29F700D811D1124C1
:20612000911D0895FC0188279927E89421912032E9F3293010F02E30C8F32B3241F02D32ED
:2061400039F4689404C00E94C830820F911D219120532A30C0F31EF4909581959F4F08956F
:20616000FB01DC018D91019080190110D9F3990B0895FB01DC014150504048F001900D927E
:206180000020C9F701C01D9241505040E0F708957AE0979F902D879F802D910D112408958A
:2061A000AEE0B0E0E6EDF0E30C948E330D891E8986E08C831A8309838FEF9FE79E838D83AA
:2061C000AE01475E5F4F6F89788DCE0101960E94F230EF81F885E00FF11F10822E96E4E090
:2061E0000C94AA33ACE0B0E0E8EFF0E30C9480337C016B018A01FC0117821682838181FFE3
:20620000BDC1CE0101964C01F7019381F60193FD859193FF81916F01882309F4ABC18532C5
:2062200039F493FD859193FF81916F01853229F4B70190E00E94F032E7CF512C312C20E027
:206240002032A0F48B3269F030F4803259F0833269F420612CC08D3239F0803339F421605B
:2062600026C02260246023C0286021C027FD27C030ED380F3A3078F426FF06C0FAE05F9EDF
:20628000300D1124532E13C08AE0389E300D1124332E20620CC08E3221F426FD6BC120642F
:2062A00006C08C3611F4206802C0883641F4F60193FD859193FF81916F018111C1CF982F7A
:2062C0009F7D9554933028F40C5F1F4FFFE3F9830DC0833631F0833771F0833509F05BC015
:2062E00022C0F801808189830E5F1F4F44244394512C540115C03801F2E06F0E711CF801E7
:20630000A080B18026FF03C0652D70E002C06FEF7FEFC5012C870E94E5322C0183012C8540
:206320002F77222E17C03801F2E06F0E711CF801A080B18026FF03C0652D70E002C06FEF47
:206340007FEFC5012C870E94DA322C012C852068222E830123FC1BC0832D90E04816590697
:20636000B0F4B70180E290E00E94F0323A94F4CFF50127FC859127FE81915F01B70190E0AC
:206380000E94F03231103A94F1E04F1A51084114510471F7E5C0843611F0893639F5F8013F
:2063A00027FF07C060817181828193810C5F1F4F08C060817181882777FD8095982F0E5F26
:2063C0001F4F2F76B22E97FF09C090958095709561957F4F8F4F9F4F2068B22E2AE030E01A
:2063E000A4010E942233A82EA81844C0853729F42F7EB22E2AE030E025C0F22FF97FBF2E7C
:206400008F36C1F018F4883579F0B4C0803719F0883721F0AFC02F2F2061B22EB4FE0DC023
:206420008B2D8460B82E09C024FF0AC09F2F9660B92E06C028E030E005C020E130E002C003
:2064400020E132E0F801B7FE07C060817181828193810C5F1F4F06C06081718180E090E088
:206460000E5F1F4FA4010E942233A82EA818FB2DFF77BF2EB6FE0BC02B2D2E7FA51450F403
:20648000B4FE0AC0B2FC08C02B2D2E7E05C07A2C2B2D03C07A2C01C0752C24FF0DC0FE0189
:2064A000EA0DF11D8081803311F4297E09C022FF06C07394739404C0822F867809F0739446
:2064C00023FD13C020FF06C05A2C731418F4530C5718732C731468F4B70180E290E02C873E
:2064E0000E94F03273942C85F5CF731410F4371801C0312C24FF12C0B70180E390E02C8731
:206500000E94F0322C8522FF17C021FF03C088E590E002C088E790E0B7010CC0822F86787A
:2065200059F021FD02C080E201C08BE227FD8DE2B70190E00E94F032A51438F4B70180E323
:2065400090E00E94F0325A94F7CFAA94F401EA0DF11D8081B70190E00E94F032A110F5CFB9
:20656000332009F451CEB70180E290E00E94F0323A94F6CFF7018681978102C08FEF9FEFE6
:206580002C96E2E10C949C33F999FECF92BD81BDF89A992780B50895262FF999FECF1FBA6A
:2065A00092BD81BD20BD0FB6F894FA9AF99A0FBE01960895FC010590615070400110D8F725
:2065C000809590958E0F9F1F0895FC016150704001900110D8F7809590958E0F9F1F089588
:2065E0000F931F93CF93DF93182F092FEB018B8181FD03C08FEF9FEF20C082FF10C04E81AF
:206600005F812C813D81421753077CF4E881F9819F012F5F3F4F39832883108306C0E88540
:20662000F985812F0995892B29F72E813F812F5F3F4F3F832E83812F902FDF91CF911F91CD
:206640000F910895FA01AA27283051F1203181F1E8946F936E7F6E5F7F4F8F4F9F4FAF4F04
:20666000B1E03ED0B4E03CD0670F781F891F9A1FA11D680F791F8A1F911DA11D6A0F711D84
:20668000811D911DA11D20D009F468943F912AE0269F11243019305D3193DEF6CF01089558
:2066A000462F4770405D4193B3E00FD0C9F7F6CF462F4F70405D4A3318F0495D31FD40528A
:2066C000419302D0A9F7EACFB4E0A6959795879577956795BA95C9F700976105710508957D
:2066E0009B01AC010A2E06945795479537952795BA95C9F7620F731F841F951FA01D08956C
:206700002F923F924F925F926F927F928F929F92AF92BF92CF92DF92EF92FF920F931F93E7
:20672000CF93DF93CDB7DEB7CA1BDB0B0FB6F894DEBF0FBECDBF09942A88398848885F8497
:206740006E847D848C849B84AA84B984C884DF80EE80FD800C811B81AA81B981CE0FD11DBD
:206760000FB6F894DEBF0FBECDBFED01089513E0C0E6D3E004C0FE010E946C302296C2364A
:20678000D107C9F7F894FFCF0000D50480000100000001014422442244224422442201FFAD
:2067A000FFFFFF00E100000000000000C180810000007265706C61793A253032643A2530F8
:2067C00032643A2530326420003000253032642F253032642F2530326420253032643A2525
:2067E0003032643A25303264200000000000060F5526710FE50E590F580F4B4F3B004F4B4D
:206800000030780041542656004750524D4300474E524D4300474E474E5300474E475341E2
:2068200000475047534100474C4753560047504747410047504753560000000000371B0A1A
:206840001BDF1AE71AFA1A091B00000000412588256B257B25572568250D0A006E616E004B
:20686000696E66006F7666002E00FFFFFFFFFFFFFFFFFFFFFFFFFFFFFFFFFFFFFFFFFFFF78
:20688000FFFFFFFFFFFFFFFFFFFFFFFFFFFFFFFFFFFFFFFFFFFFFFFFFFFFFFFFFFFFFFFF18
:2068A000FFFFFFFFFFFFFFFFFFFFFFFFFFFFFFFFFFFFFFFFFFFFFFFFFFFFFFFFFFFFFFFFF8
:2068C000FFFFFFFFFFFFFFFFFFFFFFFFFFFFFFFFFFFFFFFFFFFFFFFFFFFFFFFFFFFFFFFFD8
:2068E000FFFFFFFFFFFFFFFFFFFFFFFFFFFFFFFFFFFFFFFFFFFFFFFFFFFFFFFFFFFFFFFFB8
:2070000060C0000093C0000077C0000075C0000073C0000071C000006FC000006DC00000D1
:207020006BC0000069C0000067C0000065C0000063C0000061C000005FC000005DC0000030
