:100000000C942B010C9453010C9453010C94890D06
:100010000C94890D0C94890D0C945D0F0C94530174
:100020000C9453010C9453010C9453010C94530100
:100030000C9453010C9453010C9453010C945301F0
:100040000C941F210C9453010C94E2230C9414245F
:100050000C9453010C9453010C9453010C945301D0
:100060000C94121B0C945301084AD73B3BCE016EF3
:1000700084BCBFFDC12F3D6C74319ABD56833DDAFF
:100080003D00C77F11BED9E4BB4C3E916BAAAABE0E
:10009000000000803F05A84CCDB2D44EB93836A937
:1000A000020C50B9918688083CA6AAAA2ABE000074
:1000B00000803F00536967466F783A20002C206D1E
:1000C0006F64653D002C206261743D002C207370CC
:1000D000643D002C206361703D002C20616C743DF8
:1000E000002C206C6F6E3D00206C61743D006D73C0
:1000F000673D002C206C6F6E3D007265636F766506
:1001000072206C61743D0024504D544B3232302CBF
:10011000313030302A0024504D544B3331342C30A0
:100120002C312C302C312C302C302C302C302C30ED
:100130002C302C302C302C302C302C302C302C30DF
:100140002C302C302A005573616765207065722051
:10015000646179733A004C617374206461793A0088
:100160004C6F77204261743A200053656E736F7252
:100170004D61783A20006162732070726573733A42
:10018000200074656D703A20004F4B004661696C29
:1001900000496E6974204D656D733A00667265653D
:1001A0002052616D3A200024504D544B3630352A90
:1001B0000025200020426174746572793A2000465F
:1001C00069726D77617265204869646E5365656B0D
:1001D0005F76335F32380A52656C65617365204D16
:1001E000617220323020323031362031373A3034AB
:1001F0003A35320000000008000201000003040745
:1002000000000000000000000102040810204080EF
:100210000102040810200102040810200404040450
:1002200004040404020202020202030303030303A0
:100230000000000023002600290000000000250027
:1002400028002B0000000000240027002A000507DA
:10025000281A3A24140711241FBECFEFD8E0DEBFBE
:10026000CDBF11E0A0E0B1E0EAE3FDE502C00590FA
:100270000D92A43CB107D9F724E0A4ECB1E001C091
:100280001D92A83EB207E1F712E0C4E5D2E004C037
:100290002297FE010E94582BCE34D107C9F70E9445
:1002A0008C0B0C94902E0C9400000C949D2D0C94AF
:1002B000A52DCF93DF9300D0CDB7DEB72091E40416
:1002C0003091E5042115310511F428EE34E0CE011A
:1002D0000196821B930B0F900F90DF91CF910895A1
:1002E000CF93DF93FC016491EC012196662331F0FA
:1002F00087E494E00E94BD24CE01F4CFDF91CF913A
:10030000089582E085B987E084B918B884E087B998
:100310008CE18BB980EC8AB90895CF93DF93EC011F
:100320001C161D068CF45F9A62E370E080E090E09A
:100330000E9496215F98219799F362E370E080E034
:1003400090E00E949621ECCFDF91CF91089569E172
:1003500070E080E090E00E9496218BB18F779091C1
:1003600026039295990F990F907C909589238BB9CC
:1003700062E370E080E090E00E9496212BB120685B
:100380008091260330E4839FC0011124282B2BB9D0
:10039000089581E991E00E9470018EE793E00E9448
:1003A000951942E060E085EE91E00E941A1D85EE0D
:1003B00091E00E949C1D882351F08CE891E00E94FE
:1003C000700187E494E00E94C42480E0089589E8E5
:1003D00091E00E94700187E494E00E94C42481E0CF
:1003E00008950F931F93CF93DF938C01EB01009738
:1003F000A1F08BEC91E00E94FA20BC018BEC91E023
:100400000E947C1E26E636E646E650E40E9435272A
:10041000F80160837183828393832097C9F08BEC0A
:1004200091E00E943020AB01BC018BEC91E00E9476
:10043000D61E24E630E040E050E00E94242B3983B1
:10044000288381E02037334008F080E0809329033F
:1004500081E0DF91CF911F910F91089582E891E0A3
:100460000E9470014091090350910A0360910B03AF
:1004700070910C0322E030E087E494E00E94D926DA
:100480006DE071E087E494E00E94C82486E791E083
:100490000E94700160910703709108034AE050E0E8
:1004A00087E494E00E94C02560E171E087E494E075
:1004B0000C94C824CF9380E290E00E945501C82F8D
:1004C00081E290E00E945501282F30E0322F222750
:1004D0002C0F311D3093CA012093C9018AE691E0A7
:1004E0000E9470016091C9017091CA014AE050E018
:1004F00087E494E00E94C02584ED93E09093CA01C4
:100500008093C901CF910895CF93DF93D82FC92F3E
:10051000682F80E290E00E9457016C2F81E290E00A
:100520000E9457018D2F9C2FDF91CF9108958F92BC
:100530009F92AF92BF92CF92DF92EF92FF920F9372
:100540001F93CF93DF93CDB7DEB7C456D1090FB653
:10055000F894DEBF0FBECDBF61E08AE00E947B222F
:1005600080E00E94F92164E670E080E090E00E9463
:10057000962110E08FE00E94FC2195958795959536
:100580008795282F3981831778F0112369F0FE01B0
:10059000319641E0411749F03191231718F030812D
:1005A000321718F44F5FF6CF40E0512F451778F41B
:1005B000252F30E0FE01E20FF31F6081E1E0F0E063
:1005C000EC0FFD1FE20FF31F60835150EFCFE1E00E
:1005D000F0E0EC0FFD1FE40FF11D80831F5F143668
:1005E00049F6FE01BF969E01295C3F4F80E090E0F6
:1005F0004191840F911DE217F307D1F796958795E6
:1006000090931E0380931D0304972091C90130919C
:10061000CA012817390730F40E9484029093CA0156
:100620008093C901E090C901F090CA0100E010E098
:1006300060911D0370911E0380E090E01F921F9255
:1006400020E12F9328E62F93A12CB12C650120E007
:1006500030E0A9010E94ED264B019B01683640E184
:10066000740710F428E630E1790100E010E09B0106
:1006700043EF84164DE0940610F022EF3DE040E099
:1006800050E0882799271F921F921F92E4E6EF936C
:10069000A12CB12C65010E94ED2660931C030FB6BE
:1006A000F894DEBF0FBECDBF80912603811103C039
:1006B00060910B0101C061E08AE00E947B2281E031
:1006C00092EF89169DE0990608F080E0CC59DF4F43
:1006D0000FB6F894DEBF0FBECDBFDF91CF911F9153
:1006E0000F91FF90EF90DF90CF90BF90AF909F90D1
:1006F0008F900895809121039FEF980F9F3128F4E8
:100700006091200390E00C9457010895CF93C0911D
:100710003103CC2331F180912103C817E1F080E04F
:1007200090E00E945501809321038C17A1F00E9454
:100730007A036091310380E090E00E94570180913C
:10074000310360E090E00E94570180913103809373
:10075000210310922003809120038F5F8093200358
:1007600002C010922003CF910895CF93DF9380E0D1
:1007700090E00E945501809321038F3F39F410923D
:10078000210360E080E090E00E94570186E591E05F
:100790000E9470014AE050E06091210387E494E0F8
:1007A0000E94A92586E491E00E947001C1E0D0E09A
:1007B000CE010E945501809320038F3F31F460E009
:1007C000CE010E94A52D109220034AE050E06091D6
:1007D000200387E494E00E94A22562E371E087E4AD
:1007E00094E00E94BB242196C032D10509F7809184
:1007F000210390E00E9455018093200364EB71E097
:1008000087E494E0DF91CF910C94C824EF92FF929B
:100810000F931F93CF93DF931F92CDB7DEB78C0159
:10082000E12CF12CF8012491222349F0622F87E476
:1008300094E029830E94BD2429812A3259F480E161
:10084000E816F10494F463E171E087E494E00E9417
:10085000BB240BC0243231F0622F772767FD7095DF
:10086000E626F7260F5F1F4FDDCF40E150E0B701CE
:1008700087E494E00F90DF91CF911F910F91FF904B
:10088000EF900C947D2510920B0160E08AE00C94AF
:100890007B220F931F93CF93DF93CDB7DEB768977B
:1008A0000FB6F894DEBF0FBECDBF80912E031F920E
:1008B0008F9380912F031F928F93809130031F920B
:1008C0008F93809134038F93809133038F93809122
:1008D00031031F928F93809132031F928F9385E192
:1008E00091E09F938F938E010F5F1F4F1F930F9384
:1008F0000E94A92BB80187E494E00E94BB240FB6A4
:10090000F894DEBF0FBECDBF68960FB6F894DEBF79
:100910000FBECDBFDF91CF911F910F9108950F931F
:100920001F93CF93C0911703C43008F470C0809117
:1009300018039091190320911A0330911B038937F2
:10094000910558F0233E44E0340760F041E04093C5
:100950002A034FEF4093160305C08837910511F025
:1009600010922A03213040E1340750F0A4E036957C
:100970002795AA95E1F7315F30931B0320931A0363
:1009800020911A0330911B032115304230F02FEFD4
:100990003FE130931B0320931A038038910560F0E8
:1009A000F4E096958795FA95E1F7825A9F4F9093D8
:1009B0001903809318030DC08B35910550F063E047
:1009C00070E00E94DA2A645C7F4F70931903609391
:1009D000180380911803909119038F37910530F017
:1009E0008FE790E090931903809318036091300291
:1009F0007091310280913202909133022AE530E009
:100A000040E050E00E94022B422F437005C040910D
:100A10001F03443008F043E08091180390911903BC
:100A2000A0E0B0E05CE0880F991FAA1FBB1F5A9599
:100A3000D1F700911A0310911B0320E030E063E12D
:100A4000000F111F221F331F6A95D1F7802B912BA6
:100A5000A22BB32B00911C030F7710E020E030E0B5
:100A600073E0000F111F221F331F7A95D1F7802BDF
:100A7000912BA22BB32BC695C695C3708C2B50E03F
:100A800060E070E0EAE0440F551F661F771FEA95AB
:100A9000D1F7842B952BA62BB72B80930303909330
:100AA0000403A0930503B0930603CF911F910F9108
:100AB0000895CF92DF92EF92FF92C0900303D090FF
:100AC0000403E0900503F09006030E9449048EEEB3
:100AD00090E00E9470014AE050E06091200387E4BA
:100AE00094E00E94A22588EE90E00E94700140915F
:100AF000FB025091FC026091FD027091FE0227E022
:100B000030E087E494E00E94D92681EE90E00E94D4
:100B100070014091FF0250910003609101037091B8
:100B2000020327E030E087E494E00E94D9268AEDB2
:100B300090E00E947001C701B601B3E196958795D8
:100B400077956795BA95D1F74AE050E087E494E04D
:100B50000E94C02583ED90E00E947001D701C6017C
:100B60002AE0B695A795979587952A95D1F7BC0168
:100B7000637077274AE050E087E494E00E94C02544
:100B80008CEC90E00E947001D701C6013CE0B69564
:100B9000A795979587953A95D1F7BC016F777727F9
:100BA0004AE050E087E494E00E94C02585EC90E0A4
:100BB0000E947001D701C60143E0B695A7959795AD
:100BC00087954A95D1F7BC016F7777274AE050E0C7
:100BD00087E494E00E94C0258DEB90E00E947001B4
:100BE000B601677077274AE050E087E494E0FF9011
:100BF000EF90DF90CF900C94C625CF92DF92EF92CA
:100C0000FF9284EB90E00E9470010E9469216B01C9
:100C10007C010E9469216C197D0960377741D8F405
:100C200082ED92E00E94830F039771F482ED92E0CF
:100C30000E946610AB01BC0120E130E087E494E043
:100C40000E94DC2581E00EC068EC70E080E090E05E
:100C50000E949621DECF64E371E087E494E00E9475
:100C6000C82480E0FF90EF90DF90CF900895CF925E
:100C7000DF92EF92FF92CF93C82F5F9A0E948F046A
:100C8000CC2309F45DC080912B03882381F067E0B9
:100C900073E089E093E00E94F10180910703909155
:100CA0000803893E9340A8F010922A0312C040E046
:100CB00050E060EA71E44093090350930A036093A3
:100CC0000B0370930C0386E094E0909308038093E9
:100CD0000703C43001F54091090350910A03609164
:100CE0000B0370910C034093FB025093FC02609342
:100CF000FD027093FE02609107037091080380E08B
:100D000090E00E949C286093FF0270930003809300
:100D100001039093020340910303509104036091F7
:100D2000050370910603487F8C2F8770482B4093F2
:100D3000030350930403609305037093060320C0DC
:100D40004091FB025091FC026091FD027091FE0205
:100D50004093110350931203609313037093140391
:100D60004091FF02509100036091010370910203D2
:100D700040930D0350930E0360930F037093100381
:100D80000E9459050E9469216B017C01CC2359F016
:100D900080912903882339F05F98CF91FF90EF90DD
:100DA000DF90CF90089580912A038111F5CF4CE018
:100DB0006BEF72E082ED92E00E941A100E948603AF
:100DC0000E9469216C197D096037774128F764E634
:100DD00070E080E090E00E949621F2CF60E08AE02F
:100DE0000E947B2280E691E00E9470010E947A03BB
:100DF00087E00E94370660E089E00E947B2264EF72
:100E000071E080E090E00C94962148E065E082ED8E
:100E100092E00E94710F80E092E00E94E2106DE18A
:100E200085EE91E00C94461C82ED92E00C94810FCB
:100E3000CF93DF93EC0187E494E00E94FF2220E04F
:100E400030E040E050E0BE018DE793E0DF91CF91CC
:100E50000C941A0FCF92DF92EF92FF9261E08AE03A
:100E60000E947B220E9469216B017C010E94692102
:100E70006C197D0960377741F0F487E494E00E94B3
:100E8000B1221816190634F487E494E00E94CA22AD
:100E90008A9739F064E670E080E090E00E94962145
:100EA000E5CF86E191E00E94060487E091E00E9490
:100EB000060481E005C060E08AE00E947B2280E0B9
:100EC000FF90EF90DF90CF900895CF93DF938091C4
:100ED0002C03882309F4F3C085EE91E00E949C1D49
:100EE000882311F0D1E0E9C085EE91E00E94511C09
:100EF0009091C701891B992787FD909597FF03C0A3
:100F0000919581959109833010F0D1E025C085EE4F
:100F100091E00E94541C9091C601891B992787FD7E
:100F2000909597FF03C0919581959109833068F75B
:100F300085EE91E00E94571C9091C501891B282FD6
:100F4000332727FD309537FF03C0319521953109AF
:100F5000D1E0233008F4D0E085EE91E00E94511CEE
:100F60008093C70185EE91E00E94541C8093C601D6
:100F700085EE91E00E94571C8093C501DD2309F4A2
:100F80009CC09091C70129E0290F2331B8F49091BA
:100F9000C60129E0290F233128F4893244F5883D20
:100FA00044F106C0983D24F4875F833120F11BC0D3
:100FB0009932CCF0875F833100F115C099324CF043
:100FC0009091C601975F933170F4875F8331B8F0D9
:100FD0000AC0983D44F49091C601975F933118F48C
:100FE000875F833170F01092C401C6E00BC0C0E08F
:100FF00009C0C1E007C0C2E005C0C3E003C0C4E04F
:1010000001C0C5E08091C401811108C080911F0317
:1010100081111DC0C230D9F481E014C0813039F48F
:1010200080911F03823099F4C33089F40BC0823061
:1010300071F480911F03833051F4C23019F0C11153
:1010400006C084E08093C4010E94A70102C01092F0
:10105000C401C0931F038091C401833079F40E94BE
:101060007A0384E190E00E948D0118B817B81BB88C
:101070001AB815B882E084B91092C4018091C401F5
:10108000843009F02FCF809120038A35A0F481E0CD
:1010900090912603891B80932603109227038823AF
:1010A00031F080910B01811102C00E942A0788E073
:1010B00090E00E948D011092C4018D2F01C081E04B
:1010C000DF91CF910895BF92CF92DF92EF92FF927E
:1010D0000F931F93CF93DF937C010E94970281119E
:1010E0000E94EE0680912603882379F080911C03EC
:1010F000893108F443C18091270391E0980F9093C0
:101100002703803308F03AC102C00E944304809153
:1011100016038F3F19F08E2D0E9437060E94650737
:10112000E114F10471F48091180390911903409730
:1011300040F080911503811104C084E080930A017E
:1011400006C010920A0134E0E316F10411F0109287
:10115000C801B090260384E0E816F10409F041C00C
:101160002091C801C4EAD1E0022E02C0CC0FDD1FDD
:101170000A94E2F781E090E0022E01C0880F0A9401
:10118000EAF790913003980F983118F49093300358
:1011900007C010923003809131038F5F8093310339
:1011A00080913103803238F0109231038091320304
:1011B0008F5F80933203809132038D3058F010920C
:1011C000320380913303909134030196909334035A
:1011D00080933303233008F0D4C02F5F2093C801DD
:1011E000D0C0CBE4D0E00B2C02C0D595C7950A94B3
:1011F000E2F780912803C81BD10980910A0181116F
:10120000C0C0B110BEC008E010E087E494E00E94C6
:10121000FF22C12CD12CCC16DD0608F054C020E0F2
:1012200030E040E050E0B8018DE793E00E941A0FF3
:101230002BB120688091260330E4839FC0011124E4
:10124000282B2BB980910B01882361F00E94970213
:1012500080911C03823630F480912603811102C0F4
:101260000E9443040E946507882331F180910B019D
:10127000882319F00E94A70106C062E370E080E0B5
:1012800090E00E94962180910A018F5F80930A016D
:101290000830110511F4D694C79484E0E816F104DF
:1012A00039F08091260309E010E0B81203C004C0B1
:1012B00009E010E0C0E0D0E03FEFC31AD30A8BB1E1
:1012C0008F738BB9A8CF80910A0183303CF481E001
:1012D00090912603911103C080E001C081E08093CA
:1012E0000A0184E0E816F10431F4CC15DD0518F4A8
:1012F0008FEF80930A0180910A01181644F48091BF
:101300000B01811104C00E942A0780930B010E94E7
:1013100069216093220370932303809324039093A5
:1013200025031092150310921603109228031092B1
:1013300019031092180310921B0310921A031092B3
:10134000FF02109200031092010310920203109208
:10135000FB021092FC021092FD021092FE0280919C
:101360000A01992787FD9095DF91CF911F910F91E9
:10137000FF90EF90DF90CF90BF90089510922603DA
:10138000C6CE09E010E041CF2F923F924F925F927C
:101390006F927F928F929F92AF92BF92CF92DF9285
:1013A000EF92FF920F931F93CF93DF9300D000D063
:1013B000CDB7DEB70E9469212B013C0100ED17E09B
:1013C000312C212C0E94692164197509601771075D
:1013D00040F587E494E00E94B12218161906D4F46F
:1013E0000E9469212B013C0161E087E00E947B2281
:1013F00004E610E0332433940DC087E494E00E94A7
:10140000CA22682F80E092E00E946E15882311F0B6
:101410002224239487E494E00E94B122892B69F767
:10142000D1CF311002C00E942A07F5E38F2EF3E0DE
:101430009F2EADE2AA2EA3E0BA2EBEE2CB2EB3E0E1
:10144000DB2E1FE2E12E13E0F12E00E313E021E397
:1014500033E042E353E063E373E080E092E00E9414
:10146000D617222009F400C194014FEF52E06BEF30
:1014700072E080E092E00E9469174091350350913C
:101480003603609137037091380349385341610541
:10149000710560F040E054E060E070E04093350397
:1014A0005093360360933703709338038091400262
:1014B000909141028F3F910509F480E080931703DA
:1014C00080E092E00E94A6180E941A2A0E946B28CF
:1014D0009B0177FF04C022273327261B370B30934D
:1014E0001B0320931A0380E092E00E94DC180E9404
:1014F0001A2A0E9470287093190360931803409170
:101500003503509136036091370370913803E9E059
:101510007695679557954795EA95D1F7452B462BD4
:10152000472B09F445C0409111035091120360917B
:101530001303709114034093FB025093FC026093D9
:10154000FD027093FE0240910D0350910E036091D5
:101550000F03709110034093FF02509300036093B8
:101560000103709302038AEF90E00E9470014091A2
:10157000FB025091FC026091FD027091FE0227E097
:1015800030E087E494E00E94D92683EF90E00E9447
:1015900070014091FF02509100036091010370912E
:1015A000020327E030E087E494E00E94DB265CC081
:1015B0004090FB025090FC026090FD027090FE0291
:1015C000C301B2010E946B289B0177FF04C0222750
:1015D0003327261B370B233031050CF44BC02091E9
:1015E000FF02309100034091010350910203CA01B0
:1015F000B90129833A834B835C830E946B28FB01EA
:1016000029813A814B815C8177FF04C0EE27FF2757
:10161000E61BF70B339774F1A0900D03B0900E0307
:10162000C0900F03D0901003E0901103F0901203CC
:101630000091130310911403C301B2010E94E61537
:1016400020E030E040E751E40E94FC2787FF12C011
:1016500080911603853170F08091260381110AC0B4
:101660008FEF8093160306C0809115038F5F8093E0
:10167000150336C0109117031430F0F06091FB028F
:101680007091FC028091FD029091FE020E946B28F5
:101690006F5F7F4F63307105A8F46091FF02709116
:1016A000000380910103909102030E946B286F5FF9
:1016B0007F4F6330710530F4809115038F5F809305
:1016C000150307C010921503809116038F5F809356
:1016D0001603183028F0809116038F5F809316034D
:1016E00060E087E00E947B22832D0F900F900F9087
:1016F0000F90DF91CF911F910F91FF90EF90DF90AE
:10170000CF90BF90AF909F908F907F906F905F90A1
:101710004F903F902F9008950E94BE2164E670E0A4
:1017200080E090E00E9496210E94810126E040E83E
:1017300055E260E070E087E494E00E94862387E44D
:1017400094E00E94C4248FEB91E00E94700187E432
:1017500094E00E94C4240E94B5030E945A020E9491
:10176000970284EB91E00E9470014AE050E06091A2
:101770001C0387E494E00E94A22581EB91E00E9483
:10178000700160911D0370911E034AE050E087E4F0
:1017900094E00E94C62564E670E080E090E00E943C
:1017A00096210E942A0780930B01882341F087EA43
:1017B00091E00E94060481E090E00E948D010E9469
:1017C000C90180932C03882361F085E090E00E949A
:1017D00018070E946507882321F082E090E00E94AC
:1017E0008D018BEC91E00E94A52080932B03882330
:1017F00071F085E090E00E94180767E073E089E0EF
:1018000093E00E94F10183E090E00E948D010E942C
:101810002E020E94FD05882349F085E090E00E9499
:10182000180784E090E00E948D0115C05E9A87E45D
:1018300094E00E94FF2264EF71E080E090E00E945B
:10184000962160E089E00E947B2268EE73E080E0F0
:1018500090E00E9496218CE991E00E9470010E9424
:1018600059014AE050E0BC0187E494E00E947D25E4
:101870000E946921609322037093230380932403C1
:10188000909325030E946921209122033091230324
:10189000621B730B603A7F40C8F05E9A64E670E0AA
:1018A00080E090E00E9496210E9465075E988091FA
:1018B00028038F5F809328030E946921609322038D
:1018C00070932303809324039093250380910A014E
:1018D000813041F40E94C409882321F085E090E022
:1018E0000E941807809116038E3150F080911503E5
:1018F000811106C080E090E00E94630880930A0195
:10190000809128038E3120F480911503883730F0C0
:1019100085E090E00E94630880930A0180910A01AB
:10192000811106C084E090E00E94630880930A0160
:1019300080910A018F3F09F0A5CF86E090E00E94D8
:10194000630880930A019ECF20917B0330917C0332
:1019500028173907B9F49091390380913A03981701
:1019600089F0E0913903F0E0E55CFC4F8081209143
:10197000390330E02F5F3F4F2F7333272093390314
:1019800090E008958FEF9FEF08951F93CF93DF931B
:10199000DC015C968D919C915D97009749F481E004
:1019A00090E013969C938E93129780E090E03BC05A
:1019B0005196ED91FC91529750962C915097322F61
:1019C00030951FB75E964C915E9741FB772770F973
:1019D00041FD6095F8944081772311F0422B01C0BE
:1019E00043234083EC012197F1F748E0508160FFE9
:1019F00002C0522B01C053235083EC012197F1F711
:101A00006695415099F78081772311F0832301C0B7
:101A1000822B80831FBF5C968D919C915D9701976F
:101A2000F1F781E090E0DF91CF911F910895089543
:101A300020917B0330917C032817390781F4909122
:101A4000390380913A03981751F0E0913903F0E09F
:101A5000E55CFC4F8081992787FD909508958FEF75
:101A60009FEF089520917B0330917C03281739075D
:101A700071F480913A032091390390E0805C9F4F8C
:101A8000821B910960E470E00E94EE2A089580E0D4
:101A900090E00895E0917B03F0917C03E817F9074B
:101AA00069F4A389B4899C918589809589238C9355
:101AB00010927C0310927B0381E0089580E00895EA
:101AC000CF93DF93EC018A8D9B8D892BF1F0809170
:101AD0007B0390917C038C179D07B9F0009711F060
:101AE0000E944A0D8E8D8E7F8E8F10923A03109237
:101AF0003903D0937C03C0937B03EB89FC898081FD
:101B00009D89892B808381E001C080E0DF91CF91A6
:101B100008951F920F920FB60F9211242F933F93A7
:101B20004F935F936F937F938F939F93AF93BF93E5
:101B3000EF93FF93E0917B03F0917C03309709F4DE
:101B400051C0868DA685B785958581FF04C08C918F
:101B5000892329F447C08C91892309F043C0A389C4
:101B6000B4899C918589809589238C9386899789EE
:101B70000197F1F7208D318DA685B785758558E0E1
:101B800040E0C9010197F1F7842F90E09595879582
:101B9000482F6C91672309F04068515091F7868D6A
:101BA00081FD409580913A0390E001968F739927CB
:101BB00020913903281749F0A0913A03B0E0A55CC1
:101BC000BC4F4C9380933A0303C0868D8160868F0F
:101BD000828D938D0197F1F7A389B4898C919589B2
:101BE000892B8C93FF91EF91BF91AF919F918F9132
:101BF0007F916F915F914F913F912F910F900FBE09
:101C00000F901F9018952DE331E0FC013183208364
:101C10000C944A0D1F93CF93DF93EC01162F6E8D1A
:101C20006695617081E06827812F0E947B2261E0C8
:101C3000812F0E944222812F90E0FC01E85FFD4F3E
:101C4000E491E88BFC01E45EFD4FE491F0E0EE0FDF
:101C5000FF1FE65CFD4F859194919A8B898BDF91F4
:101C6000CF911F9108951F93CF93DF93EC01162F0F
:101C700060E0812F0E9442228E8D81FD04C061E0D0
:101C8000812F0E947B221C87812F90E0FC01E85F5E
:101C9000FD4FE491ED87FC01E45EFD4FE491F0E03F
:101CA000EE0FFF1FE05DFD4F859194919F878E871A
:101CB000DF91CF911F910895FF920F931F93CF93C0
:101CC000DF93EC01F62E522F1B821A8208EE13E0EE
:101CD00020E030E00C831D832E833F838DE391E071
:101CE000998388831F8A1E8A198E188E1B8E1A8EDE
:101CF0001D8E1C8E8E8D8E7F50FB81F98E8F642FF2
:101D0000CE010E940A0E6F2DCE01DF91CF911F915F
:101D10000F91FF900C94330ECF93DF93EC019A0157
:101D2000AB011B8E1A8E198E188E1F8A1E8A60ECCC
:101D300076EC8DE290E00E94242BC901243031051D
:101D400020F0B9016350710902C061E070E07D8F3D
:101D50006C8FEC85E63108F068C0B901769567951F
:101D60006431710518F06351710902C061E070E0DF
:101D70007F8B6E8B069718F0C901059702C081E032
:101D800090E0998F888FC901880F991F820F931F48
:101D900096958795969587958D30910510F00C97BF
:101DA00002C081E090E09B8F8A8F20916800E8302C
:101DB00050F091E0EE3008F490E081E001C0880F2F
:101DC0009A95EAF701C084E0822B809368002C8505
:101DD000283038F02E3040F0263148F48CE690E080
:101DE00008C08DE690E005C08BE690E002C080E080
:101DF00090E09C8B8B8B283030F481E001C0880F01
:101E00002A95EAF70DC0822F90E02E3010F4089743
:101E100001C00E9791E001C0990F8A95EAF7892FCA
:101E20008D8B8C8D9D8D0197F1F7CE01DF91CF9138
:101E30000C94600D4115510529F480917A008F773B
:101E400080937A006A307105B1F063FF02C088E2C6
:101E500001C088E06770682B88E190E00FB6F894C5
:101E6000A895809360000FBE609360008091600031
:101E700080648093600083B7817F846083BF232B5D
:101E800051F4F89483B7816083BF85B7806685BFBE
:101E90008F7D85BF04C0F89483B7816083BF789439
:101EA000889583B78E7F83BF7894452B29F48091E2
:101EB0007A00806880937A0008951F920F920FB67F
:101EC0000F9211248F9388E10FB6F89480936000ED
:101ED000109260000FBE8F910F900FBE0F901F9059
:101EE0001895CF93DF93EC0120E00E945C0E4FEF3A
:101EF0005FEFBA014F8F58A369A37AA3DF91CF9107
:101F000008950C94030E6F927F928F929F92AF92DE
:101F1000BF92CF92DF92EF92FF920F931F93CF93D6
:101F2000DF9300D000D01F92CDB7DEB77C0140E830
:101F300055E260E070E00E948C0E60E0C7010E94F4
:101F4000C50C6BE3C7010E94C50C19821A821B8263
:101F50001C821D820E9469214B015C01CE01019609
:101F60006C0100E010E03C010E94692168197909C8
:101F70008A099B096233710581059105A8F4C7019F
:101F80000E94320D181619067CF7C7010E94A40C96
:101F90000430110519F48FEF9FEF0EC0F601819305
:101FA0006F010F5F1F4FE0CF69E471E0C3010E9432
:101FB000892B892B81F7C8010F900F900F900F90FC
:101FC0000F90DF91CF911F910F91FF90EF90DF90D5
:101FD000CF90BF90AF909F908F907F906F9008951B
:101FE0000F931F93CF93DF93EC01CE010E94320D2C
:101FF000892B89F40E9469210F8D18A129A13AA18A
:10200000601B710B820B930B613D7740810591053D
:1020100060F35F98EACFCE010E94A40C182FCE0186
:102020000E94A40CCB97D9F7812FDF91CF911F91FC
:102030000F910895CF92DF92EF92FF920F931F932B
:10204000CF93DF93EC01E62ED72EF42E0E94692168
:102050006F8F78A389A39AA360E0CE010E94C50C7C
:1020600063E5CE010E94C50C66E4CE010E94C50C5A
:102070006DE4CE010E94C50C6F2DCE010E94C50CEF
:10208000CE2C0E2D1D2D802F8C198F1538F4F801B4
:1020900061918F01CE010E94C50CF5CF6BE3CE019B
:1020A0000E94C50CCE010E94F00F8F3429F4CE019E
:1020B0000E94F00F81E001C080E0DF91CF911F917D
:1020C0000F91FF90EF90DF90CF900895BF92CF9245
:1020D000DF92EF92FF920F931F93CF93DF93CDB7D1
:1020E000DEB728970FB6F894DEBF0FBECDBF8C01C8
:1020F00060E00E94C50C63E5C8010E94C50C66E45F
:10210000C8010E94C50C69E4C8010E94C50C64E4C2
:10211000C8010E94C50C6BE3C8010E94C50CCE012A
:1021200001967C0188E0F70111928A95E9F7C801D0
:102130000E94320D892BD9F3B12CC8010E94180DD1
:10214000CB2CD12CCB9719F4F5E0FB1570F0C8011E
:102150000E94A40CF701EC0DFD1D8083C8010E94B4
:10216000320D892BD9F3B394E8CFC8010E94A40C97
:1021700040E060E070E0CB0122E0C21AD108242FD9
:1021800030E02C153D0574F4982F872F762F6627A5
:10219000F701E20FF31F2081620F711D811D911D58
:1021A0004F5FEDCF28960FB6F894DEBF0FBECDBFC0
:1021B000DF91CF911F910F91FF90EF90DF90CF9023
:1021C000BF9008950F931F93FC010FEF1FEF98012D
:1021D000008311832283338310861186128613862F
:1021E0004FEF59EC6AE97BE3408B518B628B738B29
:1021F000408F518F628F738F40A351A362A373A34B
:1022000040A751A762A773A740AB51AB62AB73ABBA
:1022100000AF11AF22AF33AFDC01A05CBF4F8FEF37
:1022200090E011969C938E9314960D931D932D938D
:102230003C93139718960D931D932D933C931397EE
:1022400018961C9211961C92509686E08C931196CB
:102250001C9211961C9211961C92EA5AFF4F108202
:102260001F910F9108952FEB260F862F992787FD39
:102270009095263010F4C79708956156663018F48B
:10228000875591090895C09708950F931F93FB01F7
:1022900060E070E0CB01019120ED200F2A30A0F426
:1022A000AAE0B0E09B01AC010E94432B112707FD7F
:1022B0001095212F312F600F711F821F931F6053C4
:1022C000710981099109E7CF1F910F9108950F932B
:1022D0001F93CF93FC01EA5AFF4FC1E020812D32BA
:1022E00019F0C0E08F0103C08C01095A1F4FB801DB
:1022F0000E9445119B01AC01A4E6B0E00E94432B73
:10230000F801DF01219130ED320F3A30D0F32E3257
:1023100069F511962C91119730ED320F3A3030F566
:10232000332727FD3095205331094AE0429F800131
:10233000439F100D1124222717FD2095322F600F87
:10234000711F821F931F12960C9120ED200F2A30CF
:1023500068F4112707FD109500531109222717FD76
:102360002095322F600F711F821F931FCC2339F0ED
:1023700090958095709561957F4F8F4F9F4FCF912E
:102380001F910F9108954F925F926F927F928F925B
:102390009F92AF92BF92CF92DF92EF92FF92CF9334
:1023A000DF93EC01CA5ADF4FBE010E9445112B0199
:1023B0003C0124E630E040E050E00E94022B9B010B
:1023C000AC0160EA76E881E090E00E94CA2A6B01E5
:1023D0007C01FE01819190ED980F9A30D8F38E32F6
:1023E00019F5EF0180E1882E87E2982EA12CB12CFF
:1023F000A99180ED8A0F8A30B8F4BB27A7FDB0956C
:10240000D097A50194010E944E2BC60ED71EE81E40
:10241000F91EC501B4012AE030E040E050E00E941E
:10242000022B49015A01E4CFC701B6016D5F7F4F0E
:102430008F4F9F4F26E030E040E050E00E94022B9B
:1024400069017A01C301B20124E630E040E050E0C6
:102450000E94022B60E472E48FE090E00E94CA2A9E
:10246000C60ED71EE81EF91EC701B601DF91CF9137
:10247000FF90EF90DF90CF90BF90AF909F908F90A4
:102480007F906F905F904F900895DB01FA018D91DE
:10249000882319F091918917D1F3992787FD909599
:1024A0000895CF92DF92EF92FF920F931F93CF93F5
:1024B000DF93EC01FC01EB5AFF4F1081112309F46B
:1024C000B1C0319660810E943311182FFE01E95A84
:1024D000FF4F6081CE010E94331150E1159F800DA6
:1024E0001124FE01EC5AFF4F9081891711F010E082
:1024F000EBC2FE01EB59FF4F2081213081F48C812A
:102500009D81AE81BF8188839983AA83BB838C859B
:102510009D85AE85BF8588879987AA87BB87FE0181
:10252000E859FF4F1081112311F3B09780819181F9
:10253000A281B381349780839183A283B3833C9635
:1025400080819181A281B381349780839183A2831A
:10255000B3832223A1F1213009F0B6C28C819D8181
:10256000AE81BF8188839983AA83BB838C859D8537
:10257000AE85BF8588879987AA87BB878C899D8907
:10258000AE89BF89888B998BAA8BBB8B8C8D9D8DD7
:10259000AE8DBF8D888F998FAA8FBB8F8CA59DA57F
:1025A000AEA5BFA588A799A7AAA7BBA78CA99DA9D7
:1025B000AEA9BFA988AB99ABAAABBBAB85C28CA1B6
:1025C0009DA1AEA1BFA188A399A3AAA3BBA38C81FF
:1025D0009D81AE81BF8188839983AA83BB838C89C7
:1025E0009D89AE89BF89888B998BAA8BBB8B8C8D7B
:1025F0009D8DAE8DBF8D888F998FAA8FBB8FFE0169
:10260000E05CFF4FDE01AE5BBF4F8D919C919183EB
:1026100080838CAD9DADAEADBFAD88AF99AFAAAF95
:10262000BBAF52C2FC01EA59FF4FE0808B599F4F6C
:102630006C01E11017C07E0196E5E90EF11C42E63F
:1026400051E0B701CE010E944512892B09F4FBC16C
:1026500048E651E0B701CE010E944512892B09F4EA
:10266000F2C1F3C1FC010081063009F440CFCE0174
:102670008A5A9F4FFC014081442309F438CFF0E28D
:102680000F9F90011124F12C2E293F29243431056C
:1026900009F4FEC008F067C02232310509F4CEC04B
:1026A00078F52530310509F4FBC098F42230310566
:1026B00009F4CBC028F42130310509F4B3C004C2B9
:1026C0002330310509F4D1C02430310509F4E0C0CC
:1026D000FBC12830310509F41DC148F4263031050D
:1026E00009F40AC12730310509F40EC1EDC12930C2
:1026F000310509F417C12132310509F493C0E4C151
:102700002732310509F4E8C078F42432310509F4A0
:10271000ACC008F49AC02532310509F4B9C026329C
:10272000310509F4BDC0D0C12134310509F47AC0A6
:1027300088F42832310509F4D7C02932310509F06F
:10274000C3C1BC01CE010E9445116C877D878E8775
:102750009F87BAC12234310509F477C0233431058B
:1027600009F483C0B1C12039310509F418C158F505
:102770002438310509F413C178F42634310509F4FD
:10278000A2C008F48DC02734310509F4BDC0223839
:10279000310509F4CFC098C12B38310509F406C1C1
:1027A00048F42738310509F401C12838310509F406
:1027B000F6C08AC12C38310509F4F1C02F38310533
:1027C00009F4F4C081C1283A310509F4E8C098F44D
:1027D000223A310509F4AEC028F42339310509F451
:1027E000E5C072C1243A310509F4D9C0273A310550
:1027F00009F4DCC069C12F3A310509F4D7C048F4A7
:102800002B3A310509F4D2C02C3A310509F4C7C07E
:102810005BC1203B310509F4C2C0233B310509F4FB
:10282000C5C052C1CE010E9467116C837D838E8327
:102830009F830E946921C85BDF4F12C0C859DF4FD8
:1028400081E0413409F05EC0A8C0CE010E94C311EE
:102850006C8B7D8B8E8B9F8B0E946921C05BDF4FC1
:10286000688379838A839B832FC1433509F03FCEE8
:102870008C899D89AE89BF89B095A09590958195E9
:102880009F4FAF4FBF4F8C8B9D8BAE8BBF8B1CC1AF
:10289000CE010E94C3116C8F7D8F8E8F9F8F14C1CC
:1028A000473509F024CE8C8D9D8DAE8DBF8DB095B2
:1028B000A095909581959F4FAF4FBF4F8C8F9D8F67
:1028C000AE8FBF8F01C145E050E0BC01CE018759FA
:1028D0009F4F0E94922BF8C0CE010E9467116CA7F7
:1028E0007DA78EA79FA7F0C0CE010E9467116CAB99
:1028F0007DAB8EAB9FABE8C0C859DF4F81E0413361
:102900000CF04BC080E049C00E946B2BCE5BDF4FC8
:10291000992749C0CE010E9467116CAF7DAF8EAF81
:102920009FAFD2C0CE010E9467116CA37DA38EA37E
:102930009FA3CAC00E946B2B815069F0CF52DF4F1A
:10294000982F990F990F9883053009F0D0CD880FF3
:10295000880F845F22C020E030E0043079F4FE016B
:10296000E20FF31FE159FF4F10821182128213828E
:102970002C5F3F4F2033310591F7E0CFFE01E20F8E
:10298000F31FE156FF4F10821182128213822C5FD7
:102990003F4F2033310591F7D1CF888395C00E94F6
:1029A0006B2BC153DF4F998388838EC00E946B2BA2
:1029B000FE01EF52FF4F81111AC0208130E0C701A4
:1029C000079797FD03969595879595958795820F1F
:1029D000931F880F991F880F991F8C0F9D1FFC0153
:1029E000E159FF4F10821182128213826DC0408123
:1029F00050E097012750310937FF02C02D5F3F4F4C
:102A00003595279535952795240F351F220F331FB0
:102A1000220F331F2C0F3D1FF901E159FF4FAC016D
:102A20005527440F551FC153DF4F80E090E0988138
:102A3000482B592B662757FD6095762F408351838D
:102A40006283738341C081E026C046E851E0B7014C
:102A5000CE010E944512892B19F4F601108234C070
:102A60004EE651E0B701CE010E944512892B11F4C8
:102A700082E011C044E751E0B701CE010E94451247
:102A8000892B41F04AE751E0B701CE010E9445127F
:102A9000892B21F483E0F601808316C04CE851E0D5
:102AA000B701CE010E944512892B11F484E0F3CFC7
:102AB00040E851E0B701CE010E944512892B11F484
:102AC00085E0E9CF86E0E7CF812FDF91CF911F919D
:102AD0000F91FF90EF90DF90CF900895CF92DF920B
:102AE000EF92FF920F931F93CF93DF931F92CDB777
:102AF000DEB76C018C0109591F4F8B5A9F4F7C0127
:102B0000643281F12CF46A3069F06D30E9F50AC065
:102B10006A3241F06C32C1F5F601EC5AFF4F808108
:102B200086278083F80180818F3060F4F601E80FFA
:102B3000F11DEA5AFF4F1082C60169830E945112AB
:102B4000698101C080E0F601EA59FF4F90819F5FE3
:102B50009083F801108291E06A3209F090E0F70169
:102B600090832AC0F8011082F601EA59FF4F1082C3
:102B700072971082719686E08083F7011082F601C9
:102B8000E859FF4F108217C0F80180818E3048F459
:102B900091E0980F9083F601E80FF11DEA5AFF4F7C
:102BA0006083F7018081811106C0F601EC5AFF4F66
:102BB00080818627808380E00F90DF91CF911F91E5
:102BC0000F91FF90EF90DF90CF9008954F925F921A
:102BD0006F927F928F929F92AF92BF92CF92DF922D
:102BE000EF92FF920F931F93CF93DF93CDB7DEB792
:102BF00060970FB6F894DEBF0FBECDBF69837A83AE
:102C00008B839C83CA01B90127013801A601950174
:102C10000E94352725E33AEF4EE85CE30E94B7298E
:102C20006B017C010E943A2A6D877E878F87988B83
:102C3000C701B6010E9400286D837E838F83988729
:102C400025E33AEF4EE85CE369817A818B819C81D0
:102C50000E94B7296B017C0125E33AEF4EE85CE363
:102C6000C301B2010E94B7292B013C01C701B60183
:102C70000E943A2A4B015C01C701B6010E9400285C
:102C800069837A838B839C83C301B2010E943A2AB1
:102C900069877A878B879C87C301B2010E940028CD
:102CA0006B017C0129853A854B855C8569817A8138
:102CB0008B819C810E94B7292B013C01A7019601C1
:102CC000C501B4010E94B7292D813E814F815885ED
:102CD0000E94B7299B01AC01C301B2010E943527B4
:102CE0009B01AC010E94B7292B013C012D853E853B
:102CF0004F855889C701B6010E94B7299B01AC01D5
:102D00000E94B7299B01AC01C301B2010E94362782
:102D10000E94442A2B013C0129853A854B855C851C
:102D2000C501B4010E94B7294B015C01A7019601BE
:102D300069817A818B819C810E94B7292D813E8196
:102D40004F8158850E94B7299B01AC01C501B40190
:102D50000E9436279B01AC01C301B2010E94A92742
:102D600026E73BE742EC5AE40E94B72960960FB68B
:102D7000F894DEBF0FBECDBFDF91CF911F910F91B1
:102D8000FF90EF90DF90CF90BF90AF909F908F908B
:102D90007F906F905F904F900895CF92DF92EF9267
:102DA000FF920F931F93CF93DF93E9016115710594
:102DB00051F0FC01C088D188E288F388FB01C08211
:102DC000D182E282F3824115510551F0FC01C08CA1
:102DD000D18CE28CF38CFA01C082D182E282F38240
:102DE000209701F18C01045B1F4FF80180819181D4
:102DF000A281B3818F3F9F4FAF4FBF4F61F00E94C1
:102E00006921F8010081118122813381601B710BDE
:102E1000820B930B03C06FEF7FEFCB016883798345
:102E20008A839B83DF91CF911F910F91FF90EF9049
:102E3000DF90CF900895CF92DF92EF92FF920F93A1
:102E40001F93CF93DF93E9016115710551F0FC01E8
:102E5000C084D184E284F384FB01C082D182E28207
:102E6000F3824115510551F0FC01C080D180E28010
:102E7000F380FA01C082D182E282F382209701F1CD
:102E80008C010C5B1F4FF80180819181A281B3817D
:102E90008F3F9F4FAF4FBF4F61F00E946921F801F4
:102EA0000081118122813381601B710B820B930B96
:102EB00003C06FEF7FEFCB01688379838A839B83A5
:102EC000DF91CF911F910F91FF90EF90DF90CF9006
:102ED0000895AF92BF92CF92DF92EF92FF920F933D
:102EE0001F93CF93DF93CDB7DEB728970FB6F89433
:102EF000DEBF0FBECDBF5B018A01AE014F5F5F4FEA
:102F0000BE016B5F7F4F0E94CD16CD80DE80EF80CB
:102F1000F8848FEFC81689ECD8068AE9E8068BE3B7
:102F2000F80659F0C701B6010E949E2820E034E25D
:102F300044E759E40E94032804C060E070E08AE797
:102F400094E4F5016083718382839383FFEFCF164E
:102F5000F9ECDF06FAE9EF06FBE3FF0669F06981A9
:102F60007A818B819C810E949E2820E034E244E794
:102F700059E40E94032804C060E070E08AE794E40A
:102F8000F801608371838283938328960FB6F89447
:102F9000DEBF0FBECDBFDF91CF911F910F91FF908C
:102FA000EF90DF90CF90BF90AF9008952F923F9217
:102FB0004F925F926F927F928F929F92AF92BF9249
:102FC000CF92DF92EF92FF920F931F93CF93DF93F5
:102FD000CDB7DEB72A970FB6F894DEBF0FBECDBFD0
:102FE0002B015A87498719019401AE014F5F5F4F4A
:102FF000BE016B5F7F4F0E941B1741145104B9F053
:103000006D817E818F81988524E630E040E050E03C
:103010000E94022B613571051CF02CE637E002C0DE
:1030200020ED37E0620F731FF201718360838985A1
:103030009A85892BB1F06D817E818F81988534E6E8
:10304000432E512C612C712CA30192010E94022B62
:10305000CA01B901A30192010E94022BE985FA85F8
:1030600060832114310461F06D817E818F819885A8
:1030700020E137E240E050E00E94022BF101208382
:103080000115110561F069817A818B819C8120E4B1
:1030900032E44FE050E00E94022BF8012083E1145B
:1030A000F104A1F069817A818B819C8120E137E272
:1030B00040E050E00E94022BCA01B90124E630E052
:1030C00040E050E00E94022BF7016083C114D1045C
:1030D000A9F069817A818B819C8124E6422E512C52
:1030E000612C712CA30192010E94022BCA01B9012B
:1030F000A30192010E94022BF6016083A114B10486
:1031000061F069817A818B819C8124E630E040E026
:1031100050E00E94022BF50160832A960FB6F894C6
:10312000DEBF0FBECDBFDF91CF911F910F91FF90FA
:10313000EF90DF90CF90BF90AF909F908F907F9057
:103140006F905F904F903F902F900895FC0160A189
:1031500071A182A193A16F3FF9EC7F07FAE98F0774
:10316000FBE39F0749F00E949E2820E030E048ECF6
:1031700052E40E940328089560E074E284E799E431
:103180000895FC0160A571A582A593A56F3FF9EC98
:103190007F07FAE98F07FBE39F0749F00E949C280D
:1031A00020E030E048EC52E40E940328089560E0FB
:1031B00070E080E89FEB0895CF92DF92EF92FF924C
:1031C0000E94C1186B017C0120E030E040E85FEB19
:1031D0000E94FC27882349F026E53EE04DEE5FE3A0
:1031E000C701B6010E94B72904C060E070E080E822
:1031F0009FEBFF90EF90DF90CF9008958091AE030A
:1032000090E02091AF03821B910908952091AF03B4
:103210008091AE03281750F4E22FF0E0E055FC4F08
:10322000808190E02F5F2093AF0308958FEF9FEF91
:103230000895E091AF038091AE03E81730F4F0E019
:10324000E055FC4F808190E008958FEF9FEF089547
:103250000895CF92DF92EF92FF920F931F93CF9337
:10326000DF937C01CB018A0120918A03222389F01C
:10327000EB016B01C40ED51ECC15DD0569F069911B
:10328000D701ED91FC910190F081E02DC7010995E6
:10329000F3CF642F0E94E91AC801DF91CF911F91EB
:1032A0000F91FF90EF90DF90CF900895CF93DF9331
:1032B0001F92CDB7DEB7698320918A032223D1F014
:1032C00020918B03203240F021E030E0FC01338379
:1032D000228380E090E015C080918C03E82FF0E01D
:1032E000E357FC4F998190838F5F80938C03809389
:1032F0008B0305C061E0CE0101960E94E91A81E0CE
:1033000090E00F90DF91CF910895FC01138212821B
:1033100048EE53E060E070E0448355836683778332
:1033200086E991E09183808308951092AF03109213
:10333000AE0310928C0310928B030C942C1A81E034
:1033400080938A036093AD0310928C0310928B03D9
:1033500008950C949F190F93062F21E040918B0341
:103360006DE873E08091AD030E94921A10928C0375
:1033700010928B0310928A030F9108958F929F925F
:10338000AF92BF92CF92DF92EF92FF920F931F9373
:10339000CF93DF93EC01F62ED42E48015901EE2095
:1033A00019F10E949F191E2D143008F013E01150DE
:1033B000B8F0E881F98128E0129FB0011124A5013D
:1033C000940104C056954795379527956A95D2F78D
:1033D000CA01B9010190F081E02DCE010995E7CF36
:1033E00060E0CE010E94AB194D2D413208F040E261
:1033F0002C2D60EB73E08F2D0E944A1A1092AF03C0
:103400008093AE03DF91CF911F910F91FF90EF90CA
:10341000DF90CF90BF90AF909F908F900895CF9204
:10342000EF920F931F93C22EE12C00E010E0980161
:103430000E94BE191F910F91EF90CF90089521E047
:103440000C940F1A21E00C940F1A61E00C94AB1944
:103450008EE793E00C94851910923D0481E08093EF
:103460003B0410923A0461E082E10E947B2261E019
:1034700083E10E947B22E9EBF0E080818E7F8083F4
:1034800080818D7F808384E38093B80085E480937E
:10349000BC000895413208F043C090913D04911161
:1034A000FCCF91E090933D0420933B042FEF2093B9
:1034B000D00310921504240F2093140490933C041D
:1034C00090913C04880F892B80933C0480913A04AE
:1034D000813061F410923A0480913C048093BB00E7
:1034E0008091BC0083FDF8CF85EC01C085EE809310
:1034F000BC0080913D048130E1F380911504841774
:1035000010F44091150426E134E0FB01D9018A2F23
:10351000821B841718F48D918193F9CF842F08951D
:1035200080E008950F93413208F04AC090913D0425
:103530009111FCCF92E090933D0400933B049FEFE8
:103540009093D0031092150440931404FB0166E19C
:1035500074E0DB019A2F961B941718F491919D93B8
:10356000F9CF10923C0490913C04880F892B8093F2
:103570003C0480913A04813061F410923A048091C5
:103580003C048093BB008091BC0083FDF8CF85ECA8
:1035900001C085EE8093BC00222321F080913D0480
:1035A0008230E1F38091D0038F3F61F08091D003AE
:1035B000803251F08091D003803341F483E007C022
:1035C00081E005C080E003C082E001C084E00F918B
:1035D0000895613298F420913D04243089F4609379
:1035E000F203FC0184EF93E0DC012A2F281B26174D
:1035F00018F421912D93F9CF80E0089581E008958A
:1036000082E0089585ED8093BC008091BC0084FD2C
:10361000FCCF10923D04089585EC8093BC0010927D
:103620003D0408951F920F920FB60F9211242F930D
:103630003F934F935F936F937F938F939F93AF933A
:10364000BF93EF93FF938091B900887F803609F490
:103650009EC078F5883209F45DC090F4803109F499
:1036600056C038F4882309F4F5C0883009F44FC0F7
:10367000F5C0883109F44EC0803209F45FC0EEC055
:10368000803409F46AC058F4803309F457C0883391
:1036900009F0E4C08093D0030E940C1BDFC080358A
:1036A00009F44FC0883509F45DC0883409F0D6C0EC
:1036B000D3C0883909F4C4C0A8F4883709F467C0B6
:1036C00038F4883609F463C0803709F460C0C6C096
:1036D000883809F4B5C0803909F45FC0803809F032
:1036E000BDC05BC0803B09F483C038F4803A09F464
:1036F00066C0883A09F47CC0B1C0803C09F4A4C01B
:10370000883C09F4A1C0883B09F487C0A7C0809118
:103710003C0410C09091150480911404981770F522
:10372000E091150481E08E0F80931504F0E0EA5ECD
:10373000FB4F80818093BB0085EC83C08093D003D6
:103740008BC0E091150481E08E0F80931504809169
:10375000BB00F0E0EA5EFB4F8083909115048091FE
:1037600014046BC0E091150481E08E0F8093150462
:103770008091BB00F0E0EA5EFB4F808380913B04C8
:1037800081116AC081E080933A0484EA5EC083E0DC
:1037900080933D041092D103CFCF8091D10380322A
:1037A00008F04EC0E091D10381E08E0F8093D103E9
:1037B0008091BB00F0E0EE52FC4F8083BDCF0E94B1
:1037C0000C1B8091D103803230F4E091D103F0E002
:1037D000EE52FC4F10826091D10370E0E09136040C
:1037E000F091370482ED93E009951092D10336C031
:1037F00084E080933D041092F3031092F203E09171
:103800003804F091390409958091F203811105C0C3
:1038100081E08093F2031092F403E091F30381E0DE
:103820008E0F8093F303F0E0EC50FC4F8081809387
:10383000BB009091F3038091F203981708F47CCFBA
:1038400085E88093BC000AC085EC8093BC00109290
:103850003D0404C01092D0030E94021BFF91EF911F
:10386000BF91AF919F918F917F916F915F914F9198
:103870003F912F910F900FBE0F901F901895DC0174
:10388000ED91FC910190F081E02D0994FC016083A1
:1038900040EE5EE265E672E4478B508F618F728F77
:1038A0000895FC0183810895FC0184810895FC0141
:1038B000858108951F93CF93DF93EC01162F6881C4
:1038C0008EE793E00E949F19612F8EE793E00E949C
:1038D000561960E08EE793E00E94AB1941E06881E1
:1038E0008EE793E00E941F1A8EE793E00E94FE1875
:1038F000892B29F08EE793E00E94061901C080E031
:10390000DF91CF911F9108951F93CF93DF93EC0127
:1039100068818EE793E00E949F196AE28EE793E048
:103920000E9456198EE793E00E94251A41E06881B3
:103930008EE793E00E941F1A8EE793E00E94FE1824
:10394000892B31F08EE793E00E940619182F01C0F1
:1039500010E068818EE793E00E949F196AE28EE78B
:1039600093E00E945619612F70E06E7F8EE793E01E
:103970000E943F1C8EE793E0DF91CF911F910C9442
:10398000251A1F93CF93DF93EC0168818EE793E0B4
:103990000E949F196AE28EE793E00E9456198EE713
:1039A00093E00E94251A41E068818EE793E00E942F
:1039B0001F1A8EE793E00E94FE18892B31F08EE7E4
:1039C00093E00E940619182F01C010E068818EE76D
:1039D00093E00E949F196AE28EE793E00E945619D5
:1039E0008A85882319F060E070E002C062E070E030
:1039F0001162612B8EE793E00E943F1C8EE793E0FB
:103A00000E94251A68818EE793E00E949F196BE25D
:103A100070E08EE793E00E943F1C69E070E08EE763
:103A200093E00E943F1C8EE793E0DF91CF911F91BE
:103A30000C94251ACF93DF93EC016A874A8366239F
:103A400029F064E277E98FE79BE304C064E277E959
:103A50008FE79CE3443029F49B01AC010E94362798
:103A600008C0483031F420E030E040E850E40E94E3
:103A7000B7296E837F83888799876DE0CE010E9486
:103A80005A1C68818EE793E00E949F196BE270E0F8
:103A90008EE793E00E943F1C60E470E08EE793E0C5
:103AA0000E943F1C8EE793E00E94251A6AE070E0B6
:103AB00080E090E00E949621CE010E94841C6881E3
:103AC0008EE793E00E949F1961E170E08EE793E03A
:103AD0000E943F1C60EC70E08EE793E00E943F1C68
:103AE0008EE793E00E94251A68818EE793E00E949A
:103AF0009F196EE070E08EE793E00E943F1C8A8180
:103B0000843029F0883051F462E070E002C061E056
:103B100070E08EE793E00E943F1C05C060E08EE7F6
:103B200093E00E9456198EE793E00E94251ACE0179
:103B3000DF91CF910C94C11CCF92DF92EF92FF9254
:103B40000F931F93CF93DF93EC0168818EE793E08F
:103B50000E949F1960E08EE793E00E94561960E092
:103B60008EE793E00E94AB19182F8A85882311F005
:103B700047E001C044E068818EE793E00E941F1A8D
:103B80008EE793E00E94FE18892B09F4ABC08EE704
:103B900093E00E94061989838A85882309F45EC010
:103BA0008EE793E00E9406198EE793E00E940619C3
:103BB0008B8387FD815C682F66FB660F660B60F95F
:103BC000772767FD7095872F972F0E949E282E815B
:103BD0003F81488559850E94B7296B877C878D87EF
:103BE0009E878EE793E00E9406198EE793E00E947D
:103BF00006198C8387FD815C682F66FB660F660B58
:103C000060F9772767FD7095872F972F0E949E2870
:103C10002E813F81488559850E94B7296F87788B0F
:103C2000898B9A8B8EE793E00E9406198EE793E0CA
:103C30000E9406198D8387FD815C682F66FB660FE5
:103C4000660B60F9772767FD7095872F972F0E9485
:103C50009E282E813F81488559853EC08EE793E09E
:103C60000E9406198B838EE793E00E9406198C83CD
:103C70008EE793E00E940619082F8D83CE80DF80A7
:103C8000E884F9846B81772767FD7095872F972FDC
:103C90000E949E28A70196010E94B7296B877C8706
:103CA0008D879E876C81772767FD7095872F972F6B
:103CB0000E949E28A70196010E94B7296F87788BE2
:103CC000898B9A8B602F772767FD7095872F972FA9
:103CD0000E949E28A70196010E94B7296B8B7C8BBE
:103CE0008D8B9E8B812FDF91CF911F910F91FF9034
:103CF000EF90DF90CF900895CF92DF92EF92FF92F6
:103D0000CF93DF93EC019B0140E050E08E859F85CF
:103D1000281B390B41095109AC85BD850E94432BF5
:103D20006B017C018FE0F594E794D794C7948A9552
:103D3000D1F76E897F89882777FD8095982F2BE0B2
:103D4000660F771F881F991F2A95D1F7288D398D07
:103D5000442737FD4095542F2C0D3D1D4E1D5F1DF2
:103D60000E94242B2C0D3D1D4E1D5F1D2883398381
:103D70004A835B83CA01B901685F7F4F8F4F9F4FB2
:103D800034E095958795779567953A95D1F70E9498
:103D90009E2820E030E040E251E40E940328DF91B9
:103DA000CF91FF90EF90DF90CF9008952F923F92A8
:103DB0004F925F926F927F928F929F92AF92BF923B
:103DC000CF92DF92EF92FF920F931F93CF93DF93E7
:103DD000CDB7DEB728970FB6F894DEBF0FBECDBFC4
:103DE0001C014D835E836F837887DC01CD90DD906D
:103DF000ED90FC90B0EACB1ABFE0DB0AE108F108D5
:103E0000A7019601C701B6010E94CA2A4B015C01B5
:103E1000F10104811581A085B1850E944E2B2B01F3
:103E20003C018DE075946794579447948A95D1F737
:103E3000A089B189A50194019CE0559547953795D6
:103E400027959A95D1F70E944E2BBB2797FDB095E9
:103E5000AB2F480E591E6A1E7B1EF2E04F0E511CFE
:103E6000611C711C32E075946794579447943A959D
:103E7000D1F780E8580E611C711CF101A285B38551
:103E8000A30192010E94432BDC01CB014FE0B695C8
:103E9000A795979587954A95D1F789839A83AB83A0
:103EA000BC832801662457FC6094762C52E0440CB5
:103EB000551C661C771C5A95D1F7A289B389A501B8
:103EC00094010E944E2B4B015C0167E1B594A794CD
:103ED000979487946A95D1F7A681B781A701960137
:103EE0000E944E2BEBE09595879577956795EA951F
:103EF000D1F7860E971EA81EB91E480C591C6A1CC5
:103F00007B1C92E0490E511C611C711CF2E07594FF
:103F1000679457944794FA95D1F78D819E81AF812C
:103F2000B88584199509A609B7098D839E83AF8347
:103F3000B887A0E5B3EC2D813E814F8158850E9462
:103F4000432B97FD0DC0660F771F881F991F29818E
:103F50003A814B815C810E94022B49015A010CC0BD
:103F600029813A814B815C810E94022B49015A01CF
:103F7000880C991CAA1CBB1C9927B7FC9A958B2D01
:103F80007A2D692D9B01AC010E94CA2A9B01AC01CC
:103F9000AEEDBBE00E94432B6C01FF24D7FCF094F4
:103FA000EF2CA3E4B3EEA50194010E94512BBB2793
:103FB00097FDB095AB2FC80ED91EEA1EFB1E9FECD5
:103FC000C90E9EE0D91EE11CF11CF4E0F594E794C3
:103FD000D794C794FA95D1F7C80CD91CEA1CFB1CDE
:103FE000C701B60128960FB6F894DEBF0FBECDBF4D
:103FF000DF91CF911F910F91FF90EF90DF90CF90C5
:10400000BF90AF909F908F907F906F905F904F90F8
:104010003F902F900895CF93C62F67E770E08EE70B
:1040200093E00E94A9196C2F8EE793E00E94561925
:104030008EE793E00E94251A41E050E067E770E0C8
:104040008EE793E00E94221A8EE793E00E94FE180A
:10405000892BD1F38EE793E00E940619CF91089542
:104060000F931F93CF93DF93EC0167E770E08EE728
:1040700093E00E94A91964EF70E08EE793E00E943C
:104080003F1C64E370E08EE793E00E943F1C8EE7E4
:1040900093E00E94251A65E070E080E090E00E94C5
:1040A000962166EFCE010E940B20182F67EFCE01FC
:1040B0000E940B20082F68EFCE010E940B20402F9A
:1040C00050E060E070E0762F652F542F4427612B7D
:1040D0009927872F762F652FDF91CF911F910F9111
:1040E00008951F93CF93DF93162F67E770E08EE755
:1040F00093E00E94A919612F8EE793E00E94561960
:104100008EE793E00E94251A42E050E067E770E0F6
:104110008EE793E00E94221A8EE793E00E94FE1839
:104120000297D4F38EE793E00E940619182F8EE7CA
:1041300093E00E940619D12F20E0C22F9E01282B68
:10414000C901DF91CF911F910895CF93DF93EC01C7
:104150008EE793E00E9495196AEACE010E947120D1
:104160009D838C836CEACE010E9471209F838E8395
:104170006EEACE010E9471209987888760EBCE019C
:104180000E9471209B878A8762EBCE010E9471207A
:104190009D878C8764EBCE010E9471209F878E875C
:1041A00066EBCE010E947120998B888B68EBCE0163
:1041B0000E9471209B8B8A8B6AEBCE010E9471203A
:1041C0009D8B8C8B6CEBCE010E9471209F8B8E8B14
:1041D0006EEBCE010E947120998F888F60EDCE0129
:1041E0000E940B2091E0853509F090E0892FDF9146
:1041F000CF910895CF93DF93EC0167E770E08EE7EE
:1042000093E00E94A91964EF70E08EE793E00E94AA
:104210003F1C6EE270E08EE793E00E943F1C8EE749
:1042200093E00E94251A65E070E080E090E00E9433
:10423000962166EFCE01DF91CF910C9471201F92F1
:104240000F920FB60F9211242F933F938F939F934A
:10425000AF93BF9380913F0490914004A09141049B
:10426000B091420430913E042DE2230F2D3720F40B
:104270000196A11DB11D05C020EB230F0296A11DC3
:10428000B11D20933E0480933F0490934004A0937B
:104290004104B09342048091430490914404A0915E
:1042A0004504B09146040196A11DB11D80934304BD
:1042B00090934404A0934504B0934604BF91AF91FA
:1042C0009F918F913F912F910F900FBE0F901F9054
:1042D00018952FB7F89460913F0470914004809135
:1042E0004104909142042FBF08959FB7F8944091E4
:1042F000430450914404609145047091460486B58E
:10430000A89B06C08F3F21F04F5F5F4F6F4F7F4FDD
:104310009FBF2227342F452F562F280F311D411DB7
:10432000511DA5E0B0E00E94432B0895CF92DF928B
:10433000EF92FF92CF93DF936B017C010E94752176
:10434000EB01C114D104E104F10489F00E94342787
:104350000E9475216C1B7D0B683E734090F381E0D9
:10436000C81AD108E108F108C851DC4FEACFDF9143
:10437000CF91FF90EF90DF90CF900895789484B51F
:10438000826084BD84B5816084BD85B5826085BD51
:1043900085B5816085BDEEE6F0E080818160808337
:1043A000E1E8F0E01082808182608083808181601A
:1043B0008083E0E8F0E0808181608083E1EBF0E0E1
:1043C000808184608083E0EBF0E080818160808385
:1043D000EAE7F0E08081846080838081826080836E
:1043E00080818E7F80838081806880831092C1006D
:1043F000089580930C0108958E3008F08E508770D8
:1044000020910C0190E4299F90011124822B80932C
:104410007C0080917A00806480937A0080917A0099
:1044200086FDFCCF809178002091790090E0922B5E
:104430000895833081F028F4813099F08230A1F022
:1044400008958730A9F08830B9F08430D1F4809194
:1044500080008F7D03C0809180008F7780938000E3
:10446000089584B58F7702C084B58F7D84BD08958B
:104470008091B0008F7703C08091B0008F7D8093D2
:10448000B0000895CF93DF9390E0FC01E85FFD4F0B
:104490002491FC01E45EFD4F8491882349F190E072
:1044A000880F991FFC01EC5BFD4FA591B491865CD0
:1044B0009D4FFC01C591D4919FB7611108C0F8943C
:1044C0008C91209582238C93888182230AC062304C
:1044D00051F4F8948C91322F309583238C938881FA
:1044E000822B888304C0F8948C91822B8C939FBF7D
:1044F000DF91CF9108950F931F93CF93DF931F9276
:10450000CDB7DEB7282F30E0F901EC50FE4F849193
:10451000F901E85FFD4F1491F901E45EFD4F04914C
:104520000023C9F0882321F069830E941922698140
:10453000E02FF0E0EE0FFF1FE65CFD4FA591B49178
:104540009FB7F8948C91611103C01095812301C02D
:10455000812B8C939FBF0F90DF91CF911F910F9173
:104560000895FC01818D228D90E0805C9F4F821B1D
:1045700091098F7399270895FC01918D828D981769
:1045800031F0828DE80FF11D858D90E008958FEF59
:104590009FEF0895FC01918D828D981761F0828DB7
:1045A000DF01A80FB11D5D968C91928D9F5F9F7367
:1045B000928F90E008958FEF9FEF0895FC01848D16
:1045C000DF01A80FB11DA35ABF4F2C91848D90E03D
:1045D00001968F739927848FA689B7892C93A08918
:1045E000B1898C9180648C93938D848D981306C0CF
:1045F0000288F389E02D80818F7D80830895CF9399
:10460000DF93EC01888D8823C9F0EA89FB898081DA
:1046100085FD05C0A889B9898C9186FD0FC00FB6AC
:1046200007FCF5CF808185FFF2CFA889B9898C91ED
:1046300085FFEDCFCE010E94DE22E7CFDF91CF9143
:104640000895CF92DF92FF920F931F93CF93DF9342
:104650001F92CDB7DEB76C0181E0D60158968C93DE
:1046600058975B969C915B975C968C915C9798139E
:1046700007C05096ED91FC915197808185FD2EC029
:10468000F601038D10E00F5F1F4F0F731127F02EFF
:10469000F601848DF81211C00FB607FCF9CFD601D0
:1046A0005096ED91FC915197808185FFF1CFC60125
:1046B00069830E94DE226981EBCF838DE80FF11DB3
:1046C000E35AFF4F6083D6015B960C935B9752963B
:1046D000ED91FC915397808180620CC0D601569673
:1046E000ED91FC91579760835096ED91FC91519715
:1046F00080818064808381E090E00F90DF91CF9192
:104700001F910F91FF90DF90CF900895BF92CF92AD
:10471000DF92EF92FF92CF93DF93EC016A017B016E
:10472000B22E60EC76EC8DE290E0A70196010E943B
:10473000022B21503109410951095695479537956A
:104740002795E889F98982E08083211580E138077F
:1047500098F0E889F989108260E673EE86E190E0CE
:10476000A70196010E94022B2150310941095109EC
:104770005695479537952795EC85FD853083EE85D1
:10478000FF852083188EEC89FD89B082EA89FB8938
:10479000808180618083EA89FB8980818860808351
:1047A000EA89FB89808180688083EA89FB8980812E
:1047B0008F7D8083DF91CF91FF90EF90DF90CF903E
:1047C000BF9008951F920F920FB60F9211242F934E
:1047D0008F939F93EF93FF93E0915704F0915804C8
:1047E0008081E0915D04F0915E0482FD12C09081B1
:1047F000809160048F5F8F7320916104821751F064
:10480000E0916004F0E0E95BFB4F958F80936004DA
:1048100001C08081FF91EF919F918F912F910F9017
:104820000FBE0F901F9018951F920F920FB60F9208
:1048300011242F933F934F935F936F937F938F93A5
:104840009F93AF93BF93EF93FF9387E494E00E940D
:10485000DE22FF91EF91BF91AF919F918F917F9158
:104860006F915F914F913F912F910F900FBE0F90DD
:104870001F90189510924A041092490488EE93E014
:10488000A0E0B0E080934B0490934C04A0934D04BF
:10489000B0934E0486EA91E09093480480934704D5
:1048A00085EC90E0909354048093530484EC90E062
:1048B000909356048093550480EC90E090935804B4
:1048C0008093570481EC90E090935A0480935904AC
:1048D00082EC90E090935C0480935B0486EC90E023
:1048E00090935E0480935D041092600410926104C2
:1048F00010926204109263040895CF92DF92EF92B7
:10490000FF920F931F93CF93DF937C016A01EB011A
:1049100000E010E00C151D0571F06991D701ED91D3
:10492000FC910190F081E02DC7010995892B19F0C8
:104930000F5F1F4FEFCFC801DF91CF911F910F91F4
:10494000FF90EF90DF90CF9008956115710581F091
:10495000DB010D900020E9F7AD0141505109461BE4
:10496000570BDC01ED91FC910280F381E02D09945D
:1049700080E090E008950C94A524DC01ED91FC9179
:104980000190F081E02D099462EB71E00C94A52474
:104990000F931F93CF93DF93EC010E94A5248C010A
:1049A000CE010E94C424800F911FDF91CF911F91EF
:1049B0000F9108958F929F92AF92BF92CF92DF9204
:1049C000EF92FF920F931F93CF93DF93CDB7DEB794
:1049D000A1970FB6F894DEBF0FBECDBF7C01C42EE9
:1049E000E52FCB01D22E19A221E02D1510F02AE0DF
:1049F000D22E8E010F5D1F4F8D2C912CA12CB12C2E
:104A00006C2D7E2FA50194010E94022B8C2DD29E2D
:104A100080191124015011098A3014F4805D01C0FD
:104A2000895CF8018083211531054105510521F08C
:104A3000C22EE32FCA01E4CFB801C7010E94A5240A
:104A4000A1960FB6F894DEBF0FBECDBFDF91CF9118
:104A50001F910F91FF90EF90DF90CF90BF90AF909C
:104A60009F908F900895CF92DF92EF92FF920F93D5
:104A70001F93CF93DF93EC016A017B012115310570
:104A800079F4E881F9810190F081E02D642FDF91C4
:104A9000CF911F910F91FF90EF90DF90CF900994ED
:104AA0002A303105E9F477FF1AC06DE20E94BD2477
:104AB0008C0144275527BA014C195D096E097F09FD
:104AC0002AE0CE010E94DA24800F911FDF91CF915E
:104AD0001F910F91FF90EF90DF90CF9008952AE003
:104AE000B701A601CE01DF91CF911F910F91FF90E9
:104AF000EF90DF90CF900C94DA240F931F93CF9315
:104B0000DF93EC019A01AB01662757FD6095762F84
:104B10000E9433258C01CE010E94C424800F911F76
:104B2000DF91CF911F910F9108952115310541F427
:104B3000DC01ED91FC910190F081E02D642F09944E
:104B40000C94DA249A01462F50E060E070E00C9457
:104B500095250F931F93CF93DF93EC019A01462F76
:104B600050E060E070E00E9495258C01CE010E942B
:104B7000C424800F911FDF91CF911F910F91089551
:104B80009A01AB0160E070E00C9495250F931F93A0
:104B9000CF93DF93EC019A01AB0160E070E00E94DB
:104BA00095258C01CE010E94C424800F911FDF91B6
:104BB000CF911F910F9108950F931F93CF93DF9380
:104BC000EC010E9495258C01CE010E94C424800F27
:104BD000911FDF91CF911F910F9108954F925F9296
:104BE0006F927F928F929F92AF92BF92CF92DF92FD
:104BF000EF92FF920F931F93CF93DF93EC016A0123
:104C00007B01B22E9A01AB01C701B6010E94852A31
:104C1000882319F065EB71E027C026013701E8947D
:104C200077F82FEF3FEF4FE75FE7C301B2010E9434
:104C3000852A81110DC02FEF3FEF4FE75FE7C301DA
:104C4000B2010E94FC2718161CF469EB71E00CC03D
:104C50002FEF3FEF4FE75FE4C701B6010E94AC2999
:104C60001816ACF46DEB71E0CE01DF91CF911F917E
:104C70000F91FF90EF90DF90CF90BF90AF909F90FB
:104C80008F907F906F905F904F900C94A5242FEFA2
:104C90003FEF4FE75FECC701B6010E94FC2787FD9D
:104CA000E1CF20E030E0A901C701B6010E94FC2756
:104CB00087FF0AC06DE2CE010E94BD248C01F7FA85
:104CC000F094F7F8F09402C000E010E0A12C60E04E
:104CD00070E080E09FE3AB1441F020E030E040E280
:104CE00051E40E940328A394F6CF9B01AC01C701B5
:104CF000B6010E9436276B017C010E9470282B01AF
:104D00003C010E949C289B01AC01C701B6010E9496
:104D100035276B017C012AE0B301A201CE010E947C
:104D2000DA24080F191FBB2039F061EC71E0CE01C5
:104D30000E94A524080F191F7B2C772041F120E049
:104D400030E040E251E4C701B6010E94B7296B018F
:104D50007C010E946B284B01AA2497FCA094BA2CDA
:104D60002AE030E0B501A401CE010E943325080FEE
:104D7000191FC501B4010E949E289B01AC01C70107
:104D8000B6010E9435276B017C017A94D6CFC80109
:104D9000DF91CF911F910F91FF90EF90DF90CF9017
:104DA000BF90AF909F908F907F906F905F904F904B
:104DB00008950C94EE250F931F93CF93DF93EC018E
:104DC0000E94EE258C01CE010E94C424800F911F09
:104DD000DF91CF911F910F9108954F925F926F9243
:104DE0007F92AF92BF92CF92DF92EF92FF920F939A
:104DF0001F93CF93DF93CDB7DEB729013A01621B32
:104E0000730B840B950B29893A894B895C892A1984
:104E10003B094C095D09298B3A8B4B8B5C8B9B01C1
:104E2000AC0169897A898B899C890E94CA2AE41815
:104E3000F50806091709A80197010E94242B2A0DDD
:104E40003B1D4C1D5D1DCA01B901DF91CF911F9122
:104E50000F91FF90EF90DF90CF90BF90AF907F9039
:104E60006F905F904F90089508955058BB27AA27E0
:104E70000ED027C2F0D130F0F5D120F031F49F3FB1
:104E800011F41EF4C0C10EF4E095E7FBB6C1E92FA2
:104E90003AD280F3BA17620773078407950718F0B0
:104EA00071F49EF552C20EF4E0950B2EBA2FA02D90
:104EB0000B01B90190010C01CA01A0011124FF27C7
:104EC000591B99F0593F50F4503E68F11A16F040C2
:104ED000A22F232F342F4427585FF3CF46953795C1
:104EE0002795A795F0405395C9F77EF41F16BA0B86
:104EF000620B730B840BBAF09150A1F0FF0FBB1F34
:104F0000661F771F881FC2F70EC0BA0F621F731F7C
:104F1000841F48F4879577956795B795F7959E3FD9
:104F200008F0B3CF9395880F08F09927EE0F979567
:104F30008795089590D158F080E891E009F49EEFAC
:104F400091D128F040E851E059F45EEF09C05BC10F
:104F5000FCC1E92FE078D7D168F3092E052AC1F307
:104F6000261737074807590738F00E2E07F8E025AF
:104F700069F0E025E0640AC0EF6307F8009407FADF
:104F8000DB01B9019D01DC01CA01AD01EF934AD0FB
:104F900098D10AD05F91552331F02BED3FE049E4E1
:104FA00050FD49EC63CF0895DF93DD27B92FBF771C
:104FB00040E85FE31616170648075B0710F4D92F81
:104FC000CFD19F938F937F936F939CD2E8E6F0E0CD
:104FD0001DD177D12F913F914F915F91D4D1DD2396
:104FE00049F09058A2EA2AED3FE049EC5FE3D0781F
:104FF0005D274DDFDF9165C1DCD008F481E00895C5
:1050000039D1E3956FC10CD05CC12CD140F023D1D4
:1050100030F021F45F3F19F0F0C0511197C1F3C097
:1050200072D198F39923C9F35523B1F3951B550B0E
:10503000BB27AA2762177307840738F09F5F5F4F6B
:10504000220F331F441FAA1FA9F333D00E2E3AF0AC
:10505000E0E830D091505040E695001CCAF729D0C6
:10506000FE2F27D0660F771F881FBB1F2617370715
:105070004807AB07B0E809F0BB0B802DBF01FF2745
:1050800093585F4F2AF09E3F510568F0B6C05EC14D
:105090005F3FECF3983EDCF3869577956795B7957F
:1050A000F7959F5FC9F7880F911D9695879597F99A
:1050B0000895E1E0660F771F881FBB1F6217730713
:1050C0008407BA0720F0621B730B840BBA0BEE1F28
:1050D00088F7E095089504D06894B11137C1089518
:1050E0001AD188F09F5790F0B92F9927B751A0F0A7
:1050F000D1F0660F771F881F991F1AF0BA95C9F76C
:1051000012C0B13081F021D1B1E008951EC1672FE6
:10511000782F8827B85F39F0B93FCCF3869577951B
:105120006795B395D9F73EF4909580957095619504
:105130007F4F8F4F9F4F0895E89409C097FB3EF42F
:1051400090958095709561957F4F8F4F9F4F9923D4
:10515000A9F0F92F96E9BB279395F6958795779552
:105160006795B795F111F8CFFAF4BB0F11F460FF12
:105170001BC06F5F7F4F8F4F9F4F16C0882311F06A
:1051800096E911C0772321F09EE8872F762F05C07E
:10519000662371F096E8862F70E060E02AF09A9519
:1051A000660F771F881FDAF7880F9695879597F90E
:1051B0000895990F0008550FAA0BE0E8FEEF1616A8
:1051C0001706E807F907C0F012161306E407F507FB
:1051D00098F0621B730B840B950B39F40A2661F06F
:1051E000232B242B252B21F408950A2609F4A14012
:1051F000A6958FEF811D811D089597F99F6780E81F
:1052000070E060E008959FEF80EC0895DF93CF9306
:105210001F930F93FF92EF92DF927B018C016894B2
:1052200005C0DA2EEF01AFD0FE01E894A5912591DB
:10523000359145915591AEF3EF0129DEFE019701BD
:10524000A801DA9479F7DF90EF90FF900F911F910A
:10525000CF91DF91089500240A94161617061806B8
:105260000906089500240A9412161306140605066A
:105270000895C9CF50D0E8F3E894E0E0BB279F57EA
:10528000F0F02AED3FE049EC06C0EE0FBB0F661FC1
:10529000771F881F28F0B23A62077307840728F047
:1052A000B25A620B730B840BE3959A9572F78038B0
:1052B00030F49A95BB0F661F771F881FD2F790486E
:1052C00045C1092E0394000C11F4882352F0BB0F42
:1052D00040F4BF2B11F460FF04C06F5F7F4F8F4F0E
:1052E0009F4F0895EF93E0FF06C0A2EA2AED3FE04A
:1052F00049EC5FEBCCDDE5DF0F90039401FC9058A7
:10530000E5E9F0E036C157FD9058440F551F59F0BC
:105310005F3F71F04795880F97FB991F61F09F3FA2
:1053200079F087950895121613061406551FF2CFCB
:105330004695F1DF08C0161617061806991FF1CF1B
:1053400086957105610508940895E894BB27662742
:105350007727CB0197F908952CDF08F48FEF089594
:105360009B01AC0160E070E080E89FE34CCE0BD085
:10537000A8CF71DF28F076DF18F0952309F03DCF34
:1053800042CF1124E3CFBFDFA0F3959FD1F3950F58
:1053900050E0551F629FF001729FBB27F00DB11DB9
:1053A000639FAA27F00DB11DAA1F649F6627B00D49
:1053B000A11D661F829F2227B00DA11D621F739F32
:1053C000B00DA11D621F839FA00D611D221F749F40
:1053D0003327A00D611D231F849F600D211D822F87
:1053E000762F6A2F11249F5750408AF0E1F08823CE
:1053F0004AF0EE0FFF1FBB1F661F771F881F9150DB
:105400005040A9F79E3F510570F0F7CE9FCF5F3F08
:10541000ECF3983EDCF3869577956795B795F7950D
:10542000E7959F5FC1F7FE2B880F911D9695879595
:1054300097F9089570DFE0F09E37D8F09639B8F408
:105440009E3848F4672F782F8827985FF9CF869584
:105450007795679593959539D0F3B62FB1706B0F0B
:10546000711D811D20F4879577956795939551C09F
:105470006BC06CCF9F93FEDE0F9007FCEE5F32CFC8
:1054800011F40EF4C0CE60C046DFD0F39923D9F3F7
:10549000CEF39F57550B87FF65D00024A0E640EA66
:1054A000900180585695979528F4805C660F771F79
:1054B000881F20F026173707480730F4621B730B4C
:1054C000840B202931294A2BA6951794079420256F
:1054D00031254A2758F7660F771F881F20F02617B7
:1054E0003707480730F4620B730B840B200D311D16
:1054F000411DA09581F7B901842F9158880F969589
:10550000879508959B01AC0132CF53DE880B990B30
:105510000895882371F4772321F09850872B762FF4
:1055200007C0662311F499270DC09051862B70E0B7
:1055300060E02AF09A95660F771F881FDAF7880FC8
:105540009695879597F908959F3F31F0915020F4F3
:10555000879577956795B795880F911D969587954F
:1055600097F9089591505040660F771F881FD2F722
:1055700008959F938F937F936F93FF93EF939B0176
:10558000AC01F5DEEF91FF9141DE2F913F914F91FC
:105590005F91EDCEDB018F939F930E94432BBF91D0
:1055A000AF91A29F800D911DA39F900DB29F900D72
:1055B00011240895AA1BBB1B51E107C0AA1FBB1FE2
:1055C000A617B70710F0A61BB70B881F991F5A958F
:1055D000A9F780959095BC01CD01089597FB072E02
:1055E00016F4009407D077FD09D00E94DA2A07FC50
:1055F00005D03EF4909581959F4F089570956195E3
:105600007F4F0895A1E21A2EAA1BBB1BFD010DC0FE
:10561000AA1FBB1FEE1FFF1FA217B307E407F50762
:1056200020F0A21BB30BE40BF50B661F771F881F3E
:10563000991F1A9469F760957095809590959B01D4
:10564000AC01BD01CF010895052E97FB1EF4009417
:105650000E943B2B57FD07D00E94022B07FC03D072
:105660004EF40C943B2B50954095309521953F4F2F
:105670004F4F5F4F089590958095709561957F4F3E
:105680008F4F9F4F08950E945C2BA59F900DB49F54
:10569000900DA49F800D911D11240895B7FF0C94C7
:1056A000432B0E94432B821B930B0895EE0FFF1F89
:1056B0000590F491E02D0994A29FB001B39FC00121
:1056C000A39F700D811D1124911DB29F700D811D2E
:1056D0001124911D0895FC0188279927E8942191B0
:1056E0002032E9F3293010F02E30C8F32B3241F08C
:1056F0002D3239F4689404C00E94A12B820F911DB1
:10570000219120532A30C0F31EF4909581959F4F2C
:105710000895FB01DC018D91019080190110D9F3EE
:10572000990B0895FB01DC014150504048F0019075
:105730000D920020C9F701C01D9241505040E0F782
:1057400008957AE0979F902D879F802D910D1124C9
:105750000895AEE0B0E0EFEAFBE20C94672E0D890D
:105760001E8986E08C831A8309838FEF9FE79E83CF
:105770008D83AE01475E5F4F6F89788DCE010196B4
:105780000E94CB2BEF81F885E00FF11F10822E963F
:10579000E4E00C94832EACE0B0E0E1EDFBE20C948D
:1057A000592E7C016B018A01FC01178216828381CC
:1057B00081FFBDC1CE0101964C01F7019381F60135
:1057C00093FD859193FF81916F01882309F4ABC10B
:1057D000853239F493FD859193FF81916F01853274
:1057E00029F4B70190E00E94C92DE7CF512C312C4C
:1057F00020E02032A0F48B3269F030F4803259F08E
:10580000833269F420612CC08D3239F0803339F451
:10581000216026C02260246023C0286021C027FDAB
:1058200027C030ED380F3A3078F426FF06C0FAE092
:105830005F9E300D1124532E13C08AE0389E300D28
:105840001124332E20620CC08E3221F426FD6BC150
:10585000206406C08C3611F4206802C0883641F4FA
:10586000F60193FD859193FF81916F018111C1CF65
:10587000982F9F7D9554933028F40C5F1F4FFFE3C2
:10588000F9830DC0833631F0833771F0833509F029
:105890005BC022C0F801808189830E5F1F4F4424C2
:1058A0004394512C540115C03801F2E06F0E711C65
:1058B000F801A080B18026FF03C0652D70E002C012
:1058C0006FEF7FEFC5012C870E94BE2D2C01830155
:1058D0002C852F77222E17C03801F2E06F0E711C35
:1058E000F801A080B18026FF03C0652D70E002C0E2
:1058F0006FEF7FEFC5012C870E94B32D2C012C8503
:105900002068222E830123FC1BC0832D90E04816C3
:105910005906B0F4B70180E290E00E94C92D3A9494
:10592000F4CFF50127FC859127FE81915F01B70136
:1059300090E00E94C92D31103A94F1E04F1A5108BD
:105940004114510471F7E5C0843611F0893639F5F8
:10595000F80127FF07C060817181828193810C5F0C
:105960001F4F08C060817181882777FD8095982F2F
:105970000E5F1F4F2F76B22E97FF09C0909580952E
:10598000709561957F4F8F4F9F4F2068B22E2AE010
:1059900030E0A4010E94FB2DA82EA81844C0853732
:1059A00029F42F7EB22E2AE030E025C0F22FF97FB5
:1059B000BF2E8F36C1F018F4883579F0B4C0803727
:1059C00019F0883721F0AFC02F2F2061B22EB4FE1E
:1059D0000DC08B2D8460B82E09C024FF0AC09F2FF4
:1059E0009660B92E06C028E030E005C020E130E026
:1059F00002C020E132E0F801B7FE07C0608171818A
:105A0000828193810C5F1F4F06C06081718180E0AD
:105A100090E00E5F1F4FA4010E94FB2DA82EA81836
:105A2000FB2DFF77BF2EB6FE0BC02B2D2E7FA514AE
:105A300050F4B4FE0AC0B2FC08C02B2D2E7E05C067
:105A40007A2C2B2D03C07A2C01C0752C24FF0DC09D
:105A5000FE01EA0DF11D8081803311F4297E09C019
:105A600022FF06C07394739404C0822F867809F0D5
:105A7000739423FD13C020FF06C05A2C731418F42E
:105A8000530C5718732C731468F4B70180E290E03C
:105A90002C870E94C92D73942C85F5CF731410F4B4
:105AA000371801C0312C24FF12C0B70180E390E009
:105AB0002C870E94C92D2C8522FF17C021FF03C00F
:105AC00088E590E002C088E790E0B7010CC0822F23
:105AD000867859F021FD02C080E201C08BE227FDEB
