:100000000C942E010C94F7210C941E220C94AB112D
:100010000C94AB110C94AB110C94D80E0C945601AB
:100020000C9456010C9456010C9456010C945601F4
:100030000C9456010C9456010C9456010C945601E4
:100040000C9445220C9456010C941A250C944C25C2
:100050000C9456010C9456010C9456010C945601C4
:100060000C94061E0C9456014661696C0D0A0053EF
:100070006967466F783A20002C206D6F64653D00FB
:100080002C206261743D002C207370643D002C2094
:100090006361703D002C20616C743D002C206C6FFE
:1000A0006E3D00206C61743D006D73673D0024500F
:1000B0004D544B3330312C322A0024504D544B33A5
:1000C00031332C312A0024504D544B3232302C31F4
:1000D0003030302A0024504D544B3331342C302CE6
:1000E000312C302C312C302C302C302C302C302C2E
:1000F000302C302C302C302C302C302C302C302C20
:10010000302C302A004E6577206669726D776172F7
:10011000652E2000557365207065722064617973C7
:100120003A004C617374206461793A002000200029
:1001300020004C6F77204261743A200053656E7343
:100140006F724D61783A20006D620D0A00274320DE
:1001500050726573733A200054656D703A20004FF9
:100160004B004661696C00496E6974204D656D7382
:100170003A00667265652052616D3A200054656DE3
:1001800070206661696C0D0A0024504D544B363066
:10019000352A0025200020426174746572793A2066
:1001A000004669726D77617265204869646E5365B7
:1001B000656B5F76335F32385F4750530A52656C28
:1001C00065617365204A756E2031352032303136D5
:1001D0002031363A32303A333100534649443B00FD
:1001E0004154563000415445300053464D002C32A6
:1001F0002C310041542453463D0000000008000209
:1002000001000003040700000000000000000102DC
:100210000408102040800102040810200102040894
:100220001020040404040404040402020202020272
:10023000030303030303000000002300260029003A
:1002400000000000250028002B0000000000240012
:1002500027002A0058091C1D7225670911241FBE9A
:10026000CFEFD8E0DEBFCDBF11E0A0E0B1E0E4EF1A
:10027000FCE502C005900D92AA3CB107D9F724E035
:10028000AAECB1E001C01D92AD3EB207E1F712E069
:10029000CAE5D2E004C02297FE010E94352BC43586
:1002A000D107C9F70E940E0D0C946D2E0C9400001E
:1002B00081E080932903089581E0809329030895C4
:1002C0000C94822D0C947A2DCF93DF9300D0CDB770
:1002D000DEB72091E9043091EA042115310511F4CB
:1002E0002DEE34E0CE010196821B930B0F900F9000
:1002F000DF91CF910895CF93DF93FC016491EC01DE
:100300002196662331F08CE494E00E94F525CE011D
:10031000F4CFDF91CF91089542E050E0833031F483
:100320006CE571E081E00E94D72105C068E571E0CD
:1003300080E00E94D7211092290310922A03089589
:1003400082E085B987E084B918B884E087B98CE188
:100350008BB980EC8AB90895CF93DF93EC011C161A
:100360001D068CF45F9A60E270E080E090E00E94ED
:10037000BC225F98219799F360E470E080E090E000
:100380000E94BC22ECCFDF91CF91089560E270E033
:1003900080E090E00E94BC228BB18F779091270380
:1003A0009295990F990F907C909589238BB960E471
:1003B00070E080E090E00E94BC222BB12068809128
:1003C000270330E4839FC0011124282B2BB9089503
:1003D00087E691E00E947B0183E893E00E94891CFC
:1003E00042E060E08DEE91E00E944C1B8DEE91E0CA
:1003F0000E949A1B882351F082E691E00E947B01C3
:100400008CE494E00E94FC2580E008958FE591E063
:100410000E947B018CE494E00E94FC2581E0089519
:100420000F931F93CF93DF938C01EB010097A1F003
:1004300083ED91E00E94B121BC0183ED91E00E9427
:10044000331F26E636E646E650E40E943F28F801D0
:100450006083718382839383209789F183ED91E098
:100460000E94E720AB01BC0183ED91E00E948D1F4B
:1004700024E630E040E050E00E94012B39832883DD
:100480008091CA019091CB018217930740F080912F
:100490001603882341F080912D03811104C030930D
:1004A000CB012093CA018091CA019091CB01821B9C
:1004B000930B21E0809708F420E020932C0381E047
:1004C000DF91CF911F910F91089588E591E00E94EF
:1004D0007B014091110350911203609113037091BD
:1004E000140322E030E08CE494E00E94F5278DE4D0
:1004F00091E00E947B0160910F03709110034AE02C
:1005000050E08CE494E00E94DC2688E491E00C94B6
:100510007B01CF9380E290E00E946201C82F81E2CC
:1005200090E00E946201282F30E0322F22272C0F0A
:10053000311D3093D2012093D1018CE391E00E94D0
:100540007B016091D1017091D2014AE050E08CE4CE
:1005500094E00E94DC2684ED93E09093D201809396
:10056000D101CF910895CF93DF93D82FC92F682F52
:1005700080E290E00E9460016C2F81E290E00E9496
:1005800060018D2F9C2FDF91CF9108958F929F92C4
:10059000AF92BF92CF92DF92EF92FF920F931F9391
:1005A000CF93DF93CDB7DEB7C456D1090FB6F89419
:1005B000DEBF0FBECDBF61E08AE00E94B32380E0C2
:1005C0000E94312364E670E080E090E00E94BC224B
:1005D00010E08FE00E943423959587959595879537
:1005E000282F3981831778F0112369F0FE013196A5
:1005F00041E0411749F03191231718F0308132174B
:1006000018F44F5FF6CF40E0512F451778F4252FAF
:1006100030E0FE01E20FF31F6081E1E0F0E0EC0F5B
:10062000FD1FE20FF31F60835150EFCFE1E0F0E0D8
:10063000EC0FFD1FE40FF11D80831F5F143649F698
:10064000FE01BF969E01295C3F4F80E090E0419102
:10065000840F911DE217F307D1F796958795909334
:100660001E0380931D0304972091D1013091D20184
:100670002817390730F40E94B3029093D201809377
:10068000D101E090D101F090D20100E010E0609142
:100690001D0370911E0380E090E01F921F9220E1E5
:1006A0002F9328E62F93A12CB12C650120E030E098
:1006B000A9010E94F7274B019B01683640E17407AE
:1006C00010F428E630E1790100E010E09B0143EFEF
:1006D00084164DE0940610F022EF3DE040E050E03B
:1006E000882799271F921F921F92E4E6EF93A12C6F
:1006F000B12C65010E94F72760931C030FB6F89494
:10070000DEBF0FBECDBF80912703811103C0609172
:100710000B0101C061E08AE00E94B32381E092EF07
:1007200089169DE0990608F080E0CC59DF4F0FB69E
:10073000F894DEBF0FBECDBFDF91CF911F910F9117
:10074000FF90EF90DF90CF90BF90AF909F908F90F1
:100750000895BF92CF92DF92EF92FF920F931F9373
:10076000CF93DF93CDB7DEB72C970FB6F894DEBFEB
:100770000FBECDBF8091030390910403A0910503A8
:10078000B091060389839A83AB83BC83809107036E
:1007900090910803A0910903B0910A038D839E8371
:1007A000AF83B8878091180389878091340324E050
:1007B000829FC001112420913503922B2091330395
:1007C00030E044E0359527954A95E1F7822B932B4D
:1007D0009B878A878CE290E00E946201B82E8BE0B2
:1007E000B89E80011124035D1F4FFE0131967F01E9
:1007F0006E01FCE0CF0ED11CF70161917F01C801B1
:100800006C870E947A2D6C85681719F0C8010E94C8
:10081000822D0F5F1F4FEC14FD0471F7F8E5FB15F7
:10082000A8F061E06B0D8CE290E02C960FB6F89486
:10083000DEBF0FBECDBFDF91CF911F910F91FF9013
:10084000EF90DF90CF90BF900C9460012C960FB684
:10085000F894DEBF0FBECDBFDF91CF911F910F91F6
:10086000FF90EF90DF90CF90BF900895CF92DF92EE
:10087000EF92FF920F931F93CF93DF93CDB7DEB725
:100880002C970FB6F894DEBF0FBECDBF6FEF680F89
:100890006E018CE0C80ED11C8E010F5F1F4F5DE210
:1008A000E52EF12CE01AF10AEBE06E9FE00CF11C52
:1008B0001124C701800F911F6C870E947A2DF801C7
:1008C00081938F016C85EC15FD0599F78CE290E022
:1008D0000E94600189819A81AB81BC81809303036E
:1008E00090930403A0930503B09306038D819E812A
:1008F000AF81B8858093070390930803A093090301
:10090000B0930A03898590E09093190380931803AC
:100910008A859B8590931B0380931A032C960FB6B0
:10092000F894DEBF0FBECDBFDF91CF911F910F9125
:10093000FF90EF90DF90CF9008950F931F93CF9388
:10094000DF93CDB7DEB761970FB6F894DEBF0FBE69
:10095000CDBF40910B0350910C0360910D0370913A
:100960000E03DB01CA01E3E1B695A795979587953C
:10097000EA95D1F7FCE07695679557954795FA95F6
:10098000D1F74F7755275093190340931803282F19
:100990002370220F220F1F922F939C01332736952D
:1009A0002795369527953F932F931F929F9381E12B
:1009B00091E09F938F938E010F5F1F4F1F930F93B3
:1009C0000E94862BB8018CE494E00E94F3254091AC
:1009D000030350910403609105037091060327E01F
:1009E00030E08CE494E00E94F52780E391E00E94DF
:1009F0007B014091070350910803609109037091B6
:100A00000A0327E030E08CE494E00E94F5278EE2B0
:100A100091E00E947B0160911803709119034AE0F4
:100A200050E08CE494E00E94DC268CE291E00E948D
:100A30007B014AE050E0609120038CE494E00E9446
:100A4000C5260FB6F894DEBF0FBECDBF61960FB6B8
:100A5000F894DEBF0FBECDBFDF91CF911F910F91F4
:100A60000895809122039FEF980F9F3128F46091A1
:100A7000210390E00C9460010895CF93C091360358
:100A8000CC2331F180912203C817E1F080E090E09F
:100A90000E946201809322038C17A1F00E9431050D
:100AA0006091360380E090E00E94600180913603FF
:100AB00060E090E00E946001809136038093220301
:100AC00010922103809121038F5F8093210302C044
:100AD00010922103CF910895CF93DF9380E090E0AF
:100AE0000E946201813218F48093220307C01092A1
:100AF000220360E080E090E00E94600182E291E0E9
:100B00000E947B014AE050E0609122038CE494E073
:100B10000E94C52684E191E00E947B01C1E0D0E003
:100B2000CE010E946201809321038F3F31F460E087
:100B3000CE010E946001109221034AE050E06091D2
:100B400021038CE494E00E94BE2667E471E08CE40B
:100B500094E00E94F3252196C032D10509F78CE27A
:100B600090E00E946201809321034AE050E0682FE8
:100B70008CE494E00E94C526809121038A3528F0F8
:100B800060E08CE290E00E9460018091220390E09E
:100B90000E94620180932103DF91CF910895CF924B
:100BA000DF92EF92FF920F931F93CF93DF935E9AA2
:100BB00082E290E00E946201C82F83E290E00E94EE
:100BC0006201082F84E290E00E946201182F85E202
:100BD00090E00E946201D82F0C3139F06CE183E281
:100BE00090E00E94600191E001C090E0153031F08A
:100BF00065E084E290E00E94600191E0D33041F032
:100C000063E085E290E00E946001C33019F414C0F3
:100C1000C33031F063E082E290E00E9460010CC0DA
:100C200091110AC05E98DF91CF911F910F91FF90B3
:100C3000EF90DF90CF90089585E89BEEA1E5B0E4BA
:100C40008093030390930403A0930503B0930603DA
:100C500083EC95EFA0EAB0E4809307039093080338
:100C6000A0930903B0930A0380911C038F7790E04F
:100C7000A0E0B0E0C3E0880F991FAA1FBB1FCA9570
:100C8000D1F783609C6080930B0390930C03A09337
:100C90000D03B0930E0385E091E00E947B0160E7B5
:100CA00077E180E090E00E94BC220E948F226B01DD
:100CB0007C014CE063E073E08AED92E00E94161044
:100CC0000E948F226C197D09603D774008F0AACF01
:100CD00064E670E080E090E00E94BC22F1CFEF92E9
:100CE000FF920F931F93CF93DF931F92CDB7DEB781
:100CF0008C01E12CF12CF8012491222349F0622F80
:100D00008CE494E029830E94F52529812A3259F444
:100D100080E1E816F10494F468E271E08CE494E078
:100D20000E94F3250BC0243231F0622F772767FD34
:100D30007095E626F7260F5F1F4FDDCF40E150E0AC
:100D4000B7018CE494E00F90DF91CF911F910F9148
:100D5000FF90EF900C94992610920B0160E08AE0CE
:100D60000C94B3230F931F93CF93DF93CDB7DEB7CC
:100D700068970FB6F894DEBF0FBECDBF80913303E6
:100D80001F928F93809134031F928F93809135032C
:100D90001F928F93809139038F93809138038F93A3
:100DA000809136031F928F93809137031F928F9308
:100DB0008AE291E09F938F938E010F5F1F4F1F93E5
:100DC0000F930E94862BB8018CE494E00E94F325D7
:100DD0000FB6F894DEBF0FBECDBF68960FB6F8947D
:100DE000DEBF0FBECDBFDF91CF911F910F91089550
:100DF0000F931F9380911603882309F470C080918C
:100E000018039091190320911A0330911B0389371D
:100E1000910558F0233E44E0340760F041E04093F0
:100E20002D034FEF4093160305C08837910511F04D
:100E300010922D03213040E1340750F0A4E03695A4
:100E40002795AA95E1F7315F30931B0320931A038E
:100E500020911A0330911B032115304230F02FEFFF
:100E60003FE130931B0320931A038038910560F013
:100E7000F4E096958795FA95E1F7825A9F4F909303
:100E80001903809318030DC08B35910550F063E072
:100E900070E00E94B72A645C7F4F709319036093DF
:100EA000180380911803909119038F37910530F042
:100EB0008FE790E0909319038093180360913802B4
:100EC0007091390280913A0290913B022AE530E01C
:100ED00040E050E00E94DF2A422F437005C040915D
:100EE0001F03443008F043E08091180390911903E8
:100EF000A0E0B0E01CE0880F991FAA1FBB1F1A9545
:100F0000D1F700911A0310911B0320E030E053E168
:100F1000000F111F221F331F5A95D1F7802B912BE1
:100F2000A22BB32B00911C030F7710E020E030E0E0
:100F300063E0000F111F221F331F6A95D1F7802B2A
:100F4000912BA22BB32B50E060E070E0EAE0440F5D
:100F5000551F661F771FEA95D1F7842B952BA62B7B
:100F6000B72B20911703293018F028E0209317039E
:100F700020911703269526952370822B80930B03CF
:100F800090930C03A0930D03B0930E031F910F9148
:100F90000895CF92DF92EF92FF92C0900B03D09012
:100FA0000C03E0900D03F0900E030E94B20689EA54
:100FB00090E00E947B014AE050E0609121038CE4C4
:100FC00094E00E94BE2683EA90E00E947B0140915B
:100FD000030350910403609105037091060327E019
:100FE00030E08CE494E00E94F5278CE990E00E94C8
:100FF0007B014091070350910803609109037091B0
:101000000A0327E030E08CE494E00E94F52785E9AC
:1010100090E00E947B01C701B601B3E196958795E8
:1010200077956795BA95D1F74AE050E08CE494E063
:101030000E94DC268EE890E00E947B01D701C60169
:101040002AE0B695A795979587952A95D1F7BC0183
:10105000637077274AE050E08CE494E00E94DC263D
:1010600087E890E00E947B01D701C6013CE0B6957D
:10107000A795979587953A95D1F7BC016F77772714
:101080004AE050E08CE494E00E94DC2680E890E0A6
:101090000E947B01D701C60143E0B695A7959795BD
:1010A00087954A95D1F7BC016F7777274AE050E0E2
:1010B0008CE494E00E94DC2688E790E00E947B01AB
:1010C000B601677077274AE050E08CE494E0FF9027
:1010D000EF90DF90CF900C94E226CF92DF92EF92C8
:1010E000FF928FE690E00E947B010E948F226B01AD
:1010F0007C010E948F226C197D0960377741F8F4DA
:101100008AED92E00E947F0F039791F48AED92E0BE
:101110000E945B10AB01BC0120E130E08CE494E064
:101120000E94F8268AED92E00E94130F81E00CC025
:1011300068EC70E080E090E00E94BC22DACF88E6A4
:1011400090E00E947B0180E0FF90EF90DF90CF90D5
:101150000895CF92DF92EF92FF92CF93DF93C82F43
:10116000D62F5F9A0E94F80680912E03882379F08B
:101170006FE073E081E193E00E94100280910F0321
:1011800090911003893E934010F010922D03CC23D0
:1011900009F440C0C43049F580911A0390911B03B3
:1011A000892B09F5409111035091120360911303AB
:1011B0007091140340930303509304036093050359
:1011C0007093060360910F037091100380E090E02C
:1011D0000E944129609307037093080380930903D9
:1011E00090930A0302C00E949D0440910B0350910A
:1011F0000C0360910D0370910E03487F8C2F877054
:10120000482B40930B0350930C0360930D03709392
:101210000E0302C00E94A9030E94C9070E948F22E8
:101220006B017C01CC2361F080912C03882341F079
:101230005F98DF91CF91FF90EF90DF90CF9008956E
:1012400080912D038111F4CF809116038F3F81F39C
:101250002D2F4CE063E073E08AED92E00E94330FA3
:101260000E943D050E948F226C197D09683E7340E3
:10127000F8F664E670E080E090E00E94BC22F2CFD5
:1012800060E08AE00E94B32382E391E00E947B0148
:101290000E94310560E087E00E94A90860E089E0D3
:1012A0000E94B32364EF71E080E090E00C94BC22D4
:1012B00048E065E08AED92E00E94EC0E88E092E062
:1012C0000E943C136DE18DEE91E00C94781A8AED4A
:1012D00092E00C94FC0ECF92DF92EF92FF9261E0CD
:1012E0008AE00E94B3230E948F226B017C010E943E
:1012F0008F226C197D096037774130F58CE494E0DA
:101300000E94E9231816190634F48CE494E00E9434
:1013100002248A9739F064E670E080E090E00E9451
:10132000BC22E5CF85ED90E00E946F0686EC90E050
:101330000E946F068AEB90E00E946F068EEA90E0B2
:101340000E946F0681E005C060E08AE00E94B3233E
:1013500080E0FF90EF90DF90CF900895CF93809141
:101360002F03882309F4F3C08DEE91E00E949A1BAD
:101370008111EDC08DEE91E00E94831A9091CF0112
:10138000891B992787FD909597FF03C091958195BB
:101390009109833010F0C1E024C08DEE91E00E94ED
:1013A000861A9091CE01891B992787FD909597FF0A
:1013B00003C0919581959109833068F78DEE91E096
:1013C0000E94891A9091CD01891B992787FD9095DC
:1013D00097FF03C0919581959109C1E0833008F48E
:1013E000C0E08DEE91E00E94831A8093CF018DEED4
:1013F00091E00E94861A8093CE018DEE91E00E94CA
:10140000891A8093CD01CC2309F4A3C09091CF0118
:1014100029E0290F2331B8F49091CE0129E0290F5A
:10142000233128F4893244F5883D44F106C0983DC3
:1014300024F4875F833120F11BC09932CCF0875FA1
:10144000833100F115C099324CF09091CE01975F35
:10145000933170F4875F8331B8F00AC0983D44F44B
:101460009091CE01975F933118F4875F833170F0CC
:101470001092CC01C6E00BC0C0E009C0C1E007C0BB
:10148000C2E005C0C3E003C0C4E001C0C5E0809174
:10149000CC0181110CC080911F03811121C0C23089
:1014A000F9F481E08093CC010E94C6011BC0813019
:1014B00039F480911F03823099F4C33089F40BC052
:1014C000823071F480911F03833051F4C23019F0DF
:1014D000C11106C084E08093CC010E94C60102C005
:1014E0001092CC01C0931F038091CC01833079F41A
:1014F0000E94310584E190E00E94AC0118B817B851
:101500001BB81AB815B882E084B91092CC0180914A
:10151000CC018430E1F480912103909127038A3536
:1015200010F0992391F081E0891B8093270310929A
:101530002803882331F080910B01811102C00E94A1
:101540006B0988E090E00E94AC011092CC0181E030
:1015500001C080E0CF910895BF92CF92DF92EF92C9
:10156000FF920F931F93CF93DF938C010E94C602CB
:1015700081110E94400980912703882379F080918E
:101580001C03893108F43FC18091280391E0980F32
:1015900090932803803308F036C102C00E94AC0645
:1015A0000430110501F5809120038823E1F057985C
:1015B000909134038AE0890F809334038C3340F098
:1015C000809135038F5F809335039253909334035A
:1015D00080913503883138F01092350380913603BD
:1015E0008F5F8093360360E0802F0E94A908579A8E
:1015F0000E94AE090115110571F4809118039091B4
:101600001903069740F080911503811104C084E00E
:1016100080930A0108C010920A010430110519F4E0
:101620008091200381111092D001B09027030430E3
:10163000110509F059C080912003811155C02091F6
:10164000D001CAE9D1E0022E02C0CC0FDD1F0A94FE
:10165000E2F7211106C080913403865F8093340342
:101660000CC081E090E0022E01C0880F0A94EAF7D6
:1016700090913503980F90933503909134039C33E8
:1016800040F0809135038F5F809335039C53909396
:10169000340380913503883138F0109235038091FE
:1016A00036038F5F8093360380913603803238F0A3
:1016B00010923603809137038F5F809337038091B8
:1016C00037038D3058F01092370380913803909192
:1016D000390301969093390380933803233050F4F3
:1016E0002F5F2093D00106C080912B03CBE4D0E084
:1016F000C81BD1091092290310922A030430110546
:1017000031F080910A01811102C0BB2021F0F9E083
:10171000EF2EF12C03C0E8E0EE2EF12C8CE494E0E7
:101720000E943724C12CD12CCC16DD0608F05EC0F7
:1017300020E030E040E050E0B7018EE393E00E940B
:101740008B0E80912903811104C080912703882387
:1017500039F05E9A80912903882311F0C0E0D0E02F
:101760005F9A80910B01882361F00E94C6028091EC
:101770001C03823630F480912703811102C00E943D
:10178000AC060E94AE09882351F180910B01882399
:1017900019F00E94C60106C062E370E080E090E0AC
:1017A0000E94BC2280910A018F5F80930A0188E029
:1017B000E816F10411F4D694C7940430110551F0E1
:1017C0008091270369E0E62EF12CB81641F0C0E0C5
:1017D000D0E005C059E0E52EF12CC0E0D0E08FEF5D
:1017E000C81AD80A8BB18F738BB99ECF80910A012A
:1017F000833064F480912703811108C0809129030C
:10180000811104C04FC010922703CACE81E080939B
:101810000A0180910A01181664F48091270381114E
:1018200008C010923103109230030E946B0980931C
:101830000B010E948F2260932303709324038093F3
:10184000250390932603109217031092150310920C
:10185000160310922B031092190310921803109282
:101860001B0310921A0310920703109208031092A0
:10187000090310920A0310920303109204031092BA
:1018800005031092060380910A01992787FD909520
:10189000DF91CF911F910F91FF90EF90DF90CF904C
:1018A000BF9008950430110539F4CC15DD0520F4FE
:1018B0008FEF80930A01ADCF10920A01AACF8F92C9
:1018C0009F92AF92BF92CF92DF92EF92FF920F93CF
:1018D0001F93CF93DF930E948F226B017C0100ED59
:1018E00017E0C0E0D0E00E948F226C197D096017DC
:1018F000710710F58CE494E00E94E923181619068C
:10190000A4F40E948F226B017C015F9A04E610E030
:10191000C1E00BC08CE494E00E940224682F88E0B0
:1019200092E00E94C8178111D1E08CE494E00E94FB
:10193000E923892B79F7D7CFC11102C00E946B0927
:10194000AAE38A2EA3E09A2EB2E3AB2EB3E0BB2E1D
:1019500013E3C12E13E0D12E04E3E02E03E0F02EBA
:1019600005E313E026E333E047E353E068E373E085
:1019700088E092E00E944919DD23E1F1940147E0FB
:1019800053E063E073E088E092E00E94DC1880910D
:101990004802909149028F3F910509F480E08093BD
:1019A000170388E092E00E94191A0E945A2A0E94A6
:1019B00010299B0177FF04C022273327261B370BF2
:1019C00030931B0320931A0388E092E00E944F1A81
:1019D0000E945A2A0E9415297093190360931803D4
:1019E0008091160390911703890F8093160310922C
:1019F000150305C0809115038F5F809315035F98D1
:101A00008C2FDF91CF911F910F91FF90EF90DF907E
:101A1000CF90BF90AF909F908F9008950E94F62234
:101A200064E670E080E090E00E94BC220E94A00189
:101A300026E040E855E260E070E08CE494E00E942B
:101A4000BE248CE494E00E94FC2581EA91E00E948F
:101A50007B018CE494E00E94FC250E946C050E94AE
:101A600089020E94C60286E991E00E947B014AE059
:101A700050E060911C038CE494E00E94BE2683E950
:101A800091E00E947B0160911D0370911E034AE06A
:101A900050E08CE494E00E94E22664E670E080E08E
:101AA00090E00E94BC220E946B0980930B01882366
:101AB00041F089E891E00E946F0681E090E00E9489
:101AC000AC010E94E80180932F03882371F064EF3A
:101AD00071E080E090E00E94BC220E94AE09882361
:101AE00021F082E090E00E94AC0183ED91E00E9441
:101AF0005C2180932E03882399F064EF71E080E0ED
:101B000090E00E94BC226FE073E081E193E00E94CC
:101B100010020E94650283E090E00E94AC0116C0B2
:101B200080E090E0A0EAB1E4809311039093120367
:101B3000A0931303B093140386E094E090931003F2
:101B400080930F038DE791E00E947B010E946D0856
:101B5000882359F064EF71E080E090E00E94BC229D
:101B600084E090E00E94AC0115C05E9A8CE494E0A1
:101B70000E94372464EF71E080E090E00E94BC2274
:101B800060E089E00E94B32368EE73E080E090E0BB
:101B90000E94BC220E94CF0582E791E00E947B0157
:101BA0000E9464014AE050E0BC018CE494E00E9491
:101BB000992683E00E948C010E948F226093230368
:101BC000709324038093250390932603C1E00E9421
:101BD0008F222091230330912403621B730B603A00
:101BE0007F40C8F05E9A64E670E080E090E00E947A
:101BF000BC220E94AE095E9880912B038F5F809378
:101C00002B030E948F2260932303709324038093FD
:101C100025039093260380910A01813071F40E947C
:101C20005F0C882351F020E030E040E050E065E0B8
:101C300070E08EE393E00E948B0E20911603203417
:101C400040F080911803909119030B978634910509
:101C500010F427FF0AC080911503811106C080E0AF
:101C600090E00E94AC0A80930A0180912B038F318F
:101C700020F480911503893730F085E090E00E94D0
:101C8000AC0A80930A0180912903882321F0809176
:101C90002A038823F9F080910A0181110FC08CE298
:101CA00090E00E9462018093200381110E9436041B
:101CB00084E090E00E94AC0A80930A0180910A01BE
:101CC0008F3F09F084CF86E090E00E94AC0A8093B9
:101CD0000A017DCF10922903109219031092180364
:101CE00010921B0310921A0310920703109208031C
:101CF0001092090310920A03109203031092040336
:101D0000109205031092060360E083E00E94A90888
:101D1000C0932A03C0CF4115510529F4EAE7F0E04A
:101D200080818F7780836A307105B1F063FF02C0D4
:101D300088E201C088E06770682B88E190E00FB608
:101D4000F894A895809360000FBE60936000E0E671
:101D5000F0E0808180648083232BA1F483B7817FAE
:101D6000846083BFF89483B7816083BF85B7806642
:101D700085BF8F7D85BF7894889583B78E7F83BF1D
:101D800078940EC083B7817F846083BFF89483B753
:101D9000816083BF7894889583B78E7F83BF789462
:101DA000452B29F4EAE7F0E080818068808308957C
:101DB0001F920F920FB60F9211248F9388E10FB6E6
:101DC000F89480936000109260000FBE8F910F9086
:101DD0000FBE0F901F901895CF93DF93EC0120E07A
:101DE0000E947E124FEF5FEFBA014F8F58A369A395
:101DF0007AA3DF91CF9108950C9425120F931F932E
:101E0000CF93DF938C01FB016491EF012196662350
:101E100029F0C8010E94F525FE01F6CFDF91CF9190
:101E20001F910F910895CF93DF93EC0165EE71E060
:101E30000E94FE0ECE010E94FC2562E370E080E06D
:101E400090E00E94BC2260EE71E0CE010E94FE0E86
:101E5000CE010E94FC2562E370E080E090E0DF911B
:101E6000CF910C94BC22BF92CF92DF92EF92FF925F
:101E70000F931F93CF93DF938C01F62EE72EC42E82
:101E8000D22E63EF71E00E94FE0EBF2CCF2DDE2D0F
:101E90008C2F8B198C15B8F47E01688162956F7058
:101EA00060636A3308F0695DC8010E94E9102196F9
:101EB000F70160816F7060636A3308F0695DC80183
:101EC0000E94E910E5CFDD2029F06EEE71E0C80137
:101ED0000E94FE0EC8010E94FC250E948F22F8017C
:101EE000678F70A381A392A381E0DF91CF911F91AF
:101EF0000F91FF90EF90DF90CF90BF9008956F9279
:101F00007F928F929F92AF92BF92CF92DF92EF9289
:101F1000FF920F931F93CF93DF9300D000D01F92B7
:101F2000CDB7DEB77C0140E855E260E070E00E948A
:101F3000AE1260E0C7010E94E9106BE3C7010E9486
:101F4000E91019821A821B821C821D820E948F2234
:101F50004B015C01CE0101966C0100E010E03C01F8
:101F60000E948F22681979098A099B0962337105D9
:101F700081059105A8F4C7010E945411181619068D
:101F80007CF7C7010E94C8100430110519F48FEFC7
:101F90009FEF0EC0F60181936F010F5F1F4FE0CFDF
:101FA00069E471E0C3010E94662B892B81F7C801A7
:101FB0000F900F900F900F900F90DF91CF911F9186
:101FC0000F91FF90EF90DF90CF90BF90AF909F90D8
:101FD0008F907F906F9008950F931F93CF93DF930F
:101FE000EC01CE010E945411892B89F40E948F22AA
:101FF0000F8D18A129A13AA1601B710B820B930BC5
:10200000613D77408105910560F35F98EACFCE018D
:102010000E94C810182FCE010E94C810CB97D9F784
:10202000812FDF91CF911F910F910895CF92DF9271
:10203000EF92FF920F931F93CF93DF93EC01E62E65
:10204000D72EF42E0E948F226F8F78A389A39AA394
:1020500060E0CE010E94E9106AEE71E0CE010E94BC
:10206000FE0E6F2DCE010E94E910CE2C0E2D1D2DDF
:10207000802F8C198F1538F4F80161918F01CE01F2
:102080000E94E910F5CF6BE3CE010E94E910CE016A
:102090000E94EC0F8F3429F4CE010E94EC0F81E0F6
:1020A00001C080E0DF91CF911F910F91FF90EF90E1
:1020B000DF90CF900895BF92CF92DF92EF92FF9280
:1020C0000F931F93CF93DF93CDB7DEB728970FB64B
:1020D000F894DEBF0FBECDBF8C0160E00E94E91016
:1020E0006AED71E0C8010E94FE0ECE0101967C01EE
:1020F00088E0F70111928A95E9F7C8010E9454110E
:10210000892BD9F3B12CC8010E943C11CB2CD12CC6
:10211000CB9719F4F5E0FB1570F0C8010E94C810C8
:10212000F701EC0DFD1D8083C8010E945411892B1D
:10213000D9F3B394E8CFC8010E94C81040E060E032
:1021400070E0CB0122E0C21AD108242F30E02C1518
:102150003D0574F4982F872F762F6627F701E20F3D
:10216000F31F2081620F711D811D911D4F5FEDCF07
:1021700028960FB6F894DEBF0FBECDBFDF91CF918A
:102180001F910F91FF90EF90DF90CF90BF90089537
:10219000209181033091820328173907B9F4909177
:1021A0003F0380914003981789F0E0913F03F0E0EE
:1021B000EF5BFC4F808120913F0330E02F5F3F4F6A
:1021C0002F73332720933F0390E008958FEF9FEF05
:1021D00008951F93CF93DF93DC015C968D919C91C2
:1021E0005D97009749F481E090E013969C938E935D
:1021F000129780E090E03BC05196ED91FC91529790
:1022000050962C915097322F30951FB75E964C9177
:102210005E9741FB772770F941FD6095F894408106
:10222000772311F0422B01C043234083EC01219717
:10223000F1F748E0508160FF02C0522B01C05323E8
:102240005083EC012197F1F76695415099F7808111
:10225000772311F0832301C0822B80831FBF5C96FC
:102260008D919C915D970197F1F781E090E0DF916E
:10227000CF911F9108950895209181033091820399
:102280002817390771F490913F0380914003981704
:1022900041F0E0913F03F0E0EF5BFC4F808190E084
:1022A00008958FEF9FEF089520918103309182036D
:1022B0002817390771F48091400320913F0390E083
:1022C000805C9F4F821B910960E470E00E94CB2AE2
:1022D000089580E090E00895E0918103F0918203F9
:1022E000E817F90769F4A389B4899C9185898095D9
:1022F00089238C93109282031092810381E00895C8
:1023000080E00895CF93DF93EC018A8D9B8D892B1C
:10231000F1F080918103909182038C179D07B9F0B1
:10232000009711F00E946C118E8D8E7F8E8F10920F
:10233000400310923F03D0938203C0938103EB8943
:10234000FC8980819D89892B808381E001C080E0A8
:10235000DF91CF9108951F920F920FB60F92112423
:102360002F933F934F935F936F937F938F939F939D
:10237000AF93BF93EF93FF93E0918103F0918203BA
:10238000309709F451C0868DA685B785958581FF64
:1023900004C08C91892329F447C08C91892309F0CA
:1023A00043C0A389B4899C918589809589238C93A6
:1023B000868997890197F1F7208D318DA685B7859C
:1023C000758558E040E0C9010197F1F7842F90E04E
:1023D00095958795482F6C91672309F04068515077
:1023E00091F7868D81FD40958091400390E00196A4
:1023F0008F73992720913F03281749F0A09140033C
:10240000B0E0AF5BBC4F4C938093400303C0868D1C
:102410008160868F828D938D0197F1F7A389B489AE
:102420008C919589892B8C93FF91EF91BF91AF91FE
:102430009F918F917F916F915F914F913F912F91DC
:102440000F900FBE0F901F9018952CE531E0FC0106
:10245000318320830C946C111F93CF93DF93EC0195
:10246000162F6E8D6695617081E06827812F0E941E
:10247000B32361E0812F0E947A23812F90E0FC0139
:10248000E25FFD4FE491E88BFC01EE5DFD4FE491CE
:10249000F0E0EE0FFF1FE05CFD4F859194919A8B69
:1024A000898BDF91CF911F9108951F93CF93DF9375
:1024B000EC01162F60E0812F0E947A238E8D81FD22
:1024C00004C061E0812F0E94B3231C87812F90E01C
:1024D000FC01E25FFD4FE491ED87FC01EE5DFD4FF5
:1024E000E491F0E0EE0FFF1FEA5CFD4F85919491BF
:1024F0009F878E87DF91CF911F910895FF920F9351
:102500001F93CF93DF93EC01F62E522F1B821A827A
:1025100008EE13E020E030E00C831D832E833F8320
:102520008CE591E0998388831F8A1E8A198E188E04
:102530001B8E1A8E1D8E1C8E8E8D8E7F50FB81F908
:102540008E8F642FCE010E942C126F2DCE01DF9151
:10255000CF911F910F91FF900C945512CF93DF9361
:10256000EC019A01AB011B8E1A8E198E188E1F8AF0
:102570001E8A60EC76EC8DE290E00E94012BC9018E
:102580002430310520F0B9016350710902C061E0C7
:1025900070E07D8F6C8FEC85E63108F068C0B90182
:1025A000769567956431710518F06351710902C021
:1025B00061E070E07F8B6E8B069718F0C90105977C
:1025C00002C081E090E0998F888FC901880F991F20
:1025D000820F931F96958795969587958D309105D7
:1025E00010F00C9702C081E090E09B8F8A8F2091C1
:1025F0006800E83050F091E0EE3008F490E081E0BF
:1026000001C0880F9A95EAF701C084E0822B80937D
:1026100068002C85283038F02E3040F0263148F400
:102620008CE690E008C08DE690E005C08BE690E077
:1026300002C080E090E09C8B8B8B283030F481E0EE
:1026400001C0880F2A95EAF70DC0822F90E02E3046
:1026500010F4089701C00E9791E001C0990F8A9578
:10266000EAF7892F8D8B8C8D9D8D0197F1F7CE0127
:10267000DF91CF910C9482110F931F93FC010FEF08
:102680001FEF980100831183228333831086118604
:10269000128613864FEF59EC6AE97BE3408B518B2E
:1026A000628B738B408F518F628F738F40A351A3C6
:1026B00062A373A340A751A762A773A740AB51AB16
:1026C00062AB73AB00AF11AF22AF33AFDC01A05CE4
:1026D000BF4F8FEF90E011969C938E9314960D93BD
:1026E0001D932D933C93139718960D931D932D9343
:1026F0003C93139718961C9211961C92509686E064
:102700008C9311961C9211961C9211961C92EA5A67
:10271000FF4F10821F910F9108952FEB260F862FE8
:10272000992787FD9095263010F4C7970895615634
:10273000663018F4875591090895C09708950F934E
:102740001F93FB0160E070E0CB01019120ED200FB1
:102750002A30A0F4AAE0B0E09B01AC010E94202B3B
:10276000112707FD1095212F312F600F711F821F38
:10277000931F6053710981099109E7CF1F910F9150
:1027800008950F931F93CF93FC01EA5AFF4FC1E0C6
:1027900020812D3219F0C0E08F0103C08C01095A4D
:1027A0001F4FB8010E949F139B01AC01A4E6B0E04B
:1027B0000E94202BF801DF01219130ED320F3A30D9
:1027C000D0F32E3269F511962C91119730ED320F1E
:1027D0003A3030F5332727FD3095205331094AE050
:1027E000429F8001439F100D1124222717FD209541
:1027F000322F600F711F821F931F12960C9120EDD4
:10280000200F2A3068F4112707FD10950053110995
:10281000222717FD2095322F600F711F821F931FF3
:10282000CC2339F090958095709561957F4F8F4FAF
:102830009F4FCF911F910F9108954F925F926F928A
:102840007F928F929F92AF92BF92CF92DF92EF9240
:10285000FF92CF93DF93EC01CA5ADF4FBE010E9473
:102860009F132B013C0124E630E040E050E00E9441
:10287000DF2A9B01AC0160EA76E881E090E00E94EB
:10288000A72A6B017C01FE01819190ED980F9A308F
:10289000D8F38E3219F5EF0180E1882E87E2982E69
:1028A000A12CB12CA99180ED8A0F8A30B8F4BB27F6
:1028B000A7FDB095D097A50194010E942B2BC60EC1
:1028C000D71EE81EF91EC501B4012AE030E040E041
:1028D00050E00E94DF2A49015A01E4CFC701B60146
:1028E0006D5F7F4F8F4F9F4F26E030E040E050E01C
:1028F0000E94DF2A69017A01C301B20124E630E0B7
:1029000040E050E00E94DF2A60E472E48FE090E053
:102910000E94A72AC60ED71EE81EF91EC701B601DF
:10292000DF91CF91FF90EF90DF90CF90BF90AF906D
:102930009F908F907F906F905F904F900895DB01F4
:10294000FA018D91882319F091918917D1F3992774
:1029500087FD90950895CF92DF92EF92FF920F93AB
:102960001F93CF93DF93EC01FC01EB5AFF4F1081D3
:10297000112309F4B1C0319660810E948D13182F84
:10298000FE01E95AFF4F6081CE010E948D1350E194
:10299000159F800D1124FE01EC5AFF4F908189177D
:1029A00011F010E0EBC2FE01EB59FF4F2081213006
:1029B00081F48C819D81AE81BF8188839983AA83B4
:1029C000BB838C859D85AE85BF8588879987AA87BF
:1029D000BB87FE01E859FF4F1081112311F3B09717
:1029E00080819181A281B381349780839183A28376
:1029F000B3833C9680819181A281B3813497808397
:102A00009183A283B3832223A1F1213009F0B6C2BE
:102A10008C819D81AE81BF8188839983AA83BB838A
:102A20008C859D85AE85BF8588879987AA87BB875A
:102A30008C899D89AE89BF89888B998BAA8BBB8B2A
:102A40008C8D9D8DAE8DBF8D888F998FAA8FBB8FFA
:102A50008CA59DA5AEA5BFA588A799A7AAA7BBA72A
:102A60008CA99DA9AEA9BFA988AB99ABAAABBBABFA
:102A700085C28CA19DA1AEA1BFA188A399A3AAA341
:102A8000BBA38C819D81AE81BF8188839983AA83FA
:102A9000BB838C899D89AE89BF89888B998BAA8BD2
:102AA000BB8B8C8D9D8DAE8DBF8D888F998FAA8F9E
:102AB000BB8FFE01E05CFF4FDE01AE5BBF4F8D912F
:102AC0009C91918380838CAD9DADAEADBFAD88AF41
:102AD00099AFAAAFBBAF52C2FC01EA59FF4FE080E9
:102AE0008B599F4F6C01E11017C07E0196E5E90EEE
:102AF000F11C48E651E0B701CE010E949F14892BDA
:102B000009F4FBC14EE651E0B701CE010E949F14CB
:102B1000892B09F4F2C1F3C1FC010081063009F4EC
:102B200040CFCE018A5A9F4FFC014081442309F4D3
:102B300038CFF0E20F9F90011124F12C2E293F296C
:102B40002434310509F4FEC008F067C02232310593
:102B500009F4CEC078F52530310509F4FBC098F4AE
:102B60002230310509F4CBC028F42130310509F4B5
:102B7000B3C004C22330310509F4D1C0243031057B
:102B800009F4E0C0FBC12830310509F41DC148F447
:102B90002630310509F40AC12730310509F40EC188
:102BA000EDC12930310509F417C12132310509F48D
:102BB00093C0E4C12732310509F4E8C078F4243227
:102BC000310509F4ACC008F49AC02532310509F486
:102BD000B9C02632310509F4BDC0D0C12134310558
:102BE00009F47AC088F42832310509F4D7C02932B3
:102BF000310509F0C3C1BC01CE010E949F136C874F
:102C00007D878E879F87BAC12234310509F477C04A
:102C10002334310509F483C0B1C12039310509F4E9
:102C200018C158F52438310509F413C178F4263455
:102C3000310509F4A2C008F48DC02734310509F428
:102C4000BDC02238310509F4CFC098C12B383105F9
:102C500009F406C148F42738310509F401C12838C0
:102C6000310509F4F6C08AC12C38310509F4F1C0E8
:102C70002F38310509F4F4C081C1283A310509F42F
:102C8000E8C098F4223A310509F4AEC028F423399B
:102C9000310509F4E5C072C1243A310509F4D9C0FF
:102CA000273A310509F4DCC069C12F3A310509F42E
:102CB000D7C048F42B3A310509F4D2C02C3A31057B
:102CC00009F4C7C05BC1203B310509F4C2C0233BF6
:102CD000310509F4C5C052C1CE010E94C1136C83F5
:102CE0007D838E839F830E948F22C85BDF4F12C03B
:102CF000C859DF4F81E0413409F05EC0A8C0CE0161
:102D00000E941D146C8B7D8B8E8B9F8B0E948F225B
:102D1000C05BDF4F688379838A839B832FC14335F0
:102D200009F03FCE8C899D89AE89BF89B095A09569
:102D3000909581959F4FAF4FBF4F8C8B9D8BAE8BE6
:102D4000BF8B1CC1CE010E941D146C8F7D8F8E8F96
:102D50009F8F14C1473509F024CE8C8D9D8DAE8D8B
:102D6000BF8DB095A095909581959F4FAF4FBF4F68
:102D70008C8F9D8FAE8FBF8F01C145E050E0BC01AD
:102D8000CE0187599F4F0E946F2BF8C0CE010E9441
:102D9000C1136CA77DA78EA79FA7F0C0CE010E948C
:102DA000C1136CAB7DAB8EAB9FABE8C0C859DF4F96
:102DB00081E041330CF04BC080E049C00E94482BB9
:102DC000CE5BDF4F992749C0CE010E94C1136CAF83
:102DD0007DAF8EAF9FAFD2C0CE010E94C1136CA356
:102DE0007DA38EA39FA3CAC00E94482B815069F087
:102DF000CF52DF4F982F990F990F9883053009F024
:102E0000D0CD880F880F845F22C020E030E00430EE
:102E100079F4FE01E20FF31FE159FF4F1082118296
:102E2000128213822C5F3F4F2033310591F7E0CFA0
:102E3000FE01E20FF31FE156FF4F10821182128252
:102E400013822C5F3F4F2033310591F7D1CF888318
:102E500095C00E94482BC153DF4F998388838EC051
:102E60000E94482BFE01EF52FF4F81111AC02081B2
:102E700030E0C701079797FD03969595879595953F
:102E80008795820F931F880F991F880F991F8C0FAA
:102E90009D1FFC01E159FF4F1082118212821382A3
:102EA0006DC0408150E097012750310937FF02C0C3
:102EB0002D5F3F4F3595279535952795240F351F65
:102EC000220F331F220F331F2C0F3D1FF901E15931
:102ED000FF4FAC015527440F551FC153DF4F80E012
:102EE00090E09881482B592B662757FD6095762FE7
:102EF000408351836283738341C081E026C04CE8E4
:102F000051E0B701CE010E949F14892B19F4F601FC
:102F1000108234C044E751E0B701CE010E949F14F3
:102F2000892B11F482E011C04AE751E0B701CE01CC
:102F30000E949F14892B41F040E851E0B701CE0177
:102F40000E949F14892B21F483E0F601808316C030
:102F500042E951E0B701CE010E949F14892B11F480
:102F600084E0F3CF46E851E0B701CE010E949F1400
:102F7000892B11F485E0E9CF86E0E7CF812FDF913F
:102F8000CF911F910F91FF90EF90DF90CF90089518
:102F9000CF92DF92EF92FF920F931F93CF93DF9325
:102FA0001F92CDB7DEB76C018C0109591F4F8B5AA8
:102FB0009F4F7C01643281F12CF46A3069F06D30EE
:102FC000E9F50AC06A3241F06C32C1F5F601EC5AFB
:102FD000FF4F808186278083F80180818F3060F4E5
:102FE000F601E80FF11DEA5AFF4F1082C60169830E
:102FF0000E94AB14698101C080E0F601EA59FF4FDD
:1030000090819F5F9083F801108291E06A3209F00D
:1030100090E0F70190832AC0F8011082F601EA5986
:10302000FF4F108272971082719686E08083F701BD
:103030001082F601E859FF4F108217C0F801808115
:103040008E3048F491E0980F9083F601E80FF11D5F
:10305000EA5AFF4F6083F7018081811106C0F601B3
:10306000EC5AFF4F80818627808380E00F90DF91AC
:10307000CF911F910F91FF90EF90DF90CF90089527
:10308000CF92DF92EF92FF920F931F93CF93DF9334
:10309000E9016115710551F0FC01C088D188E28811
:1030A000F388FB01C082D182E282F382411551058F
:1030B00051F0FC01C08CD18CE28CF38CFA01C082FF
:1030C000D182E282F382209701F18C01045B1F4FD1
:1030D000F80180819181A281B3818F3F9F4FAF4FD3
:1030E000BF4F61F00E948F22F8010081118122817F
:1030F0003381601B710B820B930B03C06FEF7FEF6B
:10310000CB01688379838A839B83DF91CF911F9161
:103110000F91FF90EF90DF90CF900895CF92DF92C4
:10312000EF92FF920F931F93CF93DF93E901611505
:10313000710551F0FC01C084D184E284F384FB0169
:10314000C082D182E282F3824115510551F0FC0127
:10315000C080D180E280F380FA01C082D182E28215
:10316000F382209701F18C010C5B1F4FF8018081E5
:103170009181A281B3818F3F9F4FAF4FBF4F61F0CD
:103180000E948F22F8010081118122813381601B0E
:10319000710B820B930B03C06FEF7FEFCB01688342
:1031A00079838A839B83DF91CF911F910F91FF9049
:1031B000EF90DF90CF900895AF92BF92CF92DF92C1
:1031C000EF92FF920F931F93CF93DF93CDB7DEB7AC
:1031D00028970FB6F894DEBF0FBECDBF5B018A0102
:1031E000AE014F5F5F4FBE016B5F7F4F0E94401883
:1031F000CD80DE80EF80F8848FEFC81689ECD8068A
:103200008AE9E8068BE3F80659F0C701B6010E9487
:10321000432920E034E244E759E40E94A82804C08E
:1032200060E070E08AE794E4F50160837183828353
:103230009383FFEFCF16F9ECDF06FAE9EF06FBE325
:10324000FF0669F069817A818B819C810E94432904
:1032500020E034E244E759E40E94A82804C060E07A
:1032600070E08AE794E4F80160837183828393833A
:1032700028960FB6F894DEBF0FBECDBFDF91CF9179
:103280001F910F91FF90EF90DF90CF90BF90AF9084
:1032900008952F923F924F925F926F927F928F92FA
:1032A0009F92AF92BF92CF92DF92EF92FF920F93D5
:1032B0001F93CF93DF93CDB7DEB72A970FB6F8945D
:1032C000DEBF0FBECDBF2B015A874987190194017C
:1032D000AE014F5F5F4FBE016B5F7F4F0E948E1844
:1032E00041145104B9F06D817E818F81988524E667
:1032F00030E040E050E00E94DF2A613571051CF0AB
:103300002CE637E002C020ED37E0620F731FF201B8
:103310007183608389859A85892BB1F06D817E8167
:103320008F81988534E6432E512C612C712CA3019A
:1033300092010E94DF2ACA01B901A30192010E94F1
:10334000DF2AE985FA8560832114310461F06D81FB
:103350007E818F81988520E137E240E050E00E9435
:10336000DF2AF10120830115110561F069817A815D
:103370008B819C8120E432E44FE050E00E94DF2A00
:10338000F8012083E114F104A1F069817A818B8135
:103390009C8120E137E240E050E00E94DF2ACA0130
:1033A000B90124E630E040E050E00E94DF2AF70156
:1033B0006083C114D104A9F069817A818B819C81D9
:1033C00024E6422E512C612C712CA30192010E9403
:1033D000DF2ACA01B901A30192010E94DF2AF60186
:1033E0006083A114B10461F069817A818B819C8131
:1033F00024E630E040E050E00E94DF2AF5016083DF
:103400002A960FB6F894DEBF0FBECDBFDF91CF91E5
:103410001F910F91FF90EF90DF90CF90BF90AF90F2
:103420009F908F907F906F905F904F903F902F90E4
:103430000895FC0160A171A182A193A16F3FF9ECF5
:103440007F07FAE98F07FBE39F0749F00E944329B2
:1034500020E030E048EC52E40E94A828089560E0A3
:1034600074E284E799E40895FC0160A571A582A542
:1034700093A56F3FF9EC7F07FAE98F07FBE39F07FE
:1034800049F00E94412920E030E048EC52E40E94DB
:10349000A828089560E070E080E89FEB0895CF923F
:1034A000DF92EF92FF920E94341A6B017C0120E0C0
:1034B00030E040E85FEB0E94A428882349F026E52D
:1034C0003EE04DEE5FE3C701B6010E94F72904C05C
:1034D00060E070E080E89FEBFF90EF90DF90CF908E
:1034E0000895DC01ED91FC910190F081E02D0994AB
:1034F000FC01608340EE5EE265E672E4478B508F2C
:10350000618F728F0895FC0183810895FC0184818D
:103510000895FC01858108951F93CF93DF93EC01FB
:10352000162F688183E893E00E94931C612F83E843
:1035300093E00E944A1C60E083E893E00E949F1C95
:1035400041E0688183E893E00E94131D83E893E0E3
:103550000E94F21B892B29F083E893E00E94FA1B5A
:1035600001C080E0DF91CF911F9108951F93CF9309
:10357000DF93EC01688183E893E00E94931C6AE288
:1035800083E893E00E944A1C83E893E00E94191D9F
:1035900041E0688183E893E00E94131D83E893E093
:1035A0000E94F21B892B31F083E893E00E94FA1B02
:1035B000182F01C010E0688183E893E00E94931CFB
:1035C0006AE283E893E00E944A1C612F70E06E7FFC
:1035D00083E893E00E94711A83E893E0DF91CF9132
:1035E0001F910C94191D1F93CF93DF93EC016881F9
:1035F00083E893E00E94931C6AE283E893E00E94D0
:103600004A1C83E893E00E94191D41E0688183E829
:1036100093E00E94131D83E893E00E94F21B892B24
:1036200031F083E893E00E94FA1B182F01C010E0EC
:10363000688183E893E00E94931C6BE270E083E86A
:1036400093E00E94711A69E070E083E893E00E94C1
:10365000711A83E893E00E94191D688183E893E062
:103660000E94931C6AE283E893E00E944A1C8A85C8
:10367000882319F060E070E002C062E070E011633E
:10368000612B83E893E00E94711A83E893E0DF9155
:10369000CF911F910C94191DCF93DF93EC016A8792
:1036A0004A836DE00E948C1A688183E893E00E944F
:1036B000931C6BE270E083E893E00E94711A60E46F
:1036C00070E083E893E00E94711A83E893E00E941F
:1036D000191D6AE070E080E090E00E94BC22CE01FB
:1036E0000E94B61A688183E893E00E94931C6EE002
:1036F00070E083E893E00E94711A8A81843029F097
:10370000883051F462E070E002C061E070E083E86C
:1037100093E00E94711A05C060E083E893E00E9484
:103720004A1C83E893E00E94191DCE01DF91CF91DE
:103730000C94F31A1F93CF93DF93EC01688183E815
:1037400093E00E94931C60E083E893E00E944A1C8F
:1037500060E083E893E00E949F1C182F8A858823ED
:1037600011F047E001C044E0688183E893E00E94E3
:10377000131D83E893E00E94F21B892B71F183E80B
:1037800093E00E94FA1B89838A858823B9F083E835
:1037900093E00E94FA1B83E893E00E94FA1B8B835C
:1037A00083E893E00E94FA1B83E893E00E94FA1BEF
:1037B0008C8383E893E00E94FA1B0AC083E893E0BD
:1037C0000E94FA1B8B8383E893E00E94FA1B8C8390
:1037D00083E893E00E94FA1B8D83812FDF91CF91C4
:1037E0001F9108958091B30390E02091B403821B50
:1037F000910908952091B4038091B303281750F4E0
:10380000E22FF0E0EB54FC4F808190E02F5F20939B
:10381000B40308958FEF9FEF0895E091B403809172
:10382000B303E81730F4F0E0EB54FC4F808190E0F4
:1038300008958FEF9FEF08950895CF92DF92EF9252
:10384000FF920F931F93CF93DF937C01CB018A01EB
:1038500020918F03222389F0EB016B01C40ED51E4A
:10386000CC15DD0569F06991D701ED91FC910190CE
:10387000F081E02DC7010995F3CF642F0E94DD1D73
:10388000C801DF91CF911F910F91FF90EF90DF90D2
:10389000CF900895CF93DF931F92CDB7DEB76983A2
:1038A00020918F032223D1F020919003203240F009
:1038B00021E030E0FC013383228380E090E015C0FA
:1038C00080919103E82FF0E0EE56FC4F99819083B0
:1038D0008F5F809391038093900305C061E0CE01D8
:1038E00001960E94DD1D81E090E00F90DF91CF9165
:1038F0000895FC011382128248EE53E060E070E00C
:1039000044835583668377838CE991E09183808338
:1039100008951092B4031092B30310929103109281
:1039200090030C94201D81E080938F036093B20379
:10393000109291031092900308950C94931C0F938E
:10394000062F21E04091900362E973E08091B20379
:103950000E94861D109291031092900310928F0383
:103960000F9108958F929F92AF92BF92CF92DF9264
:10397000EF92FF920F931F93CF93DF93EC01F62EFC
:10398000D42E48015901EE2019F10E94931C1E2DDE
:10399000143008F013E01150B8F0E881F98128E004
:1039A000129FB0011124A501940104C056954795BA
:1039B000379527956A95D2F7CA01B9010190F08130
:1039C000E02DCE010995E7CF60E0CE010E949F1C5B
:1039D0004D2D413208F040E22C2D65EB73E08F2D28
:1039E0000E943E1D1092B4038093B303DF91CF91E8
:1039F0001F910F91FF90EF90DF90CF90BF90AF900D
:103A00009F908F900895CF92EF920F931F93C22EA5
:103A1000E12C00E010E098010E94B21C1F910F9170
:103A2000EF90CF90089521E00C94031D21E00C94B9
:103A3000031D61E00C949F1C83E893E00C94791CB7
:103A40001092420481E08093400410923F0461E0B0
:103A500082E10E94B32361E083E10E94B323E9EB9A
:103A6000F0E080818E7F808380818D7F808384E3FE
:103A70008093B80085E48093BC000895413208F03B
:103A800043C0909142049111FCCF91E09093420485
:103A9000209340042FEF2093D50310921A04240F93
:103AA000209319049093410490914104880F892B2D
:103AB0008093410480913F04813061F410923F046F
:103AC000809141048093BB008091BC0083FDF8CFBE
:103AD00085EC01C085EE8093BC008091420481306A
:103AE000E1F380911A04841710F440911A042BE139
:103AF00034E0FB01D9018A2F821B841718F48D91C1
:103B00008193F9CF842F089580E008950F93413277
:103B100008F04AC0909142049111FCCF92E090933A
:103B20004204009340049FEF9093D50310921A042F
:103B300040931904FB016BE174E0DB019A2F961BA3
:103B4000941718F491919D93F9CF1092410490919C
:103B50004104880F892B8093410480913F04813078
:103B600061F410923F04809141048093BB008091E6
:103B7000BC0083FDF8CF85EC01C085EE8093BC00CE
:103B8000222321F0809142048230E1F38091D50319
:103B90008F3F61F08091D503803251F08091D50341
:103BA000803341F483E007C081E005C080E003C0BA
:103BB00082E001C084E00F910895613298F4209171
:103BC0004204243089F46093F703FC0189EF93E009
:103BD000DC012A2F281B261718F421912D93F9CFE9
:103BE00080E0089581E0089582E0089585ED809356
:103BF000BC008091BC0084FDFCCF1092420408956B
:103C000085EC8093BC001092420408951F920F929D
:103C10000FB60F9211242F933F934F935F936F939F
:103C20007F938F939F93AF93BF93EF93FF93809175
:103C3000B900887F803609F49EC078F5883209F48F
:103C40005DC090F4803109F456C038F4882309F43B
:103C5000F5C0883009F44FC0F5C0883109F44EC072
:103C6000803209F45FC0EEC0803409F46AC058F4B1
:103C7000803309F457C0883309F0E4C08093D5033A
:103C80000E94001EDFC0803509F44FC0883509F45A
:103C90005DC0883409F0D6C0D3C0883909F4C4C0E7
:103CA000A8F4883709F467C038F4883609F463C08B
:103CB000803709F460C0C6C0883809F4B5C08039BF
:103CC00009F45FC0803809F0BDC05BC0803B09F4D7
:103CD00083C038F4803A09F466C0883A09F47CC09D
:103CE000B1C0803C09F4A4C0883C09F4A1C0883B61
:103CF00009F487C0A7C08091410410C090911A04B4
:103D000080911904981770F5E0911A0481E08E0FE4
:103D100080931A04F0E0E55EFB4F80818093BB0046
:103D200085EC83C08093D5038BC0E0911A0481E0B9
:103D30008E0F80931A048091BB00F0E0E55EFB4F8C
:103D4000808390911A04809119046BC0E0911A0449
:103D500081E08E0F80931A048091BB00F0E0E55E55
:103D6000FB4F80838091400481116AC081E0809381
:103D70003F0484EA5EC083E0809342041092D6033D
:103D8000CFCF8091D603803208F04EC0E091D603A9
:103D900081E08E0F8093D6038091BB00F0E0E95262
:103DA000FC4F8083BDCF0E94001E8091D6038032DD
:103DB00030F4E091D603F0E0E952FC4F10826091BC
:103DC000D60370E0E0913B04F0913C0487ED93E072
:103DD00009951092D60336C084E080934204109275
:103DE000F8031092F703E0913D04F0913E04099529
:103DF0008091F703811105C081E08093F703109251
:103E0000F903E091F80381E08E0F8093F803F0E06E
:103E1000E750FC4F80818093BB009091F803809124
:103E2000F703981708F47CCF85E88093BC000AC09C
:103E300085EC8093BC001092420404C01092D5031C
:103E40000E94F61DFF91EF91BF91AF919F918F91CD
:103E50007F916F915F914F913F912F910F900FBE86
:103E60000F901F901895CF92DF92EF92FF92CF9311
:103E7000DF93EC019B0140E050E08E859F85281B7D
:103E8000390B41095109AC85BD850E94202B6B017E
:103E90007C018FE0F594E794D794C7948A95D1F785
:103EA0006E897F89882777FD8095982F2BE0660F94
:103EB000771F881F991F2A95D1F7288D398D4427A0
:103EC00037FD4095542F2C0D3D1D4E1D5F1D0E944A
:103ED000012B2C0D3D1D4E1D5F1D288339834A8308
:103EE0005B83CA01B901685F7F4F8F4F9F4F34E0FA
:103EF00095958795779567953A95D1F70E944329CF
:103F000020E030E040E251E40E94A828DF91CF9108
:103F1000FF90EF90DF90CF9008952F923F924F92B5
:103F20005F926F927F928F929F92AF92BF92CF9249
:103F3000DF92EF92FF920F931F93CF93DF93CDB752
:103F4000DEB728970FB6F894DEBF0FBECDBF1C01B9
:103F50004D835E836F837887DC01CD90DD90ED909B
:103F6000FC90B0EACB1ABFE0DB0AE108F108A70138
:103F70009601C701B6010E94A72A4B015C01F1011D
:103F800004811581A085B1850E942B2B2B013C015A
:103F90008DE075946794579447948A95D1F7A089DA
:103FA000B189A50194019CE05595479537952795D2
:103FB0009A95D1F70E942B2BBB2797FDB095AB2F7D
:103FC000480E591E6A1E7B1EF2E04F0E511C611CEA
:103FD000711C32E075946794579447943A95D1F7E1
:103FE00080E8580E611C711CF101A285B385A30104
:103FF00092010E94202BDC01CB014FE0B695A795E2
:10400000979587954A95D1F789839A83AB83BC832B
:104010002801662457FC6094762C52E0440C551C11
:10402000661C771C5A95D1F7A289B389A501940122
:104030000E942B2B4B015C0167E1B594A7949794E8
:1040400087946A95D1F7A681B781A70196010E944E
:104050002B2BEBE09595879577956795EA95D1F7AA
:10406000860E971EA81EB91E480C591C6A1C7B1C84
:1040700092E0490E511C611C711CF2E0759467942A
:1040800057944794FA95D1F78D819E81AF81B88579
:1040900084199509A609B7098D839E83AF83B887D4
:1040A000A0E5B3EC2D813E814F8158850E94202BE5
:1040B00097FD0DC0660F771F881F991F29813A81D0
:1040C0004B815C810E94DF2A49015A010CC0298181
:1040D0003A814B815C810E94DF2A49015A01880C98
:1040E000991CAA1CBB1C9927B7FC9A958B2D7A2D7D
:1040F000692D9B01AC010E94A72A9B01AC01AEED8A
:10410000BBE00E94202B6C01FF24D7FCF094EF2C25
:10411000A3E4B3EEA50194010E942E2BBB2797FDCB
:10412000B095AB2FC80ED91EEA1EFB1E9FECC90E20
:104130009EE0D91EE11CF11CF4E0F594E794D794BD
:10414000C794FA95D1F7C80CD91CEA1CFB1CC7010F
:10415000B60128960FB6F894DEBF0FBECDBFDF9133
:10416000CF911F910F91FF90EF90DF90CF90BF9074
:10417000AF909F908F907F906F905F904F903F9007
:104180002F900895CF93C62F67E770E083E893E000
:104190000E949D1C6C2F83E893E00E944A1C83E8D8
:1041A00093E00E94191D41E050E067E770E083E86A
:1041B00093E00E94161D83E893E00E94F21B892B76
:1041C000D1F383E893E00E94FA1BCF9108950F93F7
:1041D0001F93CF93DF93EC0167E770E083E893E0F0
:1041E0000E949D1C64EF70E083E893E00E94711AC6
:1041F00064E370E083E893E00E94711A83E893E03F
:104200000E94191D65E070E080E090E00E94BC22F1
:1042100066EFCE010E94C220182F67EFCE010E94E8
:10422000C220082F68EFCE010E94C220402F50E02C
:1042300060E070E0762F652F542F4427612B99277B
:10424000872F762F652FDF91CF911F910F910895C2
:104250001F93CF93DF93162F67E770E083E893E017
:104260000E949D1C612F83E893E00E944A1C83E812
:1042700093E00E94191D42E050E067E770E083E898
:1042800093E00E94161D83E893E00E94F21B0297C0
:10429000D4F383E893E00E94FA1B182F83E893E09D
:1042A0000E94FA1BD12F20E0C22F9E01282BC901AA
:1042B000DF91CF911F910895CF93DF93EC0183E8B5
:1042C00093E00E94891C6AEACE010E9428219D8306
:1042D0008C836CEACE010E9428219F838E836EEA34
:1042E000CE010E9428219987888760EBCE010E9429
:1042F00028219B878A8762EBCE010E9428219D8717
:104300008C8764EBCE010E9428219F878E8766EB05
:10431000CE010E942821998B888B68EBCE010E94E8
:1043200028219B8B8A8B6AEBCE010E9428219D8BD2
:104330008C8B6CEBCE010E9428219F8B8E8B6EEBB9
:10434000CE010E942821998F888F60EDCE010E94B6
:10435000C22091E0853509F090E0892FDF91CF915F
:104360000895CF93DF93EC0167E770E083E893E073
:104370000E949D1C64EF70E083E893E00E94711A34
:104380006EE270E083E893E00E94711A83E893E0A4
:104390000E94191D65E070E080E090E00E94BC2260
:1043A00066EFCE01DF91CF910C94282108958230E1
:1043B000E8F4E82FF0E0EE0FFF1FE45FFE4F71839B
:1043C0006083813041F0809169008C7F842B8093E1
:1043D0006900E89A089580916900440F551F440FC1
:1043E000551F837F842B80936900E99A08951F925B
:1043F0000F920FB60F9211242F933F934F935F9319
:104400006F937F938F939F93AF93BF93EF93FF939C
:10441000E0910C01F0910D010995FF91EF91BF9191
:10442000AF919F918F917F916F915F914F913F914C
:104430002F910F900FBE0F901F9018951F920F9203
:104440000FB60F9211242F933F934F935F936F9367
:104450007F938F939F93AF93BF93EF93FF93E091DD
:104460000E01F0910F010995FF91EF91BF91AF916E
:104470009F918F917F916F915F914F913F912F917C
:104480000F900FBE0F901F9018951F920F920FB6AE
:104490000F9211242F933F938F939F93AF93BF93CA
:1044A0008091440490914504A0914604B091470442
:1044B000309143042DE2230F2D3720F40196A11DE6
:1044C000B11D05C020EB230F0296A11DB11D209345
:1044D00043048093440490934504A0934604B0930E
:1044E00047048091480490914904A0914A04B091F6
:1044F0004B040196A11DB11D80934804909349047B
:10450000A0934A04B0934B04BF91AF919F918F91B8
:104510003F912F910F900FBE0F901F9018952FB7BE
:10452000F894609144047091450480914604909100
:1045300047042FBF08959FB7F894409148045091C5
:10454000490460914A0470914B0486B5A89B06C04B
:104550008F3F21F04F5F5F4F6F4F7F4F9FBF2227ED
:10456000342F452F562F280F311D411D511DA5E019
:10457000B0E00E94202B08958F929F92AF92BF923D
:10458000CF92DF92EF92FF926B017C010E949B22FF
:104590004B015C01C114D104E104F104F1F00E946B
:1045A0003E280E949B22681979098A099B09683E66
:1045B00073408105910570F321E0C21AD108E1082A
:1045C000F10888EE880E83E0981EA11CB11CC1146E
:1045D000D104E104F10429F7DDCFFF90EF90DF90E3
:1045E000CF90BF90AF909F908F900895789484B5AE
:1045F000826084BD84B5816084BD85B5826085BDDF
:1046000085B5816085BDEEE6F0E0808181608083C4
:10461000E1E8F0E0108280818260808380818160A7
:104620008083E0E8F0E0808181608083E1EBF0E06E
:10463000808184608083E0EBF0E080818160808312
:10464000EAE7F0E0808184608083808182608083FB
:1046500080818E7F80838081806880831092C100FA
:1046600008958093100108958E3008F08E50877061
:104670002091100190E4299F90011124822B8093B6
:104680007C0080917A00806480937A0080917A0027
:1046900086FDFCCF809178002091790090E0922BEC
:1046A0000895833081F028F4813099F08230A1F0B0
:1046B00008958730A9F08830B9F08430D1F4809122
:1046C00080008F7D03C0809180008F778093800071
:1046D000089584B58F7702C084B58F7D84BD089519
:1046E0008091B0008F7703C08091B0008F7D809360
:1046F000B0000895CF93DF9390E0FC01E25FFD4F9F
:104700002491FC01EE5DFD4F8491882349F190E0F6
:10471000880F991FFC01E65BFD4FA591B491805C69
:104720009D4FFC01C591D4919FB7611108C0F894C9
:104730008C91209582238C93888182230AC06230D9
:1047400051F4F8948C91322F309583238C93888187
:10475000822B888304C0F8948C91822B8C939FBF0A
:10476000DF91CF9108950F931F93CF93DF931F9203
:10477000CDB7DEB7282F30E0F901E650FE4F849127
:10478000F901E25FFD4F1491F901EE5DFD4F0491D7
:104790000023C9F0882321F069830E945123698195
:1047A000E02FF0E0EE0FFF1FE05CFD4FA591B4910C
:1047B0009FB7F8948C91611103C01095812301C0BB
:1047C000812B8C939FBF0F90DF91CF911F910F9101
:1047D0000895FC01818D228D90E0805C9F4F821BAB
:1047E00091098F7399270895FC01918D828D9817F7
:1047F00031F0828DE80FF11D858D90E008958FEFE7
:104800009FEF0895FC01918D828D981761F0828D44
:10481000DF01A80FB11D5D968C91928D9F5F9F73F4
:10482000928F90E008958FEF9FEF0895FC01848DA3
:10483000DF01A80FB11DA35ABF4F2C91848D90E0CA
:1048400001968F739927848FA689B7892C93A089A5
:10485000B1898C9180648C93938D848D981306C05C
:104860000288F389E02D80818F7D80830895CF9326
:10487000DF93EC01888D8823C9F0EA89FB89808168
:1048800085FD05C0A889B9898C9186FD0FC00FB63A
:1048900007FCF5CF808185FFF2CFA889B9898C917B
:1048A00085FFEDCFCE010E941624E7CFDF91CF9197
:1048B0000895CF92DF92FF920F931F93CF93DF93D0
:1048C0001F92CDB7DEB76C0181E0D60158968C936C
:1048D00058975B969C915B975C968C915C9798132C
:1048E00007C05096ED91FC915197808185FD2EC0B7
:1048F000F601038D10E00F5F1F4F0F731127F02E8D
:10490000F601848DF81211C00FB607FCF9CFD6015D
:104910005096ED91FC915197808185FFF1CFC601B2
:1049200069830E9416246981EBCF838DE80FF11D06
:10493000E35AFF4F6083D6015B960C935B975296C8
:10494000ED91FC915397808180620CC0D601569600
:10495000ED91FC91579760835096ED91FC915197A2
:1049600080818064808381E090E00F90DF91CF911F
:104970001F910F91FF90DF90CF900895BF92CF923B
:10498000DF92EF92FF92CF93DF93EC016A017B01FC
:10499000B22E60EC76EC8DE290E0A70196010E94C9
:1049A000DF2A21503109410951095695479537951C
:1049B0002795E889F98982E08083211580E138070D
:1049C00098F0E889F989108260E673EE86E190E05C
:1049D000A70196010E94DF2A21503109410951099E
:1049E0005695479537952795EC85FD853083EE855F
:1049F000FF852083188EEC89FD89B082EA89FB89C6
:104A0000808180618083EA89FB89808188608083DE
:104A1000EA89FB89808180688083EA89FB898081BB
:104A20008F7D8083DF91CF91FF90EF90DF90CF90CB
:104A3000BF9008951F920F920FB60F9211242F93DB
:104A40008F939F93EF93FF93E0915C04F0915D044B
:104A50008081E0916204F091630482FD12C0908134
:104A6000809165048F5F8F7320916604821751F0E7
:104A7000E0916504F0E0E45BFB4F958F8093650463
:104A800001C08081FF91EF919F918F912F910F90A5
:104A90000FBE0F901F9018951F920F920FB60F9296
:104AA00011242F933F934F935F936F937F938F9333
:104AB0009F93AF93BF93EF93FF938CE494E00E9496
:104AC0001624FF91EF91BF91AF919F918F917F91AC
:104AD0006F915F914F913F912F910F900FBE0F906B
:104AE0001F90189510924F0410924E0488EE93E098
:104AF000A0E0B0E08093500490935104A09352043E
:104B0000B09353048CEA91E090934D0480934C044D
:104B100085EC90E0909359048093580484EC90E0E5
:104B200090935B0480935A0480EC90E090935D0432
:104B300080935C0481EC90E090935F0480935E042A
:104B400082EC90E0909361048093600486EC90E0A6
:104B5000909363048093620410926504109266043B
:104B600010926704109268040895CF92DF92EF923A
:104B7000FF920F931F93CF93DF937C016A01EB01A8
:104B800000E010E00C151D0571F06991D701ED9161
:104B9000FC910190F081E02DC7010995892B19F056
:104BA0000F5F1F4FEFCFC801DF91CF911F910F9182
:104BB000FF90EF90DF90CF9008956115710581F01F
:104BC000DB010D900020E9F7AD0141505109461B72
:104BD000570BDC01ED91FC910280F381E02D0994EB
:104BE00080E090E008950C94DD25DC01ED91FC91CE
:104BF0000190F081E02D099468EB71E00C94DD25C3
:104C00008F929F92AF92BF92DF92EF92FF920F939B
:104C10001F93CF93DF93CDB7DEB7A1970FB6F8946C
:104C2000DEBF0FBECDBF7C01F42FD52ECB0119A264
:104C3000223008F42AE08E010F5D1F4F822E912C46
:104C4000A12CB12C6F2F7D2DA50194010E94DF2A8C
:104C5000F22FD32ECA01015011096A3014F4E0E397
:104C600001C0E7E3E60FD801EC93232B242B252B7F
:104C700049F7B801C7010E94DD25A1960FB6F89447
:104C8000DEBF0FBECDBFDF91CF911F910F91FF907F
:104C9000EF90DF90BF90AF909F908F900895CF924C
:104CA000DF92EF92FF920F931F93CF93DF93EC016C
:104CB0006A017B012115310579F4E881F9810190C0
:104CC000F081E02D642FDF91CF911F910F91FF9024
:104CD000EF90DF90CF9009942A303105E9F477FF07
:104CE0001AC06DE20E94F5258C0144275527BA01B0
:104CF0004C195D096E097F092AE0CE010E94002649
:104D0000800F911FDF91CF911F910F91FF90EF9036
:104D1000DF90CF9008952AE0B701A601CE01DF9180
:104D2000CF911F910F91FF90EF90DF90CF900C9457
:104D300000260F931F93CF93DF93EC019A01AB01F1
:104D4000662757FD6095762F0E944F268C01CE0175
:104D50000E94FC25800F911FDF91CF911F910F9131
:104D600008952115310541F4DC01ED91FC9101908C
:104D7000F081E02D642F09940C9400269A01462FAF
:104D800050E060E070E00C94B1260F931F93CF9336
:104D9000DF93EC019A01462F50E060E070E00E9442
:104DA000B1268C01CE010E94FC25800F911FDF915E
:104DB000CF911F910F9108959A01AB0160E070E0CF
:104DC0000C94B1260F931F93CF93DF93EC019A01BC
:104DD000AB0160E070E00E94B1268C01CE010E9420
:104DE000FC25800F911FDF91CF911F910F910895A6
:104DF0000F931F93CF93DF93EC010E94B1268C0198
:104E0000CE010E94FC25800F911FDF91CF911F9151
:104E10000F9108954F925F926F927F928F929F921F
:104E2000AF92BF92CF92DF92EF92FF920F931F93B8
:104E3000CF93DF93EC016A017B01B22E9A01AB01A3
:104E4000C701B6010E947A2A882319F06BEB71E042
:104E500027C026013701E89477F82FEF3FEF4FE79F
:104E60005FE7C301B2010E947A2A81110DC02FEFC2
:104E70003FEF4FE75FE7C301B2010E94A428181675
:104E80001CF46FEB71E00CC02FEF3FEF4FE75FE4D6
:104E9000C701B6010E94F3291816ACF463EC71E067
:104EA000CE01DF91CF911F910F91FF90EF90DF9096
:104EB000CF90BF90AF909F908F907F906F905F90BA
:104EC0004F900C94DD252FEF3FEF4FE75FECC701CC
:104ED000B6010E94A42887FDE1CF20E030E0A901BF
:104EE000C701B6010E94A42887FF0AC06DE2CE0167
:104EF0000E94F5258C01F7FAF094F7F8F09402C0BF
:104F000000E010E0A12C60E070E080E09FE3AB14D3
:104F100041F020E030E040E251E40E94A828A39450
:104F2000F6CF9B01AC01C701B6010E9440286B017E
:104F30007C010E9415292B013C010E9441299B0103
:104F4000AC01C701B6010E943F286B017C012AE039
:104F5000B301A201CE010E940026080F191FBB2039
:104F600039F067EC71E0CE010E94DD25080F191FB2
:104F70007B2C772041F120E030E040E251E4C70192
:104F8000B6010E94F7296B017C010E9410294B0198
:104F9000AA2497FCA094BA2C2AE030E0B501A40121
:104FA000CE010E944F26080F191FC501B4010E94AF
:104FB00043299B01AC01C701B6010E943F286B0148
:104FC0007C017A94D6CFC801DF91CF911F910F91C8
:104FD000FF90EF90DF90CF90BF90AF909F908F9019
:104FE0007F906F905F904F9008950C940A274F9296
:104FF0005F926F927F92AF92BF92CF92DF92EF92C9
:10500000FF920F931F93CF93DF93CDB7DEB72901A4
:105010003A01621B730B840B950B29893A894B89E2
:105020005C892A193B094C095D09298B3A8B4B8B0A
:105030005C8B9B01AC0169897A898B899C890E9470
:10504000A72AE418F50806091709A80197010E9484
:10505000012B2A0D3B1D4C1D5D1DCA01B901DF91BD
:10506000CF911F910F91FF90EF90DF90CF90BF9065
:10507000AF907F906F905F904F9008950895505833
:10508000BB27AA270ED075C166D130F06BD120F0B6
:1050900031F49F3F11F41EF45BC10EF4E095E7FB81
:1050A00051C1E92F77D180F3BA17620773078407DC
:1050B000950718F071F49EF58FC10EF4E0950B2E54
:1050C000BA2FA02D0B01B90190010C01CA01A0015A
:1050D0001124FF27591B99F0593F50F4503E68F1B5
:1050E0001A16F040A22F232F342F4427585FF3CFF6
:1050F000469537952795A795F0405395C9F77EF4C7
:105100001F16BA0B620B730B840BBAF09150A1F00F
:10511000FF0FBB1F661F771F881FC2F70EC0BA0F95
:10512000621F731F841F48F4879577956795B7951D
:10513000F7959E3F08F0B3CF9395880F08F0992715
:10514000EE0F979587950895D9D008F481E00895DA
:105150000CD00FC107D140F0FED030F021F45F3FFA
:1051600019F0F0C0511139C1F3C014D198F399234B
:10517000C9F35523B1F3951B550BBB27AA2762171B
:105180007307840738F09F5F5F4F220F331F441F60
:10519000AA1FA9F333D00E2E3AF0E0E830D0915098
:1051A0005040E695001CCAF729D0FE2F27D0660F85
:1051B000771F881FBB1F261737074807AB07B0E8C4
:1051C00009F0BB0B802DBF01FF2793585F4F2AF0DA
:1051D0009E3F510568F0B6C000C15F3FECF3983EBA
:1051E000DCF3869577956795B795F7959F5FC9F737
:1051F000880F911D9695879597F90895E1E0660FC0
:10520000771F881FBB1F621773078407BA0720F038
:10521000621B730B840BBA0BEE1F88F7E0950895A1
:1052200004D06894B111D9C00895BCD088F09F57BC
:1052300090F0B92F9927B751A0F0D1F0660F771FE2
:10524000881F991F1AF0BA95C9F712C0B13081F0C2
:10525000C3D0B1E00895C0C0672F782F8827B85F0A
:1052600039F0B93FCCF3869577956795B395D9F723
:105270003EF490958095709561957F4F8F4F9F4F2D
:105280000895E89409C097FB3EF490958095709539
:1052900061957F4F8F4F9F4F9923A9F0F92F96E982
:1052A000BB279395F695879577956795B795F111F7
:1052B000F8CFFAF4BB0F11F460FF1BC06F5F7F4F94
:1052C0008F4F9F4F16C0882311F096E911C07723A6
:1052D00021F09EE8872F762F05C0662371F096E8AF
:1052E000862F70E060E02AF09A95660F771F881F7E
:1052F000DAF7880F9695879597F90895990F000822
:10530000550FAA0BE0E8FEEF16161706E807F90797
:10531000C0F012161306E407F50798F0621B730B32
:10532000840B950B39F40A2661F0232B242B252BB3
:1053300021F408950A2609F4A140A6958FEF811D56
:10534000811D089597F99F6780E870E060E00895F7
:105350009FEF80EC089500240A941616170618068D
:105360000906089500240A94121613061406050669
:105370000895092E0394000C11F4882352F0BB0FFA
:1053800040F4BF2B11F460FF04C06F5F7F4F8F4F5D
:105390009F4F089557FD9058440F551F59F05F3F98
:1053A00071F04795880F97FB991F61F09F3F79F047
:1053B00087950895121613061406551FF2CF4695C9
:1053C000F1DF08C0161617061806991FF1CF86954B
:1053D0007105610508940895E894BB27662777272F
:1053E000CB0197F908958ADF08F48FEF08950BD069
:1053F000C0CFB1DF28F0B6DF18F0952309F0A2CFB7
:10540000A7CF1124EACFC6DFA0F3959FD1F3950F64
:1054100050E0551F629FF001729FBB27F00DB11D38
:10542000639FAA27F00DB11DAA1F649F6627B00DC8
:10543000A11D661F829F2227B00DA11D621F739FB1
:10544000B00DA11D621F839FA00D611D221F749FBF
:105450003327A00D611D231F849F600D211D822F06
:10546000762F6A2F11249F5750408AF0E1F088234D
:105470004AF0EE0FFF1FBB1F661F771F881F91505A
:105480005040A9F79E3F510570F05CCFA6CF5F3F1B
:10549000ECF3983EDCF3869577956795B795F7958D
:1054A000E7959F5FC1F7FE2B880F911D9695879515
:1054B00097F9089577DFE0F09E37D8F09639B8F481
:1054C0009E3848F4672F782F8827985FF9CF869504
:1054D0007795679593959539D0F3B62FB1706B0F8B
:1054E000711D811D20F4879577956795939506C06A
:1054F00020C073CF03DF880B990B0895882371F4C4
:10550000772321F09850872B762F07C0662311F45C
:1055100099270DC09051862B70E060E02AF09A9593
:10552000660F771F881FDAF7880F9695879597F98A
:1055300008959F3F31F0915020F4879577956795B6
:10554000B795880F911D9695879597F90895DB017A
:105550008F939F930E94202BBF91AF91A29F800DAC
:10556000911DA39F900DB29F900D11240895AA1B29
:10557000BB1B51E107C0AA1FBB1FA617B70710F03E
:10558000A61BB70B881F991F5A95A9F78095909570
:10559000BC01CD01089597FB072E16F4009407D0A7
:1055A00077FD09D00E94B72A07FC05D03EF49095FC
:1055B00081959F4F0895709561957F4F0895A1E261
:1055C0001A2EAA1BBB1BFD010DC0AA1FBB1FEE1F7D
:1055D000FF1FA217B307E407F50720F0A21BB30BC8
:1055E000E40BF50B661F771F881F991F1A9469F744
:1055F00060957095809590959B01AC01BD01CF01A0
:105600000895052E97FB1EF400940E94182B57FD59
:1056100007D00E94DF2A07FC03D04EF40C94182B0D
:1056200050954095309521953F4F4F4F5F4F0895CE
:1056300090958095709561957F4F8F4F9F4F0895FE
:105640000E94392BA59F900DB49F900DA49F800DB3
:10565000911D11240895B7FF0C94202B0E94202B3C
:10566000821B930B0895EE0FFF1F0590F491E02D20
:105670000994A29FB001B39FC001A39F700D811D2B
:105680001124911DB29F700D811D1124911D08954B
:10569000FC0188279927E89421912032E9F32930E9
:1056A00010F02E30C8F32B3241F02D3239F46894CB
:1056B00004C00E947E2B820F911D219120532A301D
:1056C000C0F31EF4909581959F4F0895FB01DC0176
:1056D0008D91019080190110D9F3990B0895FB0168
:1056E000DC014150504048F001900D920020C9F774
:1056F00001C01D9241505040E0F708957AE0979F15
:10570000902D879F802D910D11240895AEE0B0E07B
:10571000ECE8FBE20C94442E0D891E8986E08C8314
:105720001A8309838FEF9FE79E838D83AE01475EC7
:105730005F4F6F89788DCE0101960E94A82BEF8173
:10574000F885E00FF11F10822E96E4E00C94602E95
:10575000ACE0B0E0EEEAFBE20C94362E7C016B018B
:105760008A01FC0117821682838181FFBDC1CE01AF
:1057700001964C01F7019381F60193FD859193FF0A
:1057800081916F01882309F4ABC1853239F493FD0F
:10579000859193FF81916F01853229F4B70190E0E3
:1057A0000E94A62DE7CF512C312C20E02032A0F40E
:1057B0008B3269F030F4803259F0833269F4206121
:1057C0002CC08D3239F0803339F4216026C022603C
:1057D000246023C0286021C027FD27C030ED380F8A
:1057E0003A3078F426FF06C0FAE05F9E300D1124AF
:1057F000532E13C08AE0389E300D1124332E2062C0
:105800000CC08E3221F426FD6BC1206406C08C369C
:1058100011F4206802C0883641F4F60193FD8591A9
:1058200093FF81916F018111C1CF982F9F7D955476
:10583000933028F40C5F1F4FFFE3F9830DC08336CC
:1058400031F0833771F0833509F05BC022C0F80175
:10585000808189830E5F1F4F44244394512C54014F
:1058600015C03801F2E06F0E711CF801A080B18004
:1058700026FF03C0652D70E002C06FEF7FEFC5010A
:105880002C870E949B2D2C0183012C852F77222EA3
:1058900017C03801F2E06F0E711CF801A080B180D2
:1058A00026FF03C0652D70E002C06FEF7FEFC501DA
:1058B0002C870E94902D2C012C852068222E83019C
:1058C00023FC1BC0832D90E048165906B0F4B701A5
:1058D00080E290E00E94A62D3A94F4CFF50127FCD7
:1058E000859127FE81915F01B70190E00E94A62D6E
:1058F00031103A94F1E04F1A51084114510471F7F4
:10590000E5C0843611F0893639F5F80127FF07C064
:1059100060817181828193810C5F1F4F08C060811B
:105920007181882777FD8095982F0E5F1F4F2F7606
:10593000B22E97FF09C090958095709561957F4F25
:105940008F4F9F4F2068B22E2AE030E0A4010E94C2
:10595000D82DA82EA81844C0853729F42F7EB22E42
:105960002AE030E025C0F22FF97FBF2E8F36C1F03C
:1059700018F4883579F0B4C0803719F0883721F0F1
:10598000AFC02F2F2061B22EB4FE0DC08B2D8460CE
:10599000B82E09C024FF0AC09F2F9660B92E06C0FA
:1059A00028E030E005C020E130E002C020E132E034
:1059B000F801B7FE07C060817181828193810C5F1D
:1059C0001F4F06C06081718180E090E00E5F1F4F25
:1059D000A4010E94D82DA82EA818FB2DFF77BF2E5A
:1059E000B6FE0BC02B2D2E7FA51450F4B4FE0AC0BA
:1059F000B2FC08C02B2D2E7E05C07A2C2B2D03C0A7
:105A00007A2C01C0752C24FF0DC0FE01EA0DF11D9A
:105A10008081803311F4297E09C022FF06C073946F
:105A2000739404C0822F867809F0739423FD13C009
:105A300020FF06C05A2C731418F4530C5718732CFB
:105A4000731468F4B70180E290E02C870E94A62DC1
:105A500073942C85F5CF731410F4371801C0312CD2
:105A600024FF12C0B70180E390E02C870E94A62D8E
:105A70002C8522FF17C021FF03C088E590E002C0FB
:105A800088E790E0B7010CC0822F867859F021FD9D
:105A900002C080E201C08BE227FD8DE2B70190E0F9
:105AA0000E94A62DA51438F4B70180E390E00E946F
:105AB000A62D5A94F7CFAA94F401EA0DF11D808126
:105AC000B70190E00E94A62DA110F5CF332009F474
:105AD00051CEB70180E290E00E94A62D3A94F6CF15
