:200000000C9420010C94C1210C94E8210C94380F0C94380F0C94380F0C9416110C9448018F
:200020000C9448010C9448010C9448010C9448010C9448010C9448010C9448010C94480178
:200040000C940F220C9448010C94E4240C9416250C9448010C9448010C9448010C944801BF
:200060000C944F1C0C9448014661696C00536967466F783A20002C206D6F64653D002C20EC
:200080006261743D002C207370643D002C206361703D002C20616C743D002C206C6F6E3DC3
:2000A00000206C61743D006D73673D0024504D544B3232302C313030302A0024504D544BB3
:2000C0003331342C302C312C302C312C302C302C302C302C302C302C302C302C302C302C52
:2000E000302C302C302C302C302A004E6577206669726D776172652E20005573652070651F
:200100007220646179733A004C617374206461793A002000200020004C6F77204261743A33
:20012000200053656E736F724D61783A20006D62002743202F2050726573733A20007465BD
:200140006D703A20004F4B004661696C00496E6974204D656D733A00667265652052616DF0
:200160003A200054656D70206661696C0024504D544B3630352A0025200020426174746559
:2001800072793A20004669726D77617265204869646E5365656B5F76335F32385F47505398
:2001A0000A52656C65617365204D617920333020323031362031373A31373A35340053465B
:2001C00049443B004154563000415445300053464D002C322C310041542453463D00000002
:2001E0000008000201000003040700000000000000000102040810204080010204081020A8
:2002000001020408102004040404040404040202020202020303030303030000000023003E
:200220002600290000000000250028002B0000000000240027002A002E09651B3C253D0924
:2002400011241FBECFEFD8E0DEBFCDBF11E0A0E0B1E0E8E8FCE502C005900D92AA3CB107A6
:20026000D9F724E0AAECB1E001C01D92A33FB207E1F712E0CEE3D2E004C02297FE010E942D
:20028000FF2AC833D107C9F70E94DE0C0C94372E0C94000081E080932F0308950C944C2D15
:2002A0000C94442DCF93DF9300D0CDB7DEB72091EF043091F0042115310511F423EF34E080
:2002C000CE010196821B930B0F900F90DF91CF910895CF93DF93FC016491EC0121966623DF
:2002E00031F082E594E00E94BF25CE01F4CFDF91CF91089582E085B987E084B918B884E005
:2003000087B98CE18BB980EC8AB90895CF93DF93EC011C161D068CF45F9A60E270E080E01F
:2003200090E00E9486225F98219799F360E470E080E090E00E948622ECCFDF91CF910895F2
:2003400060E270E080E090E00E9486228BB18F7790912D039295990F990F907C909589230A
:200360008BB960E470E080E090E00E9486222BB1206880912D0330E4839FC0011124282B67
:200380002BB908958DE491E00E94690189E893E00E94D21A42E060E08BEE91E00E94571E19
:2003A0008BEE91E00E94A51E882351F088E491E00E94690182E594E00E94C62580E00895B4
:2003C00085E491E00E94690182E594E00E94C62581E008950F931F93CF93DF938C01EB0130
:2003E0000097A1F081ED91E00E947B21BC0181ED91E00E94FD1E26E636E646E650E40E9435
:200400000928F80160837183828393832097C9F081ED91E00E94B120AB01BC0181ED91E0B6
:200420000E94571F24E630E040E050E00E94CB2A3983288381E02037334008F080E08093A6
:20044000320381E0DF91CF911F910F9108958EE391E00E94690140910F0350911003609193
:2004600011037091120322E030E082E594E00E94BF2781E391E00E94690160910D037091FA
:200480000E034AE050E082E594E00E94A6268EE291E00E94690182E594E00C94C625CF93F3
:2004A00080E290E00E945001C82F81E290E00E945001282F30E0322F22272C0F311D30935D
:2004C000D0012093CF0182E291E00E9469016091CF017091D0014AE050E082E594E00E947D
:2004E000A62684ED93E09093D0018093CF01CF910895CF93DF93D82FC92F682F80E290E03C
:200500000E944E016C2F81E290E00E944E018D2F9C2FDF91CF9108958F929F92AF92BF92B3
:20052000CF92DF92EF92FF920F931F93CF93DF93CDB7DEB7C456D1090FB6F894DEBF0FBEE7
:20054000CDBF61E08AE00E947D2380E00E94FB2264E670E080E090E00E94862210E08FE0F0
:200560000E94FE229595879595958795282F3981831778F0112369F0FE01319641E041174E
:2005800049F03191231718F03081321718F44F5FF6CF40E0512F451778F4252F30E0FE01DA
:2005A000E20FF31F6081E1E0F0E0EC0FFD1FE20FF31F60835150EFCFE1E0F0E0EC0FFD1FC2
:2005C000E40FF11D80831F5F143649F6FE01BF969E01295C3F4F80E090E04191840F911D27
:2005E000E217F307D1F796958795909324038093230304972091CF013091D0012817390749
:2006000030F40E9479029093D0018093CF01E090CF01F090D00100E010E060912303709149
:20062000240380E090E01F921F9220E12F9328E62F93A12CB12C650120E030E0A9010E9462
:20064000C1274B019B01683640E1740710F428E630E1790100E010E09B0143EF84164DE08E
:20066000940610F022EF3DE040E050E0882799271F921F921F92E4E6EF93A12CB12C650184
:200680000E94C127609322030FB6F894DEBF0FBECDBF80912D03811103C060910B0101C01D
:2006A00061E08AE00E947D2381E092EF89169DE0990608F080E0CC59DF4F0FB6F894DEBF17
:2006C0000FBECDBFDF91CF911F910F91FF90EF90DF90CF90BF90AF909F908F900895BF92FB
:2006E000CF92DF92EF92FF920F931F93CF93DF93CDB7DEB72C970FB6F894DEBF0FBECDBFCB
:200700008091010390910203A0910303B091040389839A83AB83BC83809105039091060346
:20072000A0910703B09108038D839E83AF83B88780911E03898780913A0324E0829FC0011A
:20074000112420913B03922B2091390330E044E0359527954A95E1F7822B932B9B878A87BC
:200760008CE290E00E945001B82E8BE0B89E80011124035D1F4FFE0131967F016E01FCE0EC
:20078000CF0ED11CF70161917F01C8016C870E94442D6C85681719F0C8010E944C2D0F5F8B
:2007A0001F4FEC14FD0471F7F8E5FB15A8F061E06B0D8CE290E02C960FB6F894DEBF0FBEC9
:2007C000CDBFDF91CF911F910F91FF90EF90DF90CF90BF900C944E012C960FB6F894DEBFA3
:2007E0000FBECDBFDF91CF911F910F91FF90EF90DF90CF90BF900895CF92DF92EF92FF92D4
:200800000F931F93CF93DF93CDB7DEB72C970FB6F894DEBF0FBECDBF6FEF680F6E018CE0DD
:20082000C80ED11C8E010F5F1F4F5DE2E52EF12CE01AF10AEBE06E9FE00CF11C1124C70158
:20084000800F911F6C870E94442DF80181938F016C85EC15FD0599F78CE290E00E944E0163
:2008600089819A81AB81BC818093010390930203A0930303B09304038D819E81AF81B8858E
:200880008093050390930603A0930703B0930803898590E090931F0380931E038A859B8560
:2008A00090932103809320032C960FB6F894DEBF0FBECDBFDF91CF911F910F91FF90EF9084
:2008C000DF90CF9008950F931F93CF93DF93CDB7DEB761970FB6F894DEBF0FBECDBF40915C
:2008E000090350910A0360910B0370910C03DB01CA01E3E1B695A79597958795EA95D1F76E
:20090000FCE07695679557954795FA95D1F74F77552750931F0340931E03282F2370220F7F
:20092000220F1F922F939C01332736952795369527953F932F931F929F9381E191E09F9392
:200940008F938E010F5F1F4F1F930F930E94502BB80182E594E00E94BD25409101035091CB
:200960000203609103037091040327E030E082E594E00E94BF2786E191E00E946901409144
:20098000050350910603609107037091080327E030E082E594E00E94BF2784E191E00E946C
:2009A000690160911E0370911F034AE050E082E594E00E94A62682E191E00E9469014AE0EB
:2009C00050E06091260382E594E00E948F260FB6F894DEBF0FBECDBF61960FB6F894DEBF6F
:2009E0000FBECDBFDF91CF911F910F910895CF93C0913C03CC2359F180912803C81709F1A1
:200A000080E090E00E945001809328038C17C9F0803228F46091270390E00E944E0160913E
:200A20003C0380E090E00E944E0180913C0360E090E00E944E0180913C0380932803109295
:200A40002703809127038F5F8093270302C010922703CF910895809128039FEF980F9F313A
:200A600028F46091270390E00C944E010895CF93DF9380E090E00E945001813218F48093DA
:200A8000280307C01092280360E080E090E00E944E0188E091E00E9469014AE050E0609166
:200AA000280382E594E00E948F268AEF90E00E946901C1E0D0E0CE010E9450018093270394
:200AC0008F3F31F460E0CE010E944E01109227034AE050E06091270382E594E00E948826B7
:200AE00067E471E082E594E00E94BD252196C032D10509F78CE290E00E945001809327036E
:200B00004AE050E0682F82E594E00E948F26809127038A3528F060E08CE290E00E944E0191
:200B20008091280390E00E94500180932703DF91CF9108950F931F93CF93DF935E9A82E2E8
:200B400090E00E945001C82F83E290E00E945001082F84E290E00E945001182F85E290E055
:200B60000E945001D82F0C3139F06CE183E290E00E944E0191E001C090E0153031F065E0B5
:200B800084E290E00E944E0191E0D33041F063E085E290E00E944E01C33019F40AC0C33021
:200BA00031F063E082E290E00E944E0102C09923D1F185E89BEEA1E5B0E480930103909382
:200BC0000203A0930303B093040383EC95EFA0EAB0E48093050390930603A0930703B093B5
:200BE0000803809122038F7790E0A0E0B0E0C3E0880F991FAA1FBB1FCA95D1F783609C6093
:200C00008093090390930A03A0930B03B0930C038BEE90E00E9469014CE061E073E088EDC8
:200C200092E00E9454125E98DF91CF911F910F910895EF92FF920F931F93CF93DF931F929C
:200C4000CDB7DEB78C01E12CF12CF8012491222349F0622F82E594E029830E94BF25298150
:200C60002A3259F480E1E816F10494F468E271E082E594E00E94BD250BC0243231F0622F22
:200C8000772767FD7095E626F7260F5F1F4FDDCF40E150E0B70182E594E00F90DF91CF9149
:200CA0001F910F91FF90EF900C94632610920B0160E08AE00C947D230F931F93CF93DF93ED
:200CC000CDB7DEB768970FB6F894DEBF0FBECDBF809139031F928F9380913A031F928F9374
:200CE00080913B031F928F9380913F038F9380913E038F9380913C031F928F9380913D0375
:200D00001F928F938AE291E09F938F938E010F5F1F4F1F930F930E94502BB80182E594E05F
:200D20000E94BD250FB6F894DEBF0FBECDBF68960FB6F894DEBF0FBECDBFDF91CF911F9123
:200D40000F9108950F931F9380911B03882309F470C080911E0390911F03209120033091F1
:200D600021038937910558F0233E44E0340760F041E0409333034FEF40931C0305C08837C3
:200D8000910511F010923303213040E1340750F0A4E036952795AA95E1F7315F309321035E
:200DA0002093200320912003309121032115304230F02FEF3FE13093210320932003803829
:200DC000910560F0F4E096958795FA95E1F7825A9F4F90931F0380931E030DC08B35910545
:200DE00050F063E070E00E94812A645C7F4F70931F0360931E0380911E0390911F038F37D1
:200E0000910530F08FE790E090931F0380931E0360913602709137028091380290913902B3
:200E20002AE530E040E050E00E94A92A422F437005C040912503443008F043E080911E032B
:200E400090911F03A0E0B0E01CE0880F991FAA1FBB1F1A95D1F7009120031091210320E061
:200E600030E053E1000F111F221F331F5A95D1F7802B912BA22BB32B009122030F7710E067
:200E800020E030E063E0000F111F221F331F6A95D1F7802B912BA22BB32B30911D033695A8
:200EA00036953370832B50E060E070E0EAE0440F551F661F771FEA95D1F7842B952BA62B23
:200EC000B72B8093090390930A03A0930B03B0930C031F910F910895CF92DF92EF92FF927D
:200EE000C0900903D0900A03E0900B03F0900C030E945C0687EA90E00E9469014AE050E0D1
:200F00006091270382E594E00E94882681EA90E00E946901409101035091020360910303F2
:200F20007091040327E030E082E594E00E94BF278AE990E00E94690140910503509106037D
:200F4000609107037091080327E030E082E594E00E94BF2783E990E00E946901C701B601A9
:200F6000B3E19695879577956795BA95D1F74AE050E082E594E00E94A6268CE890E00E944E
:200F80006901D701C6012AE0B695A795979587952A95D1F7BC01637077274AE050E082E5F9
:200FA00094E00E94A62685E890E00E946901D701C6013CE0B695A795979587953A95D1F745
:200FC000BC016F7777274AE050E082E594E00E94A6268EE790E00E946901D701C60143E07A
:200FE000B695A795979587954A95D1F7BC016F7777274AE050E082E594E00E94A62686E72A
:2010000090E00E946901B601677077274AE050E082E594E0FF90EF90DF90CF900C94AC26A5
:20102000CF92DF92EF92FF928DE690E00E9469010E9459226B017C010E9459226C197D09AF
:2010400060377741F8F488ED92E00E94BD11039791F488ED92E00E949912AB01BC0120E141
:2010600030E082E594E00E94C22688ED92E00E94511181E010C068EC70E080E090E00E94C9
:201080008622DACF88E690E00E94690182E594E00E94C62580E0FF90EF90DF90CF900895D4
:2010A000CF92DF92EF92FF92CF93DF93C82FD62F5F9A0E94A206CC2309F466C080913403DF
:2010C000882381F06DE073E08FE093E00E94EA0180910D0390910E03893E9340A8F01092BE
:2010E000330312C040E050E060EA71E440930F0350931003609311037093120386E094E025
:2011000090930E0380930D03C43049F58091200390912103892B09F540910F035091100344
:2011200060911103709112034093010350930203609303037093040360910D0370910E03BF
:2011400080E090E00E940B296093050370930603809307039093080302C00E9463044091FB
:20116000090350910A0360910B0370910C03487F8C2F8770482B4093090350930A036093B8
:201180000B0370930C0322C00E946F03409101035091020360910303709104034093170392
:2011A000509318036093190370931A0340910503509106036091070370910803409313034F
:2011C0005093140360931503709316030E946C070E9459226B017C01CC2361F0809132034D
:2011E000882341F05F98DF91CF91FF90EF90DF90CF900895809133038111F4CF2D2F4CE0AF
:2012000061E073E088ED92E00E9471110E94F7040E9459226C197D09683E734018F764E6B8
:2012200070E080E090E00E948622F2CF60E08AE00E947D2388E191E00E9469010E942B05DF
:2012400060E087E00E94500860E089E00E947D2364EF71E080E090E00C94862248E065E0D9
:2012600088ED92E00E942A1186E092E00E9406136DE18BEE91E00C94831D88ED92E00C9418
:201280003A11CF92DF92EF92FF9261E08AE00E947D230E9459226B017C010E9459226C198A
:2012A0007D0960377741F0F482E594E00E94B3231816190634F482E594E00E94CC238A9720
:2012C00039F064E670E080E090E00E948622E5CF8BEB90E00E9419068CEA90E00E9419062F
:2012E00081E005C060E08AE00E947D2380E0FF90EF90DF90CF900895CF93809135038823AD
:2013000009F4F1C08BEE91E00E94A51E8111EBC08BEE91E00E948E1D9091CD01891B992709
:2013200087FD909597FF03C0919581959109833010F0C1E024C08BEE91E00E94911D909142
:20134000CC01891B992787FD909597FF03C0919581959109833068F78BEE91E00E94941D35
:201360009091CB01891B992787FD909597FF03C0919581959109C1E0833008F4C0E08BEEDB
:2013800091E00E948E1D8093CD018BEE91E00E94911D8093CC018BEE91E00E94941D809344
:2013A000CB01CC2309F4A1C09091CD0129E0290F2331B8F49091CC0129E0290F233128F445
:2013C000893244F5883D44F106C0983D24F4875F833120F11BC09932CCF0875F833100F1D4
:2013E00015C099324CF09091CC01975F933170F4875F8331B8F00AC0983D44F49091CC01FE
:20140000975F933118F4875F833170F01092CA01C6E00BC0C0E009C0C1E007C0C2E005C0F6
:20142000C3E003C0C4E001C0C5E08091CA0181110CC080912503811121C0C230F9F481E016
:201440008093CA010E94A0011BC0813039F480912503823099F4C33089F40BC0823071F4E8
:2014600080912503833051F4C23019F0C11106C084E08093CA010E94A00102C01092CA01F4
:20148000C09325038091CA01833079F40E942B0584E190E00E94860118B817B81BB81AB8C1
:2014A00015B882E084B91092CA018091CA018430D1F4809127038A35A0F481E090912D03BE
:2014C000891B80932D0310922E03882331F080910B01811102C00E94410988E090E00E94AF
:2014E00086011092CA0181E001C080E0CF910895BF92CF92DF92EF92FF920F931F93CF938E
:20150000DF937C010E948C0281110E94160980912D03882379F080912203893108F499C1BE
:2015200080912E0391E0980F90932E03803308F090C102C00E94560680911C038F3F49F109
:2015400034E0E316F10401F5809126038823E1F0579890913A038AE0890F80933A038C337F
:2015600040F080913B038F5F80933B03925390933A0380913B03883138F010923B03809147
:201580003C038F5F80933C0360E08E2D0E945008579A0E947C09E114F10471F480911E033E
:2015A00090911F03409740F080911B03811104C084E080930A0109C010920A0184E0E81602
:2015C000F10419F48091260381111092CE01B0902D0334E0E316F10409F05AC0809126030D
:2015E000811156C02091CE01CAE9D1E0022E02C0CC0FDD1F0A94E2F7211106C080913A03D9
:20160000865F80933A030CC081E090E0022E01C0880F0A94EAF790913B03980F90933B038A
:2016200090913A039C3340F080913B038F5F80933B039C5390933A0380913B03883138F040
:2016400010923B0380913C038F5F80933C0380913C03803238F010923C0380913D038F5FD0
:2016600080933D0380913D038D3058F010923D0380913E0390913F03019690933F0380931B
:201680003E03233008F0E8C02F5F2093CE01E4C080913103CBE4D0E0C81BD10984E0E8169F
:2016A000F10409F4D9C080910A018111D5C0B110D3C008E010E082E594E00E940124C12CA1
:2016C000D12CCC16DD0608F063C020E030E040E050E0B80188E893E00E94C9102BB1206852
:2016E00080912D0330E4839FC0011124282B2BB980910B01882361F00E948C0280912203C7
:20170000823630F480912D03811102C00E9456060E947C09882341F180910B01882319F085
:201720000E94A00106C062E370E080E090E00E94862280910A018F5F80930A01083011057B
:2017400011F4D694C79484E0E816F10449F080912D0309E010E0B81639F0C0E0D0E004C00A
:2017600009E010E0C0E0D0E036E2C316D10449F480910A01811105C084E0E816F10409F07A
:201780006E013FEFC31AD30A8BB18F738BB999CF80910A0183303CF481E090912D039111B5
:2017A00003C080E001C081E080930A0184E0E816F10431F4CC15DD0518F48FEF80930A01DF
:2017C00080910A01181664F480912D03811108C010923703109236030E94410980930B010A
:2017E0000E9459226093290370932A0380932B0390932C0310921D0310921B0310921C03A7
:201800001092310310921F0310921E031092210310922003109205031092060310920703DF
:20182000109208031092010310920203109203031092040380910A01992787FD9095DF9168
:20184000CF911F910F91FF90EF90DF90CF90BF90089510922D0370CE09E010E02CCF8F920B
:201860009F92AF92BF92CF92DF92EF92FF920F931F93CF93DF930E9459226B017C0100EDA6
:2018800017E0C0E0D0E00E9459226C197D096017710710F582E594E00E94B3231816190645
:2018A000A4F40E9459226B017C015F9A04E610E0C1E00BC082E594E00E94CC23682F86E0E2
:2018C00092E00E9492178111D1E082E594E00E94B323892B79F7D7CFC11102C00E9441096B
:2018E00060E4862E63E0962E78E3A72E73E0B72EE9E3CE2EE3E0DE2EFAE3EF2EF3E0FF2EF0
:201900000BE313E02CE333E04DE353E06EE373E086E092E00E941319DD23E1F1940145E08B
:2019200053E061E073E086E092E00E94A61880914602909147028F3F910509F480E0809311
:201940001D0386E092E00E94E3190E94242A0E94DA289B0177FF04C022273327261B370B61
:20196000309321032093200386E092E00E94191A0E94242A0E94DF2870931F0360931E032B
:2019800080911C0390911D03890F80931C0310921B0305C080911B038F5F80931B035F9842
:2019A0008C2FDF91CF911F910F91FF90EF90DF90CF90BF90AF909F908F9008950E94C02273
:2019C00064E670E080E090E00E9486220E947A0126E040E855E260E070E082E594E00E94C4
:2019E000882482E594E00E94C62585E891E00E94690182E594E00E94C6250E9437050E9401
:201A00004F020E948C028AE791E00E9469014AE050E06091220382E594E00E94882687E74E
:201A200091E00E94690160912303709124034AE050E082E594E00E94AC2664E670E080E047
:201A400090E00E9486220E94410980930B01882341F08DE691E00E94190681E090E00E94CD
:201A600086010E94C20180933503882371F064EF71E080E090E00E9486220E947C09882393
:201A800021F082E090E00E94860181ED91E00E94262180933403882399F064EF71E080E0F0
:201AA00090E00E9486226DE073E08FE093E00E94EA010E94270283E090E00E94860108C0CE
:201AC00083E691E00E94690182E594E00E94C6250E941008882359F064EF71E080E090E096
:201AE0000E94862284E090E00E94860115C05E9A82E594E00E94012464EF71E080E090E0BC
:201B00000E94862260E089E00E947D2368EE73E080E090E00E9486220E949A0588E591E0AE
:201B20000E9469010E9452014AE050E0BC0182E594E00E94632642E050E06AE471E081E035
:201B40000E94A12110922F03109230030E9459226093290370932A0380932B0390932C0379
:201B6000C1E00E9459222091290330912A03621B730B603A7F40C8F05E9A64E670E080E0DE
:201B800090E00E9486220E947C095E98809131038F5F809331030E945922609329037093B5
:201BA0002A0380932B0390932C0380910A01813071F40E942F0C882351F020E030E040E03A
:201BC00050E065E070E088E893E00E94C91020911C03203440F080911E0390911F030B9777
:201BE0008634910510F427FF0AC080911B03811106C080E090E00E94780A80930A018091F7
:201C000031038E3120F480911B03883730F085E090E00E94780A80930A0180912F038823AA
:201C200021F0809130038823F9F080910A0181110FC08CE290E00E9450018093260381119F
:201C40000E94FC0384E090E00E94780A80930A0180910A018F3F09F084CF86E090E00E941F
:201C6000780A80930A017DCF10922F0310921F0310921E03109221031092200310920503E8
:201C80001092060310920703109208031092010310920203109203031092040360E083E0FF
:201CA0000E945008C0933003C0CF209186033091870328173907B9F49091440380914503A3
:201CC000981789F0E0914403F0E0EA5BFC4F80812091440330E02F5F3F4F2F7333272093F0
:201CE000440390E008958FEF9FEF08951F93CF93DF93DC015C968D919C915D97009749F47F
:201D000081E090E013969C938E93129780E090E03BC05196ED91FC91529750962C91509720
:201D2000322F30951FB75E964C915E9741FB772770F941FD6095F8944081772311F0422B16
:201D400001C043234083EC012197F1F748E0508160FF02C0522B01C053235083EC012197C6
:201D6000F1F76695415099F78081772311F0832301C0822B80831FBF5C968D919C915D979D
:201D80000197F1F781E090E0DF91CF911F910895089520918603309187032817390771F4CF
:201DA0009091440380914503981741F0E0914403F0E0EA5BFC4F808190E008958FEF9FEF50
:201DC000089520918603309187032817390771F4809145032091440390E0805C9F4F821BD5
:201DE000910960E470E00E94952A089580E090E00895E0918603F0918703E817F90769F4E9
:201E0000A389B4899C918589809589238C93109287031092860381E0089580E00895CF938A
:201E2000DF93EC018A8D9B8D892BF1F080918603909187038C179D07B9F0009711F00E9400
:201E4000F90E8E8D8E7F8E8F1092450310924403D0938703C0938603EB89FC8980819D897A
:201E6000892B808381E001C080E0DF91CF9108951F920F920FB60F9211242F933F934F9359
:201E80005F936F937F938F939F93AF93BF93EF93FF93E0918603F0918703309709F451C066
:201EA000868DA685B785958581FF04C08C91892329F447C08C91892309F043C0A389B4892F
:201EC0009C918589809589238C93868997890197F1F7208D318DA685B785758558E040E014
:201EE000C9010197F1F7842F90E095958795482F6C91672309F04068515091F7868D81FDD6
:201F000040958091450390E001968F73992720914403281749F0A0914503B0E0AA5BBC4F41
:201F20004C938093450303C0868D8160868F828D938D0197F1F7A389B4898C919589892B94
:201F40008C93FF91EF91BF91AF919F918F917F916F915F914F913F912F910F900FBE0F90F7
:201F60001F9018952DE431E0FC01318320830C94F90E1F93CF93DF93EC01162F6E8D66953A
:201F8000617081E06827812F0E947D2361E0812F0E944423812F90E0FC01EE50FE4FE49177
:201FA000E88BFC01EA5FFD4FE491F0E0EE0FFF1FEC5DFD4F859194919A8B898BDF91CF91E3
:201FC0001F9108951F93CF93DF93EC01162F60E0812F0E9444238E8D81FD04C061E0812FB5
:201FE0000E947D231C87812F90E0FC01EE50FE4FE491ED87FC01EA5FFD4FE491F0E0EE0F97
:20200000FF1FE65EFD4F859194919F878E87DF91CF911F910895FF920F931F93CF93DF93C6
:20202000EC01F62E522F1B821A8208EE13E020E030E00C831D832E833F838DE491E099833C
:2020400088831F8A1E8A198E188E1B8E1A8E1D8E1C8E8E8D8E7F50FB81F98E8F642FCE01C5
:202060000E94B90F6F2DCE01DF91CF911F910F91FF900C94E20FCF93DF93EC019A01AB0143
:202080001B8E1A8E198E188E1F8A1E8A60EC76EC8DE290E00E94CB2AC9012430310520F0C9
:2020A000B9016350710902C061E070E07D8F6C8FEC85E63108F068C0B901769567956431E1
:2020C000710518F06351710902C061E070E07F8B6E8B069718F0C901059702C081E090E060
:2020E000998F888FC901880F991F820F931F96958795969587958D30910510F00C9702C0FF
:2021000081E090E09B8F8A8F20916800E83050F091E0EE3008F490E081E001C0880F9A9557
:20212000EAF701C084E0822B809368002C85283038F02E3040F0263148F48CE690E008C075
:202140008DE690E005C08BE690E002C080E090E09C8B8B8B283030F481E001C0880F2A9533
:20216000EAF70DC0822F90E02E3010F4089701C00E9791E001C0990F8A95EAF7892F8D8B7F
:202180008C8D9D8D0197F1F7CE01DF91CF910C940F0F4115510529F4EAE7F0E080818F77AE
:2021A00080836A307105B1F063FF02C088E201C088E06770682B88E190E00FB6F894A895E3
:2021C000809360000FBE60936000E0E6F0E0808180648083232BA1F483B7817F846083BFAB
:2021E000F89483B7816083BF85B7806685BF8F7D85BF7894889583B78E7F83BF78940EC0B4
:2022000083B7817F846083BFF89483B7816083BF7894889583B78E7F83BF7894452B29F42A
:20222000EAE7F0E080818068808308951F920F920FB60F9211248F9388E10FB6F894809398
:202240006000109260000FBE8F910F900FBE0F901F901895CF93DF93EC0120E00E940B104A
:202260004FEF5FEFBA014F8F58A369A37AA3DF91CF9108950C94B20F0F931F93CF93DF931F
:202280008C01FB016491EF012196662329F0C8010E94BF25FE01F6CFDF91CF911F910F9144
:2022A0000895CF93DF93EC0169EC71E00E943C11CE010E94C62562E370E080E090E00E94C8
:2022C000862264EC71E0CE010E943C11CE010E94C62562E370E080E090E0DF91CF910C94C6
:2022E0008622BF92CF92DF92EF92FF920F931F93CF93DF938C01F62EE72EC42ED22E67EDCD
:2023000071E00E943C11BF2CCF2DDE2D8C2F8B198C15B8F47E01688162956F7060636A3341
:2023200008F0695DC8010E94760E2196F70160816F7060636A3308F0695DC8010E94760E74
:20234000E5CFDD2029F062ED71E0C8010E943C11C8010E94C6250E945922F801678F70A3E6
:2023600081A392A381E0DF91CF911F910F91FF90EF90DF90CF90BF9008956F927F928F9288
:202380009F92AF92BF92CF92DF92EF92FF920F931F93CF93DF9300D000D01F92CDB7DEB704
:2023A0007C0140E855E260E070E00E943B1060E0C7010E94760E6BE3C7010E94760E1982BF
:2023C0001A821B821C821D820E9459224B015C01CE0101966C0100E010E03C010E945922C4
:2023E000681979098A099B096233710581059105A8F4C7010E94E10E181619067CF7C701FF
:202400000E94550E0430110519F48FEF9FEF0EC0F60181936F010F5F1F4FE0CF69E571E0E1
:20242000C3010E94302B892B81F7C8010F900F900F900F900F90DF91CF911F910F91FF901C
:20244000EF90DF90CF90BF90AF909F908F907F906F9008950F931F93CF93DF93EC01CE01C4
:202460000E94E10E892B89F40E9459220F8D18A129A13AA1601B710B820B930B613D77400C
:202480008105910560F35F98EACFCE010E94550E182FCE010E94550ECB97D9F7812FDF91DC
:2024A000CF911F910F910895CF92DF92EF92FF920F931F93CF93DF93EC01E62ED72EF42E9B
:2024C0000E9459226F8F78A389A39AA360E0CE010E94760E6EEC71E0CE010E943C116F2D23
:2024E000CE010E94760ECE2C0E2D1D2D802F8C198F1538F4F80161918F01CE010E94760ED4
:20250000F5CF6BE3CE010E94760ECE010E942A128F3429F4CE010E942A1281E001C080E0F8
:20252000DF91CF911F910F91FF90EF90DF90CF900895BF92CF92DF92EF92FF920F931F9379
:20254000CF93DF93CDB7DEB728970FB6F894DEBF0FBECDBF8C0160E00E94760E6EEB71E0EB
:20256000C8010E943C11CE0101967C0188E0F70111928A95E9F7C8010E94E10E892BD9F3E4
:20258000B12CC8010E94C90ECB2CD12CCB9719F4F5E0FB1570F0C8010E94550EF701EC0DB5
:2025A000FD1D8083C8010E94E10E892BD9F3B394E8CFC8010E94550E40E060E070E0CB01DC
:2025C00022E0C21AD108242F30E02C153D0574F4982F872F762F6627F701E20FF31F2081AB
:2025E000620F711D811D911D4F5FEDCF28960FB6F894DEBF0FBECDBFDF91CF911F910F9101
:20260000FF90EF90DF90CF90BF9008950F931F93FC010FEF1FEF980100831183228333838A
:2026200010861186128613864FEF59EC6AE97BE3408B518B628B738B408F518F628F738FD4
:2026400040A351A362A373A340A751A762A773A740AB51AB62AB73AB00AF11AF22AF33AF52
:20266000DC01A05CBF4F8FEF90E011969C938E9314960D931D932D933C93139718960D930D
:202680001D932D933C93139718961C9211961C92509686E08C9311961C9211961C921196E4
:2026A0001C92EA5AFF4F10821F910F9108952FEB260F862F992787FD9095263010F4C79736
:2026C00008956156663018F4875591090895C09708950F931F93FB0160E070E0CB010191BF
:2026E00020ED200F2A30A0F4AAE0B0E09B01AC010E94EA2A112707FD1095212F312F600F97
:20270000711F821F931F6053710981099109E7CF1F910F9108950F931F93CF93FC01EA5AEB
:20272000FF4FC1E020812D3219F0C0E08F0103C08C01095A1F4FB8010E9469139B01AC0130
:20274000A4E6B0E00E94EA2AF801DF01219130ED320F3A30D0F32E3269F511962C911197C9
:2027600030ED320F3A3030F5332727FD3095205331094AE0429F8001439F100D1124222773
:2027800017FD2095322F600F711F821F931F12960C9120ED200F2A3068F4112707FD1095A5
:2027A00000531109222717FD2095322F600F711F821F931FCC2339F090958095709561959A
:2027C0007F4F8F4F9F4FCF911F910F9108954F925F926F927F928F929F92AF92BF92CF92E9
:2027E000DF92EF92FF92CF93DF93EC01CA5ADF4FBE010E9469132B013C0124E630E040E0C3
:2028000050E00E94A92A9B01AC0160EA76E881E090E00E94712A6B017C01FE01819190ED9D
:20282000980F9A30D8F38E3219F5EF0180E1882E87E2982EA12CB12CA99180ED8A0F8A30B4
:20284000B8F4BB27A7FDB095D097A50194010E94F52AC60ED71EE81EF91EC501B4012AE033
:2028600030E040E050E00E94A92A49015A01E4CFC701B6016D5F7F4F8F4F9F4F26E030E030
:2028800040E050E00E94A92A69017A01C301B20124E630E040E050E00E94A92A60E472E49E
:2028A0008FE090E00E94712AC60ED71EE81EF91EC701B601DF91CF91FF90EF90DF90CF90EB
:2028C000BF90AF909F908F907F906F905F904F900895DB01FA018D91882319F09191891738
:2028E000D1F3992787FD90950895CF92DF92EF92FF920F931F93CF93DF93EC01FC01EB5AD3
:20290000FF4F1081112309F4B1C0319660810E945713182FFE01E95AFF4F6081CE010E9459
:20292000571350E1159F800D1124FE01EC5AFF4F9081891711F010E0EBC2FE01EB59FF4F13
:202940002081213081F48C819D81AE81BF8188839983AA83BB838C859D85AE85BF8588872B
:202960009987AA87BB87FE01E859FF4F1081112311F3B09780819181A281B38134978083EE
:202980009183A283B3833C9680819181A281B381349780839183A283B3832223A1F1213027
:2029A00009F0B6C28C819D81AE81BF8188839983AA83BB838C859D85AE85BF8588879987A1
:2029C000AA87BB878C899D89AE89BF89888B998BAA8BBB8B8C8D9D8DAE8DBF8D888F998F0F
:2029E000AA8FBB8F8CA59DA5AEA5BFA588A799A7AAA7BBA78CA99DA9AEA9BFA988AB99AB57
:202A0000AAABBBAB85C28CA19DA1AEA1BFA188A399A3AAA3BBA38C819D81AE81BF818883E3
:202A20009983AA83BB838C899D89AE89BF89888B998BAA8BBB8B8C8D9D8DAE8DBF8D888FC2
:202A4000998FAA8FBB8FFE01E05CFF4FDE01AE5BBF4F8D919C91918380838CAD9DADAEAD0C
:202A6000BFAD88AF99AFAAAFBBAF52C2FC01EA59FF4FE0808B599F4F6C01E11017C07E0120
:202A800096E5E90EF11C48E651E0B701CE010E946914892B09F4FBC14EE651E0B701CE0159
:202AA0000E946914892B09F4F2C1F3C1FC010081063009F440CFCE018A5A9F4FFC014081C0
:202AC000442309F438CFF0E20F9F90011124F12C2E293F292434310509F4FEC008F067C001
:202AE0002232310509F4CEC078F52530310509F4FBC098F42230310509F4CBC028F4213008
:202B0000310509F4B3C004C22330310509F4D1C02430310509F4E0C0FBC12830310509F4C4
:202B20001DC148F42630310509F40AC12730310509F40EC1EDC12930310509F417C1213269
:202B4000310509F493C0E4C12732310509F4E8C078F42432310509F4ACC008F49AC0253208
:202B6000310509F4B9C02632310509F4BDC0D0C12134310509F47AC088F42832310509F445
:202B8000D7C02932310509F0C3C1BC01CE010E9469136C877D878E879F87BAC122343105AD
:202BA00009F477C02334310509F483C0B1C12039310509F418C158F52438310509F413C18D
:202BC00078F42634310509F4A2C008F48DC02734310509F4BDC02238310509F4CFC098C1D1
:202BE0002B38310509F406C148F42738310509F401C12838310509F4F6C08AC12C383105BA
:202C000009F4F1C02F38310509F4F4C081C1283A310509F4E8C098F4223A310509F4AEC0B0
:202C200028F42339310509F4E5C072C1243A310509F4D9C0273A310509F4DCC069C12F3A24
:202C4000310509F4D7C048F42B3A310509F4D2C02C3A310509F4C7C05BC1203B310509F47A
:202C6000C2C0233B310509F4C5C052C1CE010E948B136C837D838E839F830E945922C85B38
:202C8000DF4F12C0C859DF4F81E0413409F05EC0A8C0CE010E94E7136C8B7D8B8E8B9F8BE3
:202CA0000E945922C05BDF4F688379838A839B832FC1433509F03FCE8C899D89AE89BF8974
:202CC000B095A095909581959F4FAF4FBF4F8C8B9D8BAE8BBF8B1CC1CE010E94E7136C8F40
:202CE0007D8F8E8F9F8F14C1473509F024CE8C8D9D8DAE8DBF8DB095A095909581959F4FD4
:202D0000AF4FBF4F8C8F9D8FAE8FBF8F01C145E050E0BC01CE0187599F4F0E94392BF8C0A6
:202D2000CE010E948B136CA77DA78EA79FA7F0C0CE010E948B136CAB7DAB8EAB9FABE8C0A9
:202D4000C859DF4F81E041330CF04BC080E049C00E94122BCE5BDF4F992749C0CE010E946F
:202D60008B136CAF7DAF8EAF9FAFD2C0CE010E948B136CA37DA38EA39FA3CAC00E94122B37
:202D8000815069F0CF52DF4F982F990F990F9883053009F0D0CD880F880F845F22C020E0CA
:202DA00030E0043079F4FE01E20FF31FE159FF4F10821182128213822C5F3F4F20333105E8
:202DC00091F7E0CFFE01E20FF31FE156FF4F10821182128213822C5F3F4F2033310591F7BD
:202DE000D1CF888395C00E94122BC153DF4F998388838EC00E94122BFE01EF52FF4F81113E
:202E00001AC0208130E0C701079797FD03969595879595958795820F931F880F991F880FDF
:202E2000991F8C0F9D1FFC01E159FF4F10821182128213826DC0408150E097012750310949
:202E400037FF02C02D5F3F4F3595279535952795240F351F220F331F220F331F2C0F3D1F30
:202E6000F901E159FF4FAC015527440F551FC153DF4F80E090E09881482B592B662757FDDD
:202E80006095762F408351836283738341C081E026C04CE851E0B701CE010E946914892B1F
:202EA00019F4F601108234C044E751E0B701CE010E946914892B11F482E011C04AE751E038
:202EC000B701CE010E946914892B41F040E851E0B701CE010E946914892B21F483E0F60145
:202EE000808316C042E951E0B701CE010E946914892B11F484E0F3CF46E851E0B701CE0132
:202F00000E946914892B11F485E0E9CF86E0E7CF812FDF91CF911F910F91FF90EF90DF9053
:202F2000CF900895CF92DF92EF92FF920F931F93CF93DF931F92CDB7DEB76C018C01095963
:202F40001F4F8B5A9F4F7C01643281F12CF46A3069F06D30E9F50AC06A3241F06C32C1F532
:202F6000F601EC5AFF4F808186278083F80180818F3060F4F601E80FF11DEA5AFF4F1082E8
:202F8000C60169830E947514698101C080E0F601EA59FF4F90819F5F9083F801108291E0A2
:202FA0006A3209F090E0F70190832AC0F8011082F601EA59FF4F108272971082719686E06A
:202FC0008083F7011082F601E859FF4F108217C0F80180818E3048F491E0980F9083F6015F
:202FE000E80FF11DEA5AFF4F6083F7018081811106C0F601EC5AFF4F80818627808380E06A
:203000000F90DF91CF911F910F91FF90EF90DF90CF900895CF92DF92EF92FF920F931F9340
:20302000CF93DF93E9016115710551F0FC01C088D188E288F388FB01C082D182E282F382B8
:203040004115510551F0FC01C08CD18CE28CF38CFA01C082D182E282F382209701F18C0151
:20306000045B1F4FF80180819181A281B3818F3F9F4FAF4FBF4F61F00E945922F801008170
:20308000118122813381601B710B820B930B03C06FEF7FEFCB01688379838A839B83DF9148
:2030A000CF911F910F91FF90EF90DF90CF900895CF92DF92EF92FF920F931F93CF93DF93DB
:2030C000E9016115710551F0FC01C084D184E284F384FB01C082D182E282F3824115510550
:2030E00051F0FC01C080D180E280F380FA01C082D182E282F382209701F18C010C5B1F4FB8
:20310000F80180819181A281B3818F3F9F4FAF4FBF4F61F00E945922F80100811181228167
:203120003381601B710B820B930B03C06FEF7FEFCB01688379838A839B83DF91CF911F91CC
:203140000F91FF90EF90DF90CF900895AF92BF92CF92DF92EF92FF920F931F93CF93DF93B8
:20316000CDB7DEB728970FB6F894DEBF0FBECDBF5B018A01AE014F5F5F4FBE016B5F7F4FE7
:203180000E940A18CD80DE80EF80F8848FEFC81689ECD8068AE9E8068BE3F80659F0C70148
:2031A000B6010E940D2920E034E244E759E40E94722804C060E070E08AE794E4F5016083B0
:2031C000718382839383FFEFCF16F9ECDF06FAE9EF06FBE3FF0669F069817A818B819C8121
:2031E0000E940D2920E034E244E759E40E94722804C060E070E08AE794E4F8016083718330
:203200008283938328960FB6F894DEBF0FBECDBFDF91CF911F910F91FF90EF90DF90CF9092
:20322000BF90AF9008952F923F924F925F926F927F928F929F92AF92BF92CF92DF92EF92B6
:20324000FF920F931F93CF93DF93CDB7DEB72A970FB6F894DEBF0FBECDBF2B015A874987B7
:2032600019019401AE014F5F5F4FBE016B5F7F4F0E94581841145104B9F06D817E818F81DB
:20328000988524E630E040E050E00E94A92A613571051CF02CE637E002C020ED37E0620F9A
:2032A000731FF2017183608389859A85892BB1F06D817E818F81988534E6432E512C612C81
:2032C000712CA30192010E94A92ACA01B901A30192010E94A92AE985FA856083211431043A
:2032E00061F06D817E818F81988520E137E240E050E00E94A92AF10120830115110561F072
:2033000069817A818B819C8120E432E44FE050E00E94A92AF8012083E114F104A1F06981B0
:203320007A818B819C8120E137E240E050E00E94A92ACA01B90124E630E040E050E00E94F9
:20334000A92AF7016083C114D104A9F069817A818B819C8124E6422E512C612C712CA301A9
:2033600092010E94A92ACA01B901A30192010E94A92AF6016083A114B10461F069817A819A
:203380008B819C8124E630E040E050E00E94A92AF50160832A960FB6F894DEBF0FBECDBF45
:2033A000DF91CF911F910F91FF90EF90DF90CF90BF90AF909F908F907F906F905F904F9059
:2033C0003F902F900895FC0160A171A182A193A16F3FF9EC7F07FAE98F07FBE39F0749F00C
:2033E0000E940D2920E030E048EC52E40E947228089560E074E284E799E40895FC0160A585
:2034000071A582A593A56F3FF9EC7F07FAE98F07FBE39F0749F00E940B2920E030E048ECCE
:2034200052E40E947228089560E070E080E89FEB0895CF92DF92EF92FF920E94FE196B0155
:203440007C0120E030E040E85FEB0E946E28882349F026E53EE04DEE5FE3C701B6010E948A
:20346000C12904C060E070E080E89FEBFF90EF90DF90CF9008958091B90390E02091BA03F8
:20348000821B910908952091BA038091B903281750F4E22FF0E0E554FC4F808190E02F5F36
:2034A0002093BA0308958FEF9FEF0895E091BA038091B903E81730F4F0E0E554FC4F8081E3
:2034C00090E008958FEF9FEF08950895CF92DF92EF92FF920F931F93CF93DF937C01CB0144
:2034E0008A0120919503222389F0EB016B01C40ED51ECC15DD0569F06991D701ED91FC9124
:203500000190F081E02DC7010995F3CF642F0E94261CC801DF91CF911F910F91FF90EF9006
:20352000DF90CF900895CF93DF931F92CDB7DEB76983209195032223D1F0209196032032AB
:2035400040F021E030E0FC013383228380E090E015C080919703E82FF0E0E856FC4F9981F8
:2035600090838F5F809397038093960305C061E0CE0101960E94261C81E090E00F90DF91C1
:20358000CF910895FC011382128248EE53E060E070E044835583668377838CE991E0918393
:2035A000808308951092BA031092B90310929703109296030C94691B81E080939503609314
:2035C000B803109297031092960308950C94DC1A0F93062F21E04091960368E973E080918F
:2035E000B8030E94CF1B1092970310929603109295030F9108958F929F92AF92BF92CF9251
:20360000DF92EF92FF920F931F93CF93DF93EC01F62ED42E48015901EE2019F10E94DC1A99
:203620001E2D143008F013E01150B8F0E881F98128E0129FB0011124A501940104C056959B
:203640004795379527956A95D2F7CA01B9010190F081E02DCE010995E7CF60E0CE010E94D6
:20366000E81A4D2D413208F040E22C2D6BEB73E08F2D0E94871B1092BA038093B903DF91A1
:20368000CF911F910F91FF90EF90DF90CF90BF90AF909F908F900895CF92EF920F931F93EF
:2036A000C22EE12C00E010E098010E94FB1A1F910F91EF90CF90089521E00C944C1B21E019
:2036C0000C944C1B61E00C94E81A89E893E00C94C21A1092480481E0809346041092450409
:2036E00061E082E10E947D2361E083E10E947D23E9EBF0E080818E7F808380818D7F808338
:2037000084E38093B80085E48093BC000895413208F043C0909148049111FCCF91E09093C6
:203720004804209346042FEF2093DB0310922004240F20931F049093470490914704880F51
:20374000892B8093470480914504813061F410924504809147048093BB008091BC0083FD95
:20376000F8CF85EC01C085EE8093BC00809148048130E1F380912004841710F44091200463
:2037800021E234E0FB01D9018A2F821B841718F48D918193F9CF842F089580E008950F9356
:2037A000413208F04AC0909148049111FCCF92E090934804009346049FEF9093DB031092CB
:2037C000200440931F04FB0161E274E0DB019A2F961B941718F491919D93F9CF1092470428
:2037E00090914704880F892B8093470480914504813061F410924504809147048093BB003F
:203800008091BC0083FDF8CF85EC01C085EE8093BC00222321F0809148048230E1F38091D6
:20382000DB038F3F61F08091DB03803251F08091DB03803341F483E007C081E005C080E022
:2038400003C082E001C084E00F910895613298F420914804243089F46093FD03FC018FEF86
:2038600093E0DC012A2F281B261718F421912D93F9CF80E0089581E0089582E0089585ED6D
:203880008093BC008091BC0084FDFCCF10924804089585EC8093BC001092480408951F9239
:2038A0000F920FB60F9211242F933F934F935F936F937F938F939F93AF93BF93EF93FF9354
:2038C0008091B900887F803609F49EC078F5883209F45DC090F4803109F456C038F48823A6
:2038E00009F4F5C0883009F44FC0F5C0883109F44EC0803209F45FC0EEC0803409F46AC082
:2039000058F4803309F457C0883309F0E4C08093DB030E94491CDFC0803509F44FC0883527
:2039200009F45DC0883409F0D6C0D3C0883909F4C4C0A8F4883709F467C038F4883609F4E7
:2039400063C0803709F460C0C6C0883809F4B5C0803909F45FC0803809F0BDC05BC0803BDF
:2039600009F483C038F4803A09F466C0883A09F47CC0B1C0803C09F4A4C0883C09F4A1C053
:20398000883B09F487C0A7C08091470410C09091200480911F04981770F5E091200481E00A
:2039A0008E0F80932004F0E0EF5DFB4F80818093BB0085EC83C08093DB038BC0E091200479
:2039C00081E08E0F809320048091BB00F0E0EF5DFB4F80839091200480911F046BC0E09168
:2039E000200481E08E0F809320048091BB00F0E0EF5DFB4F80838091460481116AC081E0C1
:203A00008093450484EA5EC083E0809348041092DC03CFCF8091DC03803208F04EC0E091C4
:203A2000DC0381E08E0F8093DC038091BB00F0E0E352FC4F8083BDCF0E94491C8091DC0315
:203A4000803230F4E091DC03F0E0E352FC4F10826091DC0370E0E0914104F09142048DED47
:203A600093E009951092DC0336C084E0809348041092FE031092FD03E0914304F091440435
:203A800009958091FD03811105C081E08093FD031092FF03E091FE0381E08E0F8093FE0384
:203AA000F0E0E150FC4F80818093BB009091FE038091FD03981708F47CCF85E88093BC0086
:203AC0000AC085EC8093BC001092480404C01092DB030E943F1CFF91EF91BF91AF919F91DD
:203AE0008F917F916F915F914F913F912F910F900FBE0F901F901895DC01ED91FC91019056
:203B0000F081E02D0994FC01608340EE5EE265E672E4478B508F618F728F0895FC0183815B
:203B20000895FC0184810895FC01858108951F93CF93DF93EC01162F688189E893E00E9482
:203B4000DC1A612F89E893E00E94931A60E089E893E00E94E81A41E0688189E893E00E9454
:203B60005C1B89E893E00E943B1A892B29F089E893E00E94431A01C080E0DF91CF911F91A2
:203B800008951F93CF93DF93EC01688189E893E00E94DC1A6AE289E893E00E94931A89E8C0
:203BA00093E00E94621B41E0688189E893E00E945C1B89E893E00E943B1A892B31F089E84B
:203BC00093E00E94431A182F01C010E0688189E893E00E94DC1A6AE289E893E00E94931A97
:203BE000612F70E06E7F89E893E00E947C1D89E893E0DF91CF911F910C94621B1F93CF9344
:203C0000DF93EC01688189E893E00E94DC1A6AE289E893E00E94931A89E893E00E94621B5E
:203C200041E0688189E893E00E945C1B89E893E00E943B1A892B31F089E893E00E94431AEA
:203C4000182F01C010E0688189E893E00E94DC1A6BE270E089E893E00E947C1D69E070E0B2
:203C600089E893E00E947C1D89E893E00E94621B688189E893E00E94DC1A6AE289E893E08D
:203C80000E94931A8A85882319F060E070E002C062E070E01163612B89E893E00E947C1D0F
:203CA00089E893E0DF91CF911F910C94621BCF93DF93EC016A874A836DE00E94971D688178
:203CC00089E893E00E94DC1A6BE270E089E893E00E947C1D60E470E089E893E00E947C1DF9
:203CE00089E893E00E94621B6AE070E080E090E00E948622CE010E94C11D688189E893E0F1
:203D00000E94DC1A6EE070E089E893E00E947C1D8A81843029F0883051F462E070E002C025
:203D200061E070E089E893E00E947C1D05C060E089E893E00E94931A89E893E00E94621B98
:203D4000CE01DF91CF910C94FE1D1F93CF93DF93EC01688189E893E00E94DC1A60E089E880
:203D600093E00E94931A60E089E893E00E94E81A182F8A85882311F047E001C044E06881C2
:203D800089E893E00E945C1B89E893E00E943B1A892B71F189E893E00E94431A89838A8537
:203DA0008823B9F089E893E00E94431A89E893E00E94431A8B8389E893E00E94431A89E887
:203DC00093E00E94431A8C8389E893E00E94431A0AC089E893E00E94431A8B8389E893E0E0
:203DE0000E94431A8C8389E893E00E94431A8D83812FDF91CF911F910895CF92DF92EF92A2
:203E0000FF92CF93DF93EC019B0140E050E08E859F85281B390B41095109AC85BD850E94ED
:203E2000EA2A6B017C018FE0F594E794D794C7948A95D1F76E897F89882777FD8095982F67
:203E40002BE0660F771F881F991F2A95D1F7288D398D442737FD4095542F2C0D3D1D4E1DF6
:203E60005F1D0E94CB2A2C0D3D1D4E1D5F1D288339834A835B83CA01B901685F7F4F8F4FAB
:203E80009F4F34E095958795779567953A95D1F70E940D2920E030E040E251E40E947228C0
:203EA000DF91CF91FF90EF90DF90CF9008952F923F924F925F926F927F928F929F92AF92B0
:203EC000BF92CF92DF92EF92FF920F931F93CF93DF93CDB7DEB728970FB6F894DEBF0FBEF2
:203EE000CDBF1C014D835E836F837887DC01CD90DD90ED90FC90B0EACB1ABFE0DB0AE108DB
:203F0000F108A7019601C701B6010E94712A4B015C01F10104811581A085B1850E94F52ADB
:203F20002B013C018DE075946794579447948A95D1F7A089B189A50194019CE0559547951A
:203F4000379527959A95D1F70E94F52ABB2797FDB095AB2F480E591E6A1E7B1EF2E04F0E6F
:203F6000511C611C711C32E075946794579447943A95D1F780E8580E611C711CF101A28566
:203F8000B385A30192010E94EA2ADC01CB014FE0B695A795979587954A95D1F789839A8385
:203FA000AB83BC832801662457FC6094762C52E0440C551C661C771C5A95D1F7A289B389D2
:203FC000A50194010E94F52A4B015C0167E1B594A794979487946A95D1F7A681B781A7015C
:203FE00096010E94F52AEBE09595879577956795EA95D1F7860E971EA81EB91E480C591C5A
:204000006A1C7B1C92E0490E511C611C711CF2E07594679457944794FA95D1F78D819E8123
:20402000AF81B88584199509A609B7098D839E83AF83B887A0E5B3EC2D813E814F81588589
:204040000E94EA2A97FD0DC0660F771F881F991F29813A814B815C810E94A92A49015A01B7
:204060000CC029813A814B815C810E94A92A49015A01880C991CAA1CBB1C9927B7FC9A95C4
:204080008B2D7A2D692D9B01AC010E94712A9B01AC01AEEDBBE00E94EA2A6C01FF24D7FC0D
:2040A000F094EF2CA3E4B3EEA50194010E94F82ABB2797FDB095AB2FC80ED91EEA1EFB1EB7
:2040C0009FECC90E9EE0D91EE11CF11CF4E0F594E794D794C794FA95D1F7C80CD91CEA1C3B
:2040E000FB1CC701B60128960FB6F894DEBF0FBECDBFDF91CF911F910F91FF90EF90DF9088
:20410000CF90BF90AF909F908F907F906F905F904F903F902F900895CF93C62F67E770E068
:2041200089E893E00E94E61A6C2F89E893E00E94931A89E893E00E94621B41E050E067E789
:2041400070E089E893E00E945F1B89E893E00E943B1A892BD1F389E893E00E94431ACF9179
:2041600008950F931F93CF93DF93EC0167E770E089E893E00E94E61A64EF70E089E893E0E2
:204180000E947C1D64E370E089E893E00E947C1D89E893E00E94621B65E070E080E090E0C6
:2041A0000E94862266EFCE010E948C20182F67EFCE010E948C20082F68EFCE010E948C20DE
:2041C000402F50E060E070E0762F652F542F4427612B9927872F762F652FDF91CF911F91CE
:2041E0000F9108951F93CF93DF93162F67E770E089E893E00E94E61A612F89E893E00E947D
:20420000931A89E893E00E94621B42E050E067E770E089E893E00E945F1B89E893E00E9478
:204220003B1A0297D4F389E893E00E94431A182F89E893E00E94431AD12F20E0C22F9E012C
:20424000282BC901DF91CF911F910895CF93DF93EC0189E893E00E94D21A6AEACE010E942C
:20426000F2209D838C836CEACE010E94F2209F838E836EEACE010E94F2209987888760EB9C
:20428000CE010E94F2209B878A8762EBCE010E94F2209D878C8764EBCE010E94F2209F8769
:2042A0008E8766EBCE010E94F220998B888B68EBCE010E94F2209B8B8A8B6AEBCE010E9407
:2042C000F2209D8B8C8B6CEBCE010E94F2209F8B8E8B6EEBCE010E94F220998F888F60ED08
:2042E000CE010E948C2091E0853509F090E0892FDF91CF910895CF93DF93EC0167E770E089
:2043000089E893E00E94E61A64EF70E089E893E00E947C1D6EE270E089E893E00E947C1D96
:2043200089E893E00E94621B65E070E080E090E00E94862266EFCE01DF91CF910C94F22025
:2043400008958230E8F4E82FF0E0EE0FFF1FE45FFE4F71836083813041F0809169008C7F62
:20436000842B80936900E89A089580916900440F551F440F551F837F842B80936900E99A3B
:2043800008951F920F920FB60F9211242F933F934F935F936F937F938F939F93AF93BF932F
:2043A000EF93FF93E0910C01F0910D010995FF91EF91BF91AF919F918F917F916F915F914E
:2043C0004F913F912F910F900FBE0F901F9018951F920F920FB60F9211242F933F934F93A3
:2043E0005F936F937F938F939F93AF93BF93EF93FF93E0910E01F0910F010995FF91EF91FC
:20440000BF91AF919F918F917F916F915F914F913F912F910F900FBE0F901F9018951F9234
:204420000F920FB60F9211242F933F938F939F93AF93BF9380914A0490914B04A0914C0474
:20444000B0914D04309149042DE2230F2D3720F40196A11DB11D05C020EB230F0296A11D88
:20446000B11D2093490480934A0490934B04A0934C04B0934D0480914E0490914F04A0917C
:204480005004B09151040196A11DB11D80934E0490934F04A0935004B0935104BF91AF9185
:2044A0009F918F913F912F910F900FBE0F901F9018952FB7F89460914A0470914B048091A3
:2044C0004C0490914D042FBF08959FB7F89440914E0450914F04609150047091510486B580
:2044E000A89B06C08F3F21F04F5F5F4F6F4F7F4F9FBF2227342F452F562F280F311D411D06
:20450000511DA5E0B0E00E94EA2A08958F929F92AF92BF92CF92DF92EF92FF926B017C0114
:204520000E9465224B015C01C114D104E104F104F1F00E9408280E946522681979098A09B3
:204540009B09683E73408105910570F321E0C21AD108E108F10888EE880E83E0981EA11C65
:20456000B11CC114D104E104F10429F7DDCFFF90EF90DF90CF90BF90AF909F908F900895C9
:20458000789484B5826084BD84B5816084BD85B5826085BD85B5816085BDEEE6F0E08081F8
:2045A00081608083E1E8F0E01082808182608083808181608083E0E8F0E0808181608083A4
:2045C000E1EBF0E0808184608083E0EBF0E0808181608083EAE7F0E080818460808380814D
:2045E0008260808380818E7F80838081806880831092C10008958093100108958E3008F062
:204600008E5087702091100190E4299F90011124822B80937C0080917A00806480937A00C9
:2046200080917A0086FDFCCF809178002091790090E0922B0895833081F028F4813099F0AA
:204640008230A1F008958730A9F08830B9F08430D1F4809180008F7D03C0809180008F7759
:2046600080938000089584B58F7702C084B58F7D84BD08958091B0008F7703C08091B0009B
:204680008F7D8093B0000895CF93DF9390E0FC01EE50FE4F2491FC01EA5FFD4F84918823DB
:2046A00049F190E0880F991FFC01E25DFD4FA591B4918C5D9D4FFC01C591D4919FB76111A9
:2046C00008C0F8948C91209582238C93888182230AC0623051F4F8948C91322F309583232C
:2046E0008C938881822B888304C0F8948C91822B8C939FBFDF91CF9108950F931F93CF9320
:20470000DF931F92CDB7DEB7282F30E0F901E252FE4F8491F901EE50FE4F1491F901EA5FF9
:20472000FD4F04910023C9F0882321F069830E941B236981E02FF0E0EE0FFF1FEC5DFD4FBB
:20474000A591B4919FB7F8948C91611103C01095812301C0812B8C939FBF0F90DF91CF9108
:204760001F910F910895FC01818D228D90E0805C9F4F821B91098F7399270895FC01918DA7
:20478000828D981731F0828DE80FF11D858D90E008958FEF9FEF0895FC01918D828D981785
:2047A00061F0828DDF01A80FB11D5D968C91928D9F5F9F73928F90E008958FEF9FEF08951E
:2047C000FC01848DDF01A80FB11DA35ABF4F2C91848D90E001968F739927848FA689B78942
:2047E0002C93A089B1898C9180648C93938D848D981306C00288F389E02D80818F7D8083B2
:204800000895CF93DF93EC01888D8823C9F0EA89FB89808185FD05C0A889B9898C9186FD6F
:204820000FC00FB607FCF5CF808185FFF2CFA889B9898C9185FFEDCFCE010E94E023E7CFDD
:20484000DF91CF910895CF92DF92FF920F931F93CF93DF931F92CDB7DEB76C0181E0D601F1
:2048600058968C9358975B969C915B975C968C915C97981307C05096ED91FC9151978081DE
:2048800085FD2EC0F601038D10E00F5F1F4F0F731127F02EF601848DF81211C00FB607FCD2
:2048A000F9CFD6015096ED91FC915197808185FFF1CFC60169830E94E0236981EBCF838D2F
:2048C000E80FF11DE35AFF4F6083D6015B960C935B975296ED91FC915397808180620CC080
:2048E000D6015696ED91FC91579760835096ED91FC91519780818064808381E090E00F90E8
:20490000DF91CF911F910F91FF90DF90CF900895BF92CF92DF92EF92FF92CF93DF93EC0187
:204920006A017B01B22E60EC76EC8DE290E0A70196010E94A92A2150310941095109569535
:20494000479537952795E889F98982E08083211580E1380798F0E889F989108260E673EE11
:2049600086E190E0A70196010E94A92A21503109410951095695479537952795EC85FD851B
:204980003083EE85FF852083188EEC89FD89B082EA89FB89808180618083EA89FB89808123
:2049A00088608083EA89FB89808180688083EA89FB8980818F7D8083DF91CF91FF90EF9044
:2049C000DF90CF90BF9008951F920F920FB60F9211242F938F939F93EF93FF93E09162042F
:2049E000F09163048081E0916804F091690482FD12C0908180916B048F5F8F7320916C0410
:204A0000821751F0E0916B04F0E0EE5AFB4F958F80936B0401C08081FF91EF919F918F91B2
:204A20002F910F900FBE0F901F9018951F920F920FB60F9211242F933F934F935F936F93F8
:204A40007F938F939F93AF93BF93EF93FF9382E594E00E94E023FF91EF91BF91AF919F91F8
:204A60008F917F916F915F914F913F912F910F900FBE0F901F90189510925504109254044A
:204A800088EE93E0A0E0B0E08093560490935704A0935804B09359048CEA91E090935304A2
:204AA0008093520485EC90E090935F0480935E0484EC90E0909361048093600480EC90E0F6
:204AC000909363048093620481EC90E0909365048093640482EC90E0909367048093660406
:204AE00086EC90E0909369048093680410926B0410926C0410926D0410926E040895CF927D
:204B0000DF92EF92FF920F931F93CF93DF937C016A01EB0100E010E00C151D0571F06991A8
:204B2000D701ED91FC910190F081E02DC7010995892B19F00F5F1F4FEFCFC801DF91CF912D
:204B40001F910F91FF90EF90DF90CF9008956115710581F0DB010D900020E9F7AD01415077
:204B60005109461B570BDC01ED91FC910280F381E02D099480E090E008950C94A725DC01DA
:204B8000ED91FC910190F081E02D099468EB71E00C94A7258F929F92AF92BF92DF92EF9278
:204BA000FF920F931F93CF93DF93CDB7DEB7A1970FB6F894DEBF0FBECDBF7C01F42FD52E01
:204BC000CB0119A2223008F42AE08E010F5D1F4F822E912CA12CB12C6F2F7D2DA5019401F3
:204BE0000E94A92AF22FD32ECA01015011096A3014F4E0E301C0E7E3E60FD801EC93232B5D
:204C0000242B252B49F7B801C7010E94A725A1960FB6F894DEBF0FBECDBFDF91CF911F91C8
:204C20000F91FF90EF90DF90BF90AF909F908F900895CF92DF92EF92FF920F931F93CF9344
:204C4000DF93EC016A017B012115310579F4E881F9810190F081E02D642FDF91CF911F9130
:204C60000F91FF90EF90DF90CF9009942A303105E9F477FF1AC06DE20E94BF258C01442791
:204C80005527BA014C195D096E097F092AE0CE010E94CA25800F911FDF91CF911F910F914A
:204CA000FF90EF90DF90CF9008952AE0B701A601CE01DF91CF911F910F91FF90EF90DF90A6
:204CC000CF900C94CA250F931F93CF93DF93EC019A01AB01662757FD6095762F0E9419262E
:204CE0008C01CE010E94C625800F911FDF91CF911F910F9108952115310541F4DC01ED91D3
:204D0000FC910190F081E02D642F09940C94CA259A01462F50E060E070E00C947B260F9385
:204D20001F93CF93DF93EC019A01462F50E060E070E00E947B268C01CE010E94C625800F75
:204D4000911FDF91CF911F910F9108959A01AB0160E070E00C947B260F931F93CF93DF93A6
:204D6000EC019A01AB0160E070E00E947B268C01CE010E94C625800F911FDF91CF911F9184
:204D80000F9108950F931F93CF93DF93EC010E947B268C01CE010E94C625800F911FDF91E6
:204DA000CF911F910F9108954F925F926F927F928F929F92AF92BF92CF92DF92EF92FF92FA
:204DC0000F931F93CF93DF93EC016A017B01B22E9A01AB01C701B6010E94442A882319F06D
:204DE0006BEB71E027C026013701E89477F82FEF3FEF4FE75FE7C301B2010E94442A8111FA
:204E00000DC02FEF3FEF4FE75FE7C301B2010E946E2818161CF46FEB71E00CC02FEF3FEF4D
:204E20004FE75FE4C701B6010E94BD291816ACF463EC71E0CE01DF91CF911F910F91FF9006
:204E4000EF90DF90CF90BF90AF909F908F907F906F905F904F900C94A7252FEF3FEF4FE75F
:204E60005FECC701B6010E946E2887FDE1CF20E030E0A901C701B6010E946E2887FF0AC03B
:204E80006DE2CE010E94BF258C01F7FAF094F7F8F09402C000E010E0A12C60E070E080E0AA
:204EA0009FE3AB1441F020E030E040E251E40E947228A394F6CF9B01AC01C701B6010E9477
:204EC0000A286B017C010E94DF282B013C010E940B299B01AC01C701B6010E9409286B01C8
:204EE0007C012AE0B301A201CE010E94CA25080F191FBB2039F067EC71E0CE010E94A72540
:204F0000080F191F7B2C772041F120E030E040E251E4C701B6010E94C1296B017C010E94D5
:204F2000DA284B01AA2497FCA094BA2C2AE030E0B501A401CE010E941926080F191FC5016E
:204F4000B4010E940D299B01AC01C701B6010E9409286B017C017A94D6CFC801DF91CF91F4
:204F60001F910F91FF90EF90DF90CF90BF90AF909F908F907F906F905F904F9008950C9410
:204F8000D4264F925F926F927F92AF92BF92CF92DF92EF92FF920F931F93CF93DF93CDB711
:204FA000DEB729013A01621B730B840B950B29893A894B895C892A193B094C095D09298BA9
:204FC0003A8B4B8B5C8B9B01AC0169897A898B899C890E94712AE418F50806091709A801CA
:204FE00097010E94CB2A2A0D3B1D4C1D5D1DCA01B901DF91CF911F910F91FF90EF90DF90EE
:20500000CF90BF90AF907F906F905F904F90089508955058BB27AA270ED075C166D130F0C7
:205020006BD120F031F49F3F11F41EF45BC10EF4E095E7FB51C1E92F77D180F3BA17620776
:2050400073078407950718F071F49EF58FC10EF4E0950B2EBA2FA02D0B01B90190010C0195
:20506000CA01A0011124FF27591B99F0593F50F4503E68F11A16F040A22F232F342F442758
:20508000585FF3CF469537952795A795F0405395C9F77EF41F16BA0B620B730B840BBAF090
:2050A0009150A1F0FF0FBB1F661F771F881FC2F70EC0BA0F621F731F841F48F4879577956A
:2050C0006795B795F7959E3F08F0B3CF9395880F08F09927EE0F979587950895D9D008F4A7
:2050E00081E008950CD00FC107D140F0FED030F021F45F3F19F0F0C0511139C1F3C014D1B0
:2051000098F39923C9F35523B1F3951B550BBB27AA2762177307840738F09F5F5F4F220F2A
:20512000331F441FAA1FA9F333D00E2E3AF0E0E830D091505040E695001CCAF729D0FE2F35
:2051400027D0660F771F881FBB1F261737074807AB07B0E809F0BB0B802DBF01FF2793587B
:205160005F4F2AF09E3F510568F0B6C000C15F3FECF3983EDCF3869577956795B795F79588
:205180009F5FC9F7880F911D9695879597F90895E1E0660F771F881FBB1F621773078407CD
:2051A000BA0720F0621B730B840BBA0BEE1F88F7E095089504D06894B111D9C00895BCD0DD
:2051C00088F09F5790F0B92F9927B751A0F0D1F0660F771F881F991F1AF0BA95C9F712C08B
:2051E000B13081F0C3D0B1E00895C0C0672F782F8827B85F39F0B93FCCF386957795679516
:20520000B395D9F73EF490958095709561957F4F8F4F9F4F0895E89409C097FB3EF49095AA
:205220008095709561957F4F8F4F9F4F9923A9F0F92F96E9BB279395F6958795779567950F
:20524000B795F111F8CFFAF4BB0F11F460FF1BC06F5F7F4F8F4F9F4F16C0882311F096E9D9
:2052600011C0772321F09EE8872F762F05C0662371F096E8862F70E060E02AF09A95660FA1
:20528000771F881FDAF7880F9695879597F90895990F0008550FAA0BE0E8FEEF161617062E
:2052A000E807F907C0F012161306E407F50798F0621B730B840B950B39F40A2661F0232B79
:2052C000242B252B21F408950A2609F4A140A6958FEF811D811D089597F99F6780E870E08F
:2052E00060E008959FEF80EC089500240A941616170618060906089500240A941216130662
:20530000140605060895092E0394000C11F4882352F0BB0F40F4BF2B11F460FF04C06F5F21
:205320007F4F8F4F9F4F089557FD9058440F551F59F05F3F71F04795880F97FB991F61F0DD
:205340009F3F79F087950895121613061406551FF2CF4695F1DF08C0161617061806991F2B
:20536000F1CF86957105610508940895E894BB2766277727CB0197F908958ADF08F48FEFD8
:2053800008950BD0C0CFB1DF28F0B6DF18F0952309F0A2CFA7CF1124EACFC6DFA0F3959FCF
:2053A000D1F3950F50E0551F629FF001729FBB27F00DB11D639FAA27F00DB11DAA1F649FC7
:2053C0006627B00DA11D661F829F2227B00DA11D621F739FB00DA11D621F839FA00D611D7F
:2053E000221F749F3327A00D611D231F849F600D211D822F762F6A2F11249F5750408AF0A0
:20540000E1F088234AF0EE0FFF1FBB1F661F771F881F91505040A9F79E3F510570F05CCF50
:20542000A6CF5F3FECF3983EDCF3869577956795B795F795E7959F5FC1F7FE2B880F911D3A
:205440009695879597F9089577DFE0F09E37D8F09639B8F49E3848F4672F782F8827985FA5
:20546000F9CF86957795679593959539D0F3B62FB1706B0F711D811D20F4879577956795A4
:20548000939506C020C073CF03DF880B990B0895882371F4772321F09850872B762F07C085
:2054A000662311F499270DC09051862B70E060E02AF09A95660F771F881FDAF7880F969521
:2054C000879597F908959F3F31F0915020F4879577956795B795880F911D9695879597F903
:2054E0000895DB018F939F930E94EA2ABF91AF91A29F800D911DA39F900DB29F900D11241B
:205500000895AA1BBB1B51E107C0AA1FBB1FA617B70710F0A61BB70B881F991F5A95A9F7CB
:2055200080959095BC01CD01089597FB072E16F4009407D077FD09D00E94812A07FC05D05B
:205540003EF4909581959F4F0895709561957F4F0895A1E21A2EAA1BBB1BFD010DC0AA1FF3
:20556000BB1FEE1FFF1FA217B307E407F50720F0A21BB30BE40BF50B661F771F881F991FD8
:205580001A9469F760957095809590959B01AC01BD01CF010895052E97FB1EF400940E9448
:2055A000E22A57FD07D00E94A92A07FC03D04EF40C94E22A50954095309521953F4F4F4F1A
:2055C0005F4F089590958095709561957F4F8F4F9F4F08950E94032BA59F900DB49F900D73
:2055E000A49F800D911D11240895B7FF0C94EA2A0E94EA2A821B930B0895EE0FFF1F0590B3
:20560000F491E02D0994A29FB001B39FC001A39F700D811D1124911DB29F700D811D112475
:20562000911D0895FC0188279927E89421912032E9F3293010F02E30C8F32B3241F02D32F8
:2056400039F4689404C00E94482B820F911D219120532A30C0F31EF4909581959F4F0895FF
:20566000FB01DC018D91019080190110D9F3990B0895FB01DC014150504048F001900D9289
:205680000020C9F701C01D9241505040E0F708957AE0979F902D879F802D910D1124089595
:2056A000AEE0B0E0E6E5FBE20C940E2E0D891E8986E08C831A8309838FEF9FE79E838D8338
:2056C000AE01475E5F4F6F89788DCE0101960E94722BEF81F885E00FF11F10822E96E4E020
:2056E0000C942A2EACE0B0E0E8E7FBE20C94002E7C016B018A01FC0117821682838181FFF6
:20570000BDC1CE0101964C01F7019381F60193FD859193FF81916F01882309F4ABC18532D0
:2057200039F493FD859193FF81916F01853229F4B70190E00E94702DE7CF512C312C20E0B7
:205740002032A0F48B3269F030F4803259F0833269F420612CC08D3239F0803339F4216066
:2057600026C02260246023C0286021C027FD27C030ED380F3A3078F426FF06C0FAE05F9EEA
:20578000300D1124532E13C08AE0389E300D1124332E20620CC08E3221F426FD6BC120643A
:2057A00006C08C3611F4206802C0883641F4F60193FD859193FF81916F018111C1CF982F85
:2057C0009F7D9554933028F40C5F1F4FFFE3F9830DC0833631F0833771F0833509F05BC020
:2057E00022C0F801808189830E5F1F4F44244394512C540115C03801F2E06F0E711CF801F2
:20580000A080B18026FF03C0652D70E002C06FEF7FEFC5012C870E94652D2C0183012C85D0
:205820002F77222E17C03801F2E06F0E711CF801A080B18026FF03C0652D70E002C06FEF52
:205840007FEFC5012C870E945A2D2C012C852068222E830123FC1BC0832D90E04816590627
:20586000B0F4B70180E290E00E94702D3A94F4CFF50127FC859127FE81915F01B70190E03C
:205880000E94702D31103A94F1E04F1A51084114510471F7E5C0843611F0893639F5F801CF
:2058A00027FF07C060817181828193810C5F1F4F08C060817181882777FD8095982F0E5F31
:2058C0001F4F2F76B22E97FF09C090958095709561957F4F8F4F9F4F2068B22E2AE030E025
:2058E000A4010E94A22DA82EA81844C0853729F42F7EB22E2AE030E025C0F22FF97FBF2E0D
:205900008F36C1F018F4883579F0B4C0803719F0883721F0AFC02F2F2061B22EB4FE0DC02E
:205920008B2D8460B82E09C024FF0AC09F2F9660B92E06C028E030E005C020E130E002C00E
:2059400020E132E0F801B7FE07C060817181828193810C5F1F4F06C06081718180E090E093
:205960000E5F1F4FA4010E94A22DA82EA818FB2DFF77BF2EB6FE0BC02B2D2E7FA51450F494
:20598000B4FE0AC0B2FC08C02B2D2E7E05C07A2C2B2D03C07A2C01C0752C24FF0DC0FE0194
:2059A000EA0DF11D8081803311F4297E09C022FF06C07394739404C0822F867809F0739451
:2059C00023FD13C020FF06C05A2C731418F4530C5718732C731468F4B70180E290E02C8749
:2059E0000E94702D73942C85F5CF731410F4371801C0312C24FF12C0B70180E390E02C87C1
:205A00000E94702D2C8522FF17C021FF03C088E590E002C088E790E0B7010CC0822F86780A
:205A200059F021FD02C080E201C08BE227FD8DE2B70190E00E94702DA51438F4B70180E3B3
:205A400090E00E94702D5A94F7CFAA94F401EA0DF11D8081B70190E00E94702DA110F5CFCE
:205A6000332009F451CEB70180E290E00E94702D3A94F6CFF7018681978102C08FEF9FEF76
:205A80002C96E2E10C941C2EF999FECF92BD81BDF89A992780B50895262FF999FECF1FBAFA
:205AA00092BD81BD20BD0FB6F894FA9AF99A0FBE01960895FC010590615070400110D8F730
:205AC000809590958E0F9F1F0895FC016150704001900110D8F7809590958E0F9F1F089593
:205AE0000F931F93CF93DF93182F092FEB018B8181FD03C08FEF9FEF20C082FF10C04E81BA
:205B00005F812C813D81421753077CF4E881F9819F012F5F3F4F39832883108306C0E8854B
:205B2000F985812F0995892B29F72E813F812F5F3F4F3F832E83812F902FDF91CF911F91D8
:205B40000F910895FA01AA27283051F1203181F1E8946F936E7F6E5F7F4F8F4F9F4FAF4F0F
:205B6000B1E03ED0B4E03CD0670F781F891F9A1FA11D680F791F8A1F911DA11D6A0F711D8F
:205B8000811D911DA11D20D009F468943F912AE0269F11243019305D3193DEF6CF01089563
:205BA000462F4770405D4193B3E00FD0C9F7F6CF462F4F70405D4A3318F0495D31FD405295
:205BC000419302D0A9F7EACFB4E0A6959795879577956795BA95C9F7009761057105089588
:205BE0009B01AC010A2E06945795479537952795BA95C9F7620F731F841F951FA01D089577
:205C00002F923F924F925F926F927F928F929F92AF92BF92CF92DF92EF92FF920F931F93F2
:205C2000CF93DF93CDB7DEB7CA1BDB0B0FB6F894DEBF0FBECDBF09942A88398848885F84A2
:205C40006E847D848C849B84AA84B984C884DF80EE80FD800C811B81AA81B981CE0FD11DC8
:205C60000FB6F894DEBF0FBECDBFED01089512E0CEE3D2E004C0FE010E94FF2A2296C034C3
:205C8000D107C9F7F894FFCF0000F3048000010000000101A021A021017265706C61793A4E
:205CA000253032643A253032643A2530326420003000253032642F253032642F2530326440
:205CC00020253032643A253032643A25303264200000000000760E7F25E10E550EC90EC836
:205CE0000E4B4F3B0030780041542656004F4B004750524D4300474E524D4300474E474E54
:205D00005300474E47534100475047534100474C47535600475047474100475047535600DE
:205D200000000000931A661A3B1A431A561A651A0000000023247F25B323CC23BE230124DF
:205D40000D0A006E616E00696E66006F7666002E0000FFFFFFFFFFFFFFFFFFFFFFFFFFFF47
:205D6000FFFFFFFFFFFFFFFFFFFFFFFFFFFFFFFFFFFFFFFFFFFFFFFFFFFFFFFFFFFFFFFF43
:205D8000771F881FDAF7880F9695879597F90895990F0008550FAA0BE0E8FEEF1616170623
:205DA000E807F907C0F012161306E407F50798F0621B730B840B950B39F40A2661F0232B6E
:205DC000242B252B21F408950A2609F4A140A6958FEF811D811D089597F99F6780E870E084
:205DE00060E008959FEF80EC089500240A941616170618060906089500240A941216130657
:205E0000140605060895092E0394000C11F4882352F0BB0F40F4BF2B11F460FF04C06F5F16
:205E20007F4F8F4F9F4F089557FD9058440F551F59F05F3F71F04795880F97FB991F61F0D2
:205E40009F3F79F087950895121613061406551FF2CF4695F1DF08C0161617061806991F20
:205E6000F1CF86957105610508940895E894BB2766277727CB0197F908958ADF08F48FEFCD
:205E800008950BD0C0CFB1DF28F0B6DF18F0952309F0A2CFA7CF1124EACFC6DFA0F3959FC4
:205EA000D1F3950F50E0551F629FF001729FBB27F00DB11D639FAA27F00DB11DAA1F649FBC
:205EC0006627B00DA11D661F829F2227B00DA11D621F739FB00DA11D621F839FA00D611D74
:205EE000221F749F3327A00D611D231F849F600D211D822F762F6A2F11249F5750408AF095
:205F0000E1F088234AF0EE0FFF1FBB1F661F771F881F91505040A9F79E3F510570F05CCF45
:205F2000A6CF5F3FECF3983EDCF3869577956795B795F795E7959F5FC1F7FE2B880F911D2F
:205F40009695879597F9089577DFE0F09E37D8F09639B8F49E3848F4672F782F8827985F9A
:205F6000F9CF86957795679593959539D0F3B62FB1706B0F711D811D20F487957795679599
:205F8000939506C020C073CF03DF880B990B0895882371F4772321F09850872B762F07C07A
:205FA000662311F499270DC09051862B70E060E02AF09A95660F771F881FDAF7880F969516
:205FC000879597F908959F3F31F0915020F4879577956795B795880F911D9695879597F9F8
:205FE0000895DB018F939F930E947030BF91AF91A29F800D911DA39F900DB29F900D112484
:206000000895AA1BBB1B51E107C0AA1FBB1FA617B70710F0A61BB70B881F991F5A95A9F7C0
:2060200080959095BC01CD01089597FB072E16F4009407D077FD09D00E94013007FC05D0CA
:206040003EF4909581959F4F0895709561957F4F0895A1E21A2EAA1BBB1BFD010DC0AA1FE8
:20606000BB1FEE1FFF1FA217B307E407F50720F0A21BB30BE40BF50B661F771F881F991FCD
:206080001A9469F760957095809590959B01AC01BD01CF010895052E97FB1EF400940E943D
:2060A000623057FD07D00E94293007FC03D04EF40C94623050954095309521953F4F4F4F7D
:2060C0005F4F089590958095709561957F4F8F4F9F4F0895EE0FFF1F0590F491E02D09942A
:2060E0000E948330A59F900DB49F900DA49F800D911D11240895B7FF0C9470300E947030F2
:20610000821B930B0895A29FB001B39FC001A39F700D811D1124911DB29F700D811D1124C1
:20612000911D0895FC0188279927E89421912032E9F3293010F02E30C8F32B3241F02D32ED
:2061400039F4689404C00E94C830820F911D219120532A30C0F31EF4909581959F4F08956F
:20616000FB01DC018D91019080190110D9F3990B0895FB01DC014150504048F001900D927E
:206180000020C9F701C01D9241505040E0F708957AE0979F902D879F802D910D112408958A
:2061A000AEE0B0E0E6EDF0E30C948E330D891E8986E08C831A8309838FEF9FE79E838D83AA
:2061C000AE01475E5F4F6F89788DCE0101960E94F230EF81F885E00FF11F10822E96E4E090
:2061E0000C94AA33ACE0B0E0E8EFF0E30C9480337C016B018A01FC0117821682838181FFE3
:20620000BDC1CE0101964C01F7019381F60193FD859193FF81916F01882309F4ABC18532C5
:2062200039F493FD859193FF81916F01853229F4B70190E00E94F032E7CF512C312C20E027
:206240002032A0F48B3269F030F4803259F0833269F420612CC08D3239F0803339F421605B
:2062600026C02260246023C0286021C027FD27C030ED380F3A3078F426FF06C0FAE05F9EDF
:20628000300D1124532E13C08AE0389E300D1124332E20620CC08E3221F426FD6BC120642F
:2062A00006C08C3611F4206802C0883641F4F60193FD859193FF81916F018111C1CF982F7A
:2062C0009F7D9554933028F40C5F1F4FFFE3F9830DC0833631F0833771F0833509F05BC015
:2062E00022C0F801808189830E5F1F4F44244394512C540115C03801F2E06F0E711CF801E7
:20630000A080B18026FF03C0652D70E002C06FEF7FEFC5012C870E94E5322C0183012C8540
:206320002F77222E17C03801F2E06F0E711CF801A080B18026FF03C0652D70E002C06FEF47
:206340007FEFC5012C870E94DA322C012C852068222E830123FC1BC0832D90E04816590697
:20636000B0F4B70180E290E00E94F0323A94F4CFF50127FC859127FE81915F01B70190E0AC
:206380000E94F03231103A94F1E04F1A51084114510471F7E5C0843611F0893639F5F8013F
:2063A00027FF07C060817181828193810C5F1F4F08C060817181882777FD8095982F0E5F26
:2063C0001F4F2F76B22E97FF09C090958095709561957F4F8F4F9F4F2068B22E2AE030E01A
:2063E000A4010E942233A82EA81844C0853729F42F7EB22E2AE030E025C0F22FF97FBF2E7C
:206400008F36C1F018F4883579F0B4C0803719F0883721F0AFC02F2F2061B22EB4FE0DC023
:206420008B2D8460B82E09C024FF0AC09F2F9660B92E06C028E030E005C020E130E002C003
:2064400020E132E0F801B7FE07C060817181828193810C5F1F4F06C06081718180E090E088
:206460000E5F1F4FA4010E942233A82EA818FB2DFF77BF2EB6FE0BC02B2D2E7FA51450F403
:20648000B4FE0AC0B2FC08C02B2D2E7E05C07A2C2B2D03C07A2C01C0752C24FF0DC0FE0189
:2064A000EA0DF11D8081803311F4297E09C022FF06C07394739404C0822F867809F0739446
:2064C00023FD13C020FF06C05A2C731418F4530C5718732C731468F4B70180E290E02C873E
:2064E0000E94F03273942C85F5CF731410F4371801C0312C24FF12C0B70180E390E02C8731
:206500000E94F0322C8522FF17C021FF03C088E590E002C088E790E0B7010CC0822F86787A
:2065200059F021FD02C080E201C08BE227FD8DE2B70190E00E94F032A51438F4B70180E323
:2065400090E00E94F0325A94F7CFAA94F401EA0DF11D8081B70190E00E94F032A110F5CFB9
:20656000332009F451CEB70180E290E00E94F0323A94F6CFF7018681978102C08FEF9FEFE6
:206580002C96E2E10C949C33F999FECF92BD81BDF89A992780B50895262FF999FECF1FBA6A
:2065A00092BD81BD20BD0FB6F894FA9AF99A0FBE01960895FC010590615070400110D8F725
:2065C000809590958E0F9F1F0895FC016150704001900110D8F7809590958E0F9F1F089588
:2065E0000F931F93CF93DF93182F092FEB018B8181FD03C08FEF9FEF20C082FF10C04E81AF
:206600005F812C813D81421753077CF4E881F9819F012F5F3F4F39832883108306C0E88540
:20662000F985812F0995892B29F72E813F812F5F3F4F3F832E83812F902FDF91CF911F91CD
:206640000F910895FA01AA27283051F1203181F1E8946F936E7F6E5F7F4F8F4F9F4FAF4F04
:20666000B1E03ED0B4E03CD0670F781F891F9A1FA11D680F791F8A1F911DA11D6A0F711D84
:20668000811D911DA11D20D009F468943F912AE0269F11243019305D3193DEF6CF01089558
:2066A000462F4770405D4193B3E00FD0C9F7F6CF462F4F70405D4A3318F0495D31FD40528A
:2066C000419302D0A9F7EACFB4E0A6959795879577956795BA95C9F700976105710508957D
:2066E0009B01AC010A2E06945795479537952795BA95C9F7620F731F841F951FA01D08956C
:206700002F923F924F925F926F927F928F929F92AF92BF92CF92DF92EF92FF920F931F93E7
:20672000CF93DF93CDB7DEB7CA1BDB0B0FB6F894DEBF0FBECDBF09942A88398848885F8497
:206740006E847D848C849B84AA84B984C884DF80EE80FD800C811B81AA81B981CE0FD11DBD
:206760000FB6F894DEBF0FBECDBFED01089513E0C0E6D3E004C0FE010E946C302296C2364A
:20678000D107C9F7F894FFCF0000D50480000100000001014422442244224422442201FFAD
:2067A000FFFFFF00E100000000000000C180810000007265706C61793A253032643A2530F8
:2067C00032643A2530326420003000253032642F253032642F2530326420253032643A2525
:2067E0003032643A25303264200000000000060F5526710FE50E590F580F4B4F3B004F4B4D
:206800000030780041542656004750524D4300474E524D4300474E474E5300474E475341E2
:2068200000475047534100474C4753560047504747410047504753560000000000371B0A1A
:206840001BDF1AE71AFA1A091B00000000412588256B257B25572568250D0A006E616E004B
:20686000696E66006F7666002E00FFFFFFFFFFFFFFFFFFFFFFFFFFFFFFFFFFFFFFFFFFFF78
:20688000FFFFFFFFFFFFFFFFFFFFFFFFFFFFFFFFFFFFFFFFFFFFFFFFFFFFFFFFFFFFFFFF18
:2068A000FFFFFFFFFFFFFFFFFFFFFFFFFFFFFFFFFFFFFFFFFFFFFFFFFFFFFFFFFFFFFFFFF8
:2068C000FFFFFFFFFFFFFFFFFFFFFFFFFFFFFFFFFFFFFFFFFFFFFFFFFFFFFFFFFFFFFFFFD8
:2068E000FFFFFFFFFFFFFFFFFFFFFFFFFFFFFFFFFFFFFFFFFFFFFFFFFFFFFFFFFFFFFFFFB8
:2070000060C0000093C0000077C0000075C0000073C0000071C000006FC000006DC00000D1
:207020006BC0000069C0000067C0000065C0000063C0000061C000005FC000005DC0000030
