:100000000C9497010C94BF010C94BF010C94BF0198
:100010000C94BF010C94BF010C94BF010C94BF0160
:100020000C94BF010C947C0E0C948B270C941D2611
:100030000C94150C0C94BF010C94BF010C94BF01DF
:100040000C94BF010C94BF010C94BF010C94BF0130
:100050000C94BF010C94BF010C94BF010C94C01E02
:100060000C94BF010C94BF010C94BF010C94BF0110
:100070000C94BF010C94BF010C94BF010C94BF0100
:100080000C94BF010C94BF010C94BF010C94BF01F0
:100090000C94F01A0C94BF010C94BF010C94BF0196
:1000A0000C94BF010C94BF010C94BF0115201820C3
:1000B00007200B2011203920392039201C20202036
:1000C00024202A202E20392034204661696C0D0A14
:1000D00000536967466F783A20002C206D6F646585
:1000E0003D002C206261743D002C207370643D0043
:1000F0002C206361703D002C20616C743D002C202D
:100100006C6F6E3D00206C61743D006D73673D0047
:1001100024504D544B3232302C313030302A0024B0
:10012000504D544B3331342C302C312C302C312C5D
:10013000302C302C302C302C302C302C302C302CDF
:10014000302C302C302C302C302C302C302A0055D8
:10015000736167652070657220646179733A004C41
:10016000617374206461793A004C6F772042617446
:100170003A200053656E736F724D61783A20006DBE
:10018000620D0A0027432050726573733A200054B1
:10019000656D703A20004F4B004661696C00496EF6
:1001A0006974204D656D733A006672656520526111
:1001B0006D3A200024504D544B3630352A0025200E
:1001C0000020426174746572793A20004669726D4C
:1001D00077617265204869646E5365656B5F76333D
:1001E0005F32380A52656C65617365204D61792014
:1001F000333020323031362031363A35303A3530EE
:1002000000534649443B0053464D00070605040190
:1002100000080A0B0C0D090000000200090F000085
:10022000030401000C0000000000000000000000BA
:10023000000000000000040802011040804010206F
:10024000408040800802040180402010020110809C
:1002500010204040200404040404030405020202A8
:10026000020403020202020606060606060404024F
:1002700002020404000000002300260029002C00D4
:100280002F0000000000250028002B002E00310068
:1002900000000000240027002A002D003000080B79
:1002A0000002020201000904000001020200000530
:1002B000240010010524010101042402060524067E
:1002C00000010705810310004009040100020A0033
:1002D00000000705020240000007058302400000FD
:1002E00012010002EF0201404123368000010102A9
:1002F000030112010002000000404123368000018A
:100300000102030141726475696E6F204C4C430019
:1003100041726475696E6F204C656F6E6172646FB7
:100320000004030904004B07061AA0215A071124F0
:100330001FBECFEFDAE0DEBFCDBF11E0A0E0B1E03D
:10034000E8E5FEE502C005900D92A23CB107D9F7A1
:1003500024E0A2ECB1E001C01D92A83AB207E1F797
:1003600013E0CCE2D3E004C02297FE010E94D42B1C
:10037000C632D107C9F70E94A00A0C941F2F0C9413
:1003800000000C942C2E0C94342ECF93DF9300D0CD
:10039000CDB7DEB72091A4043091A5042115310515
:1003A00011F428EA34E0CE010196821B930B0F90E2
:1003B0000F90DF91CF910895CF93DF93FC0164916B
:1003C000EC012196662331F08DE394E00E94FD213B
:1003D000CE01F4CFDF91CF91089582E085B987E017
:1003E00084B918B884E087B98CE18BB980EC8AB9FC
:1003F0000895CF93DF93EC011C161D068CF45F9AD1
:1004000062E370E080E090E00E94391F5F982197DE
:1004100099F362E370E080E090E00E94391FECCF36
:10042000DF91CF91089569E170E080E090E00E9453
:10043000391F8BB18F7790911C039295990F990F6B
:10044000907C909589238BB962E370E080E090E026
:100450000E94391F2BB1206880911C0330E4839FD8
:10046000C0011124282B2BB908958EE991E00E9438
:10047000DC0184E793E00E94731942E060E083EEC0
:1004800091E00E94361883EE91E00E948418882340
:1004900051F089E991E00E94DC018DE394E00E9433
:1004A000042280E0089586E991E00E94DC018DE35A
:1004B00094E00E94042281E008950F931F93CF934C
:1004C000DF938C01EB010097A1F089EC91E00E9491
:1004D0009B1EBC0189EC91E00E941D1C26E636E6BD
:1004E00046E650E40E94F128F8016083718382831C
:1004F00093832097C9F089EC91E00E94D11DAB0154
:10050000BC0189EC91E00E94771C24E630E040E0D9
:1005100050E00E94B32B3983288381E02037334099
:1005200008F080E080931F0381E0DF91CF911F915D
:100530000F9108958FE891E00E94DC01409107033C
:10054000509108036091090370910A0322E030E0A2
:100550008DE394E00E94FD2384E891E00E94DC0199
:1005600060910503709106034AE050E08DE394E04A
:100570000E94E4228FE791E00C94DC01CF9380E2AB
:1005800090E00E94C101C82F81E290E00E94C10169
:10059000282F30E0322F22272C0F311D3093C80135
:1005A0002093C70183E791E00E94DC016091C701BD
:1005B0007091C8014AE050E08DE394E00E94E4228B
:1005C00084ED93E09093C8018093C701CF91089583
:1005D000CF93DF93D82FC92F682F80E290E00E943D
:1005E000C3016C2F81E290E00E94C3018D2F9C2FEC
:1005F000DF91CF9108958F929F92AF92BF92CF9249
:10060000DF92EF92FF920F931F93CF93DF93CDB7BB
:10061000DEB7C456D1090FB6F894DEBF0FBECDBF0A
:1006200061E08AE00E94732080E00E94C91F64E6B6
:1006300070E080E090E00E94391F10E083E10E94AA
:10064000CC1F9595879595958795282F3981831788
:1006500078F0112369F0FE01319641E0411749F02D
:100660003191231718F03081321718F44F5FF6CF0D
:1006700040E0512F451778F4252F30E0FE01E20FBE
:10068000F31F6081E1E0F0E0EC0FFD1FE20FF31FCC
:1006900060835150EFCFE1E0F0E0EC0FFD1FE40F7D
:1006A000F11D80831F5F143649F6FE01BF969E013F
:1006B000295C3F4F80E090E04191840F911DE2174B
:1006C000F307D1F7969587959093140380931303BE
:1006D00004972091C7013091C8012817390730F4D9
:1006E0000E94E8029093C8018093C701E090C7017F
:1006F000F090C80100E010E06091130370911403C2
:1007000080E090E01F921F9220E12F9328E62F9324
:10071000A12CB12C650120E030E0A9010E940E2837
:100720004B019B01683640E1740710F428E630E184
:10073000790100E010E09B0143EF84164DE0940640
:1007400010F022EF3DE040E050E0882799271F920B
:100750001F921F92E4E6EF93A12CB12C65010E9439
:100760000E28609312030FB6F894DEBF0FBECDBF04
:1007700080911C03811103C060910B0101C061E0F5
:100780008AE00E94732081E092EF89169DE099062D
:1007900008F080E0CC59DF4F0FB6F894DEBF0FBEF3
:1007A000CDBFDF91CF911F910F91FF90EF90DF9020
:1007B000CF90BF90AF909F908F9008958091170336
:1007C0009FEF980F9F3128F46091160390E00C94EE
:1007D000C3010895CF93C0912703CC2331F18091B9
:1007E0001703C817E1F080E090E00E94C1018093F8
:1007F00017038C17A1F00E94DE036091270380E0AD
:1008000090E00E94C3018091270360E090E00E9485
:10081000C3018091270380931703109216038091E0
:1008200016038F5F8093160302C010921603CF91B8
:100830000895CF93DF9380E090E00E94C101809300
:1008400017038F3F39F41092170360E080E090E0C7
:100850000E94C3018FE591E00E94DC014AE050E074
:10086000609117038DE394E00E94CD228FE491E024
:100870000E94DC01C1E0D0E0CE010E94C101809362
:1008800016038F3F31F460E0CE010E94342E1092A7
:1008900016034AE050E0609116038DE394E00E9455
:1008A000C6226FE371E08DE394E00E94FB21219664
:1008B000C032D10509F78091170390E00E94C10171
:1008C000809316038DE394E0DF91CF910C94042282
:1008D000EF92FF920F931F93CF93DF931F92CDB7A9
:1008E000DEB78C01E12CF12CF8012491222349F090
:1008F000622F8DE394E029830E94FD2129812A3211
:1009000059F480E1E816F10494F460E271E08DE3BB
:1009100094E00E94FB210BC0243231F0622F772734
:1009200067FD7095E626F7260F5F1F4FDDCF40E18C
:1009300050E0B7018DE394E00F90DF91CF911F91CC
:100940000F91FF90EF900C94A12210920B0160E0A8
:100950008AE00C9473200F931F93CF93DF93CDB74E
:10096000DEB768970FB6F894DEBF0FBECDBF80919B
:1009700024031F928F93809125031F928F93809160
:1009800026031F928F9380912A038F9380912903CE
:100990008F93809127031F928F93809128031F923A
:1009A0008F9382E291E09F938F938E010F5F1F4F91
:1009B0001F930F930E94382CB8018DE394E00E949E
:1009C000FB210FB6F894DEBF0FBECDBF68960FB601
:1009D000F894DEBF0FBECDBFDF91CF911F910F9175
:1009E00008950F931F93CF93C0910D03C43008F463
:1009F00070C080910E0390910F03209110033091ED
:100A000011038937910558F0233E44E0340760F024
:100A100041E0409320034FEF40930C0305C088371B
:100A2000910511F010922003213040E1340750F07D
:100A3000A4E036952795AA95E1F7315F309311032D
:100A4000209310032091100330911103211530429F
:100A500030F02FEF3FE130931103209310038038E3
:100A6000910560F0F4E096958795FA95E1F7825A42
:100A70009F4F90930F0380930E030DC08B3591050C
:100A800050F063E070E00E94692B645C7F4F7093CC
:100A90000F0360930E0380910E0390910F038F3725
:100AA000910530F08FE790E090930F0380930E0351
:100AB00060912E0270912F0280913002909131024C
:100AC0002AE530E040E050E00E94912B422F437035
:100AD00005C040911503443008F043E080910E03B7
:100AE00090910F03A0E0B0E05CE0880F991FAA1F6F
:100AF000BB1F5A95D1F7009110031091110320E00C
:100B000030E063E1000F111F221F331F6A95D1F7F8
:100B1000802B912BA22BB32B009112030F7710E0A7
:100B200020E030E073E0000F111F221F331F7A9581
:100B3000D1F7802B912BA22BB32B50E060E070E01B
:100B4000EAE0440F551F661F771FEA95D1F7842B03
:100B5000952BA62BB72BC93018F028E020930D0356
:100B600020910D03269526952370822B80930103F7
:100B700090930203A0930303B0930403CF911F91BA
:100B80000F910895CF92DF92EF92FF92C0900103F0
:100B9000D0900203E0900303F09004030E94AB04A2
:100BA0008BE091E00E94DC014AE050E06091160386
:100BB0008DE394E00E94C62285E091E00E94DC0172
:100BC0004091F9025091FA026091FB027091FC028F
:100BD00027E030E08DE394E00E94FD238EEF90E06B
:100BE0000E94DC014091FD025091FE026091FF02E3
:100BF0007091000327E030E08DE394E00E94FD2334
:100C000087EF90E00E94DC01C701B601B3E1969541
:100C1000879577956795BA95D1F74AE050E08DE3CF
:100C200094E00E94E42280EF90E00E94DC01D70172
:100C3000C6012AE0B695A795979587952A95D1F78D
:100C4000BC01637077274AE050E08DE394E00E9496
:100C5000E42289EE90E00E94DC01D701C6013CE06D
:100C6000B695A795979587953A95D1F7BC016F777B
:100C700077274AE050E08DE394E00E94E42282EE80
:100C800090E00E94DC01D701C60143E0B695A7952C
:100C9000979587954A95D1F7BC016F7777274AE0FA
:100CA00050E08DE394E00E94E4228AED90E00E94FF
:100CB000DC01B601677077274AE050E08DE394E0ED
:100CC000FF90EF90DF90CF900C94EA22CF92DF92CA
:100CD000EF92FF9281ED90E00E94DC010E940A1FDA
:100CE0006B017C010E940A1F6C197D0960377741F6
:100CF000D8F480ED92E00E94500C039771F480EDDF
:100D000092E00E942C0DAB01BC0120E130E08DE3AC
:100D100094E00E94002381E00CC068EC70E080E069
:100D200090E00E94391FDECF8AEC90E00E94DC0147
:100D300080E0FF90EF90DF90CF900895CF92DF9208
:100D4000EF92FF92CF93C82F5F9A0E94F104CC23B9
:100D500009F45CC080912103882381F065E073E091
:100D600087E093E00E945D02809105039091060365
:100D7000893E9340A8F01092200312C040E050E05A
:100D800060EA71E4409307035093080360930903FA
:100D900070930A0386E094E0909306038093050322
:100DA000C43001F540910703509108036091090395
:100DB00070910A034093F9025093FA026093FB0288
:100DC0007093FC02609105037091060380E090E04F
:100DD0000E94F3296093FD027093FE028093FF024C
:100DE000909300034091010350910203609103032B
:100DF00070910403487F8C2F8770482B4093010328
:100E00005093020360930303709304030E94C2058E
:100E10000E940A1F6B017C01CC2359F080911F03B3
:100E2000882339F05F98CF91FF90EF90DF90CF90BB
:100E30000895809120038111F5CF4CE069EF72E0B5
:100E400080ED92E00E94E70C0E94EA030E940A1FD4
:100E50006C197D096037774128F764E670E080E01F
:100E600090E00E94391FF2CF60E08AE00E94732078
:100E700089E691E00E94DC010E94DE0387E00E9487
:100E80009E0660E089E00E94732064EF71E080E0DC
:100E900090E00C94391F48E065E080ED92E00E94FC
:100EA000290C8EEF91E00E9426106DE183EE91E017
:100EB0000C94621780ED92E00C94390CCF92DF9283
:100EC000EF92FF9261E08AE00E9473200E940A1F65
:100ED0006B017C010E940A1F6C197D096037774104
:100EE000F0F48DE394E00E94D3201816190634F430
:100EF0008DE394E00E94E3208A9739F064E670E085
:100F000080E090E00E94391FE5CF8FE191E00E94E0
:100F1000680480E191E00E94680481E005C060E01F
:100F20008AE00E94732080E0FF90EF90DF90CF90E6
:100F30000895CF9380912203882309F4F1C083EEB2
:100F400091E00E9484188111EBC083EE91E00E9431
:100F50006D179091C501891B992787FD909597FF83
:100F600003C0919581959109833010F0C1E024C0B0
:100F700083EE91E00E9470179091C401891B99271C
:100F800087FD909597FF03C09195819591098330D6
:100F900068F783EE91E00E9473179091C301891B5B
:100FA000992787FD909597FF03C0919581959109A9
:100FB000C1E0833008F4C0E083EE91E00E946D1739
:100FC0008093C50183EE91E00E9470178093C40165
:100FD00083EE91E00E9473178093C301CC2309F440
:100FE000A1C09091C50129E0290F2331B8F4909157
:100FF000C40129E0290F233128F4893244F5883DC2
:1010000044F106C0983D24F4875F833120F11BC072
:101010009932CCF0875F833100F115C099324CF0E2
:101020009091C401975F933170F4875F8331B8F07A
:101030000AC0983D44F49091C401975F933118F42D
:10104000875F833170F01092C201C6E00BC0C0E030
:1010500009C0C1E007C0C2E005C0C3E003C0C4E0EE
:1010600001C0C5E08091C20181110CC080911503BF
:10107000811121C0C230F9F481E08093C2010E9445
:1010800013021BC0813039F480911503823099F42A
:10109000C33089F40BC0823071F480911503833022
:1010A00051F4C23019F0C11106C084E08093C2012E
:1010B0000E94130202C01092C201C09315038091D6
:1010C000C201833079F40E94DE0384E190E00E9443
:1010D000F90118B817B81BB81AB815B882E084B966
:1010E0001092C2018091C2018430D1F48091160324
:1010F0008A35A0F481E090911C03891B80931C0326
:1011000010921D03882331F080910B01811102C0E0
:101110000E945E0788E090E00E94F9011092C201EF
:1011200081E001C080E0CF910895BF92CF92DF921D
:10113000EF92FF920F931F93CF93DF937C010E9456
:10114000FB0281110E94340780911C03882379F0EF
:1011500080911203893108F43EC180911D0391E012
:10116000980F90931D03803308F035C102C00E9490
:10117000A50480910C038F3F19F08E2D0E949E06CE
:101180000E949907E114F10471F480910E0390918B
:101190000F03069740F080910B03811104C084E097
:1011A00080930A0106C010920A0134E0E316F104AC
:1011B00011F01092C601B0901C0384E0E816F1040F
:1011C00009F041C02091C601C4EAD1E0022E02C05C
:1011D000CC0FDD1F0A94E2F781E090E0022E01C0FF
:1011E000880F0A94EAF790912603980F983118F423
:1011F0009093260307C010922603809127038F5FE8
:101200008093270380912703803238F010922703C0
:10121000809128038F5F80932803809128038D306D
:1012200058F0109228038091290390912A03019687
:1012300090932A0380932903233008F0CFC02F5FB7
:101240002093C601CBC080911E03CBE4D0E0C81B25
:10125000D10980910A018111C1C0B110BFC008E05D
:1012600010E08DE394E00E94D020C12CD12CCC164C
:10127000DD0608F056C020E030E040E050E0B80164
:101280008FE293E00E94CD0B2BB1206880911C036C
:1012900030E4839FC0011124282B2BB980910B01CE
:1012A000882361F00E94FB0280911203823630F4A1
:1012B00080911C03811102C00E94A5040E9499071D
:1012C000882341F180910B01882319F00E941302B9
:1012D00006C062E370E080E090E00E94391F8091D8
:1012E0000A018F5F80930A010830110511F4D6942A
:1012F000C79484E0E816F10449F080911C0309E0EA
:1013000010E0B81639F0C0E0D0E004C009E010E009
:10131000C0E0D0E03FEFC31AD30A8BB18F738BB913
:10132000A6CF80910A0183303CF481E090911C03A8
:10133000911103C080E001C081E080930A0184E044
:10134000E816F10429F4CD2B19F48FEF80930A01EC
:1013500080910A01181644F480910B01811104C098
:101360000E945E0780930B010E940A1F609318037E
:101370007093190380931A0390931B0310920B032D
:1013800010920C0310921E0310920F0310920E0382
:1013900010921103109210031092FD021092FE029F
:1013A0001092FF02109200031092F9021092FA02BA
:1013B0001092FB021092FC0280910A01992787FD8E
:1013C0009095DF91CF911F910F91FF90EF90DF905B
:1013D000CF90BF90089510921C03CBCE09E010E08F
:1013E00040CF8F929F92AF92BF92CF92DF92EF92B7
:1013F000FF920F931F93CF93DF930E940A1F6B01FD
:101400007C0100ED17E0C0E0D0E00E940A1F6C19DB
:101410007D096017710710F58DE394E00E94D320D9
:1014200018161906A4F40E940A1F6B017C015F9A2A
:1014300004E610E0C1E00BC08DE394E00E94E320DD
:10144000682F8EEF91E00E94B2148111D1E08DE3FC
:1014500094E00E94D320892B79F7D7CFC11102C025
:101460000E945E076BE2862E63E0962E73E2A72E43
:1014700073E0B72EE4E2CE2EE3E0DE2EF5E2EF2EAF
:10148000F3E0FF2E06E213E027E233E048E253E008
:1014900069E273E08EEF91E00E943316DD23E1F103
:1014A00094014DEF52E069EF72E08EEF91E00E94FF
:1014B000C61580913E0290913F028F3F910509F43D
:1014C00080E080930D038EEF91E00E9403170E944D
:1014D0000C2B0E94C2299B0177FF04C022273327CF
:1014E000261B370B30931103209310038EEF91E0EE
:1014F0000E9439170E940C2B0E94C72970930F037A
:1015000060930E0380910C0390910D03890F8093DB
:101510000C0310920B0305C080910B038F5F809327
:101520000B035F988C2FDF91CF911F910F91FF904C
:10153000EF90DF90CF90BF90AF909F908F900895E5
:101540000E94731F64E670E080E090E00E94391F03
:101550000E94ED0140E855E260E070E08DE394E028
:101560000E949A218DE394E00E9404228CEC91E089
:101570000E94DC018DE394E00E9404220E94190481
:101580000E94BE020E94FB0281EC91E00E94DC01FD
:101590004AE050E0609112038DE394E00E94C6227D
:1015A0008EEB91E00E94DC016091130370911403B3
:1015B0004AE050E08DE394E00E94EA2264E670E0A5
:1015C00080E090E00E94391F0E945E0780930B012B
:1015D000882341F084EB91E00E94680481E090E070
:1015E0000E94F9010E94350280932203882371F042
:1015F00064EF71E080E090E00E94391F0E9499073B
:10160000882321F082E090E00E94F90189EC91E0CA
:101610000E94461E80932103882381F064EF71E0CD
:1016200080E090E00E94391F65E073E087E093E07E
:101630000E945D0283E090E00E94F9010E949A02FC
:101640000E946606882359F064EF71E080E090E024
:101650000E94391F84E090E00E94F90115C05E9A53
:101660008DE394E00E94D02064EF71E080E090E090
:101670000E94391F60E089E00E94732068EE73E0E9
:1016800080E090E00E94391F89EA91E00E94DC012D
:101690000E94C5014AE050E0BC018DE394E00E9445
:1016A000A1220E940A1F609318037093190380936C
:1016B0001A0390931B030E940A1F20911803309174
:1016C0001903621B730B603A7F40C8F05E9A64E6B0
:1016D00070E080E090E00E94391F0E9499075E98B8
:1016E00080911E038F5F80931E030E940A1F6093E8
:1016F00018037093190380931A0390931B0380912E
:101700000A01813071F40E94F109882351F020E030
:1017100030E040E050E065E070E08FE293E00E944E
:10172000CD0B20910C03203440F080910E0390915A
:101730000F030B978634910510F427FF0AC08091A0
:101740000B03811106C080E090E00E949508809311
:101750000A0180911E038F3120F480910B03893799
:1017600030F085E090E00E94950880930A01809116
:101770000A01811106C084E090E00E9495088093E0
:101780000A0180910A018F3F09F095CF86E090E031
:101790000E94950880930A018ECF4115510529F4C6
:1017A000EAE7F0E080818F7780836A307105B1F0DD
:1017B00063FF02C088E201C088E06770682B88E19F
:1017C00090E00FB6F894A895809360000FBE6093E8
:1017D0006000E0E6F0E0808180648083232B79F470
:1017E00083B7817F846083BFF89483B7816083BFB0
:1017F0007894889583B78E7F83BF78940EC083B723
:10180000817F846083BFF89483B7816083BF7894BD
:10181000889583B78E7F83BF7894452B29F4EAE7B8
:10182000F0E080818068808308951F920F920FB648
:101830000F9211248F9388E10FB6F8948093600083
:10184000109260000FBE8F910F900FBE0F901F90EF
:101850001895CF93DF93EC0120E00E944F0F4FEFDC
:101860005FEFBA014F8F58A369A37AA3DF91CF919D
:1018700008950C94F60E0F931F93CF93DF938C0172
:10188000FB016491EF012196662329F0C8010E94B3
:10189000FD21FE01F6CFDF91CF911F910F910895A9
:1018A0006F927F928F929F92AF92BF92CF92DF9270
:1018B000EF92FF920F931F93CF93DF9300D000D04E
:1018C0001F92CDB7DEB77C0140E855E260E070E0E2
:1018D0000E947F0F60E0C7010E94BA0D6BE3C70151
:1018E0000E94BA0D19821A821B821C821D820E94DC
:1018F0000A1F4B015C01CE0101966C0100E010E073
:101900003C010E940A1F681979098A099B09623300
:10191000710581059105A8F4C7010E94250E1816CE
:1019200019067CF7C7010E94990D0430110519F4BE
:101930008FEF9FEF0EC0F60181936F010F5F1F4F76
:10194000E0CF61E471E0C3010E94182C892B81F77C
:10195000C8010F900F900F900F900F90DF91CF91D3
:101960001F910F91FF90EF90DF90CF90BF90AF90BD
:101970009F908F907F906F9008950F931F93CF93B8
:10198000DF93EC01CE010E94250E892B89F40E9481
:101990000A1F0F8D18A129A13AA1601B710B820BA0
:1019A000930B613D77408105910560F35F98EACF25
:1019B000CE010E94990D182FCE010E94990DCB9750
:1019C000D9F7812FDF91CF911F910F910895CF9279
:1019D000DF92EF92FF920F931F93CF93DF93EC016F
:1019E000E62ED72EF42E0E940A1F6F8F78A389A3AC
:1019F0009AA360E0CE010E94BA0D67E072E0CE01CA
:101A00000E943B0C6F2DCE010E94BA0DCE2C0E2DE4
:101A10001D2D802F8C198F1538F4F80161918F01DD
:101A2000CE010E94BA0DF5CF6BE3CE010E94BA0D34
:101A3000CE010E94BD0C8F3429F4CE010E94BD0C52
:101A400081E001C080E0DF91CF911F910F91FF9065
:101A5000EF90DF90CF900895BF92CF92DF92EF92F8
:101A6000FF920F931F93CF93DF93CDB7DEB72897E5
:101A70000FB6F894DEBF0FBECDBF8C0160E00E94B0
:101A8000BA0D61E072E0C8010E943B0CCE010196E4
:101A90007C0188E0F70111928A95E9F7C8010E945C
:101AA000250E892BD9F3B12CC8010E940D0ECB2C29
:101AB000D12CCB9719F4F5E0FB1570F0C8010E940A
:101AC000990DF701EC0DFD1D8083C8010E94250EC4
:101AD000892BD9F3B394E8CFC8010E94990D40E057
:101AE00060E070E0CB0122E0C21AD108242F30E080
:101AF0002C153D0574F4982F872F762F6627F70154
:101B0000E20FF31F2081620F711D811D911D4F5F38
:101B1000EDCF28960FB6F894DEBF0FBECDBFDF9194
:101B2000CF911F910F91FF90EF90DF90CF90BF90DA
:101B30000895209172033091730328173907B9F47F
:101B40009091300380913103981789F0E091300330
:101B5000F0E0EE5CFC4F80812091300330E02F5F9D
:101B60003F4F2F7333272093300390E008958FEF7A
:101B70009FEF08951F93CF93DF93DC015C968D91C7
:101B80009C915D97009749F481E090E013969C93B7
:101B90008E93129780E090E03BC05196ED91FC91BE
:101BA000529750962C915097322F30951FB75E96D2
:101BB0004C915E9741FB772770F941FD6095F89451
:101BC0004081772311F0422B01C043234083EC0175
:101BD0002197F1F748E0508160FF02C0522B01C00D
:101BE00053235083EC012197F1F76695415099F703
:101BF0008081772311F0832301C0822B80831FBF54
:101C00005C968D919C915D970197F1F781E090E052
:101C1000DF91CF911F910895089520917203309123
:101C200073032817390771F49091300380913103C1
:101C3000981741F0E0913003F0E0EE5CFC4F8081BA
:101C400090E008958FEF9FEF0895209172033091F7
:101C500073032817390771F4809131032091300301
:101C600090E0805C9F4F821B910960E470E00E94CD
:101C70007D2B089580E090E00895E0917203F0914B
:101C80007303E817F90769F4A389B4899C918589DE
:101C9000809589238C93109273031092720381E0D4
:101CA000089580E00895CF93DF93EC018A8D9B8D9A
:101CB000892BF1F080917203909173038C179D072B
:101CC000B9F0009711F00E943D0E8E8D8E7F8E8FA1
:101CD0001092310310923003D0937303C0937203B8
:101CE000EB89FC8980819D89892B808381E001C0FB
:101CF00080E0DF91CF9108951F920F920FB60F925F
:101D000011242F933F934F935F936F937F938F9300
:101D10009F93AF93BF93EF93FF93E0917203F09182
:101D20007303309709F451C0868DA685B7859585D4
:101D300081FF04C08C91892329F447C08C918923A9
:101D400009F043C0A389B4899C9185898095892332
:101D50008C93868997890197F1F7208D318DA6851F
:101D6000B785758558E040E0C9010197F1F7842FE8
:101D700090E095958795482F6C91672309F040680E
:101D8000515091F7868D81FD40958091310390E00F
:101D900001968F73992720913003281749F0A0915D
:101DA0003103B0E0AE5CBC4F4C938093310303C071
:101DB000868D8160868F828D938D0197F1F7A3893F
:101DC000B4898C919589892B8C93FF91EF91BF9168
:101DD000AF919F918F917F916F915F914F913F91C3
:101DE0002F910F900FBE0F901F90189524E531E0B2
:101DF000FC01318320830C943D0E1F93CF93DF931E
:101E0000EC01162F6E8D6695617081E06827812F39
:101E10000E94732061E0812F0E943A20812F90E080
:101E2000FC01EA5CFD4FE491E88BFC01EB5AFD4FAD
:101E3000E491F0E0EE0FFF1FEE57FD4F8591949176
:101E40009A8B898BDF91CF911F9108951F93CF9328
:101E5000DF93EC01162F60E0812F0E943A208E8DD7
:101E600081FD04C061E0812F0E9473201C87812FB7
:101E700090E0FC01EA5CFD4FE491ED87FC01EB5A38
:101E8000FD4FE491F0E0EE0FFF1FEC58FD4F859100
:101E900094919F878E87DF91CF911F910895FF9234
:101EA0000F931F93CF93DF93EC01F62E522F1B82DB
:101EB0001A8208EE13E020E030E00C831D832E83AD
:101EC0003F8384E591E0998388831F8A1E8A198E57
:101ED000188E1B8E1A8E1D8E1C8E8E8D8E7F50FB43
:101EE00081F98E8F642FCE010E94FD0E6F2DCE01E1
:101EF000DF91CF911F910F91FF900C94260FCF93FC
:101F0000DF93EC019A01AB011B8E1A8E198E188E8D
:101F10001F8A1E8A60E079E08DE390E00E94B32B77
:101F2000C9012430310520F0B9016350710902C0A4
:101F300061E070E07D8F6C8FEC85F8EFFE0FF43080
:101F400048F062EF6E0F643028F066EE6E0F63307B
:101F500008F06FC0B901769567956431710518F086
:101F60006351710902C061E070E07F8B6E8B069750
:101F700018F0C901059702C081E090E0998F888F21
:101F8000C901880F991F820F931F96958795969583
:101F900087958D30910510F00C9702C081E090E09C
:101FA0009B8F8A8FF43058F082EF8E0F843038F098
:101FB000EA51E33008F042C0A8E6B0E041C0A8E62C
:101FC000B0E0E8E6F0E0808181608C932C8538EF0A
:101FD000320F343040F082EF820F843020F086EEF2
:101FE000820F833018F48BE690E002C080E090E02E
:101FF0009C8B8B8B343010F4245009C02E3069F048
:102000002F3069F0203169F0213169F0265181E0EB
:1020100001C0880F2A95EAF707C088E005C082E072
:1020200003C084E001C081E08D8B8C8D9D8D019774
:10203000F1F7CE01DF91CF910C94530EA0E0B0E008
:10204000E33008F4BECFE0E0F0E0BDCF0F931F9384
:10205000FC010FEF1FEF980100831183228333836C
:1020600010861186128613864FEF59EC6AE97BE3DE
:10207000408B518B628B738B408F518F628F738F2C
:1020800040A351A362A373A340A751A762A773A75C
:1020900040AB51AB62AB73AB00AF11AF22AF33AF0C
:1020A000DC01A05CBF4F8FEF90E011969C938E9364
:1020B00014960D931D932D933C93139718960D939F
:1020C0001D932D933C93139718961C9211961C9276
:1020D000509686E08C9311961C9211961C92119644
:1020E0001C92EA5AFF4F10821F910F9108952FEB17
:1020F000260F862F992787FD9095263010F4C797D5
:1021000008956156663018F4875591090895C0976F
:1021100008950F931F93FB0160E070E0CB010191E4
:1021200020ED200F2A30A0F4AAE0B0E09B01AC0122
:102130000E94D82B112707FD1095212F312F600FFA
:10214000711F821F931F6053710981099109E7CFA5
:102150001F910F9108950F931F93CF93FC01EA5A9B
:10216000FF4FC1E020812D3219F0C0E08F0103C084
:102170008C01095A1F4FB8010E9489109B01AC01C4
:10218000A4E6B0E00E94D82BF801DF01219130EDE8
:10219000320F3A30D0F32E3269F511962C91119707
:1021A00030ED320F3A3030F5332727FD309520538C
:1021B00031094AE0429F8001439F100D11242227DC
:1021C00017FD2095322F600F711F821F931F1296EB
:1021D0000C9120ED200F2A3068F4112707FD10958F
:1021E00000531109222717FD2095322F600F711F10
:1021F000821F931FCC2339F090958095709561953F
:102200007F4F8F4F9F4FCF911F910F9108954F9206
:102210005F926F927F928F929F92AF92BF92CF9276
:10222000DF92EF92FF92CF93DF93EC01CA5ADF4F18
:10223000BE010E9489102B013C0124E630E040E001
:1022400050E00E94912B9B01AC0160EA76E881E0AE
:1022500090E00E94592B6B017C01FE01819190ED71
:10226000980F9A30D8F38E3219F5EF0180E1882E5D
:1022700087E2982EA12CB12CA99180ED8A0F8A308B
:10228000B8F4BB27A7FDB095D097A50194010E9493
:10229000E32BC60ED71EE81EF91EC501B4012AE0C5
:1022A00030E040E050E00E94912B49015A01E4CF18
:1022B000C701B6016D5F7F4F8F4F9F4F26E030E023
:1022C00040E050E00E94912B69017A01C301B20104
:1022D00024E630E040E050E00E94912B60E472E49C
:1022E0008FE090E00E94592BC60ED71EE81EF91E03
:1022F000C701B601DF91CF91FF90EF90DF90CF90B3
:10230000BF90AF909F908F907F906F905F904F9015
:102310000895DB01FA018D91882319F091918917B5
:10232000D1F3992787FD90950895CF92DF92EF9290
:10233000FF920F931F93CF93DF93EC01FC01EB5AB5
:10234000FF4F1081112309F4B1C0319660810E94C2
:102350007710182FFE01E95AFF4F6081CE010E94CD
:10236000771050E1159F800D1124FE01EC5AFF4FAC
:102370009081891711F010E0EBC2FE01EB59FF4F7D
:102380002081213081F48C819D81AE81BF81888341
:102390009983AA83BB838C859D85AE85BF858887FD
:1023A0009987AA87BB87FE01E859FF4F1081112347
:1023B00011F3B09780819181A281B381349780839A
:1023C0009183A283B3833C9680819181A281B38162
:1023D000349780839183A283B3832223A1F1213098
:1023E00009F0B6C28C819D81AE81BF8188839983BB
:1023F000AA83BB838C859D85AE85BF858887998799
:10240000AA87BB878C899D89AE89BF89888B998B68
:10241000AA8BBB8B8C8D9D8DAE8DBF8D888F998F38
:10242000AA8FBB8F8CA59DA5AEA5BFA588A799A790
:10243000AAA7BBA78CA99DA9AEA9BFA988AB99AB38
:10244000AAABBBAB85C28CA19DA1AEA1BFA188A345
:1024500099A3AAA3BBA38C819D81AE81BF818883F0
:102460009983AA83BB838C899D89AE89BF89888B18
:10247000998BAA8BBB8B8C8D9D8DAE8DBF8D888FDC
:10248000998FAA8FBB8FFE01E05CFF4FDE01AE5B30
:10249000BF4F8D919C91918380838CAD9DADAEADEE
:1024A000BFAD88AF99AFAAAFBBAF52C2FC01EA592A
:1024B000FF4FE0808B599F4F6C01E11017C07E01E8
:1024C00096E5E90EF11C40E651E0B701CE010E940D
:1024D0008911892B09F4FBC146E651E0B701CE0111
:1024E0000E948911892B09F4F2C1F3C1FC0100811A
:1024F000063009F440CFCE018A5A9F4FFC0140813B
:10250000442309F438CFF0E20F9F90011124F12CFD
:102510002E293F292434310509F4FEC008F067C094
:102520002232310509F4CEC078F52530310509F4A1
:10253000FBC098F42230310509F4CBC028F42130D7
:10254000310509F4B3C004C22330310509F4D1C008
:102550002430310509F4E0C0FBC12830310509F40D
:102560001DC148F42630310509F40AC12730310570
:1025700009F40EC1EDC12930310509F417C121322A
:10258000310509F493C0E4C12732310509F4E8C0EC
:1025900078F42432310509F4ACC008F49AC025322D
:1025A000310509F4B9C02632310509F4BDC0D0C1E6
:1025B0002134310509F47AC088F42832310509F450
:1025C000D7C02932310509F0C3C1BC01CE010E9438
:1025D00089106C877D878E879F87BAC12234310529
:1025E00009F477C02334310509F483C0B1C120391F
:1025F000310509F418C158F52438310509F413C11F
:1026000078F42634310509F4A2C008F48DC02734CB
:10261000310509F4BDC02238310509F4CFC098C195
:102620002B38310509F406C148F42738310509F47F
:1026300001C12838310509F4F6C08AC12C383105AA
:1026400009F4F1C02F38310509F4F4C081C1283AEA
:10265000310509F4E8C098F4223A310509F4AEC016
:1026600028F42339310509F4E5C072C1243A310553
:1026700009F4D9C0273A310509F4DCC069C12F3A01
:10268000310509F4D7C048F42B3A310509F4D2C01A
:102690002C3A310509F4C7C05BC1203B310509F470
:1026A000C2C0233B310509F4C5C052C1CE010E940E
:1026B000AB106C837D838E839F830E940A1FC85B4F
:1026C000DF4F12C0C859DF4F81E0413409F05EC0CE
:1026D000A8C0CE010E9407116C8B7D8B8E8B9F8BC7
:1026E0000E940A1FC05BDF4F688379838A839B83C4
:1026F0002FC1433509F03FCE8C899D89AE89BF89B2
:10270000B095A095909581959F4FAF4FBF4F8C8B03
:102710009D8BAE8BBF8B1CC1CE010E9407116C8FAD
:102720007D8F8E8F9F8F14C1473509F024CE8C8DFD
:102730009D8DAE8DBF8DB095A095909581959F4F45
:10274000AF4FBF4F8C8F9D8FAE8FBF8F01C145E0C4
:1027500050E0BC01CE0187599F4F0E94212CF8C048
:10276000CE010E94AB106CA77DA78EA79FA7F0C0DB
:10277000CE010E94AB106CAB7DAB8EAB9FABE8C0C3
:10278000C859DF4F81E041330CF04BC080E049C0B5
:102790000E94FA2BCE5BDF4F992749C0CE010E94E1
:1027A000AB106CAF7DAF8EAF9FAFD2C0CE010E9499
:1027B000AB106CA37DA38EA39FA3CAC00E94FA2B6B
:1027C000815069F0CF52DF4F982F990F990F98835E
:1027D000053009F0D0CD880F880F845F22C020E03B
:1027E00030E0043079F4FE01E20FF31FE159FF4FAE
:1027F00010821182128213822C5F3F4F20333105E9
:1028000091F7E0CFFE01E20FF31FE156FF4F108278
:102810001182128213822C5F3F4F2033310591F7D2
:10282000D1CF888395C00E94FA2BC153DF4F998383
:1028300088838EC00E94FA2BFE01EF52FF4F811158
:102840001AC0208130E0C701079797FD0396959540
:10285000879595958795820F931F880F991F880FED
:10286000991F8C0F9D1FFC01E159FF4F10821182AF
:10287000128213826DC0408150E0970127503109C8
:1028800037FF02C02D5F3F4F35952795359527952A
:10289000240F351F220F331F220F331F2C0F3D1F14
:1028A000F901E159FF4FAC015527440F551FC153A2
:1028B000DF4F80E090E09881482B592B662757FD29
:1028C0006095762F408351836283738341C081E09A
:1028D00026C044E851E0B701CE010E948911892B3E
:1028E00019F4F601108234C04CE651E0B701CE0174
:1028F0000E948911892B11F482E011C042E751E056
:10290000B701CE010E948911892B41F048E751E0BF
:10291000B701CE010E948911892B21F483E0F601D1
:10292000808316C04AE851E0B701CE010E948911A8
:10293000892B11F484E0F3CF4EE751E0B701CE01CB
:102940000E948911892B11F485E0E9CF86E0E7CF59
:10295000812FDF91CF911F910F91FF90EF90DF902A
:10296000CF900895CF92DF92EF92FF920F931F9333
:10297000CF93DF931F92CDB7DEB76C018C0109595D
:102980001F4F8B5A9F4F7C01643281F12CF46A30C7
:1029900069F06D30E9F50AC06A3241F06C32C1F578
:1029A000F601EC5AFF4F808186278083F8018081F1
:1029B0008F3060F4F601E80FF11DEA5AFF4F1082E4
:1029C000C60169830E949511698101C080E0F6010A
:1029D000EA59FF4F90819F5F9083F801108291E048
:1029E0006A3209F090E0F70190832AC0F801108262
:1029F000F601EA59FF4F108272971082719686E0B5
:102A00008083F7011082F601E859FF4F108217C04A
:102A1000F80180818E3048F491E0980F9083F601A0
:102A2000E80FF11DEA5AFF4F6083F70180818111A1
:102A300006C0F601EC5AFF4F80818627808380E034
:102A40000F90DF91CF911F910F91FF90EF90DF904A
:102A5000CF900895CF92DF92EF92FF920F931F9342
:102A6000CF93DF93E9016115710551F0FC01C08836
:102A7000D188E288F388FB01C082D182E282F382AE
:102A80004115510551F0FC01C08CD18CE28CF38CC6
:102A9000FA01C082D182E282F382209701F18C0197
:102AA000045B1F4FF80180819181A281B3818F3F28
:102AB0009F4FAF4FBF4F61F00E940A1FF801008186
:102AC000118122813381601B710B820B930B03C038
:102AD0006FEF7FEFCB01688379838A839B83DF91DC
:102AE000CF911F910F91FF90EF90DF90CF900895BD
:102AF000CF92DF92EF92FF920F931F93CF93DF93CA
:102B0000E9016115710551F0FC01C084D184E284B2
:102B1000F384FB01C082D182E282F3824115510528
:102B200051F0FC01C080D180E280F380FA01C082C4
:102B3000D182E282F382209701F18C010C5B1F4F5E
:102B4000F80180819181A281B3818F3F9F4FAF4F68
:102B5000BF4F61F00E940A1FF8010081118122819C
:102B60003381601B710B820B930B03C06FEF7FEF00
:102B7000CB01688379838A839B83DF91CF911F91F7
:102B80000F91FF90EF90DF90CF900895AF92BF929A
:102B9000CF92DF92EF92FF920F931F93CF93DF9329
:102BA000CDB7DEB728970FB6F894DEBF0FBECDBF06
:102BB0005B018A01AE014F5F5F4FBE016B5F7F4FCC
:102BC0000E942A15CD80DE80EF80F8848FEFC81632
:102BD00089ECD8068AE9E8068BE3F80659F0C701C4
:102BE000B6010E94F52920E034E244E759E40E944E
:102BF0005A2904C060E070E08AE794E4F50160833C
:102C0000718382839383FFEFCF16F9ECDF06FAE935
:102C1000EF06FBE3FF0669F069817A818B819C8175
:102C20000E94F52920E034E244E759E40E945A2941
:102C300004C060E070E08AE794E4F8016083718387
:102C40008283938328960FB6F894DEBF0FBECDBF64
:102C5000DF91CF911F910F91FF90EF90DF90CF9078
:102C6000BF90AF9008952F923F924F925F926F92D4
:102C70007F928F929F92AF92BF92CF92DF92EF920C
:102C8000FF920F931F93CF93DF93CDB7DEB72A97B1
:102C90000FB6F894DEBF0FBECDBF2B015A87498710
:102CA00019019401AE014F5F5F4FBE016B5F7F4F13
:102CB0000E94781541145104B9F06D817E818F8195
:102CC000988524E630E040E050E00E94912B613589
:102CD00071051CF02CE637E002C020ED37E0620FF2
:102CE000731FF2017183608389859A85892BB1F006
:102CF0006D817E818F81988534E6432E512C612C25
:102D0000712CA30192010E94912BCA01B901A30168
:102D100092010E94912BE985FA8560832114310488
:102D200061F06D817E818F81988520E137E240E0FE
:102D300050E00E94912BF10120830115110561F0F3
:102D400069817A818B819C8120E432E44FE050E0FC
:102D50000E94912BF8012083E114F104A1F0698114
:102D60007A818B819C8120E137E240E050E00E9433
:102D7000912BCA01B90124E630E040E050E00E9406
:102D8000912BF7016083C114D104A9F069817A8184
:102D90008B819C8124E6422E512C612C712CA30145
:102DA00092010E94912BCA01B901A30192010E94D4
:102DB000912BF6016083A114B10461F069817A81DD
:102DC0008B819C8124E630E040E050E00E94912B12
:102DD000F50160832A960FB6F894DEBF0FBECDBF13
:102DE000DF91CF911F910F91FF90EF90DF90CF90E7
:102DF000BF90AF909F908F907F906F905F904F901B
:102E00003F902F900895FC0160A171A182A193A130
:102E10006F3FF9EC7F07FAE98F07FBE39F0749F063
:102E20000E94F52920E030E048EC52E40E945A2943
:102E3000089560E074E284E799E40895FC0160A5D8
:102E400071A582A593A56F3FF9EC7F07FAE98F077B
:102E5000FBE39F0749F00E94F32920E030E048ECB3
:102E600052E40E945A29089560E070E080E89FEBE8
:102E70000895CF92DF92EF92FF920E941E176B018E
:102E80007C0120E030E040E85FEB0E945629882377
:102E900049F026E53EE04DEE5FE3C701B6010E9432
:102EA000A92A04C060E070E080E89FEBFF90EF90FB
:102EB000DF90CF900895DC01ED91FC910190F081BD
:102EC000E02D0994FC01608340EE5EE265E672E469
:102ED000478B508F618F728F0895FC018381089515
:102EE000FC0184810895FC01858108951F93CF938F
:102EF000DF93EC01162F688184E793E00E947D192F
:102F0000612F84E793E00E94341960E084E793E046
:102F10000E94891941E0688184E793E00E94FD19CD
:102F200084E793E00E94DC18892B29F084E793E082
:102F30000E94E41801C080E0DF91CF911F910895B5
:102F40001F93CF93DF93EC01688184E793E00E94A5
:102F50007D196AE284E793E00E94341984E793E0E4
:102F60000E94031A41E0688184E793E00E94FD1902
:102F700084E793E00E94DC18892B31F084E793E02A
:102F80000E94E418182F01C010E0688184E793E0E4
:102F90000E947D196AE284E793E00E943419612F50
:102FA00070E06E7F84E793E00E945B1784E793E014
:102FB000DF91CF911F910C94031A1F93CF93DF934E
:102FC000EC01688184E793E00E947D196AE284E75E
:102FD00093E00E94341984E793E00E94031A41E0D1
:102FE000688184E793E00E94FD1984E793E00E94E2
:102FF000DC18892B31F084E793E00E94E418182F45
:1030000001C010E0688184E793E00E947D196BE2C3
:1030100070E084E793E00E945B1769E070E084E76A
:1030200093E00E945B1784E793E00E94031A688193
:1030300084E793E00E947D196AE284E793E00E94AE
:1030400034198A85882319F060E070E002C062E0DC
:1030500070E01163612B84E793E00E945B1784E7C3
:1030600093E0DF91CF911F910C94031ACF93DF93DC
:10307000EC016A874A836DE00E947617688184E7D5
:1030800093E00E947D196BE270E084E793E00E9478
:103090005B1760E470E084E793E00E945B1784E7CD
:1030A00093E00E94031A6AE070E080E090E00E94E2
:1030B000391FCE010E94A017688184E793E00E9427
:1030C0007D196EE070E084E793E00E945B178A81CF
:1030D000843029F0883051F462E070E002C061E091
:1030E00070E084E793E00E945B1705C060E084E72E
:1030F00093E00E94341984E793E00E94031ACE0102
:10310000DF91CF910C94DD171F93CF93DF93EC01E8
:10311000688184E793E00E947D1960E084E793E092
:103120000E94341960E084E793E00E948919182F07
:103130008A85882311F047E001C044E0688184E774
:1031400093E00E94FD1984E793E00E94DC18892B2C
:1031500071F184E793E00E94E41889838A858823CB
:10316000B9F084E793E00E94E41884E793E00E94BA
:10317000E4188B8384E793E00E94E41884E793E0EB
:103180000E94E4188C8384E793E00E94E4180AC04C
:1031900084E793E00E94E4188B8384E793E00E9425
:1031A000E4188C8384E793E00E94E4188D83812FD8
:1031B000DF91CF911F9108958091A40390E0209119
:1031C000A503821B910908952091A5038091A40372
:1031D000281750F4E22FF0E0EA55FC4F808190E090
:1031E0002F5F2093A50308958FEF9FEF0895E0913F
:1031F000A5038091A403E81730F4F0E0EA55FC4FF2
:10320000808190E008958FEF9FEF08950895CF9209
:10321000DF92EF92FF920F931F93CF93DF937C0186
:10322000CB018A0120918003222389F0EB016B01FD
:10323000C40ED51ECC15DD0569F06991D701ED915D
:10324000FC910190F081E02DC7010995F3CF642F27
:103250000E94C71AC801DF91CF911F910F91FF9073
:10326000EF90DF90CF900895CF93DF931F92CDB76B
:10327000DEB76983209180032223D1F0209181035E
:10328000203240F021E030E0FC013383228380E0F3
:1032900090E015C080918203E82FF0E0ED57FC4FDD
:1032A000998190838F5F809382038093810305C00F
:1032B00061E0CE0101960E94C71A81E090E00F9074
:1032C000DF91CF910895FC011382128248EE53E002
:1032D00060E070E0448355836683778384E991E0FE
:1032E0009183808308951092A5031092A4031092F5
:1032F0008203109281030C940A1A81E08093800368
:103300006093A303109282031092810308950C949A
:103310007D190F93062F21E04091810363E873E04C
:103320008091A3030E94701A10928203109281036D
:10333000109280030F9108958F929F92AF92BF9247
:10334000CF92DF92EF92FF920F931F93CF93DF9371
:10335000EC01F62ED42E48015901EE2019F10E94FD
:103360007D191E2D143008F013E01150B8F0E881DB
:10337000F98128E0129FB0011124A501940104C035
:1033800056954795379527956A95D2F7CA01B901A1
:103390000190F081E02DCE010995E7CF60E0CE01EC
:1033A0000E9489194D2D413208F040E22C2D66EA29
:1033B00073E08F2D0E94281A1092A5038093A40316
:1033C000DF91CF911F910F91FF90EF90DF90CF9001
:1033D000BF90AF909F908F900895CF92EF920F93F0
:1033E0001F93C22EE12C00E010E098010E949C196E
:1033F0001F910F91EF90CF90089521E00C94ED195B
:1034000021E00C94ED1961E00C94891984E793E0B4
:103410000C9463191092330481E08093310410926C
:10342000300461E082E00E94732061E083E00E944A
:103430007320E9EBF0E080818E7F808380818D7F37
:10344000808388E48093B80085E48093BC0008956D
:10345000413208F043C0909133049111FCCF91E0C8
:1034600090933304209331042FEF2093C6031092DE
:103470000B04240F20930A04909332049091320499
:10348000880F892B8093320480913004813061F45D
:1034900010923004809132048093BB008091BC0074
:1034A00083FDF8CF85EC01C085EE8093BC00809150
:1034B00033048130E1F380910B04841710F44091C0
:1034C0000B042CE034E0FB01D9018A2F821B841706
:1034D00018F48D918193F9CF842F089580E0089599
:1034E0000F93413208F04AC0909133049111FCCF00
:1034F00092E090933304009331049FEF9093C603BE
:1035000010920B0440930A04FB016CE074E0DB01B1
:103510009A2F961B941718F491919D93F9CF1092BE
:10352000320490913204880F892B80933204809169
:103530003004813061F41092300480913204809321
:10354000BB008091BC0083FDF8CF85EC01C085EE07
:103550008093BC00222321F0809133048230E1F378
:103560008091C6038F3F61F08091C603803251F095
:103570008091C603803341F483E007C081E005C039
:1035800080E003C082E001C084E00F9108956132C1
:1035900098F420913304243089F46093E803FC010B
:1035A0008AEE93E0DC012A2F281B261718F42191BC
:1035B0002D93F9CF80E0089581E0089582E0089589
:1035C00085ED8093BC008091BC0084FDFCCF1092FF
:1035D0003304089585EC8093BC0010923304089561
:1035E0001F920F920FB60F9211242F933F934F9378
:1035F0005F936F937F938F939F93AF93BF93EF935B
:10360000FF938091B900887F803609F49EC078F5D9
:10361000883209F45DC090F4803109F456C038F462
:10362000882309F4F5C0883009F44FC0F5C088310B
:1036300009F44EC0803209F45FC0EEC0803409F452
:103640006AC058F4803309F457C0883309F0E4C0E5
:103650008093C6030E94EA1ADFC0803509F44FC088
:10366000883509F45DC0883409F0D6C0D3C08839E4
:1036700009F4C4C0A8F4883709F467C038F4883660
:1036800009F463C0803709F460C0C6C0883809F403
:10369000B5C0803909F45FC0803809F0BDC05BC097
:1036A000803B09F483C038F4803A09F466C0883A54
:1036B00009F47CC0B1C0803C09F4A4C0883C09F482
:1036C000A1C0883B09F487C0A7C08091320410C014
:1036D00090910B0480910A04981770F5E0910B0407
:1036E00081E08E0F80930B04F0E0E45FFB4F80815C
:1036F0008093BB0085EC83C08093C6038BC0E091B0
:103700000B0481E08E0F80930B048091BB00F0E0EE
:10371000E45FFB4F808390910B0480910A046BC09F
:10372000E0910B0481E08E0F80930B048091BB002D
:10373000F0E0E45FFB4F80838091310481116AC027
:1037400081E08093300484EA5EC083E08093330498
:103750001092C703CFCF8091C703803208F04EC0CC
:10376000E091C70381E08E0F8093C7038091BB0077
:10377000F0E0E853FC4F8083BDCF0E94EA1A8091AD
:10378000C703803230F4E091C703F0E0E853FC4F08
:1037900010826091C70370E0E0912C04F0912D0439
:1037A00088EC93E009951092C70336C084E08093BB
:1037B00033041092E9031092E803E0912E04F09193
:1037C0002F0409958091E803811105C081E0809361
:1037D000E8031092EA03E091E90381E08E0F809301
:1037E000E903F0E0E651FC4F80818093BB009091AB
:1037F000E9038091E803981708F47CCF85E880936B
:10380000BC000AC085EC8093BC001092330404C055
:103810001092C6030E94E01AFF91EF91BF91AF9101
:103820009F918F917F916F915F914F913F912F91D8
:103830000F900FBE0F901F901895CF92DF92EF92CE
:10384000FF92CF93DF93EC019B0140E050E08E8527
:103850009F85281B390B41095109AC85BD850E9404
:10386000D82B6B017C018FE0F594E794D794C79433
:103870008A95D1F76E897F89882777FD8095982F63
:103880002BE0660F771F881F991F2A95D1F7288D87
:10389000398D442737FD4095542F2C0D3D1D4E1D6D
:1038A0005F1D0E94B32B2C0D3D1D4E1D5F1D2883F7
:1038B00039834A835B83CA01B901685F7F4F8F4FA9
:1038C0009F4F34E095958795779567953A95D1F711
:1038D0000E94F52920E030E040E251E40E945A299C
:1038E000DF91CF91FF90EF90DF90CF9008952F92CE
:1038F0003F924F925F926F927F928F929F92AF9280
:10390000BF92CF92DF92EF92FF920F931F93CF93CC
:10391000DF93CDB7DEB728970FB6F894DEBF0FBEA2
:10392000CDBF1C014D835E836F837887DC01CD9012
:10393000DD90ED90FC90B0EACB1ABFE0DB0AE10825
:10394000F108A7019601C701B6010E94592B4B014E
:103950005C01F10104811581A085B1850E94E32BF2
:103960002B013C018DE075946794579447948A9598
:10397000D1F7A089B189A50194019CE0559547959F
:10398000379527959A95D1F70E94E32BBB2797FD92
:10399000B095AB2F480E591E6A1E7B1EF2E04F0EEB
:1039A000511C611C711C32E07594679457944794C4
:1039B0003A95D1F780E8580E611C711CF101A2857F
:1039C000B385A30192010E94D82BDC01CB014FE00B
:1039D000B695A795979587954A95D1F789839A8348
:1039E000AB83BC832801662457FC6094762C52E09C
:1039F000440C551C661C771C5A95D1F7A289B389D3
:103A0000A50194010E94E32B4B015C0167E1B59491
:103A1000A794979487946A95D1F7A681B781A70157
:103A200096010E94E32BEBE0959587957795679536
:103A3000EA95D1F7860E971EA81EB91E480C591C90
:103A40006A1C7B1C92E0490E511C611C711CF2E047
:103A50007594679457944794FA95D1F78D819E8118
:103A6000AF81B88584199509A609B7098D839E830E
:103A7000AF83B887A0E5B3EC2D813E814F81588597
:103A80000E94D82B97FD0DC0660F771F881F991FC6
:103A900029813A814B815C810E94912B49015A0115
:103AA0000CC029813A814B815C810E94912B490194
:103AB0005A01880C991CAA1CBB1C9927B7FC9A9523
:103AC0008B2D7A2D692D9B01AC010E94592B9B01F6
:103AD000AC01AEEDBBE00E94D82B6C01FF24D7FCFB
:103AE000F094EF2CA3E4B3EEA50194010E94E62B21
:103AF000BB2797FDB095AB2FC80ED91EEA1EFB1E43
:103B00009FECC90E9EE0D91EE11CF11CF4E0F59477
:103B1000E794D794C794FA95D1F7C80CD91CEA1C3E
:103B2000FB1CC701B60128960FB6F894DEBF0FBE86
:103B3000CDBFDF91CF911F910F91FF90EF90DF905C
:103B4000CF90BF90AF909F908F907F906F905F903D
:103B50004F903F902F900895CF93C62F67E770E066
:103B600084E793E00E9487196C2F84E793E00E941A
:103B7000341984E793E00E94031A41E050E067E7BC
:103B800070E084E793E00E94001A84E793E00E94CB
:103B9000DC18892BD1F384E793E00E94E418CF91DD
:103BA00008950F931F93CF93DF93EC0167E770E0C5
:103BB00084E793E00E94871964EF70E084E793E064
:103BC0000E945B1764E370E084E793E00E945B1758
:103BD00084E793E00E94031A65E070E080E090E0E3
:103BE0000E94391F66EFCE010E94AC1D182F67EFAF
:103BF000CE010E94AC1D082F68EFCE010E94AC1DC3
:103C0000402F50E060E070E0762F652F542F44275E
:103C1000612B9927872F762F652FDF91CF911F91E9
:103C20000F9108951F93CF93DF93162F67E770E0EE
:103C300084E793E00E948719612F84E793E00E9454
:103C4000341984E793E00E94031A42E050E067E7EA
:103C500070E084E793E00E94001A84E793E00E94FA
:103C6000DC180297D4F384E793E00E94E418182F3D
:103C700084E793E00E94E418D12F20E0C22F9E0138
:103C8000282BC901DF91CF911F910895CF93DF9326
:103C9000EC0184E793E00E9473196AEACE010E9466
:103CA000121E9D838C836CEACE010E94121E9F839C
:103CB0008E836EEACE010E94121E9987888760EB80
:103CC000CE010E94121E9B878A8762EBCE010E9462
:103CD000121E9D878C8764EBCE010E94121E9F8767
:103CE0008E8766EBCE010E94121E998B888B68EB43
:103CF000CE010E94121E9B8B8A8B6AEBCE010E9422
:103D0000121E9D8B8C8B6CEBCE010E94121E9F8B22
:103D10008E8B6EEBCE010E94121E998F888F60ED04
:103D2000CE010E94AC1D91E0853509F090E0892F0D
:103D3000DF91CF910895CF93DF93EC0167E770E0B7
:103D400084E793E00E94871964EF70E084E793E0D2
:103D50000E945B176EE270E084E793E00E945B17BD
:103D600084E793E00E94031A65E070E080E090E051
:103D70000E94391F66EFCE01DF91CF910C94121E85
:103D80001F920F920FB60F9211242F933F938F9390
:103D90009F93AF93BF938091350490913604A09187
:103DA0003704B09138043091340423E0230F2D37C9
:103DB00020F40196A11DB11D05C026E8230F02962F
:103DC000A11DB11D209334048093350490933604D3
:103DD000A0933704B09338048091390490913A0449
:103DE000A0913B04B0913C040196A11DB11D8093AC
:103DF000390490933A04A0933B04B0933C04BF91E0
:103E0000AF919F918F913F912F910F900FBE0F9087
:103E10001F9018952FB7F89460913504709136046F
:103E200080913704909138042FBF08953FB7F894DC
:103E30008091390490913A04A0913B04B0913C04E4
:103E400026B5A89B05C02F3F19F00196A11DB11DF5
:103E50003FBF6627782F892F9A2F620F711D811D12
:103E6000911D42E0660F771F881F991F4A95D1F771
:103E700008958F929F92AF92BF92CF92DF92EF926E
:103E8000FF926B017C010E94161F4B015C01C11463
:103E9000D104E104F104F1F00E9455280E94161F9C
:103EA000681979098A099B09683E73408105910563
:103EB00070F321E0C21AD108E108F10888EE880EFB
:103EC00083E0981EA11CB11CC114D104E104F104CB
:103ED00029F7DDCFFF90EF90DF90CF90BF90AF90AC
:103EE0009F908F900895789484B5826084BD84B546
:103EF000816084BD85B5826085BD85B5816085BDE5
:103F0000EEE6F0E0808181608083E1E8F0E01082FD
:103F1000808182608083808181608083E0E8F0E03E
:103F2000808181608083E1E9F0E08081826080832C
:103F3000808181608083E0E9F0E08081816080831E
:103F4000E1ECF0E080818460808380818260808306
:103F5000808181608083E3ECF0E0808181608083F8
:103F6000E0ECF0E0808182608083E2ECF0E0808130
:103F700081608083EAE7F0E08081846080838081D3
:103F8000826080838081816080838081806880837B
:103F9000089580930C010895823108F08251E82F32
:103FA000F0E0E55FFD4FE49180917B00E3FB222789
:103FB00020F930E095E0220F331F9A95E1F78F7DCD
:103FC000822B80937B00E77080910C0120E4829F1C
:103FD000C0011124E82BE0937C0080917A0080647A
:103FE00080937A0080917A0086FDFCCF80917800E2
:103FF0002091790090E0922B089590E0FC01319798
:10400000EF30F105B0F5EA5AFF4F0C94D22B8091B6
:1040100080008F7703C0809180008F7D8093800027
:10402000089580918000877FF9CF84B58F7702C093
:1040300084B58F7D84BD0895809190008F7707C0EF
:10404000809190008F7D03C080919000877F809346
:10405000900008958091C0008F7703C08091C000C8
:104060008F7D8093C00008958091C200877F8093E8
:10407000C2000895CF93DF9390E0FC01EA5CFD4F0E
:104080002491FC01EB5AFD4F8491882349F190E083
:10409000880F991FFC01E057FD4FA591B4918E57F1
:1040A0009D4FFC01C591D4919FB7611108C0F89450
:1040B0008C91209582238C93888182230AC0623060
:1040C00051F4F8948C91322F309583238C9388810E
:1040D000822B888304C0F8948C91822B8C939FBF91
:1040E000DF91CF9108950F931F93CF93DF931F928A
:1040F000CDB7DEB7282F30E0F901E95EFD4F84919E
:10410000F901EA5CFD4F1491F901EB5AFD4F04915E
:104110000023C9F0882321F069830E94FD1F698173
:10412000E02FF0E0EE0FFF1FEE57FD4FA591B49189
:104130009FB7F8948C91611103C01095812301C041
:10414000812B8C939FBF0F90DF91CF911F910F9187
:104150000895CF93DF931F92CDB7DEB76983DC015B
:10416000ED91FC910280F381E02D41E050E0BE0131
:104170006F5F7F4F09950F90DF91CF910895CF9397
:10418000DF93EC018C859D8597FF05C082E00E943E
:10419000ED249D878C878C859D85DF91CF91089537
:1041A00083E00C948127FC018485958597FD06C0EA
:1041B00082E00E94952490E00196089582E00E949A
:1041C000952490E00895FC018485958597FD05C0B0
:1041D0002FEF3FEF35872487089582E00C94ED247C
:1041E000CF93DF93EC0180911801882331F083E0B5
:1041F0000E941E251816190634F081E090E09B837A
:104200008A8380E090E0DF91CF910895FC012081C6
:104210002E5F208342E450E06EE972E080E80C9467
:10422000B925FC0121818081813A59F4213209F0BC
:104230004BC047E050E061E171E080E00E94B925A9
:104240005EC0813209F040C0233289F4838190E05E
:10425000982F88273281832BA0E0B0E080930D0156
:1042600090930E01A0930F01B09310010FC0203264
:1042700039F467E070E081E191E00E94EA2509C02D
:10428000223221F482818093180103C02D7F2032D5
:10429000B1F580918D04811103C0E0E0F8E002C027
:1042A000EEEFFAE08091110190911201A0911301BB
:1042B000B0911401803B9440A105B10511F58091A6
:1042C000180180FF03C01DC080E00895EE3F2AE082
:1042D000F20731F0808191819093FF0A8093FE0A6A
:1042E00087E797E7918380832BE088E190E00FB622
:1042F000F894A895809360000FBE2093600081E041
:10430000089588E10FB6F8948093600010926000E1
:104310000FBEA895EE3F8AE0F80739F08091FE0ABB
:104320009091FF0A91838083EACF1092FF0A109246
:10433000FE0AE5CF2FEF3FEFFC0135872487089574
:104340001092400410923F0488EE93E0A0E0B0E0A9
:104350008093410490934204A0934304B093440497
:1043600084EA91E090933E0480933D048FEF9FEFA9
:1043700090934A04809349040895CF92DF92EF927C
:10438000FF920F931F93CF93DF937C016A01EB01A0
:1043900000E010E00C151D0571F06991D701ED9159
:1043A000FC910190F081E02DC7010995892B19F04E
:1043B0000F5F1F4FEFCFC801DF91CF911F910F917A
:1043C000FF90EF90DF90CF9008956115710581F017
:1043D000DB010D900020E9F7AD0141505109461B6A
:1043E000570BDC01ED91FC910280F381E02D0994E3
:1043F00080E090E008950C94E521DC01ED91FC91C2
:104400000190F081E02D099460EB71E00C94E521BE
:104410008F929F92AF92BF92DF92EF92FF920F9393
:104420001F93CF93DF93CDB7DEB7A1970FB6F89464
:10443000DEBF0FBECDBF7C01F42FD52ECB0119A25C
:10444000223008F42AE08E010F5D1F4F822E912C3E
:10445000A12CB12C6F2F7D2DA50194010E94912BD1
:10446000F22FD32ECA01015011096A3014F4E0E38F
:1044700001C0E7E3E60FD801EC93232B242B252B77
:1044800049F7B801C7010E94E521A1960FB6F8943B
:10449000DEBF0FBECDBFDF91CF911F910F91FF9077
:1044A000EF90DF90BF90AF909F908F900895CF9244
:1044B000DF92EF92FF920F931F93CF93DF93EC0164
:1044C0006A017B012115310579F4E881F9810190B8
:1044D000F081E02D642FDF91CF911F910F91FF901C
:1044E000EF90DF90CF9009942A303105E9F477FFFF
:1044F0001AC06DE20E94FD218C0144275527BA01A4
:104500004C195D096E097F092AE0CE010E9408223C
:10451000800F911FDF91CF911F910F91FF90EF902E
:10452000DF90CF9008952AE0B701A601CE01DF9178
:10453000CF911F910F91FF90EF90DF90CF900C944F
:1045400008220F931F93CF93DF93EC019A01AB01E5
:10455000662757FD6095762F0E9457228C01CE0169
:104560000E940422800F911FDF91CF911F910F9124
:1045700008952115310541F4DC01ED91FC91019084
:10458000F081E02D642F09940C9408229A01462FA3
:1045900050E060E070E00C94B9220F931F93CF932A
:1045A000DF93EC019A01462F50E060E070E00E943A
:1045B000B9228C01CE010E940422800F911FDF914D
:1045C000CF911F910F9108959A01AB0160E070E0C7
:1045D0000C94B9220F931F93CF93DF93EC019A01B0
:1045E000AB0160E070E00E94B9228C01CE010E9414
:1045F0000422800F911FDF91CF911F910F91089599
:104600000F931F93CF93DF93EC010E94B9228C018B
:10461000CE010E940422800F911FDF91CF911F9144
:104620000F9108954F925F926F927F928F929F9217
:10463000AF92BF92CF92DF92EF92FF920F931F93B0
:10464000CF93DF93EC016A017B01B22E9A01AB019B
:10465000C701B6010E942C2B882319F063EB71E08F
:1046600027C026013701E89477F82FEF3FEF4FE797
:104670005FE7C301B2010E942C2B81110DC02FEF07
:104680003FEF4FE75FE7C301B2010E9456291816BA
:104690001CF467EB71E00CC02FEF3FEF4FE75FE4D6
:1046A000C701B6010E94A52A1816ACF46BEB71E0A5
:1046B000CE01DF91CF911F910F91FF90EF90DF908E
:1046C000CF90BF90AF909F908F907F906F905F90B2
:1046D0004F900C94E5212FEF3FEF4FE75FECC701C0
:1046E000B6010E94562987FDE1CF20E030E0A90104
:1046F000C701B6010E94562987FF0AC06DE2CE01AC
:104700000E94FD218C01F7FAF094F7F8F09402C0B2
:1047100000E010E0A12C60E070E080E09FE3AB14CB
:1047200041F020E030E040E251E40E945A29A39495
:10473000F6CF9B01AC01C701B6010E94F2286B01C4
:104740007C010E94C7292B013C010E94F3299B0197
:10475000AC01C701B6010E94F1286B017C012AE07F
:10476000B301A201CE010E940822080F191FBB202D
:1047700039F06FEB71E0CE010E94E521080F191F9F
:104780007B2C772041F120E030E040E251E4C7018A
:10479000B6010E94A92A6B017C010E94C2294B012B
:1047A000AA2497FCA094BA2C2AE030E0B501A40119
:1047B000CE010E945722080F191FC501B4010E94A3
:1047C000F5299B01AC01C701B6010E94F1286B01DC
:1047D0007C017A94D6CFC801DF91CF911F910F91C0
:1047E000FF90EF90DF90CF90BF90AF909F908F9011
:1047F0007F906F905F904F9008950C9412236150BA
:1048000030F02091F100FC0120830196F8CF289828
:1048100084E6809396040895409191045091920407
:1048200020918F043091900442175307B4F4909173
:10483000E8009570E1F39091E80092FD19C0809333
:10484000F100809191049091920401968F739927C1
:10485000892B19F48EEF8093E80080919104909158
:1048600092040196909392048093910481E00895BC
:1048700080E00895CF92DF92EF92FF920F931F9303
:10488000CF93DF931F92CDB7DEB7082F162FF42EEC
:10489000862F880F8E5F99830E940C2483E00E94EC
:1048A0000C24E02EC02E9981D92E8C2D8E198117C3
:1048B00098F4F601F7FE02C0849101C080810E9445
:1048C0000C24082F80E00E940C248023FFEFCF1AD5
:1048D000DF0A8111EACF01C081E00F90DF91CF9113
:1048E0001F910F91FF90EF90DF90CF900895CF939D
:1048F000DF931F92CDB7DEB71982CE0101960E94D9
:1049000006210E94DD28BE016F5F7F4F0E9456285E
:1049100089810F90DF91CF9108952FB7FC012083FB
:10492000F89467706093E9000895CF93DF931F9226
:10493000CDB7DEB7682FCE0101960E948D248091FD
:10494000F20099819FBF0F90DF91CF910895FF9260
:104950000F931F93CF93DF9300D0CDB7DEB7F62E22
:104960008A0190919504992311F057FF03C08FEFAE
:104970009FEF2BC0682FCE0101967A830E948D2471
:104980008091F20090E0A8017A81801791070CF4E1
:10499000AC01EF2DF72FF40E84E6FE1639F02898BF
:1049A000809396049091F1009193F7CF41155105B2
:1049B00021F08091F200882321F089818FBFCA0104
:1049C00004C08BE68093E800F8CF0F900F90DF9142
:1049D000CF911F910F91FF900895CF93DF931F9276
:1049E000CDB7DEB741E050E0BE016F5F7F4F0E9460
:1049F000A724019719F4898190E002C08FEF9FEFFF
:104A00000F90DF91CF910895CF93DF931F92CDB791
:104A1000DEB7682FCE0101960E948D249091E800A8
:104A2000892F807295FF04C09091F20080E4891B69
:104A300099819FBF0F90DF91CF9108956F927F92E0
:104A40008F929F92AF92BF92CF92DF92EF92FF929E
:104A50000F931F93CF93DF931F92CDB7DEB7782EBE
:104A60007B01C42EB52E80919504882369F0042F14
:104A7000152F8AEFD82E872D8072982E9AE3A92EB3
:104A8000872D8074882E11C08FEF9FEF57C0872D20
:104A90000E940425682E81110CC0DA94A9F361E00C
:104AA00070E080E090E00E94391F0115110579F750
:104AB0003BC0282F30E0021713070CF4602E672D3F
:104AC000CE0101960E948D248091E80085FF29C0C7
:104AD000262D30E0021B130B992039F06A948FEFDA
:104AE0006816B1F01092F100F9CFF701862D77FE2C
:104AF00007C0815058F094919093F1003196F9CF0E
:104B0000815020F091919093F100FACFE20EF31EC4
:104B10008091E80085FF0FC00115110511F4811087
:104B20000AC089818FBFC1CF5D9884E680939704C6
:104B30008C2D9B2D03C0A092E800F3CF0F90DF9146
:104B4000CF911F910F91FF90EF90DF90CF90BF908A
:104B5000AF909F908F907F906F9008951092E90092
:104B600010929204109291049093900480938F0479
:104B70000895CF92DF92FF920F931F93CF93DF930D
:104B800000D0CDB7DEB7F82E8A016B0101151105F3
:104B9000B1F0F601F7FE02C0849101C08081498323
:104BA0005A830E940C2401501109FFEFCF1ADF0A2B
:104BB00049815A818111EACF8FEF9FEF01C0CA016D
:104BC0000F900F90DF91CF911F910F91FF90DF9089
:104BD000CF900895BF92CF92DF92EF92FF920F9302
:104BE0001F93CF93DF936C018B01EB013BEFB32E4F
:104BF0002097C1F07E01C134D1051CF020E4E22EE3
:104C0000F12C8091E80082FFFCCFC8018C1B9D0B2A
:104C10006E2D8C0D9D1D0E94FF23B092E800CE19D1
:104C2000DF09E6CFC801DF91CF911F910F91FF906F
:104C3000EF90DF90CF90BF9008951F920F920FB624
:104C40000F921124DF92EF92FF920F931F932F93F5
:104C50003F934F935F936F937F938F939F93AF9304
:104C6000BF93EF93FF93CF93DF93CDB7DEB76C97EE
:104C7000DEBFCDBF1092E9008091E80083FF23C121
:104C800068E0CE0145960E94FF2382EF8093E80002
:104C90003D8937FF05C08091E80080FFFCCF03C04D
:104CA0008EEF8093E800832F807609F0F0C02E8984
:104CB0004F89D88C21110CC0303829F4809194048C
:104CC0008093F10002C01092F1001092F100F4C044
:104CD000842F90E09D29213049F43111EDC00197D6
:104CE00009F0EAC0809194048D7F0AC0233059F402
:104CF0003111E2C0019709F0DFC080919404826015
:104D000080939404D9C0253041F48091E80080FF5D
:104D1000FCCF40684093E300CFC0263009F08DC03F
:104D2000EB8CFC8C22E0D2122CC080E090E00E9440
:104D3000AE250E94772499E08E010F5F1F4FF80186
:104D4000292F11922A95E9F79983DA8291E09E83BF
:104D500090EA98879AEF9987209191043091920474
:104D6000275F3F4F3C832B838D83C7010E94AE2575
:104D700049E050E0B80180E00E94B9250E94772404
:104D80009BC0C7010E94AE250E94DD28BE016B5E5C
:104D90007F4F0E947F28009719F00CF08DC090C0C3
:104DA00081E0D8120EC08B8D9C8D089719F481E09C
:104DB00080938E0480918E0481112FC062EF72E087
:104DC00031C0E3E0DE127CC08F89882349F1823054
:104DD00029F440E860E180E193E01CC0813029F4CF
:104DE00040E86BE084E093E015C0833009F068C0D0
:104DF0000E94DD288E010F5F1F4FB8010E949E2880
:104E0000F80101900020E9F73197E01BF10B40E039
:104E10006E2FC8010E943A244DC060EE72E002C0BD
:104E200061E273E06115710509F44AC0FB01449128
:104E300050E080E80E94B9253FC0273009F440C007
:104E4000283021F481E08093F10036C02930A1F5AB
:104E50003370B1F5EAE1F1E081E021E036E39081E1
:104E6000992361F08093E9002093EB009191909356
:104E7000EC003093ED008F5F873089F78EE78093E9
:104E8000EA001092EA008F898093950415C08B8DFB
:104E90009C8D0E94AE25898D811105C0CE0145965D
:104EA0000E94112107C00E94DD28BE016B5E7F4F6A
:104EB0000E94BD28882321F08EEF8093E80003C074
:104EC00081E28093EB006C960FB6F894DEBF0FBEC4
:104ED000CDBFDF91CF91FF91EF91BF91AF919F91A6
:104EE0008F917F916F915F914F913F912F911F9182
:104EF0000F91FF90EF90DF900F900FBE0F901F90DB
:104F000018958093E9008091F200882319F08AE3D4
:104F10008093E80008951F920F920FB60F9211240C
:104F20002F933F934F935F936F937F938F939F93B1
:104F3000AF93BF93CF93EF93FF93C091E100809124
:104F4000E100837F8093E1008093E100C3FF0FC005
:104F50001092E90081E08093EB001092EC0082E374
:104F60008093ED001092950488E08093F000C2FFDA
:104F700019C083E00E94812780919704882339F02B
:104F800080919704815080939704882389F18091C0
:104F90009604882339F0809196048150809396047A
:104FA000882341F1C4FF10C08091E2008E7E8160B1
:104FB0008093E2008091E1008F7E8093E1008091F8
:104FC00093048E7E806111C0C0FF16C08091E20004
:104FD0008E7E80618093E2008091E1008E7E8093DE
:104FE000E100809193048E7E81608093930404C0DD
:104FF0005D9ACDCF289AD6CFFF91EF91CF91BF91F7
:10500000AF919F918F917F916F915F914F913F9160
:105010002F910F900FBE0F901F9018954F925F9297
:105020006F927F92AF92BF92CF92DF92EF92FF92F8
:105030000F931F93CF93DF93CDB7DEB729013A01CA
:10504000621B730B840B950B29893A894B895C8908
:105050002A193B094C095D09298B3A8B4B8B5C8BD8
:105060009B01AC0169897A898B899C890E94592BA3
:10507000E418F50806091709A80197010E94B32B47
:105080002A0D3B1D4C1D5D1DCA01B901DF91CF9159
:105090001F910F91FF90EF90DF90CF90BF90AF9056
:1050A0007F906F905F904F9008950895EF92FF92D8
:1050B0000F931F93CF93DF937B01FC01C281D381B8
:1050C00000E010E0209781F0E881F9810280F3810F
:1050D000E02DB701CE01099597FD08C0080F191FF3
:1050E0000884D985C02DEECFC80102C08FEF9FEF95
:1050F000DF91CF911F910F91FF90EF9008950F9343
:105100001F93CF93DF938B01FC01C281D381209742
:1051100071F0E881F9810480F581E02DB801CE01BC
:105120000995009731F40884D985C02DF0CF80E02F
:1051300090E0DF91CF911F910F9108950F931F93EE
:10514000CF93DF938B01FC01C281D381209771F053
:10515000E881F9810680F781E02DB801CE0109953B
:10516000080F111D0884D985C02DF0CFF8011082D9
:10517000DF91CF911F910F9108950F931F93CF93BC
:10518000DF938B01FC01C281D381209771F0E8810C
:10519000F9810190F081E02DB801CE0109958111CE
:1051A00006C00884D985C02DF0CF80E001C081E021
:1051B000DF91CF911F910F91089580919C048111EF
:1051C0000DC082E08093980484E08093990410924B
:1051D0009B0410929A0481E080939C0488E994E0F7
:1051E00008955058BB27AA270ED075C166D130F05C
:1051F0006BD120F031F49F3F11F41EF45BC10EF42B
:10520000E095E7FB51C1E92F77D180F3BA17620728
:1052100073078407950718F071F49EF58FC10EF49B
:10522000E0950B2EBA2FA02D0B01B90190010C01B6
:10523000CA01A0011124FF27591B99F0593F50F4CE
:10524000503E68F11A16F040A22F232F342F442726
:10525000585FF3CF469537952795A795F04053951E
:10526000C9F77EF41F16BA0B620B730B840BBAF0EE
:105270009150A1F0FF0FBB1F661F771F881FC2F759
:105280000EC0BA0F621F731F841F48F4879577956D
:105290006795B795F7959E3F08F0B3CF9395880F24
:1052A00008F09927EE0F979587950895D9D008F4BF
:1052B00081E008950CD00FC107D140F0FED030F04E
:1052C00021F45F3F19F0F0C0511139C1F3C014D17E
:1052D00098F39923C9F35523B1F3951B550BBB27BD
:1052E000AA2762177307840738F09F5F5F4F220F6A
:1052F000331F441FAA1FA9F333D00E2E3AF0E0E863
:1053000030D091505040E695001CCAF729D0FE2FAE
:1053100027D0660F771F881FBB1F26173707480740
:10532000AB07B0E809F0BB0B802DBF01FF279358F6
:105330005F4F2AF09E3F510568F0B6C000C15F3F45
:10534000ECF3983EDCF3869577956795B795F795DE
:105350009F5FC9F7880F911D9695879597F90895D6
:10536000E1E0660F771F881FBB1F62177307840772
:10537000BA0720F0621B730B840BBA0BEE1F88F781
:10538000E095089504D06894B111D9C00895BCD0B7
:1053900088F09F5790F0B92F9927B751A0F0D1F01E
:1053A000660F771F881F991F1AF0BA95C9F712C0A8
:1053B000B13081F0C3D0B1E00895C0C0672F782F1D
:1053C0008827B85F39F0B93FCCF386957795679514
:1053D000B395D9F73EF490958095709561957F4F80
:1053E0008F4F9F4F0895E89409C097FB3EF4909526
:1053F0008095709561957F4F8F4F9F4F9923A9F0AE
:10540000F92F96E9BB279395F6958795779567953C
:10541000B795F111F8CFFAF4BB0F11F460FF1BC080
:105420006F5F7F4F8F4F9F4F16C0882311F096E913
:1054300011C0772321F09EE8872F762F05C06623C1
:1054400071F096E8862F70E060E02AF09A95660F7A
:10545000771F881FDAF7880F9695879597F9089533
:10546000990F0008550FAA0BE0E8FEEF1616170675
:10547000E807F907C0F012161306E407F50798F0DD
:10548000621B730B840B950B39F40A2661F0232BF6
:10549000242B252B21F408950A2609F4A140A69572
:1054A0008FEF811D811D089597F99F6780E870E057
:1054B00060E008959FEF80EC089500240A9416168A
:1054C000170618060906089500240A9412161306F2
:1054D000140605060895092E0394000C11F4882380
:1054E00052F0BB0F40F4BF2B11F460FF04C06F5F9C
:1054F0007F4F8F4F9F4F089557FD9058440F551F72
:1055000059F05F3F71F04795880F97FB991F61F045
:105510009F3F79F087950895121613061406551FBC
:10552000F2CF4695F1DF08C0161617061806991F28
:10553000F1CF86957105610508940895E894BB271D
:1055400066277727CB0197F908958ADF08F48FEF54
:1055500008950BD0C0CFB1DF28F0B6DF18F0952347
:1055600009F0A2CFA7CF1124EACFC6DFA0F3959F01
:10557000D1F3950F50E0551F629FF001729FBB273A
:10558000F00DB11D639FAA27F00DB11DAA1F649FE6
:105590006627B00DA11D661F829F2227B00DA11D99
:1055A000621F739FB00DA11D621F839FA00D611D1F
:1055B000221F749F3327A00D611D231F849F600D40
:1055C000211D822F762F6A2F11249F5750408AF079
:1055D000E1F088234AF0EE0FFF1FBB1F661F771F05
:1055E000881F91505040A9F79E3F510570F05CCF45
:1055F000A6CF5F3FECF3983EDCF3869577956795F1
:10560000B795F795E7959F5FC1F7FE2B880F911D22
:105610009695879597F9089577DFE0F09E37D8F053
:105620009639B8F49E3848F4672F782F8827985F0A
:10563000F9CF86957795679593959539D0F3B62FE1
:10564000B1706B0F711D811D20F48795779567955B
:10565000939506C020C073CF03DF880B990B089584
:10566000882371F4772321F09850872B762F07C079
:10567000662311F499270DC09051862B70E060E0ED
:105680002AF09A95660F771F881FDAF7880F96958C
:10569000879597F908959F3F31F0915020F48795B1
:1056A00077956795B795880F911D9695879597F98A
:1056B0000895DB018F939F930E94D82BBF91AF91E8
:1056C000A29F800D911DA39F900DB29F900D11245C
:1056D0000895AA1BBB1B51E107C0AA1FBB1FA61739
:1056E000B70710F0A61BB70B881F991F5A95A9F78B
:1056F00080959095BC01CD01089597FB072E16F477
:10570000009407D077FD09D00E94692B07FC05D0D3
:105710003EF4909581959F4F0895709561957F4FC8
:105720000895A1E21A2EAA1BBB1BFD010DC0AA1FE2
:10573000BB1FEE1FFF1FA217B307E407F50720F0FA
:10574000A21BB30BE40BF50B661F771F881F991F75
:105750001A9469F760957095809590959B01AC01BE
:10576000BD01CF010895052E97FB1EF400940E9401
:10577000CA2B57FD07D00E94912B07FC03D04EF493
:105780000C94CA2B50954095309521953F4F4F4F23
:105790005F4F089590958095709561957F4F8F4FDD
:1057A0009F4F0895EE0FFF1F0590F491E02D09948F
:1057B0000E94EB2BA59F900DB49F900DA49F800D90
:1057C000911D11240895B7FF0C94D82B0E94D82B5B
:1057D000821B930B0895A29FB001B39FC001A39FAA
:1057E000700D811D1124911DB29F700D811D11241A
:1057F000911D0895FC0188279927E8942191203272
:10580000E9F3293010F02E30C8F32B3241F02D325D
:1058100039F4689404C00E94302C820F911D2191AC
:1058200020532A30C0F31EF4909581959F4F089520
:10583000FB01DC018D91019080190110D9F3990BC6
:105840000895FB01DC014150504048F001900D9259
:105850000020C9F701C01D9241505040E0F7089563
:105860007AE0979F902D879F802D910D11240895A8
:10587000AEE0B0E0EEE3FCE20C94F62E0D891E895A
:1058800086E08C831A8309838FEF9FE79E838D8345
:10589000AE01475E5F4F6F89788DCE0101960E9401
:1058A0005A2CEF81F885E00FF11F10822E96E4E06C
:1058B0000C94122FACE0B0E0E0E6FCE20C94E82E91
:1058C0007C016B018A01FC0117821682838181FFB2
:1058D000BDC1CE0101964C01F7019381F60193FD04
:1058E000859193FF81916F01882309F4ABC18532C3
:1058F00039F493FD859193FF81916F01853229F4ED
:10590000B70190E00E94582EE7CF512C312C20E0B7
:105910002032A0F48B3269F030F4803259F08332B7
:1059200069F420612CC08D3239F0803339F4216064
:1059300026C02260246023C0286021C027FD27C024
:1059400030ED380F3A3078F426FF06C0FAE05F9E5B
:10595000300D1124532E13C08AE0389E300D1124CF
:10596000332E20620CC08E3221F426FD6BC12064E0
:1059700006C08C3611F4206802C0883641F4F60166
:1059800093FD859193FF81916F018111C1CF982F74
:105990009F7D9554933028F40C5F1F4FFFE3F983EC
:1059A0000DC0833631F0833771F0833509F05BC069
:1059B00022C0F801808189830E5F1F4F44244394E5
:1059C000512C540115C03801F2E06F0E711CF80122
:1059D000A080B18026FF03C0652D70E002C06FEF8C
:1059E0007FEFC5012C870E944D2E2C0183012C8551
:1059F0002F77222E17C03801F2E06F0E711CF801CC
:105A0000A080B18026FF03C0652D70E002C06FEF5B
:105A10007FEFC5012C870E94422E2C012C85206827
:105A2000222E830123FC1BC0832D90E048165906CB
:105A3000B0F4B70180E290E00E94582E3A94F4CF7F
:105A4000F50127FC859127FE81915F01B70190E068
:105A50000E94582E31103A94F1E04F1A5108411427
:105A6000510471F7E5C0843611F0893639F5F80133
:105A700027FF07C060817181828193810C5F1F4F76
:105A800008C060817181882777FD8095982F0E5F0F
:105A90001F4F2F76B22E97FF09C090958095709575
:105AA00061957F4F8F4F9F4F2068B22E2AE030E0E4
:105AB000A4010E948A2EA82EA81844C0853729F474
:105AC0002F7EB22E2AE030E025C0F22FF97FBF2EC4
:105AD0008F36C1F018F4883579F0B4C0803719F0EA
